{"abi":[{"type":"constructor","inputs":[{"name":"trustedForwarder","type":"address","internalType":"address"}],"stateMutability":"nonpayable"},{"type":"function","name":"DEFAULT_ADMIN_ROLE","inputs":[],"outputs":[{"name":"","type":"bytes32","internalType":"bytes32"}],"stateMutability":"view"},{"type":"function","name":"DEMOTION_PERIOD","inputs":[],"outputs":[{"name":"","type":"uint256","internalType":"uint256"}],"stateMutability":"view"},{"type":"function","name":"INVITE_RESET_PERIOD","inputs":[],"outputs":[{"name":"","type":"uint256","internalType":"uint256"}],"stateMutability":"view"},{"type":"function","name":"INVITE_VALIDITY","inputs":[],"outputs":[{"name":"","type":"uint256","internalType":"uint256"}],"stateMutability":"view"},{"type":"function","name":"MAX_UNREVIEWED","inputs":[],"outputs":[{"name":"","type":"uint256","internalType":"uint256"}],"stateMutability":"view"},{"type":"function","name":"OPEN_REGISTRATION_LIMIT","inputs":[],"outputs":[{"name":"","type":"uint256","internalType":"uint256"}],"stateMutability":"view"},{"type":"function","name":"PROTOCOL_ROLE","inputs":[],"outputs":[{"name":"","type":"bytes32","internalType":"bytes32"}],"stateMutability":"view"},{"type":"function","name":"TIER0_DAILY_ANSWER_LIMIT","inputs":[],"outputs":[{"name":"","type":"uint256","internalType":"uint256"}],"stateMutability":"view"},{"type":"function","name":"TIER0_DAILY_QUESTION_LIMIT","inputs":[],"outputs":[{"name":"","type":"uint256","internalType":"uint256"}],"stateMutability":"view"},{"type":"function","name":"TIER1_BURN","inputs":[],"outputs":[{"name":"","type":"uint256","internalType":"uint256"}],"stateMutability":"view"},{"type":"function","name":"TIER2_BURN","inputs":[],"outputs":[{"name":"","type":"uint256","internalType":"uint256"}],"stateMutability":"view"},{"type":"function","name":"TIER2_STAKE","inputs":[],"outputs":[{"name":"","type":"uint256","internalType":"uint256"}],"stateMutability":"view"},{"type":"function","name":"TIER3_BURN","inputs":[],"outputs":[{"name":"","type":"uint256","internalType":"uint256"}],"stateMutability":"view"},{"type":"function","name":"UPGRADE_INTERFACE_VERSION","inputs":[],"outputs":[{"name":"","type":"string","internalType":"string"}],"stateMutability":"view"},{"type":"function","name":"activityCount","inputs":[{"name":"","type":"address","internalType":"address"}],"outputs":[{"name":"","type":"uint256","internalType":"uint256"}],"stateMutability":"view"},{"type":"function","name":"addStake","inputs":[{"name":"agent","type":"address","internalType":"address"},{"name":"amount","type":"uint256","internalType":"uint256"}],"outputs":[],"stateMutability":"nonpayable"},{"type":"function","name":"agents","inputs":[{"name":"","type":"address","internalType":"address"}],"outputs":[{"name":"name","type":"string","internalType":"string"},{"name":"tags","type":"string","internalType":"string"},{"name":"owner","type":"address","internalType":"address"},{"name":"tier","type":"uint8","internalType":"uint8"},{"name":"registeredAt","type":"uint256","internalType":"uint256"},{"name":"lastActiveAt","type":"uint256","internalType":"uint256"},{"name":"tierAchievedAt","type":"uint256","internalType":"uint256"},{"name":"hasDebtFlag","type":"bool","internalType":"bool"},{"name":"exists","type":"bool","internalType":"bool"}],"stateMutability":"view"},{"type":"function","name":"bestAnswerCount","inputs":[{"name":"","type":"address","internalType":"address"}],"outputs":[{"name":"","type":"uint256","internalType":"uint256"}],"stateMutability":"view"},{"type":"function","name":"canPurchase","inputs":[{"name":"agent","type":"address","internalType":"address"}],"outputs":[{"name":"","type":"bool","internalType":"bool"}],"stateMutability":"view"},{"type":"function","name":"checkAndIncrementDailyAnswer","inputs":[{"name":"agent","type":"address","internalType":"address"}],"outputs":[{"name":"","type":"bool","internalType":"bool"}],"stateMutability":"nonpayable"},{"type":"function","name":"checkAndIncrementDailyQuestion","inputs":[{"name":"agent","type":"address","internalType":"address"}],"outputs":[{"name":"","type":"bool","internalType":"bool"}],"stateMutability":"nonpayable"},{"type":"function","name":"checkDemotion","inputs":[{"name":"agentAddr","type":"address","internalType":"address"}],"outputs":[],"stateMutability":"nonpayable"},{"type":"function","name":"ckt","inputs":[],"outputs":[{"name":"","type":"address","internalType":"contract CKT"}],"stateMutability":"view"},{"type":"function","name":"clearDebtFlag","inputs":[{"name":"agent","type":"address","internalType":"address"}],"outputs":[],"stateMutability":"nonpayable"},{"type":"function","name":"dailyAnswerCount","inputs":[{"name":"","type":"address","internalType":"address"}],"outputs":[{"name":"","type":"uint256","internalType":"uint256"}],"stateMutability":"view"},{"type":"function","name":"dailyQuestionCount","inputs":[{"name":"","type":"address","internalType":"address"}],"outputs":[{"name":"","type":"uint256","internalType":"uint256"}],"stateMutability":"view"},{"type":"function","name":"decrementUnreviewed","inputs":[{"name":"agent","type":"address","internalType":"address"}],"outputs":[],"stateMutability":"nonpayable"},{"type":"function","name":"deliveryConfigHash","inputs":[{"name":"","type":"address","internalType":"address"}],"outputs":[{"name":"","type":"bytes32","internalType":"bytes32"}],"stateMutability":"view"},{"type":"function","name":"depositSellerBaseStake","inputs":[{"name":"amount","type":"uint256","internalType":"uint256"}],"outputs":[],"stateMutability":"nonpayable"},{"type":"function","name":"disputeCount","inputs":[{"name":"","type":"address","internalType":"address"}],"outputs":[{"name":"","type":"uint256","internalType":"uint256"}],"stateMutability":"view"},{"type":"function","name":"distinctQualifiedBuyerCount","inputs":[{"name":"","type":"address","internalType":"address"}],"outputs":[{"name":"","type":"uint256","internalType":"uint256"}],"stateMutability":"view"},{"type":"function","name":"explicitSellerRatingCount","inputs":[{"name":"","type":"address","internalType":"address"}],"outputs":[{"name":"","type":"uint256","internalType":"uint256"}],"stateMutability":"view"},{"type":"function","name":"explicitSellerRatingSum","inputs":[{"name":"","type":"address","internalType":"address"}],"outputs":[{"name":"","type":"uint256","internalType":"uint256"}],"stateMutability":"view"},{"type":"function","name":"forceDemoteToZero","inputs":[{"name":"agentAddr","type":"address","internalType":"address"}],"outputs":[],"stateMutability":"nonpayable"},{"type":"function","name":"generateInviteCode","inputs":[{"name":"intendedReferee","type":"address","internalType":"address"}],"outputs":[{"name":"code","type":"bytes32","internalType":"bytes32"}],"stateMutability":"nonpayable"},{"type":"function","name":"getAgent","inputs":[{"name":"agent","type":"address","internalType":"address"}],"outputs":[{"name":"","type":"tuple","internalType":"struct AgentRegistry.Agent","components":[{"name":"name","type":"string","internalType":"string"},{"name":"tags","type":"string","internalType":"string"},{"name":"owner","type":"address","internalType":"address"},{"name":"tier","type":"uint8","internalType":"uint8"},{"name":"registeredAt","type":"uint256","internalType":"uint256"},{"name":"lastActiveAt","type":"uint256","internalType":"uint256"},{"name":"tierAchievedAt","type":"uint256","internalType":"uint256"},{"name":"hasDebtFlag","type":"bool","internalType":"bool"},{"name":"exists","type":"bool","internalType":"bool"}]}],"stateMutability":"view"},{"type":"function","name":"getAverageRating","inputs":[{"name":"agent","type":"address","internalType":"address"}],"outputs":[{"name":"","type":"uint256","internalType":"uint256"}],"stateMutability":"view"},{"type":"function","name":"getDeliveryConfig","inputs":[{"name":"agent","type":"address","internalType":"address"}],"outputs":[{"name":"configHash","type":"bytes32","internalType":"bytes32"},{"name":"configURI","type":"string","internalType":"string"}],"stateMutability":"view"},{"type":"function","name":"getDisputeRate","inputs":[{"name":"agent","type":"address","internalType":"address"}],"outputs":[{"name":"","type":"uint256","internalType":"uint256"}],"stateMutability":"view"},{"type":"function","name":"getExplicitSellerRatingAvg","inputs":[{"name":"seller","type":"address","internalType":"address"}],"outputs":[{"name":"","type":"uint256","internalType":"uint256"}],"stateMutability":"view"},{"type":"function","name":"getInviteQuota","inputs":[{"name":"agent","type":"address","internalType":"address"}],"outputs":[{"name":"remaining","type":"uint256","internalType":"uint256"},{"name":"total","type":"uint256","internalType":"uint256"}],"stateMutability":"view"},{"type":"function","name":"getQualifiedMerchantStats","inputs":[{"name":"seller","type":"address","internalType":"address"}],"outputs":[{"name":"successCount","type":"uint256","internalType":"uint256"},{"name":"distinctBuyerCount","type":"uint256","internalType":"uint256"},{"name":"explicitRatingAvg","type":"uint256","internalType":"uint256"},{"name":"disputeCountForSeller","type":"uint256","internalType":"uint256"}],"stateMutability":"view"},{"type":"function","name":"getRoleAdmin","inputs":[{"name":"role","type":"bytes32","internalType":"bytes32"}],"outputs":[{"name":"","type":"bytes32","internalType":"bytes32"}],"stateMutability":"view"},{"type":"function","name":"getTier","inputs":[{"name":"agent","type":"address","internalType":"address"}],"outputs":[{"name":"","type":"uint8","internalType":"uint8"}],"stateMutability":"view"},{"type":"function","name":"grantRole","inputs":[{"name":"role","type":"bytes32","internalType":"bytes32"},{"name":"account","type":"address","internalType":"address"}],"outputs":[],"stateMutability":"nonpayable"},{"type":"function","name":"hasRole","inputs":[{"name":"role","type":"bytes32","internalType":"bytes32"},{"name":"account","type":"address","internalType":"address"}],"outputs":[{"name":"","type":"bool","internalType":"bool"}],"stateMutability":"view"},{"type":"function","name":"hasSellerBaseStake","inputs":[{"name":"seller","type":"address","internalType":"address"}],"outputs":[{"name":"","type":"bool","internalType":"bool"}],"stateMutability":"view"},{"type":"function","name":"incrementUnreviewed","inputs":[{"name":"agent","type":"address","internalType":"address"}],"outputs":[],"stateMutability":"nonpayable"},{"type":"function","name":"initialize","inputs":[{"name":"_ckt","type":"address","internalType":"address"}],"outputs":[],"stateMutability":"nonpayable"},{"type":"function","name":"inviteCodes","inputs":[{"name":"","type":"bytes32","internalType":"bytes32"}],"outputs":[{"name":"creator","type":"address","internalType":"address"},{"name":"createdAt","type":"uint256","internalType":"uint256"},{"name":"used","type":"bool","internalType":"bool"},{"name":"referee","type":"address","internalType":"address"}],"stateMutability":"view"},{"type":"function","name":"invitePeriodStart","inputs":[{"name":"","type":"address","internalType":"address"}],"outputs":[{"name":"","type":"uint256","internalType":"uint256"}],"stateMutability":"view"},{"type":"function","name":"invitesUsedInPeriod","inputs":[{"name":"","type":"address","internalType":"address"}],"outputs":[{"name":"","type":"uint256","internalType":"uint256"}],"stateMutability":"view"},{"type":"function","name":"isOpenRegistration","inputs":[],"outputs":[{"name":"","type":"bool","internalType":"bool"}],"stateMutability":"view"},{"type":"function","name":"isRegistered","inputs":[{"name":"agent","type":"address","internalType":"address"}],"outputs":[{"name":"","type":"bool","internalType":"bool"}],"stateMutability":"view"},{"type":"function","name":"isTrustedBuyer","inputs":[{"name":"buyer","type":"address","internalType":"address"}],"outputs":[{"name":"","type":"bool","internalType":"bool"}],"stateMutability":"view"},{"type":"function","name":"isTrustedForwarder","inputs":[{"name":"forwarder","type":"address","internalType":"address"}],"outputs":[{"name":"","type":"bool","internalType":"bool"}],"stateMutability":"view"},{"type":"function","name":"lastAnswerResetDay","inputs":[{"name":"","type":"address","internalType":"address"}],"outputs":[{"name":"","type":"uint256","internalType":"uint256"}],"stateMutability":"view"},{"type":"function","name":"lastPenaltyAt","inputs":[{"name":"","type":"address","internalType":"address"}],"outputs":[{"name":"","type":"uint256","internalType":"uint256"}],"stateMutability":"view"},{"type":"function","name":"lastQuestionResetDay","inputs":[{"name":"","type":"address","internalType":"address"}],"outputs":[{"name":"","type":"uint256","internalType":"uint256"}],"stateMutability":"view"},{"type":"function","name":"merchantDisputeCount","inputs":[{"name":"","type":"address","internalType":"address"}],"outputs":[{"name":"","type":"uint256","internalType":"uint256"}],"stateMutability":"view"},{"type":"function","name":"ownerRegistered","inputs":[{"name":"","type":"address","internalType":"address"}],"outputs":[{"name":"","type":"bool","internalType":"bool"}],"stateMutability":"view"},{"type":"function","name":"pause","inputs":[],"outputs":[],"stateMutability":"nonpayable"},{"type":"function","name":"paused","inputs":[],"outputs":[{"name":"","type":"bool","internalType":"bool"}],"stateMutability":"view"},{"type":"function","name":"penaltyCount","inputs":[{"name":"","type":"address","internalType":"address"}],"outputs":[{"name":"","type":"uint256","internalType":"uint256"}],"stateMutability":"view"},{"type":"function","name":"proxiableUUID","inputs":[],"outputs":[{"name":"","type":"bytes32","internalType":"bytes32"}],"stateMutability":"view"},{"type":"function","name":"qualifiedMerchantSuccessCount","inputs":[{"name":"","type":"address","internalType":"address"}],"outputs":[{"name":"","type":"uint256","internalType":"uint256"}],"stateMutability":"view"},{"type":"function","name":"qualifiedPairCredited","inputs":[{"name":"","type":"address","internalType":"address"},{"name":"","type":"address","internalType":"address"}],"outputs":[{"name":"","type":"bool","internalType":"bool"}],"stateMutability":"view"},{"type":"function","name":"ratingCount","inputs":[{"name":"","type":"address","internalType":"address"}],"outputs":[{"name":"","type":"uint256","internalType":"uint256"}],"stateMutability":"view"},{"type":"function","name":"ratingSum","inputs":[{"name":"","type":"address","internalType":"address"}],"outputs":[{"name":"","type":"uint256","internalType":"uint256"}],"stateMutability":"view"},{"type":"function","name":"recordActivity","inputs":[{"name":"agent","type":"address","internalType":"address"},{"name":"activityType","type":"string","internalType":"string"}],"outputs":[],"stateMutability":"nonpayable"},{"type":"function","name":"recordBestAnswer","inputs":[{"name":"agent","type":"address","internalType":"address"}],"outputs":[],"stateMutability":"nonpayable"},{"type":"function","name":"recordDispute","inputs":[{"name":"agent","type":"address","internalType":"address"}],"outputs":[],"stateMutability":"nonpayable"},{"type":"function","name":"recordMerchantDispute","inputs":[{"name":"seller","type":"address","internalType":"address"}],"outputs":[],"stateMutability":"nonpayable"},{"type":"function","name":"recordPenalty","inputs":[{"name":"agent","type":"address","internalType":"address"}],"outputs":[],"stateMutability":"nonpayable"},{"type":"function","name":"recordQualifiedMerchantSuccess","inputs":[{"name":"seller","type":"address","internalType":"address"},{"name":"buyer","type":"address","internalType":"address"},{"name":"sellerScore","type":"uint256","internalType":"uint256"}],"outputs":[],"stateMutability":"nonpayable"},{"type":"function","name":"recordRating","inputs":[{"name":"agent","type":"address","internalType":"address"},{"name":"score","type":"uint256","internalType":"uint256"}],"outputs":[],"stateMutability":"nonpayable"},{"type":"function","name":"recordTransaction","inputs":[{"name":"agent","type":"address","internalType":"address"}],"outputs":[],"stateMutability":"nonpayable"},{"type":"function","name":"recordUndelivery","inputs":[{"name":"agent","type":"address","internalType":"address"}],"outputs":[],"stateMutability":"nonpayable"},{"type":"function","name":"referralCount","inputs":[{"name":"","type":"address","internalType":"address"}],"outputs":[{"name":"","type":"uint256","internalType":"uint256"}],"stateMutability":"view"},{"type":"function","name":"referredBy","inputs":[{"name":"","type":"address","internalType":"address"}],"outputs":[{"name":"","type":"address","internalType":"address"}],"stateMutability":"view"},{"type":"function","name":"register","inputs":[{"name":"name","type":"string","internalType":"string"},{"name":"tags","type":"string","internalType":"string"},{"name":"inviteCode","type":"bytes32","internalType":"bytes32"}],"outputs":[],"stateMutability":"nonpayable"},{"type":"function","name":"removeStake","inputs":[{"name":"agent","type":"address","internalType":"address"},{"name":"amount","type":"uint256","internalType":"uint256"}],"outputs":[],"stateMutability":"nonpayable"},{"type":"function","name":"renounceRole","inputs":[{"name":"role","type":"bytes32","internalType":"bytes32"},{"name":"callerConfirmation","type":"address","internalType":"address"}],"outputs":[],"stateMutability":"nonpayable"},{"type":"function","name":"repairTotalAgentsFromLegacyAndBuggySlots","inputs":[],"outputs":[],"stateMutability":"nonpayable"},{"type":"function","name":"requestTierUpgrade","inputs":[],"outputs":[],"stateMutability":"nonpayable"},{"type":"function","name":"revokeRole","inputs":[{"name":"role","type":"bytes32","internalType":"bytes32"},{"name":"account","type":"address","internalType":"address"}],"outputs":[],"stateMutability":"nonpayable"},{"type":"function","name":"sellerBaseStakeAmount","inputs":[{"name":"","type":"address","internalType":"address"}],"outputs":[{"name":"","type":"uint256","internalType":"uint256"}],"stateMutability":"view"},{"type":"function","name":"sellerBaseStakeLocked","inputs":[{"name":"","type":"address","internalType":"address"}],"outputs":[{"name":"","type":"bool","internalType":"bool"}],"stateMutability":"view"},{"type":"function","name":"setDebtFlag","inputs":[{"name":"agent","type":"address","internalType":"address"}],"outputs":[],"stateMutability":"nonpayable"},{"type":"function","name":"setDeliveryConfig","inputs":[{"name":"configHash","type":"bytes32","internalType":"bytes32"},{"name":"configURI","type":"string","internalType":"string"}],"outputs":[],"stateMutability":"nonpayable"},{"type":"function","name":"setSellerBaseStakeLocked","inputs":[{"name":"seller","type":"address","internalType":"address"},{"name":"locked","type":"bool","internalType":"bool"}],"outputs":[],"stateMutability":"nonpayable"},{"type":"function","name":"stakedAmount","inputs":[{"name":"","type":"address","internalType":"address"}],"outputs":[{"name":"","type":"uint256","internalType":"uint256"}],"stateMutability":"view"},{"type":"function","name":"supportsInterface","inputs":[{"name":"interfaceId","type":"bytes4","internalType":"bytes4"}],"outputs":[{"name":"","type":"bool","internalType":"bool"}],"stateMutability":"view"},{"type":"function","name":"totalAgents","inputs":[],"outputs":[{"name":"","type":"uint256","internalType":"uint256"}],"stateMutability":"view"},{"type":"function","name":"totalAgentsRepairApplied","inputs":[],"outputs":[{"name":"","type":"bool","internalType":"bool"}],"stateMutability":"view"},{"type":"function","name":"totalTransactions","inputs":[{"name":"","type":"address","internalType":"address"}],"outputs":[{"name":"","type":"uint256","internalType":"uint256"}],"stateMutability":"view"},{"type":"function","name":"trustedForwarder","inputs":[],"outputs":[{"name":"","type":"address","internalType":"address"}],"stateMutability":"view"},{"type":"function","name":"undeliveryCount","inputs":[{"name":"","type":"address","internalType":"address"}],"outputs":[{"name":"","type":"uint256","internalType":"uint256"}],"stateMutability":"view"},{"type":"function","name":"unpause","inputs":[],"outputs":[],"stateMutability":"nonpayable"},{"type":"function","name":"unreviewedPurchaseCount","inputs":[{"name":"","type":"address","internalType":"address"}],"outputs":[{"name":"","type":"uint256","internalType":"uint256"}],"stateMutability":"view"},{"type":"function","name":"upgradeToAndCall","inputs":[{"name":"newImplementation","type":"address","internalType":"address"},{"name":"data","type":"bytes","internalType":"bytes"}],"outputs":[],"stateMutability":"payable"},{"type":"function","name":"withdrawSellerBaseStake","inputs":[{"name":"amount","type":"uint256","internalType":"uint256"}],"outputs":[],"stateMutability":"nonpayable"},{"type":"event","name":"ActivityRecorded","inputs":[{"name":"agent","type":"address","indexed":true,"internalType":"address"},{"name":"activityType","type":"string","indexed":false,"internalType":"string"}],"anonymous":false},{"type":"event","name":"AgentRegistered","inputs":[{"name":"agent","type":"address","indexed":true,"internalType":"address"},{"name":"name","type":"string","indexed":false,"internalType":"string"},{"name":"bonus","type":"uint256","indexed":false,"internalType":"uint256"},{"name":"referrer","type":"address","indexed":true,"internalType":"address"}],"anonymous":false},{"type":"event","name":"DebtFlagCleared","inputs":[{"name":"agent","type":"address","indexed":true,"internalType":"address"}],"anonymous":false},{"type":"event","name":"DebtFlagSet","inputs":[{"name":"agent","type":"address","indexed":true,"internalType":"address"}],"anonymous":false},{"type":"event","name":"DeliveryConfigUpdated","inputs":[{"name":"agent","type":"address","indexed":true,"internalType":"address"},{"name":"configHash","type":"bytes32","indexed":false,"internalType":"bytes32"},{"name":"configURI","type":"string","indexed":false,"internalType":"string"}],"anonymous":false},{"type":"event","name":"Initialized","inputs":[{"name":"version","type":"uint64","indexed":false,"internalType":"uint64"}],"anonymous":false},{"type":"event","name":"InviteCodeGenerated","inputs":[{"name":"creator","type":"address","indexed":true,"internalType":"address"},{"name":"code","type":"bytes32","indexed":true,"internalType":"bytes32"}],"anonymous":false},{"type":"event","name":"InviteCodeUsed","inputs":[{"name":"code","type":"bytes32","indexed":true,"internalType":"bytes32"},{"name":"newAgent","type":"address","indexed":true,"internalType":"address"},{"name":"creator","type":"address","indexed":true,"internalType":"address"}],"anonymous":false},{"type":"event","name":"MerchantDisputeRecorded","inputs":[{"name":"seller","type":"address","indexed":true,"internalType":"address"},{"name":"totalDisputes","type":"uint256","indexed":false,"internalType":"uint256"}],"anonymous":false},{"type":"event","name":"Paused","inputs":[{"name":"account","type":"address","indexed":false,"internalType":"address"}],"anonymous":false},{"type":"event","name":"QualifiedMerchantSuccessRecorded","inputs":[{"name":"seller","type":"address","indexed":true,"internalType":"address"},{"name":"buyer","type":"address","indexed":true,"internalType":"address"},{"name":"sellerScore","type":"uint256","indexed":false,"internalType":"uint256"},{"name":"newBuyerPair","type":"bool","indexed":false,"internalType":"bool"}],"anonymous":false},{"type":"event","name":"ReferralBonusPaid","inputs":[{"name":"referrer","type":"address","indexed":true,"internalType":"address"},{"name":"referee","type":"address","indexed":true,"internalType":"address"},{"name":"amount","type":"uint256","indexed":false,"internalType":"uint256"}],"anonymous":false},{"type":"event","name":"RoleAdminChanged","inputs":[{"name":"role","type":"bytes32","indexed":true,"internalType":"bytes32"},{"name":"previousAdminRole","type":"bytes32","indexed":true,"internalType":"bytes32"},{"name":"newAdminRole","type":"bytes32","indexed":true,"internalType":"bytes32"}],"anonymous":false},{"type":"event","name":"RoleGranted","inputs":[{"name":"role","type":"bytes32","indexed":true,"internalType":"bytes32"},{"name":"account","type":"address","indexed":true,"internalType":"address"},{"name":"sender","type":"address","indexed":true,"internalType":"address"}],"anonymous":false},{"type":"event","name":"RoleRevoked","inputs":[{"name":"role","type":"bytes32","indexed":true,"internalType":"bytes32"},{"name":"account","type":"address","indexed":true,"internalType":"address"},{"name":"sender","type":"address","indexed":true,"internalType":"address"}],"anonymous":false},{"type":"event","name":"SellerBaseStakeDeposited","inputs":[{"name":"seller","type":"address","indexed":true,"internalType":"address"},{"name":"amount","type":"uint256","indexed":false,"internalType":"uint256"},{"name":"totalAmount","type":"uint256","indexed":false,"internalType":"uint256"}],"anonymous":false},{"type":"event","name":"SellerBaseStakeLockSet","inputs":[{"name":"seller","type":"address","indexed":true,"internalType":"address"},{"name":"locked","type":"bool","indexed":false,"internalType":"bool"}],"anonymous":false},{"type":"event","name":"SellerBaseStakeWithdrawn","inputs":[{"name":"seller","type":"address","indexed":true,"internalType":"address"},{"name":"amount","type":"uint256","indexed":false,"internalType":"uint256"},{"name":"remainingAmount","type":"uint256","indexed":false,"internalType":"uint256"}],"anonymous":false},{"type":"event","name":"TierDemoted","inputs":[{"name":"agent","type":"address","indexed":true,"internalType":"address"},{"name":"oldTier","type":"uint8","indexed":false,"internalType":"uint8"},{"name":"newTier","type":"uint8","indexed":false,"internalType":"uint8"},{"name":"reason","type":"string","indexed":false,"internalType":"string"}],"anonymous":false},{"type":"event","name":"TierUpgraded","inputs":[{"name":"agent","type":"address","indexed":true,"internalType":"address"},{"name":"oldTier","type":"uint8","indexed":false,"internalType":"uint8"},{"name":"newTier","type":"uint8","indexed":false,"internalType":"uint8"}],"anonymous":false},{"type":"event","name":"TotalAgentsRepaired","inputs":[{"name":"legacyCount","type":"uint256","indexed":false,"internalType":"uint256"},{"name":"buggyCount","type":"uint256","indexed":false,"internalType":"uint256"},{"name":"repairedTotal","type":"uint256","indexed":false,"internalType":"uint256"}],"anonymous":false},{"type":"event","name":"Unpaused","inputs":[{"name":"account","type":"address","indexed":false,"internalType":"address"}],"anonymous":false},{"type":"event","name":"Upgraded","inputs":[{"name":"implementation","type":"address","indexed":true,"internalType":"address"}],"anonymous":false},{"type":"error","name":"AccessControlBadConfirmation","inputs":[]},{"type":"error","name":"AccessControlUnauthorizedAccount","inputs":[{"name":"account","type":"address","internalType":"address"},{"name":"neededRole","type":"bytes32","internalType":"bytes32"}]},{"type":"error","name":"AddressEmptyCode","inputs":[{"name":"target","type":"address","internalType":"address"}]},{"type":"error","name":"ERC1967InvalidImplementation","inputs":[{"name":"implementation","type":"address","internalType":"address"}]},{"type":"error","name":"ERC1967NonPayable","inputs":[]},{"type":"error","name":"EnforcedPause","inputs":[]},{"type":"error","name":"ExpectedPause","inputs":[]},{"type":"error","name":"FailedCall","inputs":[]},{"type":"error","name":"InvalidInitialization","inputs":[]},{"type":"error","name":"NotInitializing","inputs":[]},{"type":"error","name":"ReentrancyGuardReentrantCall","inputs":[]},{"type":"error","name":"UUPSUnauthorizedCallContext","inputs":[]},{"type":"error","name":"UUPSUnsupportedProxiableUUID","inputs":[{"name":"slot","type":"bytes32","internalType":"bytes32"}]}],"bytecode":{"object":"0x60c0346200014c576001600160401b0390601f6200522338819003918201601f19168301918483118484101762000150578084926020946040528339810103126200014c57516001600160a01b03811681036200014c5760017f9b779b17422d0df92223018b32b4d1fa46e071723d6817e2486d003becc55f00553060805260a0527ff0c57e16840df040f15088dc2f81fe391c3923bec73e23a9662efc9c229c6a009081549060ff8260401c166200013a578080831603620000f4575b6040516150be908162000165823960805181818161353f01526135f7015260a0518181816130850152818161344d0152614ed80152f35b6001600160401b031990911681179091556040519081527fc7f505b2f371ae2175ee4913f4499e1f2633a7b5936321eed1cdaeb6115181d290602090a15f8080620000bd565b60405163f92ee8a960e01b8152600490fd5b5f80fd5b634e487b7160e01b5f52604160045260245ffdfe6080806040526004361015610012575f80fd5b5f905f3560e01c90816301ffc9a7146143ae5750806302768de41461437457806304357cc01461433c57806304735eae146143045780630808d97a146142995780630a3be349146142575780630cfffbbe1461412f5780630d632bf7146141005780630d881fd71461407a5780630d8dbd091461404257806313afb41e1461400a57806313fb5ea714613fb55780631dd9092e14613f7d5780631f0c148114613f5a5780631fecb7d614613f2257806321a3b21214613f005780632404165e14613ec8578063248a9ca314613e8f57806324f52d3c14613c515780632f2ff15d14613c08578063325d917e14613bd0578063341c999814613b0857806336568abe14613a6c5780633a49419f14613a495780633d3ff5c814613a2d5780633e3b429a146139f25780633f4ba83a1461397e578063402063051461396357806340aa01731461394857806345d6f7b6146138db5780634b4ad9d5146138be5780634b517759146137945780634f1ef286146135a957806352d1902d1461352d57806354ba639c146134db578063552c182e146134a357806357165daf14613481578063572b6c051461342d5780635c975abb146133ff5780635cb0610c146133a65780635f07db371461336e5780636057a33014613336578063622206c21461326d5780636374299e1461322c57806364d1bce01461320157806368ce7d8a146131aa5780636b293324146131885780637165e5ca14613150578063720395a31461311857806378004d84146130db57806379021310146130b45780637da0a877146130705780637e27afec146130535780637f299f7c14612fa157806380b163af14612f7e5780638456cb5914612f075780638b38d9b114612e9f5780638b76de1e14612e6a5780638bd4ed0814612e495780638fe80d9514612dfb5780639119b8b114612dc357806391d1485414612d6e5780639475670f14612d3657806396c5007614612cfe578063a01edde6146129e6578063a217fddf146129cc578063a674241f146129aa578063a81cb6e414612843578063a90f8e9a1461280a578063a9330b0e146127d2578063abfbd2dc14612790578063ad3cb1cc1461274b578063ada91a1714612540578063b45aae52146124ff578063b862c76d146124c2578063ba8bfc6814612480578063bb35f03d14612465578063bb56d6901461242d578063c3c5a547146123ea578063c4d66de81461225c578063c50537121461223f578063c8b6752214612214578063d0542f9714612132578063d4509d79146120d2578063d547741f14612087578063d5b36c0e1461206a578063db74559b14612032578063dbbd81b914611fee578063dcc2e21814611fb6578063dd988bab14611f7e578063de652fc014611f38578063e690249f14611f00578063e8cce11514611ec8578063ecfba34314611e0f578063f0425be414611a39578063f3fd219a1461111b578063f4ec82a9146110e3578063f5d2555014611047578063f5de1230146106fc578063f9931855146106c3578063fb3551ff1461054c5763fd66091e14610480575f80fd5b3461054957602036600319011261054957610501906001600160a01b0390604090826104aa614401565b1681526001602052209060ff6104bf83614580565b926104cc60018201614580565b90600281015460038201548460048401549261050f60066005870154960154966040519b8c9b8c6101208091528d019061450a565b908b820360208d015261450a565b97811660408a015260a01c166060880152608087015260a086015260c0850152818116151560e085015260081c1615156101008301520390f35b80fd5b5034610549576020806003193601126106bf57610567614401565b906040519261057584614440565b60608452818401606090528060408501528060608501528060808501528060a08501528060c08501528060e08501528061010080950152600160a01b600190038093168152600182526040902090604051926105d084614440565b6105d983614580565b84526105e760018401614580565b9482850195865260028401549160408601948184168652606087019360a01c60ff16845260038101546080880190815260048201549060a0890191825260058301549260c08a01938452600601549560e08a019460ff881615158652868b019760081c60ff16151588526040519b8c9b8a8d52518c6101209b8c9101526101408d016106729161450a565b90518c8203601f190160408e015261068a919061450a565b99511660608b01525160ff1660808a01525160a08901525160c08801525160e087015251151590850152511515908301520390f35b5080fd5b5034610549576020366003190112610549576020906040906001600160a01b036106eb614401565b168152600a83522054604051908152f35b5034610549576060366003190112610549576004356001600160401b0381116106bf5761072d9036906004016144dd565b91906024356001600160401b038111610c4b5761074e9036906004016144dd565b9390610758614c5d565b610760614c9f565b6001600160a01b03610770614ead565b168452601060205260ff60408520541661100257600382101580610ff7575b15610fb25783906101f46014541015610d8a575b6001600160a01b036107b3614ead565b168552601060205260408520600160ff198254161790556107d5601454614622565b6014556108056107e3614ead565b91604051976107f189614440565b6107fc368789614498565b89523691614498565b60208701526001600160a01b03908116604087015260608601859052426080870181905260a0870181905260c087015260e08601859052600161010087015261084c614ead565b1684526001602052604084209480518051906001600160401b038211610d0e576108808261087a8a54614548565b8a614a40565b602090601f8311600114610d22576108af9291889183610c8e575b50508160011b915f199060031b1c19161790565b86555b60208101519586516001600160401b038111610d0e576108e2816108d96001850154614548565b60018501614a40565b6020601f8211600114610c99579161091982600693610100958b9c8c9b9c92610c8e5750508160011b915f199060031b1c19161790565b60018201555b6040840151600282018054606087015160ff60a01b60a09190911b166001600160a01b039093166001600160a81b0319909116179190911790556080840151600382015560a0840151600482015560c08401516005820155019161099560e08201511515849060ff801983541691151516179055565b0151815461ff00191690151560081b61ff001617905582546020906001600160a01b031660246109c3614ead565b604051636a1fbdd560e01b81526001600160a01b0390911660048201529586928391905af1928315610c83578593610c4f575b506001600160a01b03169283610a82575b7fed7623659b69359cbc59bb564bf6a27ba904401c33ee12ff3bb0f8e8ada5738b916001600160a01b03610a39614ead565b1693610a5260405193849360408552604085019161485b565b9060208301520390a360017f9b779b17422d0df92223018b32b4d1fa46e071723d6817e2486d003becc55f005580f35b6001600160a01b03610a92614ead565b168552601160205260408520846001600160601b0360a01b825416179055838552601260205260408520610ac68154614622565b9055845485906001600160a01b0316610add614ead565b813b15610c4b57604051632b2ecd8b60e11b8152600481018890526001600160a01b0390911660248201529082908290604490829084905af18015610c4057610c28575b5050610b2b614ead565b855460405163aa7d91d760e01b815291939190602090829060049082906001600160a01b03165afa908115610c1d5786908892610bc3575b506040519182527fed7623659b69359cbc59bb564bf6a27ba904401c33ee12ff3bb0f8e8ada5738b946001600160a01b0316917f69fd0542b64a8fdb79669725dd1ca4fd2494764f3076df8f27a67d0b9a27e58590602090a39150610a07565b949150506020843d602011610c15575b81610be060209383614477565b81010312610c11579251857f69fd0542b64a8fdb79669725dd1ca4fd2494764f3076df8f27a67d0b9a27e585610b63565b5f80fd5b3d9150610bd3565b6040513d89823e3d90fd5b610c319061442d565b610c3c57845f610b21565b8480fd5b6040513d84823e3d90fd5b8280fd5b9092506020813d602011610c7b575b81610c6b60209383614477565b81010312610c115751915f6109f6565b3d9150610c5e565b6040513d87823e3d90fd5b015190505f8061089b565b6001830188526020882098885b601f1984168110610cf6575082899a6101009593600193600696601f9d9c9d19811610610cde575b505050811b01600182015561091f565b01515f1960f88460031b161c191690555f8080610cce565b828201518b556001909a019960209283019201610ca6565b634e487b7160e01b87526041600452602487fd5b9190888852602088209088935b601f1984168510610d6f576001945083601f19811610610d57575b505050811b0186556108b2565b01515f1960f88460031b161c191690555f8080610d4a565b81810151835560209485019460019093019290910190610d2f565b905060443515610f6d57604435845260156020526040842080546001600160a01b031691908215610f2857600281015460ff8116610ed85762093a80610dd46001840154426146e5565b11610e9357610de1614ead565b6001600160a01b03600883901c8116911603610e435760ff191660011760029190910155816001600160a01b03610e16614ead565b166044357f9dc6761a2ebb043b554e472b9aaa20e12e34875afdb783223cfa5d1a0a41c3ab8880a46107a3565b60405162461bcd60e51b815260206004820152602260248201527f52656769737472793a206e6f742074686520696e74656e646564207265666572604482015261656560f01b6064820152608490fd5b60405162461bcd60e51b815260206004820152601d60248201527f52656769737472793a20696e7669746520636f646520657870697265640000006044820152606490fd5b60405162461bcd60e51b815260206004820152602260248201527f52656769737472793a20696e7669746520636f646520616c7265616479207573604482015261195960f21b6064820152608490fd5b60405162461bcd60e51b815260206004820152601d60248201527f52656769737472793a20696e76616c696420696e7669746520636f64650000006044820152606490fd5b60405162461bcd60e51b815260206004820152601e60248201527f52656769737472793a20696e7669746520636f646520726571756972656400006044820152606490fd5b60405162461bcd60e51b815260206004820152601960248201527f52656769737472793a206e616d6520332d3634206368617273000000000000006044820152606490fd5b50604082111561078f565b60405162461bcd60e51b815260206004820152601c60248201527f52656769737472793a20616c72656164792072656769737465726564000000006044820152606490fd5b503461054957602036600319011261054957611061614401565b611069614b2a565b6001600160a01b0316808252600160205260408220600601546110919060081c60ff16614a8f565b8082526022602052604082206110a78154614622565b905580825260226020527ff26656884606e76fd4874df0f9909dbf1d5934593646c8ba51639462a77084b860206040842054604051908152a280f35b5034610549576020366003190112610549576020906040906001600160a01b0361110b614401565b1681528280522054604051908152f35b5034610c11575f366003190112610c1157611134614c9f565b6001600160a01b0380611145614ead565b165f526020906001825260405f2060068101549161116860ff8460081c16614630565b6002820160ff815460a01c1693600390818610156119ff5760ff61118d91161561479a565b600185019360ff85116117415760ff851694600186149384156115335762093a806111bb85850154426146e5565b106114f857856111c9614ead565b165f52600689528360405f2054106114b357856111e4614ead565b165f5260078952600160405f20541061146e579061121a915b805460ff60a01b191660a09290921b60ff60a01b16919091179055565b6005429101555f915f14611441575050670de0b6b3a76400005b80611277575b50916040917fcbbf00b5f55f1857f9362f521999f79036413e420d1b236d6bc143af30db731a93611269614ead565b16948351928352820152a280f35b815f5416611283614ead565b6040516370a0823160e01b815290841660048201528681602481855afa80156113825783915f91611410575b50106113ba578582611300926112c3614ead565b6040516323b872dd60e01b81526001600160a01b0390911660048201523060248201526044810192909252909283919082905f9082906064820190565b03925af180156113825761138d575b50815f541690813b15610c11575f91602483926040519485938492630852cd8d60e31b845260048401525af18015611382571561123a577fcbbf00b5f55f1857f9362f521999f79036413e420d1b236d6bc143af30db731a939195509161137760409361442d565b5f959193509161123a565b6040513d5f823e3d90fd5b6113ac90863d88116113b3575b6113a48183614477565b8101906146c0565b505f61130f565b503d61139a565b60405162461bcd60e51b815260048101879052602860248201527f52656769737472793a20696e73756666696369656e7420434b5420666f72207460448201526734b2b910313ab93760c11b6064820152608490fd5b809250888092503d831161143a575b6114298183614477565b81010312610c11578290515f6112af565b503d61141f565b60028403611459575050674563918244f40000611234565b83036112345750678ac7230489e80000611234565b60405162461bcd60e51b8152600481018a9052601a60248201527f54313a2031204265737420416e737765722072657175697265640000000000006044820152606490fd5b60405162461bcd60e51b8152600481018a9052601960248201527f54313a20332061637469766974696573207265717569726564000000000000006044820152606490fd5b60405162461bcd60e51b8152600481018a90526013602482015272150c4e880dc819185e5cc81c995c5d5a5c9959606a1b6044820152606490fd5b600287036118035762278d0061154d6005850154426146e5565b106117c8578561155b614ead565b165f5260068952600a60405f20541061178f5785611577614ead565b165f52600789528360405f2054106117555785611592614ead565b165f526009895260405f20546116ba575b856115ac614ead565b165f52600e89526276a7006115c560405f2054426146e5565b1080159061169e575b1561166457856115dc614ead565b165f52600a89526802b5e3af16b188000061161060405f2054886115fe614ead565b165f52601b8c5260405f2054906146d8565b1061161f579061121a916111fd565b60405162461bcd60e51b8152600481018a9052601960248201527f54323a20353020434b54207374616b65207265717569726564000000000000006044820152606490fd5b60405162461bcd60e51b8152600481018a9052601260248201527154323a20726563656e742070656e616c747960701b6044820152606490fd5b50856116a8614ead565b165f52600e895260405f2054156115ce565b856116c3614ead565b165f526008895260405f20546064810290808204606414901517156117415761170461012c91886116f2614ead565b165f5260098c5260405f2054906147e6565b10156115a35760405162461bcd60e51b8152600481018a9052600f60248201526e54323a20726174696e6720332e302b60881b6044820152606490fd5b634e487b7160e01b5f52601160045260245ffd5b60405162461bcd60e51b8152600481018a90526012602482015271150c8e880cc810905cc81c995c5d5a5c995960721b6044820152606490fd5b60405162461bcd60e51b8152600481018a9052601160248201527054323a203130206163746976697469657360781b6044820152606490fd5b60405162461bcd60e51b8152600481018a9052601360248201527254323a20333020646179732066726f6d20543160681b6044820152606490fd5b838714611815575b9061121a916111fd565b6276a7006118276005850154426146e5565b106119c45785611835614ead565b165f52600b895260648060405f20541061198b5786611852614ead565b165f5260098a5260405f205461190a575b8661186c614ead565b165f52600b8a5260405f2054611883575b5061180b565b8661188c614ead565b165f52600c8a5260405f205481810290808204831490151715611741576118ca600291896118b8614ead565b165f52600b8d5260405f2054906147e6565b1061187d5760405162461bcd60e51b8152600481018b9052601660248201527554333a20646973707574652072617465203e3d20322560501b6044820152fd5b86611913614ead565b165f5260088a5260405f205481810290808204831490151715611741576119526101a99189611940614ead565b165f5260098d5260405f2054906147e6565b10156118635760405162461bcd60e51b8152600481018b9052600e60248201526d54333a20726174696e672038352b60901b6044820152fd5b60405162461bcd60e51b8152600481018b9052601460248201527354333a20313030207472616e73616374696f6e7360601b6044820152fd5b60405162461bcd60e51b8152600481018a905260136024820152722a199d101c98103230bcb990333937b6902a1960691b6044820152606490fd5b60405162461bcd60e51b81526004810188905260126024820152712932b3b4b9ba393c9d1036b0bc103a34b2b960711b6044820152606490fd5b34610c1157602080600319360112610c1157611a53614401565b611a5b614c9f565b6001600160a01b03818116918215611dca57825f526010845260ff60405f205416611d795781611a89614ead565b165f5260018452600260405f20611aa960ff600683015460081c16614630565b01600160ff825460a01c1610611d345760ff611af29184611ac8614ead565b165f526017875262278d00611ae160405f2054426146e5565b1015611d03575b5460a01c16614cc9565b82611afb614ead565b165f526016855260405f20541015611cc057611b15614ead565b9260405193858501926001600160601b0319809260601b16845260601b16603485015242604885015260488452608084016001600160401b039285821084831117611c6b57816040528551902094855f52601587528460405f205416611c7f575050611b7f614ead565b60405192608084019190821184831017611c6b578491604052168252611bf360028684019342855260408101945f865260608201948552875f52601589528660405f209251166001600160601b0360a01b8354161782555160018201550192511515839060ff801983541691151516179055565b518154610100600160a81b03191660089190911b610100600160a81b031617905580611c1d614ead565b165f526016835260405f20611c328154614622565b9055611c3c614ead565b169080604051927f2024281721cc5b5c9de0db708f4f0ea40e02486266fb5677a1549ededbf960c45f80a38152f35b634e487b7160e01b5f52604160045260245ffd5b907f52656769737472793a20636f646520636f6c6c6973696f6e000000000000000060c46064938962461bcd60e51b85526084820152601860a48201520152fd5b6064846040519062461bcd60e51b825280600483015260248201527f52656769737472793a20696e766974652071756f7461206578686175737465646044820152fd5b84611d0c614ead565b165f52601687525f604081205584611d22614ead565b165f52601787524260405f2055611ae8565b60405162461bcd60e51b815260048101869052601a60248201527f52656769737472793a205469657220312b2072657175697265640000000000006044820152606490fd5b60405162461bcd60e51b8152600481018590526024808201527f52656769737472793a207265666572656520616c726561647920726567697374604482015263195c995960e21b6064820152608490fd5b60405162461bcd60e51b815260048101859052601b60248201527f52656769737472793a207a65726f2072656665726565206164647200000000006044820152606490fd5b34610c11576020366003190112610c11576001600160a01b03611e30614401565b16805f52600160205260405f2060068101549060ff8260081c169182611ebc575b5081611ea0575b5080611e89575b80611e72575b6020906040519015158152f35b505f5260136020526020600360405f205410611e65565b50805f526006602052600360405f20541015611e5f565b60039150015462093a8081018091116117415742101582611e58565b60ff1615915083611e51565b34610c11576020366003190112610c11576001600160a01b03611ee9614401565b165f526008602052602060405f2054604051908152f35b34610c11576020366003190112610c11576001600160a01b03611f21614401565b165f526005602052602060405f2054604051908152f35b34610c11576020366003190112610c1157611f51614401565b611f59614b2a565b6001600160a01b03165f9081526007602052604090208054611f7a90614622565b9055005b34610c11576020366003190112610c11576001600160a01b03611f9f614401565b165f52601f602052602060405f2054604051908152f35b34610c11576020366003190112610c11576001600160a01b03611fd7614401565b165f526003602052602060405f2054604051908152f35b34610c11576020366003190112610c11576001600160a01b0361200f614401565b165f52601b60205260206802b5e3af16b188000060405f20541015604051908152f35b34610c11576020366003190112610c11576001600160a01b03612053614401565b165f526012602052602060405f2054604051908152f35b34610c11575f366003190112610c1157602060405162093a808152f35b34610c11576040366003190112610c11576120d06004356120a6614417565b90805f525f805160206150498339815191526020526120cb600160405f200154614c1b565b614e22565b005b34610c11576020366003190112610c11576001600160a01b036120f3614401565b165f52601960205260405f2054601a60205261211160405f20614580565b9061212e604051928392835260406020840152604083019061450a565b0390f35b34610c11576020366003190112610c115761214b614401565b612153614b2a565b6001600160a01b03165f818152600f60205260409020805461217490614622565b9055805f52600f602052600360405f2054101561218d57005b600160205260405f20600281019081549060ff8260a01c1690816121ad57005b7f8c34ab8d1aa1a52de9e49a12f821dbf4105dbc60e63673b432e7755071c3cfe99360a09360ff851b191690556005429101556040519081525f602082015260606040820152600e60608201526d0cde17dd5b99195b1a5d995c995960921b6080820152a2005b34610c11576020366003190112610c11576020612237612232614401565b614adb565b604051908152f35b34610c11575f366003190112610c11576020601454604051908152f35b34610c11576020366003190112610c1157612275614401565b7ff0c57e16840df040f15088dc2f81fe391c3923bec73e23a9662efc9c229c6a009081549060ff8260401c1615916001600160401b038116801590816123e2575b60011490816123d8575b1590816123cf575b506123bd5767ffffffffffffffff19811660011784558261239e575b506122ed614f76565b6122f5614f76565b6001600160a01b03168015612369576001600160601b0360a01b5f5416175f55612325612320614ead565b614ce2565b5061232c57005b68ff00000000000000001981541690557fc7f505b2f371ae2175ee4913f4499e1f2633a7b5936321eed1cdaeb6115181d2602060405160018152a1005b60405162461bcd60e51b815260206004820152600d60248201526c20a91d103d32b9379030b2323960991b6044820152606490fd5b68ffffffffffffffffff191668010000000000000001178355836122e4565b60405163f92ee8a960e01b8152600490fd5b905015856122c8565b303b1591506122c0565b8491506122b6565b34610c11576020366003190112610c11576001600160a01b0361240b614401565b165f526001602052602060ff600660405f20015460081c166040519015158152f35b34610c11576020366003190112610c11576001600160a01b0361244e614401565b165f52601d602052602060405f2054604051908152f35b34610c11575f366003190112610c1157602060405160038152f35b34610c11576020366003190112610c1157612499614401565b6124a1614b2a565b6001600160a01b03165f908152600c602052604090208054611f7a90614622565b34610c11576020366003190112610c11576001600160a01b036124e3614401565b165f526010602052602060ff60405f2054166040519015158152f35b34610c11576020366003190112610c11576001600160a01b03612520614401565b165f526001602052602060ff600260405f20015460a01c16604051908152f35b34610c11576060366003190112610c1157612559614401565b612561614417565b9060443561256d614b2a565b60018060a01b0380921691825f526020936001855261259860ff600660405f20015460081c16614a8f565b1692835f526001815260ff600660405f20015460081c1615612707576001821015806126fc575b156126b8577fb4f88377aecbf1a80a8f432fd89d95eedd101c98f6584fd1946dc6606deca31791604091845f5260238152825f20865f52815260ff835f205416159081612680575b855f52601d8152835f2061261b8154614622565b9055855f52601f8152835f206126328482546146d8565b9055855f52808052835f206126478154614622565b9055855f52600b8152835f2061265d8154614622565b9055865f52600b8152835f206126738154614622565b90558351928352820152a3005b855f5260238152835f20875f528152835f20600160ff19825416179055855f52601e8152835f206126b18154614622565b9055612607565b6064906040519062461bcd60e51b82526004820152601a60248201527f52656769737472793a2073656c6c65722073636f726520312d350000000000006044820152fd5b5060058211156125bf565b6064906040519062461bcd60e51b82526004820152601e60248201527f52656769737472793a206275796572206e6f74207265676973746572656400006044820152fd5b34610c11575f366003190112610c115761212e60405161276a8161445c565b60058152640352e302e360dc1b602082015260405191829160208352602083019061450a565b34610c11576020366003190112610c11576127a9614401565b6127b1614b2a565b6001600160a01b03165f908152600b602052604090208054611f7a90614622565b34610c11576020366003190112610c11576001600160a01b036127f3614401565b165f52600d602052602060405f2054604051908152f35b34610c11576020366003190112610c115760206001600160a01b038061282e614401565b165f526011825260405f205416604051908152f35b34610c11576020366003190112610c115761285c614401565b612864614c9f565b6001600160a01b03165f818152600160205260409020600681015460081c60ff1680612997575b1561295e576276a700806128a36004840154426146e5565b10159081612946575b506128b357005b600281019060ff825460a01c165f19810160ff811161174157835460ff60a01b191660a091821b60ff60a01b161784557f8c34ab8d1aa1a52de9e49a12f821dbf4105dbc60e63673b432e7755071c3cfe993909260ff919060054291015554831c16604051918252602082015260606040820152600c60608201526b1a5b9858dd1a5d9957ce4c1960a21b6080820152a2005b90506129566005830154426146e5565b1015836128ac565b60405162461bcd60e51b8152602060048201526011602482015270149959da5cdd1c9e4e881a5b9d985b1a59607a1b6044820152606490fd5b5060ff600282015460a01c16151561288b565b34610c11575f366003190112610c11576020604051674563918244f400008152f35b34610c11575f366003190112610c115760206040515f8152f35b34610c11576040366003190112610c11576004356001600160401b03602435818111610c1157612a1a9036906004016144dd565b919092612a25614c9f565b6001600160a01b0380612a36614ead565b165f5260019260209360018552612a5960ff600660405f20015460081c16614630565b8315612cb9578515612c7457612a70368789614498565b612a98604051612a7f8161445c565b6007815266697066733a2f2f60c81b8882015282614f2b565b908115612c43575b5015612bfe5782612aaf614ead565b165f52601985528360405f205582612ac5614ead565b165f52601a855260405f20918611611c6b57612aeb86612ae58454614548565b84614a40565b5f90601f8711600114612b74575091859691612b41877fb1f453653d9753c60c1f7327722c4c04182e9aef0062a95b525cf345a392799498612b64965f91612b69575b508160011b915f199060031b1c19161790565b90555b612b4c614ead565b1695604080519586958652850152604084019161485b565b0390a2005b90508501358b612b2e565b90601f198716835f52865f20925f905b828210612be757505091879893917fb1f453653d9753c60c1f7327722c4c04182e9aef0062a95b525cf345a392799498612b64969410612bce575b5050600188811b019055612b44565b8401355f1960038b901b60f8161c191690558880612bbf565b8a8401358555938401939288019290880190612b84565b60405162461bcd60e51b815260048101869052601c60248201527f52656769737472793a20696e76616c696420636f6e66696720555249000000006044820152606490fd5b612c6e915060405190612c558261445c565b600882526768747470733a2f2f60c01b88830152614f2b565b88612aa0565b60405162461bcd60e51b815260048101869052601a60248201527f52656769737472793a20656d70747920636f6e666967205552490000000000006044820152606490fd5b60405162461bcd60e51b815260048101869052601b60248201527f52656769737472793a20656d70747920636f6e666967206861736800000000006044820152606490fd5b34610c11576020366003190112610c11576001600160a01b03612d1f614401565b165f526017602052602060405f2054604051908152f35b34610c11576020366003190112610c11576001600160a01b03612d57614401565b165f52600e602052602060405f2054604051908152f35b34610c11576040366003190112610c1157612d87614417565b6004355f525f8051602061504983398151915260205260405f209060018060a01b03165f52602052602060ff60405f2054166040519015158152f35b34610c11576020366003190112610c11576001600160a01b03612de4614401565b165f52601e602052602060405f2054604051908152f35b34610c11576020366003190112610c1157612e14614401565b612e1c614b2a565b6001600160a01b03165f908152601360205260409020805480158015612e3e57005b611741575f19019055005b34610c11575f366003190112610c115760206101f460145410604051908152f35b34610c11576020366003190112610c11576020612e95612e88614401565b612e90614b2a565b614988565b6040519015158152f35b34610c11576020366003190112610c1157612eb8614401565b612ec0614b2a565b6001600160a01b03165f818152600160205260408120600601805460ff191690557fe58e2c1a7cdd880f899d25dda2ba461cca6074ad201e6933bc459cf2a1988e339080a2005b34610c11575f366003190112610c1157612f1f614bb4565b612f27614c9f565b5f80516020615069833981519152805460ff191660011790557f62e78cea01bee320cd4e420270b5ea74000d11b0c9f74754ebdbfc544b05a2586020612f6b614ead565b6040516001600160a01b039091168152a1005b34610c11576020366003190112610c11576020612237612f9c614401565b61493b565b34610c11576040366003190112610c1157612fba614401565b60243590612fc6614b2a565b600182101580613048575b1561300d5760018060a01b031690815f526008602052612ff660405f209182546146d8565b90555f52600960205260405f20611f7a8154614622565b60405162461bcd60e51b815260206004820152601360248201527252656769737472793a2073636f726520312d3560681b6044820152606490fd5b506005821115612fd1565b34610c11575f366003190112610c1157602060405162278d008152f35b34610c11575f366003190112610c11576040517f00000000000000000000000000000000000000000000000000000000000000006001600160a01b03168152602090f35b34610c11575f366003190112610c11575f546040516001600160a01b039091168152602090f35b34610c11576020366003190112610c11576001600160a01b036130fc614401565b165f52601c602052602060ff60405f2054166040519015158152f35b34610c11576020366003190112610c11576001600160a01b03613139614401565b165f526019602052602060405f2054604051908152f35b34610c11576020366003190112610c11576001600160a01b03613171614401565b165f526016602052602060405f2054604051908152f35b34610c11575f366003190112610c11576020604051670de0b6b3a76400008152f35b34610c11576040366003190112610c11576131c3614401565b602435906131cf614b2a565b6001600160a01b03165f908152600a60205260409020805490919081116131fb57611f7a9082546146e5565b505f9055005b34610c11576020366003190112610c11576020612e9561321f614401565b613227614b2a565b61487b565b34610c11576040366003190112610c1157613245614401565b61324d614b2a565b60018060a01b03165f52600a60205260405f20611f7a60243582546146d8565b34610c11576040366003190112610c1157613286614401565b6024356001600160401b038111610c11576132c67fd608bac99c845c8184fc012e6062bb6155fb714459658bb543ebeccd37c82a679136906004016144dd565b926132cf614b2a565b60018060a01b031692835f5260016020526132f660ff600660405f20015460081c16614630565b835f52600660205260405f2061330c8154614622565b9055835f52600160205242600460405f200155612b6460405192839260208452602084019161485b565b34610c11576020366003190112610c11576001600160a01b03613357614401565b165f52600b602052602060405f2054604051908152f35b34610c11576020366003190112610c11576001600160a01b0361338f614401565b165f526022602052602060405f2054604051908152f35b34610c11576020366003190112610c11576004355f526015602052608060405f2060018060a01b0380825416916002600182015491015490604051938452602084015260ff81161515604084015260081c166060820152f35b34610c11575f366003190112610c1157602060ff5f8051602061506983398151915254166040519015158152f35b34610c11576020366003190112610c11576020613448614401565b6040517f00000000000000000000000000000000000000000000000000000000000000006001600160a01b039081169216919091148152f35b34610c11575f366003190112610c1157602060ff601854166040519015158152f35b34610c11576020366003190112610c11576001600160a01b036134c4614401565b165f526004602052602060405f2054604051908152f35b34610c11576040366003190112610c11576134f4614401565b6134fc614417565b9060018060a01b038091165f52602360205260405f2091165f52602052602060ff60405f2054166040519015158152f35b34610c11575f366003190112610c11577f00000000000000000000000000000000000000000000000000000000000000006001600160a01b031630036135975760206040517f360894a13ba1a3210667c828492db98dca3e2076cc3735a920a3ca505d382bbc8152f35b60405163703e46dd60e11b8152600490fd5b6040366003190112610c11576135bd614401565b6024356001600160401b038111610c115736602382011215610c11576135ed903690602481600401359101614498565b6001600160a01b037f00000000000000000000000000000000000000000000000000000000000000008116308114908115613766575b5061359757613630614bb4565b8216916040516352d1902d60e01b8152602081600481875afa5f9181613732575b5061366f57604051634c9c8ce360e01b815260048101859052602490fd5b7f360894a13ba1a3210667c828492db98dca3e2076cc3735a920a3ca505d382bbc9081810361371a5750813b156137015780546001600160a01b03191684179055604051927fbc7cd75a20ee27fd9adebab32041f755214dbc6bffa90cc0225b39da2e5c2d3b5f80a28151156136e9576120d09250614fb7565b5050346136f257005b63b398979f60e01b8152600490fd5b604051634c9c8ce360e01b815260048101859052602490fd5b60249060405190632a87526960e21b82526004820152fd5b9091506020813d60201161375e575b8161374e60209383614477565b81010312610c1157519085613651565b3d9150613741565b9050817f360894a13ba1a3210667c828492db98dca3e2076cc3735a920a3ca505d382bbc5416141584613623565b34610c11575f366003190112610c11576137ac614bb4565b60185460ff811661386a57601454602154908115613819577fd23f4bb949ed750006b073ee068f91da9fcf743cde27ef008c3b06d754f1820a928260016137f5606095856146d8565b92836014555f60215560ff19161760185560405192835260208301526040820152a1005b60405162461bcd60e51b8152602060048201526024808201527f52656769737472793a206e6f20627567677920746f74616c4167656e74732064604482015263656c746160e01b6064820152608490fd5b60405162461bcd60e51b815260206004820152602660248201527f52656769737472793a20746f74616c4167656e747320616c72656164792072656044820152651c185a5c995960d21b6064820152608490fd5b34610c11575f366003190112610c115760206040516276a7008152f35b34610c11576020366003190112610c11576138f4614401565b6138fc614b2a565b6001600160a01b03165f8181526001602081905260408220600601805460ff191690911790557f0b69431759ac8196079b41636a3b6c6c29700ce19ec338fbcae4497e0078545b9080a2005b34610c11575f366003190112610c11576020604051600a8152f35b34610c11575f366003190112610c1157602060405160058152f35b34610c11575f366003190112610c1157613996614bb4565b5f80516020615069833981519152805460ff8116156139e05760ff191690557f5db9ee0a495bf2e6ff9c91a7834c1ba4fdd244a5e8aa4e537bd38aeae4b073aa6020612f6b614ead565b604051638dfc202b60e01b8152600490fd5b34610c11576020366003190112610c11576001600160a01b03613a13614401565b165f5260136020526020600360405f205410604051908152f35b34610c11575f366003190112610c115760206040516101f48152f35b34610c11576020366003190112610c11576020612237613a67614401565b614804565b34610c11576040366003190112610c1157600435613a88614417565b8115613ac3576001600160a01b0380613a9f614ead565b1690821603613ab1576120d091614e22565b60405163334bd91960e11b8152600490fd5b60405162461bcd60e51b815260206004820152601960248201527f41523a2063616e6e6f742072656e6f756e63652061646d696e000000000000006044820152606490fd5b34610c11576020366003190112610c1157613b21614401565b613b29614b2a565b6001600160a01b03165f8181526001602052604090206006810154613b539060081c60ff16614630565b600281019081549060ff8260a01c169081613b6a57005b7f8c34ab8d1aa1a52de9e49a12f821dbf4105dbc60e63673b432e7755071c3cfe99360a09360ff851b191690556005429101556040519081525f602082015260606040820152600d60608201526c6d616a6f725f70656e616c747960981b6080820152a2005b34610c11576020366003190112610c11576001600160a01b03613bf1614401565b165f526006602052602060405f2054604051908152f35b34610c11576040366003190112610c11576120d0600435613c27614417565b90805f525f80516020615049833981519152602052613c4c600160405f200154614c1b565b614d8d565b34610c1157602080600319360112610c115760043590613c6f614c5d565b613c77614c9f565b613c8282151561467c565b6001600160a01b039081613c94614ead565b165f5260018152613cb160ff600660405f20015460081c16614630565b81613cba614ead565b165f5260018152613cd560ff600660405f200154161561479a565b81613cde614ead565b165f52601c815260ff60405f205416613e4b5781613cfa614ead565b165f52601b81528260405f205410613dfd5781613d15614ead565b165f52601b815260405f20613d2b8482546146e5565b9055815f54169181816044613d3e614ead565b5f604051978894859363a9059cbb60e01b85521660048401528960248401525af1918215611382577f0fb0632146179f51e464bcd8df1243d7c83e76a985b5fcba39bd2624a9b8cbc293604093613de0575b50613d99614ead565b9082613da3614ead565b165f52601b8152835f20549084519687528601521692a260017f9b779b17422d0df92223018b32b4d1fa46e071723d6817e2486d003becc55f0055005b613df690823d84116113b3576113a48183614477565b5085613d90565b6084906040519062461bcd60e51b82526004820152602160248201527f52656769737472793a20696e73756666696369656e742062617365207374616b6044820152606560f81b6064820152fd5b6064906040519062461bcd60e51b82526004820152601b60248201527f52656769737472793a2062617365207374616b65206c6f636b656400000000006044820152fd5b34610c11576020366003190112610c11576004355f525f805160206150498339815191526020526020600160405f200154604051908152f35b34610c11576020366003190112610c11576001600160a01b03613ee9614401565b165f526009602052602060405f2054604051908152f35b34610c11575f366003190112610c11576020604051678ac7230489e800008152f35b34610c11576020366003190112610c11576001600160a01b03613f43614401565b165f52600c602052602060405f2054604051908152f35b34610c11575f366003190112610c115760206040516802b5e3af16b18800008152f35b34610c11576020366003190112610c11576001600160a01b03613f9e614401565b165f526007602052602060405f2054604051908152f35b34610c11576020366003190112610c1157613fce614401565b613fd6614b2a565b6001600160a01b03165f818152600d602052604090208054613ff790614622565b90555f52600e6020524260405f20555f80f35b34610c11576020366003190112610c11576001600160a01b0361402b614401565b165f52600f602052602060405f2054604051908152f35b34610c11576020366003190112610c11576001600160a01b03614063614401565b165f526002602052602060405f2054604051908152f35b34610c11576040366003190112610c1157614093614401565b6024359081151590818303610c11577f82811595e519b97c9631176827e1cb97907ae5b7554bd7f8863d28d239ea68fb916140f76020926140d2614b2a565b60018060a01b031694855f52601c845260405f209060ff801983541691151516179055565b604051908152a2005b34610c11576020366003190112610c1157604061412361411e614401565b6146f2565b82519182526020820152f35b34610c1157602080600319360112610c11576141dc60043591614150614c5d565b614158614c9f565b6001600160a01b0380614169614ead565b165f526001825261418660ff600660405f20015460081c16614630565b61419184151561467c565b8184825f541661419f614ead565b6040516323b872dd60e01b81526001600160a01b0390911660048201523060248201526044810192909252909485919082905f9082906064820190565b03925af1918215611382577f533942809d6a37bdaed14aa350b8e32c27eea39c8e7714a09487f19ea1e154f59360409361423a575b508161421b614ead565b165f52601b8152825f206142308682546146d8565b9055613d99614ead565b61425090823d84116113b3576113a48183614477565b5085614211565b34610c11576020366003190112610c1157614270614401565b614278614b2a565b6001600160a01b03165f9081526013602052604090208054611f7a90614622565b34610c11576020366003190112610c115760806142b4614401565b60018060a01b03811690815f52601d60205260405f205491601e6020526142df60405f20549261493b565b905f52602260205260405f205491604051938452602084015260408301526060820152f35b34610c11576020366003190112610c11576001600160a01b03614325614401565b165f52601b602052602060405f2054604051908152f35b34610c11576020366003190112610c11576001600160a01b0361435d614401565b165f526013602052602060405f2054604051908152f35b34610c11575f366003190112610c115760206040517fba279271fb7bbf76a6f3df3cc57bf80647fcafdea60ec3383d90f459de74e7c08152f35b34610c11576020366003190112610c11576004359063ffffffff60e01b8216809203610c1157602091637965db0b60e01b81149081156143f0575b5015158152f35b6301ffc9a760e01b149050836143e9565b600435906001600160a01b0382168203610c1157565b602435906001600160a01b0382168203610c1157565b6001600160401b038111611c6b57604052565b61012081019081106001600160401b03821117611c6b57604052565b604081019081106001600160401b03821117611c6b57604052565b90601f801991011681019081106001600160401b03821117611c6b57604052565b9291926001600160401b038211611c6b57604051916144c1601f8201601f191660200184614477565b829481845281830111610c11578281602093845f960137010152565b9181601f84011215610c11578235916001600160401b038311610c115760208381860195010111610c1157565b91908251928382525f5b848110614534575050825f602080949584010152601f8019910116010190565b602081830181015184830182015201614514565b90600182811c92168015614576575b602083101461456257565b634e487b7160e01b5f52602260045260245ffd5b91607f1691614557565b9060405191825f825461459281614548565b908184526020946001916001811690815f1461460057506001146145c2575b5050506145c092500383614477565b565b5f90815285812095935091905b8183106145e85750506145c093508201015f80806145b1565b855488840185015294850194879450918301916145cf565b925050506145c094925060ff191682840152151560051b8201015f80806145b1565b5f1981146117415760010190565b1561463757565b60405162461bcd60e51b815260206004820152601860248201527f52656769737472793a206e6f74207265676973746572656400000000000000006044820152606490fd5b1561468357565b60405162461bcd60e51b8152602060048201526015602482015274149959da5cdd1c9e4e881e995c9bc8185b5bdd5b9d605a1b6044820152606490fd5b90816020910312610c1157518015158103610c115790565b9190820180921161174157565b9190820391821161174157565b6001600160a01b03165f818152600160205260409020600681015460081c60ff16158015614786575b61477e5760ff600261473292015460a01c16614cc9565b905f52601660205260405f2054601760205262278d0061475660405f2054426146e5565b1015614777575b808211156147725761476f90826146e5565b91565b505f91565b505f61475d565b50505f905f90565b50600160ff600283015460a01c161061471b565b156147a157565b60405162461bcd60e51b815260206004820152601a60248201527f52656769737472793a20636c65617220646562742066697273740000000000006044820152606490fd5b81156147f0570490565b634e487b7160e01b5f52601260045260245ffd5b6001600160a01b03165f818152600b60205260409020541561485657600c60205260405f205460648102908082046064149015171561174157614853915f52600b60205260405f2054906147e6565b90565b505f90565b908060209392818452848401375f828201840152601f01601f1916010190565b60018060a01b0316805f5260206001815260409160ff6002845f20015460a01c16614933576201518042046003835280845f20541061491c575b5060028252600a835f205410156148e057906002915f52525f206148d98154614622565b9055600190565b50606491519062461bcd60e51b825260048201526016602482015275149959da5cdd1c9e4e88185b9cddd95c881b1a5b5a5d60521b6044820152fd5b600283525f8481205560038352835f20555f6148b5565b505050600190565b6001600160a01b03165f8181526020805260409020541561485657601f60205260405f205460648102908082046064149015171561174157614853915f526020805260405f2054906147e6565b60018060a01b0316805f5260206001815260409160ff6002845f20015460a01c16614933576201518042046005835280845f205410614a29575b50600482526005835f205410156149e657906004915f52525f206148d98154614622565b50606491519062461bcd60e51b82526004820152601860248201527f52656769737472793a207175657374696f6e206c696d697400000000000000006044820152fd5b600483525f8481205560058352835f20555f6149c2565b601f8211614a4d57505050565b5f5260205f20906020601f840160051c83019310614a85575b601f0160051c01905b818110614a7a575050565b5f8155600101614a6f565b9091508190614a66565b15614a9657565b60405162461bcd60e51b815260206004820152601f60248201527f52656769737472793a2073656c6c6572206e6f742072656769737465726564006044820152606490fd5b6001600160a01b03165f818152600960205260409020541561485657600860205260405f205460648102908082046064149015171561174157614853915f52600960205260405f2054906147e6565b614b32614ead565b6001600160a01b03165f8181527f1a6cd9a7b8103b1ac8ae3acbee9fd0afe79825cbeda582da2cdf52e70cae65a960205260409020547fba279271fb7bbf76a6f3df3cc57bf80647fcafdea60ec3383d90f459de74e7c09060ff1615614b96575050565b604492506040519163e2517d3f60e01b835260048301526024820152fd5b614bbc614ead565b6001600160a01b03165f8181527fb7db2dd08fcb62d0c9e08c51941cae53c267786a0b75803fb7960902fc8ef97d602052604090205460ff1615614bfd5750565b6044906040519063e2517d3f60e01b825260048201525f6024820152fd5b614c23614ead565b90805f525f8051602061504983398151915260205260405f209160018060a01b031691825f5260205260ff60405f20541615614b96575050565b7f9b779b17422d0df92223018b32b4d1fa46e071723d6817e2486d003becc55f006002815414614c8d5760029055565b604051633ee5aeb560e01b8152600490fd5b60ff5f805160206150698339815191525416614cb757565b60405163d93c066560e01b8152600490fd5b60ff166003810290808204600314901517156117415790565b6001600160a01b039081165f8181527fb7db2dd08fcb62d0c9e08c51941cae53c267786a0b75803fb7960902fc8ef97d60205260409020549091905f805160206150498339815191529060ff16614d86575f805260205260405f20825f5260205260405f20600160ff19825416179055614d5a614ead565b16905f7f2f8788117e7eff1d82e926ec794901d17c78024a50270940304540a733656f0d8180a4600190565b5050505f90565b5f8181525f80516020615049833981519152602081815260408084206001600160a01b039687168086529252909220549293919260ff16614e1a57835f5260205260405f20825f5260205260405f20600160ff19825416179055614def614ead565b16917f2f8788117e7eff1d82e926ec794901d17c78024a50270940304540a733656f0d5f80a4600190565b505050505f90565b5f8181525f80516020615049833981519152602081815260408084206001600160a01b039687168086529252909220549293919260ff1615614e1a57835f5260205260405f20825f5260205260405f2060ff198154169055614e82614ead565b16917ff6391f5c32d9c69d2a47ea670b442974b53935d1edc7fd64eb21e047a839171b5f80a4600190565b601436101580614ed4575b15614ed0576013193601368111610c11573560601c90565b3390565b50337f00000000000000000000000000000000000000000000000000000000000000006001600160a01b031614614eb8565b908151811015614f17570160200190565b634e487b7160e01b5f52603260045260245ffd5b908151815111614f70575f5b8151811015614933576001600160f81b031980614f548386614f06565b511690614f618385614f06565b511603614d8657600101614f37565b50505f90565b60ff7ff0c57e16840df040f15088dc2f81fe391c3923bec73e23a9662efc9c229c6a005460401c1615614fa557565b604051631afcd79f60e31b8152600490fd5b905f8091602081519101845af48080615035575b15614feb5750506040513d81523d5f602083013e60203d82010160405290565b1561501257604051639996b31560e01b81526001600160a01b039091166004820152602490fd5b3d15615023576040513d5f823e3d90fd5b60405163d6bda27560e01b8152600490fd5b503d151580614fcb5750813b1515614fcb56fe02dd7bc7dec4dceedda775e58dd541e08a116c6c53815c0bd028192f7b626800cd5ed15c6e187e77e9aee88184c21f4f2182ab5827cb3b7e07fbedcd63f03300a264697066735822122011b91f8a5262357d34b45f72e0dd49afc88c3fcd0697fd69ba2a099b7fc17e1064736f6c63430008180033","linkReferences":{}},"methodIdentifiers":{"DEFAULT_ADMIN_ROLE()":"a217fddf","DEMOTION_PERIOD()":"4b4ad9d5","INVITE_RESET_PERIOD()":"7e27afec","INVITE_VALIDITY()":"d5b36c0e","MAX_UNREVIEWED()":"bb35f03d","OPEN_REGISTRATION_LIMIT()":"3d3ff5c8","PROTOCOL_ROLE()":"02768de4","TIER0_DAILY_ANSWER_LIMIT()":"40aa0173","TIER0_DAILY_QUESTION_LIMIT()":"40206305","TIER1_BURN()":"6b293324","TIER2_BURN()":"a674241f","TIER2_STAKE()":"1f0c1481","TIER3_BURN()":"21a3b212","UPGRADE_INTERFACE_VERSION()":"ad3cb1cc","activityCount(address)":"325d917e","addStake(address,uint256)":"6374299e","agents(address)":"fd66091e","bestAnswerCount(address)":"1dd9092e","canPurchase(address)":"3e3b429a","checkAndIncrementDailyAnswer(address)":"64d1bce0","checkAndIncrementDailyQuestion(address)":"8b76de1e","checkDemotion(address)":"a81cb6e4","ckt()":"79021310","clearDebtFlag(address)":"8b38d9b1","dailyAnswerCount(address)":"0d8dbd09","dailyQuestionCount(address)":"552c182e","decrementUnreviewed(address)":"8fe80d95","deliveryConfigHash(address)":"720395a3","depositSellerBaseStake(uint256)":"0cfffbbe","disputeCount(address)":"1fecb7d6","distinctQualifiedBuyerCount(address)":"9119b8b1","explicitSellerRatingCount(address)":"f4ec82a9","explicitSellerRatingSum(address)":"dd988bab","forceDemoteToZero(address)":"341c9998","generateInviteCode(address)":"f0425be4","getAgent(address)":"fb3551ff","getAverageRating(address)":"c8b67522","getDeliveryConfig(address)":"d4509d79","getDisputeRate(address)":"3a49419f","getExplicitSellerRatingAvg(address)":"80b163af","getInviteQuota(address)":"0d632bf7","getQualifiedMerchantStats(address)":"0808d97a","getRoleAdmin(bytes32)":"248a9ca3","getTier(address)":"b45aae52","grantRole(bytes32,address)":"2f2ff15d","hasRole(bytes32,address)":"91d14854","hasSellerBaseStake(address)":"dbbd81b9","incrementUnreviewed(address)":"0a3be349","initialize(address)":"c4d66de8","inviteCodes(bytes32)":"5cb0610c","invitePeriodStart(address)":"96c50076","invitesUsedInPeriod(address)":"7165e5ca","isOpenRegistration()":"8bd4ed08","isRegistered(address)":"c3c5a547","isTrustedBuyer(address)":"ecfba343","isTrustedForwarder(address)":"572b6c05","lastAnswerResetDay(address)":"dcc2e218","lastPenaltyAt(address)":"9475670f","lastQuestionResetDay(address)":"e690249f","merchantDisputeCount(address)":"5f07db37","ownerRegistered(address)":"b862c76d","pause()":"8456cb59","paused()":"5c975abb","penaltyCount(address)":"a9330b0e","proxiableUUID()":"52d1902d","qualifiedMerchantSuccessCount(address)":"bb56d690","qualifiedPairCredited(address,address)":"54ba639c","ratingCount(address)":"2404165e","ratingSum(address)":"e8cce115","recordActivity(address,string)":"622206c2","recordBestAnswer(address)":"de652fc0","recordDispute(address)":"ba8bfc68","recordMerchantDispute(address)":"f5d25550","recordPenalty(address)":"13fb5ea7","recordQualifiedMerchantSuccess(address,address,uint256)":"ada91a17","recordRating(address,uint256)":"7f299f7c","recordTransaction(address)":"abfbd2dc","recordUndelivery(address)":"d0542f97","referralCount(address)":"db74559b","referredBy(address)":"a90f8e9a","register(string,string,bytes32)":"f5de1230","removeStake(address,uint256)":"68ce7d8a","renounceRole(bytes32,address)":"36568abe","repairTotalAgentsFromLegacyAndBuggySlots()":"4b517759","requestTierUpgrade()":"f3fd219a","revokeRole(bytes32,address)":"d547741f","sellerBaseStakeAmount(address)":"04735eae","sellerBaseStakeLocked(address)":"78004d84","setDebtFlag(address)":"45d6f7b6","setDeliveryConfig(bytes32,string)":"a01edde6","setSellerBaseStakeLocked(address,bool)":"0d881fd7","stakedAmount(address)":"f9931855","supportsInterface(bytes4)":"01ffc9a7","totalAgents()":"c5053712","totalAgentsRepairApplied()":"57165daf","totalTransactions(address)":"6057a330","trustedForwarder()":"7da0a877","undeliveryCount(address)":"13afb41e","unpause()":"3f4ba83a","unreviewedPurchaseCount(address)":"04357cc0","upgradeToAndCall(address,bytes)":"4f1ef286","withdrawSellerBaseStake(uint256)":"24f52d3c"},"id":49}