{"abi":[{"type":"constructor","inputs":[{"name":"trustedForwarder","type":"address","internalType":"address"}],"stateMutability":"nonpayable"},{"type":"function","name":"DEFAULT_ADMIN_ROLE","inputs":[],"outputs":[{"name":"","type":"bytes32","internalType":"bytes32"}],"stateMutability":"view"},{"type":"function","name":"DEMOTION_PERIOD","inputs":[],"outputs":[{"name":"","type":"uint256","internalType":"uint256"}],"stateMutability":"view"},{"type":"function","name":"INVITE_RESET_PERIOD","inputs":[],"outputs":[{"name":"","type":"uint256","internalType":"uint256"}],"stateMutability":"view"},{"type":"function","name":"INVITE_VALIDITY","inputs":[],"outputs":[{"name":"","type":"uint256","internalType":"uint256"}],"stateMutability":"view"},{"type":"function","name":"MAX_UNREVIEWED","inputs":[],"outputs":[{"name":"","type":"uint256","internalType":"uint256"}],"stateMutability":"view"},{"type":"function","name":"OPEN_REGISTRATION_LIMIT","inputs":[],"outputs":[{"name":"","type":"uint256","internalType":"uint256"}],"stateMutability":"view"},{"type":"function","name":"PROTOCOL_ROLE","inputs":[],"outputs":[{"name":"","type":"bytes32","internalType":"bytes32"}],"stateMutability":"view"},{"type":"function","name":"TIER0_DAILY_ANSWER_LIMIT","inputs":[],"outputs":[{"name":"","type":"uint256","internalType":"uint256"}],"stateMutability":"view"},{"type":"function","name":"TIER0_DAILY_QUESTION_LIMIT","inputs":[],"outputs":[{"name":"","type":"uint256","internalType":"uint256"}],"stateMutability":"view"},{"type":"function","name":"TIER1_BASE_STAKE","inputs":[],"outputs":[{"name":"","type":"uint256","internalType":"uint256"}],"stateMutability":"view"},{"type":"function","name":"TIER1_BURN","inputs":[],"outputs":[{"name":"","type":"uint256","internalType":"uint256"}],"stateMutability":"view"},{"type":"function","name":"TIER1_MIN_ACTIVITIES","inputs":[],"outputs":[{"name":"","type":"uint256","internalType":"uint256"}],"stateMutability":"view"},{"type":"function","name":"TIER1_MIN_BEST_ANSWERS","inputs":[],"outputs":[{"name":"","type":"uint256","internalType":"uint256"}],"stateMutability":"view"},{"type":"function","name":"TIER2_BASE_STAKE","inputs":[],"outputs":[{"name":"","type":"uint256","internalType":"uint256"}],"stateMutability":"view"},{"type":"function","name":"TIER2_BURN","inputs":[],"outputs":[{"name":"","type":"uint256","internalType":"uint256"}],"stateMutability":"view"},{"type":"function","name":"TIER2_MIN_ACTIVITIES","inputs":[],"outputs":[{"name":"","type":"uint256","internalType":"uint256"}],"stateMutability":"view"},{"type":"function","name":"TIER2_MIN_BEST_ANSWERS","inputs":[],"outputs":[{"name":"","type":"uint256","internalType":"uint256"}],"stateMutability":"view"},{"type":"function","name":"TIER2_MIN_DISTINCT_BUYERS","inputs":[],"outputs":[{"name":"","type":"uint256","internalType":"uint256"}],"stateMutability":"view"},{"type":"function","name":"TIER2_MIN_QUALIFIED_SALES","inputs":[],"outputs":[{"name":"","type":"uint256","internalType":"uint256"}],"stateMutability":"view"},{"type":"function","name":"TIER2_STAKE","inputs":[],"outputs":[{"name":"","type":"uint256","internalType":"uint256"}],"stateMutability":"view"},{"type":"function","name":"TIER3_BURN","inputs":[],"outputs":[{"name":"","type":"uint256","internalType":"uint256"}],"stateMutability":"view"},{"type":"function","name":"TIER3_MIN_DISTINCT_BUYERS","inputs":[],"outputs":[{"name":"","type":"uint256","internalType":"uint256"}],"stateMutability":"view"},{"type":"function","name":"TIER3_MIN_QUALIFIED_SALES","inputs":[],"outputs":[{"name":"","type":"uint256","internalType":"uint256"}],"stateMutability":"view"},{"type":"function","name":"TRUSTED_BUYER_ACTIVITY_MIN","inputs":[],"outputs":[{"name":"","type":"uint256","internalType":"uint256"}],"stateMutability":"view"},{"type":"function","name":"UPGRADE_INTERFACE_VERSION","inputs":[],"outputs":[{"name":"","type":"string","internalType":"string"}],"stateMutability":"view"},{"type":"function","name":"activityCount","inputs":[{"name":"","type":"address","internalType":"address"}],"outputs":[{"name":"","type":"uint256","internalType":"uint256"}],"stateMutability":"view"},{"type":"function","name":"addStake","inputs":[{"name":"agent","type":"address","internalType":"address"},{"name":"amount","type":"uint256","internalType":"uint256"}],"outputs":[],"stateMutability":"nonpayable"},{"type":"function","name":"agents","inputs":[{"name":"","type":"address","internalType":"address"}],"outputs":[{"name":"name","type":"string","internalType":"string"},{"name":"tags","type":"string","internalType":"string"},{"name":"owner","type":"address","internalType":"address"},{"name":"tier","type":"uint8","internalType":"uint8"},{"name":"registeredAt","type":"uint256","internalType":"uint256"},{"name":"lastActiveAt","type":"uint256","internalType":"uint256"},{"name":"tierAchievedAt","type":"uint256","internalType":"uint256"},{"name":"hasDebtFlag","type":"bool","internalType":"bool"},{"name":"exists","type":"bool","internalType":"bool"}],"stateMutability":"view"},{"type":"function","name":"bestAnswerCount","inputs":[{"name":"","type":"address","internalType":"address"}],"outputs":[{"name":"","type":"uint256","internalType":"uint256"}],"stateMutability":"view"},{"type":"function","name":"canPurchase","inputs":[{"name":"agent","type":"address","internalType":"address"}],"outputs":[{"name":"","type":"bool","internalType":"bool"}],"stateMutability":"view"},{"type":"function","name":"checkAndIncrementDailyAnswer","inputs":[{"name":"agent","type":"address","internalType":"address"}],"outputs":[{"name":"","type":"bool","internalType":"bool"}],"stateMutability":"nonpayable"},{"type":"function","name":"checkAndIncrementDailyQuestion","inputs":[{"name":"agent","type":"address","internalType":"address"}],"outputs":[{"name":"","type":"bool","internalType":"bool"}],"stateMutability":"nonpayable"},{"type":"function","name":"checkDemotion","inputs":[{"name":"agentAddr","type":"address","internalType":"address"}],"outputs":[],"stateMutability":"nonpayable"},{"type":"function","name":"ckt","inputs":[],"outputs":[{"name":"","type":"address","internalType":"contract CKT"}],"stateMutability":"view"},{"type":"function","name":"clearDebtFlag","inputs":[{"name":"agent","type":"address","internalType":"address"}],"outputs":[],"stateMutability":"nonpayable"},{"type":"function","name":"dailyAnswerCount","inputs":[{"name":"","type":"address","internalType":"address"}],"outputs":[{"name":"","type":"uint256","internalType":"uint256"}],"stateMutability":"view"},{"type":"function","name":"dailyQuestionCount","inputs":[{"name":"","type":"address","internalType":"address"}],"outputs":[{"name":"","type":"uint256","internalType":"uint256"}],"stateMutability":"view"},{"type":"function","name":"decrementUnreviewed","inputs":[{"name":"agent","type":"address","internalType":"address"}],"outputs":[],"stateMutability":"nonpayable"},{"type":"function","name":"deliveryConfigHash","inputs":[{"name":"","type":"address","internalType":"address"}],"outputs":[{"name":"","type":"bytes32","internalType":"bytes32"}],"stateMutability":"view"},{"type":"function","name":"depositSellerBaseStake","inputs":[{"name":"amount","type":"uint256","internalType":"uint256"}],"outputs":[],"stateMutability":"nonpayable"},{"type":"function","name":"disputeCount","inputs":[{"name":"","type":"address","internalType":"address"}],"outputs":[{"name":"","type":"uint256","internalType":"uint256"}],"stateMutability":"view"},{"type":"function","name":"distinctQualifiedBuyerCount","inputs":[{"name":"","type":"address","internalType":"address"}],"outputs":[{"name":"","type":"uint256","internalType":"uint256"}],"stateMutability":"view"},{"type":"function","name":"explicitSellerRatingCount","inputs":[{"name":"","type":"address","internalType":"address"}],"outputs":[{"name":"","type":"uint256","internalType":"uint256"}],"stateMutability":"view"},{"type":"function","name":"explicitSellerRatingSum","inputs":[{"name":"","type":"address","internalType":"address"}],"outputs":[{"name":"","type":"uint256","internalType":"uint256"}],"stateMutability":"view"},{"type":"function","name":"forceDemoteToZero","inputs":[{"name":"agentAddr","type":"address","internalType":"address"}],"outputs":[],"stateMutability":"nonpayable"},{"type":"function","name":"generateInviteCode","inputs":[{"name":"intendedReferee","type":"address","internalType":"address"}],"outputs":[{"name":"code","type":"bytes32","internalType":"bytes32"}],"stateMutability":"nonpayable"},{"type":"function","name":"getAgent","inputs":[{"name":"agent","type":"address","internalType":"address"}],"outputs":[{"name":"","type":"tuple","internalType":"struct AgentRegistry.Agent","components":[{"name":"name","type":"string","internalType":"string"},{"name":"tags","type":"string","internalType":"string"},{"name":"owner","type":"address","internalType":"address"},{"name":"tier","type":"uint8","internalType":"uint8"},{"name":"registeredAt","type":"uint256","internalType":"uint256"},{"name":"lastActiveAt","type":"uint256","internalType":"uint256"},{"name":"tierAchievedAt","type":"uint256","internalType":"uint256"},{"name":"hasDebtFlag","type":"bool","internalType":"bool"},{"name":"exists","type":"bool","internalType":"bool"}]}],"stateMutability":"view"},{"type":"function","name":"getAverageRating","inputs":[{"name":"agent","type":"address","internalType":"address"}],"outputs":[{"name":"","type":"uint256","internalType":"uint256"}],"stateMutability":"view"},{"type":"function","name":"getDeliveryConfig","inputs":[{"name":"agent","type":"address","internalType":"address"}],"outputs":[{"name":"configHash","type":"bytes32","internalType":"bytes32"},{"name":"configURI","type":"string","internalType":"string"}],"stateMutability":"view"},{"type":"function","name":"getDisputeRate","inputs":[{"name":"agent","type":"address","internalType":"address"}],"outputs":[{"name":"","type":"uint256","internalType":"uint256"}],"stateMutability":"view"},{"type":"function","name":"getExplicitSellerRatingAvg","inputs":[{"name":"seller","type":"address","internalType":"address"}],"outputs":[{"name":"","type":"uint256","internalType":"uint256"}],"stateMutability":"view"},{"type":"function","name":"getInviteQuota","inputs":[{"name":"agent","type":"address","internalType":"address"}],"outputs":[{"name":"remaining","type":"uint256","internalType":"uint256"},{"name":"total","type":"uint256","internalType":"uint256"}],"stateMutability":"view"},{"type":"function","name":"getMerchantDisputeRateBps","inputs":[{"name":"seller","type":"address","internalType":"address"}],"outputs":[{"name":"","type":"uint256","internalType":"uint256"}],"stateMutability":"view"},{"type":"function","name":"getQualifiedMerchantStats","inputs":[{"name":"seller","type":"address","internalType":"address"}],"outputs":[{"name":"successCount","type":"uint256","internalType":"uint256"},{"name":"distinctBuyerCount","type":"uint256","internalType":"uint256"},{"name":"explicitRatingAverage","type":"uint256","internalType":"uint256"},{"name":"disputeRateBps","type":"uint256","internalType":"uint256"},{"name":"currentBaseStake","type":"uint256","internalType":"uint256"},{"name":"hasRequiredBaseStake","type":"bool","internalType":"bool"}],"stateMutability":"view"},{"type":"function","name":"getRoleAdmin","inputs":[{"name":"role","type":"bytes32","internalType":"bytes32"}],"outputs":[{"name":"","type":"bytes32","internalType":"bytes32"}],"stateMutability":"view"},{"type":"function","name":"getTier","inputs":[{"name":"agent","type":"address","internalType":"address"}],"outputs":[{"name":"","type":"uint8","internalType":"uint8"}],"stateMutability":"view"},{"type":"function","name":"grantRole","inputs":[{"name":"role","type":"bytes32","internalType":"bytes32"},{"name":"account","type":"address","internalType":"address"}],"outputs":[],"stateMutability":"nonpayable"},{"type":"function","name":"hasRole","inputs":[{"name":"role","type":"bytes32","internalType":"bytes32"},{"name":"account","type":"address","internalType":"address"}],"outputs":[{"name":"","type":"bool","internalType":"bool"}],"stateMutability":"view"},{"type":"function","name":"hasSellerBaseStake","inputs":[{"name":"seller","type":"address","internalType":"address"}],"outputs":[{"name":"","type":"bool","internalType":"bool"}],"stateMutability":"view"},{"type":"function","name":"incrementUnreviewed","inputs":[{"name":"agent","type":"address","internalType":"address"}],"outputs":[],"stateMutability":"nonpayable"},{"type":"function","name":"initialize","inputs":[{"name":"_ckt","type":"address","internalType":"address"}],"outputs":[],"stateMutability":"nonpayable"},{"type":"function","name":"inviteCodes","inputs":[{"name":"","type":"bytes32","internalType":"bytes32"}],"outputs":[{"name":"creator","type":"address","internalType":"address"},{"name":"createdAt","type":"uint256","internalType":"uint256"},{"name":"used","type":"bool","internalType":"bool"},{"name":"referee","type":"address","internalType":"address"}],"stateMutability":"view"},{"type":"function","name":"invitePeriodStart","inputs":[{"name":"","type":"address","internalType":"address"}],"outputs":[{"name":"","type":"uint256","internalType":"uint256"}],"stateMutability":"view"},{"type":"function","name":"invitesUsedInPeriod","inputs":[{"name":"","type":"address","internalType":"address"}],"outputs":[{"name":"","type":"uint256","internalType":"uint256"}],"stateMutability":"view"},{"type":"function","name":"isOpenRegistration","inputs":[],"outputs":[{"name":"","type":"bool","internalType":"bool"}],"stateMutability":"view"},{"type":"function","name":"isRegistered","inputs":[{"name":"agent","type":"address","internalType":"address"}],"outputs":[{"name":"","type":"bool","internalType":"bool"}],"stateMutability":"view"},{"type":"function","name":"isTrustedBuyer","inputs":[{"name":"buyer","type":"address","internalType":"address"}],"outputs":[{"name":"","type":"bool","internalType":"bool"}],"stateMutability":"view"},{"type":"function","name":"isTrustedForwarder","inputs":[{"name":"forwarder","type":"address","internalType":"address"}],"outputs":[{"name":"","type":"bool","internalType":"bool"}],"stateMutability":"view"},{"type":"function","name":"lastAnswerResetDay","inputs":[{"name":"","type":"address","internalType":"address"}],"outputs":[{"name":"","type":"uint256","internalType":"uint256"}],"stateMutability":"view"},{"type":"function","name":"lastPenaltyAt","inputs":[{"name":"","type":"address","internalType":"address"}],"outputs":[{"name":"","type":"uint256","internalType":"uint256"}],"stateMutability":"view"},{"type":"function","name":"lastQuestionResetDay","inputs":[{"name":"","type":"address","internalType":"address"}],"outputs":[{"name":"","type":"uint256","internalType":"uint256"}],"stateMutability":"view"},{"type":"function","name":"merchantDisputeCount","inputs":[{"name":"","type":"address","internalType":"address"}],"outputs":[{"name":"","type":"uint256","internalType":"uint256"}],"stateMutability":"view"},{"type":"function","name":"ownerRegistered","inputs":[{"name":"","type":"address","internalType":"address"}],"outputs":[{"name":"","type":"bool","internalType":"bool"}],"stateMutability":"view"},{"type":"function","name":"pause","inputs":[],"outputs":[],"stateMutability":"nonpayable"},{"type":"function","name":"paused","inputs":[],"outputs":[{"name":"","type":"bool","internalType":"bool"}],"stateMutability":"view"},{"type":"function","name":"penaltyCount","inputs":[{"name":"","type":"address","internalType":"address"}],"outputs":[{"name":"","type":"uint256","internalType":"uint256"}],"stateMutability":"view"},{"type":"function","name":"proxiableUUID","inputs":[],"outputs":[{"name":"","type":"bytes32","internalType":"bytes32"}],"stateMutability":"view"},{"type":"function","name":"qualifiedMerchantSuccessCount","inputs":[{"name":"","type":"address","internalType":"address"}],"outputs":[{"name":"","type":"uint256","internalType":"uint256"}],"stateMutability":"view"},{"type":"function","name":"qualifiedPairCredited","inputs":[{"name":"","type":"address","internalType":"address"},{"name":"","type":"address","internalType":"address"}],"outputs":[{"name":"","type":"bool","internalType":"bool"}],"stateMutability":"view"},{"type":"function","name":"ratingCount","inputs":[{"name":"","type":"address","internalType":"address"}],"outputs":[{"name":"","type":"uint256","internalType":"uint256"}],"stateMutability":"view"},{"type":"function","name":"ratingSum","inputs":[{"name":"","type":"address","internalType":"address"}],"outputs":[{"name":"","type":"uint256","internalType":"uint256"}],"stateMutability":"view"},{"type":"function","name":"recordActivity","inputs":[{"name":"agent","type":"address","internalType":"address"},{"name":"activityType","type":"string","internalType":"string"}],"outputs":[],"stateMutability":"nonpayable"},{"type":"function","name":"recordBestAnswer","inputs":[{"name":"agent","type":"address","internalType":"address"}],"outputs":[],"stateMutability":"nonpayable"},{"type":"function","name":"recordDispute","inputs":[{"name":"agent","type":"address","internalType":"address"}],"outputs":[],"stateMutability":"nonpayable"},{"type":"function","name":"recordMerchantDispute","inputs":[{"name":"seller","type":"address","internalType":"address"}],"outputs":[],"stateMutability":"nonpayable"},{"type":"function","name":"recordPenalty","inputs":[{"name":"agent","type":"address","internalType":"address"}],"outputs":[],"stateMutability":"nonpayable"},{"type":"function","name":"recordQualifiedMerchantSuccess","inputs":[{"name":"seller","type":"address","internalType":"address"},{"name":"buyer","type":"address","internalType":"address"},{"name":"sellerScore","type":"uint256","internalType":"uint256"}],"outputs":[],"stateMutability":"nonpayable"},{"type":"function","name":"recordRating","inputs":[{"name":"agent","type":"address","internalType":"address"},{"name":"score","type":"uint256","internalType":"uint256"}],"outputs":[],"stateMutability":"nonpayable"},{"type":"function","name":"recordTransaction","inputs":[{"name":"agent","type":"address","internalType":"address"}],"outputs":[],"stateMutability":"nonpayable"},{"type":"function","name":"recordUndelivery","inputs":[{"name":"agent","type":"address","internalType":"address"}],"outputs":[],"stateMutability":"nonpayable"},{"type":"function","name":"referralCount","inputs":[{"name":"","type":"address","internalType":"address"}],"outputs":[{"name":"","type":"uint256","internalType":"uint256"}],"stateMutability":"view"},{"type":"function","name":"referredBy","inputs":[{"name":"","type":"address","internalType":"address"}],"outputs":[{"name":"","type":"address","internalType":"address"}],"stateMutability":"view"},{"type":"function","name":"register","inputs":[{"name":"name","type":"string","internalType":"string"},{"name":"tags","type":"string","internalType":"string"},{"name":"inviteCode","type":"bytes32","internalType":"bytes32"}],"outputs":[],"stateMutability":"nonpayable"},{"type":"function","name":"removeStake","inputs":[{"name":"agent","type":"address","internalType":"address"},{"name":"amount","type":"uint256","internalType":"uint256"}],"outputs":[],"stateMutability":"nonpayable"},{"type":"function","name":"renounceRole","inputs":[{"name":"role","type":"bytes32","internalType":"bytes32"},{"name":"callerConfirmation","type":"address","internalType":"address"}],"outputs":[],"stateMutability":"nonpayable"},{"type":"function","name":"requestTierUpgrade","inputs":[],"outputs":[],"stateMutability":"nonpayable"},{"type":"function","name":"revokeRole","inputs":[{"name":"role","type":"bytes32","internalType":"bytes32"},{"name":"account","type":"address","internalType":"address"}],"outputs":[],"stateMutability":"nonpayable"},{"type":"function","name":"sellerBaseStakeAmount","inputs":[{"name":"","type":"address","internalType":"address"}],"outputs":[{"name":"","type":"uint256","internalType":"uint256"}],"stateMutability":"view"},{"type":"function","name":"sellerBaseStakeLocked","inputs":[{"name":"","type":"address","internalType":"address"}],"outputs":[{"name":"","type":"bool","internalType":"bool"}],"stateMutability":"view"},{"type":"function","name":"setDebtFlag","inputs":[{"name":"agent","type":"address","internalType":"address"}],"outputs":[],"stateMutability":"nonpayable"},{"type":"function","name":"setDeliveryConfig","inputs":[{"name":"configHash","type":"bytes32","internalType":"bytes32"},{"name":"configURI","type":"string","internalType":"string"}],"outputs":[],"stateMutability":"nonpayable"},{"type":"function","name":"setSellerBaseStakeLocked","inputs":[{"name":"seller","type":"address","internalType":"address"},{"name":"locked","type":"bool","internalType":"bool"}],"outputs":[],"stateMutability":"nonpayable"},{"type":"function","name":"stakedAmount","inputs":[{"name":"","type":"address","internalType":"address"}],"outputs":[{"name":"","type":"uint256","internalType":"uint256"}],"stateMutability":"view"},{"type":"function","name":"supportsInterface","inputs":[{"name":"interfaceId","type":"bytes4","internalType":"bytes4"}],"outputs":[{"name":"","type":"bool","internalType":"bool"}],"stateMutability":"view"},{"type":"function","name":"totalAgents","inputs":[],"outputs":[{"name":"","type":"uint256","internalType":"uint256"}],"stateMutability":"view"},{"type":"function","name":"totalTransactions","inputs":[{"name":"","type":"address","internalType":"address"}],"outputs":[{"name":"","type":"uint256","internalType":"uint256"}],"stateMutability":"view"},{"type":"function","name":"trustedForwarder","inputs":[],"outputs":[{"name":"","type":"address","internalType":"address"}],"stateMutability":"view"},{"type":"function","name":"undeliveryCount","inputs":[{"name":"","type":"address","internalType":"address"}],"outputs":[{"name":"","type":"uint256","internalType":"uint256"}],"stateMutability":"view"},{"type":"function","name":"unpause","inputs":[],"outputs":[],"stateMutability":"nonpayable"},{"type":"function","name":"unreviewedPurchaseCount","inputs":[{"name":"","type":"address","internalType":"address"}],"outputs":[{"name":"","type":"uint256","internalType":"uint256"}],"stateMutability":"view"},{"type":"function","name":"upgradeToAndCall","inputs":[{"name":"newImplementation","type":"address","internalType":"address"},{"name":"data","type":"bytes","internalType":"bytes"}],"outputs":[],"stateMutability":"payable"},{"type":"function","name":"withdrawSellerBaseStake","inputs":[{"name":"amount","type":"uint256","internalType":"uint256"}],"outputs":[],"stateMutability":"nonpayable"},{"type":"event","name":"ActivityRecorded","inputs":[{"name":"agent","type":"address","indexed":true,"internalType":"address"},{"name":"activityType","type":"string","indexed":false,"internalType":"string"}],"anonymous":false},{"type":"event","name":"AgentRegistered","inputs":[{"name":"agent","type":"address","indexed":true,"internalType":"address"},{"name":"name","type":"string","indexed":false,"internalType":"string"},{"name":"bonus","type":"uint256","indexed":false,"internalType":"uint256"},{"name":"referrer","type":"address","indexed":true,"internalType":"address"}],"anonymous":false},{"type":"event","name":"DebtFlagCleared","inputs":[{"name":"agent","type":"address","indexed":true,"internalType":"address"}],"anonymous":false},{"type":"event","name":"DebtFlagSet","inputs":[{"name":"agent","type":"address","indexed":true,"internalType":"address"}],"anonymous":false},{"type":"event","name":"DeliveryConfigUpdated","inputs":[{"name":"agent","type":"address","indexed":true,"internalType":"address"},{"name":"configHash","type":"bytes32","indexed":true,"internalType":"bytes32"},{"name":"configURI","type":"string","indexed":false,"internalType":"string"}],"anonymous":false},{"type":"event","name":"Initialized","inputs":[{"name":"version","type":"uint64","indexed":false,"internalType":"uint64"}],"anonymous":false},{"type":"event","name":"InviteCodeGenerated","inputs":[{"name":"creator","type":"address","indexed":true,"internalType":"address"},{"name":"code","type":"bytes32","indexed":true,"internalType":"bytes32"}],"anonymous":false},{"type":"event","name":"InviteCodeUsed","inputs":[{"name":"code","type":"bytes32","indexed":true,"internalType":"bytes32"},{"name":"newAgent","type":"address","indexed":true,"internalType":"address"},{"name":"creator","type":"address","indexed":true,"internalType":"address"}],"anonymous":false},{"type":"event","name":"MerchantDisputeRecorded","inputs":[{"name":"seller","type":"address","indexed":true,"internalType":"address"}],"anonymous":false},{"type":"event","name":"Paused","inputs":[{"name":"account","type":"address","indexed":false,"internalType":"address"}],"anonymous":false},{"type":"event","name":"QualifiedMerchantSuccessRecorded","inputs":[{"name":"seller","type":"address","indexed":true,"internalType":"address"},{"name":"buyer","type":"address","indexed":true,"internalType":"address"},{"name":"sellerScore","type":"uint256","indexed":false,"internalType":"uint256"}],"anonymous":false},{"type":"event","name":"ReferralBonusPaid","inputs":[{"name":"referrer","type":"address","indexed":true,"internalType":"address"},{"name":"referee","type":"address","indexed":true,"internalType":"address"},{"name":"amount","type":"uint256","indexed":false,"internalType":"uint256"}],"anonymous":false},{"type":"event","name":"RoleAdminChanged","inputs":[{"name":"role","type":"bytes32","indexed":true,"internalType":"bytes32"},{"name":"previousAdminRole","type":"bytes32","indexed":true,"internalType":"bytes32"},{"name":"newAdminRole","type":"bytes32","indexed":true,"internalType":"bytes32"}],"anonymous":false},{"type":"event","name":"RoleGranted","inputs":[{"name":"role","type":"bytes32","indexed":true,"internalType":"bytes32"},{"name":"account","type":"address","indexed":true,"internalType":"address"},{"name":"sender","type":"address","indexed":true,"internalType":"address"}],"anonymous":false},{"type":"event","name":"RoleRevoked","inputs":[{"name":"role","type":"bytes32","indexed":true,"internalType":"bytes32"},{"name":"account","type":"address","indexed":true,"internalType":"address"},{"name":"sender","type":"address","indexed":true,"internalType":"address"}],"anonymous":false},{"type":"event","name":"SellerBaseStakeDeposited","inputs":[{"name":"seller","type":"address","indexed":true,"internalType":"address"},{"name":"amount","type":"uint256","indexed":false,"internalType":"uint256"},{"name":"newBalance","type":"uint256","indexed":false,"internalType":"uint256"}],"anonymous":false},{"type":"event","name":"SellerBaseStakeLockSet","inputs":[{"name":"seller","type":"address","indexed":true,"internalType":"address"},{"name":"locked","type":"bool","indexed":false,"internalType":"bool"}],"anonymous":false},{"type":"event","name":"SellerBaseStakeWithdrawn","inputs":[{"name":"seller","type":"address","indexed":true,"internalType":"address"},{"name":"amount","type":"uint256","indexed":false,"internalType":"uint256"},{"name":"newBalance","type":"uint256","indexed":false,"internalType":"uint256"}],"anonymous":false},{"type":"event","name":"TierDemoted","inputs":[{"name":"agent","type":"address","indexed":true,"internalType":"address"},{"name":"oldTier","type":"uint8","indexed":false,"internalType":"uint8"},{"name":"newTier","type":"uint8","indexed":false,"internalType":"uint8"},{"name":"reason","type":"string","indexed":false,"internalType":"string"}],"anonymous":false},{"type":"event","name":"TierUpgraded","inputs":[{"name":"agent","type":"address","indexed":true,"internalType":"address"},{"name":"oldTier","type":"uint8","indexed":false,"internalType":"uint8"},{"name":"newTier","type":"uint8","indexed":false,"internalType":"uint8"}],"anonymous":false},{"type":"event","name":"Unpaused","inputs":[{"name":"account","type":"address","indexed":false,"internalType":"address"}],"anonymous":false},{"type":"event","name":"Upgraded","inputs":[{"name":"implementation","type":"address","indexed":true,"internalType":"address"}],"anonymous":false},{"type":"error","name":"AccessControlBadConfirmation","inputs":[]},{"type":"error","name":"AccessControlUnauthorizedAccount","inputs":[{"name":"account","type":"address","internalType":"address"},{"name":"neededRole","type":"bytes32","internalType":"bytes32"}]},{"type":"error","name":"AddressEmptyCode","inputs":[{"name":"target","type":"address","internalType":"address"}]},{"type":"error","name":"ERC1967InvalidImplementation","inputs":[{"name":"implementation","type":"address","internalType":"address"}]},{"type":"error","name":"ERC1967NonPayable","inputs":[]},{"type":"error","name":"EnforcedPause","inputs":[]},{"type":"error","name":"ExpectedPause","inputs":[]},{"type":"error","name":"FailedCall","inputs":[]},{"type":"error","name":"InvalidInitialization","inputs":[]},{"type":"error","name":"NotInitializing","inputs":[]},{"type":"error","name":"ReentrancyGuardReentrantCall","inputs":[]},{"type":"error","name":"UUPSUnauthorizedCallContext","inputs":[]},{"type":"error","name":"UUPSUnsupportedProxiableUUID","inputs":[{"name":"slot","type":"bytes32","internalType":"bytes32"}]}],"bytecode":{"object":"0x60c0346200014c576001600160401b0390601f620051fe38819003918201601f19168301918483118484101762000150578084926020946040528339810103126200014c57516001600160a01b03811681036200014c5760017f9b779b17422d0df92223018b32b4d1fa46e071723d6817e2486d003becc55f00553060805260a0527ff0c57e16840df040f15088dc2f81fe391c3923bec73e23a9662efc9c229c6a009081549060ff8260401c166200013a578080831603620000f4575b60405161509990816200016582396080518181816134c5015261357d015260a051818181613009015281816133f10152614f230152f35b6001600160401b031990911681179091556040519081527fc7f505b2f371ae2175ee4913f4499e1f2633a7b5936321eed1cdaeb6115181d290602090a15f8080620000bd565b60405163f92ee8a960e01b8152600490fd5b5f80fd5b634e487b7160e01b5f52604160045260245ffdfe60806040526004361015610011575f80fd5b5f803560e01c80624407ed146141fd57806301ffc9a7146141a757806302768de41461416d57806304357cc014614135578063044f5f121461114f57806304735eae146140fd5780630808d97a146140745780630a3be349146140325780630cfffbbe14613f0a5780630d632bf714613edb5780630d881fd714613e555780630d8dbd0914613e1d57806313afb41e14613de557806313fb5ea714613d905780631dd9092e14613d585780631f0c148114613d535780631fecb7d614613d1b57806321a3b212146121dd5780632404165e14613ce3578063248a9ca314613caa57806324f52d3c14613a925780632f2ff15d14613a49578063325d917e14613a11578063341c99981461394957806336568abe146138ad5780633a49419f1461388a5780633d3ff5c81461386e5780633e3b429a146138335780633f4ba83a146137bf5780634020630514612cc357806340aa01731461342557806344479280146137a457806345d6f7b6146137375780634b4ad9d51461371a5780634f1ef2861461352f57806352d1902d146134b357806354ba639c14613462578063552c182e1461342a578063570e10ed14613425578063572b6c05146133d157806358fa9ce21461114f5780635c975abb146133a35780635cb0610c1461334a5780635f07db37146133125780636057a330146132da578063622206c21461320c5780636374299e146131cb57806364d1bce0146131a057806368ce7d8a146131495780636b293324146131275780637165e5ca146130ef578063720395a3146130b75780637208aad31461309c57806378004d841461305f57806379021310146130385780637da0a87714612ff45780637e27afec14612fd75780637f299f7c14612f5c57806380b163af14612f3e5780638456cb5914612ec75780638b11668b1461114f5780638b38d9b114612e5f5780638b76de1e14612e345780638bd4ed0814612e135780638fe80d9514612dc55780639119b8b114612d8d57806391d1485414612d385780639475670f14612d0057806396c5007614612cc857806398ce5f2514612cc3578063a01edde614612ab3578063a217fddf14612a99578063a674241f14612a77578063a81cb6e414612910578063a90f8e9a146128d7578063a9330b0e1461289f578063abfbd2dc1461285d578063ad3cb1cc14612806578063ada91a17146125cd578063b45aae521461258c578063b862c76d1461254f578063ba8bfc681461250d578063bb35f03d1461114f578063bb56d690146124d5578063c3c5a54714612492578063c4d66de814612304578063c5053712146122e7578063c8b67522146122c4578063d0542f97146121e2578063d1f3ceea146121dd578063d4509d791461217d578063d547741f14612132578063d5b36c0e14612115578063db74559b146120dd578063dbbd81b9146120ba578063dcc2e21814612082578063dd988bab1461204a578063de652fc014612004578063e690249f14611fcc578063e8cce11514611f94578063ecfba34314611f67578063f0425be414611b91578063f21066dd14611b6b578063f3fd219a1461118d578063f4ec82a914611154578063f5bc562b1461114f578063f5d25550146110cc578063f5de123014610781578063f993185514610748578063fb3551ff146105d1578063fd56d77a146105b55763fd66091e146104e9575f80fd5b346105b25760203660031901126105b25761056a906001600160a01b039060409082610513614220565b1681526001602052209060ff610528836143f7565b92610535600182016143f7565b90600281015460038201548460048401549261057860066005870154960154966040519b8c9b8c6101208091528d0190614381565b908b820360208d0152614381565b97811660408a015260a01c166060880152608087015260a086015260c0850152818116151560e085015260081c1615156101008301520390f35b80fd5b50346105b257806003193601126105b257602060405160148152f35b50346105b257602080600319360112610744576105ec614220565b90604051926105fa846142d2565b60608452818401606090528060408501528060608501528060808501528060a08501528060c08501528060e08501528061010080950152600160a01b60019003809316815260018252604090209060405192610655846142d2565b61065e836143f7565b845261066c600184016143f7565b9482850195865260028401549160408601948184168652606087019360a01c60ff16845260038101546080880190815260048201549060a0890191825260058301549260c08a01938452600601549560e08a019460ff881615158652868b019760081c60ff16151588526040519b8c9b8a8d52518c6101209b8c9101526101408d016106f791614381565b90518c8203601f190160408e015261070f9190614381565b99511660608b01525160ff1660808a01525160a08901525160c08801525160e087015251151590850152511515908301520390f35b5080fd5b50346105b25760203660031901126105b2576020906040906001600160a01b03610770614220565b168152600a83522054604051908152f35b50346105b25760603660031901126105b2576004356001600160401b038111610744576107b2903690600401614354565b91906024356001600160401b038111610cd0576107d3903690600401614354565b93906107dd614c7e565b6107e5614cc0565b6001600160a01b036107f5614ef8565b168452601060205260ff6040852054166110875760038210158061107c575b156110375783906101f46021541015610e0f575b6001600160a01b03610838614ef8565b168552601060205260408520600160ff1982541617905561085a602154614499565b60215561088a610868614ef8565b9160405197610876896142d2565b61088136878961430f565b8952369161430f565b60208701526001600160a01b03908116604087015260608601859052426080870181905260a0870181905260c087015260e0860185905260016101008701526108d1614ef8565b1684526001602052604084209480518051906001600160401b038211610d9357610905826108ff8a546143bf565b8a6148fb565b602090601f8311600114610da7576109349291889183610d13575b50508160011b915f199060031b1c19161790565b86555b60208101519586516001600160401b038111610d93576109678161095e60018501546143bf565b600185016148fb565b6020601f8211600114610d1e579161099e82600693610100958b9c8c9b9c92610d135750508160011b915f199060031b1c19161790565b60018201555b6040840151600282018054606087015160ff60a01b60a09190911b166001600160a01b039093166001600160a81b0319909116179190911790556080840151600382015560a0840151600482015560c084015160058201550191610a1a60e08201511515849060ff801983541691151516179055565b0151815461ff00191690151560081b61ff001617905582546020906001600160a01b03166024610a48614ef8565b604051636a1fbdd560e01b81526001600160a01b0390911660048201529586928391905af1928315610d08578593610cd4575b506001600160a01b03169283610b07575b7fed7623659b69359cbc59bb564bf6a27ba904401c33ee12ff3bb0f8e8ada5738b916001600160a01b03610abe614ef8565b1693610ad76040519384936040855260408501916146d2565b9060208301520390a360017f9b779b17422d0df92223018b32b4d1fa46e071723d6817e2486d003becc55f005580f35b6001600160a01b03610b17614ef8565b168552601160205260408520846001600160601b0360a01b825416179055838552601260205260408520610b4b8154614499565b9055845485906001600160a01b0316610b62614ef8565b813b15610cd057604051632b2ecd8b60e11b8152600481018890526001600160a01b0390911660248201529082908290604490829084905af18015610cc557610cad575b5050610bb0614ef8565b855460405163aa7d91d760e01b815291939190602090829060049082906001600160a01b03165afa908115610ca25786908892610c48575b506040519182527fed7623659b69359cbc59bb564bf6a27ba904401c33ee12ff3bb0f8e8ada5738b946001600160a01b0316917f69fd0542b64a8fdb79669725dd1ca4fd2494764f3076df8f27a67d0b9a27e58590602090a39150610a8c565b949150506020843d602011610c9a575b81610c65602093836142ee565b81010312610c96579251857f69fd0542b64a8fdb79669725dd1ca4fd2494764f3076df8f27a67d0b9a27e585610be8565b5f80fd5b3d9150610c58565b6040513d89823e3d90fd5b610cb6906142bf565b610cc157845f610ba6565b8480fd5b6040513d84823e3d90fd5b8280fd5b9092506020813d602011610d00575b81610cf0602093836142ee565b81010312610c965751915f610a7b565b3d9150610ce3565b6040513d87823e3d90fd5b015190505f80610920565b6001830188526020882098885b601f1984168110610d7b575082899a6101009593600193600696601f9d9c9d19811610610d63575b505050811b0160018201556109a4565b01515f1960f88460031b161c191690555f8080610d53565b828201518b556001909a019960209283019201610d2b565b634e487b7160e01b87526041600452602487fd5b9190888852602088209088935b601f1984168510610df4576001945083601f19811610610ddc575b505050811b018655610937565b01515f1960f88460031b161c191690555f8080610dcf565b81810151835560209485019460019093019290910190610db4565b905060443515610ff257604435845260146020526040842080546001600160a01b031691908215610fad57600281015460ff8116610f5d5762093a80610e5960018401544261455c565b11610f1857610e66614ef8565b6001600160a01b03600883901c8116911603610ec85760ff191660011760029190910155816001600160a01b03610e9b614ef8565b166044357f9dc6761a2ebb043b554e472b9aaa20e12e34875afdb783223cfa5d1a0a41c3ab8880a4610828565b60405162461bcd60e51b815260206004820152602260248201527f52656769737472793a206e6f742074686520696e74656e646564207265666572604482015261656560f01b6064820152608490fd5b60405162461bcd60e51b815260206004820152601d60248201527f52656769737472793a20696e7669746520636f646520657870697265640000006044820152606490fd5b60405162461bcd60e51b815260206004820152602260248201527f52656769737472793a20696e7669746520636f646520616c7265616479207573604482015261195960f21b6064820152608490fd5b60405162461bcd60e51b815260206004820152601d60248201527f52656769737472793a20696e76616c696420696e7669746520636f64650000006044820152606490fd5b60405162461bcd60e51b815260206004820152601e60248201527f52656769737472793a20696e7669746520636f646520726571756972656400006044820152606490fd5b60405162461bcd60e51b815260206004820152601960248201527f52656769737472793a206e616d6520332d3634206368617273000000000000006044820152606490fd5b506040821115610814565b60405162461bcd60e51b815260206004820152601c60248201527f52656769737472793a20616c72656164792072656769737465726564000000006044820152606490fd5b50346105b25760203660031901126105b2576110e6614220565b6110ee614b4b565b6001600160a01b0316808252601f60205260408220805461110e90614499565b9055808252600c602052604082206111268154614499565b90557fa3188365c834e7fc3f308f66d42f73587802020d137026d7bfcdd11c4577165c8280a280f35b61424c565b50346105b25760203660031901126105b2576020906040906001600160a01b0361117c614220565b168152601e83522054604051908152f35b5034610c96575f366003190112610c96576111a6614cc0565b6001600160a01b03806111b7614ef8565b165f526020906001825260405f206006810154916111da60ff8460081c166144a7565b6002820160ff815460a01c169360039081861015611b315760ff6111ff911615614611565b600185019360ff8511611b1d5760ff851694600186149384156115f55762093a8061122d858501544261455c565b106115ba578561123b614ef8565b165f5260068952600560405f2054106115755785611257614ef8565b165f5260078952600160405f2054106115305761127a611275614ef8565b614ebf565b156114f657906112a2915b805460ff60a01b191660a09290921b60ff60a01b16919091179055565b6005429101555f915f146114c9575050670de0b6b3a76400005b806112ff575b50916040917fcbbf00b5f55f1857f9362f521999f79036413e420d1b236d6bc143af30db731a936112f1614ef8565b16948351928352820152a280f35b815f541661130b614ef8565b6040516370a0823160e01b815290841660048201528681602481855afa801561140a5783915f91611498575b50106114425785826113889261134b614ef8565b6040516323b872dd60e01b81526001600160a01b0390911660048201523060248201526044810192909252909283919082905f9082906064820190565b03925af1801561140a57611415575b50815f541690813b15610c96575f91602483926040519485938492630852cd8d60e31b845260048401525af1801561140a57156112c2577fcbbf00b5f55f1857f9362f521999f79036413e420d1b236d6bc143af30db731a93919550916113ff6040936142bf565b5f95919350916112c2565b6040513d5f823e3d90fd5b61143490863d881161143b575b61142c81836142ee565b810190614537565b505f611397565b503d611422565b60405162461bcd60e51b815260048101879052602860248201527f52656769737472793a20696e73756666696369656e7420434b5420666f72207460448201526734b2b910313ab93760c11b6064820152608490fd5b809250888092503d83116114c2575b6114b181836142ee565b81010312610c96578290515f611337565b503d6114a7565b600284036114e1575050674563918244f400006112bc565b83036112bc5750678ac7230489e800006112bc565b60405162461bcd60e51b8152600481018a9052601260248201527154313a20726563656e742070656e616c747960701b6044820152606490fd5b60405162461bcd60e51b8152600481018a9052601a60248201527f54313a2031204265737420416e737765722072657175697265640000000000006044820152606490fd5b60405162461bcd60e51b8152600481018a9052601960248201527f54313a20352061637469766974696573207265717569726564000000000000006044820152606490fd5b60405162461bcd60e51b8152600481018a90526013602482015272150c4e880dc819185e5cc81c995c5d5a5c9959606a1b6044820152606490fd5b600287036118e15762278d0061160f60058501544261455c565b106118a6578561161d614ef8565b165f5260068952600c60405f20541061186d5785611639614ef8565b165f52600789528360405f2054106118335785611654614ef8565b165f52601b89528360405f2054106117f6578561166f614ef8565b165f52601c89528360405f2054106117b95761015e61169461168f614ef8565b6147f4565b1061177b57856116a2614ef8565b165f52600e895260405f20548015908115611763575b501561172957856116c7614ef8565b165f52601989526802b5e3af16b188000060405f2054106116ec57906112a291611285565b60405162461bcd60e51b8152600481018a90526015602482015274150c8e8818985cd9481cdd185ad9480d4c0810d2d5605a1b6044820152606490fd5b60405162461bcd60e51b8152600481018a9052601260248201527154323a20726563656e742070656e616c747960701b6044820152606490fd5b6276a7009150611773904261455c565b10155f6116b8565b60405162461bcd60e51b8152600481018a9052601660248201527554323a2073656c6c657220726174696e6720332e352b60501b6044820152606490fd5b60405162461bcd60e51b8152600481018a9052601560248201527454323a20332064697374696e63742062757965727360581b6044820152606490fd5b60405162461bcd60e51b8152600481018a9052601560248201527454323a2033207175616c69666965642073616c657360581b6044820152606490fd5b60405162461bcd60e51b8152600481018a90526012602482015271150c8e880cc810905cc81c995c5d5a5c995960721b6044820152606490fd5b60405162461bcd60e51b8152600481018a9052601160248201527054323a203132206163746976697469657360781b6044820152606490fd5b60405162461bcd60e51b8152600481018a9052601360248201527254323a20333020646179732066726f6d20543160681b6044820152606490fd5b8387146118f3575b906112a291611285565b6276a70061190560058501544261455c565b10611ae25785611913614ef8565b165f52601b8952601460405f205410611aa4578561192f614ef8565b165f52601c8952600a60405f205410611a66576101a961195061168f614ef8565b10611a215760c8611967611962614ef8565b614af2565b10156119e35785611976614ef8565b165f52600e895260405f205480159081156119cb575b506118e95760405162461bcd60e51b8152600481018a9052601260248201527154333a20726563656e742070656e616c747960701b6044820152606490fd5b62ed4e0091506119db904261455c565b10155f61198c565b60405162461bcd60e51b8152600481018a9052601660248201527554333a20646973707574652072617465203e3d20322560501b6044820152606490fd5b60405162461bcd60e51b8152600481018a9052601760248201527f54333a2073656c6c657220726174696e6720342e32352b0000000000000000006044820152606490fd5b60405162461bcd60e51b8152600481018a9052601660248201527554333a2031302064697374696e63742062757965727360501b6044820152606490fd5b60405162461bcd60e51b8152600481018a9052601660248201527554333a203230207175616c69666965642073616c657360501b6044820152606490fd5b60405162461bcd60e51b8152600481018a905260136024820152722a199d101c98103230bcb990333937b6902a1960691b6044820152606490fd5b634e487b7160e01b5f52601160045260245ffd5b60405162461bcd60e51b81526004810188905260126024820152712932b3b4b9ba393c9d1036b0bc103a34b2b960711b6044820152606490fd5b34610c96576020366003190112610c96576020611b89611962614220565b604051908152f35b34610c9657602080600319360112610c9657611bab614220565b611bb3614cc0565b6001600160a01b03818116918215611f2257825f526010845260ff60405f205416611ed15781611be1614ef8565b165f5260018452600260405f20611c0160ff600683015460081c166144a7565b01600160ff825460a01c1610611e8c5760ff611c4a9184611c20614ef8565b165f526016875262278d00611c3960405f20544261455c565b1015611e5b575b5460a01c16614cea565b82611c53614ef8565b165f526015855260405f20541015611e1857611c6d614ef8565b9260405193858501926001600160601b0319809260601b16845260601b16603485015242604885015260488452608084016001600160401b039285821084831117611dc357816040528551902094855f52601487528460405f205416611dd7575050611cd7614ef8565b60405192608084019190821184831017611dc3578491604052168252611d4b60028684019342855260408101945f865260608201948552875f52601489528660405f209251166001600160601b0360a01b8354161782555160018201550192511515839060ff801983541691151516179055565b518154610100600160a81b03191660089190911b610100600160a81b031617905580611d75614ef8565b165f526015835260405f20611d8a8154614499565b9055611d94614ef8565b169080604051927f2024281721cc5b5c9de0db708f4f0ea40e02486266fb5677a1549ededbf960c45f80a38152f35b634e487b7160e01b5f52604160045260245ffd5b907f52656769737472793a20636f646520636f6c6c6973696f6e000000000000000060c46064938962461bcd60e51b85526084820152601860a48201520152fd5b6064846040519062461bcd60e51b825280600483015260248201527f52656769737472793a20696e766974652071756f7461206578686175737465646044820152fd5b84611e64614ef8565b165f52601587525f604081205584611e7a614ef8565b165f52601687524260405f2055611c40565b60405162461bcd60e51b815260048101869052601a60248201527f52656769737472793a205469657220312b2072657175697265640000000000006044820152606490fd5b60405162461bcd60e51b8152600481018590526024808201527f52656769737472793a207265666572656520616c726561647920726567697374604482015263195c995960e21b6064820152608490fd5b60405162461bcd60e51b815260048101859052601b60248201527f52656769737472793a207a65726f2072656665726565206164647200000000006044820152606490fd5b34610c96576020366003190112610c96576020611f8a611f85614220565b6149e8565b6040519015158152f35b34610c96576020366003190112610c96576001600160a01b03611fb5614220565b165f526008602052602060405f2054604051908152f35b34610c96576020366003190112610c96576001600160a01b03611fed614220565b165f526005602052602060405f2054604051908152f35b34610c96576020366003190112610c965761201d614220565b612025614b4b565b6001600160a01b03165f908152600760205260409020805461204690614499565b9055005b34610c96576020366003190112610c96576001600160a01b0361206b614220565b165f52601d602052602060405f2054604051908152f35b34610c96576020366003190112610c96576001600160a01b036120a3614220565b165f526003602052602060405f2054604051908152f35b34610c96576020366003190112610c96576020611f8a6120d8614220565b614999565b34610c96576020366003190112610c96576001600160a01b036120fe614220565b165f526012602052602060405f2054604051908152f35b34610c96575f366003190112610c9657602060405162093a808152f35b34610c96576040366003190112610c965761217b600435612151614236565b90805f525f80516020615024833981519152602052612176600160405f200154614c3c565b614e34565b005b34610c96576020366003190112610c96576001600160a01b0361219e614220565b165f52601760205260405f205460186020526121bc60405f206143f7565b906121d96040519283928352604060208401526040830190614381565b0390f35b614267565b34610c96576020366003190112610c96576121fb614220565b612203614b4b565b6001600160a01b03165f818152600f60205260409020805461222490614499565b9055805f52600f602052600360405f2054101561223d57005b600160205260405f20600281019081549060ff8260a01c16908161225d57005b7f8c34ab8d1aa1a52de9e49a12f821dbf4105dbc60e63673b432e7755071c3cfe99360a09360ff851b191690556005429101556040519081525f602082015260606040820152600e60608201526d0cde17dd5b99195b1a5d995c995960921b6080820152a2005b34610c96576020366003190112610c96576020611b896122e2614220565b61494a565b34610c96575f366003190112610c96576020602154604051908152f35b34610c96576020366003190112610c965761231d614220565b7ff0c57e16840df040f15088dc2f81fe391c3923bec73e23a9662efc9c229c6a009081549060ff8260401c1615916001600160401b0381168015908161248a575b6001149081612480575b159081612477575b506124655767ffffffffffffffff198116600117845582612446575b50612395614f51565b61239d614f51565b6001600160a01b03168015612411576001600160601b0360a01b5f5416175f556123cd6123c8614ef8565b614d03565b506123d457005b68ff00000000000000001981541690557fc7f505b2f371ae2175ee4913f4499e1f2633a7b5936321eed1cdaeb6115181d2602060405160018152a1005b60405162461bcd60e51b815260206004820152600d60248201526c20a91d103d32b9379030b2323960991b6044820152606490fd5b68ffffffffffffffffff1916680100000000000000011783558361238c565b60405163f92ee8a960e01b8152600490fd5b90501585612370565b303b159150612368565b84915061235e565b34610c96576020366003190112610c96576001600160a01b036124b3614220565b165f526001602052602060ff600660405f20015460081c166040519015158152f35b34610c96576020366003190112610c96576001600160a01b036124f6614220565b165f52601b602052602060405f2054604051908152f35b34610c96576020366003190112610c9657612526614220565b61252e614b4b565b6001600160a01b03165f908152600c60205260409020805461204690614499565b34610c96576020366003190112610c96576001600160a01b03612570614220565b165f526010602052602060ff60405f2054166040519015158152f35b34610c96576020366003190112610c96576001600160a01b036125ad614220565b165f526001602052602060ff600260405f20015460a01c16604051908152f35b34610c96576060366003190112610c96576125e6614220565b6125ee614236565b90604435916125fb614b4b565b60018060a01b0380921691825f526020916001835260ff600660405f20015460081c16156127c1571692835f526001825260ff600660405f20015460081c161561277c57600181101580612771575b612653906147b2565b825f5281805260405f20845f52825260ff60405f20541661272c57907f1d42476839b6f0752e226b51dd2dbc677e21e5c7933f9ac38165fd6afe1e4ce191835f5281805260405f20855f52825260405f20600160ff19825416179055835f52601b825260405f206126c48154614499565b9055835f52601c825260405f206126db8154614499565b9055835f52601d825260405f206126f382825461454f565b9055835f52601e825260405f2061270a8154614499565b9055835f52600b825260405f206127218154614499565b9055604051908152a3005b60405162461bcd60e51b815260048101839052601f60248201527f52656769737472793a207061697220616c7265616479206372656469746564006044820152606490fd5b50600581111561264a565b60405162461bcd60e51b815260048101839052601e60248201527f52656769737472793a206275796572206e6f74207265676973746572656400006044820152606490fd5b60405162461bcd60e51b815260048101849052601f60248201527f52656769737472793a2073656c6c6572206e6f742072656769737465726564006044820152606490fd5b34610c96575f366003190112610c965760405160408101908082106001600160401b03831117611dc3576121d99160405260058152640352e302e360dc1b6020820152604051918291602083526020830190614381565b34610c96576020366003190112610c9657612876614220565b61287e614b4b565b6001600160a01b03165f908152600b60205260409020805461204690614499565b34610c96576020366003190112610c96576001600160a01b036128c0614220565b165f52600d602052602060405f2054604051908152f35b34610c96576020366003190112610c965760206001600160a01b03806128fb614220565b165f526011825260405f205416604051908152f35b34610c96576020366003190112610c9657612929614220565b612931614cc0565b6001600160a01b03165f818152600160205260409020600681015460081c60ff1680612a64575b15612a2b576276a7008061297060048401544261455c565b10159081612a13575b5061298057005b600281019060ff825460a01c165f19810160ff8111611b1d57835460ff60a01b191660a091821b60ff60a01b161784557f8c34ab8d1aa1a52de9e49a12f821dbf4105dbc60e63673b432e7755071c3cfe993909260ff919060054291015554831c16604051918252602082015260606040820152600c60608201526b1a5b9858dd1a5d9957ce4c1960a21b6080820152a2005b9050612a2360058301544261455c565b101583612979565b60405162461bcd60e51b8152602060048201526011602482015270149959da5cdd1c9e4e881a5b9d985b1a59607a1b6044820152606490fd5b5060ff600282015460a01c161515612958565b34610c96575f366003190112610c96576020604051674563918244f400008152f35b34610c96575f366003190112610c965760206040515f8152f35b34610c96576040366003190112610c96576001600160401b03600435602435828111610c9657612ae7903690600401614354565b612aef614cc0565b6001600160a01b0380612b00614ef8565b165f5260019460209560018752612b2360ff600660405f20015460081c166144a7565b8515612c7e5782612b32614ef8565b165f52601787528560405f205582612b48614ef8565b165f526018875260405f20918411611dc357612b6e84612b6884546143bf565b846148fb565b5f90601f8511600114612bf3575091612be391612bc585807fb1f453653d9753c60c1f7327722c4c04182e9aef0062a95b525cf345a392799498999a965f91612be8575b508160011b915f199060031b1c19161790565b90555b612bd0614ef8565b16946040519383859485528401916146d2565b0390a3005b90508901358b612bb2565b90601f198516835f52885f20925f905b828210612c6757505091612be39391867fb1f453653d9753c60c1f7327722c4c04182e9aef0062a95b525cf345a392799498999a969410612c4e575b5050600185811b019055612bc8565b8801355f19600388901b60f8161c191690558880612c3f565b88840135855593840193928a0192908a0190612c03565b60405162461bcd60e51b815260048101889052601b60248201527f52656769737472793a20656d70747920636f6e666967206861736800000000006044820152606490fd5b614289565b34610c96576020366003190112610c96576001600160a01b03612ce9614220565b165f526016602052602060405f2054604051908152f35b34610c96576020366003190112610c96576001600160a01b03612d21614220565b165f52600e602052602060405f2054604051908152f35b34610c96576040366003190112610c9657612d51614236565b6004355f525f8051602061502483398151915260205260405f209060018060a01b03165f52602052602060ff60405f2054166040519015158152f35b34610c96576020366003190112610c96576001600160a01b03612dae614220565b165f52601c602052602060405f2054604051908152f35b34610c96576020366003190112610c9657612dde614220565b612de6614b4b565b6001600160a01b03165f908152601360205260409020805480158015612e0857005b611b1d575f19019055005b34610c96575f366003190112610c965760206101f460215410604051908152f35b34610c96576020366003190112610c96576020611f8a612e52614220565b612e5a614b4b565b614843565b34610c96576020366003190112610c9657612e78614220565b612e80614b4b565b6001600160a01b03165f818152600160205260408120600601805460ff191690557fe58e2c1a7cdd880f899d25dda2ba461cca6074ad201e6933bc459cf2a1988e339080a2005b34610c96575f366003190112610c9657612edf614bd5565b612ee7614cc0565b5f80516020615044833981519152805460ff191660011790557f62e78cea01bee320cd4e420270b5ea74000d11b0c9f74754ebdbfc544b05a2586020612f2b614ef8565b6040516001600160a01b039091168152a1005b34610c96576020366003190112610c96576020611b8961168f614220565b34610c96576040366003190112610c9657612f75614220565b60243590612f81614b4b565b600182101580612fcc575b612f95906147b2565b60018060a01b031690815f526008602052612fb560405f2091825461454f565b90555f52600960205260405f206120468154614499565b506005821115612f8c565b34610c96575f366003190112610c9657602060405162278d008152f35b34610c96575f366003190112610c96576040517f00000000000000000000000000000000000000000000000000000000000000006001600160a01b03168152602090f35b34610c96575f366003190112610c96575f546040516001600160a01b039091168152602090f35b34610c96576020366003190112610c96576001600160a01b03613080614220565b165f52601a602052602060ff60405f2054166040519015158152f35b34610c96575f366003190112610c9657602060405160018152f35b34610c96576020366003190112610c96576001600160a01b036130d8614220565b165f526017602052602060405f2054604051908152f35b34610c96576020366003190112610c96576001600160a01b03613110614220565b165f526015602052602060405f2054604051908152f35b34610c96575f366003190112610c96576020604051670de0b6b3a76400008152f35b34610c96576040366003190112610c9657613162614220565b6024359061316e614b4b565b6001600160a01b03165f908152600a602052604090208054909190811161319a5761204690825461455c565b505f9055005b34610c96576020366003190112610c96576020611f8a6131be614220565b6131c6614b4b565b6146f2565b34610c96576040366003190112610c96576131e4614220565b6131ec614b4b565b60018060a01b03165f52600a60205260405f20612046602435825461454f565b34610c96576040366003190112610c9657613225614220565b6024356001600160401b038111610c96576132657fd608bac99c845c8184fc012e6062bb6155fb714459658bb543ebeccd37c82a67913690600401614354565b9261326e614b4b565b60018060a01b031692835f52600160205261329560ff600660405f20015460081c166144a7565b835f52600660205260405f206132ab8154614499565b9055835f52600160205242600460405f2001556132d56040519283926020845260208401916146d2565b0390a2005b34610c96576020366003190112610c96576001600160a01b036132fb614220565b165f52600b602052602060405f2054604051908152f35b34610c96576020366003190112610c96576001600160a01b03613333614220565b165f52601f602052602060405f2054604051908152f35b34610c96576020366003190112610c96576004355f526014602052608060405f2060018060a01b0380825416916002600182015491015490604051938452602084015260ff81161515604084015260081c166060820152f35b34610c96575f366003190112610c9657602060ff5f8051602061504483398151915254166040519015158152f35b34610c96576020366003190112610c965760206133ec614220565b6040517f00000000000000000000000000000000000000000000000000000000000000006001600160a01b039081169216919091148152f35b6142a4565b34610c96576020366003190112610c96576001600160a01b0361344b614220565b165f526004602052602060405f2054604051908152f35b34610c96576040366003190112610c965761347b614220565b613483614236565b9060018060a01b038091165f526020805260405f2091165f52602052602060ff60405f2054166040519015158152f35b34610c96575f366003190112610c96577f00000000000000000000000000000000000000000000000000000000000000006001600160a01b0316300361351d5760206040517f360894a13ba1a3210667c828492db98dca3e2076cc3735a920a3ca505d382bbc8152f35b60405163703e46dd60e11b8152600490fd5b6040366003190112610c9657613543614220565b6024356001600160401b038111610c965736602382011215610c965761357390369060248160040135910161430f565b6001600160a01b037f000000000000000000000000000000000000000000000000000000000000000081163081149081156136ec575b5061351d576135b6614bd5565b8216916040516352d1902d60e01b8152602081600481875afa5f91816136b8575b506135f557604051634c9c8ce360e01b815260048101859052602490fd5b7f360894a13ba1a3210667c828492db98dca3e2076cc3735a920a3ca505d382bbc908181036136a05750813b156136875780546001600160a01b03191684179055604051927fbc7cd75a20ee27fd9adebab32041f755214dbc6bffa90cc0225b39da2e5c2d3b5f80a281511561366f5761217b9250614f92565b50503461367857005b63b398979f60e01b8152600490fd5b604051634c9c8ce360e01b815260048101859052602490fd5b60249060405190632a87526960e21b82526004820152fd5b9091506020813d6020116136e4575b816136d4602093836142ee565b81010312610c96575190856135d7565b3d91506136c7565b9050817f360894a13ba1a3210667c828492db98dca3e2076cc3735a920a3ca505d382bbc54161415846135a9565b34610c96575f366003190112610c965760206040516276a7008152f35b34610c96576020366003190112610c9657613750614220565b613758614b4b565b6001600160a01b03165f8181526001602081905260408220600601805460ff191690911790557f0b69431759ac8196079b41636a3b6c6c29700ce19ec338fbcae4497e0078545b9080a2005b34610c96575f366003190112610c96576020604051600c8152f35b34610c96575f366003190112610c96576137d7614bd5565b5f80516020615044833981519152805460ff8116156138215760ff191690557f5db9ee0a495bf2e6ff9c91a7834c1ba4fdd244a5e8aa4e537bd38aeae4b073aa6020612f2b614ef8565b604051638dfc202b60e01b8152600490fd5b34610c96576020366003190112610c96576001600160a01b03613854614220565b165f5260136020526020600360405f205410604051908152f35b34610c96575f366003190112610c965760206040516101f48152f35b34610c96576020366003190112610c96576020611b896138a8614220565b61467b565b34610c96576040366003190112610c96576004356138c9614236565b8115613904576001600160a01b03806138e0614ef8565b16908216036138f25761217b91614e34565b60405163334bd91960e11b8152600490fd5b60405162461bcd60e51b815260206004820152601960248201527f41523a2063616e6e6f742072656e6f756e63652061646d696e000000000000006044820152606490fd5b34610c96576020366003190112610c9657613962614220565b61396a614b4b565b6001600160a01b03165f81815260016020526040902060068101546139949060081c60ff166144a7565b600281019081549060ff8260a01c1690816139ab57005b7f8c34ab8d1aa1a52de9e49a12f821dbf4105dbc60e63673b432e7755071c3cfe99360a09360ff851b191690556005429101556040519081525f602082015260606040820152600d60608201526c6d616a6f725f70656e616c747960981b6080820152a2005b34610c96576020366003190112610c96576001600160a01b03613a32614220565b165f526006602052602060405f2054604051908152f35b34610c96576040366003190112610c965761217b600435613a68614236565b90805f525f80516020615024833981519152602052613a8d600160405f200154614c3c565b614da7565b34610c9657602080600319360112610c965760043590613ab0614c7e565b613ab8614cc0565b613ac38215156144f3565b6001600160a01b039081613ad5614ef8565b165f5260018152613af060ff600660405f2001541615614611565b81613af9614ef8565b165f52601a815260ff60405f205416613c665781613b15614ef8565b165f52601981528260405f205410613c185781613b30614ef8565b165f526019815260405f20613b4684825461455c565b9055815f54169181816044613b59614ef8565b5f604051978894859363a9059cbb60e01b85521660048401528960248401525af191821561140a577f0fb0632146179f51e464bcd8df1243d7c83e76a985b5fcba39bd2624a9b8cbc293604093613bfb575b50613bb4614ef8565b9082613bbe614ef8565b165f5260198152835f20549084519687528601521692a260017f9b779b17422d0df92223018b32b4d1fa46e071723d6817e2486d003becc55f0055005b613c1190823d841161143b5761142c81836142ee565b5085613bab565b6084906040519062461bcd60e51b82526004820152602160248201527f52656769737472793a20696e73756666696369656e742062617365207374616b6044820152606560f81b6064820152fd5b6064906040519062461bcd60e51b82526004820152601b60248201527f52656769737472793a2062617365207374616b65206c6f636b656400000000006044820152fd5b34610c96576020366003190112610c96576004355f525f805160206150248339815191526020526020600160405f200154604051908152f35b34610c96576020366003190112610c96576001600160a01b03613d04614220565b165f526009602052602060405f2054604051908152f35b34610c96576020366003190112610c96576001600160a01b03613d3c614220565b165f52600c602052602060405f2054604051908152f35b6141fd565b34610c96576020366003190112610c96576001600160a01b03613d79614220565b165f526007602052602060405f2054604051908152f35b34610c96576020366003190112610c9657613da9614220565b613db1614b4b565b6001600160a01b03165f818152600d602052604090208054613dd290614499565b90555f52600e6020524260405f20555f80f35b34610c96576020366003190112610c96576001600160a01b03613e06614220565b165f52600f602052602060405f2054604051908152f35b34610c96576020366003190112610c96576001600160a01b03613e3e614220565b165f526002602052602060405f2054604051908152f35b34610c96576040366003190112610c9657613e6e614220565b6024359081151590818303610c96577f82811595e519b97c9631176827e1cb97907ae5b7554bd7f8863d28d239ea68fb91613ed2602092613ead614b4b565b60018060a01b031694855f52601a845260405f209060ff801983541691151516179055565b604051908152a2005b34610c96576020366003190112610c96576040613efe613ef9614220565b614569565b82519182526020820152f35b34610c9657602080600319360112610c9657613fb760043591613f2b614c7e565b613f33614cc0565b6001600160a01b0380613f44614ef8565b165f5260018252613f6160ff600660405f20015460081c166144a7565b613f6c8415156144f3565b8184825f5416613f7a614ef8565b6040516323b872dd60e01b81526001600160a01b0390911660048201523060248201526044810192909252909485919082905f9082906064820190565b03925af191821561140a577f533942809d6a37bdaed14aa350b8e32c27eea39c8e7714a09487f19ea1e154f593604093614015575b5081613ff6614ef8565b165f5260198152825f2061400b86825461454f565b9055613bb4614ef8565b61402b90823d841161143b5761142c81836142ee565b5085613fec565b34610c96576020366003190112610c965761404b614220565b614053614b4b565b6001600160a01b03165f908152601360205260409020805461204690614499565b34610c96576020366003190112610c965760c061408f614220565b60018060a01b038116805f52601b60205260405f205491601c60205260405f2054916140ba826147f4565b6140c383614af2565b915f5260196020526140d960405f205493614999565b936040519586526020860152604085015260608401526080830152151560a0820152f35b34610c96576020366003190112610c96576001600160a01b0361411e614220565b165f526019602052602060405f2054604051908152f35b34610c96576020366003190112610c96576001600160a01b03614156614220565b165f526013602052602060405f2054604051908152f35b34610c96575f366003190112610c965760206040517fba279271fb7bbf76a6f3df3cc57bf80647fcafdea60ec3383d90f459de74e7c08152f35b34610c96576020366003190112610c965760043563ffffffff60e01b8116809103610c9657602090637965db0b60e01b81149081156141ec575b506040519015158152f35b6301ffc9a760e01b149050826141e1565b34610c96575f366003190112610c965760206040516802b5e3af16b18800008152f35b600435906001600160a01b0382168203610c9657565b602435906001600160a01b0382168203610c9657565b34610c96575f366003190112610c9657602060405160038152f35b34610c96575f366003190112610c96576020604051678ac7230489e800008152f35b34610c96575f366003190112610c9657602060405160058152f35b34610c96575f366003190112610c96576020604051600a8152f35b6001600160401b038111611dc357604052565b61012081019081106001600160401b03821117611dc357604052565b90601f801991011681019081106001600160401b03821117611dc357604052565b9291926001600160401b038211611dc35760405191614338601f8201601f1916602001846142ee565b829481845281830111610c96578281602093845f960137010152565b9181601f84011215610c96578235916001600160401b038311610c965760208381860195010111610c9657565b91908251928382525f5b8481106143ab575050825f602080949584010152601f8019910116010190565b60208183018101518483018201520161438b565b90600182811c921680156143ed575b60208310146143d957565b634e487b7160e01b5f52602260045260245ffd5b91607f16916143ce565b9060405191825f8254614409816143bf565b908184526020946001916001811690815f146144775750600114614439575b505050614437925003836142ee565b565b5f90815285812095935091905b81831061445f57505061443793508201015f8080614428565b85548884018501529485019487945091830191614446565b9250505061443794925060ff191682840152151560051b8201015f8080614428565b5f198114611b1d5760010190565b156144ae57565b60405162461bcd60e51b815260206004820152601860248201527f52656769737472793a206e6f74207265676973746572656400000000000000006044820152606490fd5b156144fa57565b60405162461bcd60e51b8152602060048201526015602482015274149959da5cdd1c9e4e881e995c9bc8185b5bdd5b9d605a1b6044820152606490fd5b90816020910312610c9657518015158103610c965790565b91908201809211611b1d57565b91908203918211611b1d57565b6001600160a01b03165f818152600160205260409020600681015460081c60ff161580156145fd575b6145f55760ff60026145a992015460a01c16614cea565b905f52601560205260405f2054601660205262278d006145cd60405f20544261455c565b10156145ee575b808211156145e9576145e6908261455c565b91565b505f91565b505f6145d4565b50505f905f90565b50600160ff600283015460a01c1610614592565b1561461857565b60405162461bcd60e51b815260206004820152601a60248201527f52656769737472793a20636c65617220646562742066697273740000000000006044820152606490fd5b8115614667570490565b634e487b7160e01b5f52601260045260245ffd5b6001600160a01b03165f818152600b6020526040902054156146cd57600c60205260405f2054606481029080820460641490151715611b1d576146ca915f52600b60205260405f20549061465d565b90565b505f90565b908060209392818452848401375f828201840152601f01601f1916010190565b60018060a01b0316805f5260206001815260409160ff6002845f20015460a01c166147aa576201518042046003835280845f205410614793575b5060028252600a835f2054101561475757906002915f52525f206147508154614499565b9055600190565b50606491519062461bcd60e51b825260048201526016602482015275149959da5cdd1c9e4e88185b9cddd95c881b1a5b5a5d60521b6044820152fd5b600283525f8481205560038352835f20555f61472c565b505050600190565b156147b957565b60405162461bcd60e51b815260206004820152601360248201527252656769737472793a2073636f726520312d3560681b6044820152606490fd5b6001600160a01b03165f818152601e6020526040902054156146cd57601d60205260405f2054606481029080820460641490151715611b1d576146ca915f52601e60205260405f20549061465d565b60018060a01b0316805f5260206001815260409160ff6002845f20015460a01c166147aa576201518042046005835280845f2054106148e4575b50600482526005835f205410156148a157906004915f52525f206147508154614499565b50606491519062461bcd60e51b82526004820152601860248201527f52656769737472793a207175657374696f6e206c696d697400000000000000006044820152fd5b600483525f8481205560058352835f20555f61487d565b601f821161490857505050565b5f5260205f20906020601f840160051c83019310614940575b601f0160051c01905b818110614935575050565b5f815560010161492a565b9091508190614921565b6001600160a01b03165f81815260096020526040902054156146cd57600860205260405f2054606481029080820460641490151715611b1d576146ca915f52600960205260405f20549061465d565b6001600160a01b03165f90815260016020526040902060029081015460a01c60ff16106149d957678ac7230489e800005b601960205260405f2054101590565b6802b5e3af16b18800006149ca565b60018060a01b039081811691825f52600160205260405f209060ff60405191614a10836142d2565b614a19846143f7565b8352614a27600185016143f7565b60208401526002840154908116604084015260a01c1660608201526006600383015492836080840152600481015460a0840152600581015460c084015201549060ff8083161515928360e084015260081c1615906101008215910152614aea57614ae35762093a808101809111611b1d574210614add57815f526006602052600360405f205410614add57614abb90614ebf565b156146cd575f526013602052600360405f20541015614ad957600190565b5f90565b50505f90565b5050505f90565b505050505f90565b60018060a01b0316805f52601b602052614b1a60405f2054601f60205260405f20549061454f565b908115614add575f52601f60205260405f20549061271091828102928184041490151715611b1d576146ca9161465d565b614b53614ef8565b6001600160a01b03165f8181527f1a6cd9a7b8103b1ac8ae3acbee9fd0afe79825cbeda582da2cdf52e70cae65a960205260409020547fba279271fb7bbf76a6f3df3cc57bf80647fcafdea60ec3383d90f459de74e7c09060ff1615614bb7575050565b604492506040519163e2517d3f60e01b835260048301526024820152fd5b614bdd614ef8565b6001600160a01b03165f8181527fb7db2dd08fcb62d0c9e08c51941cae53c267786a0b75803fb7960902fc8ef97d602052604090205460ff1615614c1e5750565b6044906040519063e2517d3f60e01b825260048201525f6024820152fd5b614c44614ef8565b90805f525f8051602061502483398151915260205260405f209160018060a01b031691825f5260205260ff60405f20541615614bb7575050565b7f9b779b17422d0df92223018b32b4d1fa46e071723d6817e2486d003becc55f006002815414614cae5760029055565b604051633ee5aeb560e01b8152600490fd5b60ff5f805160206150448339815191525416614cd857565b60405163d93c066560e01b8152600490fd5b60ff16600381029080820460031490151715611b1d5790565b6001600160a01b039081165f8181527fb7db2dd08fcb62d0c9e08c51941cae53c267786a0b75803fb7960902fc8ef97d60205260409020549091905f805160206150248339815191529060ff16614ae3575f805260205260405f20825f5260205260405f20600160ff19825416179055614d7b614ef8565b16905f7f2f8788117e7eff1d82e926ec794901d17c78024a50270940304540a733656f0d8180a4600190565b5f8181525f80516020615024833981519152602081815260408084206001600160a01b039687168086529252909220549293919260ff16614aea57835f5260205260405f20825f5260205260405f20600160ff19825416179055614e09614ef8565b16917f2f8788117e7eff1d82e926ec794901d17c78024a50270940304540a733656f0d5f80a4600190565b5f8181525f80516020615024833981519152602081815260408084206001600160a01b039687168086529252909220549293919260ff1615614aea57835f5260205260405f20825f5260205260405f2060ff198154169055614e94614ef8565b16917ff6391f5c32d9c69d2a47ea670b442974b53935d1edc7fd64eb21e047a839171b5f80a4600190565b6001600160a01b03165f908152600e60205260409020548015908115614ee3575090565b62278d009150614ef3904261455c565b101590565b601436101580614f1f575b15614f1b576013193601368111610c96573560601c90565b3390565b50337f00000000000000000000000000000000000000000000000000000000000000006001600160a01b031614614f03565b60ff7ff0c57e16840df040f15088dc2f81fe391c3923bec73e23a9662efc9c229c6a005460401c1615614f8057565b604051631afcd79f60e31b8152600490fd5b905f8091602081519101845af48080615010575b15614fc65750506040513d81523d5f602083013e60203d82010160405290565b15614fed57604051639996b31560e01b81526001600160a01b039091166004820152602490fd5b3d15614ffe576040513d5f823e3d90fd5b60405163d6bda27560e01b8152600490fd5b503d151580614fa65750813b1515614fa656fe02dd7bc7dec4dceedda775e58dd541e08a116c6c53815c0bd028192f7b626800cd5ed15c6e187e77e9aee88184c21f4f2182ab5827cb3b7e07fbedcd63f03300a26469706673582212209fd23c4a66830fbd88a4f0ff16698cb886e4835c8df70850ee7e627b98c0d60064736f6c63430008180033","linkReferences":{}},"methodIdentifiers":{"DEFAULT_ADMIN_ROLE()":"a217fddf","DEMOTION_PERIOD()":"4b4ad9d5","INVITE_RESET_PERIOD()":"7e27afec","INVITE_VALIDITY()":"d5b36c0e","MAX_UNREVIEWED()":"bb35f03d","OPEN_REGISTRATION_LIMIT()":"3d3ff5c8","PROTOCOL_ROLE()":"02768de4","TIER0_DAILY_ANSWER_LIMIT()":"40aa0173","TIER0_DAILY_QUESTION_LIMIT()":"40206305","TIER1_BASE_STAKE()":"004407ed","TIER1_BURN()":"6b293324","TIER1_MIN_ACTIVITIES()":"98ce5f25","TIER1_MIN_BEST_ANSWERS()":"7208aad3","TIER2_BASE_STAKE()":"d1f3ceea","TIER2_BURN()":"a674241f","TIER2_MIN_ACTIVITIES()":"44479280","TIER2_MIN_BEST_ANSWERS()":"f5bc562b","TIER2_MIN_DISTINCT_BUYERS()":"044f5f12","TIER2_MIN_QUALIFIED_SALES()":"8b11668b","TIER2_STAKE()":"1f0c1481","TIER3_BURN()":"21a3b212","TIER3_MIN_DISTINCT_BUYERS()":"570e10ed","TIER3_MIN_QUALIFIED_SALES()":"fd56d77a","TRUSTED_BUYER_ACTIVITY_MIN()":"58fa9ce2","UPGRADE_INTERFACE_VERSION()":"ad3cb1cc","activityCount(address)":"325d917e","addStake(address,uint256)":"6374299e","agents(address)":"fd66091e","bestAnswerCount(address)":"1dd9092e","canPurchase(address)":"3e3b429a","checkAndIncrementDailyAnswer(address)":"64d1bce0","checkAndIncrementDailyQuestion(address)":"8b76de1e","checkDemotion(address)":"a81cb6e4","ckt()":"79021310","clearDebtFlag(address)":"8b38d9b1","dailyAnswerCount(address)":"0d8dbd09","dailyQuestionCount(address)":"552c182e","decrementUnreviewed(address)":"8fe80d95","deliveryConfigHash(address)":"720395a3","depositSellerBaseStake(uint256)":"0cfffbbe","disputeCount(address)":"1fecb7d6","distinctQualifiedBuyerCount(address)":"9119b8b1","explicitSellerRatingCount(address)":"f4ec82a9","explicitSellerRatingSum(address)":"dd988bab","forceDemoteToZero(address)":"341c9998","generateInviteCode(address)":"f0425be4","getAgent(address)":"fb3551ff","getAverageRating(address)":"c8b67522","getDeliveryConfig(address)":"d4509d79","getDisputeRate(address)":"3a49419f","getExplicitSellerRatingAvg(address)":"80b163af","getInviteQuota(address)":"0d632bf7","getMerchantDisputeRateBps(address)":"f21066dd","getQualifiedMerchantStats(address)":"0808d97a","getRoleAdmin(bytes32)":"248a9ca3","getTier(address)":"b45aae52","grantRole(bytes32,address)":"2f2ff15d","hasRole(bytes32,address)":"91d14854","hasSellerBaseStake(address)":"dbbd81b9","incrementUnreviewed(address)":"0a3be349","initialize(address)":"c4d66de8","inviteCodes(bytes32)":"5cb0610c","invitePeriodStart(address)":"96c50076","invitesUsedInPeriod(address)":"7165e5ca","isOpenRegistration()":"8bd4ed08","isRegistered(address)":"c3c5a547","isTrustedBuyer(address)":"ecfba343","isTrustedForwarder(address)":"572b6c05","lastAnswerResetDay(address)":"dcc2e218","lastPenaltyAt(address)":"9475670f","lastQuestionResetDay(address)":"e690249f","merchantDisputeCount(address)":"5f07db37","ownerRegistered(address)":"b862c76d","pause()":"8456cb59","paused()":"5c975abb","penaltyCount(address)":"a9330b0e","proxiableUUID()":"52d1902d","qualifiedMerchantSuccessCount(address)":"bb56d690","qualifiedPairCredited(address,address)":"54ba639c","ratingCount(address)":"2404165e","ratingSum(address)":"e8cce115","recordActivity(address,string)":"622206c2","recordBestAnswer(address)":"de652fc0","recordDispute(address)":"ba8bfc68","recordMerchantDispute(address)":"f5d25550","recordPenalty(address)":"13fb5ea7","recordQualifiedMerchantSuccess(address,address,uint256)":"ada91a17","recordRating(address,uint256)":"7f299f7c","recordTransaction(address)":"abfbd2dc","recordUndelivery(address)":"d0542f97","referralCount(address)":"db74559b","referredBy(address)":"a90f8e9a","register(string,string,bytes32)":"f5de1230","removeStake(address,uint256)":"68ce7d8a","renounceRole(bytes32,address)":"36568abe","requestTierUpgrade()":"f3fd219a","revokeRole(bytes32,address)":"d547741f","sellerBaseStakeAmount(address)":"04735eae","sellerBaseStakeLocked(address)":"78004d84","setDebtFlag(address)":"45d6f7b6","setDeliveryConfig(bytes32,string)":"a01edde6","setSellerBaseStakeLocked(address,bool)":"0d881fd7","stakedAmount(address)":"f9931855","supportsInterface(bytes4)":"01ffc9a7","totalAgents()":"c5053712","totalTransactions(address)":"6057a330","trustedForwarder()":"7da0a877","undeliveryCount(address)":"13afb41e","unpause()":"3f4ba83a","unreviewedPurchaseCount(address)":"04357cc0","upgradeToAndCall(address,bytes)":"4f1ef286","withdrawSellerBaseStake(uint256)":"24f52d3c"},"id":49}