{
  "abi": [
    {
      "inputs": [
        {
          "internalType": "address",
          "name": "",
          "type": "address"
        },
        {
          "internalType": "address",
          "name": "_salesModule",
          "type": "address"
        },
        {
          "internalType": "address",
          "name": "_deliveryModule",
          "type": "address"
        }
      ],
      "stateMutability": "nonpayable",
      "type": "constructor"
    },
    {
      "inputs": [
        {
          "internalType": "uint256",
          "name": "",
          "type": "uint256"
        }
      ],
      "name": "acceptDelivery",
      "outputs": [],
      "stateMutability": "nonpayable",
      "type": "function"
    },
    {
      "inputs": [
        {
          "internalType": "uint256",
          "name": "",
          "type": "uint256"
        },
        {
          "internalType": "uint8",
          "name": "",
          "type": "uint8"
        },
        {
          "internalType": "bytes32",
          "name": "",
          "type": "bytes32"
        }
      ],
      "name": "challengeDeliveryObjective",
      "outputs": [],
      "stateMutability": "nonpayable",
      "type": "function"
    },
    {
      "inputs": [
        {
          "internalType": "uint256",
          "name": "",
          "type": "uint256"
        },
        {
          "internalType": "bytes32",
          "name": "",
          "type": "bytes32"
        }
      ],
      "name": "challengeDeliverySubjective",
      "outputs": [],
      "stateMutability": "nonpayable",
      "type": "function"
    },
    {
      "inputs": [
        {
          "internalType": "uint256",
          "name": "",
          "type": "uint256"
        },
        {
          "internalType": "bytes",
          "name": "",
          "type": "bytes"
        },
        {
          "internalType": "bytes32",
          "name": "",
          "type": "bytes32"
        }
      ],
      "name": "deliverEncryptedKey",
      "outputs": [],
      "stateMutability": "nonpayable",
      "type": "function"
    },
    {
      "inputs": [],
      "name": "deliveryModule",
      "outputs": [
        {
          "internalType": "address",
          "name": "",
          "type": "address"
        }
      ],
      "stateMutability": "view",
      "type": "function"
    },
    {
      "inputs": [
        {
          "internalType": "uint256",
          "name": "",
          "type": "uint256"
        }
      ],
      "name": "finalizeCleanTimeout",
      "outputs": [],
      "stateMutability": "nonpayable",
      "type": "function"
    },
    {
      "inputs": [
        {
          "internalType": "uint256",
          "name": "",
          "type": "uint256"
        }
      ],
      "name": "finalizeUndelivered",
      "outputs": [],
      "stateMutability": "nonpayable",
      "type": "function"
    },
    {
      "inputs": [
        {
          "internalType": "uint256",
          "name": "",
          "type": "uint256"
        }
      ],
      "name": "getPrivateKnowledgeMeta",
      "outputs": [
        {
          "internalType": "string",
          "name": "previewURI",
          "type": "string"
        },
        {
          "internalType": "string",
          "name": "encryptedContentURI",
          "type": "string"
        },
        {
          "internalType": "bytes32",
          "name": "encryptedContentHash",
          "type": "bytes32"
        }
      ],
      "stateMutability": "nonpayable",
      "type": "function"
    },
    {
      "inputs": [
        {
          "internalType": "uint256",
          "name": "",
          "type": "uint256"
        }
      ],
      "name": "getWrappedKey",
      "outputs": [
        {
          "internalType": "bytes",
          "name": "wrappedKey",
          "type": "bytes"
        },
        {
          "internalType": "bytes32",
          "name": "wrappedKeyHash",
          "type": "bytes32"
        }
      ],
      "stateMutability": "nonpayable",
      "type": "function"
    },
    {
      "inputs": [
        {
          "internalType": "string",
          "name": "",
          "type": "string"
        },
        {
          "internalType": "string",
          "name": "",
          "type": "string"
        },
        {
          "internalType": "uint256",
          "name": "",
          "type": "uint256"
        },
        {
          "internalType": "string",
          "name": "",
          "type": "string"
        },
        {
          "internalType": "string",
          "name": "",
          "type": "string"
        },
        {
          "internalType": "bytes32",
          "name": "",
          "type": "bytes32"
        },
        {
          "internalType": "bytes32",
          "name": "",
          "type": "bytes32"
        }
      ],
      "name": "listPrivateKnowledge",
      "outputs": [
        {
          "internalType": "uint256",
          "name": "knowledgeId",
          "type": "uint256"
        }
      ],
      "stateMutability": "nonpayable",
      "type": "function"
    },
    {
      "inputs": [
        {
          "internalType": "string",
          "name": "",
          "type": "string"
        },
        {
          "internalType": "string",
          "name": "",
          "type": "string"
        },
        {
          "internalType": "uint256",
          "name": "",
          "type": "uint256"
        },
        {
          "internalType": "string",
          "name": "",
          "type": "string"
        },
        {
          "internalType": "string",
          "name": "",
          "type": "string"
        },
        {
          "internalType": "bytes32",
          "name": "",
          "type": "bytes32"
        },
        {
          "internalType": "bytes32",
          "name": "",
          "type": "bytes32"
        },
        {
          "internalType": "uint256",
          "name": "",
          "type": "uint256"
        }
      ],
      "name": "listPrivateKnowledgeWithLimit",
      "outputs": [
        {
          "internalType": "uint256",
          "name": "knowledgeId",
          "type": "uint256"
        }
      ],
      "stateMutability": "nonpayable",
      "type": "function"
    },
    {
      "inputs": [
        {
          "internalType": "string",
          "name": "",
          "type": "string"
        },
        {
          "internalType": "string",
          "name": "",
          "type": "string"
        },
        {
          "internalType": "uint256",
          "name": "",
          "type": "uint256"
        },
        {
          "internalType": "string",
          "name": "",
          "type": "string"
        },
        {
          "internalType": "string",
          "name": "",
          "type": "string"
        },
        {
          "internalType": "bytes32",
          "name": "",
          "type": "bytes32"
        }
      ],
      "name": "listPublicKnowledgeV2",
      "outputs": [
        {
          "internalType": "uint256",
          "name": "knowledgeId",
          "type": "uint256"
        }
      ],
      "stateMutability": "nonpayable",
      "type": "function"
    },
    {
      "inputs": [
        {
          "internalType": "uint256",
          "name": "",
          "type": "uint256"
        }
      ],
      "name": "purchaseKnowledgeV2",
      "outputs": [
        {
          "internalType": "uint256",
          "name": "purchaseId",
          "type": "uint256"
        }
      ],
      "stateMutability": "nonpayable",
      "type": "function"
    },
    {
      "inputs": [
        {
          "internalType": "uint256",
          "name": "",
          "type": "uint256"
        },
        {
          "internalType": "bytes",
          "name": "",
          "type": "bytes"
        },
        {
          "internalType": "bytes32",
          "name": "",
          "type": "bytes32"
        }
      ],
      "name": "redeliverEncryptedKey",
      "outputs": [],
      "stateMutability": "nonpayable",
      "type": "function"
    },
    {
      "inputs": [
        {
          "internalType": "uint256",
          "name": "",
          "type": "uint256"
        }
      ],
      "name": "reopenSales",
      "outputs": [],
      "stateMutability": "nonpayable",
      "type": "function"
    },
    {
      "inputs": [
        {
          "internalType": "uint256",
          "name": "",
          "type": "uint256"
        },
        {
          "internalType": "uint8",
          "name": "",
          "type": "uint8"
        }
      ],
      "name": "rescueRefundPrivatePurchase",
      "outputs": [],
      "stateMutability": "nonpayable",
      "type": "function"
    },
    {
      "inputs": [],
      "name": "salesModule",
      "outputs": [
        {
          "internalType": "address",
          "name": "",
          "type": "address"
        }
      ],
      "stateMutability": "view",
      "type": "function"
    },
    {
      "inputs": [
        {
          "internalType": "uint256",
          "name": "",
          "type": "uint256"
        },
        {
          "internalType": "uint256",
          "name": "",
          "type": "uint256"
        }
      ],
      "name": "setSaleLimit",
      "outputs": [],
      "stateMutability": "nonpayable",
      "type": "function"
    },
    {
      "inputs": [
        {
          "internalType": "uint256",
          "name": "",
          "type": "uint256"
        }
      ],
      "name": "stopSales",
      "outputs": [],
      "stateMutability": "nonpayable",
      "type": "function"
    }
  ],
  "bytecode": "0x60c03461012457601f61094338819003918201601f19168301916001600160401b0383118484101761012857808492606094604052833981010312610124576100478161013c565b5061006060406100596020840161013c565b920161013c565b906001600160a01b0380821615159081610118575b50156100e15760805260a0526040516107f29081610151823960805181818161029e015281816102d8015281816103110152818161041d015261068f015260a05181818161014b015281816102590152818161036f015281816104e001528181610588015261060c0152f35b60405162461bcd60e51b815260206004820152600f60248201526e4b533a207a65726f206d6f64756c6560881b6044820152606490fd5b9050821615155f610075565b5f80fd5b634e487b7160e01b5f52604160045260245ffd5b51906001600160a01b03821682036101245756fe60806040526004361015610011575f80fd5b5f3560e01c806301d7b245146101355780630ab254af1461013057806313ade1871461012b5780631479b25e146101085780631a337c961461012657806329125ebb1461011757806353c4a459146101215780635e18963b1461011c5780637b422c4c14610117578063917229121461011257806397a4bb23146100fe578063b7a17a9d1461010d578063c1d6c94114610108578063c8e9ab4a14610103578063ceea2f5a146100fe578063d468fec6146100f9578063f086075a146100f4578063f665986e146100ef5763fe7992c2146100ea575f80fd5b6105f6565b6105ac565b610572565b61054f565b6104a8565b610536565b610288565b610504565b610407565b610135565b610350565b6102fc565b6102c2565b610244565b6101a3565b346101715760203660031901126101715761016f7f0000000000000000000000000000000000000000000000000000000000000000610770565b005b5f80fd5b9181601f840112156101715782359167ffffffffffffffff8311610171576020838186019501011161017157565b346101715760e03660031901126101715767ffffffffffffffff600435818111610171576101d5903690600401610175565b5050602435818111610171576101ef903690600401610175565b505060643581811161017157610209903690600401610175565b505060843590811161017157610223903690600401610175565b505061024061023061068a565b6040519081529081906020820190565b0390f35b34610171575f366003190112610171576040517f00000000000000000000000000000000000000000000000000000000000000006001600160a01b03168152602090f35b346101715760203660031901126101715761016f7f0000000000000000000000000000000000000000000000000000000000000000610770565b346101715760403660031901126101715761016f7f0000000000000000000000000000000000000000000000000000000000000000610770565b34610171575f366003190112610171576040517f00000000000000000000000000000000000000000000000000000000000000006001600160a01b03168152602090f35b6024359060ff8216820361017157565b3461017157604036600319011261017157610369610340565b5061016f7f0000000000000000000000000000000000000000000000000000000000000000610770565b5f5b8381106103a45750505f910152565b8181015183820152602001610395565b906020916103cd81518092818552858086019101610393565b601f01601f1916010190565b939291610402906103f46040936060885260608801906103b4565b9086820360208801526103b4565b930152565b34610171576020366003190112610171576104417f0000000000000000000000000000000000000000000000000000000000000000610770565b805181016060826020830192031261017157602082015167ffffffffffffffff908181116101715782602061047892860101610753565b91604084015191821161017157610499606091602061024094870101610753565b930151604051938493846103d9565b346101715760603660031901126101715760243567ffffffffffffffff8111610171576104d9903690600401610175565b505061016f7f0000000000000000000000000000000000000000000000000000000000000000610770565b346101715760c03660031901126101715767ffffffffffffffff600435818111610171576101d5903690600401610175565b3461017157606036600319011261017157610369610340565b3461017157602036600319011261017157602061056a61068a565b604051908152f35b346101715760403660031901126101715761016f7f0000000000000000000000000000000000000000000000000000000000000000610770565b34610171576101003660031901126101715767ffffffffffffffff600435818111610171576101d5903690600401610175565b9291906104026020916040865260408601906103b4565b34610171576020366003190112610171576106307f0000000000000000000000000000000000000000000000000000000000000000610770565b805181016040826020830192031261017157602082015167ffffffffffffffff811161017157820181603f8201121561017157604091818360206106779401519101610722565b91015190610240604051928392836105df565b6106b37f0000000000000000000000000000000000000000000000000000000000000000610770565b602081805181010312610171576020015190565b634e487b7160e01b5f52604160045260245ffd5b6040519190601f01601f1916820167ffffffffffffffff81118382101761070157604052565b6106c7565b67ffffffffffffffff811161070157601f01601f191660200190565b9092919261073761073282610706565b6106db565b938185528183011161017157610751916020850190610393565b565b9080601f8301121561017157815161076d92602001610722565b90565b5f8091604051368382378036810184815203915af43d156107b4573d9061079961073283610706565b9182523d5f602084013e5b156107ac5790565b602081519101fd5b6060906107a456fea2646970667358221220e94f7af93ece34536a921a0e70103dd94d43f392c150ef24a38da0beee42d21664736f6c63430008180033",
  "storageLayout": {
    "storage": [],
    "types": null
  }
}