{"abi":[{"type":"constructor","inputs":[{"name":"trustedForwarder","type":"address","internalType":"address"}],"stateMutability":"nonpayable"},{"type":"function","name":"AUTO_REVIEW_PERIOD","inputs":[],"outputs":[{"name":"","type":"uint256","internalType":"uint256"}],"stateMutability":"view"},{"type":"function","name":"BURN_PERCENT","inputs":[],"outputs":[{"name":"","type":"uint256","internalType":"uint256"}],"stateMutability":"view"},{"type":"function","name":"BUYER_RESPONSE_DEADLINE","inputs":[],"outputs":[{"name":"","type":"uint256","internalType":"uint256"}],"stateMutability":"view"},{"type":"function","name":"DEBT_DEDUCTION_PERCENT","inputs":[],"outputs":[{"name":"","type":"uint256","internalType":"uint256"}],"stateMutability":"view"},{"type":"function","name":"DEFAULT_ADMIN_ROLE","inputs":[],"outputs":[{"name":"","type":"bytes32","internalType":"bytes32"}],"stateMutability":"view"},{"type":"function","name":"DELIVERY_DEADLINE","inputs":[],"outputs":[{"name":"","type":"uint256","internalType":"uint256"}],"stateMutability":"view"},{"type":"function","name":"FEE_PERCENT","inputs":[],"outputs":[{"name":"","type":"uint256","internalType":"uint256"}],"stateMutability":"view"},{"type":"function","name":"MAX_PRICE","inputs":[],"outputs":[{"name":"","type":"uint256","internalType":"uint256"}],"stateMutability":"view"},{"type":"function","name":"MAX_WRAPPED_KEY_BYTES","inputs":[],"outputs":[{"name":"","type":"uint256","internalType":"uint256"}],"stateMutability":"view"},{"type":"function","name":"MIN_PRICE","inputs":[],"outputs":[{"name":"","type":"uint256","internalType":"uint256"}],"stateMutability":"view"},{"type":"function","name":"OBJECTIVE_REASON_EMPTY_WRAPPED_KEY","inputs":[],"outputs":[{"name":"","type":"uint8","internalType":"uint8"}],"stateMutability":"view"},{"type":"function","name":"OBJECTIVE_REASON_OVERSIZED_WRAPPED_KEY","inputs":[],"outputs":[{"name":"","type":"uint8","internalType":"uint8"}],"stateMutability":"view"},{"type":"function","name":"OWNER_PERCENT","inputs":[],"outputs":[{"name":"","type":"uint256","internalType":"uint256"}],"stateMutability":"view"},{"type":"function","name":"PROTOCOL_ROLE","inputs":[],"outputs":[{"name":"","type":"bytes32","internalType":"bytes32"}],"stateMutability":"view"},{"type":"function","name":"SLASH_PERCENT","inputs":[],"outputs":[{"name":"","type":"uint256","internalType":"uint256"}],"stateMutability":"view"},{"type":"function","name":"STAKE_PERCENT","inputs":[],"outputs":[{"name":"","type":"uint256","internalType":"uint256"}],"stateMutability":"view"},{"type":"function","name":"UPGRADE_INTERFACE_VERSION","inputs":[],"outputs":[{"name":"","type":"string","internalType":"string"}],"stateMutability":"view"},{"type":"function","name":"acceptDelivery","inputs":[{"name":"purchaseId","type":"uint256","internalType":"uint256"}],"outputs":[],"stateMutability":"nonpayable"},{"type":"function","name":"buyerBondAmount","inputs":[{"name":"","type":"uint256","internalType":"uint256"}],"outputs":[{"name":"","type":"uint256","internalType":"uint256"}],"stateMutability":"view"},{"type":"function","name":"buyerBondForfeited","inputs":[{"name":"","type":"uint256","internalType":"uint256"}],"outputs":[{"name":"","type":"bool","internalType":"bool"}],"stateMutability":"view"},{"type":"function","name":"buyerPurchases","inputs":[{"name":"","type":"bytes32","internalType":"bytes32"}],"outputs":[{"name":"","type":"uint256","internalType":"uint256"}],"stateMutability":"view"},{"type":"function","name":"challengeDeliveryObjective","inputs":[{"name":"purchaseId","type":"uint256","internalType":"uint256"},{"name":"reasonCode","type":"uint8","internalType":"uint8"},{"name":"evidenceHash","type":"bytes32","internalType":"bytes32"}],"outputs":[],"stateMutability":"nonpayable"},{"type":"function","name":"challengeDeliverySubjective","inputs":[{"name":"purchaseId","type":"uint256","internalType":"uint256"},{"name":"evidenceHash","type":"bytes32","internalType":"bytes32"}],"outputs":[],"stateMutability":"nonpayable"},{"type":"function","name":"challengedAt","inputs":[{"name":"","type":"uint256","internalType":"uint256"}],"outputs":[{"name":"","type":"uint64","internalType":"uint64"}],"stateMutability":"view"},{"type":"function","name":"ciphertextHash","inputs":[{"name":"","type":"uint256","internalType":"uint256"}],"outputs":[{"name":"","type":"bytes32","internalType":"bytes32"}],"stateMutability":"view"},{"type":"function","name":"ckt","inputs":[],"outputs":[{"name":"","type":"address","internalType":"contract CKT"}],"stateMutability":"view"},{"type":"function","name":"claimUndelivered","inputs":[{"name":"purchaseId","type":"uint256","internalType":"uint256"}],"outputs":[],"stateMutability":"nonpayable"},{"type":"function","name":"contentHashExists","inputs":[{"name":"","type":"bytes32","internalType":"bytes32"}],"outputs":[{"name":"","type":"bool","internalType":"bool"}],"stateMutability":"view"},{"type":"function","name":"creditApplied","inputs":[{"name":"","type":"uint256","internalType":"uint256"}],"outputs":[{"name":"","type":"bool","internalType":"bool"}],"stateMutability":"view"},{"type":"function","name":"deactivate","inputs":[{"name":"knowledgeId","type":"uint256","internalType":"uint256"}],"outputs":[],"stateMutability":"nonpayable"},{"type":"function","name":"deliverEncryptedKey","inputs":[{"name":"purchaseId","type":"uint256","internalType":"uint256"},{"name":"wrappedKey","type":"bytes","internalType":"bytes"},{"name":"wrappedKeyHash","type":"bytes32","internalType":"bytes32"}],"outputs":[],"stateMutability":"nonpayable"},{"type":"function","name":"deliverKey","inputs":[{"name":"purchaseId","type":"uint256","internalType":"uint256"}],"outputs":[],"stateMutability":"nonpayable"},{"type":"function","name":"deliveredAt","inputs":[{"name":"","type":"uint256","internalType":"uint256"}],"outputs":[{"name":"","type":"uint64","internalType":"uint64"}],"stateMutability":"view"},{"type":"function","name":"deliveryAttemptCount","inputs":[{"name":"","type":"uint256","internalType":"uint256"}],"outputs":[{"name":"","type":"uint8","internalType":"uint8"}],"stateMutability":"view"},{"type":"function","name":"deliveryState","inputs":[{"name":"","type":"uint256","internalType":"uint256"}],"outputs":[{"name":"","type":"uint8","internalType":"enum KnowledgeStore.DeliveryState"}],"stateMutability":"view"},{"type":"function","name":"explicitReviewSubmitted","inputs":[{"name":"","type":"uint256","internalType":"uint256"}],"outputs":[{"name":"","type":"bool","internalType":"bool"}],"stateMutability":"view"},{"type":"function","name":"explicitSellerScoreByPurchase","inputs":[{"name":"","type":"uint256","internalType":"uint256"}],"outputs":[{"name":"","type":"uint256","internalType":"uint256"}],"stateMutability":"view"},{"type":"function","name":"feeRecipient","inputs":[],"outputs":[{"name":"","type":"address","internalType":"address"}],"stateMutability":"view"},{"type":"function","name":"finalizeCleanTimeout","inputs":[{"name":"purchaseId","type":"uint256","internalType":"uint256"}],"outputs":[],"stateMutability":"nonpayable"},{"type":"function","name":"finalizeUndelivered","inputs":[{"name":"purchaseId","type":"uint256","internalType":"uint256"}],"outputs":[],"stateMutability":"nonpayable"},{"type":"function","name":"forceDeactivateAndBurnStake","inputs":[{"name":"knowledgeId","type":"uint256","internalType":"uint256"}],"outputs":[],"stateMutability":"nonpayable"},{"type":"function","name":"getKnowledge","inputs":[{"name":"id","type":"uint256","internalType":"uint256"}],"outputs":[{"name":"","type":"tuple","internalType":"struct KnowledgeStore.Knowledge","components":[{"name":"seller","type":"address","internalType":"address"},{"name":"title","type":"string","internalType":"string"},{"name":"tags","type":"string","internalType":"string"},{"name":"price","type":"uint256","internalType":"uint256"},{"name":"ipfsCID","type":"string","internalType":"string"},{"name":"contentHash","type":"bytes32","internalType":"bytes32"},{"name":"stakeAmount","type":"uint256","internalType":"uint256"},{"name":"active","type":"bool","internalType":"bool"},{"name":"listedAt","type":"uint256","internalType":"uint256"},{"name":"salesCount","type":"uint256","internalType":"uint256"},{"name":"pendingDeliveries","type":"uint256","internalType":"uint256"}]}],"stateMutability":"view"},{"type":"function","name":"getPrivateKnowledgeMeta","inputs":[{"name":"knowledgeId","type":"uint256","internalType":"uint256"}],"outputs":[{"name":"mode","type":"uint8","internalType":"enum KnowledgeStore.KnowledgeMode"},{"name":"previewURI","type":"string","internalType":"string"},{"name":"encryptedURI","type":"string","internalType":"string"},{"name":"encryptedHash","type":"bytes32","internalType":"bytes32"}],"stateMutability":"view"},{"type":"function","name":"getPurchase","inputs":[{"name":"id","type":"uint256","internalType":"uint256"}],"outputs":[{"name":"","type":"tuple","internalType":"struct KnowledgeStore.Purchase","components":[{"name":"buyer","type":"address","internalType":"address"},{"name":"knowledgeId","type":"uint256","internalType":"uint256"},{"name":"paidAmount","type":"uint256","internalType":"uint256"},{"name":"purchasedAt","type":"uint256","internalType":"uint256"},{"name":"delivered","type":"bool","internalType":"bool"},{"name":"reviewed","type":"bool","internalType":"bool"}]}],"stateMutability":"view"},{"type":"function","name":"getPurchaseDeliveryState","inputs":[{"name":"purchaseId","type":"uint256","internalType":"uint256"}],"outputs":[{"name":"state","type":"uint8","internalType":"enum KnowledgeStore.DeliveryState"},{"name":"attemptCount","type":"uint8","internalType":"uint8"},{"name":"snapshotHash","type":"bytes32","internalType":"bytes32"},{"name":"bondAmount","type":"uint256","internalType":"uint256"},{"name":"credited","type":"bool","internalType":"bool"}],"stateMutability":"view"},{"type":"function","name":"getRoleAdmin","inputs":[{"name":"role","type":"bytes32","internalType":"bytes32"}],"outputs":[{"name":"","type":"bytes32","internalType":"bytes32"}],"stateMutability":"view"},{"type":"function","name":"getWrappedKey","inputs":[{"name":"purchaseId","type":"uint256","internalType":"uint256"}],"outputs":[{"name":"","type":"bytes","internalType":"bytes"}],"stateMutability":"view"},{"type":"function","name":"grantRole","inputs":[{"name":"role","type":"bytes32","internalType":"bytes32"},{"name":"account","type":"address","internalType":"address"}],"outputs":[],"stateMutability":"nonpayable"},{"type":"function","name":"hasRole","inputs":[{"name":"role","type":"bytes32","internalType":"bytes32"},{"name":"account","type":"address","internalType":"address"}],"outputs":[{"name":"","type":"bool","internalType":"bool"}],"stateMutability":"view"},{"type":"function","name":"initialize","inputs":[{"name":"_ckt","type":"address","internalType":"address"},{"name":"_registry","type":"address","internalType":"address"},{"name":"_feeRecipient","type":"address","internalType":"address"}],"outputs":[],"stateMutability":"nonpayable"},{"type":"function","name":"isTrustedForwarder","inputs":[{"name":"forwarder","type":"address","internalType":"address"}],"outputs":[{"name":"","type":"bool","internalType":"bool"}],"stateMutability":"view"},{"type":"function","name":"knowledgeItems","inputs":[{"name":"","type":"uint256","internalType":"uint256"}],"outputs":[{"name":"seller","type":"address","internalType":"address"},{"name":"title","type":"string","internalType":"string"},{"name":"tags","type":"string","internalType":"string"},{"name":"price","type":"uint256","internalType":"uint256"},{"name":"ipfsCID","type":"string","internalType":"string"},{"name":"contentHash","type":"bytes32","internalType":"bytes32"},{"name":"stakeAmount","type":"uint256","internalType":"uint256"},{"name":"active","type":"bool","internalType":"bool"},{"name":"listedAt","type":"uint256","internalType":"uint256"},{"name":"salesCount","type":"uint256","internalType":"uint256"},{"name":"pendingDeliveries","type":"uint256","internalType":"uint256"}],"stateMutability":"view"},{"type":"function","name":"knowledgeMode","inputs":[{"name":"","type":"uint256","internalType":"uint256"}],"outputs":[{"name":"","type":"uint8","internalType":"enum KnowledgeStore.KnowledgeMode"}],"stateMutability":"view"},{"type":"function","name":"list","inputs":[{"name":"title","type":"string","internalType":"string"},{"name":"tags","type":"string","internalType":"string"},{"name":"price","type":"uint256","internalType":"uint256"},{"name":"ipfsCID","type":"string","internalType":"string"},{"name":"contentHash","type":"bytes32","internalType":"bytes32"}],"outputs":[{"name":"knowledgeId","type":"uint256","internalType":"uint256"}],"stateMutability":"nonpayable"},{"type":"function","name":"listPrivateKnowledge","inputs":[{"name":"title","type":"string","internalType":"string"},{"name":"tags","type":"string","internalType":"string"},{"name":"price","type":"uint256","internalType":"uint256"},{"name":"previewURI","type":"string","internalType":"string"},{"name":"encryptedContentURI","type":"string","internalType":"string"},{"name":"encryptedContentHash","type":"bytes32","internalType":"bytes32"},{"name":"contentHash","type":"bytes32","internalType":"bytes32"}],"outputs":[{"name":"knowledgeId","type":"uint256","internalType":"uint256"}],"stateMutability":"nonpayable"},{"type":"function","name":"listPublicKnowledgeV2","inputs":[{"name":"title","type":"string","internalType":"string"},{"name":"tags","type":"string","internalType":"string"},{"name":"price","type":"uint256","internalType":"uint256"},{"name":"previewURI","type":"string","internalType":"string"},{"name":"publicContentURI","type":"string","internalType":"string"},{"name":"contentHash","type":"bytes32","internalType":"bytes32"}],"outputs":[{"name":"knowledgeId","type":"uint256","internalType":"uint256"}],"stateMutability":"nonpayable"},{"type":"function","name":"nextKnowledgeId","inputs":[],"outputs":[{"name":"","type":"uint256","internalType":"uint256"}],"stateMutability":"view"},{"type":"function","name":"nextPurchaseId","inputs":[],"outputs":[{"name":"","type":"uint256","internalType":"uint256"}],"stateMutability":"view"},{"type":"function","name":"pause","inputs":[],"outputs":[],"stateMutability":"nonpayable"},{"type":"function","name":"paused","inputs":[],"outputs":[{"name":"","type":"bool","internalType":"bool"}],"stateMutability":"view"},{"type":"function","name":"payoutReleased","inputs":[{"name":"","type":"uint256","internalType":"uint256"}],"outputs":[{"name":"","type":"bool","internalType":"bool"}],"stateMutability":"view"},{"type":"function","name":"proxiableUUID","inputs":[],"outputs":[{"name":"","type":"bytes32","internalType":"bytes32"}],"stateMutability":"view"},{"type":"function","name":"purchase","inputs":[{"name":"knowledgeId","type":"uint256","internalType":"uint256"}],"outputs":[{"name":"purchaseId","type":"uint256","internalType":"uint256"}],"stateMutability":"nonpayable"},{"type":"function","name":"purchaseDeliveryConfigSnapshot","inputs":[{"name":"","type":"uint256","internalType":"uint256"}],"outputs":[{"name":"","type":"bytes32","internalType":"bytes32"}],"stateMutability":"view"},{"type":"function","name":"purchaseKnowledgeV2","inputs":[{"name":"knowledgeId","type":"uint256","internalType":"uint256"}],"outputs":[{"name":"purchaseId","type":"uint256","internalType":"uint256"}],"stateMutability":"nonpayable"},{"type":"function","name":"purchases","inputs":[{"name":"","type":"uint256","internalType":"uint256"}],"outputs":[{"name":"buyer","type":"address","internalType":"address"},{"name":"knowledgeId","type":"uint256","internalType":"uint256"},{"name":"paidAmount","type":"uint256","internalType":"uint256"},{"name":"purchasedAt","type":"uint256","internalType":"uint256"},{"name":"delivered","type":"bool","internalType":"bool"},{"name":"reviewed","type":"bool","internalType":"bool"}],"stateMutability":"view"},{"type":"function","name":"redeliverEncryptedKey","inputs":[{"name":"purchaseId","type":"uint256","internalType":"uint256"},{"name":"wrappedKey","type":"bytes","internalType":"bytes"},{"name":"wrappedKeyHash","type":"bytes32","internalType":"bytes32"}],"outputs":[],"stateMutability":"nonpayable"},{"type":"function","name":"redeliveredAt","inputs":[{"name":"","type":"uint256","internalType":"uint256"}],"outputs":[{"name":"","type":"uint64","internalType":"uint64"}],"stateMutability":"view"},{"type":"function","name":"refundReleased","inputs":[{"name":"","type":"uint256","internalType":"uint256"}],"outputs":[{"name":"","type":"bool","internalType":"bool"}],"stateMutability":"view"},{"type":"function","name":"registry","inputs":[],"outputs":[{"name":"","type":"address","internalType":"contract AgentRegistry"}],"stateMutability":"view"},{"type":"function","name":"renounceRole","inputs":[{"name":"role","type":"bytes32","internalType":"bytes32"},{"name":"callerConfirmation","type":"address","internalType":"address"}],"outputs":[],"stateMutability":"nonpayable"},{"type":"function","name":"reputationContract","inputs":[],"outputs":[{"name":"","type":"address","internalType":"address"}],"stateMutability":"view"},{"type":"function","name":"review","inputs":[{"name":"purchaseId","type":"uint256","internalType":"uint256"},{"name":"productScore","type":"uint256","internalType":"uint256"},{"name":"sellerScore","type":"uint256","internalType":"uint256"}],"outputs":[],"stateMutability":"nonpayable"},{"type":"function","name":"revokeRole","inputs":[{"name":"role","type":"bytes32","internalType":"bytes32"},{"name":"account","type":"address","internalType":"address"}],"outputs":[],"stateMutability":"nonpayable"},{"type":"function","name":"setFeeRecipient","inputs":[{"name":"r","type":"address","internalType":"address"}],"outputs":[],"stateMutability":"nonpayable"},{"type":"function","name":"setReputationContract","inputs":[{"name":"r","type":"address","internalType":"address"}],"outputs":[],"stateMutability":"nonpayable"},{"type":"function","name":"setTempoReward","inputs":[{"name":"_tempo","type":"address","internalType":"address"}],"outputs":[],"stateMutability":"nonpayable"},{"type":"function","name":"supportsInterface","inputs":[{"name":"interfaceId","type":"bytes4","internalType":"bytes4"}],"outputs":[{"name":"","type":"bool","internalType":"bool"}],"stateMutability":"view"},{"type":"function","name":"tempoReward","inputs":[],"outputs":[{"name":"","type":"address","internalType":"contract TempoReward"}],"stateMutability":"view"},{"type":"function","name":"triggerAutoReview","inputs":[{"name":"purchaseId","type":"uint256","internalType":"uint256"}],"outputs":[],"stateMutability":"nonpayable"},{"type":"function","name":"trustedForwarder","inputs":[],"outputs":[{"name":"","type":"address","internalType":"address"}],"stateMutability":"view"},{"type":"function","name":"unpause","inputs":[],"outputs":[],"stateMutability":"nonpayable"},{"type":"function","name":"upgradeToAndCall","inputs":[{"name":"newImplementation","type":"address","internalType":"address"},{"name":"data","type":"bytes","internalType":"bytes"}],"outputs":[],"stateMutability":"payable"},{"type":"function","name":"wrappedKeyHashByPurchase","inputs":[{"name":"","type":"uint256","internalType":"uint256"}],"outputs":[{"name":"","type":"bytes32","internalType":"bytes32"}],"stateMutability":"view"},{"type":"event","name":"AutoReviewApplied","inputs":[{"name":"purchaseId","type":"uint256","indexed":true,"internalType":"uint256"}],"anonymous":false},{"type":"event","name":"BuyerBondForfeited","inputs":[{"name":"purchaseId","type":"uint256","indexed":true,"internalType":"uint256"},{"name":"amount","type":"uint256","indexed":false,"internalType":"uint256"}],"anonymous":false},{"type":"event","name":"DebtDeducted","inputs":[{"name":"seller","type":"address","indexed":true,"internalType":"address"},{"name":"amount","type":"uint256","indexed":false,"internalType":"uint256"}],"anonymous":false},{"type":"event","name":"DeliveryAccepted","inputs":[{"name":"purchaseId","type":"uint256","indexed":true,"internalType":"uint256"},{"name":"buyer","type":"address","indexed":true,"internalType":"address"}],"anonymous":false},{"type":"event","name":"DeliveryChallenged","inputs":[{"name":"purchaseId","type":"uint256","indexed":true,"internalType":"uint256"},{"name":"buyer","type":"address","indexed":true,"internalType":"address"},{"name":"objective","type":"bool","indexed":false,"internalType":"bool"},{"name":"reasonCode","type":"uint8","indexed":false,"internalType":"uint8"},{"name":"evidenceHash","type":"bytes32","indexed":false,"internalType":"bytes32"}],"anonymous":false},{"type":"event","name":"DeliveryCleanFinalized","inputs":[{"name":"purchaseId","type":"uint256","indexed":true,"internalType":"uint256"},{"name":"buyerBondForfeited","type":"bool","indexed":false,"internalType":"bool"}],"anonymous":false},{"type":"event","name":"DeliveryInvalidFinalized","inputs":[{"name":"purchaseId","type":"uint256","indexed":true,"internalType":"uint256"},{"name":"reasonCode","type":"uint8","indexed":false,"internalType":"uint8"}],"anonymous":false},{"type":"event","name":"DeliveryUndeliveredFinalized","inputs":[{"name":"purchaseId","type":"uint256","indexed":true,"internalType":"uint256"}],"anonymous":false},{"type":"event","name":"EncryptedKeyDelivered","inputs":[{"name":"purchaseId","type":"uint256","indexed":true,"internalType":"uint256"},{"name":"seller","type":"address","indexed":true,"internalType":"address"},{"name":"wrappedKeyHash","type":"bytes32","indexed":false,"internalType":"bytes32"},{"name":"attempt","type":"uint8","indexed":false,"internalType":"uint8"}],"anonymous":false},{"type":"event","name":"EncryptedKeyRedelivered","inputs":[{"name":"purchaseId","type":"uint256","indexed":true,"internalType":"uint256"},{"name":"seller","type":"address","indexed":true,"internalType":"address"},{"name":"wrappedKeyHash","type":"bytes32","indexed":false,"internalType":"bytes32"},{"name":"attempt","type":"uint8","indexed":false,"internalType":"uint8"}],"anonymous":false},{"type":"event","name":"Initialized","inputs":[{"name":"version","type":"uint64","indexed":false,"internalType":"uint64"}],"anonymous":false},{"type":"event","name":"KnowledgeDeactivated","inputs":[{"name":"id","type":"uint256","indexed":true,"internalType":"uint256"}],"anonymous":false},{"type":"event","name":"KnowledgeDelivered","inputs":[{"name":"purchaseId","type":"uint256","indexed":true,"internalType":"uint256"},{"name":"seller","type":"address","indexed":true,"internalType":"address"}],"anonymous":false},{"type":"event","name":"KnowledgeListed","inputs":[{"name":"id","type":"uint256","indexed":true,"internalType":"uint256"},{"name":"seller","type":"address","indexed":true,"internalType":"address"},{"name":"title","type":"string","indexed":false,"internalType":"string"},{"name":"price","type":"uint256","indexed":false,"internalType":"uint256"},{"name":"tags","type":"string","indexed":false,"internalType":"string"}],"anonymous":false},{"type":"event","name":"KnowledgeListedV2","inputs":[{"name":"knowledgeId","type":"uint256","indexed":true,"internalType":"uint256"},{"name":"seller","type":"address","indexed":true,"internalType":"address"},{"name":"mode","type":"uint8","indexed":false,"internalType":"uint8"},{"name":"price","type":"uint256","indexed":false,"internalType":"uint256"}],"anonymous":false},{"type":"event","name":"KnowledgePurchased","inputs":[{"name":"purchaseId","type":"uint256","indexed":true,"internalType":"uint256"},{"name":"knowledgeId","type":"uint256","indexed":true,"internalType":"uint256"},{"name":"buyer","type":"address","indexed":true,"internalType":"address"},{"name":"price","type":"uint256","indexed":false,"internalType":"uint256"}],"anonymous":false},{"type":"event","name":"KnowledgeReviewed","inputs":[{"name":"purchaseId","type":"uint256","indexed":true,"internalType":"uint256"},{"name":"productScore","type":"uint256","indexed":false,"internalType":"uint256"},{"name":"sellerScore","type":"uint256","indexed":false,"internalType":"uint256"}],"anonymous":false},{"type":"event","name":"Paused","inputs":[{"name":"account","type":"address","indexed":false,"internalType":"address"}],"anonymous":false},{"type":"event","name":"PrivateKnowledgePurchased","inputs":[{"name":"purchaseId","type":"uint256","indexed":true,"internalType":"uint256"},{"name":"knowledgeId","type":"uint256","indexed":true,"internalType":"uint256"},{"name":"buyer","type":"address","indexed":true,"internalType":"address"},{"name":"buyerBond","type":"uint256","indexed":false,"internalType":"uint256"}],"anonymous":false},{"type":"event","name":"QualifiedMerchantCreditApplied","inputs":[{"name":"purchaseId","type":"uint256","indexed":true,"internalType":"uint256"},{"name":"seller","type":"address","indexed":true,"internalType":"address"},{"name":"buyer","type":"address","indexed":true,"internalType":"address"},{"name":"sellerScore","type":"uint256","indexed":false,"internalType":"uint256"},{"name":"tempoCredited","type":"bool","indexed":false,"internalType":"bool"}],"anonymous":false},{"type":"event","name":"RoleAdminChanged","inputs":[{"name":"role","type":"bytes32","indexed":true,"internalType":"bytes32"},{"name":"previousAdminRole","type":"bytes32","indexed":true,"internalType":"bytes32"},{"name":"newAdminRole","type":"bytes32","indexed":true,"internalType":"bytes32"}],"anonymous":false},{"type":"event","name":"RoleGranted","inputs":[{"name":"role","type":"bytes32","indexed":true,"internalType":"bytes32"},{"name":"account","type":"address","indexed":true,"internalType":"address"},{"name":"sender","type":"address","indexed":true,"internalType":"address"}],"anonymous":false},{"type":"event","name":"RoleRevoked","inputs":[{"name":"role","type":"bytes32","indexed":true,"internalType":"bytes32"},{"name":"account","type":"address","indexed":true,"internalType":"address"},{"name":"sender","type":"address","indexed":true,"internalType":"address"}],"anonymous":false},{"type":"event","name":"StakeSlashed","inputs":[{"name":"knowledgeId","type":"uint256","indexed":true,"internalType":"uint256"},{"name":"seller","type":"address","indexed":true,"internalType":"address"},{"name":"slashedAmount","type":"uint256","indexed":false,"internalType":"uint256"}],"anonymous":false},{"type":"event","name":"Unpaused","inputs":[{"name":"account","type":"address","indexed":false,"internalType":"address"}],"anonymous":false},{"type":"event","name":"Upgraded","inputs":[{"name":"implementation","type":"address","indexed":true,"internalType":"address"}],"anonymous":false},{"type":"error","name":"AccessControlBadConfirmation","inputs":[]},{"type":"error","name":"AccessControlUnauthorizedAccount","inputs":[{"name":"account","type":"address","internalType":"address"},{"name":"neededRole","type":"bytes32","internalType":"bytes32"}]},{"type":"error","name":"AddressEmptyCode","inputs":[{"name":"target","type":"address","internalType":"address"}]},{"type":"error","name":"ERC1967InvalidImplementation","inputs":[{"name":"implementation","type":"address","internalType":"address"}]},{"type":"error","name":"ERC1967NonPayable","inputs":[]},{"type":"error","name":"EnforcedPause","inputs":[]},{"type":"error","name":"ExpectedPause","inputs":[]},{"type":"error","name":"FailedCall","inputs":[]},{"type":"error","name":"InvalidInitialization","inputs":[]},{"type":"error","name":"NotInitializing","inputs":[]},{"type":"error","name":"ReentrancyGuardReentrantCall","inputs":[]},{"type":"error","name":"UUPSUnauthorizedCallContext","inputs":[]},{"type":"error","name":"UUPSUnsupportedProxiableUUID","inputs":[{"name":"slot","type":"bytes32","internalType":"bytes32"}]}],"bytecode":{"object":"0x60c0346200014c576001600160401b0390601f62008d2d38819003918201601f19168301918483118484101762000150578084926020946040528339810103126200014c57516001600160a01b03811681036200014c5760017f9b779b17422d0df92223018b32b4d1fa46e071723d6817e2486d003becc55f00553060805260a0527ff0c57e16840df040f15088dc2f81fe391c3923bec73e23a9662efc9c229c6a009081549060ff8260401c166200013a578080831603620000f4575b604051618bc89081620001658239608051818181614d9c0152614e55015260a05181818161476f01528181614b0f01526189b70152f35b6001600160401b031990911681179091556040519081527fc7f505b2f371ae2175ee4913f4499e1f2633a7b5936321eed1cdaeb6115181d290602090a15f8080620000bd565b60405163f92ee8a960e01b8152600490fd5b5f80fd5b634e487b7160e01b5f52604160045260245ffdfe6080806040526004361015610012575f80fd5b5f905f3560e01c90816301c11d9614616bba5750806301d7b245146169ad57806301ffc9a71461695657806302768de41461691b57806302b9bc63146168f15780630ab254af14615d185780630e32703014615cfa5780630fc1845414615cdd5780631018c5f914615bf657806316b5219e14615bd85780631b32008f14615b985780631f17559414615b695780632128a4bc14615b3f57806323b4a7a314615b21578063248a9ca314615ae857806328e7b2a61461592857806329125ebb146156c65780632be67c4f146156aa5780632c1271c31461568e5780632e1371bd1461568e5780632f2ff15d14615644578063310f13711461562657806336568abe146155895780633742a9f7146154b357806339d006cb1461548a5780633b0ecb61146154605780633f4ba83a146153eb57806342ad6930146151f857806346904840146151cf5780634a0449321461519c5780634d20372e14614ff45780634f1ef28614614e0657806352d1902d14614d895780635689cbba14614b43578063572b6c0514614aee5780635c975abb14614abf5780635cb8451814614a485780635f7668ce14614a1957806361c2649e146149fd5780637021f1a3146149ce57806375e1cf241461499f57806377c50e9d1461497057806379021310146149495780637b103999146149205780637b422c4c1461479e5780637da0a877146147595780637e92b854146147275780638392fe31146146b65780638456cb591461463d57806387bc1425146146145780638c5b2293146145e75780638ddad6ac146140a3578063916b9bef14613ea95780639172291214613e1b57806391d1485414613dc5578063927f9c9914613d9257806393407b1f14613d745780639584660f14613d3457806397a4bb2314613be357806399dc865414613baf5780639c98676414613b93578063a07dcd46146131d9578063a217fddf146131bd578063a4ede5eb146108c6578063a8ad0daa1461318e578063ac8919c914613164578063ad3cb1cc1461311e578063ad9f20a6146130fb578063b7a17a9d146124c5578063c0c53b8b146122e2578063c8e9ab4a14612040578063ceea2f5a14611e43578063d11ac98814611e10578063d468fec6146113a2578063d547741f14611354578063e74b981b146112cf578063eaf98d23146112b3578063efef39a114610a63578063f086075a146108f5578063f5c0b48c146108cb578063f6e8913d146108c6578063fc4126df14610556578063fe7992c2146103e65763fece90f5146103ba575f80fd5b346103e35760203660031901126103e35760406020916004358152601183522054604051908152f35b80fd5b50346103e3576020806003193601126105525760043580835260088252604083209060019160018101548552600684526040852061042261898c565b91546001600160a01b0392831690831614918215610539575b5050156105025783526010825260408320906040519384918184549461046086616c09565b95868652876001821691825f146104de5750506001146104a2575b50505061048a92500383616ca6565b61049e604051928284938452830190616d8a565b0390f35b869350819291528282205b8583106104c657505061048a93508201015f808061047b565b805483890185015287945086939092019181016104ad565b93509450505061048a94915060ff191682840152151560051b8201015f808061047b565b60405162461bcd60e51b815260048101849052600f60248201526e12d4ce881b9bdd08185b1b1bddd959608a1b6044820152606490fd5b8091925061054561898c565b9254169116145f8061043b565b5080fd5b50346103e3576020806003193601126105525760043590610575617553565b61057d617582565b8183526008815260408320906001820154845260068152604084209060026105a361898c565b83546001600160a01b0395916105be9187169087161461712e565b60048101600181546105d360ff821615616f64565b60ff1916179055600a84016105e88154616fa0565b90550154918360015416868560246105fe61898c565b604051948593849263fb3551ff60e01b84521660048301525afa80156108bb5760e0918891610899575b500151151580610890575b610795575b82610706575b50505082816001541661064f61898c565b813b156106f7578360848492836040519586948593633111036160e11b85521660048401526040602484015260076044840152663232b634bb32b960c91b60648401525af180156106fb576106e3575b50506106a961898c565b16907fa2731d2dafbcc471ba9d8d60761310fc8a6ea5c93bd6d70b077f888f2b6050748380a360015f80516020618b738339815191525580f35b6106ec90616c41565b6106f757825f61069f565b8280fd5b6040513d84823e3d90fd5b8554905460405163a9059cbb60e01b81529085166001600160a01b0316600482015260248101939093528190839085168188816044810103925af1801561078a57610752575b8061063e565b81813d8311610783575b6107668183616ca6565b8101031261077f5761077790616fac565b505f8061074c565b8380fd5b503d61075c565b6040513d87823e3d90fd5b603283028381046032148415171561087c5760646107b591048094617546565b865460035460405163a9059cbb60e01b81529087166001600160a01b031660048201526024810186905291949190849082908816818b816044810103925af1801561087157610839575b507ff5f01754584f438c12bcb34b8c17451066251095c28d277f3966dca00bf054a1838661082b61898c565b1692604051908152a2610638565b8381813d831161086a575b61084e8183616ca6565b810103126108665761085f90616fac565b505f6107ff565b8780fd5b503d610844565b6040513d8a823e3d90fd5b634e487b7160e01b87526011600452602487fd5b50821515610633565b6108b591503d808a833e6108ad8183616ca6565b81019061704d565b5f610628565b6040513d89823e3d90fd5b616e7d565b50346103e35760203660031901126103e35760406020916004358152601983522054604051908152f35b50346103e35760403660031901126103e357600435610912617553565b61091a617582565b808252602090600882526040832061094961093361898c565b91546001600160a01b0392831690831614616f28565b8184526013835260ff6040852054166009811015610a4f57600261096d9114616ff3565b818452601583526001600160401b0380604086205416610a11577f327d9ab8b3ef21fec285efb953712a02a97c4ce0eb330c06d179d1fec368a8c9916060918487526013865260408720600360ff1982541617905584875260158652604087209042166001600160401b03198254161790556109e761898c565b169385604051918183528201526024356040820152a360015f80516020618b738339815191525580f35b60405162461bcd60e51b815260048101859052601660248201527512d4ce88185b1c9958591e4818da185b1b195b99d95960521b6044820152606490fd5b634e487b7160e01b85526021600452602485fd5b50346103e35760203660031901126103e357610a7d617553565b610a85617582565b6004358152600660205260408120610aa360ff60078301541661716b565b6001546001600160a01b0316610ab761898c565b60405163c3c5a54760e01b81526001600160a01b039091166004820152602081602481855afa801561104e578490611278575b610af491506171e9565b610b15610aff61898c565b83546001600160a01b0391821691161415617428565b6020610b1f61898c565b604051631f1da14d60e11b81526001600160a01b03909116600482015291829060249082905afa801561108157839061123d575b610b5d9150617468565b6004546001600160a01b0316806111b3575b5081546001600160a01b031690610b8461898c565b6040516370a0823160e01b81526001600160a01b039091166004820152602081602481865afa90811561104e57849161117d575b50610bca600383015480921015617503565b83610c34610bd661898c565b60405160609190911b6bffffffffffffffffffffffff191660208201908152600435603483015290610c1581605481015b03601f198101835282616ca6565b519020928383526009602052610c2f6040842054156174bf565b61807b565b9591610c4193919361898c565b6040516323b872dd60e01b8082526001600160a01b039290921660048201523060248201526044810183905290936020908290606490829087905af1801561108157611144575b5081546001600160a01b031690813b156106f7578291602483926040519485938492630852cd8d60e31b845260048401525af180156106fb57611130575b50508554610d1c926020916001600160a01b0316610ce261898c565b6003546040518681526001600160a01b039283166004820152911660248201526044810192909252909384919082908a9082906064820190565b03925af19182156111255785926110dd575b508554610d7d9260209290916001600160a01b03169088610d4d61898c565b6040519283526001600160a01b031660048301523060248301526044820193909352938492839182906064820190565b03925af1801561078a576110a0575b50610e53610d9b6007546173ab565b9384600755610da861898c565b60405190610db582616c70565b60018060a01b03168152610e3c6004602083019281358452604081019485526060810142815260808201958b875260a08301958c87528b8d52600860205260408d209360018060a01b039051166001600160601b0360a01b8554161784555160018401555160028301555160038201550192511515839060ff801983541691151516179055565b51815461ff00191690151560081b61ff0016179055565b8352600960205281604084205560098101610e6e81546173ab565b9055600a8101610e7e81546173ab565b905560015483906001600160a01b0316610e9661898c565b813b156106f757604051630a3be34960e01b81526001600160a01b0390911660048201529082908290602490829084905af180156106fb5761108c575b506001546001600160a01b0316610ee861898c565b90803b156106f757604051632afef4b760e21b8082526001600160a01b0390931660048201529083908290602490829084905af190811561108157839161106d575b505060015483546001600160a01b03918216929116823b1561077f5760248492836040519586948593845260048401525af180156106fb57611059575b506001546001600160a01b0316610f7c61898c565b90803b156106f75760408051633111036160e11b81526001600160a01b03909316600484015260248301526008604483015267707572636861736560c01b60648301529091908290608490829084905af1801561104e5761103a575b602083836003610fe661898c565b9101549060405191825260018060a01b031690827fb1388757ab12142ef905a9b301dcdd81dd63ec6232a8fa5c48447495aee44fcc8560043593a460015f80516020618b7383398151915255604051908152f35b6110448491616c41565b6106f75782610fd8565b6040513d86823e3d90fd5b61106290616c41565b6106f757825f610f67565b61107690616c41565b61055257815f610f2a565b6040513d85823e3d90fd5b61109590616c41565b6106f757825f610ed3565b6020813d6020116110d5575b816110b960209383616ca6565b810103126110d1576110ca90616fac565b505f610d8c565b8480fd5b3d91506110ac565b91506020823d60201161111d575b816110f860209383616ca6565b810103126111195784602091611110610d7d94616fac565b50915091610d2e565b8580fd5b3d91506110eb565b6040513d88823e3d90fd5b61113990616c41565b61111957855f610cc6565b6020813d602011611175575b8161115d60209383616ca6565b810103126106f75761116e90616fac565b505f610c88565b3d9150611150565b90506020813d6020116111ab575b8161119860209383616ca6565b810103126111a757515f610bb8565b5f80fd5b3d915061118b565b60206111bd61898c565b60405163d386df2360e01b81526001600160a01b03909116600482015291829060249082905afa8015611081578390611202575b6111fc9150156172e8565b5f610b6f565b506020813d602011611235575b8161121c60209383616ca6565b810103126106f7576112306111fc91616fac565b6111f1565b3d915061120f565b506020813d602011611270575b8161125760209383616ca6565b810103126106f75761126b610b5d91616fac565b610b53565b3d915061124a565b506020813d6020116112ab575b8161129260209383616ca6565b8101031261077f576112a6610af491616fac565b610aea565b3d9150611285565b50346103e357806003193601126103e357602060405160058152f35b50346103e35760203660031901126103e3576112e9616daf565b6112f16175f0565b6001600160a01b03168015611316576001600160601b0360a01b600354161760035580f35b60405162461bcd60e51b815260206004820152601660248201527512d4ce881e995c9bc8199959481c9958da5c1a595b9d60521b6044820152606490fd5b50346103e35760403660031901126103e35761139e600435611374616dc5565b908084525f80516020618b338339815191526020526113996001604086200154617657565b6180ba565b5080f35b50346103e35760203660031901126103e3576113bc617553565b6113c4617582565b600435815260066020526040812090600b60205260ff6040822054169160038310159081611c9f57600184148015611e03575b15611dc75761140c60ff60078301541661716b565b6001546001600160a01b03169261142161898c565b60405163c3c5a54760e01b81526001600160a01b039091166004820152602081602481885afa80156106fb578290611d8c575b61145e91506171e9565b611469610aff61898c565b61147161898c565b604051631f1da14d60e11b81526001600160a01b039091166004820152602081602481885afa80156106fb578290611d51575b6114ae9150617468565b6004546001600160a01b031680611cc7575b506114c961898c565b60405160609190911b6bffffffffffffffffffffffff1916602082019081526004356034830152906114fe8160548101610c07565b5190209384825260096020526115186040832054156174bf565b81936007549060018201809211611cb357611c9f5760028714611b53575b50506003820154936115478561807b565b968681939293018111611b3f5784546001600160a01b03169061156861898c565b6040516370a0823160e01b81526001600160a01b03909116600482015290602082602481865afa9182156108bb578492918a918993611b03575b50602093926115fd95926115b892011115617503565b6115c061898c565b6040516323b872dd60e01b81526001600160a01b039091166004820152306024820152604481019290925290928391908290899082906064820190565b03925af1801561078a57611aca575b5083546001600160a01b031690813b156110d1578491602483926040519485938492630852cd8d60e31b845260048401525af1801561104e57908491611ab6575b505082546116aa916020916001600160a01b031661166961898c565b6003546040516323b872dd60e01b81526001600160a01b03928316600482015291166024820152604481019290925290928391908290879082906064820190565b03925af1801561108157611a7d575b5081546117139060209087906001600160a01b03166116d661898c565b6040516323b872dd60e01b81526001600160a01b039091166004820152306024820152604481019290925290928391908290879082906064820190565b03925af1801561108157611a44575b50836119da575b6117d86117376007546173ab565b958660075561174461898c565b6040519061175182616c70565b60018060a01b03168152610e3c60046020830192813584526040810194855260608101428152608082019589875260a08301958a87528d8b52600860205260408b209360018060a01b039051166001600160601b0360a01b8554161784555160018401555160028301555160038201550192511515839060ff801983541691151516179055565b600286146119b3575b81526009602052836040822055600982016117fc81546173ab565b9055600a820161180c81546173ab565b90556001546001600160a01b031661182261898c565b813b156106f757604051630a3be34960e01b81526001600160a01b0390911660048201529082908290602490829084905af180156106fb5790829161199f575b50506001546001600160a01b031661187861898c565b813b156106f75760408051633111036160e11b81526001600160a01b0390921660048301526024820152600b60448201526a383ab931b430b9b2afbb1960a91b60648201529082908290608490829084905af180156106fb5761198b575b50506002602094145f1461193f57506001600160a01b036118f561898c565b1690604051908152827f7a41cc87a8fa6c568be198d7351cfa41f668dd04937d963b6fecc8a9be180d2e8560043593a45b60015f80516020618b7383398151915255604051908152f35b9050600361194b61898c565b9101549060405191825260018060a01b031690827fb1388757ab12142ef905a9b301dcdd81dd63ec6232a8fa5c48447495aee44fcc8560043593a4611926565b6119958291616c41565b6103e357806118d6565b6119a890616c41565b6103e357805f611862565b8482526019602052836040832055601360205260408220600160ff198254161790556117e1565b81546119f69060209086906001600160a01b03166116d661898c565b03925af1801561108157611a0b575b50611729565b6020813d602011611a3c575b81611a2460209383616ca6565b810103126106f757611a3590616fac565b505f611a05565b3d9150611a17565b6020813d602011611a75575b81611a5d60209383616ca6565b810103126106f757611a6e90616fac565b505f611722565b3d9150611a50565b6020813d602011611aae575b81611a9660209383616ca6565b810103126106f757611aa790616fac565b505f6116b9565b3d9150611a89565b611abf90616c41565b6106f757825f61164d565b6020813d602011611afb575b81611ae360209383616ca6565b810103126110d157611af490616fac565b505f61160c565b3d9150611ad6565b93509150506020823d602011611b37575b81611b2160209383616ca6565b810103126111a7579051839189906115b86115a2565b3d9150611b14565b634e487b7160e01b5f52601160045260245ffd5b90919350611b5f61898c565b60405163720395a360e01b8082526001600160a01b039092166004820152602081602481875afa908115611125578691611c6d575b5015611c28576020906024611ba761898c565b6040519283526001600160a01b03166004830152909384919082905afa91821561104e578492611bf4575b508352600f6020526040832055611bec6003820154618038565b915f80611536565b9091506020813d602011611c20575b81611c1060209383616ca6565b810103126111a75751905f611bd2565b3d9150611c03565b60405162461bcd60e51b815260206004820152601c60248201527f4b533a2064656c697665727920636f6e666967207265717569726564000000006044820152606490fd5b90506020813d602011611c97575b81611c8860209383616ca6565b810103126111a757515f611b94565b3d9150611c7b565b634e487b7160e01b83526021600452602483fd5b634e487b7160e01b84526011600452602484fd5b6020611cd161898c565b60405163d386df2360e01b81526001600160a01b03909116600482015291829060249082905afa80156106fb578290611d16575b611d109150156172e8565b5f6114c0565b506020813d602011611d49575b81611d3060209383616ca6565b8101031261055257611d44611d1091616fac565b611d05565b3d9150611d23565b506020813d602011611d84575b81611d6b60209383616ca6565b8101031261055257611d7f6114ae91616fac565b6114a4565b3d9150611d5e565b506020813d602011611dbf575b81611da660209383616ca6565b8101031261055257611dba61145e91616fac565b611454565b3d9150611d99565b60405162461bcd60e51b81526020600482015260146024820152734b533a206e6f74207632206b6e6f776c6564676560601b6044820152606490fd5b505f9150600284146113f7565b50346103e35760203660031901126103e3576001600160401b036040602092600435815260148452205416604051908152f35b50346103e357611e5236616e46565b90611e5e939293617553565b611e66617582565b828552602093600885526040862060018101548752600686526040872092600b875260ff604089205416600381101561202c576002611ea591146171a8565b611ec6611eb061898c565b94546001600160a01b039586169086161461712e565b8588526013875260ff604089205416600981101561202c576003611eea9114616ff3565b858852601587526001600160401b03928360408a20541662015180810180911161201857611f1a90421115616e98565b86895260128852600160ff60408b20541603611fda57926004600293611f6788604098957fed8f28ed0756305b19653f4c072ac6d66d52c78ce8a416e70ec8f9f34fbd58d79a988c617d1b565b0160ff1990600182825416179055878a5260128952858a208482825416179055601389526005868b2091825416179055868952601688528489209042166001600160401b0319825416179055611fbb61898c565b16958351928352820152a360015f80516020618b738339815191525580f35b60405162461bcd60e51b815260048101899052601660248201527512d4ce881b9bc81c9959195b1a5d995c9e481b19599d60521b6044820152606490fd5b634e487b7160e01b8a52601160045260248afd5b634e487b7160e01b89526021600452602489fd5b50346103e35760603660031901126103e357600435602480359060ff82168083036110d15761206d617553565b612075617582565b8385526020916008835260408620936120a561208f61898c565b95546001600160a01b0396871690871614616f28565b8587526013845260ff60408820541660098110156122cf5760021480156122ae575b906120d46120da92616ff3565b86617f40565b1561226b5784865260138352604086209360ff19946004868254161790558061210161898c565b16867f327d9ab8b3ef21fec285efb953712a02a97c4ce0eb330c06d179d1fec368a8c960606040516001815287898201526044356040820152a3858752600884526040872090600182015488526006855260408820958789526013865260ff60408a2054166009811015612258579061218160088b9695949314156175ac565b88855260138752600860408620918254161790556004820161010061ff0019825416179055806001541691541690803b1561077f57839283926040519485938492638fe80d9560e01b845260048401525af180156106fb57612244575b505061222983600a7f1d0aaaf60e4a68644db764ad1504d02924c57ea1b5b2111e112f9b2dc0efbcfd95016122138154616fa0565b905561221e86618145565b6003810154906177f7565b604051908152a260015f80516020618b738339815191525580f35b61224d90616c41565b6110d157845f6121de565b634e487b7160e01b8a526021600452848afd5b82601b6064926040519262461bcd60e51b845260048401528201527f4b533a206e6f74206f626a6563746976656c7920696e76616c696400000000006044820152fd5b508587526013845260ff60408820541660098110156122cf576005146120c7565b634e487b7160e01b885260216004528288fd5b50346103e35760603660031901126103e3576122fc616daf565b612304616dc5565b6001600160a01b03919060443583811691908290036111a7577ff0c57e16840df040f15088dc2f81fe391c3923bec73e23a9662efc9c229c6a0093845460ff8160401c1615946001600160401b038216801590816124bd575b60011490816124b3575b1590816124aa575b506124985767ffffffffffffffff1982166001178755829186612479575b50612396618a60565b61239e618a60565b16918215158061246e575b80612465575b15612430576001600160601b0360a01b92838854161787551681600154161760015560035416176003556123e96123e461898c565b6176b7565b506123f2575080f35b68ff00000000000000001981541690557fc7f505b2f371ae2175ee4913f4499e1f2633a7b5936321eed1cdaeb6115181d2602060405160018152a180f35b60405162461bcd60e51b815260206004820152600d60248201526c25a99d103d32b9379030b2323960991b6044820152606490fd5b508315156123af565b5081811615156123a9565b68ffffffffffffffffff1916680100000000000000011787555f61238d565b60405163f92ee8a960e01b8152600490fd5b9050155f61236f565b303b159150612367565b87915061235d565b50346103e35760c03660031901126103e3576004356001600160401b038111610552576124f6903690600401616bdc565b6024356001600160401b03811161077f57612515903690600401616bdc565b90916064356001600160401b03811161111957612536903690600401616bdc565b929095608435906001600160401b0382116103e3575061255a903690600401616bdc565b612562617553565b61256a617582565b6001545f96906001600160a01b031661258161898c565b60405163c3c5a54760e01b81526001600160a01b039091166004820152602081602481855afa8015612bf2575f906130c0575b6125be91506171e9565b6125c661898c565b604051635a2d572960e11b81526001600160a01b039091166004820152602081602481855afa908115612bf2575f91613081575b5060ff600191161061304e5761260e61898c565b60405163fb3551ff60e01b81526001600160a01b0390911660048201525f81602481855afa908115612bf2576126519160e0915f91613034575b5001511561722a565b600386101580613029575b6126659061726d565b670de0b6b3a7640000604435101580613013575b612682906172aa565b8615612fda578215612f9d5760a4355f52600a6020526126a960ff60405f20541615617322565b60206126b361898c565b60405163dbbd81b960e01b81526001600160a01b03909116600482015291829060249082905afa908115612bf2575f91612f63575b5015612f1e576004546001600160a01b031680612e94575b5061270c604435617edb565b5f549094906001600160a01b031661272261898c565b6040516370a0823160e01b81526001600160a01b03909116600482015290602082602481845afa8015612bf25787925f91612e5c575b509160209161276c826127b1951015617366565b61277461898c565b6040516323b872dd60e01b81526001600160a01b0390911660048201523060248201526044810192909252909283919082905f9082906064820190565b03925af18015612bf257612e23575b506001546001600160a01b03166127d561898c565b90803b156111a7576040516331ba14cf60e11b81526001600160a01b03929092166004830152602482018790525f908290604490829084905af18015612bf257612e02575b506128999392916128859160a4358a52600a60205260408a20600160ff198254161790556128796005549b61284e8d6173ab565b60055561285961898c565b996040519a6128678c616c54565b6001600160a01b03168b523691616df6565b60208901523691616df6565b604086015260443560608601523691616df6565b608083015260a43560a083015260c0820152600160e08201524261010082015282610120820152826101408201528383526006602052604083209060018060a01b038151166001600160601b0360a01b83541617825560208101518051906001600160401b038211612d125761291f826129166001870154616c09565b600187016173b9565b602090601f8311600114612d945761294e9291879183612c95575b50508160011b915f199060031b1c19161790565b60018301555b60408101518051906001600160401b038211612d12576129848261297b6002870154616c09565b600287016173b9565b602090601f8311600114612d26576129b29291879183612c955750508160011b915f199060031b1c19161790565b60028301555b6060810151600383015560808101518051906001600160401b038211612d12576129f2826129e96004870154616c09565b600487016173b9565b602090601f8311600114612ca0578261014093600a9593612a27938a92612c955750508160011b915f199060031b1c19161790565b60048501555b60a0810151600585015560c08101516006850155612a6060e08201511515600786019060ff801983541691151516179055565b610100810151600885015561012081015160098501550151910155828252600b60205260408220600160ff19825416179055828252600c60205260408220906001600160401b038111612c8157612ac181612abb8454616c09565b846173b9565b82601f8211600114612c1c579080612af0928596978692612c115750508160011b915f199060031b1c19161790565b90555b612bfd57506001546001600160a01b031690612b0d61898c565b604051612b1981616c8b565b600e81526d3634b9ba2fb83ab13634b1afbb1960911b6020820152833b156111a757612b73935f9283604051809781958294633111036160e11b845260018060a01b03166004840152604060248401526044830190616d8a565b03925af1918215612bf257602092612be3575b506001600160a01b03612b9761898c565b16817f7113fcd865eb94ce44d32a368d8f471b51903552b5f39a5ac85c37d85b27cb6f604080516001815260443587820152a360015f80516020618b7383398151915255604051908152f35b612bec90616c41565b5f612b86565b6040513d5f823e3d90fd5b634e487b7160e01b81526021600452602490fd5b013590505f8061293a565b8284526020842090601f198316855b818110612c6957509683929160019487989910612c50575b505050811b019055612af3565b01355f19600384901b60f8161c191690555f8080612c43565b9192602060018192868c013581550194019201612c2b565b634e487b7160e01b83526041600452602483fd5b015190505f8061293a565b906004850187526020872091875b601f1985168110612cfa575092600a94926001926101409583601f19811610612ce2575b505050811b016004850155612a2d565b01515f1960f88460031b161c191690555f8080612cd2565b91926020600181928685015181550194019201612cae565b634e487b7160e01b86526041600452602486fd5b9190600285018752602087209087935b601f1984168510612d79576001945083601f19811610612d61575b505050811b0160028301556129b8565b01515f1960f88460031b161c191690555f8080612d51565b81810151835560209485019460019093019290910190612d36565b9190600185018752602087209087935b601f1984168510612de7576001945083601f19811610612dcf575b505050811b016001830155612954565b01515f1960f88460031b161c191690555f8080612dbf565b81810151835560209485019460019093019290910190612da4565b61288591985091612e17612899959493616c41565b5f98915091929361281a565b6020813d602011612e54575b81612e3c60209383616ca6565b810103126111a757612e4d90616fac565b505f6127c0565b3d9150612e2f565b9250506020823d602011612e8c575b81612e7860209383616ca6565b810103126111a75790518691906020612758565b3d9150612e6b565b6020612e9e61898c565b60405163d386df2360e01b81526001600160a01b03909116600482015291829060249082905afa8015612bf2575f90612ee3575b612edd9150156172e8565b5f612700565b506020813d602011612f16575b81612efd60209383616ca6565b810103126111a757612f11612edd91616fac565b612ed2565b3d9150612ef0565b60405162461bcd60e51b815260206004820152601e60248201527f4b533a2073656c6c65722062617365207374616b6520726571756972656400006044820152606490fd5b90506020813d602011612f95575b81612f7e60209383616ca6565b810103126111a757612f8f90616fac565b5f6126e8565b3d9150612f71565b60405162461bcd60e51b81526020600482015260156024820152744b533a20656d70747920636f6e74656e742075726960581b6044820152606490fd5b60405162461bcd60e51b81526020600482015260116024820152704b533a20656d707479207072657669657760781b6044820152606490fd5b5069d3c21bcecceda10000006044351115612679565b50604086111561265c565b61304891503d805f833e6108ad8183616ca6565b5f612648565b60405162461bcd60e51b815260206004820152600b60248201526a4b533a207469657220312b60a81b6044820152606490fd5b90506020813d6020116130b8575b8161309c60209383616ca6565b810103126111a75760ff6130b160019261703f565b91506125fa565b3d915061308f565b506020813d6020116130f3575b816130da60209383616ca6565b810103126111a7576130ee6125be91616fac565b6125b4565b3d91506130cd565b50346103e357806003193601126103e3576020604051670de0b6b3a76400008152f35b50346103e357806003193601126103e35761049e60405161313e81616c8b565b60058152640352e302e360dc1b6020820152604051918291602083526020830190616d8a565b50346103e35760203660031901126103e35760406020916004358152600983522054604051908152f35b50346103e35760203660031901126103e35760ff60406020926004358152601884522054166040519015158152f35b50346103e357806003193601126103e357602090604051908152f35b50346103e35760a03660031901126103e3576004356001600160401b0381116105525761320a903690600401616bdc565b6024929192356001600160401b0381116106f75761322c903690600401616bdc565b91906064356001600160401b0381116110d15761324d903690600401616bdc565b613258959195617553565b613260617582565b6001546001600160a01b031661327461898c565b60405163c3c5a54760e01b81526001600160a01b039091166004820152602081602481855afa801561104e578490613b58575b6132b191506171e9565b6132b961898c565b604051635a2d572960e11b81526001600160a01b039091166004820152602081602481855afa90811561104e578491613b19575b5060ff6002911610613ae6578261330261898c565b60405163fb3551ff60e01b81526001600160a01b03909116600482015291829060249082905afa908115611081576133469160e0918591613ad2575001511561722a565b600384101580613ac7575b61335a9061726d565b670de0b6b3a7640000604435101580613ab1575b613377906172aa565b8015613a7c576004546001600160a01b0316806139f2575b506084358252600a6020526133ab60ff60408420541615617322565b6084358252600a60205260408220805460ff191660011790556133cf604435617edb565b82546001600160a01b03166133e261898c565b6040516370a0823160e01b81526001600160a01b039091166004820152602081602481855afa90811561078a579083929186916139ba575b509160209161342e82613473951015617366565b61343661898c565b6040516323b872dd60e01b81526001600160a01b039091166004820152306024820152604481019290925290928391908290889082906064820190565b03925af1801561104e57613981575b506001546001600160a01b031661349761898c565b813b156110d1576040516331ba14cf60e11b81526001600160a01b03919091166004820152602481018390529084908290604490829084905af1801561104e5790849161396d575b5050613530600554976134f1896173ab565b6005556134fc61898c565b936040519461350a86616c54565b6001600160a01b0316855261352036898d616df6565b6020860152612885368a89616df6565b608083015260843560a083015260c0820152600160e08201524261010082015281610120820152816101408201528582526006602052604082209060018060a01b038151166001600160601b0360a01b83541617825560208101518051906001600160401b03821161387d576135ad826129166001870154616c09565b602090601f83116001146138ff576135db9291869183612c955750508160011b915f199060031b1c19161790565b60018301555b60408101518051906001600160401b03821161387d576136088261297b6002870154616c09565b602090601f8311600114613891576136369291869183612c955750508160011b915f199060031b1c19161790565b60028301555b6060810151600383015560808101518051906001600160401b03821161387d5761366d826129e96004870154616c09565b602090601f831160011461380b578261014093600a95936136a2938992612c955750508160011b915f199060031b1c19161790565b60048501555b60a0810151600585015560c081015160068501556136db60e08201511515600786019060ff801983541691151516179055565b610100810151600885015561012081015160098501550151910155848152600b60205260408120805460ff191690556001546001600160a01b031661371e61898c565b813b156106f7578291608483926040519485938492633111036160e11b845260018060a01b031660048401526040602484015260046044840152631b1a5cdd60e21b60648401525af180156106fb576137f7575b505060209484926137db7f26dc573051b6e7e62d2ca5bd31b932014d45995bfbe6718812734201da9614239360018060a01b036137ad61898c565b16966137c6604051958695606087526060870191617408565b916044358b8601528483036040860152617408565b0390a360015f80516020618b7383398151915255604051908152f35b6138018291616c41565b6103e35780613772565b906004850186526020862091865b601f1985168110613865575092600a94926001926101409583601f1981161061384d575b505050811b0160048501556136a8565b01515f1960f88460031b161c191690555f808061383d565b91926020600181928685015181550194019201613819565b634e487b7160e01b85526041600452602485fd5b9190600285018652602086209086935b601f19841685106138e4576001945083601f198116106138cc575b505050811b01600283015561363c565b01515f1960f88460031b161c191690555f80806138bc565b818101518355602094850194600190930192909101906138a1565b9190600185018652602086209086935b601f1984168510613952576001945083601f1981161061393a575b505050811b0160018301556135e1565b01515f1960f88460031b161c191690555f808061392a565b8181015183556020948501946001909301929091019061390f565b61397690616c41565b6106f757825f6134df565b6020813d6020116139b2575b8161399a60209383616ca6565b8101031261077f576139ab90616fac565b505f613482565b3d915061398d565b9250506020823d6020116139ea575b816139d660209383616ca6565b810103126111a7579051829190602061341a565b3d91506139c9565b60206139fc61898c565b60405163d386df2360e01b81526001600160a01b03909116600482015291829060249082905afa8015611081578390613a41575b613a3b9150156172e8565b5f61338f565b506020813d602011613a74575b81613a5b60209383616ca6565b810103126106f757613a6f613a3b91616fac565b613a30565b3d9150613a4e565b60405162461bcd60e51b815260206004820152600d60248201526c12d4ce88195b5c1d1e4810d251609a1b6044820152606490fd5b5069d3c21bcecceda1000000604435111561336e565b506040841115613351565b61304891503d8087833e6108ad8183616ca6565b60405162461bcd60e51b815260206004820152600b60248201526a4b533a207469657220322b60a81b6044820152606490fd5b90506020813d602011613b50575b81613b3460209383616ca6565b8101031261077f5760ff613b4960029261703f565b91506132ed565b3d9150613b27565b506020813d602011613b8b575b81613b7260209383616ca6565b8101031261077f57613b866132b191616fac565b6132a7565b3d9150613b65565b50346103e357806003193601126103e357602060405160048152f35b50346103e35760203660031901126103e35760ff6040602092600435815260138452205416613be16040518092616e2c565bf35b50346103e357613bf236616e46565b613bfd939193617553565b613c05617582565b8185526020926008845260408620600195868201548852600686526040882092600b875260ff60408a2054166003811015613d20576002613c4691146171a8565b613c51611eb061898c565b8589526013875260ff60408a2054166009811015613d20578593613ca97f84fb704e368adf6a6663d1d8de81d7c9594896ccc973e5ffa197810d76d8f3ab978b9560409895613ca38860049714616ff3565b8b617d1b565b0160ff19908382825416179055868a5260128852848a208382825416179055601388526002858b2091825416179055858952601487528389206001600160401b0342166001600160401b0319825416179055613d0361898c565b16958351928352820152a35f80516020618b738339815191525580f35b634e487b7160e01b8a52602160045260248afd5b50346103e35760203660031901126103e357613d4e616daf565b613d566175f0565b60018060a01b03166001600160601b0360a01b600454161760045580f35b50346103e357806003193601126103e35760206040516203f4808152f35b50346103e35760203660031901126103e3576001600160401b036040602092600435815260168452205416604051908152f35b50346103e35760403660031901126103e3576040613de1616dc5565b9160043581525f80516020618b33833981519152602052209060018060a01b03165f52602052602060ff60405f2054166040519015158152f35b50346103e35760208060031936011261055257613e84916004358152600b8252613e9f60ff60408320541692600c8152613e916040842093600d83526080613e77613e71604080852094600e8852205497616cc7565b92616cc7565b9360405198898099616e39565b8701526080860190616d8a565b908482036040860152616d8a565b9060608301520390f35b50346103e3576020806003193601126105525760043590613ec8617553565b613ed0617582565b818352600681526040832090613ee461898c565b82546001600160a01b039391613eff9185169085161461712e565b600781018054613f1160ff821661716b565b600a8301546140655760ff1916905560060180549290859084613f69575b50847f6231f95ec21671bd178b0f09edd9360d433024b1098c5ea14b4ab7db64caa8da8280a260015f80516020618b738339815191525580f35b55848160015416613f7861898c565b90803b156106f7576040516334673ec560e11b81526001600160a01b039290921660048301526024820186905282908290604490829084905af180156106fb57614051575b50928291614006945416613fcf61898c565b60405163a9059cbb60e01b81526001600160a01b039091166004820152602481019290925290938491908290889082906044820190565b03925af1801561104e5761401d575b808481613f2f565b81813d831161404a575b6140318183616ca6565b810103126106f75761404290616fac565b505f80614015565b503d614027565b61405a90616c41565b6110d157845f613fbd565b60405162461bcd60e51b81526004810185905260166024820152754b533a2070656e64696e672064656c6976657269657360501b6044820152606490fd5b50346103e35760603660031901126103e3576140bd617582565b6004358152602060088152604082206140ec6140d761898c565b82546001600160a01b03918216911614616f28565b600481019081549160ff8316806145d8575b61410790616fb9565b600191826024351015806145cb575b806145bf575b806145b2575b1561457d578201908154865260068552604086209360018060a01b0384541661414961898c565b60405163fb3551ff60e01b8082526001600160a01b03909216600482015290919089908181602481865afa9081156106fb578291614563575b50604090810151895491519485526001600160a01b039182166004860152169291829060249082905afa90811561455857899161453e575b50604001516001600160a01b0316146145085761ff0019166101001790558154835486916001600160a01b039182169116803b156106f757604051631fca67df60e21b81526001600160a01b039290921660048301526044803560248401528391839190829084905af180156106fb576144f4575b5082546001600160a01b031661424361898c565b813b156106f757604051638fe80d9560e01b81526001600160a01b0390911660048201529082908290602490829084905af180156106fb576144e0575b5082546001600160a01b031661429461898c565b813b156106f75760408051633111036160e11b81526001600160a01b0390921660048301526024820152600660448201526572657669657760d01b60648201529082908290608490829084905af180156106fb576144cc575b5050548452600b835260ff6040852054166003811015610a4f578492919061443157506002546001600160a01b03169081614362575b5050505b604051906024358252604435908201527f6e25eeb376624597a9c69a7e9e1f4ab3623441258ae80e1db654feb9861d1214604060043592a280f35b546001600160a01b031690803b156106f75760405163871aa80f60e01b81526001600160a01b039290921660048301526044803560248401528391839190829084905af180156106fb5761441d575b506002546001600160a01b03166143c661898c565b813b156106f7576040516336a6ab4760e01b81526001600160a01b0390911660048201529082908290602490829084905af180156106fb57614409575b80614323565b61441290616c41565b61055257815f614403565b61442690616c41565b61055257815f6143b1565b6004358552601784526040808620805460ff1916909217909155601b845284206044359055505060025482906001600160a01b031680614473575b5050614327565b61447b61898c565b813b156106f7576040516336a6ab4760e01b81526001600160a01b0390911660048201529082908290602490829084905af180156106fb571561446c576144c190616c41565b61055257815f61446c565b6144d590616c41565b6110d157845f6142ed565b6144e990616c41565b6110d157845f614280565b6144fd90616c41565b6110d157845f61422f565b60405162461bcd60e51b815260048101879052600e60248201526d25a99d1039b0b6b29037bbb732b960911b6044820152606490fd5b61455291503d808b833e6108ad8183616ca6565b5f6141ba565b6040513d8b823e3d90fd5b61457791503d8084833e6108ad8183616ca6565b5f614182565b60405162461bcd60e51b815260048101869052600d60248201526c4b533a2073636f726520312d3560981b6044820152606490fd5b5060056044351115614122565b5082604435101561411c565b5060056024351115614116565b50600883901c60ff16156140fe565b50346103e35760203660031901126103e35760ff6040602092600435815260128452205416604051908152f35b50346103e357806003193601126103e3576004546040516001600160a01b039091168152602090f35b50346103e357806003193601126103e3576146566175f0565b61465e617582565b5f80516020618b53833981519152805460ff191660011790557f62e78cea01bee320cd4e420270b5ea74000d11b0c9f74754ebdbfc544b05a25860206146a261898c565b6040516001600160a01b039091168152a180f35b50346103e35760203660031901126103e357604060c091600435815260086020522060ff60018060a01b0382541691600181015490600281015460046003830154920154926040519586526020860152604085015260608401528181161515608084015260081c16151560a0820152f35b50346103e35760203660031901126103e35760ff60406020926004358152600b8452205416613be16040518092616e39565b50346103e357806003193601126103e3576040517f00000000000000000000000000000000000000000000000000000000000000006001600160a01b03168152602090f35b50346103e35760208060031936011261055257600435906147bd617553565b6147c5617582565b8183526008815260408320906147f26147dc61898c565b92546001600160a01b0393841690841614616f28565b8284526013815260ff6040852054166009811015610a4f5790600284921480156148fc575b906148427fd59a34c4244796808a89bc9820420faba740533808a8001cce2a4cbaba1338fc92616ff3565b825f5260088152600160405f2001545f5260068152600a60405f20845f52601c835261487560ff60405f205416156175ac565b845f526013835260405f20600660ff19825416179055016148968154616fa0565b90556148a18361824a565b6148aa83618474565b6148b3836185b8565b6040515f8152a26148c261898c565b16907f1c51f672bb44381c6c32c39eb4d1a4d57901386e9fa53336d09a315dd6f5b2888380a360015f80516020618b738339815191525580f35b509084526013815260ff6040852054166009811015610a4f57839190600514614817565b50346103e357806003193601126103e3576001546040516001600160a01b039091168152602090f35b50346103e357806003193601126103e357546040516001600160a01b039091168152602090f35b50346103e35760203660031901126103e35760ff60406020926004358152601d84522054166040519015158152f35b50346103e35760203660031901126103e35760ff60406020926004358152601784522054166040519015158152f35b50346103e35760203660031901126103e35760ff60406020926004358152601c84522054166040519015158152f35b50346103e357806003193601126103e357602060405160148152f35b50346103e35760203660031901126103e35760ff60406020926004358152600a84522054166040519015158152f35b50346103e357602080600319360112610552579060a09160043582526013815260ff604083205416916012825260ff604082205416600f83526040822054906019845260ff604080852054946018875220541693614aa96040518097616e2c565b8501526040840152606083015215156080820152f35b50346103e357806003193601126103e357602060ff5f80516020618b5383398151915254166040519015158152f35b50346103e35760203660031901126103e3576020614b0a616daf565b6040517f00000000000000000000000000000000000000000000000000000000000000006001600160a01b039081169216919091148152f35b50346103e35760203660031901126103e35760043590614b6161898c565b6001600160a01b039081165f8181527f1a6cd9a7b8103b1ac8ae3acbee9fd0afe79825cbeda582da2cdf52e70cae65a960205260409020547fba279271fb7bbf76a6f3df3cc57bf80647fcafdea60ec3383d90f459de74e7c09492919060ff1615614d6b57508293508183526006602052604083209160078301805460ff8116614d39575b505060068301908482549283614c4a575b505050508060015416915416813b15614c465782916024839260405194859384926322eb7bdb60e11b845260048401525af180156106fb57614c365750f35b614c3f90616c41565b6103e35780f35b5050fd5b5582600154168385541690803b15614d35576040516334673ec560e11b81526001600160a01b039290921660048301526024820184905286908290604490829084905af1908115611125578691614d21575b50548316803b1561111957858091602460405180948193630852cd8d60e31b83528860048401525af1908115611125578691614d0d575b50507fba00be99b4ba100b19f2c080160ab22c2b8f4d62027d6524c532e7578d7a43b460208486541693604051908152a35f808481614bf7565b614d1690616c41565b6110d157845f614cd3565b614d2a90616c41565b6110d157845f614c9c565b8680fd5b60ff19169055807f6231f95ec21671bd178b0f09edd9360d433024b1098c5ea14b4ab7db64caa8da8580a25f80614be6565b604490856040519163e2517d3f60e01b835260048301526024820152fd5b50346103e357806003193601126103e3577f00000000000000000000000000000000000000000000000000000000000000006001600160a01b03163003614df45760206040517f360894a13ba1a3210667c828492db98dca3e2076cc3735a920a3ca505d382bbc8152f35b60405163703e46dd60e11b8152600490fd5b5060403660031901126103e357614e1b616daf565b6024356001600160401b0381116106f757366023820112156106f757614e4b903690602481600401359101616df6565b6001600160a01b037f00000000000000000000000000000000000000000000000000000000000000008116308114908115614fc6575b50614df457614e8e6175f0565b8216916040516352d1902d60e01b8152602081600481875afa859181614f92575b50614ecd57604051634c9c8ce360e01b815260048101859052602490fd5b7f360894a13ba1a3210667c828492db98dca3e2076cc3735a920a3ca505d382bbc90818103614f7a5750813b15614f615780546001600160a01b03191684179055604051927fbc7cd75a20ee27fd9adebab32041f755214dbc6bffa90cc0225b39da2e5c2d3b8580a2815115614f475761139e9250618aa1565b505034614f52575080f35b63b398979f60e01b8152600490fd5b604051634c9c8ce360e01b815260048101859052602490fd5b60249060405190632a87526960e21b82526004820152fd5b9091506020813d602011614fbe575b81614fae60209383616ca6565b810103126111a75751905f614eaf565b3d9150614fa1565b9050817f360894a13ba1a3210667c828492db98dca3e2076cc3735a920a3ca505d382bbc541614155f614e81565b50346103e35760203660031901126103e357600435615011617582565b808252600860205260408220600481019081549160ff83168061518d575b61503890616fb9565b600382015462278d00810180911161517957421061514457610100859361ff0019161790556001810154825260066020526040822060018060a01b0390818060015416915416813b156110d1578491604483926040519485938492631fca67df60e21b84526004840152600360248401525af190811561104e578491615130575b50508060015416915416813b156106f7578291602483926040519485938492638fe80d9560e01b845260048401525af180156106fb5761511c575b50807fb32aed4e447f2ad9195c00c43067223cbb2d8f5db04ca8c2388d148771c8114b91a280f35b61512590616c41565b61055257815f6150f4565b61513990616c41565b6106f757825f6150b9565b60405162461bcd60e51b815260206004820152600d60248201526c4b533a20746f6f206561726c7960981b6044820152606490fd5b634e487b7160e01b86526011600452602486fd5b50600883901c60ff161561502f565b50346103e35760203660031901126103e3576001600160401b036040602092600435815260158452205416604051908152f35b50346103e357806003193601126103e3576003546040516001600160a01b039091168152602090f35b50346103e35760208060031936011261055257615213617553565b61521b617582565b60043582526008815261524c604083209161523461898c565b83546001600160a01b03939084169184168214616f28565b60048401805461525f60ff821615616f64565b60038601546201518081018091116153d75742106153a35761ffff1916610101179055600154859190841690813b156106f7578291602483926040519485938492638fe80d9560e01b845260048401525af180156106fb5761538f575b5050808360016153269501548652600682526040862093600a85016152e18154616fa0565b90558654825460029093015460405163a9059cbb60e01b81529383166001600160a01b0316600485015260248401529195869291909116908290889082906044820190565b03925af1801561104e57615359575b83615345836003810154906177f7565b60015f80516020618b738339815191525580f35b82813d8311615388575b61536d8183616ca6565b810103126106f75761538161534592616fac565b505f615335565b503d615363565b61539890616c41565b61077f57835f6152bc565b60405162461bcd60e51b815260048101859052600c60248201526b4b533a20646561646c696e6560a01b6044820152606490fd5b634e487b7160e01b88526011600452602488fd5b50346103e357806003193601126103e3576154046175f0565b5f80516020618b53833981519152805460ff81161561544e5760ff191690557f5db9ee0a495bf2e6ff9c91a7834c1ba4fdd244a5e8aa4e537bd38aeae4b073aa60206146a261898c565b604051638dfc202b60e01b8152600490fd5b50346103e35760203660031901126103e35760406020916004358152600f83522054604051908152f35b50346103e357806003193601126103e3576002546040516001600160a01b039091168152602090f35b50346103e35760203660031901126103e35760408160c09260a083516154d881616c70565b8281528260208201528285820152826060820152826080820152015260043581526008602052206040519061550c82616c70565b60018060a01b03815416918281526001820154916020820192835260028101546040830190815260046003830154926060850193845201549360ff60a0608086019582881615158752019560081c1615158552604051958652516020860152516040850152516060840152511515608083015251151560a0820152f35b50346103e35760403660031901126103e3576004356155a6616dc5565b81156155e1576001600160a01b03806155bd61898c565b16908216036155cf5761139e916180ba565b60405163334bd91960e11b8152600490fd5b60405162461bcd60e51b815260206004820152601960248201527f4b533a2063616e6e6f742072656e6f756e63652061646d696e000000000000006044820152606490fd5b50346103e357806003193601126103e3576020600554604051908152f35b50346103e35760403660031901126103e35761139e600435615664616dc5565b908084525f80516020618b338339815191526020526156896001604086200154617657565b617762565b50346103e357806003193601126103e357602060405160018152f35b50346103e357806003193601126103e357602060405160028152f35b50346103e35760208060031936011261055257600435906156e5617553565b6156ed617582565b8183526013815260ff60408420541683906009811015610a4f57600281036158925750828452601482526001600160401b036040852054166203f480810180911161587e57906157617fd59a34c4244796808a89bc9820420faba740533808a8001cce2a4cbaba1338fc9392421015616ee4565b835f5260088252600160405f2001545f526006825260405f20845f52601c835261579260ff60405f205416156175ac565b845f5260138352600a60405f209160ff1992600684825416179055016157b88154616fa0565b90556157c38561824a565b8115916157d08387618507565b8061586a575b80615854575b615807575b506157eb846185b8565b60405190158152a260015f80516020618b738339815191525580f35b845f52601a8352600160405f209182541617905560198252837fddb652d8f25e3d89940fdfc96a04005b8142fdc4f9c99c3f6a582e3a01497aad8360405f2054604051908152a25f6157e1565b50845f52601a835260ff60405f205416156157dc565b50845f526019835260405f205415156157d6565b634e487b7160e01b85526011600452602485fd5b6005141590506158f357818352601681526001600160401b036040842054166203f4808101809111611cb357906158ec7fd59a34c4244796808a89bc9820420faba740533808a8001cce2a4cbaba1338fc92421015616ee4565b6001615761565b60405162461bcd60e51b815260206004820152600d60248201526c4b533a2062616420737461746560981b6044820152606490fd5b50346103e35760203660031901126103e35780604091610140835161594c81616c54565b82815260606020820152606085820152826060820152606060808201528260a08201528260c08201528260e0820152826101008201528261012082015201526004358152600660205220600a604051916159a583616c54565b80546001600160a01b031683526159be60018201616cc7565b60208401526159cf60028201616cc7565b6040840152600381015460608401526159ea60048201616cc7565b6080840152600581015460a0840152600681015460c084015260ff600782015416151560e084015260088101546101008401526009810154610120840152015461014082015260405180916020825260018060a01b038151166020830152610140615aa4615a6960208401516101606040870152610180860190616d8a565b615a85604085015191601f199283888303016060890152616d8a565b90606085015160808701526080850151908683030160a0870152616d8a565b9160a081015160c085015260c081015160e085015260e081015115156101008501526101008101516101208501526101208101518285015201516101608301520390f35b50346103e35760203660031901126103e3576001604060209260043581525f80516020618b338339815191528452200154604051908152f35b50346103e357806003193601126103e3576020600754604051908152f35b50346103e35760203660031901126103e35760406020916004358152601b83522054604051908152f35b50346103e35760203660031901126103e35760ff60406020926004358152601a84522054166040519015158152f35b50346103e35760203660031901126103e357615bb2616daf565b615bba6175f0565b60018060a01b03166001600160601b0360a01b600254161760025580f35b50346103e357806003193601126103e3576020604051620151808152f35b50346103e35760203660031901126103e357600435815260066020526040902080546001600160a01b0316615c2d60018301616cc7565b91615c3a60028201616cc7565b600382015491615c4c60048201616cc7565b6005820154936006830154615cb560ff60078601541692600886015494615ca2600a600989015498015498615c946040519d8e9d8e6101609181528160208201520190616d8a565b8c810360408e015290616d8a565b9160608b015289820360808b0152616d8a565b9560a088015260c0870152151560e08601526101008501526101208401526101408301520390f35b50346103e357806003193601126103e35760206040516104008152f35b50346103e357806003193601126103e357602060405162278d008152f35b50346103e35760e03660031901126103e3576004356001600160401b03811161055257615d49903690600401616bdc565b6024356001600160401b03811161077f57615d68903690600401616bdc565b936064356001600160401b03811161055257615d88903690600401616bdc565b9091608435906001600160401b0382116103e35750615dab903690600401616bdc565b949096615db6617553565b615dbe617582565b60a435156168b457600154945f95615dd461898c565b60405163c3c5a54760e01b81526001600160a01b039182166004820152906020908290602490829086165afa8015612bf2575f90616879575b615e1791506171e9565b615e1f61898c565b604051635a2d572960e11b81526001600160a01b039182166004820152906020908290602490829086165afa908115612bf2575f9161683a575b5060ff600191161061304e57615e6d61898c565b60405163fb3551ff60e01b81526001600160a01b039182166004820152905f908290602490829086165afa908115612bf257615eb59160e0915f91613034575001511561722a565b60038410158061682f575b615ec99061726d565b670de0b6b3a7640000604435101580616819575b615ee6906172aa565b8415612fda578715612f9d5760c4355f52600a602052615f0d60ff60405f20541615617322565b6020615f1761898c565b60405163dbbd81b960e01b81526001600160a01b0391821660048201529283916024918391165afa908115612bf2575f916167df575b5015612f1e576004546001600160a01b031680616755575b50615f71604435617edb565b5f549092906001600160a01b0316615f8761898c565b6040516370a0823160e01b81526001600160a01b03909116600482015290602082602481845afa8015612bf25785925f9161671d575b509160209161276c82615fd1951015617366565b03925af18015612bf2576166e4575b506001546001600160a01b0316615ff561898c565b90803b156111a7576040516331ba14cf60e11b81526001600160a01b03929092166004830152602482018590525f908290604490829084905af18015612bf2576166cb575b50906160a09160c4358852600a60205260408820600160ff198254161790556160946005549a6160698c6173ab565b60055561607461898c565b966040519761608289616c54565b6001600160a01b031688523691616df6565b60208601523691616df6565b604083015260443560608301526160b836878a616df6565b608083015260c43560a083015260c0820152600160e08201524261010082015283610120820152836101408201528584526006602052604084209060018060a01b038151166001600160601b0360a01b83541617825560208101518051906001600160401b0382116165db57616135826129166001870154616c09565b602090601f831160011461665d576161639291889183612c955750508160011b915f199060031b1c19161790565b60018301555b60408101518051906001600160401b0382116165db576161908261297b6002870154616c09565b602090601f83116001146165ef576161be9291889183612c955750508160011b915f199060031b1c19161790565b60028301555b6060810151600383015560808101518051906001600160401b0382116165db576161f5826129e96004870154616c09565b602090601f8311600114616569578261014093600a959361622a938b92612c955750508160011b915f199060031b1c19161790565b60048501555b60a0810151600585015560c0810151600685015561626360e08201511515600786019060ff801983541691151516179055565b610100810151600885015561012081015160098501550151910155848352600b60205260408320600260ff19825416179055848352600c60205260408320916001600160401b038211616555579082916162c8826162c2879654616c09565b856173b9565b8390601f83116001146164e8576162f59291859183612c115750508160011b915f199060031b1c19161790565b90555b612bfd5750815f52600d60205260405f20906001600160401b0381116164d45761632681612abb8454616c09565b5f601f82116001146164725781906163549394955f92612c115750508160011b915f199060031b1c19161790565b90555b5f818152600e6020526040902060a43590556001546001600160a01b03169061637e61898c565b915f9260405161638d81616c8b565b600f81526e3634b9ba2fb83934bb30ba32afbb1960891b6020820152823b156111a7576163e8925f9283604051809681958294633111036160e11b845260018060a01b03166004840152604060248401526044830190616d8a565b03925af18015612bf25761645f575b508161640161898c565b90611c9f5760209250817f7113fcd865eb94ce44d32a368d8f471b51903552b5f39a5ac85c37d85b27cb6f6040805193600285526044358786015260018060a01b031693a360015f80516020618b7383398151915255604051908152f35b61646a919250616c41565b5f905f6163f7565b601f19821694835f5260205f20915f5b8781106164bc5750836001959697106164a3575b505050811b019055616357565b01355f19600384901b60f8161c191690555f8080616496565b90926020600181928686013581550194019101616482565b634e487b7160e01b5f52604160045260245ffd5b83859493929552602084209084955b601f198416871061653a5760019495965083601f19811610616521575b505050811b0190556162f8565b01355f19600384901b60f8161c191690555f8080616514565b818101358355602096870196889650600190930192016164f7565b634e487b7160e01b84526041600452602484fd5b906004850188526020882091885b601f19851681106165c3575092600a94926001926101409583601f198116106165ab575b505050811b016004850155616230565b01515f1960f88460031b161c191690555f808061659b565b91926020600181928685015181550194019201616577565b634e487b7160e01b87526041600452602487fd5b9190600285018852602088209088935b601f1984168510616642576001945083601f1981161061662a575b505050811b0160028301556161c4565b01515f1960f88460031b161c191690555f808061661a565b818101518355602094850194600190930192909101906165ff565b9190600185018852602088209088935b601f19841685106166b0576001945083601f19811610616698575b505050811b016001830155616169565b01515f1960f88460031b161c191690555f8080616688565b8181015183556020948501946001909301929091019061666d565b6160a0929197506166db90616c41565b5f96909161603a565b6020813d602011616715575b816166fd60209383616ca6565b810103126111a75761670e90616fac565b505f615fe0565b3d91506166f0565b9250506020823d60201161674d575b8161673960209383616ca6565b810103126111a75790518491906020615fbd565b3d915061672c565b602061675f61898c565b60405163d386df2360e01b81526001600160a01b03909116600482015291829060249082905afa8015612bf2575f906167a4575b61679e9150156172e8565b5f615f65565b506020813d6020116167d7575b816167be60209383616ca6565b810103126111a7576167d261679e91616fac565b616793565b3d91506167b1565b90506020813d602011616811575b816167fa60209383616ca6565b810103126111a75761680b90616fac565b5f615f4d565b3d91506167ed565b5069d3c21bcecceda10000006044351115615edd565b506040841115615ec0565b90506020813d602011616871575b8161685560209383616ca6565b810103126111a75760ff61686a60019261703f565b9150615e59565b3d9150616848565b506020813d6020116168ac575b8161689360209383616ca6565b810103126111a7576168a7615e1791616fac565b615e0d565b3d9150616886565b60405162461bcd60e51b8152602060048201526015602482015274096a67440cadae0e8f240c6d2e0d0cae440d0c2e6d605b1b6044820152606490fd5b50346103e35760203660031901126103e35760406020916004358152600e83522054604051908152f35b50346103e357806003193601126103e35760206040517fba279271fb7bbf76a6f3df3cc57bf80647fcafdea60ec3383d90f459de74e7c08152f35b50346103e35760203660031901126103e35760043563ffffffff60e01b811680910361055257602090637965db0b60e01b811490811561699c575b506040519015158152f35b6301ffc9a760e01b14905082616991565b50346111a7576020806003193601126111a757600435906169cc617553565b6169d4617582565b815f526013815260ff60405f2054166008825260405f206009821015616b2e5760039160018103616b7e57500154620151808101809111611b3f574210616b42575b815f526008815260405f2060018101545f526006825260405f2091835f526013815260ff60405f205416906009821015616b2e57616a59600760139314156175ac565b5f85815291905260409020805460ff1916600717905560048101805461ff00191661010017905560015490546001600160a01b039182169116813b156111a7575f91602483926040519485938492638fe80d9560e01b845260048401525af18015612bf257616b19575b5080600a616ae19201616ad68154616fa0565b905561221e83618145565b7f44849f20f838da9fe80376187225407241012f1e68cd69585c0a3ab96c796bb18280a260015f80516020618b738339815191525580f35b616b24919350616c41565b5f91616ae1616ac3565b634e487b7160e01b5f52602160045260245ffd5b6064906040519062461bcd60e51b8252600482015260156024820152744b533a2064656c697665727920646561646c696e6560581b6044820152fd5b9050145f146158f357815f52601581526001600160401b0360405f205416620151808101809111611b3f57616bb590421015616e98565b616a16565b346111a7575f3660031901126111a7578069d3c21bcecceda100000060209252f35b9181601f840112156111a7578235916001600160401b0383116111a757602083818601950101116111a757565b90600182811c92168015616c37575b6020831014616c2357565b634e487b7160e01b5f52602260045260245ffd5b91607f1691616c18565b6001600160401b0381116164d457604052565b61016081019081106001600160401b038211176164d457604052565b60c081019081106001600160401b038211176164d457604052565b604081019081106001600160401b038211176164d457604052565b90601f801991011681019081106001600160401b038211176164d457604052565b9060405191825f8254616cd981616c09565b908184526020946001916001811690815f14616d475750600114616d09575b505050616d0792500383616ca6565b565b5f90815285812095935091905b818310616d2f575050616d0793508201015f8080616cf8565b85548884018501529485019487945091830191616d16565b92505050616d0794925060ff191682840152151560051b8201015f8080616cf8565b5f5b838110616d7a5750505f910152565b8181015183820152602001616d6b565b90602091616da381518092818552858086019101616d69565b601f01601f1916010190565b600435906001600160a01b03821682036111a757565b602435906001600160a01b03821682036111a757565b6001600160401b0381116164d457601f01601f191660200190565b929192616e0282616ddb565b91616e106040519384616ca6565b8294818452818301116111a7578281602093845f960137010152565b906009821015616b2e5752565b906003821015616b2e5752565b9060606003198301126111a75760043591602435906001600160401b0382116111a757616e7591600401616bdc565b909160443590565b346111a7575f3660031901126111a757602060405160328152f35b15616e9f57565b60405162461bcd60e51b815260206004820152601760248201527f4b533a20726564656c697665727920646561646c696e650000000000000000006044820152606490fd5b15616eeb57565b60405162461bcd60e51b81526020600482015260156024820152744b533a20726573706f6e736520646561646c696e6560581b6044820152606490fd5b15616f2f57565b60405162461bcd60e51b815260206004820152600d60248201526c25a99d103737ba10313abcb2b960991b6044820152606490fd5b15616f6b57565b60405162461bcd60e51b815260206004820152600d60248201526c12d4ce8819195b1a5d995c9959609a1b6044820152606490fd5b8015611b3f575f190190565b519081151582036111a757565b15616fc057565b60405162461bcd60e51b815260206004820152600b60248201526a12d4ce881a5b9d985b1a5960aa1b6044820152606490fd5b156158f357565b81601f820112156111a757805161701081616ddb565b9261701e6040519485616ca6565b818452602082840101116111a75761703c9160208085019101616d69565b90565b519060ff821682036111a757565b6020818303126111a75780516001600160401b03918282116111a75701906101209283838203126111a757604051938401848110838211176164d45760405282518281116111a757816170a1918501616ffa565b845260208301519182116111a7576170ba918301616ffa565b602083015260408101516001600160a01b03811681036111a75760408301526170e56060820161703f565b60608301526080810151608083015260a081015160a083015260c081015160c083015261711460e08201616fac565b60e0830152617127610100809201616fac565b9082015290565b1561713557565b60405162461bcd60e51b815260206004820152600e60248201526d25a99d103737ba1039b2b63632b960911b6044820152606490fd5b1561717257565b60405162461bcd60e51b815260206004820152600e60248201526d4b533a206e6f742061637469766560901b6044820152606490fd5b156171af57565b60405162461bcd60e51b815260206004820152601260248201527125a99d103737ba10383934bb30ba32903b1960711b6044820152606490fd5b156171f057565b60405162461bcd60e51b815260206004820152601260248201527112d4ce881b9bdd081c9959da5cdd195c995960721b6044820152606490fd5b1561723157565b60405162461bcd60e51b815260206004820152601460248201527312d4ce8818db19585c881919589d08199a5c9cdd60621b6044820152606490fd5b1561727457565b60405162461bcd60e51b815260206004820152600e60248201526d12d4ce881d1a5d1b19480ccb4d8d60921b6044820152606490fd5b156172b157565b60405162461bcd60e51b815260206004820152600f60248201526e4b533a2070726963652072616e676560881b6044820152606490fd5b156172ef57565b60405162461bcd60e51b815260206004820152600b60248201526a4b533a2072657374696e6760a81b6044820152606490fd5b1561732957565b60405162461bcd60e51b815260206004820152601560248201527412d4ce88191d5c1b1a58d85d194818dbdb9d195b9d605a1b6044820152606490fd5b1561736d57565b60405162461bcd60e51b81526020600482015260166024820152754b533a20696e73756666696369656e74207374616b6560501b6044820152606490fd5b5f198114611b3f5760010190565b601f82116173c657505050565b5f5260205f20906020601f840160051c830193106173fe575b601f0160051c01905b8181106173f3575050565b5f81556001016173e8565b90915081906173df565b908060209392818452848401375f828201840152601f01601f1916010190565b1561742f57565b60405162461bcd60e51b81526020600482015260116024820152704b533a2073656c662d707572636861736560781b6044820152606490fd5b1561746f57565b60405162461bcd60e51b815260206004820152602260248201527f4b533a207265766965772070656e64696e6720707572636861736573206669726044820152611cdd60f21b6064820152608490fd5b156174c657565b60405162461bcd60e51b815260206004820152601560248201527412d4ce88185b1c9958591e481c1d5c98da185cd959605a1b6044820152606490fd5b1561750a57565b60405162461bcd60e51b815260206004820152601460248201527312d4ce881a5b9cdd59999a58da595b9d0810d2d560621b6044820152606490fd5b91908203918211611b3f57565b5f80516020618b7383398151915260028154146175705760029055565b604051633ee5aeb560e01b8152600490fd5b60ff5f80516020618b53833981519152541661759a57565b60405163d93c066560e01b8152600490fd5b156175b357565b60405162461bcd60e51b815260206004820152601560248201527412d4ce88185b1c9958591e48199a5b985b1a5e9959605a1b6044820152606490fd5b6175f861898c565b6001600160a01b03165f8181527fb7db2dd08fcb62d0c9e08c51941cae53c267786a0b75803fb7960902fc8ef97d602052604090205460ff16156176395750565b6044906040519063e2517d3f60e01b825260048201525f6024820152fd5b61765f61898c565b90805f525f80516020618b3383398151915260205260405f209160018060a01b031691825f5260205260ff60405f20541615617699575050565b604492506040519163e2517d3f60e01b835260048301526024820152fd5b6001600160a01b039081165f8181527fb7db2dd08fcb62d0c9e08c51941cae53c267786a0b75803fb7960902fc8ef97d60205260409020549091905f80516020618b338339815191529060ff1661775b575f805260205260405f20825f5260205260405f20600160ff1982541617905561772f61898c565b16905f7f2f8788117e7eff1d82e926ec794901d17c78024a50270940304540a733656f0d8180a4600190565b5050505f90565b5f8181525f80516020618b33833981519152602081815260408084206001600160a01b039687168086529252909220549293919260ff166177ef57835f5260205260405f20825f5260205260405f20600160ff198254161790556177c461898c565b16917f2f8788117e7eff1d82e926ec794901d17c78024a50270940304540a733656f0d5f80a4600190565b505050505f90565b5f91603281029080820460321490151715611b3f5760649004600682018054908183105f14617d155782915b8280617c00575b9050839150106179ef575b505060015481546001600160a01b0390811692918116803b156110d1578480916024604096875194859384926322eb7bdb60e11b845260048401525af180156179a9579085916179db575b5050806001541681835416813b15611119578591602483928751948593849263d0542f9760e01b845260048401525af180156179a9579085916179c7575b5050806001541681835416813b1561111957859160248392875194859384926317517f8d60e31b845260048401525af180156179a9579085916179b3575b5050806001541681835416813b156111195785916024839287519485938492630f5d255560e41b845260048401525af180156179a957908591617995575b50508060015416915416813b1561077f578291602485949285935195869384926313fb5ea760e01b845260048401525af190811561798c575061797b575050565b6179858291616c41565b6103e35750565b513d84823e3d90fd5b61799e90616c41565b61077f57835f61793a565b84513d87823e3d90fd5b6179bc90616c41565b61077f57835f6178fc565b6179d090616c41565b61077f57835f6178be565b6179e490616c41565b61077f57835f617880565b6179f891617546565b82548254604080516370a0823160e01b81526001600160a01b0392831660048201819052919493831693602091908282602481895afa918215617bf6578992617bc7575b508651636eb1769f60e11b81526001600160a01b03851660048201523060248201529183836044818a5afa928315617bbd578a93617b8e575b5080821015617b865750905b80821015617b7e5750935b84617a9b575b50505050617835565b85516323b872dd60e01b81526001600160a01b03939093166004840152306024840152604483018590528190839060649082908b905af18015617b7457617b40575b505084541690813b156110d157829160248694928593519586938492630852cd8d60e31b845260048401525af1908115617b375750908391617b23575b80808080617a92565b617b2c90616c41565b61055257815f617b1a565b513d85823e3d90fd5b81813d8311617b6d575b617b548183616ca6565b8101031261111957617b6590616fac565b505f80617add565b503d617b4a565b85513d89823e3d90fd5b905093617a8c565b905090617a81565b9092508381813d8311617bb6575b617ba68183616ca6565b810103126111a75751915f617a75565b503d617b9c565b88513d8c823e3d90fd5b9091508281813d8311617bef575b617bdf8183616ca6565b810103126111a75751905f617a3c565b503d617bd5565b87513d8b823e3d90fd5b617c0991617546565b905560015483546001600160a01b0391908216908216803b156111a7576040516334673ec560e11b81526001600160a01b03929092166004830152602482018490525f908290604490829084905af18015612bf257617d02575b5080855416803b1561111957858091602460405180948193630852cd8d60e31b83528860048401525af1801561112557908691617cee575b50506005840154617cdf5784905b845416907fba00be99b4ba100b19f2c080160ab22c2b8f4d62027d6524c532e7578d7a43b46020604051858152a35f808261782a565b617ce8846189e5565b90617ca9565b617cf790616c41565b6110d157845f617c9b565b617d0d919550616c41565b5f935f617c63565b81617823565b908215617e9e576104008311617e5957617d36368483616df6565b9283516020809501208503617e1457825f526010845260405f20916001600160401b0382116164d457617d6d826162c28554616c09565b5f90601f8311600114617dad579180617da0926011979695945f92612c115750508160011b915f199060031b1c19161790565b90555b5f525260405f2055565b601f19831691845f52865f20925f5b818110617dfd57509160019391856011999897969410617de4575b505050811b019055617da3565b01355f19600384901b60f8161c191690555f8080617dd7565b919388600181928787013581550195019201617dbc565b60405162461bcd60e51b815260048101859052601d60248201527f4b533a2077726170706564206b65792068617368206d69736d617463680000006044820152606490fd5b60405162461bcd60e51b815260206004820152601960248201527f4b533a2077726170706564206b657920746f6f206c61726765000000000000006044820152606490fd5b60405162461bcd60e51b81526020600482015260156024820152744b533a20656d7074792077726170706564206b657960581b6044820152606490fd5b601481029080820460141490151715611b3f5760649004678ac7230489e800008110617f045790565b60405162461bcd60e51b815260206004820152601460248201527312d4ce881b5a5b881cdd185ad9480c4c0810d2d560621b6044820152606490fd5b805f526020906010825260405f209260405180945f908054617f6181616c09565b91828552600191886001821691825f14618012575050600114617fd3575b50505060ff9291617f91910386616ca6565b169160018314617fb2575050600214617fa957505f90565b61040090511190565b9150915115918215617fc357505090565b601192505f525260405f20541590565b8793505f92919252825f20915f925b828410617ffa5750505082010181617f9160ff617f7f565b8054848b018601528995508894909301928101617fe2565b60ff19168782015293151560051b86019093019350849250617f91915060ff9050617f7f565b600581029080820460051490151715611b3f576103e89004670de0b6b3a76400008082106180765750683635c9adc5dea00000808211618076575090565b905090565b8060021b91811592828104600414841715611b3f5760649004928280046001141715611b3f5761703c826180b56064869504948592617546565b617546565b5f8181525f80516020618b33833981519152602081815260408084206001600160a01b039687168086529252909220549293919260ff16156177ef57835f5260205260405f20825f5260205260405f2060ff19815416905561811a61898c565b16917ff6391f5c32d9c69d2a47ea670b442974b53935d1edc7fd64eb21e047a839171b5f80a4600190565b90815f52602091601d835260409260ff845f205416618211575f828152601d8252848120805460ff191660011790556008825284812081548154600290920154875163a9059cbb60e01b81526001600160a01b03938416600482015260248101919091529596928492879260449284929091165af190811561820857506181d2575b50616d079150618474565b82813d8311618201575b6181e68183616ca6565b810103126111a7576181fa616d0792616fac565b505f6181c7565b503d6181dc565b513d5f823e3d90fd5b60649084519062461bcd60e51b82526004820152601360248201527212d4ce881c99599d5b99081c995b19585cd959606a1b6044820152fd5b805f526020601c8152604060ff815f20541661846f5760088252805f209260018401545f52600683526002825f2094015460018060a01b039182600154165f84885416602487518094819363fb3551ff60e01b835260048301525afa908115618465579060e0915f9161844b575b500151151580618442575b61836a575b5f52601c8452825f20600160ff19825416179055806182e9575b5050505050565b5f80549554845163a9059cbb60e01b81529084166001600160a01b0316600482015260248101929092529094849286926044928492165af19081156182085750618336575b8080806182e2565b81813d8311618363575b61834a8183616ca6565b810103126111a75761835b90616fac565b505f8061832e565b503d618340565b6032820282810460321483151715611b3f57606461838a91048093617546565b5f8054600354875163a9059cbb60e01b81529087166001600160a01b031660048201526024810186905292949291889183916044918391908a165af1801561843857618404575b507ff5f01754584f438c12bcb34b8c17451066251095c28d277f3966dca00bf054a18685895416928751908152a26182c8565b8681813d8311618431575b6184198183616ca6565b810103126111a75761842a90616fac565b505f6183d1565b503d61840f565b86513d5f823e3d90fd5b508115156182c3565b61845f91503d805f833e6108ad8183616ca6565b5f6182b8565b85513d5f823e3d90fd5b505050565b5f5260206019815260405f2054908115618503575f805460088352604080832054905163a9059cbb60e01b81526001600160a01b039182166004820152602481019590955283928592604492849291165af18015612bf2576184d4575050565b81813d83116184fc575b6184e88183616ca6565b810103126111a7576184f990616fac565b50565b503d6184de565b5050565b805f5260209060198252604090815f20549384156182e25715618579575f80549181526008845282812054835163a9059cbb60e01b81526001600160a01b039182166004820152602481019690965284928692911690829081604481015b03925af190811561820857506184d4575050565b505f8054600354835163a9059cbb60e01b81526001600160a01b0391821660048201526024810196909652849286929091169082908160448101618565565b5f90805f526020906018825260409260ff845f205416618986576017835260ff845f205416156189865760088352835f209360018501545f5260068452805f209460018060a01b0380809254169654169481600154169183519463ecfba34360e01b865260049589878201528381602481885afa908115618438575f91618951575b50156188d357845163fb3551ff60e01b8082528782018b9052905f81602481895afa90811561892d57849188915f91618937575b5001511690865190815289888201525f81602481895afa90811561892d57849188915f91618913575b50015116146188d357845163152e98e760e21b81526001600160a01b03808a16888301908152908b1660208201528490829081906040010381885afa908115618438575f916188de575b506188d357865f52601b8352845f205493803b156111a757855163ada91a1760e01b81526001600160a01b03808b16828a01908152908c1660208201526040810187905290915f9183919082908490829060600103925af18015618438576188c2575b5080918060025416908115159081618841575b506187a4575b5086815260188352849020805460ff1916600117905583519283521515908201527f381d78290492cac4ca2b6091d55d10b1aa34fc1a4bf5a400826638d0f4e7646d9250a4565b8092509590929394953b156106f7578551634eeb702960e01b81526001600160a01b0389169181019182526020820186905291839183919082908490829060400103925af1801561883757618823575b507f381d78290492cac4ca2b6091d55d10b1aa34fc1a4bf5a400826638d0f4e7646d939291906001908461875d565b61882d8291616c41565b6103e3575f6187f4565b85513d84823e3d90fd5b905060015416848a6024895180948193635a2d572960e11b83528d8301525afa9081156188b857839161887e575b5060ff6002911610155f618757565b90508481813d83116188b1575b6188958183616ca6565b810103126106f75760ff6188aa60029261703f565b915061886f565b503d61888b565b87513d85823e3d90fd5b6188cc9150616c41565b5f80618744565b505050505050505050565b90508381813d831161890c575b6188f58183616ca6565b810103126111a75761890690616fac565b5f6186e1565b503d6188eb565b61892791503d805f833e6108ad8183616ca6565b5f618697565b87513d5f823e3d90fd5b61894b91503d805f833e6108ad8183616ca6565b5f61866e565b90508381813d831161897f575b6189688183616ca6565b810103126111a75761897990616fac565b5f61863a565b503d61895e565b50505050565b6014361015806189b3575b156189af5760131936013681116111a7573560601c90565b3390565b50337f00000000000000000000000000000000000000000000000000000000000000006001600160a01b031614618997565b60058054915f5b8381106189fb57505050505f90565b5f818152600660205260409020805483546001600160a01b0390811691161490849082618a4e575b82618a3e575b5050618a37576001016189ec565b9250505090565b015483850154149050835f618a29565b60088082015490860154149250618a23565b60ff7ff0c57e16840df040f15088dc2f81fe391c3923bec73e23a9662efc9c229c6a005460401c1615618a8f57565b604051631afcd79f60e31b8152600490fd5b905f8091602081519101845af48080618b1f575b15618ad55750506040513d81523d5f602083013e60203d82010160405290565b15618afc57604051639996b31560e01b81526001600160a01b039091166004820152602490fd5b3d15618b0d576040513d5f823e3d90fd5b60405163d6bda27560e01b8152600490fd5b503d151580618ab55750813b1515618ab556fe02dd7bc7dec4dceedda775e58dd541e08a116c6c53815c0bd028192f7b626800cd5ed15c6e187e77e9aee88184c21f4f2182ab5827cb3b7e07fbedcd63f033009b779b17422d0df92223018b32b4d1fa46e071723d6817e2486d003becc55f00a26469706673582212201895a189be5a2f0cbcfa854c097c5311cb5768d8d958f9999b4492f6c220417e64736f6c63430008180033","linkReferences":{}},"methodIdentifiers":{"AUTO_REVIEW_PERIOD()":"0e327030","BURN_PERCENT()":"9c986764","BUYER_RESPONSE_DEADLINE()":"93407b1f","DEBT_DEDUCTION_PERCENT()":"a4ede5eb","DEFAULT_ADMIN_ROLE()":"a217fddf","DELIVERY_DEADLINE()":"16b5219e","FEE_PERCENT()":"eaf98d23","MAX_PRICE()":"01c11d96","MAX_WRAPPED_KEY_BYTES()":"0fc18454","MIN_PRICE()":"ad9f20a6","OBJECTIVE_REASON_EMPTY_WRAPPED_KEY()":"2c1271c3","OBJECTIVE_REASON_OVERSIZED_WRAPPED_KEY()":"2be67c4f","OWNER_PERCENT()":"2e1371bd","PROTOCOL_ROLE()":"02768de4","SLASH_PERCENT()":"f6e8913d","STAKE_PERCENT()":"61c2649e","UPGRADE_INTERFACE_VERSION()":"ad3cb1cc","acceptDelivery(uint256)":"7b422c4c","buyerBondAmount(uint256)":"f5c0b48c","buyerBondForfeited(uint256)":"1f175594","buyerPurchases(bytes32)":"ac8919c9","challengeDeliveryObjective(uint256,uint8,bytes32)":"c8e9ab4a","challengeDeliverySubjective(uint256,bytes32)":"f086075a","challengedAt(uint256)":"4a044932","ciphertextHash(uint256)":"02b9bc63","ckt()":"79021310","claimUndelivered(uint256)":"42ad6930","contentHashExists(bytes32)":"5f7668ce","creditApplied(uint256)":"a8ad0daa","deactivate(uint256)":"916b9bef","deliverEncryptedKey(uint256,bytes,bytes32)":"97a4bb23","deliverKey(uint256)":"fc4126df","deliveredAt(uint256)":"d11ac988","deliveryAttemptCount(uint256)":"8c5b2293","deliveryState(uint256)":"99dc8654","explicitReviewSubmitted(uint256)":"75e1cf24","explicitSellerScoreByPurchase(uint256)":"2128a4bc","feeRecipient()":"46904840","finalizeCleanTimeout(uint256)":"29125ebb","finalizeUndelivered(uint256)":"01d7b245","forceDeactivateAndBurnStake(uint256)":"5689cbba","getKnowledge(uint256)":"28e7b2a6","getPrivateKnowledgeMeta(uint256)":"91722912","getPurchase(uint256)":"3742a9f7","getPurchaseDeliveryState(uint256)":"5cb84518","getRoleAdmin(bytes32)":"248a9ca3","getWrappedKey(uint256)":"fe7992c2","grantRole(bytes32,address)":"2f2ff15d","hasRole(bytes32,address)":"91d14854","initialize(address,address,address)":"c0c53b8b","isTrustedForwarder(address)":"572b6c05","knowledgeItems(uint256)":"1018c5f9","knowledgeMode(uint256)":"7e92b854","list(string,string,uint256,string,bytes32)":"a07dcd46","listPrivateKnowledge(string,string,uint256,string,string,bytes32,bytes32)":"0ab254af","listPublicKnowledgeV2(string,string,uint256,string,string,bytes32)":"b7a17a9d","nextKnowledgeId()":"310f1371","nextPurchaseId()":"23b4a7a3","pause()":"8456cb59","paused()":"5c975abb","payoutReleased(uint256)":"7021f1a3","proxiableUUID()":"52d1902d","purchase(uint256)":"efef39a1","purchaseDeliveryConfigSnapshot(uint256)":"3b0ecb61","purchaseKnowledgeV2(uint256)":"d468fec6","purchases(uint256)":"8392fe31","redeliverEncryptedKey(uint256,bytes,bytes32)":"ceea2f5a","redeliveredAt(uint256)":"927f9c99","refundReleased(uint256)":"77c50e9d","registry()":"7b103999","renounceRole(bytes32,address)":"36568abe","reputationContract()":"87bc1425","review(uint256,uint256,uint256)":"8ddad6ac","revokeRole(bytes32,address)":"d547741f","setFeeRecipient(address)":"e74b981b","setReputationContract(address)":"9584660f","setTempoReward(address)":"1b32008f","supportsInterface(bytes4)":"01ffc9a7","tempoReward()":"39d006cb","triggerAutoReview(uint256)":"4d20372e","trustedForwarder()":"7da0a877","unpause()":"3f4ba83a","upgradeToAndCall(address,bytes)":"4f1ef286","wrappedKeyHashByPurchase(uint256)":"fece90f5"},"id":53}