{
  "abi": [
    {
      "inputs": [
        {
          "internalType": "address",
          "name": "trustedForwarder",
          "type": "address"
        }
      ],
      "stateMutability": "nonpayable",
      "type": "constructor"
    },
    {
      "inputs": [],
      "name": "AccessControlBadConfirmation",
      "type": "error"
    },
    {
      "inputs": [
        {
          "internalType": "address",
          "name": "account",
          "type": "address"
        },
        {
          "internalType": "bytes32",
          "name": "neededRole",
          "type": "bytes32"
        }
      ],
      "name": "AccessControlUnauthorizedAccount",
      "type": "error"
    },
    {
      "inputs": [
        {
          "internalType": "address",
          "name": "target",
          "type": "address"
        }
      ],
      "name": "AddressEmptyCode",
      "type": "error"
    },
    {
      "inputs": [
        {
          "internalType": "address",
          "name": "implementation",
          "type": "address"
        }
      ],
      "name": "ERC1967InvalidImplementation",
      "type": "error"
    },
    {
      "inputs": [],
      "name": "ERC1967NonPayable",
      "type": "error"
    },
    {
      "inputs": [],
      "name": "EnforcedPause",
      "type": "error"
    },
    {
      "inputs": [],
      "name": "ExpectedPause",
      "type": "error"
    },
    {
      "inputs": [],
      "name": "FailedCall",
      "type": "error"
    },
    {
      "inputs": [],
      "name": "InvalidInitialization",
      "type": "error"
    },
    {
      "inputs": [],
      "name": "NotInitializing",
      "type": "error"
    },
    {
      "inputs": [],
      "name": "ReentrancyGuardReentrantCall",
      "type": "error"
    },
    {
      "inputs": [],
      "name": "UUPSUnauthorizedCallContext",
      "type": "error"
    },
    {
      "inputs": [
        {
          "internalType": "bytes32",
          "name": "slot",
          "type": "bytes32"
        }
      ],
      "name": "UUPSUnsupportedProxiableUUID",
      "type": "error"
    },
    {
      "anonymous": false,
      "inputs": [
        {
          "indexed": true,
          "internalType": "uint256",
          "name": "purchaseId",
          "type": "uint256"
        }
      ],
      "name": "AutoReviewApplied",
      "type": "event"
    },
    {
      "anonymous": false,
      "inputs": [
        {
          "indexed": true,
          "internalType": "address",
          "name": "seller",
          "type": "address"
        },
        {
          "indexed": false,
          "internalType": "uint256",
          "name": "amount",
          "type": "uint256"
        }
      ],
      "name": "DebtDeducted",
      "type": "event"
    },
    {
      "anonymous": false,
      "inputs": [
        {
          "indexed": false,
          "internalType": "uint64",
          "name": "version",
          "type": "uint64"
        }
      ],
      "name": "Initialized",
      "type": "event"
    },
    {
      "anonymous": false,
      "inputs": [
        {
          "indexed": true,
          "internalType": "uint256",
          "name": "id",
          "type": "uint256"
        }
      ],
      "name": "KnowledgeDeactivated",
      "type": "event"
    },
    {
      "anonymous": false,
      "inputs": [
        {
          "indexed": true,
          "internalType": "uint256",
          "name": "purchaseId",
          "type": "uint256"
        },
        {
          "indexed": true,
          "internalType": "address",
          "name": "seller",
          "type": "address"
        }
      ],
      "name": "KnowledgeDelivered",
      "type": "event"
    },
    {
      "anonymous": false,
      "inputs": [
        {
          "indexed": true,
          "internalType": "uint256",
          "name": "id",
          "type": "uint256"
        },
        {
          "indexed": true,
          "internalType": "address",
          "name": "seller",
          "type": "address"
        },
        {
          "indexed": false,
          "internalType": "string",
          "name": "title",
          "type": "string"
        },
        {
          "indexed": false,
          "internalType": "uint256",
          "name": "price",
          "type": "uint256"
        },
        {
          "indexed": false,
          "internalType": "string",
          "name": "tags",
          "type": "string"
        }
      ],
      "name": "KnowledgeListed",
      "type": "event"
    },
    {
      "anonymous": false,
      "inputs": [
        {
          "indexed": true,
          "internalType": "uint256",
          "name": "purchaseId",
          "type": "uint256"
        },
        {
          "indexed": true,
          "internalType": "uint256",
          "name": "knowledgeId",
          "type": "uint256"
        },
        {
          "indexed": true,
          "internalType": "address",
          "name": "buyer",
          "type": "address"
        },
        {
          "indexed": false,
          "internalType": "uint256",
          "name": "price",
          "type": "uint256"
        }
      ],
      "name": "KnowledgePurchased",
      "type": "event"
    },
    {
      "anonymous": false,
      "inputs": [
        {
          "indexed": true,
          "internalType": "uint256",
          "name": "purchaseId",
          "type": "uint256"
        },
        {
          "indexed": false,
          "internalType": "uint256",
          "name": "productScore",
          "type": "uint256"
        },
        {
          "indexed": false,
          "internalType": "uint256",
          "name": "sellerScore",
          "type": "uint256"
        }
      ],
      "name": "KnowledgeReviewed",
      "type": "event"
    },
    {
      "anonymous": false,
      "inputs": [
        {
          "indexed": true,
          "internalType": "uint256",
          "name": "knowledgeId",
          "type": "uint256"
        },
        {
          "indexed": false,
          "internalType": "uint256",
          "name": "maxSales",
          "type": "uint256"
        }
      ],
      "name": "KnowledgeSaleLimitSet",
      "type": "event"
    },
    {
      "anonymous": false,
      "inputs": [
        {
          "indexed": true,
          "internalType": "uint256",
          "name": "knowledgeId",
          "type": "uint256"
        },
        {
          "indexed": true,
          "internalType": "address",
          "name": "operator",
          "type": "address"
        }
      ],
      "name": "KnowledgeSalesReopened",
      "type": "event"
    },
    {
      "anonymous": false,
      "inputs": [
        {
          "indexed": true,
          "internalType": "uint256",
          "name": "knowledgeId",
          "type": "uint256"
        },
        {
          "indexed": true,
          "internalType": "address",
          "name": "operator",
          "type": "address"
        }
      ],
      "name": "KnowledgeSalesStopped",
      "type": "event"
    },
    {
      "anonymous": false,
      "inputs": [
        {
          "indexed": false,
          "internalType": "address",
          "name": "account",
          "type": "address"
        }
      ],
      "name": "Paused",
      "type": "event"
    },
    {
      "anonymous": false,
      "inputs": [
        {
          "indexed": true,
          "internalType": "uint256",
          "name": "purchaseId",
          "type": "uint256"
        },
        {
          "indexed": true,
          "internalType": "uint256",
          "name": "knowledgeId",
          "type": "uint256"
        },
        {
          "indexed": true,
          "internalType": "address",
          "name": "buyer",
          "type": "address"
        },
        {
          "indexed": false,
          "internalType": "uint256",
          "name": "refundAmount",
          "type": "uint256"
        },
        {
          "indexed": false,
          "internalType": "uint256",
          "name": "bondRefundAmount",
          "type": "uint256"
        },
        {
          "indexed": false,
          "internalType": "uint8",
          "name": "reason",
          "type": "uint8"
        }
      ],
      "name": "PrivatePurchaseRescued",
      "type": "event"
    },
    {
      "anonymous": false,
      "inputs": [
        {
          "indexed": true,
          "internalType": "bytes32",
          "name": "role",
          "type": "bytes32"
        },
        {
          "indexed": true,
          "internalType": "bytes32",
          "name": "previousAdminRole",
          "type": "bytes32"
        },
        {
          "indexed": true,
          "internalType": "bytes32",
          "name": "newAdminRole",
          "type": "bytes32"
        }
      ],
      "name": "RoleAdminChanged",
      "type": "event"
    },
    {
      "anonymous": false,
      "inputs": [
        {
          "indexed": true,
          "internalType": "bytes32",
          "name": "role",
          "type": "bytes32"
        },
        {
          "indexed": true,
          "internalType": "address",
          "name": "account",
          "type": "address"
        },
        {
          "indexed": true,
          "internalType": "address",
          "name": "sender",
          "type": "address"
        }
      ],
      "name": "RoleGranted",
      "type": "event"
    },
    {
      "anonymous": false,
      "inputs": [
        {
          "indexed": true,
          "internalType": "bytes32",
          "name": "role",
          "type": "bytes32"
        },
        {
          "indexed": true,
          "internalType": "address",
          "name": "account",
          "type": "address"
        },
        {
          "indexed": true,
          "internalType": "address",
          "name": "sender",
          "type": "address"
        }
      ],
      "name": "RoleRevoked",
      "type": "event"
    },
    {
      "anonymous": false,
      "inputs": [
        {
          "indexed": true,
          "internalType": "uint256",
          "name": "knowledgeId",
          "type": "uint256"
        },
        {
          "indexed": true,
          "internalType": "address",
          "name": "seller",
          "type": "address"
        },
        {
          "indexed": false,
          "internalType": "uint256",
          "name": "slashedAmount",
          "type": "uint256"
        }
      ],
      "name": "StakeSlashed",
      "type": "event"
    },
    {
      "anonymous": false,
      "inputs": [
        {
          "indexed": false,
          "internalType": "address",
          "name": "account",
          "type": "address"
        }
      ],
      "name": "Unpaused",
      "type": "event"
    },
    {
      "anonymous": false,
      "inputs": [
        {
          "indexed": true,
          "internalType": "address",
          "name": "implementation",
          "type": "address"
        }
      ],
      "name": "Upgraded",
      "type": "event"
    },
    {
      "anonymous": false,
      "inputs": [
        {
          "indexed": true,
          "internalType": "address",
          "name": "module",
          "type": "address"
        }
      ],
      "name": "V2ModuleUpdated",
      "type": "event"
    },
    {
      "inputs": [],
      "name": "AUTO_REVIEW_PERIOD",
      "outputs": [
        {
          "internalType": "uint256",
          "name": "",
          "type": "uint256"
        }
      ],
      "stateMutability": "view",
      "type": "function"
    },
    {
      "inputs": [],
      "name": "BURN_PERCENT",
      "outputs": [
        {
          "internalType": "uint256",
          "name": "",
          "type": "uint256"
        }
      ],
      "stateMutability": "view",
      "type": "function"
    },
    {
      "inputs": [],
      "name": "DEBT_DEDUCTION_PERCENT",
      "outputs": [
        {
          "internalType": "uint256",
          "name": "",
          "type": "uint256"
        }
      ],
      "stateMutability": "view",
      "type": "function"
    },
    {
      "inputs": [],
      "name": "DEFAULT_ADMIN_ROLE",
      "outputs": [
        {
          "internalType": "bytes32",
          "name": "",
          "type": "bytes32"
        }
      ],
      "stateMutability": "view",
      "type": "function"
    },
    {
      "inputs": [],
      "name": "DELIVERY_DEADLINE",
      "outputs": [
        {
          "internalType": "uint256",
          "name": "",
          "type": "uint256"
        }
      ],
      "stateMutability": "view",
      "type": "function"
    },
    {
      "inputs": [],
      "name": "FEE_PERCENT",
      "outputs": [
        {
          "internalType": "uint256",
          "name": "",
          "type": "uint256"
        }
      ],
      "stateMutability": "view",
      "type": "function"
    },
    {
      "inputs": [],
      "name": "MAX_PRICE",
      "outputs": [
        {
          "internalType": "uint256",
          "name": "",
          "type": "uint256"
        }
      ],
      "stateMutability": "view",
      "type": "function"
    },
    {
      "inputs": [],
      "name": "MIN_PRICE",
      "outputs": [
        {
          "internalType": "uint256",
          "name": "",
          "type": "uint256"
        }
      ],
      "stateMutability": "view",
      "type": "function"
    },
    {
      "inputs": [],
      "name": "OWNER_PERCENT",
      "outputs": [
        {
          "internalType": "uint256",
          "name": "",
          "type": "uint256"
        }
      ],
      "stateMutability": "view",
      "type": "function"
    },
    {
      "inputs": [],
      "name": "PROTOCOL_ROLE",
      "outputs": [
        {
          "internalType": "bytes32",
          "name": "",
          "type": "bytes32"
        }
      ],
      "stateMutability": "view",
      "type": "function"
    },
    {
      "inputs": [],
      "name": "SLASH_PERCENT",
      "outputs": [
        {
          "internalType": "uint256",
          "name": "",
          "type": "uint256"
        }
      ],
      "stateMutability": "view",
      "type": "function"
    },
    {
      "inputs": [],
      "name": "STAKE_PERCENT",
      "outputs": [
        {
          "internalType": "uint256",
          "name": "",
          "type": "uint256"
        }
      ],
      "stateMutability": "view",
      "type": "function"
    },
    {
      "inputs": [],
      "name": "UNDELIVERY_REP_PENALTY",
      "outputs": [
        {
          "internalType": "int256",
          "name": "",
          "type": "int256"
        }
      ],
      "stateMutability": "view",
      "type": "function"
    },
    {
      "inputs": [],
      "name": "UPGRADE_INTERFACE_VERSION",
      "outputs": [
        {
          "internalType": "string",
          "name": "",
          "type": "string"
        }
      ],
      "stateMutability": "view",
      "type": "function"
    },
    {
      "inputs": [
        {
          "internalType": "uint256",
          "name": "purchaseId",
          "type": "uint256"
        }
      ],
      "name": "acceptDelivery",
      "outputs": [],
      "stateMutability": "nonpayable",
      "type": "function"
    },
    {
      "inputs": [
        {
          "internalType": "uint256",
          "name": "",
          "type": "uint256"
        }
      ],
      "name": "buyerBondAmount",
      "outputs": [
        {
          "internalType": "uint256",
          "name": "",
          "type": "uint256"
        }
      ],
      "stateMutability": "view",
      "type": "function"
    },
    {
      "inputs": [
        {
          "internalType": "uint256",
          "name": "",
          "type": "uint256"
        }
      ],
      "name": "buyerBondForfeited",
      "outputs": [
        {
          "internalType": "bool",
          "name": "",
          "type": "bool"
        }
      ],
      "stateMutability": "view",
      "type": "function"
    },
    {
      "inputs": [
        {
          "internalType": "bytes32",
          "name": "",
          "type": "bytes32"
        }
      ],
      "name": "buyerPurchases",
      "outputs": [
        {
          "internalType": "uint256",
          "name": "",
          "type": "uint256"
        }
      ],
      "stateMutability": "view",
      "type": "function"
    },
    {
      "inputs": [
        {
          "internalType": "uint256",
          "name": "purchaseId",
          "type": "uint256"
        },
        {
          "internalType": "uint8",
          "name": "reasonCode",
          "type": "uint8"
        },
        {
          "internalType": "bytes32",
          "name": "evidenceHash",
          "type": "bytes32"
        }
      ],
      "name": "challengeDeliveryObjective",
      "outputs": [],
      "stateMutability": "nonpayable",
      "type": "function"
    },
    {
      "inputs": [
        {
          "internalType": "uint256",
          "name": "purchaseId",
          "type": "uint256"
        },
        {
          "internalType": "bytes32",
          "name": "evidenceHash",
          "type": "bytes32"
        }
      ],
      "name": "challengeDeliverySubjective",
      "outputs": [],
      "stateMutability": "nonpayable",
      "type": "function"
    },
    {
      "inputs": [
        {
          "internalType": "uint256",
          "name": "",
          "type": "uint256"
        }
      ],
      "name": "challengedAt",
      "outputs": [
        {
          "internalType": "uint64",
          "name": "",
          "type": "uint64"
        }
      ],
      "stateMutability": "view",
      "type": "function"
    },
    {
      "inputs": [
        {
          "internalType": "uint256",
          "name": "",
          "type": "uint256"
        }
      ],
      "name": "ciphertextHash",
      "outputs": [
        {
          "internalType": "bytes32",
          "name": "",
          "type": "bytes32"
        }
      ],
      "stateMutability": "view",
      "type": "function"
    },
    {
      "inputs": [],
      "name": "ckt",
      "outputs": [
        {
          "internalType": "contract CKT",
          "name": "",
          "type": "address"
        }
      ],
      "stateMutability": "view",
      "type": "function"
    },
    {
      "inputs": [
        {
          "internalType": "uint256",
          "name": "purchaseId",
          "type": "uint256"
        }
      ],
      "name": "claimUndelivered",
      "outputs": [],
      "stateMutability": "nonpayable",
      "type": "function"
    },
    {
      "inputs": [
        {
          "internalType": "bytes32",
          "name": "",
          "type": "bytes32"
        }
      ],
      "name": "contentHashExists",
      "outputs": [
        {
          "internalType": "bool",
          "name": "",
          "type": "bool"
        }
      ],
      "stateMutability": "view",
      "type": "function"
    },
    {
      "inputs": [
        {
          "internalType": "uint256",
          "name": "",
          "type": "uint256"
        }
      ],
      "name": "creditApplied",
      "outputs": [
        {
          "internalType": "bool",
          "name": "",
          "type": "bool"
        }
      ],
      "stateMutability": "view",
      "type": "function"
    },
    {
      "inputs": [
        {
          "internalType": "uint256",
          "name": "knowledgeId",
          "type": "uint256"
        }
      ],
      "name": "deactivate",
      "outputs": [],
      "stateMutability": "nonpayable",
      "type": "function"
    },
    {
      "inputs": [
        {
          "internalType": "uint256",
          "name": "purchaseId",
          "type": "uint256"
        },
        {
          "internalType": "bytes",
          "name": "wrappedKey",
          "type": "bytes"
        },
        {
          "internalType": "bytes32",
          "name": "wrappedKeyHash",
          "type": "bytes32"
        }
      ],
      "name": "deliverEncryptedKey",
      "outputs": [],
      "stateMutability": "nonpayable",
      "type": "function"
    },
    {
      "inputs": [
        {
          "internalType": "uint256",
          "name": "purchaseId",
          "type": "uint256"
        }
      ],
      "name": "deliverKey",
      "outputs": [],
      "stateMutability": "nonpayable",
      "type": "function"
    },
    {
      "inputs": [
        {
          "internalType": "uint256",
          "name": "",
          "type": "uint256"
        }
      ],
      "name": "deliveredAt",
      "outputs": [
        {
          "internalType": "uint64",
          "name": "",
          "type": "uint64"
        }
      ],
      "stateMutability": "view",
      "type": "function"
    },
    {
      "inputs": [
        {
          "internalType": "uint256",
          "name": "",
          "type": "uint256"
        }
      ],
      "name": "deliveryAttemptCount",
      "outputs": [
        {
          "internalType": "uint8",
          "name": "",
          "type": "uint8"
        }
      ],
      "stateMutability": "view",
      "type": "function"
    },
    {
      "inputs": [
        {
          "internalType": "uint256",
          "name": "",
          "type": "uint256"
        }
      ],
      "name": "deliveryState",
      "outputs": [
        {
          "internalType": "enum KnowledgeStore.DeliveryState",
          "name": "",
          "type": "uint8"
        }
      ],
      "stateMutability": "view",
      "type": "function"
    },
    {
      "inputs": [
        {
          "internalType": "uint256",
          "name": "",
          "type": "uint256"
        }
      ],
      "name": "explicitReviewSubmitted",
      "outputs": [
        {
          "internalType": "bool",
          "name": "",
          "type": "bool"
        }
      ],
      "stateMutability": "view",
      "type": "function"
    },
    {
      "inputs": [
        {
          "internalType": "uint256",
          "name": "",
          "type": "uint256"
        }
      ],
      "name": "explicitSellerScoreByPurchase",
      "outputs": [
        {
          "internalType": "uint256",
          "name": "",
          "type": "uint256"
        }
      ],
      "stateMutability": "view",
      "type": "function"
    },
    {
      "inputs": [],
      "name": "feeRecipient",
      "outputs": [
        {
          "internalType": "address",
          "name": "",
          "type": "address"
        }
      ],
      "stateMutability": "view",
      "type": "function"
    },
    {
      "inputs": [
        {
          "internalType": "uint256",
          "name": "purchaseId",
          "type": "uint256"
        }
      ],
      "name": "finalizeCleanTimeout",
      "outputs": [],
      "stateMutability": "nonpayable",
      "type": "function"
    },
    {
      "inputs": [
        {
          "internalType": "uint256",
          "name": "purchaseId",
          "type": "uint256"
        }
      ],
      "name": "finalizeUndelivered",
      "outputs": [],
      "stateMutability": "nonpayable",
      "type": "function"
    },
    {
      "inputs": [
        {
          "internalType": "uint256",
          "name": "knowledgeId",
          "type": "uint256"
        }
      ],
      "name": "forceDeactivateAndBurnStake",
      "outputs": [],
      "stateMutability": "nonpayable",
      "type": "function"
    },
    {
      "inputs": [
        {
          "internalType": "uint256",
          "name": "id",
          "type": "uint256"
        }
      ],
      "name": "getKnowledge",
      "outputs": [
        {
          "components": [
            {
              "internalType": "address",
              "name": "seller",
              "type": "address"
            },
            {
              "internalType": "string",
              "name": "title",
              "type": "string"
            },
            {
              "internalType": "string",
              "name": "tags",
              "type": "string"
            },
            {
              "internalType": "uint256",
              "name": "price",
              "type": "uint256"
            },
            {
              "internalType": "string",
              "name": "ipfsCID",
              "type": "string"
            },
            {
              "internalType": "bytes32",
              "name": "contentHash",
              "type": "bytes32"
            },
            {
              "internalType": "uint256",
              "name": "stakeAmount",
              "type": "uint256"
            },
            {
              "internalType": "bool",
              "name": "active",
              "type": "bool"
            },
            {
              "internalType": "uint256",
              "name": "listedAt",
              "type": "uint256"
            },
            {
              "internalType": "uint256",
              "name": "salesCount",
              "type": "uint256"
            },
            {
              "internalType": "uint256",
              "name": "pendingDeliveries",
              "type": "uint256"
            }
          ],
          "internalType": "struct KnowledgeStore.Knowledge",
          "name": "",
          "type": "tuple"
        }
      ],
      "stateMutability": "view",
      "type": "function"
    },
    {
      "inputs": [
        {
          "internalType": "uint256",
          "name": "knowledgeId",
          "type": "uint256"
        }
      ],
      "name": "getPrivateKnowledgeMeta",
      "outputs": [
        {
          "internalType": "string",
          "name": "previewURI",
          "type": "string"
        },
        {
          "internalType": "string",
          "name": "encryptedContentURI",
          "type": "string"
        },
        {
          "internalType": "bytes32",
          "name": "encryptedContentHash",
          "type": "bytes32"
        }
      ],
      "stateMutability": "nonpayable",
      "type": "function"
    },
    {
      "inputs": [
        {
          "internalType": "uint256",
          "name": "id",
          "type": "uint256"
        }
      ],
      "name": "getPurchase",
      "outputs": [
        {
          "components": [
            {
              "internalType": "address",
              "name": "buyer",
              "type": "address"
            },
            {
              "internalType": "uint256",
              "name": "knowledgeId",
              "type": "uint256"
            },
            {
              "internalType": "uint256",
              "name": "paidAmount",
              "type": "uint256"
            },
            {
              "internalType": "uint256",
              "name": "purchasedAt",
              "type": "uint256"
            },
            {
              "internalType": "bool",
              "name": "delivered",
              "type": "bool"
            },
            {
              "internalType": "bool",
              "name": "reviewed",
              "type": "bool"
            }
          ],
          "internalType": "struct KnowledgeStore.Purchase",
          "name": "",
          "type": "tuple"
        }
      ],
      "stateMutability": "view",
      "type": "function"
    },
    {
      "inputs": [
        {
          "internalType": "bytes32",
          "name": "role",
          "type": "bytes32"
        }
      ],
      "name": "getRoleAdmin",
      "outputs": [
        {
          "internalType": "bytes32",
          "name": "",
          "type": "bytes32"
        }
      ],
      "stateMutability": "view",
      "type": "function"
    },
    {
      "inputs": [
        {
          "internalType": "uint256",
          "name": "purchaseId",
          "type": "uint256"
        }
      ],
      "name": "getWrappedKey",
      "outputs": [
        {
          "internalType": "bytes",
          "name": "wrappedKey",
          "type": "bytes"
        },
        {
          "internalType": "bytes32",
          "name": "wrappedKeyHash",
          "type": "bytes32"
        }
      ],
      "stateMutability": "nonpayable",
      "type": "function"
    },
    {
      "inputs": [
        {
          "internalType": "bytes32",
          "name": "role",
          "type": "bytes32"
        },
        {
          "internalType": "address",
          "name": "account",
          "type": "address"
        }
      ],
      "name": "grantRole",
      "outputs": [],
      "stateMutability": "nonpayable",
      "type": "function"
    },
    {
      "inputs": [
        {
          "internalType": "bytes32",
          "name": "role",
          "type": "bytes32"
        },
        {
          "internalType": "address",
          "name": "account",
          "type": "address"
        }
      ],
      "name": "hasRole",
      "outputs": [
        {
          "internalType": "bool",
          "name": "",
          "type": "bool"
        }
      ],
      "stateMutability": "view",
      "type": "function"
    },
    {
      "inputs": [
        {
          "internalType": "address",
          "name": "_ckt",
          "type": "address"
        },
        {
          "internalType": "address",
          "name": "_registry",
          "type": "address"
        },
        {
          "internalType": "address",
          "name": "_feeRecipient",
          "type": "address"
        }
      ],
      "name": "initialize",
      "outputs": [],
      "stateMutability": "nonpayable",
      "type": "function"
    },
    {
      "inputs": [
        {
          "internalType": "address",
          "name": "forwarder",
          "type": "address"
        }
      ],
      "name": "isTrustedForwarder",
      "outputs": [
        {
          "internalType": "bool",
          "name": "",
          "type": "bool"
        }
      ],
      "stateMutability": "view",
      "type": "function"
    },
    {
      "inputs": [
        {
          "internalType": "uint256",
          "name": "",
          "type": "uint256"
        }
      ],
      "name": "knowledgeItems",
      "outputs": [
        {
          "internalType": "address",
          "name": "seller",
          "type": "address"
        },
        {
          "internalType": "string",
          "name": "title",
          "type": "string"
        },
        {
          "internalType": "string",
          "name": "tags",
          "type": "string"
        },
        {
          "internalType": "uint256",
          "name": "price",
          "type": "uint256"
        },
        {
          "internalType": "string",
          "name": "ipfsCID",
          "type": "string"
        },
        {
          "internalType": "bytes32",
          "name": "contentHash",
          "type": "bytes32"
        },
        {
          "internalType": "uint256",
          "name": "stakeAmount",
          "type": "uint256"
        },
        {
          "internalType": "bool",
          "name": "active",
          "type": "bool"
        },
        {
          "internalType": "uint256",
          "name": "listedAt",
          "type": "uint256"
        },
        {
          "internalType": "uint256",
          "name": "salesCount",
          "type": "uint256"
        },
        {
          "internalType": "uint256",
          "name": "pendingDeliveries",
          "type": "uint256"
        }
      ],
      "stateMutability": "view",
      "type": "function"
    },
    {
      "inputs": [
        {
          "internalType": "uint256",
          "name": "",
          "type": "uint256"
        }
      ],
      "name": "knowledgeMode",
      "outputs": [
        {
          "internalType": "enum KnowledgeStore.KnowledgeMode",
          "name": "",
          "type": "uint8"
        }
      ],
      "stateMutability": "view",
      "type": "function"
    },
    {
      "inputs": [
        {
          "internalType": "string",
          "name": "title",
          "type": "string"
        },
        {
          "internalType": "string",
          "name": "tags",
          "type": "string"
        },
        {
          "internalType": "uint256",
          "name": "price",
          "type": "uint256"
        },
        {
          "internalType": "string",
          "name": "ipfsCID",
          "type": "string"
        },
        {
          "internalType": "bytes32",
          "name": "contentHash",
          "type": "bytes32"
        }
      ],
      "name": "list",
      "outputs": [
        {
          "internalType": "uint256",
          "name": "knowledgeId",
          "type": "uint256"
        }
      ],
      "stateMutability": "nonpayable",
      "type": "function"
    },
    {
      "inputs": [
        {
          "internalType": "string",
          "name": "title",
          "type": "string"
        },
        {
          "internalType": "string",
          "name": "tags",
          "type": "string"
        },
        {
          "internalType": "uint256",
          "name": "price",
          "type": "uint256"
        },
        {
          "internalType": "string",
          "name": "previewURI",
          "type": "string"
        },
        {
          "internalType": "string",
          "name": "encryptedContentURI",
          "type": "string"
        },
        {
          "internalType": "bytes32",
          "name": "encryptedContentHash",
          "type": "bytes32"
        },
        {
          "internalType": "bytes32",
          "name": "contentHash",
          "type": "bytes32"
        }
      ],
      "name": "listPrivateKnowledge",
      "outputs": [
        {
          "internalType": "uint256",
          "name": "knowledgeId",
          "type": "uint256"
        }
      ],
      "stateMutability": "nonpayable",
      "type": "function"
    },
    {
      "inputs": [
        {
          "internalType": "string",
          "name": "title",
          "type": "string"
        },
        {
          "internalType": "string",
          "name": "tags",
          "type": "string"
        },
        {
          "internalType": "uint256",
          "name": "price",
          "type": "uint256"
        },
        {
          "internalType": "string",
          "name": "previewURI",
          "type": "string"
        },
        {
          "internalType": "string",
          "name": "encryptedContentURI",
          "type": "string"
        },
        {
          "internalType": "bytes32",
          "name": "encryptedContentHash",
          "type": "bytes32"
        },
        {
          "internalType": "bytes32",
          "name": "contentHash",
          "type": "bytes32"
        },
        {
          "internalType": "uint256",
          "name": "maxSales",
          "type": "uint256"
        }
      ],
      "name": "listPrivateKnowledgeWithLimit",
      "outputs": [
        {
          "internalType": "uint256",
          "name": "knowledgeId",
          "type": "uint256"
        }
      ],
      "stateMutability": "nonpayable",
      "type": "function"
    },
    {
      "inputs": [
        {
          "internalType": "string",
          "name": "title",
          "type": "string"
        },
        {
          "internalType": "string",
          "name": "tags",
          "type": "string"
        },
        {
          "internalType": "uint256",
          "name": "price",
          "type": "uint256"
        },
        {
          "internalType": "string",
          "name": "previewURI",
          "type": "string"
        },
        {
          "internalType": "string",
          "name": "publicContentURI",
          "type": "string"
        },
        {
          "internalType": "bytes32",
          "name": "contentHash",
          "type": "bytes32"
        }
      ],
      "name": "listPublicKnowledgeV2",
      "outputs": [
        {
          "internalType": "uint256",
          "name": "knowledgeId",
          "type": "uint256"
        }
      ],
      "stateMutability": "nonpayable",
      "type": "function"
    },
    {
      "inputs": [
        {
          "internalType": "uint256",
          "name": "",
          "type": "uint256"
        }
      ],
      "name": "maxSalesByKnowledge",
      "outputs": [
        {
          "internalType": "uint256",
          "name": "",
          "type": "uint256"
        }
      ],
      "stateMutability": "view",
      "type": "function"
    },
    {
      "inputs": [],
      "name": "nextKnowledgeId",
      "outputs": [
        {
          "internalType": "uint256",
          "name": "",
          "type": "uint256"
        }
      ],
      "stateMutability": "view",
      "type": "function"
    },
    {
      "inputs": [],
      "name": "nextPurchaseId",
      "outputs": [
        {
          "internalType": "uint256",
          "name": "",
          "type": "uint256"
        }
      ],
      "stateMutability": "view",
      "type": "function"
    },
    {
      "inputs": [],
      "name": "pause",
      "outputs": [],
      "stateMutability": "nonpayable",
      "type": "function"
    },
    {
      "inputs": [],
      "name": "paused",
      "outputs": [
        {
          "internalType": "bool",
          "name": "",
          "type": "bool"
        }
      ],
      "stateMutability": "view",
      "type": "function"
    },
    {
      "inputs": [
        {
          "internalType": "uint256",
          "name": "",
          "type": "uint256"
        }
      ],
      "name": "payoutReleased",
      "outputs": [
        {
          "internalType": "bool",
          "name": "",
          "type": "bool"
        }
      ],
      "stateMutability": "view",
      "type": "function"
    },
    {
      "inputs": [],
      "name": "proxiableUUID",
      "outputs": [
        {
          "internalType": "bytes32",
          "name": "",
          "type": "bytes32"
        }
      ],
      "stateMutability": "view",
      "type": "function"
    },
    {
      "inputs": [
        {
          "internalType": "uint256",
          "name": "knowledgeId",
          "type": "uint256"
        }
      ],
      "name": "purchase",
      "outputs": [
        {
          "internalType": "uint256",
          "name": "purchaseId",
          "type": "uint256"
        }
      ],
      "stateMutability": "nonpayable",
      "type": "function"
    },
    {
      "inputs": [
        {
          "internalType": "uint256",
          "name": "",
          "type": "uint256"
        }
      ],
      "name": "purchaseDeliveryConfigSnapshot",
      "outputs": [
        {
          "internalType": "bytes32",
          "name": "",
          "type": "bytes32"
        }
      ],
      "stateMutability": "view",
      "type": "function"
    },
    {
      "inputs": [
        {
          "internalType": "uint256",
          "name": "",
          "type": "uint256"
        }
      ],
      "name": "purchaseDeliveryConfigURI",
      "outputs": [
        {
          "internalType": "string",
          "name": "",
          "type": "string"
        }
      ],
      "stateMutability": "view",
      "type": "function"
    },
    {
      "inputs": [
        {
          "internalType": "uint256",
          "name": "knowledgeId",
          "type": "uint256"
        }
      ],
      "name": "purchaseKnowledgeV2",
      "outputs": [
        {
          "internalType": "uint256",
          "name": "purchaseId",
          "type": "uint256"
        }
      ],
      "stateMutability": "nonpayable",
      "type": "function"
    },
    {
      "inputs": [
        {
          "internalType": "uint256",
          "name": "",
          "type": "uint256"
        }
      ],
      "name": "purchases",
      "outputs": [
        {
          "internalType": "address",
          "name": "buyer",
          "type": "address"
        },
        {
          "internalType": "uint256",
          "name": "knowledgeId",
          "type": "uint256"
        },
        {
          "internalType": "uint256",
          "name": "paidAmount",
          "type": "uint256"
        },
        {
          "internalType": "uint256",
          "name": "purchasedAt",
          "type": "uint256"
        },
        {
          "internalType": "bool",
          "name": "delivered",
          "type": "bool"
        },
        {
          "internalType": "bool",
          "name": "reviewed",
          "type": "bool"
        }
      ],
      "stateMutability": "view",
      "type": "function"
    },
    {
      "inputs": [
        {
          "internalType": "uint256",
          "name": "purchaseId",
          "type": "uint256"
        },
        {
          "internalType": "bytes",
          "name": "wrappedKey",
          "type": "bytes"
        },
        {
          "internalType": "bytes32",
          "name": "wrappedKeyHash",
          "type": "bytes32"
        }
      ],
      "name": "redeliverEncryptedKey",
      "outputs": [],
      "stateMutability": "nonpayable",
      "type": "function"
    },
    {
      "inputs": [
        {
          "internalType": "uint256",
          "name": "",
          "type": "uint256"
        }
      ],
      "name": "redeliveredAt",
      "outputs": [
        {
          "internalType": "uint64",
          "name": "",
          "type": "uint64"
        }
      ],
      "stateMutability": "view",
      "type": "function"
    },
    {
      "inputs": [
        {
          "internalType": "uint256",
          "name": "",
          "type": "uint256"
        }
      ],
      "name": "refundReleased",
      "outputs": [
        {
          "internalType": "bool",
          "name": "",
          "type": "bool"
        }
      ],
      "stateMutability": "view",
      "type": "function"
    },
    {
      "inputs": [],
      "name": "registry",
      "outputs": [
        {
          "internalType": "contract AgentRegistry",
          "name": "",
          "type": "address"
        }
      ],
      "stateMutability": "view",
      "type": "function"
    },
    {
      "inputs": [
        {
          "internalType": "bytes32",
          "name": "role",
          "type": "bytes32"
        },
        {
          "internalType": "address",
          "name": "callerConfirmation",
          "type": "address"
        }
      ],
      "name": "renounceRole",
      "outputs": [],
      "stateMutability": "nonpayable",
      "type": "function"
    },
    {
      "inputs": [
        {
          "internalType": "uint256",
          "name": "knowledgeId",
          "type": "uint256"
        }
      ],
      "name": "reopenSales",
      "outputs": [],
      "stateMutability": "nonpayable",
      "type": "function"
    },
    {
      "inputs": [],
      "name": "reputationContract",
      "outputs": [
        {
          "internalType": "address",
          "name": "",
          "type": "address"
        }
      ],
      "stateMutability": "view",
      "type": "function"
    },
    {
      "inputs": [
        {
          "internalType": "uint256",
          "name": "",
          "type": "uint256"
        }
      ],
      "name": "rescueApplied",
      "outputs": [
        {
          "internalType": "bool",
          "name": "",
          "type": "bool"
        }
      ],
      "stateMutability": "view",
      "type": "function"
    },
    {
      "inputs": [
        {
          "internalType": "uint256",
          "name": "purchaseId",
          "type": "uint256"
        },
        {
          "internalType": "uint8",
          "name": "reason",
          "type": "uint8"
        }
      ],
      "name": "rescueRefundPrivatePurchase",
      "outputs": [],
      "stateMutability": "nonpayable",
      "type": "function"
    },
    {
      "inputs": [
        {
          "internalType": "uint256",
          "name": "purchaseId",
          "type": "uint256"
        },
        {
          "internalType": "uint256",
          "name": "productScore",
          "type": "uint256"
        },
        {
          "internalType": "uint256",
          "name": "sellerScore",
          "type": "uint256"
        }
      ],
      "name": "review",
      "outputs": [],
      "stateMutability": "nonpayable",
      "type": "function"
    },
    {
      "inputs": [
        {
          "internalType": "bytes32",
          "name": "role",
          "type": "bytes32"
        },
        {
          "internalType": "address",
          "name": "account",
          "type": "address"
        }
      ],
      "name": "revokeRole",
      "outputs": [],
      "stateMutability": "nonpayable",
      "type": "function"
    },
    {
      "inputs": [
        {
          "internalType": "uint256",
          "name": "",
          "type": "uint256"
        }
      ],
      "name": "salesOpen",
      "outputs": [
        {
          "internalType": "bool",
          "name": "",
          "type": "bool"
        }
      ],
      "stateMutability": "view",
      "type": "function"
    },
    {
      "inputs": [
        {
          "internalType": "address",
          "name": "r",
          "type": "address"
        }
      ],
      "name": "setFeeRecipient",
      "outputs": [],
      "stateMutability": "nonpayable",
      "type": "function"
    },
    {
      "inputs": [
        {
          "internalType": "address",
          "name": "r",
          "type": "address"
        }
      ],
      "name": "setReputationContract",
      "outputs": [],
      "stateMutability": "nonpayable",
      "type": "function"
    },
    {
      "inputs": [
        {
          "internalType": "uint256",
          "name": "knowledgeId",
          "type": "uint256"
        },
        {
          "internalType": "uint256",
          "name": "maxSales",
          "type": "uint256"
        }
      ],
      "name": "setSaleLimit",
      "outputs": [],
      "stateMutability": "nonpayable",
      "type": "function"
    },
    {
      "inputs": [
        {
          "internalType": "address",
          "name": "_tempo",
          "type": "address"
        }
      ],
      "name": "setTempoReward",
      "outputs": [],
      "stateMutability": "nonpayable",
      "type": "function"
    },
    {
      "inputs": [
        {
          "internalType": "address",
          "name": "module",
          "type": "address"
        }
      ],
      "name": "setV2Module",
      "outputs": [],
      "stateMutability": "nonpayable",
      "type": "function"
    },
    {
      "inputs": [
        {
          "internalType": "uint256",
          "name": "knowledgeId",
          "type": "uint256"
        }
      ],
      "name": "stopSales",
      "outputs": [],
      "stateMutability": "nonpayable",
      "type": "function"
    },
    {
      "inputs": [
        {
          "internalType": "bytes4",
          "name": "interfaceId",
          "type": "bytes4"
        }
      ],
      "name": "supportsInterface",
      "outputs": [
        {
          "internalType": "bool",
          "name": "",
          "type": "bool"
        }
      ],
      "stateMutability": "view",
      "type": "function"
    },
    {
      "inputs": [],
      "name": "tempoReward",
      "outputs": [
        {
          "internalType": "contract TempoReward",
          "name": "",
          "type": "address"
        }
      ],
      "stateMutability": "view",
      "type": "function"
    },
    {
      "inputs": [
        {
          "internalType": "uint256",
          "name": "purchaseId",
          "type": "uint256"
        }
      ],
      "name": "triggerAutoReview",
      "outputs": [],
      "stateMutability": "nonpayable",
      "type": "function"
    },
    {
      "inputs": [],
      "name": "trustedForwarder",
      "outputs": [
        {
          "internalType": "address",
          "name": "",
          "type": "address"
        }
      ],
      "stateMutability": "view",
      "type": "function"
    },
    {
      "inputs": [],
      "name": "unpause",
      "outputs": [],
      "stateMutability": "nonpayable",
      "type": "function"
    },
    {
      "inputs": [
        {
          "internalType": "address",
          "name": "newImplementation",
          "type": "address"
        },
        {
          "internalType": "bytes",
          "name": "data",
          "type": "bytes"
        }
      ],
      "name": "upgradeToAndCall",
      "outputs": [],
      "stateMutability": "payable",
      "type": "function"
    },
    {
      "inputs": [],
      "name": "v2Module",
      "outputs": [
        {
          "internalType": "address",
          "name": "",
          "type": "address"
        }
      ],
      "stateMutability": "view",
      "type": "function"
    },
    {
      "inputs": [
        {
          "internalType": "uint256",
          "name": "",
          "type": "uint256"
        }
      ],
      "name": "wrappedKeyHashByPurchase",
      "outputs": [
        {
          "internalType": "bytes32",
          "name": "",
          "type": "bytes32"
        }
      ],
      "stateMutability": "view",
      "type": "function"
    }
  ],
  "bytecode": "0x60c0346200014c576001600160401b0390601f6200588f38819003918201601f19168301918483118484101762000150578084926020946040528339810103126200014c57516001600160a01b03811681036200014c5760017f9b779b17422d0df92223018b32b4d1fa46e071723d6817e2486d003becc55f00553060805260a0527ff0c57e16840df040f15088dc2f81fe391c3923bec73e23a9662efc9c229c6a009081549060ff8260401c166200013a578080831603620000f4575b60405161572a9081620001658239608051818181611b810152611ca6015260a051818181611f6d0152818161216101526154c40152f35b6001600160401b031990911681179091556040519081527fc7f505b2f371ae2175ee4913f4499e1f2633a7b5936321eed1cdaeb6115181d290602090a15f8080620000bd565b60405163f92ee8a960e01b8152600490fd5b5f80fd5b634e487b7160e01b5f52604160045260245ffdfe60806040526004361015610011575f80fd5b5f3560e01c806301c11d96146105ab57806301d7b245146104ca57806301ffc9a7146105a657806302768de4146105a157806302b9bc631461059c57806303eff37b14610597578063073080c7146105925780630ab254af1461058d5780630e327030146105885780631018c5f9146105835780631479b25e1461045757806316b5219e1461057e5780631a337c96146105795780631b32008f146105745780631f1755941461056f5780632128a4bc1461056a57806323b4a7a314610565578063248a9ca314610560578063262737cd1461055b57806328e7b2a61461055657806329125ebb146104ca5780632e1371bd146105515780632f2ff15d1461054c578063310f13711461054757806336568abe146105425780633742a9f71461053d57806339d006cb146105385780633b0ecb61146105335780633f4ba83a1461052e57806342ad69301461052957806346904840146105245780634a0449321461051f5780634d20372e1461051a5780634f1ef2861461051557806352d1902d1461051057806355a5f2551461050b5780635689cbba14610506578063572b6c0514610501578063575660c2146104fc5780635c975abb146104f75780635e18963b146104f25780635f7668ce146104ed57806361c2649e146104e85780637021f1a3146104e357806375e1cf24146104de57806377c50e9d146104d957806379021310146104d45780637b103999146104cf5780637b422c4c146104ca5780637da0a877146104c55780637e92b854146104c05780638392fe31146104bb5780638456cb59146104b657806387bc1425146104b15780638c5b2293146104ac5780638ddad6ac146104a7578063916b9bef146104a2578063917229121461049d57806391d1485414610498578063927f9c99146104935780639584660f1461048e57806397a4bb231461044857806399dc8654146104895780639c98676414610484578063a07dcd461461047f578063a217fddf1461047a578063a4ede5eb14610416578063a8ad0daa14610475578063ac8919c914610470578063ad3cb1cc1461046b578063ad9f20a614610466578063b7a17a9d14610461578063c0c53b8b1461045c578063c1d6c94114610457578063c8e9ab4a14610452578063cdec2cd11461044d578063ceea2f5a14610448578063d11ac98814610443578063d468fec61461043e578063d547741f14610439578063e74b981b14610434578063eaf98d231461042f578063efef39a11461042a578063f086075a14610425578063f5c0b48c14610420578063f665986e1461041b578063f6e8913d14610416578063f7f3175914610411578063fc4126df1461040c578063fe7992c2146104075763fece90f514610402575f80fd5b613de0565b613d6d565b61399f565b613983565b612cf2565b613951565b613927565b61390e565b6130e5565b6130ca565b61307f565b613033565b612fef565b612fbc565b612bd1565b612f7e565b612f5a565b610b16565b612e10565b612ddf565b612dbd565b612d66565b612d3c565b612d0d565b612cd8565b612c5c565b612c41565b612c0b565b612b8a565b612b57565b612af9565b612a79565b612858565b612312565b6122e5565b6122bd565b612259565b6121e9565b6121b3565b61214c565b6105e2565b612124565b6120fd565b6120ce565b61209f565b612070565b612055565b612026565b612002565b611fc9565b611fa1565b611f49565b611d26565b611cfd565b611c94565b611b2e565b611918565b6118e5565b6118bd565b611153565b6110cc565b6110a2565b61107a565b610f88565b610ee8565b610ecb565b610e7d565b610e62565b610d43565b610c5b565b610c22565b610c05565b610bdb565b610bac565b610b65565b610b4c565b610b2f565b610a8b565b610851565b6107b1565b610755565b6106eb565b6106b0565b610676565b610620565b6105be565b5f9103126105ba57565b5f80fd5b346105ba575f3660031901126105ba57602060405169d3c21bcecceda10000008152f35b346105ba5760203660031901126105ba576105fb61505a565b610603615089565b61060c366150b3565b5060015f805160206156b583398151915255005b346105ba5760203660031901126105ba5760043563ffffffff60e01b81168091036105ba57602090637965db0b60e01b8114908115610665575b506040519015158152f35b6301ffc9a760e01b1490505f61065a565b346105ba575f3660031901126105ba5760206040517fba279271fb7bbf76a6f3df3cc57bf80647fcafdea60ec3383d90f459de74e7c08152f35b346105ba5760203660031901126105ba576004355f52600e602052602060405f2054604051908152f35b6001600160a01b038116036105ba57565b346105ba5760203660031901126105ba57600435610708816106da565b610710615158565b601e80546001600160a01b0319166001600160a01b039290921691821790557fbcd62708ed64322231bb85ab1da62c4e1d6d6256aa176b1a9e023b30c3226f4b5f80a2005b346105ba5760203660031901126105ba576004355f526022602052602060ff60405f2054166040519015158152f35b9181601f840112156105ba578235916001600160401b0383116105ba57602083818601950101116105ba57565b346105ba5760e03660031901126105ba576001600160401b036004358181116105ba576107e2903690600401610784565b50506024358181116105ba576107fc903690600401610784565b50506064358181116105ba57610816903690600401610784565b50506084359081116105ba57610830903690600401610784565b505061084d61083d613e0a565b6040519081529081906020820190565b0390f35b346105ba575f3660031901126105ba57602060405162278d008152f35b90600182811c9216801561089c575b602083101461088857565b634e487b7160e01b5f52602260045260245ffd5b91607f169161087d565b634e487b7160e01b5f52604160045260245ffd5b61016081019081106001600160401b038211176108d657604052565b6108a6565b60c081019081106001600160401b038211176108d657604052565b6001600160401b0381116108d657604052565b90601f801991011681019081106001600160401b038211176108d657604052565b9060405191825f825461093c8161086e565b908184526020946001916001811690815f146109aa575060011461096c575b50505061096a92500383610909565b565b5f90815285812095935091905b81831061099257505061096a93508201015f808061095b565b85548884018501529485019487945091830191610979565b9250505061096a94925060ff191682840152151560051b8201015f808061095b565b5f5b8381106109dd5750505f910152565b81810151838201526020016109ce565b90602091610a06815180928185528580860191016109cc565b601f01601f1916010190565b979490610a6993610a486101409b989e9d9c9996948b610a5694602061016092839260018060a01b0316815201528c01906109ed565b908a820360408c01526109ed565b91606089015287820360808901526109ed565b9860a086015260c0850152151560e08401526101008301526101208201520152565b346105ba5760203660031901126105ba576004355f90815260056020526040902080546001600160a01b031661084d610ac66001840161092a565b92610ad36002820161092a565b906003810154610ae56004830161092a565b600583015460068401549060ff60078601541692600886015494600a6009880154970154976040519b8c9b8c610a12565b346105ba5760203660031901126105ba5761060361505a565b346105ba575f3660031901126105ba576020604051620151808152f35b346105ba5760403660031901126105ba5761060361505a565b346105ba5760203660031901126105ba57600435610b82816106da565b610b8a615158565b600a80546001600160a01b0319166001600160a01b0392909216919091179055005b346105ba5760203660031901126105ba576004355f52601a602052602060ff60405f2054166040519015158152f35b346105ba5760203660031901126105ba576004355f52601b602052602060405f2054604051908152f35b346105ba575f3660031901126105ba576020600654604051908152f35b346105ba5760203660031901126105ba576004355f525f805160206156758339815191526020526020600160405f200154604051908152f35b346105ba5760203660031901126105ba576004355f52601f602052602060ff60405f2054166040519015158152f35b602080825282516001600160a01b0316908201526020820151610cf9610cbe610160928360408601526101808501906109ed565b610cda604086015191601f1992838783030160608801526109ed565b90606086015160808601526080860151908583030160a08601526109ed565b9260a081015160c084015260c081015160e084015260e0810151610d24610100918286019015159052565b8101516101209081850152810151906101409182850152015191015290565b346105ba5760203660031901126105ba5761084d604051610d63816108ba565b5f815260606020820152606060408201525f6060820152606060808201525f60a08201525f60c08201525f60e0820152610100905f82820152600a6101205f818401525f610140809401526004355f52600560205260405f2090610dc5611aa3565b82546001600160a01b0316815294610ddf6001840161092a565b6020870152610df06002840161092a565b604087015260038301546060870152610e0b6004840161092a565b6080870152600583015460a0870152600683015460c0870152610e3e610e35600785015460ff1690565b151560e0880152565b60088301549086015260098201549085015201549082015260405191829182610c8a565b346105ba575f3660031901126105ba57602060405160018152f35b346105ba5760403660031901126105ba57610ec9602435600435610ea0826106da565b805f525f80516020615675833981519152602052610ec4600160405f200154615261565b615358565b005b346105ba575f3660031901126105ba576020600454604051908152f35b346105ba5760403660031901126105ba57600435602435610f08816106da565b8115610f43576001600160a01b0380610f1f615499565b1690821603610f3157610ec9916153fd565b60405163334bd91960e11b8152600490fd5b60405162461bcd60e51b815260206004820152601960248201527f4b533a2063616e6e6f742072656e6f756e63652061646d696e000000000000006044820152606490fd5b346105ba5760203660031901126105ba5761084d60405f60a08251610fac816108db565b828152826020820152828482015282606082015282608082015201526004355f526007602052805f209061102c60ff6004835194610fe9866108db565b80546001600160a01b03168652600181015460208701526002810154858701526003810154606087015201548181161515608086015260081c16151560a0840152565b519182918291909160a08060c0830194600180831b03815116845260208101516020850152604081015160408501526060810151606085015260808101511515608085015201511515910152565b346105ba575f3660031901126105ba57600a546040516001600160a01b039091168152602090f35b346105ba5760203660031901126105ba576004355f52600f602052602060405f2054604051908152f35b346105ba575f3660031901126105ba576110e4615158565b5f80516020615695833981519152805460ff8116156111415760ff191690557f5db9ee0a495bf2e6ff9c91a7834c1ba4fdd244a5e8aa4e537bd38aeae4b073aa602061112e615499565b6040516001600160a01b039091168152a1005b604051638dfc202b60e01b8152600490fd5b346105ba576020806003193601126105ba5760049061117061505a565b611178615089565b61118b82355f52600760205260405f2090565b611193615499565b81549092906111c7906111b6906001600160a01b03165b6001600160a01b031690565b6001600160a01b0394851614613e63565b61121a8483016111e76111e26111de835460ff1690565b1590565b613e9f565b6111ff6111f76003860154613eef565b421015613f14565b805460ff191660011781555b805461ff001916610100179055565b60018054909190611233906001600160a01b03166111aa565b83549094906001600160a01b0316853b156105ba5760408051638fe80d9560e01b81526001600160a01b0390921682890190815290965f9183919082908490829060200103925af18015611513576118aa575b50828401611305836112a183545f52600560205260405f2090565b96600a88016112b08154613f5a565b90555f546112c6906001600160a01b03166111aa565b81546002909201548a5163a9059cbb60e01b81526001600160a01b039093168c840190815260208101919091529193849283915f918391604090910190565b03925af180156115135761188d575b5061132c6113256003870154613f87565b6064900490565b9160068601918254928385105f146118875784935b8480611759575b9250505083915010611551575b5050815461136c91506001600160a01b03166111aa565b82546001600160a01b031690803b156105ba5784516322eb7bdb60e11b81526001600160a01b039092168683019081525f91839182908490829060200103925af180156115135761153e575b5080546113cd906001600160a01b03166111aa565b82546001600160a01b031690803b156105ba57845163d0542f9760e01b81526001600160a01b039092168683019081525f91839182908490829060200103925af180156115135761152b575b50805461142e906001600160a01b03166111aa565b82546001600160a01b031690803b156105ba5784516317517f8d60e31b81526001600160a01b039092168683019081525f91839182908490829060200103925af18015611513576114a292611494926111aa92611518575b50546001600160a01b031690565b91546001600160a01b031690565b90803b156105ba5791516313fb5ea760e01b81526001600160a01b03909116928101928352915f91839182908490829060200103925af18015611513576114fa575b610ec960015f805160206156b583398151915255565b8061150761150d926108f6565b806105b0565b5f6114e4565b613f4f565b80611507611525926108f6565b5f611486565b80611507611538926108f6565b5f611419565b8061150761154b926108f6565b5f6113b8565b61155a91613fda565b5f54909190611571906001600160a01b03166111aa565b84546001600160a01b031686516370a0823160e01b81526001600160a01b0382168982019081529194918490829081906020010381865afa908115611513575f9161173c575b508751636eb1769f60e11b81526001600160a01b0386168a82019081523060208201529092908590849081906040010381875afa918215611513578a935f9361170d575b50808210156117055750905b808210156116fd5750935b8461161f575b5050611355565b87516323b872dd60e01b81526001600160a01b039091169181019182523060208301526040820185905291839183919082905f90829060600103925af18015611513576116cf575b50505f5461167d906001600160a01b03166111aa565b803b156105ba578451630852cd8d60e31b8152868101928352915f91839182908490829060200103925af18015611513576116bc575b80808681611618565b806115076116c9926108f6565b5f6116b3565b816116ee92903d106116f6575b6116e68183610909565b810190613f73565b505f80611667565b503d6116dc565b905093611612565b905090611607565b61172e919350863d8811611735575b6117268183610909565b810190613e36565b915f6115fb565b503d61171c565b6117539150843d8611611735576117268183610909565b5f6115b7565b61176291613fda565b90558554611778906001600160a01b03166111aa565b87546001600160a01b031690803b156105ba5789516334673ec560e11b81526001600160a01b03909216828c01908152602081018690525f91839182908490829060400103925af1801561151357611874575b505f546117e0906001600160a01b03166111aa565b803b156105ba578851630852cd8d60e31b8152808b0185815290915f9183919082908490829060200103925af1801561151357611861575b50548654885184815292166001600160a01b0316917fba00be99b4ba100b19f2c080160ab22c2b8f4d62027d6524c532e7578d7a43b49080602081010390a35f80808084611348565b8061150761186e926108f6565b5f611818565b80611507611881926108f6565b5f6117cb565b83611341565b6118a390843d86116116f6576116e68183610909565b505f611314565b806115076118b7926108f6565b5f611286565b346105ba575f3660031901126105ba576002546040516001600160a01b039091168152602090f35b346105ba5760203660031901126105ba576004355f52601560205260206001600160401b0360405f205416604051908152f35b346105ba5760203660031901126105ba57600435611934615089565b611946815f52600760205260405f2090565b61197b60048201611963815460ff81169081611a94575b50613fe7565b61120b6119736003850154613f04565b421015614021565b61199160018201545f52600560205260405f2090565b6001546119aa90611494906001600160a01b03166111aa565b90803b156105ba57604051631fca67df60e21b81526001600160a01b03929092166004830152600360248301525f908290604490829084905af1801561151357611a81575b50600154611a0990611494906001600160a01b03166111aa565b90803b156105ba57604051638fe80d9560e01b81526001600160a01b039290921660048301525f908290602490829084905af1801561151357611a6e575b507fb32aed4e447f2ad9195c00c43067223cbb2d8f5db04ca8c2388d148771c8114b5f80a2005b80611507611a7b926108f6565b5f611a47565b80611507611a8e926108f6565b5f6119ef565b60ff915060081c16155f61195d565b6040519061096a826108ba565b6040519061096a826108db565b6040519061012082018281106001600160401b038211176108d657604052565b6001600160401b0381116108d657601f01601f191660200190565b929192611b0482611add565b91611b126040519384610909565b8294818452818301116105ba578281602093845f960137010152565b60403660031901126105ba576004803590611b48826106da565b6024356001600160401b0381116105ba57366023820112156105ba57611b779036906024818501359101611af8565b6001600160a01b037f00000000000000000000000000000000000000000000000000000000000000008116308114908115611c79575b50611c68579060208392611bbf615158565b6040516352d1902d60e01b8152938491829088165afa5f9281611c47575b50611c0b575050604051634c9c8ce360e01b81526001600160a01b0390921690820190815281906020010390fd5b83835f805160206156558339815191528403611c2b57610ec983836154f2565b604051632a87526960e21b815290810184815281906020010390fd5b611c6191935060203d602011611735576117268183610909565b915f611bdd565b60405163703e46dd60e11b81528390fd5b9050815f80516020615655833981519152541614155f611bad565b346105ba575f3660031901126105ba577f00000000000000000000000000000000000000000000000000000000000000006001600160a01b03163003611ceb5760206040515f805160206156558339815191528152f35b60405163703e46dd60e11b8152600490fd5b346105ba5760203660031901126105ba576004355f5260208052602060405f2054604051908152f35b346105ba5760203660031901126105ba57600435611d426151ca565b611d54815f52600560205260405f2090565b9060078201611d64815460ff1690565b611ef7575b50600682019081549182611ddf575b5050600154611d949150611494906001600160a01b03166111aa565b90803b156105ba576040516322eb7bdb60e11b81526001600160a01b0383166004820152905f908290602490829084905af1801561151357611dd257005b80611507610ec9926108f6565b5f9055600154611df7906001600160a01b03166111aa565b83546001600160a01b031690803b156105ba576040516334673ec560e11b81526001600160a01b03929092166004830152602482018490525f908290604490829084905af1801561151357611ee4575b505f54611e5c906001600160a01b03166111aa565b803b156105ba57604051630852cd8d60e31b815260048101849052905f908290602490829084905af1801561151357611ed1575b5082546040519283526001600160a01b0316917fba00be99b4ba100b19f2c080160ab22c2b8f4d62027d6524c532e7578d7a43b490602090a35f8080611d78565b80611507611ede926108f6565b5f611e90565b80611507611ef1926108f6565b5f611e47565b805460ff19169055611f1e611f14825f52601f60205260405f2090565b805460ff19169055565b807f6231f95ec21671bd178b0f09edd9360d433024b1098c5ea14b4ab7db64caa8da5f80a25f611d69565b346105ba5760203660031901126105ba576020600435611f68816106da565b6040517f00000000000000000000000000000000000000000000000000000000000000006001600160a01b039081169216919091148152f35b346105ba575f3660031901126105ba57601e546040516001600160a01b039091168152602090f35b346105ba575f3660031901126105ba57602060ff5f8051602061569583398151915254166040519015158152f35b60ff8116036105ba57565b346105ba5760403660031901126105ba5761201e602435611ff7565b61060361505a565b346105ba5760203660031901126105ba576004355f526009602052602060ff60405f2054166040519015158152f35b346105ba575f3660031901126105ba57602060405160148152f35b346105ba5760203660031901126105ba576004355f52601c602052602060ff60405f2054166040519015158152f35b346105ba5760203660031901126105ba576004355f526017602052602060ff60405f2054166040519015158152f35b346105ba5760203660031901126105ba576004355f52601d602052602060ff60405f2054166040519015158152f35b346105ba575f3660031901126105ba575f546040516001600160a01b039091168152602090f35b346105ba575f3660031901126105ba576001546040516001600160a01b039091168152602090f35b346105ba575f3660031901126105ba576040517f00000000000000000000000000000000000000000000000000000000000000006001600160a01b03168152602090f35b634e487b7160e01b5f52602160045260245ffd5b600311156121ae57565b612190565b346105ba5760203660031901126105ba576004355f52600b60205260ff60405f20541660405160038210156121ae576020918152f35b346105ba5760203660031901126105ba576004355f52600760205260c060405f2060ff60018060a01b0382541691600181015490600281015460046003830154920154926040519586526020860152604085015260608401528181161515608084015260081c16151560a0820152f35b346105ba575f3660031901126105ba57612271615158565b612279615089565b5f80516020615695833981519152805460ff191660011790557f62e78cea01bee320cd4e420270b5ea74000d11b0c9f74754ebdbfc544b05a258602061112e615499565b346105ba575f3660031901126105ba576003546040516001600160a01b039091168152602090f35b346105ba5760203660031901126105ba576004355f526012602052602060ff60405f205416604051908152f35b346105ba5760603660031901126105ba576004803590604435602435612336615089565b6123bc61234b855f52600760205260405f2090565b612353615499565b815490919061237f9061236e906001600160a01b03166111aa565b6001600160a01b0393841614613e63565b85810190612398825460ff81169081611a945750613fe7565b6001938492838710158061284d575b80612843575b80612838575b61120b9061405d565b01916123d183545f52600560205260405f2090565b81549091906123e8906001600160a01b03166111aa565b936124226123f4615499565b95895f60409889518095819263fb3551ff60e01b958684528301919091602081019260018060a01b03169052565b0381855afa8015611513578861244a918d955f91612816575b5001516001600160a01b031690565b865489519283526001600160a01b03169382018481525f90839081900360200181865afa8015611513576124966111aa8b8b9361249f965f91612816575001516001600160a01b031690565b911614156141c9565b803b156105ba578651631fca67df60e21b81526001600160a01b03909216828b01908152602081018a90525f91839182908490829060400103925af1801561151357612803575b5081546124fb906001600160a01b03166111aa565b612503615499565b90803b156105ba578651638fe80d9560e01b81526001600160a01b03909216828b019081525f91839182908490829060200103925af18015611513576127f0575b508154612559906001600160a01b03166111aa565b90612562615499565b91803b156105ba578651633111036160e11b81526001600160a01b03909316838b019081526040602082018190526006908201526572657669657760d01b60608201525f91849182908490829060800103925af1908115611513576125e1926125da926127dd575b50545f52600b60205260405f2090565b5460ff1690565b906125eb826121a4565b81149081156127c9575b50156126765750507f6e25eeb376624597a9c69a7e9e1f4ab3623441258ae80e1db654feb9861d1214935061267190612646612639875f52601760205260405f2090565b805460ff19166001179055565b83612659875f52601b60205260405f2090565b555b5191825260208201929092529081906040820190565b0390a2005b600a5461268b906001600160a01b03166111aa565b9182166126c1575b50507f6e25eeb376624597a9c69a7e9e1f4ab3623441258ae80e1db654feb9861d121493506126719061265b565b546001600160a01b031690803b156105ba57825163871aa80f60e01b81526001600160a01b03909216868301908152602081018690525f91839182908490829060400103925af18015611513576127b6575b50600a54612729906001600160a01b03166111aa565b93612732615499565b853b156105ba5782516336a6ab4760e01b81526001600160a01b03909116918101918252945f9186919082908490829060200103925af1908115611513577f6e25eeb376624597a9c69a7e9e1f4ab3623441258ae80e1db654feb9861d121494612671926127a3575b819250612693565b806115076127b0926108f6565b5f61279b565b806115076127c3926108f6565b5f612713565b600291506127d6816121a4565b145f6125f5565b806115076127ea926108f6565b5f6125ca565b806115076127fd926108f6565b5f612544565b80611507612810926108f6565b5f6124e6565b61283291503d805f833e61282a8183610909565b8101906140fe565b5f61243b565b5060058811156123b3565b50838810156123ad565b5060058711156123a7565b346105ba5760203660031901126105ba5760043561287461505a565b61287c615089565b6006612890825f52600560205260405f2090565b6128c061289b615499565b82546128af906001600160a01b03166111aa565b6001600160a01b0390911614614206565b6128e8600782016128da6128d5825460ff1690565b614243565b611f14600a84015415614280565b6128fd611f14845f52601f60205260405f2090565b0180549081612942575b827f6231f95ec21671bd178b0f09edd9360d433024b1098c5ea14b4ab7db64caa8da5f80a2610ec960015f805160206156b583398151915255565b5f905560015461295a906001600160a01b03166111aa565b90612963615499565b91803b156105ba576040516334673ec560e11b81526001600160a01b03939093166004840152602483018290525f908390604490829084905af190811561151357612a0492602092612a38575b505f546129c5906001600160a01b03166111aa565b6129cd615499565b60405163a9059cbb60e01b81526001600160a01b0390911660048201526024810192909252909283919082905f9082906044820190565b03925af1801561151357612a19575b80612907565b612a319060203d6020116116f6576116e68183610909565b505f612a13565b80611507612a45926108f6565b5f6129b0565b939291612a7490612a666040936060885260608801906109ed565b9086820360208801526109ed565b930152565b346105ba5760203660031901126105ba57612a93366150b3565b80518101606082602083019203126105ba5760208201516001600160401b03908181116105ba57826020612ac9928601016140ce565b9160408401519182116105ba57612aea606091602061084d948701016140ce565b93015160405193849384612a4b565b346105ba5760403660031901126105ba57602060ff612b4b602435612b1d816106da565b6004355f525f80516020615675833981519152845260405f209060018060a01b03165f5260205260405f2090565b54166040519015158152f35b346105ba5760203660031901126105ba576004355f52601660205260206001600160401b0360405f205416604051908152f35b346105ba5760203660031901126105ba57600435612ba7816106da565b612baf615158565b600380546001600160a01b0319166001600160a01b0392909216919091179055005b346105ba5760603660031901126105ba576024356001600160401b0381116105ba57612c01903690600401610784565b50506105fb61505a565b346105ba5760203660031901126105ba576004355f52601360205260ff60405f20541660405160098210156121ae576020918152f35b346105ba575f3660031901126105ba57602060405160048152f35b346105ba5760a03660031901126105ba576001600160401b036004358181116105ba57612c8d903690600401610784565b6024929192358281116105ba57612ca8903690600401610784565b906064359384116105ba5761084d94612cc861083d953690600401610784565b93909260843595604435936142c5565b346105ba575f3660031901126105ba5760206040515f8152f35b346105ba575f3660031901126105ba57602060405160328152f35b346105ba5760203660031901126105ba576004355f526018602052602060ff60405f2054166040519015158152f35b346105ba5760203660031901126105ba576004355f526008602052602060405f2054604051908152f35b346105ba575f3660031901126105ba5760405160408101908082106001600160401b038311176108d65761084d9160405260058152640352e302e360dc1b60208201526040519182916020835260208301906109ed565b346105ba575f3660031901126105ba576020604051670de0b6b3a76400008152f35b346105ba5760c03660031901126105ba576001600160401b036004358181116105ba576107e2903690600401610784565b346105ba5760603660031901126105ba57600435612e2d816106da565b60243590612e3a826106da565b604435612e46816106da565b5f805160206156d583398151915254926001600160401b0360ff8560401c1615941680159081612f52575b6001149081612f48575b159081612f3f575b50612f2d575f805160206156d5833981519152805467ffffffffffffffff19166001179055612eb69284612f0457614d48565b612ebc57005b5f805160206156d5833981519152805460ff60401b19169055604051600181527fc7f505b2f371ae2175ee4913f4499e1f2633a7b5936321eed1cdaeb6115181d290602090a1005b5f805160206156d5833981519152805460ff60401b191668010000000000000000179055614d48565b60405163f92ee8a960e01b8152600490fd5b9050155f612e83565b303b159150612e7b565b859150612e71565b346105ba5760603660031901126105ba57612f76602435611ff7565b6105fb61505a565b346105ba5760203660031901126105ba576004355f52602160205261084d612fa860405f2061092a565b6040519182916020835260208301906109ed565b346105ba5760203660031901126105ba576004355f52601460205260206001600160401b0360405f205416604051908152f35b346105ba5760203660031901126105ba5761300861505a565b613010615089565b602061301a613e45565b60015f805160206156b583398151915255604051908152f35b346105ba5760403660031901126105ba57610ec9602435600435613056826106da565b805f525f8051602061567583398151915260205261307a600160405f200154615261565b6153fd565b346105ba5760203660031901126105ba5760043561309c816106da565b6130a4615158565b6001600160a01b031680156105ba576001600160601b0360a01b60025416176002555f80f35b346105ba575f3660031901126105ba57602060405160058152f35b346105ba576020806003193601126105ba5760049081359161310561505a565b61310d615089565b61311f835f52600560205260405f2090565b6131306128d5600783015460ff1690565b6131576131486125da865f52600b60205260405f2090565b613151816121a4565b15614e2d565b60015461316c906001600160a01b03166111aa565b93613175615499565b6040805163c3c5a54760e01b81526001600160a01b039092168286019081529094919086908290819060200103818a5afa8015611513576131bd915f916138f1575b50614888565b61322a856131c9615499565b85549098906131f6906131e4906001600160a01b03166111aa565b6001600160a01b039a8b161415614e79565b6131fe615499565b8751631f1da14d60e11b81526001600160a01b0390911685820190815290938492918391829160200190565b03915afa801561151357613245915f916138d4575b50614eb9565b60035486166001600160a01b0316928584613858575b505f546132a99450613275906001600160a01b03166111aa565b8661327e615499565b87516370a0823160e01b81526001600160a01b03909116858201908152909687918291602090910190565b0381845afa948515611513575f95613839575b508560038301956132d1875480921015614f10565b6133676132dc615499565b835160609190911b6bffffffffffffffffffffffff1916818c019081526014810189905290613317816034840103601f198101835282610909565b51902091613337613330845f52600860205260405f2090565b5415614f53565b6133ae8b61334761132584613f9d565b80948461336261335a6113258598613fb3565b978892613fda565b613fda565b978a5f613372615499565b99516323b872dd60e01b8082526001600160a01b03909b1692810192835230602084015260408301949094529294859384929091839160600190565b03925af180156115135761381c575b505f546133d2906001600160a01b03166111aa565b803b156105ba578a51630852cd8d60e31b8152808901928352915f91839182908490829060200103925af1801561151357613809575b505f548a908a90613421906001600160a01b03166111aa565b613429615499565b60025492518781526001600160a01b03918216818c019081529190931660208201526040810194909452909283919082905f90829060600103925af180156115135784938b9288926137ec575b505f80548c919061348f906001600160a01b03166111aa565b926134cb61349b615499565b93519182526001600160a01b03909316948101948552306020860152604085019790975286938492839160600190565b03925af19182156115135761355c926137cf575b5061354e6134ee600654614b18565b998a946134fa86600655565b88613503615499565b9261351e61350f611ab0565b6001600160a01b039095168552565b8301528a8201524260608201525f60808201525f60a0820152613549855f52600760205260405f2090565b614f97565b5f52600860205260405f2090565b556009810161356b8154614b18565b9055600a810161357b8154614b18565b9055600154613592906001600160a01b03166111aa565b61359a615499565b90803b156105ba578651630a3be34960e01b81526001600160a01b039092168483019081525f91839182908490829060200103925af18015611513576137bc575b506001546135f1906001600160a01b03166111aa565b6135f9615499565b90803b156105ba578651632afef4b760e21b8082526001600160a01b0390931685820190815290915f9183919082908490829060200103925af18015611513576137a9575b5060015461366690613658906001600160a01b03166111aa565b92546001600160a01b031690565b823b156105ba5786519182526001600160a01b031683820190815290915f9183919082908490829060200103925af1801561151357613796575b506001546136b6906001600160a01b03166111aa565b906136bf615499565b823b156105ba57613711925f92838851809681958294633111036160e11b8452830160809160018060a01b03168152604060208201526008604082015267707572636861736560c01b60608201520190565b03925af180156115135761084d9686927fb1388757ab12142ef905a9b301dcdd81dd63ec6232a8fa5c48447495aee44fcc92613783575b50613751615499565b94548651908152941693602090a461377560015f805160206156b583398151915255565b519081529081906020820190565b80611507613790926108f6565b5f613748565b806115076137a3926108f6565b5f6136a0565b806115076137b6926108f6565b5f61363e565b806115076137c9926108f6565b5f6135db565b6137e5908a3d8c116116f6576116e68183610909565b505f6134df565b61380290843d86116116f6576116e68183610909565b505f613476565b80611507613816926108f6565b5f613408565b613832908c8d3d106116f6576116e68183610909565b505f6133bd565b613851919550873d8911611735576117268183610909565b935f6132bc565b61389094613864615499565b875163d386df2360e01b81526001600160a01b0390911685820190815290968792918391829160200190565b03915afa938415611513576132a9946138b1915f916138b7575b5015614a12565b8561325b565b6138ce9150883d8a116116f6576116e68183610909565b5f6138aa565b6138eb9150873d89116116f6576116e68183610909565b5f61323f565b6139089150873d89116116f6576116e68183610909565b5f6131b7565b346105ba5760403660031901126105ba576105fb61505a565b346105ba5760203660031901126105ba576004355f526019602052602060405f2054604051908152f35b346105ba576101003660031901126105ba576001600160401b036004358181116105ba576107e2903690600401610784565b346105ba575f3660031901126105ba5760206040516013198152f35b346105ba576020806003193601126105ba576004908135916139bf61505a565b6139c7615089565b6139d9835f52600760205260405f2090565b916001830154613a18613a096125da6139fa845f52600560205260405f2090565b935f52600b60205260405f2090565b613a12816121a4565b1561500e565b6002613a22615499565b8254909590613a4e90613a3d906001600160a01b03166111aa565b6001600160a01b0397881614614206565b613a658582016126396111e26111de835460ff1690565b600a8301613a738154613f5a565b9055015490613ac55f613a906111aa60015460018060a01b031690565b613a98615499565b60405163fb3551ff60e01b81526001600160a01b0390911688820190815290938492918391829160200190565b03915afa90811561151357613ae69160e0915f91613d3c575b500151151590565b80613d33575b613c55575b81613bd1575b5050600154613b0f91506001600160a01b03166111aa565b90613b18615499565b823b156105ba57613b6a925f9283604051809681958294633111036160e11b8452830160809160018060a01b031681526040602082015260076040820152663232b634bb32b960c91b60608201520190565b03925af1801561151357613bbe575b50613b82615499565b16907fa2731d2dafbcc471ba9d8d60761310fc8a6ea5c93bd6d70b077f888f2b6050745f80a3610ec960015f805160206156b583398151915255565b80611507613bcb926108f6565b5f613b79565b5f54613c229284929091613bf190611494906001600160a01b03166111aa565b5f60405180968195829463a9059cbb60e01b84528b840160209093929193604081019460018060a01b031681520152565b03925af1801561151357613c37575b80613af7565b81613c4d92903d106116f6576116e68183610909565b505f80613c31565b613c6b613c6461132584613f87565b8093613fda565b91613cbe8482613c846111aa5f5460018060a01b031690565b6002546040805163a9059cbb60e01b81526001600160a01b039092168b830190815260208101949094529094859384925f92849290910190565b03925af1801561151357613d16575b507ff5f01754584f438c12bcb34b8c17451066251095c28d277f3966dca00bf054a1613d0e613cfd6111aa615499565b604051938452929081906020820190565b0390a2613af1565b613d2c90853d87116116f6576116e68183610909565b505f613ccd565b50811515613aec565b613d5091503d805f833e61282a8183610909565b5f613ade565b929190612a746020916040865260408601906109ed565b346105ba5760203660031901126105ba57613d87366150b3565b80518101604082602083019203126105ba5760208201516001600160401b0381116105ba57820181603f820112156105ba5760409181836020613dcd9401519101614099565b9101519061084d60405192839283613d56565b346105ba5760203660031901126105ba576004355f526011602052602060405f2054604051908152f35b613e1261505a565b613e1a615089565b613e22613e45565b9060015f805160206156b583398151915255565b908160209103126105ba575190565b613e60613e51366150b3565b60208082518301019101613e36565b90565b15613e6a57565b60405162461bcd60e51b815260206004820152600d60248201526c25a99d103737ba10313abcb2b960991b6044820152606490fd5b15613ea657565b60405162461bcd60e51b815260206004820152600d60248201526c12d4ce8819195b1a5d995c9959609a1b6044820152606490fd5b634e487b7160e01b5f52601160045260245ffd5b90620151808201809211613eff57565b613edb565b9062278d008201809211613eff57565b15613f1b57565b60405162461bcd60e51b815260206004820152600c60248201526b4b533a20646561646c696e6560a01b6044820152606490fd5b6040513d5f823e3d90fd5b8015613eff575f190190565b519081151582036105ba57565b908160209103126105ba57613e6090613f66565b90603282029180830460321490151715613eff57565b908160021b9180830460041490151715613eff57565b9081156001838004141715613eff57565b90601482029180830460141490151715613eff57565b91908203918211613eff57565b15613fee57565b60405162461bcd60e51b815260206004820152600b60248201526a12d4ce881a5b9d985b1a5960aa1b6044820152606490fd5b1561402857565b60405162461bcd60e51b815260206004820152600d60248201526c4b533a20746f6f206561726c7960981b6044820152606490fd5b1561406457565b60405162461bcd60e51b815260206004820152600d60248201526c4b533a2073636f726520312d3560981b6044820152606490fd5b909291926140a681611add565b916140b46040519384610909565b8294828452828201116105ba57602061096a9301906109cc565b9080601f830112156105ba578151613e6092602001614099565b519061096a826106da565b519061096a82611ff7565b6020818303126105ba5780516001600160401b03918282116105ba570190610120828403126105ba5761412f611abd565b9282518281116105ba57816141459185016140ce565b845260208301519182116105ba5761415e9183016140ce565b602083015261416f604082016140e8565b6040830152614180606082016140f3565b60608301526080810151608083015260a081015160a083015260c081015160c08301526141af60e08201613f66565b60e08301526141c2610100809201613f66565b9082015290565b156141d057565b60405162461bcd60e51b815260206004820152600e60248201526d25a99d1039b0b6b29037bbb732b960911b6044820152606490fd5b1561420d57565b60405162461bcd60e51b815260206004820152600e60248201526d25a99d103737ba1039b2b63632b960911b6044820152606490fd5b1561424a57565b60405162461bcd60e51b815260206004820152600e60248201526d4b533a206e6f742061637469766560901b6044820152606490fd5b1561428757565b60405162461bcd60e51b81526020600482015260166024820152754b533a2070656e64696e672064656c6976657269657360501b6044820152606490fd5b91939092969495966142d561505a565b6142dd615089565b6001546142f2906001600160a01b03166111aa565b946142fb615499565b6040805163c3c5a54760e01b81526001600160a01b0392909216600480840191909152909990976020928381602481855afa801561151357614343915f916148715750614888565b61437c838c8b614351615499565b9151635a2d572960e11b81526001600160a01b03909216908201908152909283918291602090910190565b0381855afa8015611513576143db926143a760028f9360ff905f968791614844575b501610156148de565b8b6143b0615499565b925163fb3551ff60e01b81526001600160a01b03909316908301908152919384928391829160200190565b03915afa908115611513576111de60e061440693614401935f91613d3c57500151151590565b614918565b60038710158061483a575b61441a9061495b565b670de0b6b3a764000085101580614826575b61443590614998565b6144408b15156149d6565b6003546001600160a01b0399908a16838c826147b4575b50505061447a6144756111de6125da845f52600960205260405f2090565b614a4c565b61448f612639825f52600960205260405f2090565b61449b61132587613fc4565b916144b0678ac7230489e80000841015614a90565b5f548c906145019086906144cc906001600160a01b03166111aa565b928d6144d6615499565b91516370a0823160e01b81526001600160a01b03909216908201908152909283918291602090910190565b0381855afa9081156115135761456f928f5f8f9161452c8a8c9781978591614797575b501015614ad3565b614534615499565b90516323b872dd60e01b81526001600160a01b0390911692810192835230602084015260408301949094529294859384929091839160600190565b03925af180156115135761477a575b50600154614594906001600160a01b03166111aa565b61459c615499565b90803b156105ba578d516331ba14cf60e11b81526001600160a01b03909216828d01908152602081018690525f91839182908490829060400103925af1801561151357614767575b5089549c6145f18e614b18565b6004556145fc615499565b94614605611aa3565b6001600160a01b03909616865261461d368c8c611af8565b9086015261462c368888611af8565b8d860152876060860152369061464192611af8565b608084015260a083015260c0820152600160e08201524261010082015261012081015f905261014081015f90526146808a5f52600560205260405f2090565b9061468a91614c44565b6001546001600160a01b03169561469f615499565b873b156105ba576146ed975f92838c51809b81958294633111036160e11b8452830160809160018060a01b031681526040602082015260046040820152631b1a5cdd60e21b60608201520190565b03925af19283156115135789977f26dc573051b6e7e62d2ca5bd31b932014d45995bfbe6718812734201da9614239761473a95614754575b5061472e615499565b16985195869586614d1b565b0390a39061096a60015f805160206156b583398151915255565b80611507614761926108f6565b5f614725565b80611507614774926108f6565b5f6145e4565b61479090853d87116116f6576116e68183610909565b505f61457e565b6147ae9150893d8b11611735576117268183610909565b5f614524565b6147ec928c6147c1615499565b925163d386df2360e01b81526001600160a01b03909316908301908152919384928391829160200190565b03915afa801561151357614807915f9161480f575015614a12565b5f838c614457565b6138ce9150853d87116116f6576116e68183610909565b5069d3c21bcecceda100000085111561442c565b5089871115614411565b61486491508a3d8c1161486a575b61485c8183610909565b8101906148c9565b5f61439e565b503d614852565b6139089150853d87116116f6576116e68183610909565b1561488f57565b60405162461bcd60e51b815260206004820152601260248201527112d4ce881b9bdd081c9959da5cdd195c995960721b6044820152606490fd5b908160209103126105ba5751613e6081611ff7565b156148e557565b60405162461bcd60e51b815260206004820152600b60248201526a4b533a207469657220322b60a81b6044820152606490fd5b1561491f57565b60405162461bcd60e51b815260206004820152601460248201527312d4ce8818db19585c881919589d08199a5c9cdd60621b6044820152606490fd5b1561496257565b60405162461bcd60e51b815260206004820152600e60248201526d12d4ce881d1a5d1b19480ccb4d8d60921b6044820152606490fd5b1561499f57565b60405162461bcd60e51b815260206004820152600f60248201526e4b533a2070726963652072616e676560881b6044820152606490fd5b156149dd57565b60405162461bcd60e51b815260206004820152600d60248201526c12d4ce88195b5c1d1e4810d251609a1b6044820152606490fd5b15614a1957565b60405162461bcd60e51b815260206004820152600b60248201526a4b533a2072657374696e6760a81b6044820152606490fd5b15614a5357565b60405162461bcd60e51b815260206004820152601560248201527412d4ce88191d5c1b1a58d85d194818dbdb9d195b9d605a1b6044820152606490fd5b15614a9757565b60405162461bcd60e51b815260206004820152601460248201527312d4ce881b5a5b881cdd185ad9480c4c0810d2d560621b6044820152606490fd5b15614ada57565b60405162461bcd60e51b81526020600482015260166024820152754b533a20696e73756666696369656e74207374616b6560501b6044820152606490fd5b5f198114613eff5760010190565b601f8211614b3357505050565b5f5260205f20906020601f840160051c83019310614b6b575b601f0160051c01905b818110614b60575050565b5f8155600101614b55565b9091508190614b4c565b91909182516001600160401b0381116108d657614b9c81614b96845461086e565b84614b26565b602080601f8311600114614bdd57508190614bce9394955f92614bd2575b50508160011b915f199060031b1c19161790565b9055565b015190505f80614bba565b90601f19831695614bf1855f5260205f2090565b925f905b888210614c2c57505083600195969710614c14575b505050811b019055565b01515f1960f88460031b161c191690555f8080614c0a565b80600185968294968601518155019501930190614bf5565b815181546001600160a01b0319166001600160a01b0390911617815590600a9061014090614c79602082015160018601614b75565b614c8a604082015160028601614b75565b60608101516003850155614ca5608082015160048601614b75565b60a0810151600585015560c08101516006850155614cde614cc960e0830151151590565b600786019060ff801983541691151516179055565b610100810151600885015561012081015160098501550151910155565b908060209392818452848401375f828201840152601f01601f1916010190565b90614d3590613e6096949593606084526060840191614cfb565b9360208201526040818503910152614cfb565b919091614d53615594565b614d5b615594565b6001600160a01b039081169081151580614e22575b80614e17575b15614de257614dcf93614db2926001600160601b0360a01b5f5416175f551660018060a01b03166001600160601b0360a01b6001541617600155565b60018060a01b03166001600160601b0360a01b6002541617600255565b614ddf614dda615499565b61529d565b50565b60405162461bcd60e51b815260206004820152600d60248201526c25a99d103d32b9379030b2323960991b6044820152606490fd5b508083161515614d76565b508084161515614d70565b15614e3457565b60405162461bcd60e51b815260206004820152601b60248201527f4b533a207573652070757263686173654b6e6f776c65646765563200000000006044820152606490fd5b15614e8057565b60405162461bcd60e51b81526020600482015260116024820152704b533a2073656c662d707572636861736560781b6044820152606490fd5b15614ec057565b60405162461bcd60e51b815260206004820152602260248201527f4b533a207265766965772070656e64696e6720707572636861736573206669726044820152611cdd60f21b6064820152608490fd5b15614f1757565b60405162461bcd60e51b815260206004820152601460248201527312d4ce881a5b9cdd59999a58da595b9d0810d2d560621b6044820152606490fd5b15614f5a57565b60405162461bcd60e51b815260206004820152601560248201527412d4ce88185b1c9958591e481c1d5c98da185cd959605a1b6044820152606490fd5b815181546001600160a01b0319166001600160a01b039190911617815560a0906004906020840151600182015560408401516002820155606084015160038201550191614ff660808201511515849060ff801983541691151516179055565b0151815461ff00191690151560081b61ff0016179055565b1561501557565b60405162461bcd60e51b815260206004820152601a60248201527f4b533a2075736520656e637279707465642064656c69766572790000000000006044820152606490fd5b5f805160206156b583398151915260028154146150775760029055565b604051633ee5aeb560e01b8152600490fd5b60ff5f8051602061569583398151915254166150a157565b60405163d93c066560e01b8152600490fd5b601e546001600160a01b031690811561511d575f918291604051818192858337810184815203915af43d15615115573d906150ed82611add565b916150fb6040519384610909565b82523d5f602084013e5b1561510d5790565b602081519101fd5b606090615105565b60405162461bcd60e51b815260206004820152601360248201527212d4ce881d8c881b5bd91d5b19481d5b9cd95d606a1b6044820152606490fd5b615160615499565b6001600160a01b0381165f9081527fb7db2dd08fcb62d0c9e08c51941cae53c267786a0b75803fb7960902fc8ef97d602052604090205460ff16156151a25750565b60405163e2517d3f60e01b81526001600160a01b0390911660048201525f6024820152604490fd5b6151d2615499565b6001600160a01b0381165f9081527f1a6cd9a7b8103b1ac8ae3acbee9fd0afe79825cbeda582da2cdf52e70cae65a9602052604090207fba279271fb7bbf76a6f3df3cc57bf80647fcafdea60ec3383d90f459de74e7c09060ff905b541615615239575050565b60405163e2517d3f60e01b81526001600160a01b039092166004830152602482015260449150fd5b615269615499565b90805f525f8051602061567583398151915260205260ff61522e8360405f209060018060a01b03165f5260205260405f2090565b6001600160a01b0381165f9081527fb7db2dd08fcb62d0c9e08c51941cae53c267786a0b75803fb7960902fc8ef97d60205260409020545f805160206156758339815191529060ff16615352575f808052602091825260408082206001600160a01b038516835290925220805460ff1916600117905561531b615499565b6001600160a01b0390811691165f7f2f8788117e7eff1d82e926ec794901d17c78024a50270940304540a733656f0d8180a4600190565b50505f90565b5f8181525f80516020615675833981519152602081815260408084206001600160a01b03871685529091529091205460ff166153f6575f828152602091825260408082206001600160a01b038616835290925220805460ff191660011790556153bf615499565b6001600160a01b039081169216907f2f8788117e7eff1d82e926ec794901d17c78024a50270940304540a733656f0d5f80a4600190565b5050505f90565b5f8181525f80516020615675833981519152602081815260408084206001600160a01b03871685529091529091205460ff16156153f6575f828152602091825260408082206001600160a01b038616835290925220805460ff19169055615462615499565b6001600160a01b039081169216907ff6391f5c32d9c69d2a47ea670b442974b53935d1edc7fd64eb21e047a839171b5f80a4600190565b6014361015806154c0575b156154bc5760131936013681116105ba573560601c90565b3390565b50337f00000000000000000000000000000000000000000000000000000000000000006001600160a01b0316146154a4565b90813b15615573575f8051602061565583398151915280546001600160a01b0319166001600160a01b0384169081179091557fbc7cd75a20ee27fd9adebab32041f755214dbc6bffa90cc0225b39da2e5c2d3b5f80a280511561555857614ddf916155c2565b50503461556157565b60405163b398979f60e01b8152600490fd5b604051634c9c8ce360e01b81526001600160a01b0383166004820152602490fd5b60ff5f805160206156d58339815191525460401c16156155b057565b604051631afcd79f60e31b8152600490fd5b905f8091602081519101845af48080615628575b156155e5575050613e6061563b565b1561560d57604051639996b31560e01b81526001600160a01b03919091166004820152602490fd5b3d15155f03613f4f5760405163d6bda27560e01b8152600490fd5b503d1515806155d65750813b15156155d6565b604051903d82523d5f602084013e60203d83010160405256fe360894a13ba1a3210667c828492db98dca3e2076cc3735a920a3ca505d382bbc02dd7bc7dec4dceedda775e58dd541e08a116c6c53815c0bd028192f7b626800cd5ed15c6e187e77e9aee88184c21f4f2182ab5827cb3b7e07fbedcd63f033009b779b17422d0df92223018b32b4d1fa46e071723d6817e2486d003becc55f00f0c57e16840df040f15088dc2f81fe391c3923bec73e23a9662efc9c229c6a00a264697066735822122064d3507168465e719145f3f64c7070eb21aff939d0470a4c74351c5226a3bbcc64736f6c63430008180033",
  "storageLayout": {
    "storage": [
      {
        "astId": 6427,
        "contract": "src/KnowledgeStore.sol:KnowledgeStore",
        "label": "ckt",
        "offset": 0,
        "slot": "0",
        "type": "t_contract(CKT)6387"
      },
      {
        "astId": 6430,
        "contract": "src/KnowledgeStore.sol:KnowledgeStore",
        "label": "registry",
        "offset": 0,
        "slot": "1",
        "type": "t_contract(AgentRegistry)5784"
      },
      {
        "astId": 6432,
        "contract": "src/KnowledgeStore.sol:KnowledgeStore",
        "label": "feeRecipient",
        "offset": 0,
        "slot": "2",
        "type": "t_address"
      },
      {
        "astId": 6434,
        "contract": "src/KnowledgeStore.sol:KnowledgeStore",
        "label": "reputationContract",
        "offset": 0,
        "slot": "3",
        "type": "t_address"
      },
      {
        "astId": 6528,
        "contract": "src/KnowledgeStore.sol:KnowledgeStore",
        "label": "nextKnowledgeId",
        "offset": 0,
        "slot": "4",
        "type": "t_uint256"
      },
      {
        "astId": 6533,
        "contract": "src/KnowledgeStore.sol:KnowledgeStore",
        "label": "knowledgeItems",
        "offset": 0,
        "slot": "5",
        "type": "t_mapping(t_uint256,t_struct(Knowledge)6513_storage)"
      },
      {
        "astId": 6535,
        "contract": "src/KnowledgeStore.sol:KnowledgeStore",
        "label": "nextPurchaseId",
        "offset": 0,
        "slot": "6",
        "type": "t_uint256"
      },
      {
        "astId": 6540,
        "contract": "src/KnowledgeStore.sol:KnowledgeStore",
        "label": "purchases",
        "offset": 0,
        "slot": "7",
        "type": "t_mapping(t_uint256,t_struct(Purchase)6526_storage)"
      },
      {
        "astId": 6544,
        "contract": "src/KnowledgeStore.sol:KnowledgeStore",
        "label": "buyerPurchases",
        "offset": 0,
        "slot": "8",
        "type": "t_mapping(t_bytes32,t_uint256)"
      },
      {
        "astId": 6548,
        "contract": "src/KnowledgeStore.sol:KnowledgeStore",
        "label": "contentHashExists",
        "offset": 0,
        "slot": "9",
        "type": "t_mapping(t_bytes32,t_bool)"
      },
      {
        "astId": 8520,
        "contract": "src/KnowledgeStore.sol:KnowledgeStore",
        "label": "tempoReward",
        "offset": 0,
        "slot": "10",
        "type": "t_contract(TempoReward)10023"
      },
      {
        "astId": 8525,
        "contract": "src/KnowledgeStore.sol:KnowledgeStore",
        "label": "knowledgeMode",
        "offset": 0,
        "slot": "11",
        "type": "t_mapping(t_uint256,t_enum(KnowledgeMode)6480)"
      },
      {
        "astId": 8529,
        "contract": "src/KnowledgeStore.sol:KnowledgeStore",
        "label": "previewLocator",
        "offset": 0,
        "slot": "12",
        "type": "t_mapping(t_uint256,t_string_storage)"
      },
      {
        "astId": 8533,
        "contract": "src/KnowledgeStore.sol:KnowledgeStore",
        "label": "ciphertextLocator",
        "offset": 0,
        "slot": "13",
        "type": "t_mapping(t_uint256,t_string_storage)"
      },
      {
        "astId": 8537,
        "contract": "src/KnowledgeStore.sol:KnowledgeStore",
        "label": "ciphertextHash",
        "offset": 0,
        "slot": "14",
        "type": "t_mapping(t_uint256,t_bytes32)"
      },
      {
        "astId": 8541,
        "contract": "src/KnowledgeStore.sol:KnowledgeStore",
        "label": "purchaseDeliveryConfigSnapshot",
        "offset": 0,
        "slot": "15",
        "type": "t_mapping(t_uint256,t_bytes32)"
      },
      {
        "astId": 8545,
        "contract": "src/KnowledgeStore.sol:KnowledgeStore",
        "label": "wrappedKeyByPurchase",
        "offset": 0,
        "slot": "16",
        "type": "t_mapping(t_uint256,t_bytes_storage)"
      },
      {
        "astId": 8549,
        "contract": "src/KnowledgeStore.sol:KnowledgeStore",
        "label": "wrappedKeyHashByPurchase",
        "offset": 0,
        "slot": "17",
        "type": "t_mapping(t_uint256,t_bytes32)"
      },
      {
        "astId": 8553,
        "contract": "src/KnowledgeStore.sol:KnowledgeStore",
        "label": "deliveryAttemptCount",
        "offset": 0,
        "slot": "18",
        "type": "t_mapping(t_uint256,t_uint8)"
      },
      {
        "astId": 8558,
        "contract": "src/KnowledgeStore.sol:KnowledgeStore",
        "label": "deliveryState",
        "offset": 0,
        "slot": "19",
        "type": "t_mapping(t_uint256,t_enum(DeliveryState)6490)"
      },
      {
        "astId": 8562,
        "contract": "src/KnowledgeStore.sol:KnowledgeStore",
        "label": "deliveredAt",
        "offset": 0,
        "slot": "20",
        "type": "t_mapping(t_uint256,t_uint64)"
      },
      {
        "astId": 8566,
        "contract": "src/KnowledgeStore.sol:KnowledgeStore",
        "label": "challengedAt",
        "offset": 0,
        "slot": "21",
        "type": "t_mapping(t_uint256,t_uint64)"
      },
      {
        "astId": 8570,
        "contract": "src/KnowledgeStore.sol:KnowledgeStore",
        "label": "redeliveredAt",
        "offset": 0,
        "slot": "22",
        "type": "t_mapping(t_uint256,t_uint64)"
      },
      {
        "astId": 8574,
        "contract": "src/KnowledgeStore.sol:KnowledgeStore",
        "label": "explicitReviewSubmitted",
        "offset": 0,
        "slot": "23",
        "type": "t_mapping(t_uint256,t_bool)"
      },
      {
        "astId": 8578,
        "contract": "src/KnowledgeStore.sol:KnowledgeStore",
        "label": "creditApplied",
        "offset": 0,
        "slot": "24",
        "type": "t_mapping(t_uint256,t_bool)"
      },
      {
        "astId": 8582,
        "contract": "src/KnowledgeStore.sol:KnowledgeStore",
        "label": "buyerBondAmount",
        "offset": 0,
        "slot": "25",
        "type": "t_mapping(t_uint256,t_uint256)"
      },
      {
        "astId": 8586,
        "contract": "src/KnowledgeStore.sol:KnowledgeStore",
        "label": "buyerBondForfeited",
        "offset": 0,
        "slot": "26",
        "type": "t_mapping(t_uint256,t_bool)"
      },
      {
        "astId": 8590,
        "contract": "src/KnowledgeStore.sol:KnowledgeStore",
        "label": "explicitSellerScoreByPurchase",
        "offset": 0,
        "slot": "27",
        "type": "t_mapping(t_uint256,t_uint256)"
      },
      {
        "astId": 8594,
        "contract": "src/KnowledgeStore.sol:KnowledgeStore",
        "label": "payoutReleased",
        "offset": 0,
        "slot": "28",
        "type": "t_mapping(t_uint256,t_bool)"
      },
      {
        "astId": 8598,
        "contract": "src/KnowledgeStore.sol:KnowledgeStore",
        "label": "refundReleased",
        "offset": 0,
        "slot": "29",
        "type": "t_mapping(t_uint256,t_bool)"
      },
      {
        "astId": 8600,
        "contract": "src/KnowledgeStore.sol:KnowledgeStore",
        "label": "v2Module",
        "offset": 0,
        "slot": "30",
        "type": "t_address"
      },
      {
        "astId": 8604,
        "contract": "src/KnowledgeStore.sol:KnowledgeStore",
        "label": "salesOpen",
        "offset": 0,
        "slot": "31",
        "type": "t_mapping(t_uint256,t_bool)"
      },
      {
        "astId": 8608,
        "contract": "src/KnowledgeStore.sol:KnowledgeStore",
        "label": "maxSalesByKnowledge",
        "offset": 0,
        "slot": "32",
        "type": "t_mapping(t_uint256,t_uint256)"
      },
      {
        "astId": 8612,
        "contract": "src/KnowledgeStore.sol:KnowledgeStore",
        "label": "purchaseDeliveryConfigURI",
        "offset": 0,
        "slot": "33",
        "type": "t_mapping(t_uint256,t_string_storage)"
      },
      {
        "astId": 8616,
        "contract": "src/KnowledgeStore.sol:KnowledgeStore",
        "label": "rescueApplied",
        "offset": 0,
        "slot": "34",
        "type": "t_mapping(t_uint256,t_bool)"
      },
      {
        "astId": 8620,
        "contract": "src/KnowledgeStore.sol:KnowledgeStore",
        "label": "__gap",
        "offset": 0,
        "slot": "35",
        "type": "t_array(t_uint256)13_storage"
      }
    ],
    "types": {
      "t_address": {
        "encoding": "inplace",
        "label": "address",
        "numberOfBytes": "20"
      },
      "t_array(t_uint256)13_storage": {
        "base": "t_uint256",
        "encoding": "inplace",
        "label": "uint256[13]",
        "numberOfBytes": "416"
      },
      "t_bool": {
        "encoding": "inplace",
        "label": "bool",
        "numberOfBytes": "1"
      },
      "t_bytes32": {
        "encoding": "inplace",
        "label": "bytes32",
        "numberOfBytes": "32"
      },
      "t_bytes_storage": {
        "encoding": "bytes",
        "label": "bytes",
        "numberOfBytes": "32"
      },
      "t_contract(AgentRegistry)5784": {
        "encoding": "inplace",
        "label": "contract AgentRegistry",
        "numberOfBytes": "20"
      },
      "t_contract(CKT)6387": {
        "encoding": "inplace",
        "label": "contract CKT",
        "numberOfBytes": "20"
      },
      "t_contract(TempoReward)10023": {
        "encoding": "inplace",
        "label": "contract TempoReward",
        "numberOfBytes": "20"
      },
      "t_enum(DeliveryState)6490": {
        "encoding": "inplace",
        "label": "enum KnowledgeStore.DeliveryState",
        "numberOfBytes": "1"
      },
      "t_enum(KnowledgeMode)6480": {
        "encoding": "inplace",
        "label": "enum KnowledgeStore.KnowledgeMode",
        "numberOfBytes": "1"
      },
      "t_mapping(t_bytes32,t_bool)": {
        "encoding": "mapping",
        "key": "t_bytes32",
        "label": "mapping(bytes32 => bool)",
        "numberOfBytes": "32",
        "value": "t_bool"
      },
      "t_mapping(t_bytes32,t_uint256)": {
        "encoding": "mapping",
        "key": "t_bytes32",
        "label": "mapping(bytes32 => uint256)",
        "numberOfBytes": "32",
        "value": "t_uint256"
      },
      "t_mapping(t_uint256,t_bool)": {
        "encoding": "mapping",
        "key": "t_uint256",
        "label": "mapping(uint256 => bool)",
        "numberOfBytes": "32",
        "value": "t_bool"
      },
      "t_mapping(t_uint256,t_bytes32)": {
        "encoding": "mapping",
        "key": "t_uint256",
        "label": "mapping(uint256 => bytes32)",
        "numberOfBytes": "32",
        "value": "t_bytes32"
      },
      "t_mapping(t_uint256,t_bytes_storage)": {
        "encoding": "mapping",
        "key": "t_uint256",
        "label": "mapping(uint256 => bytes)",
        "numberOfBytes": "32",
        "value": "t_bytes_storage"
      },
      "t_mapping(t_uint256,t_enum(DeliveryState)6490)": {
        "encoding": "mapping",
        "key": "t_uint256",
        "label": "mapping(uint256 => enum KnowledgeStore.DeliveryState)",
        "numberOfBytes": "32",
        "value": "t_enum(DeliveryState)6490"
      },
      "t_mapping(t_uint256,t_enum(KnowledgeMode)6480)": {
        "encoding": "mapping",
        "key": "t_uint256",
        "label": "mapping(uint256 => enum KnowledgeStore.KnowledgeMode)",
        "numberOfBytes": "32",
        "value": "t_enum(KnowledgeMode)6480"
      },
      "t_mapping(t_uint256,t_string_storage)": {
        "encoding": "mapping",
        "key": "t_uint256",
        "label": "mapping(uint256 => string)",
        "numberOfBytes": "32",
        "value": "t_string_storage"
      },
      "t_mapping(t_uint256,t_struct(Knowledge)6513_storage)": {
        "encoding": "mapping",
        "key": "t_uint256",
        "label": "mapping(uint256 => struct KnowledgeStore.Knowledge)",
        "numberOfBytes": "32",
        "value": "t_struct(Knowledge)6513_storage"
      },
      "t_mapping(t_uint256,t_struct(Purchase)6526_storage)": {
        "encoding": "mapping",
        "key": "t_uint256",
        "label": "mapping(uint256 => struct KnowledgeStore.Purchase)",
        "numberOfBytes": "32",
        "value": "t_struct(Purchase)6526_storage"
      },
      "t_mapping(t_uint256,t_uint256)": {
        "encoding": "mapping",
        "key": "t_uint256",
        "label": "mapping(uint256 => uint256)",
        "numberOfBytes": "32",
        "value": "t_uint256"
      },
      "t_mapping(t_uint256,t_uint64)": {
        "encoding": "mapping",
        "key": "t_uint256",
        "label": "mapping(uint256 => uint64)",
        "numberOfBytes": "32",
        "value": "t_uint64"
      },
      "t_mapping(t_uint256,t_uint8)": {
        "encoding": "mapping",
        "key": "t_uint256",
        "label": "mapping(uint256 => uint8)",
        "numberOfBytes": "32",
        "value": "t_uint8"
      },
      "t_string_storage": {
        "encoding": "bytes",
        "label": "string",
        "numberOfBytes": "32"
      },
      "t_struct(Knowledge)6513_storage": {
        "encoding": "inplace",
        "label": "struct KnowledgeStore.Knowledge",
        "members": [
          {
            "astId": 6492,
            "contract": "src/KnowledgeStore.sol:KnowledgeStore",
            "label": "seller",
            "offset": 0,
            "slot": "0",
            "type": "t_address"
          },
          {
            "astId": 6494,
            "contract": "src/KnowledgeStore.sol:KnowledgeStore",
            "label": "title",
            "offset": 0,
            "slot": "1",
            "type": "t_string_storage"
          },
          {
            "astId": 6496,
            "contract": "src/KnowledgeStore.sol:KnowledgeStore",
            "label": "tags",
            "offset": 0,
            "slot": "2",
            "type": "t_string_storage"
          },
          {
            "astId": 6498,
            "contract": "src/KnowledgeStore.sol:KnowledgeStore",
            "label": "price",
            "offset": 0,
            "slot": "3",
            "type": "t_uint256"
          },
          {
            "astId": 6500,
            "contract": "src/KnowledgeStore.sol:KnowledgeStore",
            "label": "ipfsCID",
            "offset": 0,
            "slot": "4",
            "type": "t_string_storage"
          },
          {
            "astId": 6502,
            "contract": "src/KnowledgeStore.sol:KnowledgeStore",
            "label": "contentHash",
            "offset": 0,
            "slot": "5",
            "type": "t_bytes32"
          },
          {
            "astId": 6504,
            "contract": "src/KnowledgeStore.sol:KnowledgeStore",
            "label": "stakeAmount",
            "offset": 0,
            "slot": "6",
            "type": "t_uint256"
          },
          {
            "astId": 6506,
            "contract": "src/KnowledgeStore.sol:KnowledgeStore",
            "label": "active",
            "offset": 0,
            "slot": "7",
            "type": "t_bool"
          },
          {
            "astId": 6508,
            "contract": "src/KnowledgeStore.sol:KnowledgeStore",
            "label": "listedAt",
            "offset": 0,
            "slot": "8",
            "type": "t_uint256"
          },
          {
            "astId": 6510,
            "contract": "src/KnowledgeStore.sol:KnowledgeStore",
            "label": "salesCount",
            "offset": 0,
            "slot": "9",
            "type": "t_uint256"
          },
          {
            "astId": 6512,
            "contract": "src/KnowledgeStore.sol:KnowledgeStore",
            "label": "pendingDeliveries",
            "offset": 0,
            "slot": "10",
            "type": "t_uint256"
          }
        ],
        "numberOfBytes": "352"
      },
      "t_struct(Purchase)6526_storage": {
        "encoding": "inplace",
        "label": "struct KnowledgeStore.Purchase",
        "members": [
          {
            "astId": 6515,
            "contract": "src/KnowledgeStore.sol:KnowledgeStore",
            "label": "buyer",
            "offset": 0,
            "slot": "0",
            "type": "t_address"
          },
          {
            "astId": 6517,
            "contract": "src/KnowledgeStore.sol:KnowledgeStore",
            "label": "knowledgeId",
            "offset": 0,
            "slot": "1",
            "type": "t_uint256"
          },
          {
            "astId": 6519,
            "contract": "src/KnowledgeStore.sol:KnowledgeStore",
            "label": "paidAmount",
            "offset": 0,
            "slot": "2",
            "type": "t_uint256"
          },
          {
            "astId": 6521,
            "contract": "src/KnowledgeStore.sol:KnowledgeStore",
            "label": "purchasedAt",
            "offset": 0,
            "slot": "3",
            "type": "t_uint256"
          },
          {
            "astId": 6523,
            "contract": "src/KnowledgeStore.sol:KnowledgeStore",
            "label": "delivered",
            "offset": 0,
            "slot": "4",
            "type": "t_bool"
          },
          {
            "astId": 6525,
            "contract": "src/KnowledgeStore.sol:KnowledgeStore",
            "label": "reviewed",
            "offset": 1,
            "slot": "4",
            "type": "t_bool"
          }
        ],
        "numberOfBytes": "160"
      },
      "t_uint256": {
        "encoding": "inplace",
        "label": "uint256",
        "numberOfBytes": "32"
      },
      "t_uint64": {
        "encoding": "inplace",
        "label": "uint64",
        "numberOfBytes": "8"
      },
      "t_uint8": {
        "encoding": "inplace",
        "label": "uint8",
        "numberOfBytes": "1"
      }
    }
  }
}