{"abi":[{"type":"constructor","inputs":[{"name":"","type":"address","internalType":"address"},{"name":"_salesModule","type":"address","internalType":"address"},{"name":"_deliveryModule","type":"address","internalType":"address"}],"stateMutability":"nonpayable"},{"type":"function","name":"acceptDelivery","inputs":[{"name":"","type":"uint256","internalType":"uint256"}],"outputs":[],"stateMutability":"nonpayable"},{"type":"function","name":"challengeDeliveryObjective","inputs":[{"name":"","type":"uint256","internalType":"uint256"},{"name":"","type":"uint8","internalType":"uint8"},{"name":"","type":"bytes32","internalType":"bytes32"}],"outputs":[],"stateMutability":"nonpayable"},{"type":"function","name":"challengeDeliverySubjective","inputs":[{"name":"","type":"uint256","internalType":"uint256"},{"name":"","type":"bytes32","internalType":"bytes32"}],"outputs":[],"stateMutability":"nonpayable"},{"type":"function","name":"deliverEncryptedKey","inputs":[{"name":"","type":"uint256","internalType":"uint256"},{"name":"","type":"bytes","internalType":"bytes"},{"name":"","type":"bytes32","internalType":"bytes32"}],"outputs":[],"stateMutability":"nonpayable"},{"type":"function","name":"deliveryModule","inputs":[],"outputs":[{"name":"","type":"address","internalType":"address"}],"stateMutability":"view"},{"type":"function","name":"finalizeCleanTimeout","inputs":[{"name":"","type":"uint256","internalType":"uint256"}],"outputs":[],"stateMutability":"nonpayable"},{"type":"function","name":"finalizeUndelivered","inputs":[{"name":"","type":"uint256","internalType":"uint256"}],"outputs":[],"stateMutability":"nonpayable"},{"type":"function","name":"getPrivateKnowledgeMeta","inputs":[{"name":"","type":"uint256","internalType":"uint256"}],"outputs":[{"name":"previewURI","type":"string","internalType":"string"},{"name":"encryptedContentURI","type":"string","internalType":"string"},{"name":"encryptedContentHash","type":"bytes32","internalType":"bytes32"}],"stateMutability":"nonpayable"},{"type":"function","name":"getWrappedKey","inputs":[{"name":"","type":"uint256","internalType":"uint256"}],"outputs":[{"name":"wrappedKey","type":"bytes","internalType":"bytes"},{"name":"wrappedKeyHash","type":"bytes32","internalType":"bytes32"}],"stateMutability":"nonpayable"},{"type":"function","name":"listPrivateKnowledge","inputs":[{"name":"","type":"string","internalType":"string"},{"name":"","type":"string","internalType":"string"},{"name":"","type":"uint256","internalType":"uint256"},{"name":"","type":"string","internalType":"string"},{"name":"","type":"string","internalType":"string"},{"name":"","type":"bytes32","internalType":"bytes32"},{"name":"","type":"bytes32","internalType":"bytes32"}],"outputs":[{"name":"knowledgeId","type":"uint256","internalType":"uint256"}],"stateMutability":"nonpayable"},{"type":"function","name":"listPrivateKnowledgeWithLimit","inputs":[{"name":"","type":"string","internalType":"string"},{"name":"","type":"string","internalType":"string"},{"name":"","type":"uint256","internalType":"uint256"},{"name":"","type":"string","internalType":"string"},{"name":"","type":"string","internalType":"string"},{"name":"","type":"bytes32","internalType":"bytes32"},{"name":"","type":"bytes32","internalType":"bytes32"},{"name":"","type":"uint256","internalType":"uint256"}],"outputs":[{"name":"knowledgeId","type":"uint256","internalType":"uint256"}],"stateMutability":"nonpayable"},{"type":"function","name":"listPublicKnowledgeV2","inputs":[{"name":"","type":"string","internalType":"string"},{"name":"","type":"string","internalType":"string"},{"name":"","type":"uint256","internalType":"uint256"},{"name":"","type":"string","internalType":"string"},{"name":"","type":"string","internalType":"string"},{"name":"","type":"bytes32","internalType":"bytes32"}],"outputs":[{"name":"knowledgeId","type":"uint256","internalType":"uint256"}],"stateMutability":"nonpayable"},{"type":"function","name":"purchaseKnowledgeV2","inputs":[{"name":"","type":"uint256","internalType":"uint256"}],"outputs":[{"name":"purchaseId","type":"uint256","internalType":"uint256"}],"stateMutability":"nonpayable"},{"type":"function","name":"redeliverEncryptedKey","inputs":[{"name":"","type":"uint256","internalType":"uint256"},{"name":"","type":"bytes","internalType":"bytes"},{"name":"","type":"bytes32","internalType":"bytes32"}],"outputs":[],"stateMutability":"nonpayable"},{"type":"function","name":"refundUndeliveredPurchase","inputs":[{"name":"","type":"uint256","internalType":"uint256"},{"name":"","type":"uint8","internalType":"uint8"}],"outputs":[],"stateMutability":"nonpayable"},{"type":"function","name":"reopenSales","inputs":[{"name":"","type":"uint256","internalType":"uint256"}],"outputs":[],"stateMutability":"nonpayable"},{"type":"function","name":"rescueRefundPrivatePurchase","inputs":[{"name":"","type":"uint256","internalType":"uint256"},{"name":"","type":"uint8","internalType":"uint8"}],"outputs":[],"stateMutability":"nonpayable"},{"type":"function","name":"salesModule","inputs":[],"outputs":[{"name":"","type":"address","internalType":"address"}],"stateMutability":"view"},{"type":"function","name":"setSaleLimit","inputs":[{"name":"","type":"uint256","internalType":"uint256"},{"name":"","type":"uint256","internalType":"uint256"}],"outputs":[],"stateMutability":"nonpayable"},{"type":"function","name":"stopSales","inputs":[{"name":"","type":"uint256","internalType":"uint256"}],"outputs":[],"stateMutability":"nonpayable"},{"type":"function","name":"finalizePublicV2Purchase","inputs":[{"name":"","type":"uint256","internalType":"uint256"}],"outputs":[],"stateMutability":"nonpayable"},{"type":"function","name":"review","inputs":[{"name":"","type":"uint256","internalType":"uint256"},{"name":"","type":"uint256","internalType":"uint256"},{"name":"","type":"uint256","internalType":"uint256"}],"outputs":[],"stateMutability":"nonpayable"}],"bytecode":{"object":"0x60c03461012457601f61094e38819003918201601f19168301916001600160401b0383118484101761012857808492606094604052833981010312610124576100478161013c565b5061006060406100596020840161013c565b920161013c565b906001600160a01b0380821615159081610118575b50156100e15760805260a0526040516107fd908161015182396080518181816102a9015281816102e30152818161031c01528181610428015261069a015260a051818181610156015281816102640152818161037a015281816104eb0152818161059301526106170152f35b60405162461bcd60e51b815260206004820152600f60248201526e4b533a207a65726f206d6f64756c6560881b6044820152606490fd5b9050821615155f610075565b5f80fd5b634e487b7160e01b5f52604160045260245ffd5b51906001600160a01b03821682036101245756fe60806040526004361015610011575f80fd5b5f3560e01c806301d7b245146101405780630ab254af1461013b57806313ade187146101365780631479b25e146101135780631a337c961461013157806329125ebb1461012757806353c4a4591461012c5780635e18963b1461011d5780637b422c4c14610127578063917229121461012257806397a4bb2314610109578063b2a6dcb81461011d578063b7a17a9d14610118578063c1d6c94114610113578063c8e9ab4a1461010e578063ceea2f5a14610109578063d468fec614610104578063f086075a146100ff578063f665986e146100fa5763fe7992c2146100f5575f80fd5b610601565b6105b7565b61057d565b61055a565b6104b3565b610541565b610293565b61050f565b61035b565b610412565b610140565b610307565b6102cd565b61024f565b6101ae565b3461017c57602036600319011261017c5761017a7f000000000000000000000000000000000000000000000000000000000000000061077b565b005b5f80fd5b9181601f8401121561017c5782359167ffffffffffffffff831161017c576020838186019501011161017c57565b3461017c5760e036600319011261017c5767ffffffffffffffff60043581811161017c576101e0903690600401610180565b505060243581811161017c576101fa903690600401610180565b505060643581811161017c57610214903690600401610180565b505060843590811161017c5761022e903690600401610180565b505061024b61023b610695565b6040519081529081906020820190565b0390f35b3461017c575f36600319011261017c576040517f00000000000000000000000000000000000000000000000000000000000000006001600160a01b03168152602090f35b3461017c57602036600319011261017c5761017a7f000000000000000000000000000000000000000000000000000000000000000061077b565b3461017c57604036600319011261017c5761017a7f000000000000000000000000000000000000000000000000000000000000000061077b565b3461017c575f36600319011261017c576040517f00000000000000000000000000000000000000000000000000000000000000006001600160a01b03168152602090f35b6024359060ff8216820361017c57565b3461017c57604036600319011261017c5761037461034b565b5061017a7f000000000000000000000000000000000000000000000000000000000000000061077b565b5f5b8381106103af5750505f910152565b81810151838201526020016103a0565b906020916103d88151809281855285808601910161039e565b601f01601f1916010190565b93929161040d906103ff6040936060885260608801906103bf565b9086820360208801526103bf565b930152565b3461017c57602036600319011261017c5761044c7f000000000000000000000000000000000000000000000000000000000000000061077b565b805181016060826020830192031261017c57602082015167ffffffffffffffff9081811161017c578260206104839286010161075e565b91604084015191821161017c576104a4606091602061024b9487010161075e565b930151604051938493846103e4565b3461017c57606036600319011261017c5760243567ffffffffffffffff811161017c576104e4903690600401610180565b505061017a7f000000000000000000000000000000000000000000000000000000000000000061077b565b3461017c5760c036600319011261017c5767ffffffffffffffff60043581811161017c576101e0903690600401610180565b3461017c57606036600319011261017c5761037461034b565b3461017c57602036600319011261017c576020610575610695565b604051908152f35b3461017c57604036600319011261017c5761017a7f000000000000000000000000000000000000000000000000000000000000000061077b565b3461017c5761010036600319011261017c5767ffffffffffffffff60043581811161017c576101e0903690600401610180565b92919061040d6020916040865260408601906103bf565b3461017c57602036600319011261017c5761063b7f000000000000000000000000000000000000000000000000000000000000000061077b565b805181016040826020830192031261017c57602082015167ffffffffffffffff811161017c57820181603f8201121561017c5760409181836020610682940151910161072d565b9101519061024b604051928392836105ea565b6106be7f000000000000000000000000000000000000000000000000000000000000000061077b565b60208180518101031261017c576020015190565b634e487b7160e01b5f52604160045260245ffd5b6040519190601f01601f1916820167ffffffffffffffff81118382101761070c57604052565b6106d2565b67ffffffffffffffff811161070c57601f01601f191660200190565b9092919261074261073d82610711565b6106e6565b938185528183011161017c5761075c91602085019061039e565b565b9080601f8301121561017c5781516107789260200161072d565b90565b5f8091604051368382378036810184815203915af43d156107bf573d906107a461073d83610711565b9182523d5f602084013e5b156107b75790565b602081519101fd5b6060906107af56fea2646970667358221220ee97cb08232e6f3e9a20b3709222f92ba310570fec940d5e253e0dd1209a71a064736f6c63430008180033","linkReferences":{}},"methodIdentifiers":{"acceptDelivery(uint256)":"7b422c4c","challengeDeliveryObjective(uint256,uint8,bytes32)":"c8e9ab4a","challengeDeliverySubjective(uint256,bytes32)":"f086075a","deliverEncryptedKey(uint256,bytes,bytes32)":"97a4bb23","deliveryModule()":"13ade187","finalizeCleanTimeout(uint256)":"29125ebb","finalizeUndelivered(uint256)":"01d7b245","getPrivateKnowledgeMeta(uint256)":"91722912","getWrappedKey(uint256)":"fe7992c2","listPrivateKnowledge(string,string,uint256,string,string,bytes32,bytes32)":"0ab254af","listPrivateKnowledgeWithLimit(string,string,uint256,string,string,bytes32,bytes32,uint256)":"f665986e","listPublicKnowledgeV2(string,string,uint256,string,string,bytes32)":"b7a17a9d","purchaseKnowledgeV2(uint256)":"d468fec6","redeliverEncryptedKey(uint256,bytes,bytes32)":"ceea2f5a","refundUndeliveredPurchase(uint256,uint8)":"b2a6dcb8","reopenSales(uint256)":"1479b25e","rescueRefundPrivatePurchase(uint256,uint8)":"5e18963b","salesModule()":"53c4a459","setSaleLimit(uint256,uint256)":"1a337c96","stopSales(uint256)":"c1d6c941"},"id":55}