{"abi":[{"type":"constructor","inputs":[{"name":"trustedForwarder","type":"address","internalType":"address"}],"stateMutability":"nonpayable"},{"type":"function","name":"AUTO_REVIEW_PERIOD","inputs":[],"outputs":[{"name":"","type":"uint256","internalType":"uint256"}],"stateMutability":"view"},{"type":"function","name":"BURN_PERCENT","inputs":[],"outputs":[{"name":"","type":"uint256","internalType":"uint256"}],"stateMutability":"view"},{"type":"function","name":"BUYER_RESPONSE_DEADLINE","inputs":[],"outputs":[{"name":"","type":"uint256","internalType":"uint256"}],"stateMutability":"view"},{"type":"function","name":"DEBT_DEDUCTION_PERCENT","inputs":[],"outputs":[{"name":"","type":"uint256","internalType":"uint256"}],"stateMutability":"view"},{"type":"function","name":"DEFAULT_ADMIN_ROLE","inputs":[],"outputs":[{"name":"","type":"bytes32","internalType":"bytes32"}],"stateMutability":"view"},{"type":"function","name":"DELIVERY_DEADLINE","inputs":[],"outputs":[{"name":"","type":"uint256","internalType":"uint256"}],"stateMutability":"view"},{"type":"function","name":"FEE_PERCENT","inputs":[],"outputs":[{"name":"","type":"uint256","internalType":"uint256"}],"stateMutability":"view"},{"type":"function","name":"MAX_PRICE","inputs":[],"outputs":[{"name":"","type":"uint256","internalType":"uint256"}],"stateMutability":"view"},{"type":"function","name":"MAX_WRAPPED_KEY_BYTES","inputs":[],"outputs":[{"name":"","type":"uint256","internalType":"uint256"}],"stateMutability":"view"},{"type":"function","name":"MIN_PRICE","inputs":[],"outputs":[{"name":"","type":"uint256","internalType":"uint256"}],"stateMutability":"view"},{"type":"function","name":"OBJECTIVE_REASON_EMPTY_WRAPPED_KEY","inputs":[],"outputs":[{"name":"","type":"uint8","internalType":"uint8"}],"stateMutability":"view"},{"type":"function","name":"OBJECTIVE_REASON_OVERSIZED_WRAPPED_KEY","inputs":[],"outputs":[{"name":"","type":"uint8","internalType":"uint8"}],"stateMutability":"view"},{"type":"function","name":"OWNER_PERCENT","inputs":[],"outputs":[{"name":"","type":"uint256","internalType":"uint256"}],"stateMutability":"view"},{"type":"function","name":"PROTOCOL_ROLE","inputs":[],"outputs":[{"name":"","type":"bytes32","internalType":"bytes32"}],"stateMutability":"view"},{"type":"function","name":"SLASH_PERCENT","inputs":[],"outputs":[{"name":"","type":"uint256","internalType":"uint256"}],"stateMutability":"view"},{"type":"function","name":"STAKE_PERCENT","inputs":[],"outputs":[{"name":"","type":"uint256","internalType":"uint256"}],"stateMutability":"view"},{"type":"function","name":"UPGRADE_INTERFACE_VERSION","inputs":[],"outputs":[{"name":"","type":"string","internalType":"string"}],"stateMutability":"view"},{"type":"function","name":"acceptDelivery","inputs":[{"name":"purchaseId","type":"uint256","internalType":"uint256"}],"outputs":[],"stateMutability":"nonpayable"},{"type":"function","name":"buyerBondAmount","inputs":[{"name":"","type":"uint256","internalType":"uint256"}],"outputs":[{"name":"","type":"uint256","internalType":"uint256"}],"stateMutability":"view"},{"type":"function","name":"buyerBondForfeited","inputs":[{"name":"","type":"uint256","internalType":"uint256"}],"outputs":[{"name":"","type":"bool","internalType":"bool"}],"stateMutability":"view"},{"type":"function","name":"buyerPurchases","inputs":[{"name":"","type":"bytes32","internalType":"bytes32"}],"outputs":[{"name":"","type":"uint256","internalType":"uint256"}],"stateMutability":"view"},{"type":"function","name":"challengeDeliveryObjective","inputs":[{"name":"purchaseId","type":"uint256","internalType":"uint256"},{"name":"reasonCode","type":"uint8","internalType":"uint8"},{"name":"evidenceHash","type":"bytes32","internalType":"bytes32"}],"outputs":[],"stateMutability":"nonpayable"},{"type":"function","name":"challengeDeliverySubjective","inputs":[{"name":"purchaseId","type":"uint256","internalType":"uint256"},{"name":"evidenceHash","type":"bytes32","internalType":"bytes32"}],"outputs":[],"stateMutability":"nonpayable"},{"type":"function","name":"challengedAt","inputs":[{"name":"","type":"uint256","internalType":"uint256"}],"outputs":[{"name":"","type":"uint64","internalType":"uint64"}],"stateMutability":"view"},{"type":"function","name":"ciphertextHash","inputs":[{"name":"","type":"uint256","internalType":"uint256"}],"outputs":[{"name":"","type":"bytes32","internalType":"bytes32"}],"stateMutability":"view"},{"type":"function","name":"ckt","inputs":[],"outputs":[{"name":"","type":"address","internalType":"contract CKT"}],"stateMutability":"view"},{"type":"function","name":"claimUndelivered","inputs":[{"name":"purchaseId","type":"uint256","internalType":"uint256"}],"outputs":[],"stateMutability":"nonpayable"},{"type":"function","name":"contentHashExists","inputs":[{"name":"","type":"bytes32","internalType":"bytes32"}],"outputs":[{"name":"","type":"bool","internalType":"bool"}],"stateMutability":"view"},{"type":"function","name":"creditApplied","inputs":[{"name":"","type":"uint256","internalType":"uint256"}],"outputs":[{"name":"","type":"bool","internalType":"bool"}],"stateMutability":"view"},{"type":"function","name":"deactivate","inputs":[{"name":"knowledgeId","type":"uint256","internalType":"uint256"}],"outputs":[],"stateMutability":"nonpayable"},{"type":"function","name":"deliverEncryptedKey","inputs":[{"name":"purchaseId","type":"uint256","internalType":"uint256"},{"name":"wrappedKey","type":"bytes","internalType":"bytes"},{"name":"wrappedKeyHash","type":"bytes32","internalType":"bytes32"}],"outputs":[],"stateMutability":"nonpayable"},{"type":"function","name":"deliverKey","inputs":[{"name":"purchaseId","type":"uint256","internalType":"uint256"}],"outputs":[],"stateMutability":"nonpayable"},{"type":"function","name":"deliveredAt","inputs":[{"name":"","type":"uint256","internalType":"uint256"}],"outputs":[{"name":"","type":"uint64","internalType":"uint64"}],"stateMutability":"view"},{"type":"function","name":"deliveryAttemptCount","inputs":[{"name":"","type":"uint256","internalType":"uint256"}],"outputs":[{"name":"","type":"uint8","internalType":"uint8"}],"stateMutability":"view"},{"type":"function","name":"deliveryState","inputs":[{"name":"","type":"uint256","internalType":"uint256"}],"outputs":[{"name":"","type":"uint8","internalType":"enum KnowledgeStore.DeliveryState"}],"stateMutability":"view"},{"type":"function","name":"explicitReviewSubmitted","inputs":[{"name":"","type":"uint256","internalType":"uint256"}],"outputs":[{"name":"","type":"bool","internalType":"bool"}],"stateMutability":"view"},{"type":"function","name":"explicitSellerScoreByPurchase","inputs":[{"name":"","type":"uint256","internalType":"uint256"}],"outputs":[{"name":"","type":"uint256","internalType":"uint256"}],"stateMutability":"view"},{"type":"function","name":"feeRecipient","inputs":[],"outputs":[{"name":"","type":"address","internalType":"address"}],"stateMutability":"view"},{"type":"function","name":"finalizeCleanTimeout","inputs":[{"name":"purchaseId","type":"uint256","internalType":"uint256"}],"outputs":[],"stateMutability":"nonpayable"},{"type":"function","name":"finalizeUndelivered","inputs":[{"name":"purchaseId","type":"uint256","internalType":"uint256"}],"outputs":[],"stateMutability":"nonpayable"},{"type":"function","name":"forceDeactivateAndBurnStake","inputs":[{"name":"knowledgeId","type":"uint256","internalType":"uint256"}],"outputs":[],"stateMutability":"nonpayable"},{"type":"function","name":"getKnowledge","inputs":[{"name":"id","type":"uint256","internalType":"uint256"}],"outputs":[{"name":"","type":"tuple","internalType":"struct KnowledgeStore.Knowledge","components":[{"name":"seller","type":"address","internalType":"address"},{"name":"title","type":"string","internalType":"string"},{"name":"tags","type":"string","internalType":"string"},{"name":"price","type":"uint256","internalType":"uint256"},{"name":"ipfsCID","type":"string","internalType":"string"},{"name":"contentHash","type":"bytes32","internalType":"bytes32"},{"name":"stakeAmount","type":"uint256","internalType":"uint256"},{"name":"active","type":"bool","internalType":"bool"},{"name":"listedAt","type":"uint256","internalType":"uint256"},{"name":"salesCount","type":"uint256","internalType":"uint256"},{"name":"pendingDeliveries","type":"uint256","internalType":"uint256"}]}],"stateMutability":"view"},{"type":"function","name":"getPrivateKnowledgeMeta","inputs":[{"name":"knowledgeId","type":"uint256","internalType":"uint256"}],"outputs":[{"name":"mode","type":"uint8","internalType":"enum KnowledgeStore.KnowledgeMode"},{"name":"previewURI","type":"string","internalType":"string"},{"name":"encryptedURI","type":"string","internalType":"string"},{"name":"encryptedHash","type":"bytes32","internalType":"bytes32"}],"stateMutability":"view"},{"type":"function","name":"getPurchase","inputs":[{"name":"id","type":"uint256","internalType":"uint256"}],"outputs":[{"name":"","type":"tuple","internalType":"struct KnowledgeStore.Purchase","components":[{"name":"buyer","type":"address","internalType":"address"},{"name":"knowledgeId","type":"uint256","internalType":"uint256"},{"name":"paidAmount","type":"uint256","internalType":"uint256"},{"name":"purchasedAt","type":"uint256","internalType":"uint256"},{"name":"delivered","type":"bool","internalType":"bool"},{"name":"reviewed","type":"bool","internalType":"bool"}]}],"stateMutability":"view"},{"type":"function","name":"getPurchaseDeliveryState","inputs":[{"name":"purchaseId","type":"uint256","internalType":"uint256"}],"outputs":[{"name":"state","type":"uint8","internalType":"enum KnowledgeStore.DeliveryState"},{"name":"attemptCount","type":"uint8","internalType":"uint8"},{"name":"snapshotHash","type":"bytes32","internalType":"bytes32"},{"name":"bondAmount","type":"uint256","internalType":"uint256"},{"name":"credited","type":"bool","internalType":"bool"}],"stateMutability":"view"},{"type":"function","name":"getRoleAdmin","inputs":[{"name":"role","type":"bytes32","internalType":"bytes32"}],"outputs":[{"name":"","type":"bytes32","internalType":"bytes32"}],"stateMutability":"view"},{"type":"function","name":"getWrappedKey","inputs":[{"name":"purchaseId","type":"uint256","internalType":"uint256"}],"outputs":[{"name":"","type":"bytes","internalType":"bytes"}],"stateMutability":"view"},{"type":"function","name":"grantRole","inputs":[{"name":"role","type":"bytes32","internalType":"bytes32"},{"name":"account","type":"address","internalType":"address"}],"outputs":[],"stateMutability":"nonpayable"},{"type":"function","name":"hasRole","inputs":[{"name":"role","type":"bytes32","internalType":"bytes32"},{"name":"account","type":"address","internalType":"address"}],"outputs":[{"name":"","type":"bool","internalType":"bool"}],"stateMutability":"view"},{"type":"function","name":"initialize","inputs":[{"name":"_ckt","type":"address","internalType":"address"},{"name":"_registry","type":"address","internalType":"address"},{"name":"_feeRecipient","type":"address","internalType":"address"}],"outputs":[],"stateMutability":"nonpayable"},{"type":"function","name":"isTrustedForwarder","inputs":[{"name":"forwarder","type":"address","internalType":"address"}],"outputs":[{"name":"","type":"bool","internalType":"bool"}],"stateMutability":"view"},{"type":"function","name":"knowledgeItems","inputs":[{"name":"","type":"uint256","internalType":"uint256"}],"outputs":[{"name":"seller","type":"address","internalType":"address"},{"name":"title","type":"string","internalType":"string"},{"name":"tags","type":"string","internalType":"string"},{"name":"price","type":"uint256","internalType":"uint256"},{"name":"ipfsCID","type":"string","internalType":"string"},{"name":"contentHash","type":"bytes32","internalType":"bytes32"},{"name":"stakeAmount","type":"uint256","internalType":"uint256"},{"name":"active","type":"bool","internalType":"bool"},{"name":"listedAt","type":"uint256","internalType":"uint256"},{"name":"salesCount","type":"uint256","internalType":"uint256"},{"name":"pendingDeliveries","type":"uint256","internalType":"uint256"}],"stateMutability":"view"},{"type":"function","name":"knowledgeMode","inputs":[{"name":"","type":"uint256","internalType":"uint256"}],"outputs":[{"name":"","type":"uint8","internalType":"enum KnowledgeStore.KnowledgeMode"}],"stateMutability":"view"},{"type":"function","name":"list","inputs":[{"name":"title","type":"string","internalType":"string"},{"name":"tags","type":"string","internalType":"string"},{"name":"price","type":"uint256","internalType":"uint256"},{"name":"ipfsCID","type":"string","internalType":"string"},{"name":"contentHash","type":"bytes32","internalType":"bytes32"}],"outputs":[{"name":"knowledgeId","type":"uint256","internalType":"uint256"}],"stateMutability":"nonpayable"},{"type":"function","name":"listPrivateKnowledge","inputs":[{"name":"title","type":"string","internalType":"string"},{"name":"tags","type":"string","internalType":"string"},{"name":"price","type":"uint256","internalType":"uint256"},{"name":"previewURI","type":"string","internalType":"string"},{"name":"encryptedContentURI","type":"string","internalType":"string"},{"name":"encryptedContentHash","type":"bytes32","internalType":"bytes32"},{"name":"contentHash","type":"bytes32","internalType":"bytes32"}],"outputs":[{"name":"knowledgeId","type":"uint256","internalType":"uint256"}],"stateMutability":"nonpayable"},{"type":"function","name":"listPublicKnowledgeV2","inputs":[{"name":"title","type":"string","internalType":"string"},{"name":"tags","type":"string","internalType":"string"},{"name":"price","type":"uint256","internalType":"uint256"},{"name":"previewURI","type":"string","internalType":"string"},{"name":"publicContentURI","type":"string","internalType":"string"},{"name":"contentHash","type":"bytes32","internalType":"bytes32"}],"outputs":[{"name":"knowledgeId","type":"uint256","internalType":"uint256"}],"stateMutability":"nonpayable"},{"type":"function","name":"nextKnowledgeId","inputs":[],"outputs":[{"name":"","type":"uint256","internalType":"uint256"}],"stateMutability":"view"},{"type":"function","name":"nextPurchaseId","inputs":[],"outputs":[{"name":"","type":"uint256","internalType":"uint256"}],"stateMutability":"view"},{"type":"function","name":"pause","inputs":[],"outputs":[],"stateMutability":"nonpayable"},{"type":"function","name":"paused","inputs":[],"outputs":[{"name":"","type":"bool","internalType":"bool"}],"stateMutability":"view"},{"type":"function","name":"payoutReleased","inputs":[{"name":"","type":"uint256","internalType":"uint256"}],"outputs":[{"name":"","type":"bool","internalType":"bool"}],"stateMutability":"view"},{"type":"function","name":"proxiableUUID","inputs":[],"outputs":[{"name":"","type":"bytes32","internalType":"bytes32"}],"stateMutability":"view"},{"type":"function","name":"purchase","inputs":[{"name":"knowledgeId","type":"uint256","internalType":"uint256"}],"outputs":[{"name":"purchaseId","type":"uint256","internalType":"uint256"}],"stateMutability":"nonpayable"},{"type":"function","name":"purchaseDeliveryConfigSnapshot","inputs":[{"name":"","type":"uint256","internalType":"uint256"}],"outputs":[{"name":"","type":"bytes32","internalType":"bytes32"}],"stateMutability":"view"},{"type":"function","name":"purchaseKnowledgeV2","inputs":[{"name":"knowledgeId","type":"uint256","internalType":"uint256"}],"outputs":[{"name":"purchaseId","type":"uint256","internalType":"uint256"}],"stateMutability":"nonpayable"},{"type":"function","name":"purchases","inputs":[{"name":"","type":"uint256","internalType":"uint256"}],"outputs":[{"name":"buyer","type":"address","internalType":"address"},{"name":"knowledgeId","type":"uint256","internalType":"uint256"},{"name":"paidAmount","type":"uint256","internalType":"uint256"},{"name":"purchasedAt","type":"uint256","internalType":"uint256"},{"name":"delivered","type":"bool","internalType":"bool"},{"name":"reviewed","type":"bool","internalType":"bool"}],"stateMutability":"view"},{"type":"function","name":"redeliverEncryptedKey","inputs":[{"name":"purchaseId","type":"uint256","internalType":"uint256"},{"name":"wrappedKey","type":"bytes","internalType":"bytes"},{"name":"wrappedKeyHash","type":"bytes32","internalType":"bytes32"}],"outputs":[],"stateMutability":"nonpayable"},{"type":"function","name":"redeliveredAt","inputs":[{"name":"","type":"uint256","internalType":"uint256"}],"outputs":[{"name":"","type":"uint64","internalType":"uint64"}],"stateMutability":"view"},{"type":"function","name":"refundReleased","inputs":[{"name":"","type":"uint256","internalType":"uint256"}],"outputs":[{"name":"","type":"bool","internalType":"bool"}],"stateMutability":"view"},{"type":"function","name":"registry","inputs":[],"outputs":[{"name":"","type":"address","internalType":"contract AgentRegistry"}],"stateMutability":"view"},{"type":"function","name":"renounceRole","inputs":[{"name":"role","type":"bytes32","internalType":"bytes32"},{"name":"callerConfirmation","type":"address","internalType":"address"}],"outputs":[],"stateMutability":"nonpayable"},{"type":"function","name":"reputationContract","inputs":[],"outputs":[{"name":"","type":"address","internalType":"address"}],"stateMutability":"view"},{"type":"function","name":"review","inputs":[{"name":"purchaseId","type":"uint256","internalType":"uint256"},{"name":"productScore","type":"uint256","internalType":"uint256"},{"name":"sellerScore","type":"uint256","internalType":"uint256"}],"outputs":[],"stateMutability":"nonpayable"},{"type":"function","name":"revokeRole","inputs":[{"name":"role","type":"bytes32","internalType":"bytes32"},{"name":"account","type":"address","internalType":"address"}],"outputs":[],"stateMutability":"nonpayable"},{"type":"function","name":"setFeeRecipient","inputs":[{"name":"r","type":"address","internalType":"address"}],"outputs":[],"stateMutability":"nonpayable"},{"type":"function","name":"setReputationContract","inputs":[{"name":"r","type":"address","internalType":"address"}],"outputs":[],"stateMutability":"nonpayable"},{"type":"function","name":"setTempoReward","inputs":[{"name":"_tempo","type":"address","internalType":"address"}],"outputs":[],"stateMutability":"nonpayable"},{"type":"function","name":"setV2Module","inputs":[{"name":"module","type":"address","internalType":"address"}],"outputs":[],"stateMutability":"nonpayable"},{"type":"function","name":"supportsInterface","inputs":[{"name":"interfaceId","type":"bytes4","internalType":"bytes4"}],"outputs":[{"name":"","type":"bool","internalType":"bool"}],"stateMutability":"view"},{"type":"function","name":"tempoReward","inputs":[],"outputs":[{"name":"","type":"address","internalType":"contract TempoReward"}],"stateMutability":"view"},{"type":"function","name":"triggerAutoReview","inputs":[{"name":"purchaseId","type":"uint256","internalType":"uint256"}],"outputs":[],"stateMutability":"nonpayable"},{"type":"function","name":"trustedForwarder","inputs":[],"outputs":[{"name":"","type":"address","internalType":"address"}],"stateMutability":"view"},{"type":"function","name":"unpause","inputs":[],"outputs":[],"stateMutability":"nonpayable"},{"type":"function","name":"upgradeToAndCall","inputs":[{"name":"newImplementation","type":"address","internalType":"address"},{"name":"data","type":"bytes","internalType":"bytes"}],"outputs":[],"stateMutability":"payable"},{"type":"function","name":"v2Module","inputs":[],"outputs":[{"name":"","type":"address","internalType":"address"}],"stateMutability":"view"},{"type":"function","name":"wrappedKeyHashByPurchase","inputs":[{"name":"","type":"uint256","internalType":"uint256"}],"outputs":[{"name":"","type":"bytes32","internalType":"bytes32"}],"stateMutability":"view"},{"type":"event","name":"AutoReviewApplied","inputs":[{"name":"purchaseId","type":"uint256","indexed":true,"internalType":"uint256"}],"anonymous":false},{"type":"event","name":"BuyerBondForfeited","inputs":[{"name":"purchaseId","type":"uint256","indexed":true,"internalType":"uint256"},{"name":"amount","type":"uint256","indexed":false,"internalType":"uint256"}],"anonymous":false},{"type":"event","name":"DebtDeducted","inputs":[{"name":"seller","type":"address","indexed":true,"internalType":"address"},{"name":"amount","type":"uint256","indexed":false,"internalType":"uint256"}],"anonymous":false},{"type":"event","name":"DeliveryAccepted","inputs":[{"name":"purchaseId","type":"uint256","indexed":true,"internalType":"uint256"},{"name":"buyer","type":"address","indexed":true,"internalType":"address"}],"anonymous":false},{"type":"event","name":"DeliveryChallenged","inputs":[{"name":"purchaseId","type":"uint256","indexed":true,"internalType":"uint256"},{"name":"buyer","type":"address","indexed":true,"internalType":"address"},{"name":"objective","type":"bool","indexed":false,"internalType":"bool"},{"name":"reasonCode","type":"uint8","indexed":false,"internalType":"uint8"},{"name":"evidenceHash","type":"bytes32","indexed":false,"internalType":"bytes32"}],"anonymous":false},{"type":"event","name":"DeliveryCleanFinalized","inputs":[{"name":"purchaseId","type":"uint256","indexed":true,"internalType":"uint256"},{"name":"buyerBondForfeited","type":"bool","indexed":false,"internalType":"bool"}],"anonymous":false},{"type":"event","name":"DeliveryInvalidFinalized","inputs":[{"name":"purchaseId","type":"uint256","indexed":true,"internalType":"uint256"},{"name":"reasonCode","type":"uint8","indexed":false,"internalType":"uint8"}],"anonymous":false},{"type":"event","name":"DeliveryUndeliveredFinalized","inputs":[{"name":"purchaseId","type":"uint256","indexed":true,"internalType":"uint256"}],"anonymous":false},{"type":"event","name":"EncryptedKeyDelivered","inputs":[{"name":"purchaseId","type":"uint256","indexed":true,"internalType":"uint256"},{"name":"seller","type":"address","indexed":true,"internalType":"address"},{"name":"wrappedKeyHash","type":"bytes32","indexed":false,"internalType":"bytes32"},{"name":"attempt","type":"uint8","indexed":false,"internalType":"uint8"}],"anonymous":false},{"type":"event","name":"EncryptedKeyRedelivered","inputs":[{"name":"purchaseId","type":"uint256","indexed":true,"internalType":"uint256"},{"name":"seller","type":"address","indexed":true,"internalType":"address"},{"name":"wrappedKeyHash","type":"bytes32","indexed":false,"internalType":"bytes32"},{"name":"attempt","type":"uint8","indexed":false,"internalType":"uint8"}],"anonymous":false},{"type":"event","name":"Initialized","inputs":[{"name":"version","type":"uint64","indexed":false,"internalType":"uint64"}],"anonymous":false},{"type":"event","name":"KnowledgeDeactivated","inputs":[{"name":"id","type":"uint256","indexed":true,"internalType":"uint256"}],"anonymous":false},{"type":"event","name":"KnowledgeDelivered","inputs":[{"name":"purchaseId","type":"uint256","indexed":true,"internalType":"uint256"},{"name":"seller","type":"address","indexed":true,"internalType":"address"}],"anonymous":false},{"type":"event","name":"KnowledgeListed","inputs":[{"name":"id","type":"uint256","indexed":true,"internalType":"uint256"},{"name":"seller","type":"address","indexed":true,"internalType":"address"},{"name":"title","type":"string","indexed":false,"internalType":"string"},{"name":"price","type":"uint256","indexed":false,"internalType":"uint256"},{"name":"tags","type":"string","indexed":false,"internalType":"string"}],"anonymous":false},{"type":"event","name":"KnowledgeListedV2","inputs":[{"name":"knowledgeId","type":"uint256","indexed":true,"internalType":"uint256"},{"name":"seller","type":"address","indexed":true,"internalType":"address"},{"name":"mode","type":"uint8","indexed":false,"internalType":"uint8"},{"name":"price","type":"uint256","indexed":false,"internalType":"uint256"}],"anonymous":false},{"type":"event","name":"KnowledgePurchased","inputs":[{"name":"purchaseId","type":"uint256","indexed":true,"internalType":"uint256"},{"name":"knowledgeId","type":"uint256","indexed":true,"internalType":"uint256"},{"name":"buyer","type":"address","indexed":true,"internalType":"address"},{"name":"price","type":"uint256","indexed":false,"internalType":"uint256"}],"anonymous":false},{"type":"event","name":"KnowledgeReviewed","inputs":[{"name":"purchaseId","type":"uint256","indexed":true,"internalType":"uint256"},{"name":"productScore","type":"uint256","indexed":false,"internalType":"uint256"},{"name":"sellerScore","type":"uint256","indexed":false,"internalType":"uint256"}],"anonymous":false},{"type":"event","name":"Paused","inputs":[{"name":"account","type":"address","indexed":false,"internalType":"address"}],"anonymous":false},{"type":"event","name":"PrivateKnowledgePurchased","inputs":[{"name":"purchaseId","type":"uint256","indexed":true,"internalType":"uint256"},{"name":"knowledgeId","type":"uint256","indexed":true,"internalType":"uint256"},{"name":"buyer","type":"address","indexed":true,"internalType":"address"},{"name":"buyerBond","type":"uint256","indexed":false,"internalType":"uint256"}],"anonymous":false},{"type":"event","name":"QualifiedMerchantCreditApplied","inputs":[{"name":"purchaseId","type":"uint256","indexed":true,"internalType":"uint256"},{"name":"seller","type":"address","indexed":true,"internalType":"address"},{"name":"buyer","type":"address","indexed":true,"internalType":"address"},{"name":"sellerScore","type":"uint256","indexed":false,"internalType":"uint256"},{"name":"tempoCredited","type":"bool","indexed":false,"internalType":"bool"}],"anonymous":false},{"type":"event","name":"RoleAdminChanged","inputs":[{"name":"role","type":"bytes32","indexed":true,"internalType":"bytes32"},{"name":"previousAdminRole","type":"bytes32","indexed":true,"internalType":"bytes32"},{"name":"newAdminRole","type":"bytes32","indexed":true,"internalType":"bytes32"}],"anonymous":false},{"type":"event","name":"RoleGranted","inputs":[{"name":"role","type":"bytes32","indexed":true,"internalType":"bytes32"},{"name":"account","type":"address","indexed":true,"internalType":"address"},{"name":"sender","type":"address","indexed":true,"internalType":"address"}],"anonymous":false},{"type":"event","name":"RoleRevoked","inputs":[{"name":"role","type":"bytes32","indexed":true,"internalType":"bytes32"},{"name":"account","type":"address","indexed":true,"internalType":"address"},{"name":"sender","type":"address","indexed":true,"internalType":"address"}],"anonymous":false},{"type":"event","name":"StakeSlashed","inputs":[{"name":"knowledgeId","type":"uint256","indexed":true,"internalType":"uint256"},{"name":"seller","type":"address","indexed":true,"internalType":"address"},{"name":"slashedAmount","type":"uint256","indexed":false,"internalType":"uint256"}],"anonymous":false},{"type":"event","name":"Unpaused","inputs":[{"name":"account","type":"address","indexed":false,"internalType":"address"}],"anonymous":false},{"type":"event","name":"Upgraded","inputs":[{"name":"implementation","type":"address","indexed":true,"internalType":"address"}],"anonymous":false},{"type":"error","name":"AccessControlBadConfirmation","inputs":[]},{"type":"error","name":"AccessControlUnauthorizedAccount","inputs":[{"name":"account","type":"address","internalType":"address"},{"name":"neededRole","type":"bytes32","internalType":"bytes32"}]},{"type":"error","name":"AddressEmptyCode","inputs":[{"name":"target","type":"address","internalType":"address"}]},{"type":"error","name":"ERC1967InvalidImplementation","inputs":[{"name":"implementation","type":"address","internalType":"address"}]},{"type":"error","name":"ERC1967NonPayable","inputs":[]},{"type":"error","name":"EnforcedPause","inputs":[]},{"type":"error","name":"ExpectedPause","inputs":[]},{"type":"error","name":"FailedCall","inputs":[]},{"type":"error","name":"InvalidInitialization","inputs":[]},{"type":"error","name":"NotInitializing","inputs":[]},{"type":"error","name":"ReentrancyGuardReentrantCall","inputs":[]},{"type":"error","name":"UUPSUnauthorizedCallContext","inputs":[]},{"type":"error","name":"UUPSUnsupportedProxiableUUID","inputs":[{"name":"slot","type":"bytes32","internalType":"bytes32"}]}],"bytecode":{"object":"0x60c0346200014c576001600160401b0390601f620057ed38819003918201601f19168301918483118484101762000150578084926020946040528339810103126200014c57516001600160a01b03811681036200014c5760017f9b779b17422d0df92223018b32b4d1fa46e071723d6817e2486d003becc55f00553060805260a0527ff0c57e16840df040f15088dc2f81fe391c3923bec73e23a9662efc9c229c6a009081549060ff8260401c166200013a578080831603620000f4575b60405161568890816200016582396080518181816115b801526116ed015260a05181818161196c01528181611bca01526154020152f35b6001600160401b031990911681179091556040519081527fc7f505b2f371ae2175ee4913f4499e1f2633a7b5936321eed1cdaeb6115181d290602090a15f8080620000bd565b60405163f92ee8a960e01b8152600490fd5b5f80fd5b634e487b7160e01b5f52604160045260245ffdfe60806040526004361015610011575f80fd5b5f3560e01c806301c11d961461055b57806301d7b2451461048457806301ffc9a71461055657806302768de41461055157806302b9bc631461054c57806303eff37b146105475780630ab254af146105425780630e3270301461053d5780630fc18454146105385780631018c5f91461053357806316b5219e1461052e5780631b32008f146105295780631f175594146105245780632128a4bc1461051f57806323b4a7a31461051a578063248a9ca31461051557806328e7b2a61461051057806329125ebb146104845780632be67c4f1461050b5780632c1271c3146105065780632e1371bd146105065780632f2ff15d14610501578063310f1371146104fc57806336568abe146104f75780633742a9f7146104f257806339d006cb146104ed5780633b0ecb61146104e85780633f4ba83a146104e357806342ad6930146104de57806346904840146104d95780634a044932146104d45780634d20372e146104cf5780634f1ef286146104ca57806352d1902d146104c55780635689cbba146104c0578063572b6c05146104bb578063575660c2146104b65780635c975abb146104b15780635cb84518146104ac5780635f7668ce146104a757806361c2649e146104a25780637021f1a31461049d57806375e1cf241461049857806377c50e9d14610493578063790213101461048e5780637b103999146104895780637b422c4c146104845780637da0a8771461047f5780637e92b8541461047a5780638392fe31146104755780638456cb591461047057806387bc14251461046b5780638c5b2293146104665780638ddad6ac14610461578063916b9bef1461045c578063917229121461045757806391d1485414610452578063927f9c991461044d57806393407b1f146104485780639584660f1461044357806397a4bb231461040757806399dc86541461043e5780639c98676414610439578063a07dcd4614610434578063a217fddf1461042f578063a4ede5eb146103da578063a8ad0daa1461042a578063ac8919c914610425578063ad3cb1cc14610420578063ad9f20a61461041b578063b7a17a9d14610416578063c0c53b8b14610411578063c8e9ab4a1461040c578063ceea2f5a14610407578063d11ac98814610402578063d468fec6146103fd578063d547741f146103f8578063e74b981b146103f3578063eaf98d23146103ee578063efef39a1146103e9578063f086075a146103e4578063f5c0b48c146103df578063f6e8913d146103da578063fc4126df146103d5578063fe7992c2146103d05763fece90f5146103cb575f80fd5b613843565b613772565b6133c8565b6127ad565b61339e565b613385565b612bab565b612b90565b612b07565b612abb565b612a77565b612a44565b612690565b612a20565b6128cb565b61289a565b612878565b612821565b6127f7565b6127c8565b612793565b612717565b6126fc565b6126ca565b612649565b61262c565b6125f9565b61259b565b612510565b612328565b611d6d565b611d40565b611d18565b611cb4565b611c44565b611c10565b611bb5565b610592565b611b8d565b611b66565b611b37565b611b08565b611ad9565b611abe565b611a8f565b611a1c565b6119c8565b6119a0565b611948565b611744565b6116db565b611565565b611341565b61130e565b6112e6565b6110c2565b61103b565b611011565b610fe9565b610ef7565b610e57565b610e3a565b610dec565b610dd1565b610db6565b610c97565b610ba5565b610b88565b610b5e565b610b2f565b610ae8565b610acb565b610a40565b610807565b6107ea565b61074a565b61069b565b610660565b610626565b6105d0565b61056e565b5f91031261056a57565b5f80fd5b3461056a575f36600319011261056a57602060405169d3c21bcecceda10000008152f35b3461056a57602036600319011261056a576105ab614994565b6105b36149c3565b6105bc366149ed565b5060015f805160206155f383398151915255005b3461056a57602036600319011261056a5760043563ffffffff60e01b811680910361056a57602090637965db0b60e01b8114908115610615575b506040519015158152f35b6301ffc9a760e01b1490505f61060a565b3461056a575f36600319011261056a5760206040517fba279271fb7bbf76a6f3df3cc57bf80647fcafdea60ec3383d90f459de74e7c08152f35b3461056a57602036600319011261056a576004355f52600e602052602060405f2054604051908152f35b6001600160a01b0381160361056a57565b3461056a57602036600319011261056a576004356106b88161068a565b6106c0614a93565b6001600160a01b031680156106e6576001600160601b0360a01b601e541617601e555f80f35b60405162461bcd60e51b815260206004820152600f60248201526e4b533a207a65726f206d6f64756c6560881b6044820152606490fd5b9181601f8401121561056a578235916001600160401b03831161056a576020838186019501011161056a57565b3461056a5760e036600319011261056a576001600160401b0360043581811161056a5761077b90369060040161071d565b505060243581811161056a5761079590369060040161071d565b505060643581811161056a576107af90369060040161071d565b505060843590811161056a576107c990369060040161071d565b50506107e66107d661386d565b6040519081529081906020820190565b0390f35b3461056a575f36600319011261056a57602060405162278d008152f35b3461056a575f36600319011261056a5760206040516104008152f35b90600182811c92168015610851575b602083101461083d57565b634e487b7160e01b5f52602260045260245ffd5b91607f1691610832565b634e487b7160e01b5f52604160045260245ffd5b61016081019081106001600160401b0382111761088b57604052565b61085b565b60c081019081106001600160401b0382111761088b57604052565b6001600160401b03811161088b57604052565b90601f801991011681019081106001600160401b0382111761088b57604052565b9060405191825f82546108f181610823565b908184526020946001916001811690815f1461095f5750600114610921575b50505061091f925003836108be565b565b5f90815285812095935091905b81831061094757505061091f93508201015f8080610910565b8554888401850152948501948794509183019161092e565b9250505061091f94925060ff191682840152151560051b8201015f8080610910565b5f5b8381106109925750505f910152565b8181015183820152602001610983565b906020916109bb81518092818552858086019101610981565b601f01601f1916010190565b979490610a1e936109fd6101409b989e9d9c9996948b610a0b94602061016092839260018060a01b0316815201528c01906109a2565b908a820360408c01526109a2565b91606089015287820360808901526109a2565b9860a086015260c0850152151560e08401526101008301526101208201520152565b3461056a57602036600319011261056a576004355f90815260066020526040902080546001600160a01b03166107e6610a7b600184016108df565b92610a88600282016108df565b906003810154610a9a600483016108df565b600583015460068401549060ff60078601541692600886015494600a6009880154970154976040519b8c9b8c6109c7565b3461056a575f36600319011261056a576020604051620151808152f35b3461056a57602036600319011261056a57600435610b058161068a565b610b0d614a93565b600280546001600160a01b0319166001600160a01b0392909216919091179055005b3461056a57602036600319011261056a576004355f52601a602052602060ff60405f2054166040519015158152f35b3461056a57602036600319011261056a576004355f52601b602052602060405f2054604051908152f35b3461056a575f36600319011261056a576020600754604051908152f35b3461056a57602036600319011261056a576004355f525f805160206155b38339815191526020526020600160405f200154604051908152f35b602080825282516001600160a01b0316908201526020820151610c4d610c12610160928360408601526101808501906109a2565b610c2e604086015191601f1992838783030160608801526109a2565b90606086015160808601526080860151908583030160a08601526109a2565b9260a081015160c084015260c081015160e084015260e0810151610c78610100918286019015159052565b8101516101209081850152810151906101409182850152015191015290565b3461056a57602036600319011261056a576107e6604051610cb78161086f565b5f815260606020820152606060408201525f6060820152606060808201525f60a08201525f60c08201525f60e0820152610100905f82820152600a6101205f818401525f610140809401526004355f52600660205260405f2090610d196114da565b82546001600160a01b0316815294610d33600184016108df565b6020870152610d44600284016108df565b604087015260038301546060870152610d5f600484016108df565b6080870152600583015460a0870152600683015460c0870152610d92610d89600785015460ff1690565b151560e0880152565b60088301549086015260098201549085015201549082015260405191829182610bde565b3461056a575f36600319011261056a57602060405160028152f35b3461056a575f36600319011261056a57602060405160018152f35b3461056a57604036600319011261056a57610e38602435600435610e0f8261068a565b805f525f805160206155b3833981519152602052610e33600160405f200154614b9c565b614c93565b005b3461056a575f36600319011261056a576020600554604051908152f35b3461056a57604036600319011261056a57600435602435610e778161068a565b8115610eb2576001600160a01b0380610e8e6153d7565b1690821603610ea057610e38916152f9565b60405163334bd91960e11b8152600490fd5b60405162461bcd60e51b815260206004820152601960248201527f4b533a2063616e6e6f742072656e6f756e63652061646d696e000000000000006044820152606490fd5b3461056a57602036600319011261056a576107e660405f60a08251610f1b81610890565b828152826020820152828482015282606082015282608082015201526004355f526008602052805f2090610f9b60ff6004835194610f5886610890565b80546001600160a01b03168652600181015460208701526002810154858701526003810154606087015201548181161515608086015260081c16151560a0840152565b519182918291909160a08060c0830194600180831b03815116845260208101516020850152604081015160408501526060810151606085015260808101511515608085015201511515910152565b3461056a575f36600319011261056a576002546040516001600160a01b039091168152602090f35b3461056a57602036600319011261056a576004355f52600f602052602060405f2054604051908152f35b3461056a575f36600319011261056a57611053614a93565b5f805160206155d3833981519152805460ff8116156110b05760ff191690557f5db9ee0a495bf2e6ff9c91a7834c1ba4fdd244a5e8aa4e537bd38aeae4b073aa602061109d6153d7565b6040516001600160a01b039091168152a1005b604051638dfc202b60e01b8152600490fd5b3461056a57602036600319011261056a576110db614994565b6110e36149c3565b6110f76004355f52600860205260405f2090565b61112f6111026153d7565b825461111e906001600160a01b03165b6001600160a01b031690565b6001600160a01b03909116146138c3565b6111836004820161115061114b611147835460ff1690565b1590565b6138ff565b611168611160600385015461394f565b421015613974565b805460ff191660011781555b805461ff001916610100179055565b600154611198906001600160a01b0316611112565b81546001600160a01b03169190803b1561056a57604051638fe80d9560e01b81526001600160a01b039390931660048401525f908390602490829084905af19182156112c857611263926112cd575b506001810154906020611202835f52600660205260405f2090565b91600a830161121181546139ba565b90555f54611227906001600160a01b0316611112565b815460029092015460405163a9059cbb60e01b81526001600160a01b0390931660048401526024830152909485919082905f9082906044820190565b03925af19283156112c85761128393611299575b50600381015491614d38565b610e3860015f805160206155f383398151915255565b6112ba9060203d6020116112c1575b6112b281836108be565b8101906139d3565b505f611277565b503d6112a8565b6139af565b806112da6112e0926108ab565b80610560565b5f6111e7565b3461056a575f36600319011261056a576003546040516001600160a01b039091168152602090f35b3461056a57602036600319011261056a576004355f52601560205260206001600160401b0360405f205416604051908152f35b3461056a57602036600319011261056a5760043561135d6149c3565b61136f815f52600860205260405f2090565b6113a46004820161138c815460ff811690816114cb575b506139e7565b61117461139c6003850154613964565b421015613a21565b6113ba60018201545f52600660205260405f2090565b6001546113e1906113d3906001600160a01b0316611112565b91546001600160a01b031690565b90803b1561056a57604051631fca67df60e21b81526001600160a01b03929092166004830152600360248301525f908290604490829084905af180156112c8576114b8575b50600154611440906113d3906001600160a01b0316611112565b90803b1561056a57604051638fe80d9560e01b81526001600160a01b039290921660048301525f908290602490829084905af180156112c8576114a5575b507fb32aed4e447f2ad9195c00c43067223cbb2d8f5db04ca8c2388d148771c8114b5f80a2005b806112da6114b2926108ab565b5f61147e565b806112da6114c5926108ab565b5f611426565b60ff915060081c16155f611386565b6040519061091f8261086f565b6040519061091f82610890565b6040519061012082018281106001600160401b0382111761088b57604052565b6001600160401b03811161088b57601f01601f191660200190565b92919261153b82611514565b9161154960405193846108be565b82948184528183011161056a578281602093845f960137010152565b604036600319011261056a57600480359061157f8261068a565b6024356001600160401b03811161056a573660238201121561056a576115ae903690602481850135910161152f565b6001600160a01b037f000000000000000000000000000000000000000000000000000000000000000081163081149081156116c0575b506116af5790602083926115f6614a93565b6040516352d1902d60e01b8152938491829088165afa5f928161167e575b50611642575050604051634c9c8ce360e01b81526001600160a01b0390921690820190815281906020010390fd5b83835f80516020615593833981519152840361166257610e388383615430565b604051632a87526960e21b815290810184815281906020010390fd5b6116a191935060203d6020116116a8575b61169981836108be565b810190613899565b915f611614565b503d61168f565b60405163703e46dd60e11b81528390fd5b9050815f80516020615593833981519152541614155f6115e4565b3461056a575f36600319011261056a577f00000000000000000000000000000000000000000000000000000000000000006001600160a01b031630036117325760206040515f805160206155938339815191528152f35b60405163703e46dd60e11b8152600490fd5b3461056a57602036600319011261056a57600435611760614b05565b611772815f52600660205260405f2090565b9060078201611782815460ff1690565b611915575b506006820190815491826117fd575b50506001546117b291506113d3906001600160a01b0316611112565b90803b1561056a576040516322eb7bdb60e11b81526001600160a01b0383166004820152905f908290602490829084905af180156112c8576117f057005b806112da610e38926108ab565b5f9055600154611815906001600160a01b0316611112565b83546001600160a01b031690803b1561056a576040516334673ec560e11b81526001600160a01b03929092166004830152602482018490525f908290604490829084905af180156112c857611902575b505f5461187a906001600160a01b0316611112565b803b1561056a57604051630852cd8d60e31b815260048101849052905f908290602490829084905af180156112c8576118ef575b5082546040519283526001600160a01b0316917fba00be99b4ba100b19f2c080160ab22c2b8f4d62027d6524c532e7578d7a43b490602090a35f8080611796565b806112da6118fc926108ab565b5f6118ae565b806112da61190f926108ab565b5f611865565b805460ff19169055807f6231f95ec21671bd178b0f09edd9360d433024b1098c5ea14b4ab7db64caa8da5f80a25f611787565b3461056a57602036600319011261056a5760206004356119678161068a565b6040517f00000000000000000000000000000000000000000000000000000000000000006001600160a01b039081169216919091148152f35b3461056a575f36600319011261056a57601e546040516001600160a01b039091168152602090f35b3461056a575f36600319011261056a57602060ff5f805160206155d383398151915254166040519015158152f35b634e487b7160e01b5f52602160045260245ffd5b906009821015611a175752565b6119f6565b3461056a5760208060031936011261056a5760a0906004355f526013815260409060ff825f205416916012825260ff815f20541690600f8352805f20549060198452805f2054926018855260ff825f20541694611a7b83518098611a0a565b860152840152606083015215156080820152f35b3461056a57602036600319011261056a576004355f52600a602052602060ff60405f2054166040519015158152f35b3461056a575f36600319011261056a57602060405160148152f35b3461056a57602036600319011261056a576004355f52601c602052602060ff60405f2054166040519015158152f35b3461056a57602036600319011261056a576004355f526017602052602060ff60405f2054166040519015158152f35b3461056a57602036600319011261056a576004355f52601d602052602060ff60405f2054166040519015158152f35b3461056a575f36600319011261056a575f546040516001600160a01b039091168152602090f35b3461056a575f36600319011261056a576001546040516001600160a01b039091168152602090f35b3461056a575f36600319011261056a576040517f00000000000000000000000000000000000000000000000000000000000000006001600160a01b03168152602090f35b60031115611a1757565b906003821015611a175752565b3461056a57602036600319011261056a576004355f52600b602052602060ff60405f205416611c426040518092611c03565bf35b3461056a57602036600319011261056a576004355f52600860205260c060405f2060ff60018060a01b0382541691600181015490600281015460046003830154920154926040519586526020860152604085015260608401528181161515608084015260081c16151560a0820152f35b3461056a575f36600319011261056a57611ccc614a93565b611cd46149c3565b5f805160206155d3833981519152805460ff191660011790557f62e78cea01bee320cd4e420270b5ea74000d11b0c9f74754ebdbfc544b05a258602061109d6153d7565b3461056a575f36600319011261056a576004546040516001600160a01b039091168152602090f35b3461056a57602036600319011261056a576004355f526012602052602060ff60405f205416604051908152f35b3461056a57606036600319011261056a576004803590604435602435611d916149c3565b611da3845f52600860205260405f2090565b611dab6153d7565b8154611dd490611dc3906001600160a01b0316611112565b6001600160a01b03928316146138c3565b84820191611ded835460ff811690816114cb57506139e7565b60018091818610158061231d575b80612313575b80612308575b611e1090613a5d565b01611e2481545f52600660205260405f2090565b8254909290611e3b906001600160a01b0316611112565b611e436153d7565b6040805163fb3551ff60e01b8082526001600160a01b03909316818d01908152919892915f90829081906020010381875afa9182156112c857611e9c8a611ec3945f9485916122f4575b5001516001600160a01b031690565b88548b519283526001600160a01b0316828f01908152909591938492918391829160200190565b03915afa9283156112c85787611ef36111128b611efc97611174965f916122d2575001516001600160a01b031690565b91161415613bbc565b8054611f10906001600160a01b0316611112565b83546001600160a01b031690803b1561056a578651631fca67df60e21b81526001600160a01b03909216828b01908152602081018a90525f91839182908490829060400103925af180156112c8576122bf575b508054611f78906001600160a01b0316611112565b90611f816153d7565b91803b1561056a578651638fe80d9560e01b81526001600160a01b03909316838b019081525f91849182908490829060200103925af19081156112c857611fd992611112926122ac575b50546001600160a01b031690565b90611fe26153d7565b91803b1561056a578551633111036160e11b81526001600160a01b03909316838a019081526040602082018190526006908201526572657669657760d01b60608201525f91849182908490829060800103925af19081156112c8576120619261205a92612299575b50545f52600b60205260405f2090565b5460ff1690565b61206a81611bf9565b6121b257600254612083906001600160a01b0316611112565b9182166120bd575b50505f8051602061563383398151915293506120b8905b5191825260208201929092529081906040820190565b0390a2005b546001600160a01b031690803b1561056a57825163871aa80f60e01b81526001600160a01b03909216868301908152602081018690525f91839182908490829060400103925af180156112c85761219f575b50600254612125906001600160a01b0316611112565b9361212e6153d7565b853b1561056a5782516336a6ab4760e01b81526001600160a01b03909116918101918252945f9186919082908490829060200103925af19081156112c8575f80516020615633833981519152946120b89261218c575b81925061208b565b806112da612199926108ab565b5f612184565b806112da6121ac926108ab565b5f61210f565b50936121d66121c9875f52601760205260405f2090565b805460ff19166001179055565b836121e9875f52601b60205260405f2090565b556002546121ff906001600160a01b0316611112565b948516612221575b505f8051602061563383398151915293506120b8906120a2565b6122296153d7565b853b1561056a5782516336a6ab4760e01b81526001600160a01b03909116918101918252945f9186919082908490829060200103925af19081156112c8575f80516020615633833981519152946120b892612286575b5090612207565b806112da612293926108ab565b5f61227f565b806112da6122a6926108ab565b5f61204a565b806112da6122b9926108ab565b5f611fcb565b806112da6122cc926108ab565b5f611f63565b6122ee91503d805f833e6122e681836108be565b810190613af1565b5f611e8d565b6122ee91503d8087833e6122e681836108be565b506005871115611e07565b5081871015611e01565b506005861115611dfb565b3461056a57602036600319011261056a57600435612344614994565b61234c6149c3565b6006612360825f52600660205260405f2090565b61239061236b6153d7565b825461237f906001600160a01b0316611112565b6001600160a01b0390911614613bf9565b6123c2600782016123aa6123a5825460ff1690565b613c36565b6123b8600a84015415613c73565b805460ff19169055565b0180549081612407575b827f6231f95ec21671bd178b0f09edd9360d433024b1098c5ea14b4ab7db64caa8da5f80a2610e3860015f805160206155f383398151915255565b5f905560015461241f906001600160a01b0316611112565b906124286153d7565b91803b1561056a576040516334673ec560e11b81526001600160a01b03939093166004840152602483018290525f908390604490829084905af19081156112c8576124c9926020926124fd575b505f5461248a906001600160a01b0316611112565b6124926153d7565b60405163a9059cbb60e01b81526001600160a01b0390911660048201526024810192909252909283919082905f9082906044820190565b03925af180156112c8576124de575b806123cc565b6124f69060203d6020116112c1576112b281836108be565b505f6124d8565b806112da61250a926108ab565b5f612475565b3461056a5760208060031936011261056a57612577906004355f52600b815260409061259160ff835f20541692600c8352805f2092600d8152612584825f20600e8352608061256b612565865f2054986108df565b926108df565b938551998a809a611c03565b88015260808701906109a2565b91858303908601526109a2565b9060608301520390f35b3461056a57604036600319011261056a57602060ff6125ed6024356125bf8161068a565b6004355f525f805160206155b3833981519152845260405f209060018060a01b03165f5260205260405f2090565b54166040519015158152f35b3461056a57602036600319011261056a576004355f52601660205260206001600160401b0360405f205416604051908152f35b3461056a575f36600319011261056a5760206040516203f4808152f35b3461056a57602036600319011261056a576004356126668161068a565b61266e614a93565b600480546001600160a01b0319166001600160a01b0392909216919091179055005b3461056a57606036600319011261056a576024356001600160401b03811161056a576126c090369060040161071d565b50506105ab614994565b3461056a57602036600319011261056a576004355f526013602052602060ff60405f205416611c426040518092611a0a565b3461056a575f36600319011261056a57602060405160048152f35b3461056a5760a036600319011261056a576001600160401b0360043581811161056a5761274890369060040161071d565b60249291923582811161056a5761276390369060040161071d565b9060643593841161056a576107e6946127836107d695369060040161071d565b9390926084359560443593613cb8565b3461056a575f36600319011261056a5760206040515f8152f35b3461056a575f36600319011261056a57602060405160328152f35b3461056a57602036600319011261056a576004355f526018602052602060ff60405f2054166040519015158152f35b3461056a57602036600319011261056a576004355f526009602052602060405f2054604051908152f35b3461056a575f36600319011261056a5760405160408101908082106001600160401b0383111761088b576107e69160405260058152640352e302e360dc1b60208201526040519182916020835260208301906109a2565b3461056a575f36600319011261056a576020604051670de0b6b3a76400008152f35b3461056a5760c036600319011261056a576001600160401b0360043581811161056a5761077b90369060040161071d565b3461056a57606036600319011261056a576004356128e88161068a565b602435906128f58261068a565b6044356129018161068a565b5f8051602061561383398151915254926001600160401b0360ff8560401c1615941680159081612a0d575b6001149081612a03575b1590816129fa575b506129e8575f80516020615613833981519152805467ffffffffffffffff1916600117905561297192846129bf576146f7565b61297757005b5f80516020615613833981519152805460ff60401b19169055604051600181527fc7f505b2f371ae2175ee4913f4499e1f2633a7b5936321eed1cdaeb6115181d290602090a1005b5f80516020615613833981519152805460ff60401b1916680100000000000000001790556146f7565b60405163f92ee8a960e01b8152600490fd5b9050155f61293e565b303b159150612936565b85915061292c565b60ff81160361056a57565b3461056a57606036600319011261056a57612a3c602435612a15565b6105ab614994565b3461056a57602036600319011261056a576004355f52601460205260206001600160401b0360405f205416604051908152f35b3461056a57602036600319011261056a57612a90614994565b612a986149c3565b6020612aa26138a8565b60015f805160206155f383398151915255604051908152f35b3461056a57604036600319011261056a57610e38602435600435612ade8261068a565b805f525f805160206155b3833981519152602052612b02600160405f200154614b9c565b6152f9565b3461056a57602036600319011261056a57600435612b248161068a565b612b2c614a93565b6001600160a01b03168015612b52576001600160601b0360a01b60035416176003555f80f35b60405162461bcd60e51b815260206004820152601660248201527512d4ce881e995c9bc8199959481c9958da5c1a595b9d60521b6044820152606490fd5b3461056a575f36600319011261056a57602060405160058152f35b3461056a5760208060031936011261056a57600490813591612bcb614994565b612bd36149c3565b612be5835f52600660205260405f2090565b612bf66123a5600783015460ff1690565b600154612c0b906001600160a01b0316611112565b93612c146153d7565b6040805163c3c5a54760e01b81526001600160a01b039092168286019081529094919086908290819060200103818a5afa80156112c857612c5c915f91613368575b5061427a565b612cc985612c686153d7565b8554909890612c9590612c83906001600160a01b0316611112565b6001600160a01b039a8b1614156147dc565b612c9d6153d7565b8751631f1da14d60e11b81526001600160a01b0390911685820190815290938492918391829160200190565b03915afa80156112c857612ce4915f9161334b575b5061481c565b805486166001600160a01b031685816132d3575b50505f54612d0e906001600160a01b0316611112565b92612d4686612d1b6153d7565b87516370a0823160e01b81526001600160a01b03909116858201908152909283918291602090910190565b0381885afa9081156112c857612e2b9187915f916132b6575b506003840196612d73885480931015614873565b89612ddf612d7f6153d7565b855160609190911b6bffffffffffffffffffffffff1916838201908152601481018b905290612dba816034840103601f1981018352826108be565b51902093612dda612dd3865f52600960205260405f2090565b54156148b6565b615395565b9691809391948a5f612def6153d7565b99516323b872dd60e01b8082526001600160a01b03909b1692810192835230602084015260408301949094529294859384929091839160600190565b03925af180156112c857613299575b505f54612e4f906001600160a01b0316611112565b803b1561056a578a51630852cd8d60e31b8152808901928352915f91839182908490829060200103925af180156112c857613286575b505f548a908a90612e9e906001600160a01b0316611112565b612ea66153d7565b60035492518781526001600160a01b03918216818c019081529190931660208201526040810194909452909283919082905f90829060600103925af180156112c85784938b928892613269575b505f80548c9190612f0c906001600160a01b0316611112565b92612f48612f186153d7565b93519182526001600160a01b03909316948101948552306020860152604085019790975286938492839160600190565b03925af19182156112c857612fd99261324c575b50612fcb612f6b6007546144c7565b998a94612f7786600755565b88612f806153d7565b92612f9b612f8c6114e7565b6001600160a01b039095168552565b8301528a8201524260608201525f60808201525f60a0820152612fc6855f52600860205260405f2090565b6148fa565b5f52600960205260405f2090565b5560098101612fe881546144c7565b9055600a8101612ff881546144c7565b905560015461300f906001600160a01b0316611112565b6130176153d7565b90803b1561056a578651630a3be34960e01b81526001600160a01b039092168483019081525f91839182908490829060200103925af180156112c857613239575b5060015461306e906001600160a01b0316611112565b6130766153d7565b90803b1561056a578651632afef4b760e21b8082526001600160a01b0390931685820190815290915f9183919082908490829060200103925af180156112c857613226575b506001546130e3906130d5906001600160a01b0316611112565b92546001600160a01b031690565b823b1561056a5786519182526001600160a01b031683820190815290915f9183919082908490829060200103925af180156112c857613213575b50600154613133906001600160a01b0316611112565b9061313c6153d7565b823b1561056a5761318e925f92838851809681958294633111036160e11b8452830160809160018060a01b03168152604060208201526008604082015267707572636861736560c01b60608201520190565b03925af180156112c8576107e69686927fb1388757ab12142ef905a9b301dcdd81dd63ec6232a8fa5c48447495aee44fcc92613200575b506131ce6153d7565b94548651908152941693602090a46131f260015f805160206155f383398151915255565b519081529081906020820190565b806112da61320d926108ab565b5f6131c5565b806112da613220926108ab565b5f61311d565b806112da613233926108ab565b5f6130bb565b806112da613246926108ab565b5f613058565b613262908a3d8c116112c1576112b281836108be565b505f612f5c565b61327f90843d86116112c1576112b281836108be565b505f612ef3565b806112da613293926108ab565b5f612e85565b6132af908c8d3d106112c1576112b281836108be565b505f612e3a565b6132cd9150893d8b116116a85761169981836108be565b5f612d5f565b61330b916132df6153d7565b875163d386df2360e01b81526001600160a01b0390911685820190815290938492918391829160200190565b03915afa80156112c857613327915f9161332e575b5015614404565b5f85612cf8565b6133459150873d89116112c1576112b281836108be565b5f613320565b6133629150873d89116112c1576112b281836108be565b5f612cde565b61337f9150873d89116112c1576112b281836108be565b5f612c56565b3461056a57604036600319011261056a576105ab614994565b3461056a57602036600319011261056a576004355f526019602052602060405f2054604051908152f35b3461056a5760208060031936011261056a576004908135916133e8614994565b6133f06149c3565b613402835f52600860205260405f2090565b9161341960018401545f52600660205260405f2090565b60026134236153d7565b825490959061344f9061343e906001600160a01b0316611112565b6001600160a01b0397881614613bf9565b6134668582016121c961114b611147835460ff1690565b600a830161347481546139ba565b90550154906134c65f61349161111260015460018060a01b031690565b6134996153d7565b60405163fb3551ff60e01b81526001600160a01b0390911688820190815290938492918391829160200190565b03915afa9081156112c8576134e79160e0915f91613744575b500151151590565b8061373b575b613656575b816135d2575b505060015461351091506001600160a01b0316611112565b906135196153d7565b823b1561056a5761356b925f9283604051809681958294633111036160e11b8452830160809160018060a01b031681526040602082015260076040820152663232b634bb32b960c91b60608201520190565b03925af180156112c8576135bf575b506135836153d7565b16907fa2731d2dafbcc471ba9d8d60761310fc8a6ea5c93bd6d70b077f888f2b6050745f80a3610e3860015f805160206155f383398151915255565b806112da6135cc926108ab565b5f61357a565b5f5461362392849290916135f2906113d3906001600160a01b0316611112565b5f60405180968195829463a9059cbb60e01b84528b840160209093929193604081019460018060a01b031681520152565b03925af180156112c857613638575b806134f8565b8161364e92903d106112c1576112b281836108be565b505f80613632565b61367361366c61366584614971565b6064900490565b8093614987565b916136c6848261368c6111125f5460018060a01b031690565b6003546040805163a9059cbb60e01b81526001600160a01b039092168b830190815260208101949094529094859384925f92849290910190565b03925af180156112c85761371e575b507ff5f01754584f438c12bcb34b8c17451066251095c28d277f3966dca00bf054a16137166137056111126153d7565b604051938452929081906020820190565b0390a26134f2565b61373490853d87116112c1576112b281836108be565b505f6136d5565b508115156134ed565b61375891503d805f833e6122e681836108be565b5f6134df565b90602061376f9281815201906109a2565b90565b3461056a57602036600319011261056a57600435805f52600860205260405f2060018101545f52600660205260405f206137aa6153d7565b91546001600160a01b039283169083161491821561382a575b5050156137f3576137e76137e26107e6925f52601060205260405f2090565b6108df565b6040519182918261375e565b60405162461bcd60e51b815260206004820152600f60248201526e12d4ce881b9bdd08185b1b1bddd959608a1b6044820152606490fd5b809192506138366153d7565b9254169116145f806137c3565b3461056a57602036600319011261056a576004355f526011602052602060405f2054604051908152f35b613875614994565b61387d6149c3565b6138856138a8565b9060015f805160206155f383398151915255565b9081602091031261056a575190565b61376f6138b4366149ed565b60208082518301019101613899565b156138ca57565b60405162461bcd60e51b815260206004820152600d60248201526c25a99d103737ba10313abcb2b960991b6044820152606490fd5b1561390657565b60405162461bcd60e51b815260206004820152600d60248201526c12d4ce8819195b1a5d995c9959609a1b6044820152606490fd5b634e487b7160e01b5f52601160045260245ffd5b9062015180820180921161395f57565b61393b565b9062278d00820180921161395f57565b1561397b57565b60405162461bcd60e51b815260206004820152600c60248201526b4b533a20646561646c696e6560a01b6044820152606490fd5b6040513d5f823e3d90fd5b801561395f575f190190565b5190811515820361056a57565b9081602091031261056a5761376f906139c6565b156139ee57565b60405162461bcd60e51b815260206004820152600b60248201526a12d4ce881a5b9d985b1a5960aa1b6044820152606490fd5b15613a2857565b60405162461bcd60e51b815260206004820152600d60248201526c4b533a20746f6f206561726c7960981b6044820152606490fd5b15613a6457565b60405162461bcd60e51b815260206004820152600d60248201526c4b533a2073636f726520312d3560981b6044820152606490fd5b81601f8201121561056a578051613aaf81611514565b92613abd60405194856108be565b8184526020828401011161056a5761376f9160208085019101610981565b519061091f8261068a565b519061091f82612a15565b60208183031261056a5780516001600160401b039182821161056a5701906101208284031261056a57613b226114f4565b92825182811161056a5781613b38918501613a99565b8452602083015191821161056a57613b51918301613a99565b6020830152613b6260408201613adb565b6040830152613b7360608201613ae6565b60608301526080810151608083015260a081015160a083015260c081015160c0830152613ba260e082016139c6565b60e0830152613bb56101008092016139c6565b9082015290565b15613bc357565b60405162461bcd60e51b815260206004820152600e60248201526d25a99d1039b0b6b29037bbb732b960911b6044820152606490fd5b15613c0057565b60405162461bcd60e51b815260206004820152600e60248201526d25a99d103737ba1039b2b63632b960911b6044820152606490fd5b15613c3d57565b60405162461bcd60e51b815260206004820152600e60248201526d4b533a206e6f742061637469766560901b6044820152606490fd5b15613c7a57565b60405162461bcd60e51b81526020600482015260166024820152754b533a2070656e64696e672064656c6976657269657360501b6044820152606490fd5b9193909296949596613cc8614994565b613cd06149c3565b600154613ce5906001600160a01b0316611112565b94613cee6153d7565b6040805163c3c5a54760e01b81526001600160a01b0392909216600480840191909152909990976020928381602481855afa80156112c857613d36915f91614263575061427a565b613d6f838c8b613d446153d7565b9151635a2d572960e11b81526001600160a01b03909216908201908152909283918291602090910190565b0381855afa80156112c857613dce92613d9a60028f9360ff905f968791614236575b501610156142d0565b8b613da36153d7565b925163fb3551ff60e01b81526001600160a01b03909316908301908152919384928391829160200190565b03915afa9081156112c85761114760e0613df993613df4935f9161374457500151151590565b61430a565b60038710158061422c575b613e0d9061434d565b670de0b6b3a764000085101580614218575b613e289061438a565b613e338b15156143c8565b87546001600160a01b0399908a16838c826141a6575b505050613e6c613e6761114761205a845f52600a60205260405f2090565b61443e565b613e816121c9825f52600a60205260405f2090565b613e8a86615294565b918b613ed885613ea36111125f5460018060a01b031690565b928d613ead6153d7565b91516370a0823160e01b81526001600160a01b03909216908201908152909283918291602090910190565b0381855afa9081156112c857613f46928f5f8f91613f038a8c9781978591614189575b501015614482565b613f0b6153d7565b90516323b872dd60e01b81526001600160a01b0390911692810192835230602084015260408301949094529294859384929091839160600190565b03925af180156112c85761416c575b50600154613f6b906001600160a01b0316611112565b613f736153d7565b90803b1561056a578d516331ba14cf60e11b81526001600160a01b03909216828d01908152602081018690525f91839182908490829060400103925af180156112c857614159575b506005549c613fc98e6144c7565b600555613fd46153d7565b94613fdd6114da565b6001600160a01b039096168652613ff5368c8c61152f565b9086015261400436888861152f565b8d86015287606086015236906140199261152f565b608084015260a083015260c0820152600160e08201524261010082015261012081015f905261014081015f90526140588a5f52600660205260405f2090565b90614062916145f3565b614074895f52600b60205260405f2090565b805460ff191690556001546001600160a01b0316956140916153d7565b873b1561056a576140df975f92838c51809b81958294633111036160e11b8452830160809160018060a01b031681526040602082015260046040820152631b1a5cdd60e21b60608201520190565b03925af19283156112c85789977f26dc573051b6e7e62d2ca5bd31b932014d45995bfbe6718812734201da9614239761412c95614146575b506141206153d7565b169851958695866146ca565b0390a39061091f60015f805160206155f383398151915255565b806112da614153926108ab565b5f614117565b806112da614166926108ab565b5f613fbb565b61418290853d87116112c1576112b281836108be565b505f613f55565b6141a09150893d8b116116a85761169981836108be565b5f613efb565b6141de928c6141b36153d7565b925163d386df2360e01b81526001600160a01b03909316908301908152919384928391829160200190565b03915afa80156112c8576141f9915f91614201575015614404565b5f838c613e49565b6133459150853d87116112c1576112b281836108be565b5069d3c21bcecceda1000000851115613e1f565b5089871115613e04565b61425691508a3d8c1161425c575b61424e81836108be565b8101906142bb565b5f613d91565b503d614244565b61337f9150853d87116112c1576112b281836108be565b1561428157565b60405162461bcd60e51b815260206004820152601260248201527112d4ce881b9bdd081c9959da5cdd195c995960721b6044820152606490fd5b9081602091031261056a575161376f81612a15565b156142d757565b60405162461bcd60e51b815260206004820152600b60248201526a4b533a207469657220322b60a81b6044820152606490fd5b1561431157565b60405162461bcd60e51b815260206004820152601460248201527312d4ce8818db19585c881919589d08199a5c9cdd60621b6044820152606490fd5b1561435457565b60405162461bcd60e51b815260206004820152600e60248201526d12d4ce881d1a5d1b19480ccb4d8d60921b6044820152606490fd5b1561439157565b60405162461bcd60e51b815260206004820152600f60248201526e4b533a2070726963652072616e676560881b6044820152606490fd5b156143cf57565b60405162461bcd60e51b815260206004820152600d60248201526c12d4ce88195b5c1d1e4810d251609a1b6044820152606490fd5b1561440b57565b60405162461bcd60e51b815260206004820152600b60248201526a4b533a2072657374696e6760a81b6044820152606490fd5b1561444557565b60405162461bcd60e51b815260206004820152601560248201527412d4ce88191d5c1b1a58d85d194818dbdb9d195b9d605a1b6044820152606490fd5b1561448957565b60405162461bcd60e51b81526020600482015260166024820152754b533a20696e73756666696369656e74207374616b6560501b6044820152606490fd5b5f19811461395f5760010190565b601f82116144e257505050565b5f5260205f20906020601f840160051c8301931061451a575b601f0160051c01905b81811061450f575050565b5f8155600101614504565b90915081906144fb565b91909182516001600160401b03811161088b5761454b816145458454610823565b846144d5565b602080601f831160011461458c5750819061457d9394955f92614581575b50508160011b915f199060031b1c19161790565b9055565b015190505f80614569565b90601f198316956145a0855f5260205f2090565b925f905b8882106145db575050836001959697106145c3575b505050811b019055565b01515f1960f88460031b161c191690555f80806145b9565b806001859682949686015181550195019301906145a4565b815181546001600160a01b0319166001600160a01b0390911617815590600a9061014090614628602082015160018601614524565b614639604082015160028601614524565b60608101516003850155614654608082015160048601614524565b60a0810151600585015560c0810151600685015561468d61467860e0830151151590565b600786019060ff801983541691151516179055565b610100810151600885015561012081015160098501550151910155565b908060209392818452848401375f828201840152601f01601f1916010190565b906146e49061376f969495936060845260608401916146aa565b93602082015260408185039101526146aa565b9190916147026154d2565b61470a6154d2565b6001600160a01b0390811690811515806147d1575b806147c6575b156147915761477e93614761926001600160601b0360a01b5f5416175f551660018060a01b03166001600160601b0360a01b6001541617600155565b60018060a01b03166001600160601b0360a01b6003541617600355565b61478e6147896153d7565b614bd8565b50565b60405162461bcd60e51b815260206004820152600d60248201526c25a99d103d32b9379030b2323960991b6044820152606490fd5b508083161515614725565b50808416151561471f565b156147e357565b60405162461bcd60e51b81526020600482015260116024820152704b533a2073656c662d707572636861736560781b6044820152606490fd5b1561482357565b60405162461bcd60e51b815260206004820152602260248201527f4b533a207265766965772070656e64696e6720707572636861736573206669726044820152611cdd60f21b6064820152608490fd5b1561487a57565b60405162461bcd60e51b815260206004820152601460248201527312d4ce881a5b9cdd59999a58da595b9d0810d2d560621b6044820152606490fd5b156148bd57565b60405162461bcd60e51b815260206004820152601560248201527412d4ce88185b1c9958591e481c1d5c98da185cd959605a1b6044820152606490fd5b815181546001600160a01b0319166001600160a01b039190911617815560a090600490602084015160018201556040840151600282015560608401516003820155019161495960808201511515849060ff801983541691151516179055565b0151815461ff00191690151560081b61ff0016179055565b9060328202918083046032149015171561395f57565b9190820391821161395f57565b5f805160206155f383398151915260028154146149b15760029055565b604051633ee5aeb560e01b8152600490fd5b60ff5f805160206155d383398151915254166149db57565b60405163d93c066560e01b8152600490fd5b601e546001600160a01b0316908115614a58575f918291604051818192858337810184815203915af4903d15614a51573d614a2781611514565b90614a3560405192836108be565b81523d5f602083013e5b809215614a495750565b602081519101fd5b6060614a3f565b60405162461bcd60e51b815260206004820152601360248201527212d4ce881d8c881b5bd91d5b19481d5b9cd95d606a1b6044820152606490fd5b614a9b6153d7565b6001600160a01b0381165f9081527fb7db2dd08fcb62d0c9e08c51941cae53c267786a0b75803fb7960902fc8ef97d602052604090205460ff1615614add5750565b60405163e2517d3f60e01b81526001600160a01b0390911660048201525f6024820152604490fd5b614b0d6153d7565b6001600160a01b0381165f9081527f1a6cd9a7b8103b1ac8ae3acbee9fd0afe79825cbeda582da2cdf52e70cae65a9602052604090207fba279271fb7bbf76a6f3df3cc57bf80647fcafdea60ec3383d90f459de74e7c09060ff905b541615614b74575050565b60405163e2517d3f60e01b81526001600160a01b039092166004830152602482015260449150fd5b614ba46153d7565b90805f525f805160206155b383398151915260205260ff614b698360405f209060018060a01b03165f5260205260405f2090565b6001600160a01b0381165f9081527fb7db2dd08fcb62d0c9e08c51941cae53c267786a0b75803fb7960902fc8ef97d60205260409020545f805160206155b38339815191529060ff16614c8d575f808052602091825260408082206001600160a01b038516835290925220805460ff19166001179055614c566153d7565b6001600160a01b0390811691165f7f2f8788117e7eff1d82e926ec794901d17c78024a50270940304540a733656f0d8180a4600190565b50505f90565b5f8181525f805160206155b3833981519152602081815260408084206001600160a01b03871685529091529091205460ff16614d31575f828152602091825260408082206001600160a01b038616835290925220805460ff19166001179055614cfa6153d7565b6001600160a01b039081169216907f2f8788117e7eff1d82e926ec794901d17c78024a50270940304540a733656f0d5f80a4600190565b5050505f90565b9091613665614d4691614971565b6006830180549192908284101561528e5783925b838061516a575b91505083915010614f9d575b5050600154614d84906001600160a01b0316611112565b81546001600160a01b031690803b1561056a576040516322eb7bdb60e11b81526001600160a01b039290921660048301525f908290602490829084905af180156112c857614f8a575b50600154614de3906001600160a01b0316611112565b81546001600160a01b031690803b1561056a5760405163d0542f9760e01b81526001600160a01b039290921660048301525f908290602490829084905af180156112c857614f77575b50600154614e42906001600160a01b0316611112565b81546001600160a01b031690803b1561056a576040516317517f8d60e31b81526001600160a01b039290921660048301525f908290602490829084905af180156112c857614f64575b50600154614ea1906001600160a01b0316611112565b81546001600160a01b031690803b1561056a57604051630f5d255560e41b81526001600160a01b039290921660048301525f908290602490829084905af180156112c857614f51575b50600154614f04906113d3906001600160a01b0316611112565b90803b1561056a576040516313fb5ea760e01b81526001600160a01b039290921660048301525f908290602490829084905af180156112c857614f445750565b806112da61091f926108ab565b806112da614f5e926108ab565b5f614eea565b806112da614f71926108ab565b5f614e8b565b806112da614f84926108ab565b5f614e2c565b806112da614f97926108ab565b5f614dcd565b614fa691614987565b5f54614fba906001600160a01b0316611112565b82546040516370a0823160e01b81526001600160a01b0390911660048201819052919260209291908382602481885afa9182156112c8575f9261514b575b50604051636eb1769f60e11b81526001600160a01b0384166004820152306024820152918483604481895afa9283156112c8575f9361512c575b50808210156151245750905b8082101561511c5750925b83615056575b5050614d6d565b6040516323b872dd60e01b81526001600160a01b03929092166004830152306024830152604482018490528290829060649082905f905af180156112c8576150fe575b50505f546150af906001600160a01b0316611112565b803b1561056a57604051630852cd8d60e31b815260048101929092525f908290602490829084905af180156112c8576150eb575b80808061504f565b806112da6150f8926108ab565b5f6150e3565b8161511492903d106112c1576112b281836108be565b505f80615099565b905092615049565b90509061503e565b615144919350853d87116116a85761169981836108be565b915f615032565b615163919250843d86116116a85761169981836108be565b905f614ff8565b61517391614987565b905560015461518a906001600160a01b0316611112565b84546001600160a01b031690803b1561056a576040516334673ec560e11b81526001600160a01b03929092166004830152602482018490525f908290604490829084905af180156112c85761527b575b505f546151ef906001600160a01b0316611112565b803b1561056a57604051630852cd8d60e31b815260048101849052905f908290602490829084905af180156112c857615268575b5083546040518381526001600160a01b0390911691907fba00be99b4ba100b19f2c080160ab22c2b8f4d62027d6524c532e7578d7a43b490602090a35f808083614d61565b806112da615275926108ab565b5f615223565b806112da615288926108ab565b5f6151da565b82614d5a565b60148102908082046014149015171561395f5760649004678ac7230489e8000081106152bd5790565b60405162461bcd60e51b815260206004820152601460248201527312d4ce881b5a5b881cdd185ad9480c4c0810d2d560621b6044820152606490fd5b5f8181525f805160206155b3833981519152602081815260408084206001600160a01b03871685529091529091205460ff1615614d31575f828152602091825260408082206001600160a01b038616835290925220805460ff1916905561535e6153d7565b6001600160a01b039081169216907ff6391f5c32d9c69d2a47ea670b442974b53935d1edc7fd64eb21e047a839171b5f80a4600190565b8060021b9181159282810460041484171561395f576064900492828004600114171561395f57606482049183810390811161395f5782810390811161395f5790565b6014361015806153fe575b156153fa57601319360136811161056a573560601c90565b3390565b50337f00000000000000000000000000000000000000000000000000000000000000006001600160a01b0316146153e2565b90813b156154b1575f8051602061559383398151915280546001600160a01b0319166001600160a01b0384169081179091557fbc7cd75a20ee27fd9adebab32041f755214dbc6bffa90cc0225b39da2e5c2d3b5f80a28051156154965761478e91615500565b50503461549f57565b60405163b398979f60e01b8152600490fd5b604051634c9c8ce360e01b81526001600160a01b0383166004820152602490fd5b60ff5f805160206156138339815191525460401c16156154ee57565b604051631afcd79f60e31b8152600490fd5b905f8091602081519101845af48080615566575b1561552357505061376f615579565b1561554b57604051639996b31560e01b81526001600160a01b03919091166004820152602490fd5b3d15155f036139af5760405163d6bda27560e01b8152600490fd5b503d1515806155145750813b1515615514565b604051903d82523d5f602084013e60203d83010160405256fe360894a13ba1a3210667c828492db98dca3e2076cc3735a920a3ca505d382bbc02dd7bc7dec4dceedda775e58dd541e08a116c6c53815c0bd028192f7b626800cd5ed15c6e187e77e9aee88184c21f4f2182ab5827cb3b7e07fbedcd63f033009b779b17422d0df92223018b32b4d1fa46e071723d6817e2486d003becc55f00f0c57e16840df040f15088dc2f81fe391c3923bec73e23a9662efc9c229c6a006e25eeb376624597a9c69a7e9e1f4ab3623441258ae80e1db654feb9861d1214a26469706673582212200b943a435cadd3fad828d0e0d483c2bac17f56ba02c5ac5729a1f6d1fccfc87d64736f6c63430008180033","linkReferences":{}},"methodIdentifiers":{"AUTO_REVIEW_PERIOD()":"0e327030","BURN_PERCENT()":"9c986764","BUYER_RESPONSE_DEADLINE()":"93407b1f","DEBT_DEDUCTION_PERCENT()":"a4ede5eb","DEFAULT_ADMIN_ROLE()":"a217fddf","DELIVERY_DEADLINE()":"16b5219e","FEE_PERCENT()":"eaf98d23","MAX_PRICE()":"01c11d96","MAX_WRAPPED_KEY_BYTES()":"0fc18454","MIN_PRICE()":"ad9f20a6","OBJECTIVE_REASON_EMPTY_WRAPPED_KEY()":"2c1271c3","OBJECTIVE_REASON_OVERSIZED_WRAPPED_KEY()":"2be67c4f","OWNER_PERCENT()":"2e1371bd","PROTOCOL_ROLE()":"02768de4","SLASH_PERCENT()":"f6e8913d","STAKE_PERCENT()":"61c2649e","UPGRADE_INTERFACE_VERSION()":"ad3cb1cc","acceptDelivery(uint256)":"7b422c4c","buyerBondAmount(uint256)":"f5c0b48c","buyerBondForfeited(uint256)":"1f175594","buyerPurchases(bytes32)":"ac8919c9","challengeDeliveryObjective(uint256,uint8,bytes32)":"c8e9ab4a","challengeDeliverySubjective(uint256,bytes32)":"f086075a","challengedAt(uint256)":"4a044932","ciphertextHash(uint256)":"02b9bc63","ckt()":"79021310","claimUndelivered(uint256)":"42ad6930","contentHashExists(bytes32)":"5f7668ce","creditApplied(uint256)":"a8ad0daa","deactivate(uint256)":"916b9bef","deliverEncryptedKey(uint256,bytes,bytes32)":"97a4bb23","deliverKey(uint256)":"fc4126df","deliveredAt(uint256)":"d11ac988","deliveryAttemptCount(uint256)":"8c5b2293","deliveryState(uint256)":"99dc8654","explicitReviewSubmitted(uint256)":"75e1cf24","explicitSellerScoreByPurchase(uint256)":"2128a4bc","feeRecipient()":"46904840","finalizeCleanTimeout(uint256)":"29125ebb","finalizeUndelivered(uint256)":"01d7b245","forceDeactivateAndBurnStake(uint256)":"5689cbba","getKnowledge(uint256)":"28e7b2a6","getPrivateKnowledgeMeta(uint256)":"91722912","getPurchase(uint256)":"3742a9f7","getPurchaseDeliveryState(uint256)":"5cb84518","getRoleAdmin(bytes32)":"248a9ca3","getWrappedKey(uint256)":"fe7992c2","grantRole(bytes32,address)":"2f2ff15d","hasRole(bytes32,address)":"91d14854","initialize(address,address,address)":"c0c53b8b","isTrustedForwarder(address)":"572b6c05","knowledgeItems(uint256)":"1018c5f9","knowledgeMode(uint256)":"7e92b854","list(string,string,uint256,string,bytes32)":"a07dcd46","listPrivateKnowledge(string,string,uint256,string,string,bytes32,bytes32)":"0ab254af","listPublicKnowledgeV2(string,string,uint256,string,string,bytes32)":"b7a17a9d","nextKnowledgeId()":"310f1371","nextPurchaseId()":"23b4a7a3","pause()":"8456cb59","paused()":"5c975abb","payoutReleased(uint256)":"7021f1a3","proxiableUUID()":"52d1902d","purchase(uint256)":"efef39a1","purchaseDeliveryConfigSnapshot(uint256)":"3b0ecb61","purchaseKnowledgeV2(uint256)":"d468fec6","purchases(uint256)":"8392fe31","redeliverEncryptedKey(uint256,bytes,bytes32)":"ceea2f5a","redeliveredAt(uint256)":"927f9c99","refundReleased(uint256)":"77c50e9d","registry()":"7b103999","renounceRole(bytes32,address)":"36568abe","reputationContract()":"87bc1425","review(uint256,uint256,uint256)":"8ddad6ac","revokeRole(bytes32,address)":"d547741f","setFeeRecipient(address)":"e74b981b","setReputationContract(address)":"9584660f","setTempoReward(address)":"1b32008f","setV2Module(address)":"03eff37b","supportsInterface(bytes4)":"01ffc9a7","tempoReward()":"39d006cb","triggerAutoReview(uint256)":"4d20372e","trustedForwarder()":"7da0a877","unpause()":"3f4ba83a","upgradeToAndCall(address,bytes)":"4f1ef286","v2Module()":"575660c2","wrappedKeyHashByPurchase(uint256)":"fece90f5"},"id":55}