{"abi":[{"type":"constructor","inputs":[{"name":"trustedForwarder","type":"address","internalType":"address"}],"stateMutability":"nonpayable"},{"type":"function","name":"AUTO_REVIEW_PERIOD","inputs":[],"outputs":[{"name":"","type":"uint256","internalType":"uint256"}],"stateMutability":"view"},{"type":"function","name":"BURN_PERCENT","inputs":[],"outputs":[{"name":"","type":"uint256","internalType":"uint256"}],"stateMutability":"view"},{"type":"function","name":"BUYER_RESPONSE_DEADLINE","inputs":[],"outputs":[{"name":"","type":"uint256","internalType":"uint256"}],"stateMutability":"view"},{"type":"function","name":"DEBT_DEDUCTION_PERCENT","inputs":[],"outputs":[{"name":"","type":"uint256","internalType":"uint256"}],"stateMutability":"view"},{"type":"function","name":"DEFAULT_ADMIN_ROLE","inputs":[],"outputs":[{"name":"","type":"bytes32","internalType":"bytes32"}],"stateMutability":"view"},{"type":"function","name":"DELIVERY_DEADLINE","inputs":[],"outputs":[{"name":"","type":"uint256","internalType":"uint256"}],"stateMutability":"view"},{"type":"function","name":"FEE_PERCENT","inputs":[],"outputs":[{"name":"","type":"uint256","internalType":"uint256"}],"stateMutability":"view"},{"type":"function","name":"MAX_PRICE","inputs":[],"outputs":[{"name":"","type":"uint256","internalType":"uint256"}],"stateMutability":"view"},{"type":"function","name":"MAX_WRAPPED_KEY_BYTES","inputs":[],"outputs":[{"name":"","type":"uint256","internalType":"uint256"}],"stateMutability":"view"},{"type":"function","name":"MIN_PRICE","inputs":[],"outputs":[{"name":"","type":"uint256","internalType":"uint256"}],"stateMutability":"view"},{"type":"function","name":"OBJECTIVE_REASON_EMPTY_WRAPPED_KEY","inputs":[],"outputs":[{"name":"","type":"uint8","internalType":"uint8"}],"stateMutability":"view"},{"type":"function","name":"OBJECTIVE_REASON_OVERSIZED_WRAPPED_KEY","inputs":[],"outputs":[{"name":"","type":"uint8","internalType":"uint8"}],"stateMutability":"view"},{"type":"function","name":"OWNER_PERCENT","inputs":[],"outputs":[{"name":"","type":"uint256","internalType":"uint256"}],"stateMutability":"view"},{"type":"function","name":"PROTOCOL_ROLE","inputs":[],"outputs":[{"name":"","type":"bytes32","internalType":"bytes32"}],"stateMutability":"view"},{"type":"function","name":"REFUND_REASON_INVALID_DELIVERY_CONFIG","inputs":[],"outputs":[{"name":"","type":"uint8","internalType":"uint8"}],"stateMutability":"view"},{"type":"function","name":"REFUND_REASON_SELLER_CANCELLED","inputs":[],"outputs":[{"name":"","type":"uint8","internalType":"uint8"}],"stateMutability":"view"},{"type":"function","name":"REFUND_REASON_STALE_OR_INCONSISTENT_BUYER_TX","inputs":[],"outputs":[{"name":"","type":"uint8","internalType":"uint8"}],"stateMutability":"view"},{"type":"function","name":"REFUND_REASON_UNSUPPORTED_BUYER_KEY","inputs":[],"outputs":[{"name":"","type":"uint8","internalType":"uint8"}],"stateMutability":"view"},{"type":"function","name":"SLASH_PERCENT","inputs":[],"outputs":[{"name":"","type":"uint256","internalType":"uint256"}],"stateMutability":"view"},{"type":"function","name":"STAKE_PERCENT","inputs":[],"outputs":[{"name":"","type":"uint256","internalType":"uint256"}],"stateMutability":"view"},{"type":"function","name":"acceptDelivery","inputs":[{"name":"purchaseId","type":"uint256","internalType":"uint256"}],"outputs":[],"stateMutability":"nonpayable"},{"type":"function","name":"buyerBondAmount","inputs":[{"name":"","type":"uint256","internalType":"uint256"}],"outputs":[{"name":"","type":"uint256","internalType":"uint256"}],"stateMutability":"view"},{"type":"function","name":"buyerBondForfeited","inputs":[{"name":"","type":"uint256","internalType":"uint256"}],"outputs":[{"name":"","type":"bool","internalType":"bool"}],"stateMutability":"view"},{"type":"function","name":"buyerPurchases","inputs":[{"name":"","type":"bytes32","internalType":"bytes32"}],"outputs":[{"name":"","type":"uint256","internalType":"uint256"}],"stateMutability":"view"},{"type":"function","name":"buyerUndeliveredRefundReceivedCount","inputs":[{"name":"","type":"address","internalType":"address"}],"outputs":[{"name":"","type":"uint256","internalType":"uint256"}],"stateMutability":"view"},{"type":"function","name":"challengeDeliveryObjective","inputs":[{"name":"purchaseId","type":"uint256","internalType":"uint256"},{"name":"reasonCode","type":"uint8","internalType":"uint8"},{"name":"evidenceHash","type":"bytes32","internalType":"bytes32"}],"outputs":[],"stateMutability":"nonpayable"},{"type":"function","name":"challengeDeliverySubjective","inputs":[{"name":"purchaseId","type":"uint256","internalType":"uint256"},{"name":"evidenceHash","type":"bytes32","internalType":"bytes32"}],"outputs":[],"stateMutability":"nonpayable"},{"type":"function","name":"challengedAt","inputs":[{"name":"","type":"uint256","internalType":"uint256"}],"outputs":[{"name":"","type":"uint64","internalType":"uint64"}],"stateMutability":"view"},{"type":"function","name":"ciphertextHash","inputs":[{"name":"","type":"uint256","internalType":"uint256"}],"outputs":[{"name":"","type":"bytes32","internalType":"bytes32"}],"stateMutability":"view"},{"type":"function","name":"ckt","inputs":[],"outputs":[{"name":"","type":"address","internalType":"contract CKT"}],"stateMutability":"view"},{"type":"function","name":"contentHashExists","inputs":[{"name":"","type":"bytes32","internalType":"bytes32"}],"outputs":[{"name":"","type":"bool","internalType":"bool"}],"stateMutability":"view"},{"type":"function","name":"creditApplied","inputs":[{"name":"","type":"uint256","internalType":"uint256"}],"outputs":[{"name":"","type":"bool","internalType":"bool"}],"stateMutability":"view"},{"type":"function","name":"deliverEncryptedKey","inputs":[{"name":"purchaseId","type":"uint256","internalType":"uint256"},{"name":"wrappedKey","type":"bytes","internalType":"bytes"},{"name":"wrappedKeyHash","type":"bytes32","internalType":"bytes32"}],"outputs":[],"stateMutability":"nonpayable"},{"type":"function","name":"deliveredAt","inputs":[{"name":"","type":"uint256","internalType":"uint256"}],"outputs":[{"name":"","type":"uint64","internalType":"uint64"}],"stateMutability":"view"},{"type":"function","name":"deliveryAttemptCount","inputs":[{"name":"","type":"uint256","internalType":"uint256"}],"outputs":[{"name":"","type":"uint8","internalType":"uint8"}],"stateMutability":"view"},{"type":"function","name":"deliveryState","inputs":[{"name":"","type":"uint256","internalType":"uint256"}],"outputs":[{"name":"","type":"uint8","internalType":"enum KnowledgeStoreV2DeliveryModule.DeliveryState"}],"stateMutability":"view"},{"type":"function","name":"explicitReviewSubmitted","inputs":[{"name":"","type":"uint256","internalType":"uint256"}],"outputs":[{"name":"","type":"bool","internalType":"bool"}],"stateMutability":"view"},{"type":"function","name":"explicitSellerScoreByPurchase","inputs":[{"name":"","type":"uint256","internalType":"uint256"}],"outputs":[{"name":"","type":"uint256","internalType":"uint256"}],"stateMutability":"view"},{"type":"function","name":"feeRecipient","inputs":[],"outputs":[{"name":"","type":"address","internalType":"address"}],"stateMutability":"view"},{"type":"function","name":"finalizeCleanTimeout","inputs":[{"name":"purchaseId","type":"uint256","internalType":"uint256"}],"outputs":[],"stateMutability":"nonpayable"},{"type":"function","name":"finalizeUndelivered","inputs":[{"name":"purchaseId","type":"uint256","internalType":"uint256"}],"outputs":[],"stateMutability":"nonpayable"},{"type":"function","name":"getRoleAdmin","inputs":[{"name":"role","type":"bytes32","internalType":"bytes32"}],"outputs":[{"name":"","type":"bytes32","internalType":"bytes32"}],"stateMutability":"view"},{"type":"function","name":"getWrappedKey","inputs":[{"name":"purchaseId","type":"uint256","internalType":"uint256"}],"outputs":[{"name":"wrappedKey","type":"bytes","internalType":"bytes"},{"name":"wrappedKeyHash","type":"bytes32","internalType":"bytes32"}],"stateMutability":"view"},{"type":"function","name":"grantRole","inputs":[{"name":"role","type":"bytes32","internalType":"bytes32"},{"name":"account","type":"address","internalType":"address"}],"outputs":[],"stateMutability":"nonpayable"},{"type":"function","name":"hasRole","inputs":[{"name":"role","type":"bytes32","internalType":"bytes32"},{"name":"account","type":"address","internalType":"address"}],"outputs":[{"name":"","type":"bool","internalType":"bool"}],"stateMutability":"view"},{"type":"function","name":"isTrustedForwarder","inputs":[{"name":"forwarder","type":"address","internalType":"address"}],"outputs":[{"name":"","type":"bool","internalType":"bool"}],"stateMutability":"view"},{"type":"function","name":"knowledgeItems","inputs":[{"name":"","type":"uint256","internalType":"uint256"}],"outputs":[{"name":"seller","type":"address","internalType":"address"},{"name":"title","type":"string","internalType":"string"},{"name":"tags","type":"string","internalType":"string"},{"name":"price","type":"uint256","internalType":"uint256"},{"name":"ipfsCID","type":"string","internalType":"string"},{"name":"contentHash","type":"bytes32","internalType":"bytes32"},{"name":"stakeAmount","type":"uint256","internalType":"uint256"},{"name":"active","type":"bool","internalType":"bool"},{"name":"listedAt","type":"uint256","internalType":"uint256"},{"name":"salesCount","type":"uint256","internalType":"uint256"},{"name":"pendingDeliveries","type":"uint256","internalType":"uint256"}],"stateMutability":"view"},{"type":"function","name":"knowledgeMode","inputs":[{"name":"","type":"uint256","internalType":"uint256"}],"outputs":[{"name":"","type":"uint8","internalType":"enum KnowledgeStoreV2DeliveryModule.KnowledgeMode"}],"stateMutability":"view"},{"type":"function","name":"knowledgeUndeliveredRefundCount","inputs":[{"name":"","type":"uint256","internalType":"uint256"}],"outputs":[{"name":"","type":"uint256","internalType":"uint256"}],"stateMutability":"view"},{"type":"function","name":"maxSalesByKnowledge","inputs":[{"name":"","type":"uint256","internalType":"uint256"}],"outputs":[{"name":"","type":"uint256","internalType":"uint256"}],"stateMutability":"view"},{"type":"function","name":"nextKnowledgeId","inputs":[],"outputs":[{"name":"","type":"uint256","internalType":"uint256"}],"stateMutability":"view"},{"type":"function","name":"nextPurchaseId","inputs":[],"outputs":[{"name":"","type":"uint256","internalType":"uint256"}],"stateMutability":"view"},{"type":"function","name":"payoutReleased","inputs":[{"name":"","type":"uint256","internalType":"uint256"}],"outputs":[{"name":"","type":"bool","internalType":"bool"}],"stateMutability":"view"},{"type":"function","name":"purchaseDeliveryConfigSnapshot","inputs":[{"name":"","type":"uint256","internalType":"uint256"}],"outputs":[{"name":"","type":"bytes32","internalType":"bytes32"}],"stateMutability":"view"},{"type":"function","name":"purchaseDeliveryConfigURI","inputs":[{"name":"","type":"uint256","internalType":"uint256"}],"outputs":[{"name":"","type":"string","internalType":"string"}],"stateMutability":"view"},{"type":"function","name":"purchases","inputs":[{"name":"","type":"uint256","internalType":"uint256"}],"outputs":[{"name":"buyer","type":"address","internalType":"address"},{"name":"knowledgeId","type":"uint256","internalType":"uint256"},{"name":"paidAmount","type":"uint256","internalType":"uint256"},{"name":"purchasedAt","type":"uint256","internalType":"uint256"},{"name":"delivered","type":"bool","internalType":"bool"},{"name":"reviewed","type":"bool","internalType":"bool"}],"stateMutability":"view"},{"type":"function","name":"redeliverEncryptedKey","inputs":[{"name":"purchaseId","type":"uint256","internalType":"uint256"},{"name":"wrappedKey","type":"bytes","internalType":"bytes"},{"name":"wrappedKeyHash","type":"bytes32","internalType":"bytes32"}],"outputs":[],"stateMutability":"nonpayable"},{"type":"function","name":"redeliveredAt","inputs":[{"name":"","type":"uint256","internalType":"uint256"}],"outputs":[{"name":"","type":"uint64","internalType":"uint64"}],"stateMutability":"view"},{"type":"function","name":"refundReleased","inputs":[{"name":"","type":"uint256","internalType":"uint256"}],"outputs":[{"name":"","type":"bool","internalType":"bool"}],"stateMutability":"view"},{"type":"function","name":"refundUndeliveredPurchase","inputs":[{"name":"purchaseId","type":"uint256","internalType":"uint256"},{"name":"reason","type":"uint8","internalType":"uint8"}],"outputs":[],"stateMutability":"nonpayable"},{"type":"function","name":"registry","inputs":[],"outputs":[{"name":"","type":"address","internalType":"contract AgentRegistry"}],"stateMutability":"view"},{"type":"function","name":"renounceRole","inputs":[{"name":"role","type":"bytes32","internalType":"bytes32"},{"name":"callerConfirmation","type":"address","internalType":"address"}],"outputs":[],"stateMutability":"nonpayable"},{"type":"function","name":"reputationContract","inputs":[],"outputs":[{"name":"","type":"address","internalType":"address"}],"stateMutability":"view"},{"type":"function","name":"rescueApplied","inputs":[{"name":"","type":"uint256","internalType":"uint256"}],"outputs":[{"name":"","type":"bool","internalType":"bool"}],"stateMutability":"view"},{"type":"function","name":"rescueRefundPrivatePurchase","inputs":[{"name":"purchaseId","type":"uint256","internalType":"uint256"},{"name":"reason","type":"uint8","internalType":"uint8"}],"outputs":[],"stateMutability":"nonpayable"},{"type":"function","name":"revokeRole","inputs":[{"name":"role","type":"bytes32","internalType":"bytes32"},{"name":"account","type":"address","internalType":"address"}],"outputs":[],"stateMutability":"nonpayable"},{"type":"function","name":"salesOpen","inputs":[{"name":"","type":"uint256","internalType":"uint256"}],"outputs":[{"name":"","type":"bool","internalType":"bool"}],"stateMutability":"view"},{"type":"function","name":"sellerUndeliveredRefundCount","inputs":[{"name":"","type":"address","internalType":"address"}],"outputs":[{"name":"","type":"uint256","internalType":"uint256"}],"stateMutability":"view"},{"type":"function","name":"supportsInterface","inputs":[{"name":"interfaceId","type":"bytes4","internalType":"bytes4"}],"outputs":[{"name":"","type":"bool","internalType":"bool"}],"stateMutability":"view"},{"type":"function","name":"tempoReward","inputs":[],"outputs":[{"name":"","type":"address","internalType":"contract TempoReward"}],"stateMutability":"view"},{"type":"function","name":"trustedForwarder","inputs":[],"outputs":[{"name":"","type":"address","internalType":"address"}],"stateMutability":"view"},{"type":"function","name":"undeliveredRefundReason","inputs":[{"name":"","type":"uint256","internalType":"uint256"}],"outputs":[{"name":"","type":"uint8","internalType":"uint8"}],"stateMutability":"view"},{"type":"function","name":"undeliveredSellerRefundApplied","inputs":[{"name":"","type":"uint256","internalType":"uint256"}],"outputs":[{"name":"","type":"bool","internalType":"bool"}],"stateMutability":"view"},{"type":"function","name":"v2Module","inputs":[],"outputs":[{"name":"","type":"address","internalType":"address"}],"stateMutability":"view"},{"type":"function","name":"wrappedKeyHashByPurchase","inputs":[{"name":"","type":"uint256","internalType":"uint256"}],"outputs":[{"name":"","type":"bytes32","internalType":"bytes32"}],"stateMutability":"view"},{"type":"event","name":"AutoReviewApplied","inputs":[{"name":"purchaseId","type":"uint256","indexed":true,"internalType":"uint256"}],"anonymous":false},{"type":"event","name":"BuyerBondForfeited","inputs":[{"name":"purchaseId","type":"uint256","indexed":true,"internalType":"uint256"},{"name":"amount","type":"uint256","indexed":false,"internalType":"uint256"}],"anonymous":false},{"type":"event","name":"DebtDeducted","inputs":[{"name":"seller","type":"address","indexed":true,"internalType":"address"},{"name":"amount","type":"uint256","indexed":false,"internalType":"uint256"}],"anonymous":false},{"type":"event","name":"DeliveryAccepted","inputs":[{"name":"purchaseId","type":"uint256","indexed":true,"internalType":"uint256"},{"name":"buyer","type":"address","indexed":true,"internalType":"address"}],"anonymous":false},{"type":"event","name":"DeliveryChallenged","inputs":[{"name":"purchaseId","type":"uint256","indexed":true,"internalType":"uint256"},{"name":"buyer","type":"address","indexed":true,"internalType":"address"},{"name":"objective","type":"bool","indexed":false,"internalType":"bool"},{"name":"reasonCode","type":"uint8","indexed":false,"internalType":"uint8"},{"name":"evidenceHash","type":"bytes32","indexed":false,"internalType":"bytes32"}],"anonymous":false},{"type":"event","name":"DeliveryCleanFinalized","inputs":[{"name":"purchaseId","type":"uint256","indexed":true,"internalType":"uint256"},{"name":"buyerBondForfeited","type":"bool","indexed":false,"internalType":"bool"}],"anonymous":false},{"type":"event","name":"DeliveryInvalidFinalized","inputs":[{"name":"purchaseId","type":"uint256","indexed":true,"internalType":"uint256"},{"name":"reasonCode","type":"uint8","indexed":false,"internalType":"uint8"}],"anonymous":false},{"type":"event","name":"DeliveryUndeliveredFinalized","inputs":[{"name":"purchaseId","type":"uint256","indexed":true,"internalType":"uint256"}],"anonymous":false},{"type":"event","name":"EncryptedKeyDelivered","inputs":[{"name":"purchaseId","type":"uint256","indexed":true,"internalType":"uint256"},{"name":"seller","type":"address","indexed":true,"internalType":"address"},{"name":"wrappedKeyHash","type":"bytes32","indexed":false,"internalType":"bytes32"},{"name":"attempt","type":"uint8","indexed":false,"internalType":"uint8"}],"anonymous":false},{"type":"event","name":"EncryptedKeyRedelivered","inputs":[{"name":"purchaseId","type":"uint256","indexed":true,"internalType":"uint256"},{"name":"seller","type":"address","indexed":true,"internalType":"address"},{"name":"wrappedKeyHash","type":"bytes32","indexed":false,"internalType":"bytes32"},{"name":"attempt","type":"uint8","indexed":false,"internalType":"uint8"}],"anonymous":false},{"type":"event","name":"Initialized","inputs":[{"name":"version","type":"uint64","indexed":false,"internalType":"uint64"}],"anonymous":false},{"type":"event","name":"KnowledgeDeactivated","inputs":[{"name":"id","type":"uint256","indexed":true,"internalType":"uint256"}],"anonymous":false},{"type":"event","name":"KnowledgeDelivered","inputs":[{"name":"purchaseId","type":"uint256","indexed":true,"internalType":"uint256"},{"name":"seller","type":"address","indexed":true,"internalType":"address"}],"anonymous":false},{"type":"event","name":"KnowledgeListed","inputs":[{"name":"id","type":"uint256","indexed":true,"internalType":"uint256"},{"name":"seller","type":"address","indexed":true,"internalType":"address"},{"name":"title","type":"string","indexed":false,"internalType":"string"},{"name":"price","type":"uint256","indexed":false,"internalType":"uint256"},{"name":"tags","type":"string","indexed":false,"internalType":"string"}],"anonymous":false},{"type":"event","name":"KnowledgeListedV2","inputs":[{"name":"knowledgeId","type":"uint256","indexed":true,"internalType":"uint256"},{"name":"seller","type":"address","indexed":true,"internalType":"address"},{"name":"mode","type":"uint8","indexed":false,"internalType":"uint8"},{"name":"price","type":"uint256","indexed":false,"internalType":"uint256"}],"anonymous":false},{"type":"event","name":"KnowledgePurchased","inputs":[{"name":"purchaseId","type":"uint256","indexed":true,"internalType":"uint256"},{"name":"knowledgeId","type":"uint256","indexed":true,"internalType":"uint256"},{"name":"buyer","type":"address","indexed":true,"internalType":"address"},{"name":"price","type":"uint256","indexed":false,"internalType":"uint256"}],"anonymous":false},{"type":"event","name":"KnowledgeReviewed","inputs":[{"name":"purchaseId","type":"uint256","indexed":true,"internalType":"uint256"},{"name":"productScore","type":"uint256","indexed":false,"internalType":"uint256"},{"name":"sellerScore","type":"uint256","indexed":false,"internalType":"uint256"}],"anonymous":false},{"type":"event","name":"KnowledgeSaleLimitSet","inputs":[{"name":"knowledgeId","type":"uint256","indexed":true,"internalType":"uint256"},{"name":"maxSales","type":"uint256","indexed":false,"internalType":"uint256"}],"anonymous":false},{"type":"event","name":"KnowledgeSalesReopened","inputs":[{"name":"knowledgeId","type":"uint256","indexed":true,"internalType":"uint256"},{"name":"operator","type":"address","indexed":true,"internalType":"address"}],"anonymous":false},{"type":"event","name":"KnowledgeSalesStopped","inputs":[{"name":"knowledgeId","type":"uint256","indexed":true,"internalType":"uint256"},{"name":"operator","type":"address","indexed":true,"internalType":"address"}],"anonymous":false},{"type":"event","name":"PrivateKnowledgePurchased","inputs":[{"name":"purchaseId","type":"uint256","indexed":true,"internalType":"uint256"},{"name":"knowledgeId","type":"uint256","indexed":true,"internalType":"uint256"},{"name":"buyer","type":"address","indexed":true,"internalType":"address"},{"name":"buyerBond","type":"uint256","indexed":false,"internalType":"uint256"}],"anonymous":false},{"type":"event","name":"PrivatePurchaseRescued","inputs":[{"name":"purchaseId","type":"uint256","indexed":true,"internalType":"uint256"},{"name":"knowledgeId","type":"uint256","indexed":true,"internalType":"uint256"},{"name":"buyer","type":"address","indexed":true,"internalType":"address"},{"name":"refundAmount","type":"uint256","indexed":false,"internalType":"uint256"},{"name":"bondRefundAmount","type":"uint256","indexed":false,"internalType":"uint256"},{"name":"reason","type":"uint8","indexed":false,"internalType":"uint8"}],"anonymous":false},{"type":"event","name":"QualifiedMerchantCreditApplied","inputs":[{"name":"purchaseId","type":"uint256","indexed":true,"internalType":"uint256"},{"name":"seller","type":"address","indexed":true,"internalType":"address"},{"name":"buyer","type":"address","indexed":true,"internalType":"address"},{"name":"sellerScore","type":"uint256","indexed":false,"internalType":"uint256"},{"name":"tempoCredited","type":"bool","indexed":false,"internalType":"bool"}],"anonymous":false},{"type":"event","name":"RoleAdminChanged","inputs":[{"name":"role","type":"bytes32","indexed":true,"internalType":"bytes32"},{"name":"previousAdminRole","type":"bytes32","indexed":true,"internalType":"bytes32"},{"name":"newAdminRole","type":"bytes32","indexed":true,"internalType":"bytes32"}],"anonymous":false},{"type":"event","name":"RoleGranted","inputs":[{"name":"role","type":"bytes32","indexed":true,"internalType":"bytes32"},{"name":"account","type":"address","indexed":true,"internalType":"address"},{"name":"sender","type":"address","indexed":true,"internalType":"address"}],"anonymous":false},{"type":"event","name":"RoleRevoked","inputs":[{"name":"role","type":"bytes32","indexed":true,"internalType":"bytes32"},{"name":"account","type":"address","indexed":true,"internalType":"address"},{"name":"sender","type":"address","indexed":true,"internalType":"address"}],"anonymous":false},{"type":"event","name":"StakeSlashed","inputs":[{"name":"knowledgeId","type":"uint256","indexed":true,"internalType":"uint256"},{"name":"seller","type":"address","indexed":true,"internalType":"address"},{"name":"slashedAmount","type":"uint256","indexed":false,"internalType":"uint256"}],"anonymous":false},{"type":"event","name":"UndeliveredPurchaseRefunded","inputs":[{"name":"purchaseId","type":"uint256","indexed":true,"internalType":"uint256"},{"name":"knowledgeId","type":"uint256","indexed":true,"internalType":"uint256"},{"name":"seller","type":"address","indexed":true,"internalType":"address"},{"name":"buyer","type":"address","indexed":false,"internalType":"address"},{"name":"escrowRefundAmount","type":"uint256","indexed":false,"internalType":"uint256"},{"name":"buyerBondRefundAmount","type":"uint256","indexed":false,"internalType":"uint256"},{"name":"nonRefundableProtocolCost","type":"uint256","indexed":false,"internalType":"uint256"},{"name":"reason","type":"uint8","indexed":false,"internalType":"uint8"}],"anonymous":false},{"type":"error","name":"AccessControlBadConfirmation","inputs":[]},{"type":"error","name":"AccessControlUnauthorizedAccount","inputs":[{"name":"account","type":"address","internalType":"address"},{"name":"neededRole","type":"bytes32","internalType":"bytes32"}]},{"type":"error","name":"InvalidInitialization","inputs":[]},{"type":"error","name":"NotInitializing","inputs":[]},{"type":"function","name":"review","inputs":[{"name":"purchaseId","type":"uint256","internalType":"uint256"},{"name":"productScore","type":"uint256","internalType":"uint256"},{"name":"sellerScore","type":"uint256","internalType":"uint256"}],"outputs":[],"stateMutability":"nonpayable"}],"bytecode":{"object":"0x60a0346200007e57601f620040f038819003918201601f19168301916001600160401b0383118484101762000082578084926020946040528339810103126200007e57516001600160a01b03811681036200007e57608052604051614059908162000097823960805181818161165401528181611def0152613fd50152f35b5f80fd5b634e487b7160e01b5f52604160045260245ffdfe6080806040526004361015610012575f80fd5b5f905f3560e01c90816301c11d96146127dd5750806301d7b245146125d557806301ffc9a71461257e578063024b89931461256257806302768de41461252757806302b9bc63146124fd5780630442762e14612000578063073080c7146124ce5780630e327030146124b05780630fc18454146124935780631018c5f9146123ac57806316b5219e1461238e5780631f1755941461235f5780632128a4bc1461233557806323b4a7a314612317578063248a9ca3146122de578063262737cd146122af57806329125ebb146120055780632be67c4f146120005780632c1271c3146119dd5780632e1371bd14611fe45780632f2ff15d14611f9a578063310f137114611f7c57806336568abe14611f2a57806339d006cb14611f015780633b0ecb6114611ed75780633ec432c614611ea85780634690484014611e7f5780634a04493214611e4c57806355a5f25514611e23578063572b6c0514611dce578063575660c214611da55780635e18963b14611a115780635f7668ce146119e257806361209b47146119dd57806361c2649e146119c15780637021f1a31461199257806375e1cf241461196357806377c50e9d14611934578063790213101461190d5780637b103999146118e45780637b422c4c146116835780637da0a8771461163e5780637e92b854146116055780638392fe311461159457806387bc14251461156b5780638c5b22931461153e57806391d14854146114e8578063927f9c99146114b557806393407b1f1461149757806397a4bb231461138757806399dc86541461133a5780639c98676414610ba0578063a217fddf1461131e578063a417ee6d146112f4578063a4ede5eb1461046d578063a8ad0daa146112c5578063ac8919c91461129b578063acba20b114611262578063ad9f20a61461123f578063b2a6dcb814610bbc578063b38deb8014610ba0578063c8e9ab4a1461090b578063cb0ff255146108d2578063cdec2cd11461088f578063ceea2f5a146106b3578063d11ac98814610680578063d547741f14610632578063d582d36e14610605578063eaf98d23146105e9578063f086075a1461049c578063f5c0b48c14610472578063f6e8913d1461046d578063fe7992c2146103835763fece90f514610357575f80fd5b346103805760203660031901126103805760406020916004358152601183522054604051908152f35b80fd5b503461038057602090816003193601126103805760043580825260078352604082206001810154835260058452604083206103bc613faa565b91546001600160a01b0392831690831614918215610454575b5050156104195791610411928252601081526103fc60408084209360118452205492612886565b91604051938493604085526040850190612949565b918301520390f35b60405162461bcd60e51b815260048101849052601360248201527212d4ce881b9bdd081c185c9d1a58da5c185b9d606a1b6044820152606490fd5b80919250610460613faa565b9254169116145f806103d5565b612a15565b50346103805760203660031901126103805760406020916004358152601983522054604051908152f35b50346103805760403660031901126103805760043580825260209060078252604083206104e06104ca613faa565b91546001600160a01b0392831690831614612c22565b8184526013835260ff604085205416600a8110156105d55760026105049114612c5e565b818452601583526001600160401b0380604086205416610597577f327d9ab8b3ef21fec285efb953712a02a97c4ce0eb330c06d179d1fec368a8c9916060918487526013865260408720600360ff1982541617905584875260158652604087209042166001600160401b031982541617905561057e613faa565b169385604051918183528201526024356040820152a380f35b60405162461bcd60e51b815260048101859052601660248201527512d4ce88185b1c9958591e4818da185b1b195b99d95960521b6044820152606490fd5b634e487b7160e01b85526021600452602485fd5b5034610380578060031936011261038057602060405160058152f35b50346103805760203660031901126103805760ff6040602092600435815260248452205416604051908152f35b50346103805760403660031901126103805761067c600435610652612989565b908084525f805160206140048339815191526020526106776001604086200154612d01565b612df6565b5080f35b5034610380576020366003190112610380576001600160401b036040602092600435815260148452205416604051908152f35b5034610380576106c2366129c5565b90838594939452602093600785526040862060018101548752600586526040872092600b875260ff604089205416600381101561087b5760026107059114612ac0565b610726610710613faa565b94546001600160a01b0395861690861614612c65565b8588526013875260ff604089205416600a81101561087b57600361074a9114612c5e565b858852601587526001600160401b03928360408a2054166201518081018091116108675761077a90421115612a30565b86895260128852600160ff60408b20541603610829579260046002936107c788604098957fed8f28ed0756305b19653f4c072ac6d66d52c78ce8a416e70ec8f9f34fbd58d79a988c612e9c565b0160ff1990600182825416179055878a5260128952858a208482825416179055601389526005868b2091825416179055868952601688528489209042166001600160401b031982541617905561081b613faa565b16958351928352820152a380f35b60405162461bcd60e51b815260048101899052601660248201527512d4ce881b9bc81c9959195b1a5d995c9e481b19599d60521b6044820152606490fd5b634e487b7160e01b8a52601160045260248afd5b634e487b7160e01b89526021600452602489fd5b5034610380576020366003190112610380576108ba60406108ce926004358152602160205220612886565b604051918291602083526020830190612949565b0390f35b5034610380576020366003190112610380576020906040906001600160a01b036108fa61299f565b168152602783522054604051908152f35b5034610380576060366003190112610380576004356109286129b5565b8183526020600781526040842091610957610941613faa565b93546001600160a01b0394851690851614612c22565b8385526013825260ff604086205416600a811015610b8c576002148015610b6b575b61098290612c5e565b61098c81856130ce565b15610b2657838552601382526040852060ff1990600482825416179055836109b2613faa565b16857f327d9ab8b3ef21fec285efb953712a02a97c4ce0eb330c06d179d1fec368a8c9606060ff6040519660018852169586888201526044356040820152a384865260078352604086206001810154948588526005855260408820928789526013865260ff60408a205416600a811015610b125790610a3760088b9594931415612cbd565b88845260138752600860408520918254161790556004820161010061ff00198254161790558060015416915416813b15610b0e578291602483926040519485938492638fe80d9560e01b845260048401525af18015610b0357610aeb575b50507f1d0aaaf60e4a68644db764ad1504d02924c57ea1b5b2111e112f9b2dc0efbcfd9381600a610ae19301610acb8154612c09565b9055610ad687613127565b6003810154916131f7565b604051908152a280f35b610af490612852565b610aff57855f610a95565b8580fd5b6040513d84823e3d90fd5b8280fd5b634e487b7160e01b8a52602160045260248afd5b60405162461bcd60e51b815260048101839052601b60248201527f4b533a206e6f74206f626a6563746976656c7920696e76616c696400000000006044820152606490fd5b508385526013825260ff604086205416600a811015610b8c57600514610979565b634e487b7160e01b86526021600452602486fd5b5034610380578060031936011261038057602060405160048152f35b503461038057604036600319011261038057610bd66129b5565b6004358252600760205260408220906001820154835260056020526040832090600b60205260ff806040862054166003811015610b8c576002610c199114612ac0565b610c39610c24613faa565b84546001600160a01b03918216911614612c65565b6004358552601360205280604086205416600a811015610b8c576001610c5f9114612c5e565b600484019182548281166112025782610c7c9160081c1615612bc6565b6004358652601160205260408620546111bd576004358652601260205281604087205416611180576004358652601c602052610cbe8260408820541615612b42565b6004358652601d602052610cd88260408820541615612b84565b60043586526022602052610cf28260408820541615612b01565b600435865260236020528160408720541661113b57600182821614801561112f575b8015611123575b8015611117575b156110d2576002850154926004358752601960205260408720546003860154858082115f146110c957610d5491612ca2565b915b60043589526023602052604089209060ff1991600183825416179055602460205260408a2086861683825416179055601d60205260408a2060018382541617905561010061ff00198254161790556013602052600960408a2091825416179055600a86018054806110b7575b5050600986018054806110a5575b5050600154875489916001600160a01b039081169116813b15610b0e578291602483926040519485938492638fe80d9560e01b845260048401525af18015610b035761108d575b5050865460018801546040519060208201926bffffffffffffffffffffffff199060601b168352603482015260348152606081018181106001600160401b0382111761107957604052519020885260086020528760408120600435815414611071575b505085546001600160a01b031688526025602052604088208054610e9d90612caf565b905560018701548852602660205260408820610eb98154612caf565b905586546001600160a01b031688526027602052604088208054610edc90612caf565b905584610fef575b80610f4c575b60018701549560018060a01b039054169660018060a01b03905416946040519586526020860152604085015260608401521660808201527ff85b7e1e506180fd2dfec2f2f57a3510e4ca23755e1818dd23b6960f1782bd7260a060043592a480f35b600480358952601960209081526040808b208b90558a548a54915163a9059cbb60e01b81526001600160a01b039283169481019490945260248401859052839160449183918e91165af18015610fe457610fa7575b50610eea565b6020813d602011610fdc575b81610fc060209383612865565b81010312610fd857610fd190612c15565b505f610fa1565b8880fd5b3d9150610fb3565b6040513d8b823e3d90fd5b8754875460405163a9059cbb60e01b81526001600160a01b0391821660048201526024810188905291602091839160449183918e91165af18015610fe457611038575b50610ee4565b6020813d602011611069575b8161105160209383612865565b81010312610fd85761106290612c15565b505f611032565b3d9150611044565b55875f610e7a565b634e487b7160e01b5f52604160045260245ffd5b61109690612852565b6110a157875f610e17565b8780fd5b6110ae90612c09565b90555f80610dd0565b6110c090612c09565b90555f80610dc2565b50508791610d56565b60405162461bcd60e51b815260206004820152601960248201527f4b533a20696e76616c696420726566756e6420726561736f6e000000000000006044820152606490fd5b50600482821614610d22565b50600382821614610d1b565b50600282821614610d14565b60405162461bcd60e51b815260206004820152601960248201527f4b533a2073656c6c657220726566756e64206170706c696564000000000000006044820152606490fd5b60405162461bcd60e51b815260206004820152601560248201527412d4ce88185b1c9958591e48185d1d195b5c1d1959605a1b6044820152606490fd5b60405162461bcd60e51b815260206004820152601960248201527f4b533a206b657920616c7265616479207375626d6974746564000000000000006044820152606490fd5b60405162461bcd60e51b815260206004820152601560248201527412d4ce88185b1c9958591e4819195b1a5d995c9959605a1b6044820152606490fd5b50346103805780600319360112610380576020604051670de0b6b3a76400008152f35b5034610380576020366003190112610380576020906040906001600160a01b0361128a61299f565b168152602583522054604051908152f35b50346103805760203660031901126103805760406020916004358152600883522054604051908152f35b50346103805760203660031901126103805760ff60406020926004358152601884522054166040519015158152f35b50346103805760203660031901126103805760406020916004358152602683522054604051908152f35b5034610380578060031936011261038057602090604051908152f35b5034610380576020366003190112610380576004358152601360205260ff60408220541660405190600a81101561137357602092508152f35b634e487b7160e01b83526021600452602483fd5b503461038057611396366129c5565b90929182855260209360078552604086209060018201548752600586526040872092600b875260ff604089205416600381101561087b5760026113d99114612ac0565b6113e4610710613faa565b8588526013875260ff604089205416600a81101561087b57859361143d7f84fb704e368adf6a6663d1d8de81d7c9594896ccc973e5ffa197810d76d8f3ab97600195604098956114378860049714612c5e565b8b612e9c565b0160ff19908382825416179055868952601288528489208382825416179055601388526002858a2091825416179055858852601487528388206001600160401b0342166001600160401b031982541617905561081b613faa565b503461038057806003193601126103805760206040516203f4808152f35b5034610380576020366003190112610380576001600160401b036040602092600435815260168452205416604051908152f35b5034610380576040366003190112610380576040611504612989565b9160043581525f80516020614004833981519152602052209060018060a01b03165f52602052602060ff60405f2054166040519015158152f35b50346103805760203660031901126103805760ff6040602092600435815260128452205416604051908152f35b50346103805780600319360112610380576003546040516001600160a01b039091168152602090f35b503461038057602036600319011261038057604060c091600435815260076020522060ff60018060a01b0382541691600181015490600281015460046003830154920154926040519586526020860152604085015260608401528181161515608084015260081c16151560a0820152f35b5034610380576020366003190112610380576004358152600b60205260ff60408220541660405190600381101561137357602092508152f35b50346103805780600319360112610380576040517f00000000000000000000000000000000000000000000000000000000000000006001600160a01b03168152602090f35b5034610380576020806003193601126118e057600435908183526007815260408320906116c76116b1613faa565b92546001600160a01b0393841690841614612c22565b8284526013815260ff604085205416600a8110156105d55760021480156118bf575b6116f290612c5e565b5f835f526007825260405f209160018301545f526005815260405f2091855f52601c825261172760ff60405f20541615612cbd565b855f526013825260405f2060ff19906006828254161790556004850161010061ff0019825416179055858060015416955416853b156118bb575f95602487926040519889938492638fe80d9560e01b845260048401525af19384156118b05787957fd59a34c4244796808a89bc9820420faba740533808a8001cce2a4cbaba1338fc9561189c575b50600a016117bd8154612c09565b90556117c88561384e565b6117d185613a89565b8180611888575b80611872575b611825575b506117ed84613bcd565b604051908152a26117fc613faa565b16907f1c51f672bb44381c6c32c39eb4d1a4d57901386e9fa53336d09a315dd6f5b2888380a380f35b848252601a83526001604083209182541617905560198252837fddb652d8f25e3d89940fdfc96a04005b8142fdc4f9c99c3f6a582e3a01497aad836040842054604051908152a25f6117e3565b50848252601a835260ff604083205416156117de565b5084825260198352604082205415156117d8565b6118a7919350612852565b5f91600a6117af565b6040513d5f823e3d90fd5b5f80fd5b508284526013815260ff604085205416600a8110156105d5576005146116e9565b5080fd5b50346103805780600319360112610380576001546040516001600160a01b039091168152602090f35b5034610380578060031936011261038057546040516001600160a01b039091168152602090f35b50346103805760203660031901126103805760ff60406020926004358152601d84522054166040519015158152f35b50346103805760203660031901126103805760ff60406020926004358152601784522054166040519015158152f35b50346103805760203660031901126103805760ff60406020926004358152601c84522054166040519015158152f35b5034610380578060031936011261038057602060405160148152f35b61296e565b50346103805760203660031901126103805760ff60406020926004358152600984522054166040519015158152f35b503461038057604036600319011261038057600435611a2e6129b5565b90611a37613faa565b6001600160a01b039081165f8181527fb7db2dd08fcb62d0c9e08c51941cae53c267786a0b75803fb7960902fc8ef97d6020908152604090912054909460ff949390929091851615611d8757508286526007855260408620936001850192835488526005875260408820600b88528260408a2054166003811015610b125790611ac46002600a9314612ac0565b868a5260228952611adb8460408c20541615612b01565b868a52601c8952611af28460408c20541615612b42565b868a52601d8952611b098460408c20541615612b84565b60048801611b1d85825460081c1615612bc6565b878b5260228a5260408b209060ff1991600183825416179055601d8b5260408c2060018382541617905561010161ffff1982541617905560138a52600860408c209182541617905501805480611d75575b505087836001541684885416813b15610b0e578291602483926040519485938492638fe80d9560e01b845260048401525af18015610b0357611d61575b505060028601549283611cd2575b8589526019885260408920908982549283611c12575b5050906060949392917fc80674e355919bd71a06b44194bcf01ecd52ba0cfcac17a09db4d22074033574965498541698604051948552840152166040820152a480f35b558954885460405163a9059cbb60e01b81529083166001600160a01b0316600482015260248101849052908a9082908416818e816044810103925af18015611cc757611c60575b8a90611bcf565b94939291908986813d8311611cc0575b611c7a8183612865565b81010312611cbc577fc80674e355919bd71a06b44194bcf01ecd52ba0cfcac17a09db4d2207403357496611caf606097612c15565b5096509091929394611c59565b8a80fd5b503d611c70565b6040513d8d823e3d90fd5b8854875460405163a9059cbb60e01b81529083166001600160a01b031660048201526024810186905290899082908416818d816044810103925af18015611d5657611d1e575b50611bb9565b8881813d8311611d4f575b611d338183612865565b81010312611d4b57611d4490612c15565b505f611d18565b8980fd5b503d611d29565b6040513d8c823e3d90fd5b611d6a90612852565b6110a157875f611bab565b611d7e90612c09565b90555f80611b6e565b6044906040519063e2517d3f60e01b825260048201525f6024820152fd5b5034610380578060031936011261038057601e546040516001600160a01b039091168152602090f35b5034610380576020366003190112610380576020611dea61299f565b6040517f00000000000000000000000000000000000000000000000000000000000000006001600160a01b039081169216919091148152f35b503461038057602036600319011261038057604060209160043581528280522054604051908152f35b5034610380576020366003190112610380576001600160401b036040602092600435815260158452205416604051908152f35b50346103805780600319360112610380576002546040516001600160a01b039091168152602090f35b50346103805760203660031901126103805760ff60406020926004358152602384522054166040519015158152f35b50346103805760203660031901126103805760406020916004358152600f83522054604051908152f35b5034610380578060031936011261038057600a546040516001600160a01b039091168152602090f35b503461038057604036600319011261038057611f44612989565b6001600160a01b0380611f55613faa565b1690821603611f6a5761067c90600435612df6565b60405163334bd91960e11b8152600490fd5b50346103805780600319360112610380576020600454604051908152f35b50346103805760403660031901126103805761067c600435611fba612989565b908084525f80516020614004833981519152602052611fdf6001604086200154612d01565b612d61565b5034610380578060031936011261038057602060405160018152f35b6127ff565b5034610380576020806003193601126118e057600435908183526013815260ff604084205416908391600a8110156105d557600281036122265750828452601481526001600160401b036040852054166203f48081018091116122125761206e90421015612a7c565b5f91835f526007825260405f2060018101545f526005835260405f2093855f52601c84526120a360ff60405f20541615612cbd565b5f8681526013855260409020805460ff1990811660061790915560048301805461ff00191661010017905560015492546001600160a01b039384169316833b156118bb575f93602485926040519687938492638fe80d9560e01b845260048401525af19081156118b0577fd59a34c4244796808a89bc9820420faba740533808a8001cce2a4cbaba1338fc96889487936121fe575b50600a016121468154612c09565b90556121518461384e565b84159461215e8686613b1c565b806121ea575b806121d4575b612186575b50505061217b90613bcd565b60405190158152a280f35b82604091857fddb652d8f25e3d89940fdfc96a04005b8142fdc4f9c99c3f6a582e3a01497aad9552601a8452600183832091825416179055601983522054604051908152a2835f838161216f565b50838352601a825260ff6040842054161561216a565b508383526019825260408320541515612164565b612209919450612852565b5f92600a612138565b634e487b7160e01b85526011600452602485fd5b90915060050361227a57818352601681526001600160401b036040842054166203f48081018091116122665761225e90421015612a7c565b60019061206e565b634e487b7160e01b84526011600452602484fd5b60405162461bcd60e51b815260206004820152600d60248201526c4b533a2062616420737461746560981b6044820152606490fd5b50346103805760203660031901126103805760ff60406020926004358152601f84522054166040519015158152f35b5034610380576020366003190112610380576001604060209260043581525f805160206140048339815191528452200154604051908152f35b50346103805780600319360112610380576020600654604051908152f35b50346103805760203660031901126103805760406020916004358152601b83522054604051908152f35b50346103805760203660031901126103805760ff60406020926004358152601a84522054166040519015158152f35b50346103805780600319360112610380576020604051620151808152f35b503461038057602036600319011261038057600435815260056020526040902080546001600160a01b03166123e360018301612886565b916123f060028201612886565b60038201549161240260048201612886565b600582015493600683015461246b60ff60078601541692600886015494612458600a60098901549801549861244a6040519d8e9d8e6101609181528160208201520190612949565b8c810360408e015290612949565b9160608b015289820360808b0152612949565b9560a088015260c0870152151560e08601526101008501526101208401526101408301520390f35b503461038057806003193601126103805760206040516104008152f35b5034610380578060031936011261038057602060405162278d008152f35b50346103805760203660031901126103805760ff60406020926004358152602284522054166040519015158152f35b50346103805760203660031901126103805760406020916004358152600e83522054604051908152f35b503461038057806003193601126103805760206040517fba279271fb7bbf76a6f3df3cc57bf80647fcafdea60ec3383d90f459de74e7c08152f35b5034610380578060031936011261038057602060405160038152f35b50346103805760203660031901126103805760043563ffffffff60e01b81168091036118e057602090637965db0b60e01b81149081156125c4575b506040519015158152f35b6301ffc9a760e01b149050826125b9565b50346118bb576020806003193601126118bb5760043590815f526013815260ff60405f2054166007825260405f20600a82101561273d57600391600181036127a15750015462015180810180911161278d574210612751575b815f526007815260405f2090600182015491825f526005825260405f2091845f526013815260ff60405f20541690600a82101561273d5761267460076013931415612cbd565b5f86815291905260409020805460ff1916600717905560048101805461ff00191661010017905560015490546001600160a01b039182169116813b156118bb575f91602483926040519485938492638fe80d9560e01b845260048401525af180156118b057612724575b509081600a6126fd93016126f28154612c09565b9055610ad684613127565b7f44849f20f838da9fe80376187225407241012f1e68cd69585c0a3ab96c796bb18280a280f35b6126fd9291945061273490612852565b5f9390916126de565b634e487b7160e01b5f52602160045260245ffd5b6064906040519062461bcd60e51b8252600482015260156024820152744b533a2064656c697665727920646561646c696e6560581b6044820152fd5b634e487b7160e01b5f52601160045260245ffd5b9050145f1461227a57815f52601581526001600160401b0360405f20541662015180810180911161278d576127d890421015612a30565b61262e565b346118bb575f3660031901126118bb578069d3c21bcecceda100000060209252f35b346118bb575f3660031901126118bb57602060405160028152f35b90600182811c92168015612848575b602083101461283457565b634e487b7160e01b5f52602260045260245ffd5b91607f1691612829565b6001600160401b03811161107957604052565b90601f801991011681019081106001600160401b0382111761107957604052565b9060405191825f82546128988161281a565b908184526020946001916001811690815f1461290657506001146128c8575b5050506128c692500383612865565b565b5f90815285812095935091905b8183106128ee5750506128c693508201015f80806128b7565b855488840185015294850194879450918301916128d5565b925050506128c694925060ff191682840152151560051b8201015f80806128b7565b5f5b8381106129395750505f910152565b818101518382015260200161292a565b9060209161296281518092818552858086019101612928565b601f01601f1916010190565b346118bb575f3660031901126118bb57602060405160018152f35b602435906001600160a01b03821682036118bb57565b600435906001600160a01b03821682036118bb57565b6024359060ff821682036118bb57565b60606003198201126118bb57600435916024356001600160401b03928382116118bb57806023830112156118bb5781600401359384116118bb57602484830101116118bb57602401919060443590565b346118bb575f3660031901126118bb57602060405160328152f35b15612a3757565b60405162461bcd60e51b815260206004820152601760248201527f4b533a20726564656c697665727920646561646c696e650000000000000000006044820152606490fd5b15612a8357565b60405162461bcd60e51b81526020600482015260156024820152744b533a20726573706f6e736520646561646c696e6560581b6044820152606490fd5b15612ac757565b60405162461bcd60e51b815260206004820152601260248201527125a99d103737ba10383934bb30ba32903b1960711b6044820152606490fd5b15612b0857565b60405162461bcd60e51b815260206004820152601260248201527112d4ce881c995cd8dd5948185c1c1b1a595960721b6044820152606490fd5b15612b4957565b60405162461bcd60e51b815260206004820152601360248201527212d4ce881c185e5bdd5d081c995b19585cd959606a1b6044820152606490fd5b15612b8b57565b60405162461bcd60e51b815260206004820152601360248201527212d4ce881c99599d5b99081c995b19585cd959606a1b6044820152606490fd5b15612bcd57565b60405162461bcd60e51b815260206004820152601460248201527312d4ce88185b1c9958591e481c995d9a595dd95960621b6044820152606490fd5b801561278d575f190190565b519081151582036118bb57565b15612c2957565b60405162461bcd60e51b815260206004820152600d60248201526c25a99d103737ba10313abcb2b960991b6044820152606490fd5b1561227a57565b15612c6c57565b60405162461bcd60e51b815260206004820152600e60248201526d25a99d103737ba1039b2b63632b960911b6044820152606490fd5b9190820391821161278d57565b5f19811461278d5760010190565b15612cc457565b60405162461bcd60e51b815260206004820152601560248201527412d4ce88185b1c9958591e48199a5b985b1a5e9959605a1b6044820152606490fd5b612d09613faa565b90805f525f8051602061400483398151915260205260405f209160018060a01b031691825f5260205260ff60405f20541615612d43575050565b604492506040519163e2517d3f60e01b835260048301526024820152fd5b5f8181525f80516020614004833981519152602081815260408084206001600160a01b039687168086529252909220549293919260ff16612dee57835f5260205260405f20825f5260205260405f20600160ff19825416179055612dc3613faa565b16917f2f8788117e7eff1d82e926ec794901d17c78024a50270940304540a733656f0d5f80a4600190565b505050505f90565b5f8181525f80516020614004833981519152602081815260408084206001600160a01b039687168086529252909220549293919260ff1615612dee57835f5260205260405f20825f5260205260405f2060ff198154169055612e56613faa565b16917ff6391f5c32d9c69d2a47ea670b442974b53935d1edc7fd64eb21e047a839171b5f80a4600190565b6001600160401b03811161107957601f01601f191660200190565b90821561309157610400831161304c57612eb583612e81565b92612ec36040519485612865565b8084526020938481019036838501116118bb57828483375f868483010152519020850361300757825f526010845260405f20916001600160401b03821161107957612f0e835461281a565b601f8111612fc4575b505f90601f8311600114612f5d57601195949392915f9183612f52575b50508160011b915f199060031b1c19161790555b5f525260405f2055565b013590505f80612f34565b601f19831691845f52865f20925f5b818110612fad57509160019391856011999897969410612f94575b505050811b019055612f48565b01355f19600384901b60f8161c191690555f8080612f87565b919388600181928787013581550195019201612f6c565b835f52855f20601f840160051c810191878510612ffd575b601f0160051c01905b818110612ff25750612f17565b5f8155600101612fe5565b9091508190612fdc565b60405162461bcd60e51b815260048101859052601d60248201527f4b533a2077726170706564206b65792068617368206d69736d617463680000006044820152606490fd5b60405162461bcd60e51b815260206004820152601960248201527f4b533a2077726170706564206b657920746f6f206c61726765000000000000006044820152606490fd5b60405162461bcd60e51b81526020600482015260156024820152744b533a20656d7074792077726170706564206b657960581b6044820152606490fd5b90815f52601060205260ff6130e560405f20612886565b911660018114613107576002919250146130fe57505f90565b61040090511190565b505115908115613115575090565b90505f52601160205260405f20541590565b6131a790805f526020601d815261314560ff60405f20541615612b84565b5f828152601d82526040808220805460ff191660011790556007835280822082548154600290920154925163a9059cbb60e01b81526001600160a01b039283166004820152602481019390935291958493879390921691839182906044820190565b03925af180156118b0576131c1575b506128c69150613a89565b82813d83116131f0575b6131d58183612865565b810103126118bb576131e96128c692612c15565b505f6131b6565b503d6131cb565b5f9260328102908082046032149015171561278d5760068301805460649092049290828410156137145783925b838061360a575b915050839150106133f9575b505060015481546001600160a01b0390811692918116803b156133f5578480916024604096875194859384926322eb7bdb60e11b845260048401525af180156133af579085916133e1575b5050806001541681835416813b15610aff578591602483928751948593849263d0542f9760e01b845260048401525af180156133af579085916133cd575b5050806001541681835416813b15610aff57859160248392875194859384926317517f8d60e31b845260048401525af180156133af579085916133b9575b5050806001541681835416813b15610aff5785916024839287519485938492630f5d255560e41b845260048401525af180156133af5790859161339b575b50508060015416915416813b15613397578291602485949285935195869384926313fb5ea760e01b845260048401525af190811561338e575061337d575050565b6133878291612852565b6103805750565b513d84823e3d90fd5b8380fd5b6133a490612852565b61339757835f61333c565b84513d87823e3d90fd5b6133c290612852565b61339757835f6132fe565b6133d690612852565b61339757835f6132c0565b6133ea90612852565b61339757835f613282565b8480fd5b61340291612ca2565b82548254604080516370a0823160e01b81526001600160a01b0392831660048201819052919493831693602091908282602481895afa9182156136005789926135d1575b508651636eb1769f60e11b81526001600160a01b03851660048201523060248201529183836044818a5afa9283156135c7578a93613598575b50808210156135905750905b808210156135885750935b846134a5575b50505050613237565b85516323b872dd60e01b81526001600160a01b03939093166004840152306024840152604483018590528190839060649082908b905af1801561357e5761354a575b505084541690813b156133f557829160248694928593519586938492630852cd8d60e31b845260048401525af1908115613541575090839161352d575b8080808061349c565b61353690612852565b6118e057815f613524565b513d85823e3d90fd5b81813d8311613577575b61355e8183612865565b81010312610aff5761356f90612c15565b505f806134e7565b503d613554565b85513d89823e3d90fd5b905093613496565b90509061348b565b9092508381813d83116135c0575b6135b08183612865565b810103126118bb5751915f61347f565b503d6135a6565b88513d8c823e3d90fd5b9091508281813d83116135f9575b6135e98183612865565b810103126118bb5751905f613446565b503d6135df565b87513d8b823e3d90fd5b61361391612ca2565b905560015484546001600160a01b0391908216908216803b156118bb576040516334673ec560e11b81526001600160a01b03929092166004830152602482018590525f908290604490829084905af180156118b057613701575b5080865416803b156136fd57868091602460405180948193630852cd8d60e31b83528960048401525af180156136f2579087916136de575b5050845416907fba00be99b4ba100b19f2c080160ab22c2b8f4d62027d6524c532e7578d7a43b46020604051858152a35f80808361322b565b6136e790612852565b610aff57855f6136a5565b6040513d89823e3d90fd5b8680fd5b61370c919650612852565b5f945f61366d565b82613224565b81601f820112156118bb57805161373081612e81565b9261373e6040519485612865565b818452602082840101116118bb5761375c9160208085019101612928565b90565b519060ff821682036118bb57565b6020818303126118bb5780516001600160401b03918282116118bb5701906101209283838203126118bb57604051938401848110838211176110795760405282518281116118bb57816137c191850161371a565b845260208301519182116118bb576137da91830161371a565b602083015260408101516001600160a01b03811681036118bb5760408301526138056060820161375f565b60608301526080810151608083015260a081015160a083015260c081015160c083015261383460e08201612c15565b60e0830152613847610100809201612c15565b9082015290565b805f526020601c8152604060ff815f205416613a845760078252805f209260018401545f52600583526002825f2094015460018060a01b039182600154165f84885416602487518094819363fb3551ff60e01b835260048301525afa908115613a7a579060e0915f91613a58575b500151151580613a4f575b613977575b5f52601c8452825f20600160ff19825416179055806138ed575b5050505050565b5f80549554845163a9059cbb60e01b81529084166001600160a01b0316600482015260248101929092529094849286926044928492165af190811561396e575061393a575b8080806138e6565b81813d8311613967575b61394e8183612865565b810103126118bb5761395f90612c15565b505f80613932565b503d613944565b513d5f823e3d90fd5b603282028281046032148315171561278d57606461399791048093612ca2565b5f8054600254875163a9059cbb60e01b81529087166001600160a01b031660048201526024810186905292949291889183916044918391908a165af18015613a4557613a11575b507ff5f01754584f438c12bcb34b8c17451066251095c28d277f3966dca00bf054a18685895416928751908152a26138cc565b8681813d8311613a3e575b613a268183612865565b810103126118bb57613a3790612c15565b505f6139de565b503d613a1c565b86513d5f823e3d90fd5b508115156138c7565b613a7491503d805f833e613a6c8183612865565b81019061376d565b5f6138bc565b85513d5f823e3d90fd5b505050565b5f5260206019815260405f2054908115613b18575f805460078352604080832054905163a9059cbb60e01b81526001600160a01b039182166004820152602481019590955283928592604492849291165af180156118b057613ae9575050565b81813d8311613b11575b613afd8183612865565b810103126118bb57613b0e90612c15565b50565b503d613af3565b5050565b805f5260209060198252604090815f20549384156138e65715613b8e575f80549181526007845282812054835163a9059cbb60e01b81526001600160a01b039182166004820152602481019690965284928692911690829081604481015b03925af190811561396e5750613ae9575050565b505f8054600254835163a9059cbb60e01b81526001600160a01b0391821660048201526024810196909652849286929091169082908160448101613b7a565b5f90805f526020906018825260409260ff845f2054168015613f98575b613f925760078352835f209360018501545f5260058452805f209460018060a01b0380809254169654169481600154169183519463ecfba34360e01b865260049589878201528381602481885afa908115613a45575f91613f5d575b5015613edf57845163fb3551ff60e01b8082528782018b9052905f81602481895afa908115613f3957849188915f91613f43575b5001511690865190815289888201525f81602481895afa908115613f3957849188915f91613f1f575b5001511614613edf57845163152e98e760e21b81526001600160a01b03808a16888301908152908b1660208201528490829081906040010381885afa908115613a45575f91613eea575b50613edf57865f52601b8352845f205493803b156118bb57855163ada91a1760e01b81526001600160a01b03808b16828a01908152908c1660208201526040810187905290915f9183919082908490829060600103925af18015613a4557613ece575b50809180600a5416908115159081613e4d575b50613db0575b5086815260188352849020805460ff1916600117905583519283521515908201527f381d78290492cac4ca2b6091d55d10b1aa34fc1a4bf5a400826638d0f4e7646d9250a4565b8092509590929394953b15610b0e578551634eeb702960e01b81526001600160a01b0389169181019182526020820186905291839183919082908490829060400103925af18015613e4357613e2f575b507f381d78290492cac4ca2b6091d55d10b1aa34fc1a4bf5a400826638d0f4e7646d9392919060019084613d69565b613e398291612852565b610380575f613e00565b85513d84823e3d90fd5b905060015416848a6024895180948193635a2d572960e11b83528d8301525afa908115613ec4578391613e8a575b5060ff6002911610155f613d63565b90508481813d8311613ebd575b613ea18183612865565b81010312610b0e5760ff613eb660029261375f565b9150613e7b565b503d613e97565b87513d85823e3d90fd5b613ed89150612852565b5f80613d50565b505050505050505050565b90508381813d8311613f18575b613f018183612865565b810103126118bb57613f1290612c15565b5f613ced565b503d613ef7565b613f3391503d805f833e613a6c8183612865565b5f613ca3565b87513d5f823e3d90fd5b613f5791503d805f833e613a6c8183612865565b5f613c7a565b90508381813d8311613f8b575b613f748183612865565b810103126118bb57613f8590612c15565b5f613c46565b503d613f6a565b50505050565b506017835260ff845f20541615613bea565b601436101580613fd1575b15613fcd5760131936013681116118bb573560601c90565b3390565b50337f00000000000000000000000000000000000000000000000000000000000000006001600160a01b031614613fb556fe02dd7bc7dec4dceedda775e58dd541e08a116c6c53815c0bd028192f7b626800a2646970667358221220623ffbd7307de88867177098b04fbae3521179b9348684f08e9979233c22ee0d64736f6c63430008180033","linkReferences":{}},"methodIdentifiers":{"AUTO_REVIEW_PERIOD()":"0e327030","BURN_PERCENT()":"9c986764","BUYER_RESPONSE_DEADLINE()":"93407b1f","DEBT_DEDUCTION_PERCENT()":"a4ede5eb","DEFAULT_ADMIN_ROLE()":"a217fddf","DELIVERY_DEADLINE()":"16b5219e","FEE_PERCENT()":"eaf98d23","MAX_PRICE()":"01c11d96","MAX_WRAPPED_KEY_BYTES()":"0fc18454","MIN_PRICE()":"ad9f20a6","OBJECTIVE_REASON_EMPTY_WRAPPED_KEY()":"2c1271c3","OBJECTIVE_REASON_OVERSIZED_WRAPPED_KEY()":"2be67c4f","OWNER_PERCENT()":"2e1371bd","PROTOCOL_ROLE()":"02768de4","REFUND_REASON_INVALID_DELIVERY_CONFIG()":"61209b47","REFUND_REASON_SELLER_CANCELLED()":"b38deb80","REFUND_REASON_STALE_OR_INCONSISTENT_BUYER_TX()":"024b8993","REFUND_REASON_UNSUPPORTED_BUYER_KEY()":"0442762e","SLASH_PERCENT()":"f6e8913d","STAKE_PERCENT()":"61c2649e","acceptDelivery(uint256)":"7b422c4c","buyerBondAmount(uint256)":"f5c0b48c","buyerBondForfeited(uint256)":"1f175594","buyerPurchases(bytes32)":"ac8919c9","buyerUndeliveredRefundReceivedCount(address)":"cb0ff255","challengeDeliveryObjective(uint256,uint8,bytes32)":"c8e9ab4a","challengeDeliverySubjective(uint256,bytes32)":"f086075a","challengedAt(uint256)":"4a044932","ciphertextHash(uint256)":"02b9bc63","ckt()":"79021310","contentHashExists(bytes32)":"5f7668ce","creditApplied(uint256)":"a8ad0daa","deliverEncryptedKey(uint256,bytes,bytes32)":"97a4bb23","deliveredAt(uint256)":"d11ac988","deliveryAttemptCount(uint256)":"8c5b2293","deliveryState(uint256)":"99dc8654","explicitReviewSubmitted(uint256)":"75e1cf24","explicitSellerScoreByPurchase(uint256)":"2128a4bc","feeRecipient()":"46904840","finalizeCleanTimeout(uint256)":"29125ebb","finalizeUndelivered(uint256)":"01d7b245","getRoleAdmin(bytes32)":"248a9ca3","getWrappedKey(uint256)":"fe7992c2","grantRole(bytes32,address)":"2f2ff15d","hasRole(bytes32,address)":"91d14854","isTrustedForwarder(address)":"572b6c05","knowledgeItems(uint256)":"1018c5f9","knowledgeMode(uint256)":"7e92b854","knowledgeUndeliveredRefundCount(uint256)":"a417ee6d","maxSalesByKnowledge(uint256)":"55a5f255","nextKnowledgeId()":"310f1371","nextPurchaseId()":"23b4a7a3","payoutReleased(uint256)":"7021f1a3","purchaseDeliveryConfigSnapshot(uint256)":"3b0ecb61","purchaseDeliveryConfigURI(uint256)":"cdec2cd1","purchases(uint256)":"8392fe31","redeliverEncryptedKey(uint256,bytes,bytes32)":"ceea2f5a","redeliveredAt(uint256)":"927f9c99","refundReleased(uint256)":"77c50e9d","refundUndeliveredPurchase(uint256,uint8)":"b2a6dcb8","registry()":"7b103999","renounceRole(bytes32,address)":"36568abe","reputationContract()":"87bc1425","rescueApplied(uint256)":"073080c7","rescueRefundPrivatePurchase(uint256,uint8)":"5e18963b","revokeRole(bytes32,address)":"d547741f","salesOpen(uint256)":"262737cd","sellerUndeliveredRefundCount(address)":"acba20b1","supportsInterface(bytes4)":"01ffc9a7","tempoReward()":"39d006cb","trustedForwarder()":"7da0a877","undeliveredRefundReason(uint256)":"d582d36e","undeliveredSellerRefundApplied(uint256)":"3ec432c6","v2Module()":"575660c2","wrappedKeyHashByPurchase(uint256)":"fece90f5"},"id":54}