{"abi":[{"type":"constructor","inputs":[{"name":"trustedForwarder","type":"address","internalType":"address"}],"stateMutability":"nonpayable"},{"type":"function","name":"AUTO_REVIEW_PERIOD","inputs":[],"outputs":[{"name":"","type":"uint256","internalType":"uint256"}],"stateMutability":"view"},{"type":"function","name":"BURN_PERCENT","inputs":[],"outputs":[{"name":"","type":"uint256","internalType":"uint256"}],"stateMutability":"view"},{"type":"function","name":"BUYER_RESPONSE_DEADLINE","inputs":[],"outputs":[{"name":"","type":"uint256","internalType":"uint256"}],"stateMutability":"view"},{"type":"function","name":"DEBT_DEDUCTION_PERCENT","inputs":[],"outputs":[{"name":"","type":"uint256","internalType":"uint256"}],"stateMutability":"view"},{"type":"function","name":"DEFAULT_ADMIN_ROLE","inputs":[],"outputs":[{"name":"","type":"bytes32","internalType":"bytes32"}],"stateMutability":"view"},{"type":"function","name":"DELIVERY_DEADLINE","inputs":[],"outputs":[{"name":"","type":"uint256","internalType":"uint256"}],"stateMutability":"view"},{"type":"function","name":"FEE_PERCENT","inputs":[],"outputs":[{"name":"","type":"uint256","internalType":"uint256"}],"stateMutability":"view"},{"type":"function","name":"MAX_PRICE","inputs":[],"outputs":[{"name":"","type":"uint256","internalType":"uint256"}],"stateMutability":"view"},{"type":"function","name":"MAX_WRAPPED_KEY_BYTES","inputs":[],"outputs":[{"name":"","type":"uint256","internalType":"uint256"}],"stateMutability":"view"},{"type":"function","name":"MIN_PRICE","inputs":[],"outputs":[{"name":"","type":"uint256","internalType":"uint256"}],"stateMutability":"view"},{"type":"function","name":"OBJECTIVE_REASON_EMPTY_WRAPPED_KEY","inputs":[],"outputs":[{"name":"","type":"uint8","internalType":"uint8"}],"stateMutability":"view"},{"type":"function","name":"OBJECTIVE_REASON_OVERSIZED_WRAPPED_KEY","inputs":[],"outputs":[{"name":"","type":"uint8","internalType":"uint8"}],"stateMutability":"view"},{"type":"function","name":"OWNER_PERCENT","inputs":[],"outputs":[{"name":"","type":"uint256","internalType":"uint256"}],"stateMutability":"view"},{"type":"function","name":"PROTOCOL_ROLE","inputs":[],"outputs":[{"name":"","type":"bytes32","internalType":"bytes32"}],"stateMutability":"view"},{"type":"function","name":"SLASH_PERCENT","inputs":[],"outputs":[{"name":"","type":"uint256","internalType":"uint256"}],"stateMutability":"view"},{"type":"function","name":"STAKE_PERCENT","inputs":[],"outputs":[{"name":"","type":"uint256","internalType":"uint256"}],"stateMutability":"view"},{"type":"function","name":"buyerBondAmount","inputs":[{"name":"","type":"uint256","internalType":"uint256"}],"outputs":[{"name":"","type":"uint256","internalType":"uint256"}],"stateMutability":"view"},{"type":"function","name":"buyerBondForfeited","inputs":[{"name":"","type":"uint256","internalType":"uint256"}],"outputs":[{"name":"","type":"bool","internalType":"bool"}],"stateMutability":"view"},{"type":"function","name":"buyerPurchases","inputs":[{"name":"","type":"bytes32","internalType":"bytes32"}],"outputs":[{"name":"","type":"uint256","internalType":"uint256"}],"stateMutability":"view"},{"type":"function","name":"challengedAt","inputs":[{"name":"","type":"uint256","internalType":"uint256"}],"outputs":[{"name":"","type":"uint64","internalType":"uint64"}],"stateMutability":"view"},{"type":"function","name":"ciphertextHash","inputs":[{"name":"","type":"uint256","internalType":"uint256"}],"outputs":[{"name":"","type":"bytes32","internalType":"bytes32"}],"stateMutability":"view"},{"type":"function","name":"ckt","inputs":[],"outputs":[{"name":"","type":"address","internalType":"contract CKT"}],"stateMutability":"view"},{"type":"function","name":"contentHashExists","inputs":[{"name":"","type":"bytes32","internalType":"bytes32"}],"outputs":[{"name":"","type":"bool","internalType":"bool"}],"stateMutability":"view"},{"type":"function","name":"creditApplied","inputs":[{"name":"","type":"uint256","internalType":"uint256"}],"outputs":[{"name":"","type":"bool","internalType":"bool"}],"stateMutability":"view"},{"type":"function","name":"deliveredAt","inputs":[{"name":"","type":"uint256","internalType":"uint256"}],"outputs":[{"name":"","type":"uint64","internalType":"uint64"}],"stateMutability":"view"},{"type":"function","name":"deliveryAttemptCount","inputs":[{"name":"","type":"uint256","internalType":"uint256"}],"outputs":[{"name":"","type":"uint8","internalType":"uint8"}],"stateMutability":"view"},{"type":"function","name":"deliveryState","inputs":[{"name":"","type":"uint256","internalType":"uint256"}],"outputs":[{"name":"","type":"uint8","internalType":"enum KnowledgeStoreV2SalesModule.DeliveryState"}],"stateMutability":"view"},{"type":"function","name":"explicitReviewSubmitted","inputs":[{"name":"","type":"uint256","internalType":"uint256"}],"outputs":[{"name":"","type":"bool","internalType":"bool"}],"stateMutability":"view"},{"type":"function","name":"explicitSellerScoreByPurchase","inputs":[{"name":"","type":"uint256","internalType":"uint256"}],"outputs":[{"name":"","type":"uint256","internalType":"uint256"}],"stateMutability":"view"},{"type":"function","name":"feeRecipient","inputs":[],"outputs":[{"name":"","type":"address","internalType":"address"}],"stateMutability":"view"},{"type":"function","name":"getPrivateKnowledgeMeta","inputs":[{"name":"knowledgeId","type":"uint256","internalType":"uint256"}],"outputs":[{"name":"previewURI","type":"string","internalType":"string"},{"name":"encryptedContentURI","type":"string","internalType":"string"},{"name":"encryptedContentHash","type":"bytes32","internalType":"bytes32"}],"stateMutability":"view"},{"type":"function","name":"getRoleAdmin","inputs":[{"name":"role","type":"bytes32","internalType":"bytes32"}],"outputs":[{"name":"","type":"bytes32","internalType":"bytes32"}],"stateMutability":"view"},{"type":"function","name":"grantRole","inputs":[{"name":"role","type":"bytes32","internalType":"bytes32"},{"name":"account","type":"address","internalType":"address"}],"outputs":[],"stateMutability":"nonpayable"},{"type":"function","name":"hasRole","inputs":[{"name":"role","type":"bytes32","internalType":"bytes32"},{"name":"account","type":"address","internalType":"address"}],"outputs":[{"name":"","type":"bool","internalType":"bool"}],"stateMutability":"view"},{"type":"function","name":"isTrustedForwarder","inputs":[{"name":"forwarder","type":"address","internalType":"address"}],"outputs":[{"name":"","type":"bool","internalType":"bool"}],"stateMutability":"view"},{"type":"function","name":"knowledgeItems","inputs":[{"name":"","type":"uint256","internalType":"uint256"}],"outputs":[{"name":"seller","type":"address","internalType":"address"},{"name":"title","type":"string","internalType":"string"},{"name":"tags","type":"string","internalType":"string"},{"name":"price","type":"uint256","internalType":"uint256"},{"name":"ipfsCID","type":"string","internalType":"string"},{"name":"contentHash","type":"bytes32","internalType":"bytes32"},{"name":"stakeAmount","type":"uint256","internalType":"uint256"},{"name":"active","type":"bool","internalType":"bool"},{"name":"listedAt","type":"uint256","internalType":"uint256"},{"name":"salesCount","type":"uint256","internalType":"uint256"},{"name":"pendingDeliveries","type":"uint256","internalType":"uint256"}],"stateMutability":"view"},{"type":"function","name":"knowledgeMode","inputs":[{"name":"","type":"uint256","internalType":"uint256"}],"outputs":[{"name":"","type":"uint8","internalType":"enum KnowledgeStoreV2SalesModule.KnowledgeMode"}],"stateMutability":"view"},{"type":"function","name":"listPrivateKnowledge","inputs":[{"name":"title","type":"string","internalType":"string"},{"name":"tags","type":"string","internalType":"string"},{"name":"price","type":"uint256","internalType":"uint256"},{"name":"previewURI","type":"string","internalType":"string"},{"name":"encryptedContentURI","type":"string","internalType":"string"},{"name":"encryptedContentHash","type":"bytes32","internalType":"bytes32"},{"name":"contentHash","type":"bytes32","internalType":"bytes32"}],"outputs":[{"name":"knowledgeId","type":"uint256","internalType":"uint256"}],"stateMutability":"nonpayable"},{"type":"function","name":"listPrivateKnowledgeWithLimit","inputs":[{"name":"title","type":"string","internalType":"string"},{"name":"tags","type":"string","internalType":"string"},{"name":"price","type":"uint256","internalType":"uint256"},{"name":"previewURI","type":"string","internalType":"string"},{"name":"encryptedContentURI","type":"string","internalType":"string"},{"name":"encryptedContentHash","type":"bytes32","internalType":"bytes32"},{"name":"contentHash","type":"bytes32","internalType":"bytes32"},{"name":"maxSales","type":"uint256","internalType":"uint256"}],"outputs":[{"name":"knowledgeId","type":"uint256","internalType":"uint256"}],"stateMutability":"nonpayable"},{"type":"function","name":"listPublicKnowledgeV2","inputs":[{"name":"title","type":"string","internalType":"string"},{"name":"tags","type":"string","internalType":"string"},{"name":"price","type":"uint256","internalType":"uint256"},{"name":"previewURI","type":"string","internalType":"string"},{"name":"publicContentURI","type":"string","internalType":"string"},{"name":"contentHash","type":"bytes32","internalType":"bytes32"}],"outputs":[{"name":"knowledgeId","type":"uint256","internalType":"uint256"}],"stateMutability":"nonpayable"},{"type":"function","name":"maxSalesByKnowledge","inputs":[{"name":"","type":"uint256","internalType":"uint256"}],"outputs":[{"name":"","type":"uint256","internalType":"uint256"}],"stateMutability":"view"},{"type":"function","name":"nextKnowledgeId","inputs":[],"outputs":[{"name":"","type":"uint256","internalType":"uint256"}],"stateMutability":"view"},{"type":"function","name":"nextPurchaseId","inputs":[],"outputs":[{"name":"","type":"uint256","internalType":"uint256"}],"stateMutability":"view"},{"type":"function","name":"payoutReleased","inputs":[{"name":"","type":"uint256","internalType":"uint256"}],"outputs":[{"name":"","type":"bool","internalType":"bool"}],"stateMutability":"view"},{"type":"function","name":"purchaseDeliveryConfigSnapshot","inputs":[{"name":"","type":"uint256","internalType":"uint256"}],"outputs":[{"name":"","type":"bytes32","internalType":"bytes32"}],"stateMutability":"view"},{"type":"function","name":"purchaseDeliveryConfigURI","inputs":[{"name":"","type":"uint256","internalType":"uint256"}],"outputs":[{"name":"","type":"string","internalType":"string"}],"stateMutability":"view"},{"type":"function","name":"purchaseKnowledgeV2","inputs":[{"name":"knowledgeId","type":"uint256","internalType":"uint256"}],"outputs":[{"name":"purchaseId","type":"uint256","internalType":"uint256"}],"stateMutability":"nonpayable"},{"type":"function","name":"purchases","inputs":[{"name":"","type":"uint256","internalType":"uint256"}],"outputs":[{"name":"buyer","type":"address","internalType":"address"},{"name":"knowledgeId","type":"uint256","internalType":"uint256"},{"name":"paidAmount","type":"uint256","internalType":"uint256"},{"name":"purchasedAt","type":"uint256","internalType":"uint256"},{"name":"delivered","type":"bool","internalType":"bool"},{"name":"reviewed","type":"bool","internalType":"bool"}],"stateMutability":"view"},{"type":"function","name":"redeliveredAt","inputs":[{"name":"","type":"uint256","internalType":"uint256"}],"outputs":[{"name":"","type":"uint64","internalType":"uint64"}],"stateMutability":"view"},{"type":"function","name":"refundReleased","inputs":[{"name":"","type":"uint256","internalType":"uint256"}],"outputs":[{"name":"","type":"bool","internalType":"bool"}],"stateMutability":"view"},{"type":"function","name":"registry","inputs":[],"outputs":[{"name":"","type":"address","internalType":"contract AgentRegistry"}],"stateMutability":"view"},{"type":"function","name":"renounceRole","inputs":[{"name":"role","type":"bytes32","internalType":"bytes32"},{"name":"callerConfirmation","type":"address","internalType":"address"}],"outputs":[],"stateMutability":"nonpayable"},{"type":"function","name":"reopenSales","inputs":[{"name":"knowledgeId","type":"uint256","internalType":"uint256"}],"outputs":[],"stateMutability":"nonpayable"},{"type":"function","name":"reputationContract","inputs":[],"outputs":[{"name":"","type":"address","internalType":"address"}],"stateMutability":"view"},{"type":"function","name":"rescueApplied","inputs":[{"name":"","type":"uint256","internalType":"uint256"}],"outputs":[{"name":"","type":"bool","internalType":"bool"}],"stateMutability":"view"},{"type":"function","name":"revokeRole","inputs":[{"name":"role","type":"bytes32","internalType":"bytes32"},{"name":"account","type":"address","internalType":"address"}],"outputs":[],"stateMutability":"nonpayable"},{"type":"function","name":"salesOpen","inputs":[{"name":"","type":"uint256","internalType":"uint256"}],"outputs":[{"name":"","type":"bool","internalType":"bool"}],"stateMutability":"view"},{"type":"function","name":"setSaleLimit","inputs":[{"name":"knowledgeId","type":"uint256","internalType":"uint256"},{"name":"maxSales","type":"uint256","internalType":"uint256"}],"outputs":[],"stateMutability":"nonpayable"},{"type":"function","name":"stopSales","inputs":[{"name":"knowledgeId","type":"uint256","internalType":"uint256"}],"outputs":[],"stateMutability":"nonpayable"},{"type":"function","name":"supportsInterface","inputs":[{"name":"interfaceId","type":"bytes4","internalType":"bytes4"}],"outputs":[{"name":"","type":"bool","internalType":"bool"}],"stateMutability":"view"},{"type":"function","name":"tempoReward","inputs":[],"outputs":[{"name":"","type":"address","internalType":"contract TempoReward"}],"stateMutability":"view"},{"type":"function","name":"trustedForwarder","inputs":[],"outputs":[{"name":"","type":"address","internalType":"address"}],"stateMutability":"view"},{"type":"function","name":"v2Module","inputs":[],"outputs":[{"name":"","type":"address","internalType":"address"}],"stateMutability":"view"},{"type":"function","name":"wrappedKeyHashByPurchase","inputs":[{"name":"","type":"uint256","internalType":"uint256"}],"outputs":[{"name":"","type":"bytes32","internalType":"bytes32"}],"stateMutability":"view"},{"type":"event","name":"AutoReviewApplied","inputs":[{"name":"purchaseId","type":"uint256","indexed":true,"internalType":"uint256"}],"anonymous":false},{"type":"event","name":"BuyerBondForfeited","inputs":[{"name":"purchaseId","type":"uint256","indexed":true,"internalType":"uint256"},{"name":"amount","type":"uint256","indexed":false,"internalType":"uint256"}],"anonymous":false},{"type":"event","name":"DebtDeducted","inputs":[{"name":"seller","type":"address","indexed":true,"internalType":"address"},{"name":"amount","type":"uint256","indexed":false,"internalType":"uint256"}],"anonymous":false},{"type":"event","name":"DeliveryAccepted","inputs":[{"name":"purchaseId","type":"uint256","indexed":true,"internalType":"uint256"},{"name":"buyer","type":"address","indexed":true,"internalType":"address"}],"anonymous":false},{"type":"event","name":"DeliveryChallenged","inputs":[{"name":"purchaseId","type":"uint256","indexed":true,"internalType":"uint256"},{"name":"buyer","type":"address","indexed":true,"internalType":"address"},{"name":"objective","type":"bool","indexed":false,"internalType":"bool"},{"name":"reasonCode","type":"uint8","indexed":false,"internalType":"uint8"},{"name":"evidenceHash","type":"bytes32","indexed":false,"internalType":"bytes32"}],"anonymous":false},{"type":"event","name":"DeliveryCleanFinalized","inputs":[{"name":"purchaseId","type":"uint256","indexed":true,"internalType":"uint256"},{"name":"buyerBondForfeited","type":"bool","indexed":false,"internalType":"bool"}],"anonymous":false},{"type":"event","name":"DeliveryInvalidFinalized","inputs":[{"name":"purchaseId","type":"uint256","indexed":true,"internalType":"uint256"},{"name":"reasonCode","type":"uint8","indexed":false,"internalType":"uint8"}],"anonymous":false},{"type":"event","name":"DeliveryUndeliveredFinalized","inputs":[{"name":"purchaseId","type":"uint256","indexed":true,"internalType":"uint256"}],"anonymous":false},{"type":"event","name":"EncryptedKeyDelivered","inputs":[{"name":"purchaseId","type":"uint256","indexed":true,"internalType":"uint256"},{"name":"seller","type":"address","indexed":true,"internalType":"address"},{"name":"wrappedKeyHash","type":"bytes32","indexed":false,"internalType":"bytes32"},{"name":"attempt","type":"uint8","indexed":false,"internalType":"uint8"}],"anonymous":false},{"type":"event","name":"EncryptedKeyRedelivered","inputs":[{"name":"purchaseId","type":"uint256","indexed":true,"internalType":"uint256"},{"name":"seller","type":"address","indexed":true,"internalType":"address"},{"name":"wrappedKeyHash","type":"bytes32","indexed":false,"internalType":"bytes32"},{"name":"attempt","type":"uint8","indexed":false,"internalType":"uint8"}],"anonymous":false},{"type":"event","name":"Initialized","inputs":[{"name":"version","type":"uint64","indexed":false,"internalType":"uint64"}],"anonymous":false},{"type":"event","name":"KnowledgeDeactivated","inputs":[{"name":"id","type":"uint256","indexed":true,"internalType":"uint256"}],"anonymous":false},{"type":"event","name":"KnowledgeDelivered","inputs":[{"name":"purchaseId","type":"uint256","indexed":true,"internalType":"uint256"},{"name":"seller","type":"address","indexed":true,"internalType":"address"}],"anonymous":false},{"type":"event","name":"KnowledgeListed","inputs":[{"name":"id","type":"uint256","indexed":true,"internalType":"uint256"},{"name":"seller","type":"address","indexed":true,"internalType":"address"},{"name":"title","type":"string","indexed":false,"internalType":"string"},{"name":"price","type":"uint256","indexed":false,"internalType":"uint256"},{"name":"tags","type":"string","indexed":false,"internalType":"string"}],"anonymous":false},{"type":"event","name":"KnowledgeListedV2","inputs":[{"name":"knowledgeId","type":"uint256","indexed":true,"internalType":"uint256"},{"name":"seller","type":"address","indexed":true,"internalType":"address"},{"name":"mode","type":"uint8","indexed":false,"internalType":"uint8"},{"name":"price","type":"uint256","indexed":false,"internalType":"uint256"}],"anonymous":false},{"type":"event","name":"KnowledgePurchased","inputs":[{"name":"purchaseId","type":"uint256","indexed":true,"internalType":"uint256"},{"name":"knowledgeId","type":"uint256","indexed":true,"internalType":"uint256"},{"name":"buyer","type":"address","indexed":true,"internalType":"address"},{"name":"price","type":"uint256","indexed":false,"internalType":"uint256"}],"anonymous":false},{"type":"event","name":"KnowledgeReviewed","inputs":[{"name":"purchaseId","type":"uint256","indexed":true,"internalType":"uint256"},{"name":"productScore","type":"uint256","indexed":false,"internalType":"uint256"},{"name":"sellerScore","type":"uint256","indexed":false,"internalType":"uint256"}],"anonymous":false},{"type":"event","name":"KnowledgeSaleLimitSet","inputs":[{"name":"knowledgeId","type":"uint256","indexed":true,"internalType":"uint256"},{"name":"maxSales","type":"uint256","indexed":false,"internalType":"uint256"}],"anonymous":false},{"type":"event","name":"KnowledgeSalesReopened","inputs":[{"name":"knowledgeId","type":"uint256","indexed":true,"internalType":"uint256"},{"name":"operator","type":"address","indexed":true,"internalType":"address"}],"anonymous":false},{"type":"event","name":"KnowledgeSalesStopped","inputs":[{"name":"knowledgeId","type":"uint256","indexed":true,"internalType":"uint256"},{"name":"operator","type":"address","indexed":true,"internalType":"address"}],"anonymous":false},{"type":"event","name":"PrivateKnowledgePurchased","inputs":[{"name":"purchaseId","type":"uint256","indexed":true,"internalType":"uint256"},{"name":"knowledgeId","type":"uint256","indexed":true,"internalType":"uint256"},{"name":"buyer","type":"address","indexed":true,"internalType":"address"},{"name":"buyerBond","type":"uint256","indexed":false,"internalType":"uint256"}],"anonymous":false},{"type":"event","name":"PrivatePurchaseRescued","inputs":[{"name":"purchaseId","type":"uint256","indexed":true,"internalType":"uint256"},{"name":"knowledgeId","type":"uint256","indexed":true,"internalType":"uint256"},{"name":"buyer","type":"address","indexed":true,"internalType":"address"},{"name":"refundAmount","type":"uint256","indexed":false,"internalType":"uint256"},{"name":"bondRefundAmount","type":"uint256","indexed":false,"internalType":"uint256"},{"name":"reason","type":"uint8","indexed":false,"internalType":"uint8"}],"anonymous":false},{"type":"event","name":"QualifiedMerchantCreditApplied","inputs":[{"name":"purchaseId","type":"uint256","indexed":true,"internalType":"uint256"},{"name":"seller","type":"address","indexed":true,"internalType":"address"},{"name":"buyer","type":"address","indexed":true,"internalType":"address"},{"name":"sellerScore","type":"uint256","indexed":false,"internalType":"uint256"},{"name":"tempoCredited","type":"bool","indexed":false,"internalType":"bool"}],"anonymous":false},{"type":"event","name":"RoleAdminChanged","inputs":[{"name":"role","type":"bytes32","indexed":true,"internalType":"bytes32"},{"name":"previousAdminRole","type":"bytes32","indexed":true,"internalType":"bytes32"},{"name":"newAdminRole","type":"bytes32","indexed":true,"internalType":"bytes32"}],"anonymous":false},{"type":"event","name":"RoleGranted","inputs":[{"name":"role","type":"bytes32","indexed":true,"internalType":"bytes32"},{"name":"account","type":"address","indexed":true,"internalType":"address"},{"name":"sender","type":"address","indexed":true,"internalType":"address"}],"anonymous":false},{"type":"event","name":"RoleRevoked","inputs":[{"name":"role","type":"bytes32","indexed":true,"internalType":"bytes32"},{"name":"account","type":"address","indexed":true,"internalType":"address"},{"name":"sender","type":"address","indexed":true,"internalType":"address"}],"anonymous":false},{"type":"event","name":"StakeSlashed","inputs":[{"name":"knowledgeId","type":"uint256","indexed":true,"internalType":"uint256"},{"name":"seller","type":"address","indexed":true,"internalType":"address"},{"name":"slashedAmount","type":"uint256","indexed":false,"internalType":"uint256"}],"anonymous":false},{"type":"error","name":"AccessControlBadConfirmation","inputs":[]},{"type":"error","name":"AccessControlUnauthorizedAccount","inputs":[{"name":"account","type":"address","internalType":"address"},{"name":"neededRole","type":"bytes32","internalType":"bytes32"}]},{"type":"error","name":"InvalidInitialization","inputs":[]},{"type":"error","name":"NotInitializing","inputs":[]}],"bytecode":{"object":"0x60a0346200007e57601f62004e4038819003918201601f19168301916001600160401b0383118484101762000082578084926020946040528339810103126200007e57516001600160a01b03811681036200007e57608052604051614da99081620000978239608051818181613108015281816132b50152614ca60152f35b5f80fd5b634e487b7160e01b5f52604160045260245ffdfe6080806040526004361015610012575f80fd5b5f905f3560e01c90816301c11d96146145555750806301ffc9a7146144ff57806302768de4146144c557806302b9bc631461449b578063073080c71461446c5780630ab254af146138a55780630e327030146138885780630fc184541461386c5780631018c5f9146137845780631479b25e1461369b57806316b5219e1461367e5780631a337c961461357d5780631f1755941461354e5780632128a4bc1461352457806323b4a7a314613507578063248a9ca3146134ce578063262737cd1461349f5780632be67c4f146134845780632c1271c3146134695780632e1371bd146134695780632f2ff15d14613420578063310f13711461340357806336568abe146133b057806339d006cb146133885780633b0ecb611461335e57806346904840146133365780634a0449321461330357806355a5f255146132da578063572b6c0514613285578063575660c21461325d5780635f7668ce1461322e57806361c2649e146132135780637021f1a3146131e457806375e1cf24146131b557806377c50e9d14613186578063790213101461315f5780637b103999146131375780637da0a877146130f35780637e92b854146130bd5780638392fe311461304d57806387bc1425146130255780638c5b229314612ff85780639172291214612f2a57806391d1485414612ed5578063927f9c9914612ea257806393407b1f14612e8557806399dc865414612e4f5780639c98676414612e34578063a217fddf14612e1a578063a4ede5eb1461030a578063a8ad0daa14612deb578063ac8919c914612dc1578063ad9f20a614612d9f578063b7a17a9d146121b2578063c1d6c9411461212d578063cdec2cd1146120eb578063d11ac988146120b8578063d468fec61461135e578063d547741f14611310578063eaf98d23146112f4578063f5c0b48c146112ca578063f665986e1461030f578063f6e8913d1461030a5763fece90f5146102de575f80fd5b346103075760203660031901126103075760406020916004358152601183522054604051908152f35b80fd5b614761565b503461030757610100366003190112610307576004356001600160401b0381116112c657610341903690600401614577565b6024356001600160401b0381116112c257610360903690600401614577565b93906064356001600160401b0381116112be57610381903690600401614577565b919092608435906001600160401b03821161030757506103a5903690600401614577565b9490966103b560a435151561477c565b600154926103c1614c7b565b60405163c3c5a54760e01b81526001600160a01b039182166004820152906020908290602490829089165afa8015610afe575f90611283575b6104049150614889565b61040c614c7b565b604051635a2d572960e11b81526001600160a01b039182166004820152906020908290602490829089165afa908115610afe575f91611244575b5060ff60019116106112115761045a614c7b565b60405163fb3551ff60e01b81526001600160a01b039182166004820152905f908290602490829089165afa8015610afe575f90611113575b60e0915001516110d7576003831015806110cc575b1561109657670de0b6b3a7640000604435101580611080575b15611049578415611010578615610fd35760c4355f52600960205260ff60405f205416610f96575f936104f660e43515156147fd565b6020610500614c7b565b60405163dbbd81b960e01b81526001600160a01b0391821660048201529283916024918391165afa908115610afe575f91610f5c575b5015610f17576003546001600160a01b031680610e8d575b50601460443502916044358304601414604435151715610e7957678ac7230489e800006064840410610e3d575f546001600160a01b031661058d614c7b565b6040516370a0823160e01b81526001600160a01b039091166004820152602081602481855afa908115610afe575f91610e0b575b506064850411610dcd5760206106155f926105da614c7b565b6040516323b872dd60e01b81526001600160a01b03909116600482015230602482015260648089046044830152909485938492839190820190565b03925af18015610afe57610d94575b506001546001600160a01b0316610639614c7b565b813b15610b09576040516331ba14cf60e11b81526001600160a01b039091166004820152606485046024820152905f908290604490829084905af18015610afe57610d76575b50606492916106e89160c4358752600960205260408720600160ff198254161790556106dc6004549b6106b18d6149b3565b6004556106bc614c7b565b97604051986106ca8a61460b565b6001600160a01b0316895236916149cf565b602087015236916149cf565b6040840152604435606084015261070036888b6149cf565b608084015260c43560a08401520460c0820152600160e08201524261010082015281610120820152816101408201528582526005602052604082209060018060a01b038151166001600160601b0360a01b83541617825560208101518051906001600160401b038211610c86576107878261077e60018701546145a4565b60018701614964565b602090601f8311600114610d08576107b69291869183610c09575b50508160011b915f199060031b1c19161790565b60018301555b60408101518051906001600160401b038211610c86576107ec826107e360028701546145a4565b60028701614964565b602090601f8311600114610c9a5761081a9291869183610c095750508160011b915f199060031b1c19161790565b60028301555b6060810151600383015560808101518051906001600160401b038211610c865761085a8261085160048701546145a4565b60048701614964565b602090601f8311600114610c14578261014093600a959361088f938992610c095750508160011b915f199060031b1c19161790565b60048501555b60a0810151600585015560c081015160068501556108c860e08201511515600786019060ff801983541691151516179055565b610100810151600885015561012081015160098501550151910155848152600b602052806040812091610bf55750600260ff19825416179055835f52601f60205260405f20600160ff198254161790556020805260e43560405f2055600c60205260405f20916001600160401b038211610b7a576109508261094a85546145a4565b85614964565b5f90601f8311600114610b8e5761097d92915f9183610b0d5750508160011b915f199060031b1c19161790565b90555b815f52600d60205260405f20906001600160401b038111610b7a576109af816109a984546145a4565b84614964565b5f601f8211600114610b185781906109dd9394955f92610b0d5750508160011b915f199060031b1c19161790565b90555b5f818152600e6020526040902060a43590556001546001600160a01b031690610a07614c7b565b915f92604051610a1681614627565b600f81526e3634b9ba2fb83934bb30ba32afbb1960891b6020820152823b15610b0957610a71925f9283604051809681958294633111036160e11b845260018060a01b03166004840152604060248401526044830190614726565b03925af18015610afe57610aeb575b5081610a8a614c7b565b90610ad75760209250817f7113fcd865eb94ce44d32a368d8f471b51903552b5f39a5ac85c37d85b27cb6f6040805193600285526044358786015260018060a01b031693a3604051908152f35b634e487b7160e01b83526021600452602483fd5b610af69192506145dc565b5f905f610a80565b6040513d5f823e3d90fd5b5f80fd5b013590505f806107a2565b601f19821694835f5260205f20915f5b878110610b62575083600195969710610b49575b505050811b0190556109e0565b01355f19600384901b60f8161c191690555f8080610b3c565b90926020600181928686013581550194019101610b28565b634e487b7160e01b5f52604160045260245ffd5b835f9392935260205f20905f935b601f1984168510610bdd576001945083601f19811610610bc4575b505050811b019055610980565b01355f19600384901b60f8161c191690555f8080610bb7565b81810135835560209485019460019093019201610b9c565b634e487b7160e01b81526021600452602490fd5b015190505f806107a2565b906004850186526020862091865b601f1985168110610c6e575092600a94926001926101409583601f19811610610c56575b505050811b016004850155610895565b01515f1960f88460031b161c191690555f8080610c46565b91926020600181928685015181550194019201610c22565b634e487b7160e01b85526041600452602485fd5b9190600285018652602086209086935b601f1984168510610ced576001945083601f19811610610cd5575b505050811b016002830155610820565b01515f1960f88460031b161c191690555f8080610cc5565b81810151835560209485019460019093019290910190610caa565b9190600185018652602086209086935b601f1984168510610d5b576001945083601f19811610610d43575b505050811b0160018301556107bc565b01515f1960f88460031b161c191690555f8080610d33565b81810151835560209485019460019093019290910190610d18565b6106e891955091610d89606494936145dc565b5f959150919261067f565b6020813d602011610dc5575b81610dad60209383614642565b81010312610b0957610dbe9061487c565b505f610624565b3d9150610da0565b60405162461bcd60e51b81526020600482015260166024820152754b533a20696e73756666696369656e74207374616b6560501b6044820152606490fd5b90506020813d602011610e35575b81610e2660209383614642565b81010312610b0957515f6105c1565b3d9150610e19565b60405162461bcd60e51b815260206004820152601460248201527312d4ce881b5a5b881cdd185ad9480c4c0810d2d560621b6044820152606490fd5b634e487b7160e01b5f52601160045260245ffd5b6020610e97614c7b565b60405163d386df2360e01b81526001600160a01b03909116600482015291829060249082905afa8015610afe575f90610edc575b610ed69150156148ca565b5f61054e565b506020813d602011610f0f575b81610ef660209383614642565b81010312610b0957610f0a610ed69161487c565b610ecb565b3d9150610ee9565b60405162461bcd60e51b815260206004820152601e60248201527f4b533a2073656c6c65722062617365207374616b6520726571756972656400006044820152606490fd5b90506020813d602011610f8e575b81610f7760209383614642565b81010312610b0957610f889061487c565b5f610536565b3d9150610f6a565b60405162461bcd60e51b815260206004820152601560248201527412d4ce88191d5c1b1a58d85d194818dbdb9d195b9d605a1b6044820152606490fd5b60405162461bcd60e51b81526020600482015260156024820152744b533a20656d70747920636f6e74656e742075726960581b6044820152606490fd5b60405162461bcd60e51b81526020600482015260116024820152704b533a20656d707479207072657669657760781b6044820152606490fd5b60405162461bcd60e51b815260206004820152600f60248201526e4b533a2070726963652072616e676560881b6044820152606490fd5b5069d3c21bcecceda100000060443511156104c0565b60405162461bcd60e51b815260206004820152600e60248201526d12d4ce881d1a5d1b19480ccb4d8d60921b6044820152606490fd5b5060408311156104a7565b60405162461bcd60e51b815260206004820152601460248201527312d4ce8818db19585c881919589d08199a5c9cdd60621b6044820152606490fd5b503d805f833e6111238183614642565b810190602081830312610b09578051906001600160401b038211610b0957019061012082820312610b09576040519061115b826145ef565b82516001600160401b038111610b09578161117791850161491f565b82526020830151906001600160401b038211610b095761119891840161491f565b60208201526040820151916001600160a01b0383168303610b09576101006112069160e09460408501526111ce606082016149c1565b60608501526080810151608085015260a081015160a085015260c081015160c08501526111fc85820161487c565b858501520161487c565b610100820152610492565b60405162461bcd60e51b815260206004820152600b60248201526a4b533a207469657220312b60a81b6044820152606490fd5b90506020813d60201161127b575b8161125f60209383614642565b81010312610b095760ff6112746001926149c1565b9150610446565b3d9150611252565b506020813d6020116112b6575b8161129d60209383614642565b81010312610b09576112b16104049161487c565b6103fa565b3d9150611290565b8280fd5b8380fd5b5080fd5b50346103075760203660031901126103075760406020916004358152601983522054604051908152f35b5034610307578060031936011261030757602060405160058152f35b50346103075760403660031901126103075761135a60043561133061474b565b908084525f80516020614d548339815191526020526113556001604086200154614aab565b614ba0565b5080f35b5034610b09576020366003190112610b09576004355f52600560205260405f20600b60205260ff60405f2054169160038310159182611e4d576001841480156120ab575b1561206f576113b760ff6007830154166147c0565b6004355f52601f60205260ff60405f20541615612037576004355f526020805260405f205480612022575b506001546001600160a01b0316916113f8614c7b565b60405163c3c5a54760e01b81526001600160a01b039091166004820152602081602481875afa8015610afe575f90611fe7575b6114359150614889565b61143d614c7b565b82546001600160a01b03918216911614611fae57611459614c7b565b604051631f1da14d60e11b81526001600160a01b039091166004820152602081602481875afa908115610afe575f91611f74575b5015611f24576003546001600160a01b031680611e9a575b506114ae614c7b565b936040519460208601906001600160601b03199060601b16815260043560348701526034865260608601908682106001600160401b03831117610b7a57816040528651902095865f52600860205260405f2054611e615750505f9360065491600183018311610e7957611e4d5760028714611b9b575b50506003820154938460021b948015818704600414811715610e79578180046001141715610e7957611565606482046115606064890484614c6e565b614c6e565b958582018211610e79575f546001600160a01b0316611582614c7b565b6040516370a0823160e01b81526001600160a01b039091166004820152602081602481855afa908115610afe575f91611b69575b5087840111611b2d5760206116095f926115ce614c7b565b6040516323b872dd60e01b81526001600160a01b03909116600482015230602482015260648087046044830152909485938492839190820190565b03925af18015610afe57611af4575b505f546001600160a01b031690813b15610b0957606460245f92836040519586948593630852cd8d60e31b85520460048401525af18015610afe57611ae1575b5082546001600160a01b031690602090611670614c7b565b6002546040516323b872dd60e01b81526001600160a01b03928316600482015291166024820152606491829004604482015292839190829087905af18015611a6457611aa8575b5081546117119060209087906001600160a01b03166116d4614c7b565b6040516323b872dd60e01b81526001600160a01b039091166004820152306024820152604481019290925290928391908290879082906064820190565b03925af18015611a6457611a6f575b50836119fa575b6117326006546149b3565b948560065561173f614c7b565b604051908160c08101106001600160401b0360c084011117610b7a5760c0820160405260018060a01b031681526117e960046020830192813584526040810194855260608101428152608082019588875260a08301958987528c8a52600760205260408a209360018060a01b039051166001600160601b0360a01b8554161784555160018401555160028301555160038201550192511515839060ff801983541691151516179055565b51815461ff00191690151560081b61ff0016179055600286146119d3575b815260086020528360408220556009820161182281546149b3565b9055600a820161183281546149b3565b90556001546001600160a01b0316611848614c7b565b813b156112be57604051630a3be34960e01b81526001600160a01b0390911660048201529082908290602490829084905af180156119b4579082916119bf575b50506001546001600160a01b031661189e614c7b565b813b156112be5760408051633111036160e11b81526001600160a01b0390921660048301526024820152600b60448201526a383ab931b430b9b2afbb1960a91b60648201529082908290608490829084905af180156119b4576119a0575b50506002602094145f1461195457506001600160a01b0361191b614c7b565b1690604051908152827f7a41cc87a8fa6c568be198d7351cfa41f668dd04937d963b6fecc8a9be180d2e8560043593a45b604051908152f35b90506003611960614c7b565b9101549060405191825260018060a01b031690827fb1388757ab12142ef905a9b301dcdd81dd63ec6232a8fa5c48447495aee44fcc8560043593a461194c565b6119aa82916145dc565b61030757806118fc565b6040513d84823e3d90fd5b6119c8906145dc565b61030757805f611888565b8482526019602052836040832055601360205260408220600160ff19825416179055611807565b8154611a169060209086906001600160a01b03166116d4614c7b565b03925af18015611a6457611a2b575b50611727565b6020813d602011611a5c575b81611a4460209383614642565b810103126112be57611a559061487c565b505f611a25565b3d9150611a37565b6040513d85823e3d90fd5b6020813d602011611aa0575b81611a8860209383614642565b810103126112be57611a999061487c565b505f611720565b3d9150611a7b565b6020813d602011611ad9575b81611ac160209383614642565b810103126112be57611ad29061487c565b505f6116b7565b3d9150611ab4565b611aec9193506145dc565b5f915f611658565b6020813d602011611b25575b81611b0d60209383614642565b81010312610b0957611b1e9061487c565b505f611618565b3d9150611b00565b60405162461bcd60e51b815260206004820152601460248201527312d4ce881a5b9cdd59999a58da595b9d0810d2d560621b6044820152606490fd5b90506020813d602011611b93575b81611b8460209383614642565b81010312610b0957515f6115b6565b3d9150611b77565b909193505f611ba8614c7b565b60405163d4509d7960e01b81526001600160a01b03909116600482015291829060249082905afa918215610afe575f915f93611e06575b508115611dc157825115611d7d57611c16604051611bfc81614627565b6007815266697066733a2f2f60c81b602082015284614cf9565b8015611d4d575b15611d08576001015f52600f60205260405f2055602160205260405f20908051906001600160401b038211610b7a57611c5a8261094a85546145a4565b602090601f8311600114611ca057611c8892915f9183610c095750508160011b915f199060031b1c19161790565b90555b611c986003820154614c2b565b915f80611524565b9190835f5260205f20905f935b601f1984168510611ced576001945083601f19811610611cd5575b505050811b019055611c8b565b01515f1960f88460031b161c191690555f8080611cc8565b81810151835560209485019460019093019290910190611cad565b60405162461bcd60e51b815260206004820152601f60248201527f4b533a20696e76616c69642064656c697665727920636f6e66696720555249006044820152606490fd5b50611d78604051611d5d81614627565b600881526768747470733a2f2f60c01b602082015284614cf9565b611c1d565b606460405162461bcd60e51b815260206004820152602060248201527f4b533a2064656c697665727920636f6e666967205552492072657175697265646044820152fd5b60405162461bcd60e51b815260206004820152601c60248201527f4b533a2064656c697665727920636f6e666967207265717569726564000000006044820152606490fd5b915091503d805f833e611e198183614642565b810190604081830312610b095780519160208201516001600160401b038111610b0957611e46920161491f565b915f611bdf565b634e487b7160e01b5f52602160045260245ffd5b907412d4ce88185b1c9958591e481c1d5c98da185cd959605a1b60a460649362461bcd60e51b8452602085820152601560848201520152fd5b6020611ea4614c7b565b60405163d386df2360e01b81526001600160a01b03909116600482015291829060249082905afa8015610afe575f90611ee9575b611ee39150156148ca565b5f6114a5565b506020813d602011611f1c575b81611f0360209383614642565b81010312610b0957611f17611ee39161487c565b611ed8565b3d9150611ef6565b60405162461bcd60e51b815260206004820152602260248201527f4b533a207265766965772070656e64696e6720707572636861736573206669726044820152611cdd60f21b6064820152608490fd5b90506020813d602011611fa6575b81611f8f60209383614642565b81010312610b0957611fa09061487c565b5f61148d565b3d9150611f82565b60405162461bcd60e51b81526020600482015260116024820152704b533a2073656c662d707572636861736560781b6044820152606490fd5b506020813d60201161201a575b8161200160209383614642565b81010312610b09576120156114359161487c565b61142b565b3d9150611ff4565b61203190600983015410614841565b5f6113e2565b60405162461bcd60e51b815260206004820152601060248201526f12d4ce881cd85b195cc818db1bdcd95960821b6044820152606490fd5b60405162461bcd60e51b81526020600482015260146024820152734b533a206e6f74207632206b6e6f776c6564676560601b6044820152606490fd5b505f9250600284146113a2565b34610b09576020366003190112610b09576004355f52601460205260206001600160401b0360405f205416604051908152f35b34610b09576020366003190112610b09576004355f52602160205261212961211560405f20614663565b604051918291602083526020830190614726565b0390f35b34610b09576020366003190112610b0957600435805f52600560205261216560ff600760405f2061215d81614a05565b0154166147c0565b5f818152601f60205260409020805460ff191690556001600160a01b0361218a614c7b565b16907f6ceb2397d45abc760c63b6f5a2872f065d1aa77b56e892fc414712eb7185edd05f80a3005b34610b095760c0366003190112610b09576004356001600160401b038111610b09576121e2903690600401614577565b906024356001600160401b038111610b0957612202903690600401614577565b92906064356001600160401b038111610b0957612223903690600401614577565b9290946084356001600160401b038111610b0957612245903690600401614577565b6001546001600160a01b03169461225a614c7b565b60405163c3c5a54760e01b81526001600160a01b0390911660048201526020816024818a5afa8015610afe575f90612d64575b6122979150614889565b61229f614c7b565b604051635a2d572960e11b81526001600160a01b0390911660048201526020816024818a5afa908115610afe575f91612d25575b5060ff6001911610611211576122e7614c7b565b60405163fb3551ff60e01b81526001600160a01b0390911660048201525f816024818a5afa8015610afe575f90612c13575b60e0915001516110d757600385101580612c08575b1561109657670de0b6b3a7640000604435101580612bf2575b15611049578615611010578115610fd35760a4355f52600960205260ff60405f205416610f96575f95602061237a614c7b565b60405163dbbd81b960e01b81526001600160a01b03909116600482015291829060249082905afa908115610afe575f91612bb8575b5015610f17576003546001600160a01b031680612b2e575b50601460443502936044358504601414604435151715610e7957678ac7230489e800006064860410610e3d575f546001600160a01b0316612406614c7b565b6040516370a0823160e01b81526001600160a01b039091166004820152602081602481855afa908115610afe575f91612afc575b506064870411610dcd57602061249091612452614c7b565b6040516323b872dd60e01b81526001600160a01b0390911660048201523060248201526064808a046044830152909384929183915f91839190820190565b03925af18015610afe57612ac3575b506001546001600160a01b0316986124b5614c7b565b8a3b15610b09576040516331ba14cf60e11b81526001600160a01b039091166004820152606487046024820152995f908b90604490829084905af1998a15610afe576125359a612a97575b506064959492612580949261256061256c9360a4358c52600960205260408c20600160ff198254161790556004549d8e6149b3565b600455612540614c7b565b9a6040519b61254e8d61460b565b6001600160a01b03168c5236916149cf565b60208a015236916149cf565b6040870152604435606087015236916149cf565b608084015260a43560a08401520460c0820152600160e08201524261010082015281610120820152816101408201528382526005602052604082209060018060a01b038151166001600160601b0360a01b83541617825560208101518051906001600160401b038211610c86576125fe8261077e60018701546145a4565b602090601f8311600114612a295761262c92918691836129b05750508160011b915f199060031b1c19161790565b60018301555b60408101518051906001600160401b038211610c8657612659826107e360028701546145a4565b602090601f83116001146129bb5761268792918691836129b05750508160011b915f199060031b1c19161790565b60028301555b6060810151600383015560808101518051906001600160401b038211610c86576126be8261085160048701546145a4565b602090601f831160011461293e578261014093600a95936126f39389926129335750508160011b915f199060031b1c19161790565b60048501555b60a0810151600585015560c0810151600685015561272c60e08201511515600786019060ff801983541691151516179055565b610100810151600885015561012081015160098501550151910155828152600b602052806040812091610bf55750600160ff19825416179055815f52601f60205260405f20600160ff19825416179055602080525f6040812055600c60205260405f20906001600160401b038111610b7a576127ac816109a984546145a4565b5f601f82116001146128d15781906127da9394955f926128c65750508160011b915f199060031b1c19161790565b90555b6001546001600160a01b0316906127f2614c7b565b6040516127fe81614627565b600e81526d3634b9ba2fb83ab13634b1afbb1960911b6020820152833b15610b0957612858935f9283604051809781958294633111036160e11b845260018060a01b03166004840152604060248401526044830190614726565b03925af1918215610afe576020926128b7575b506001600160a01b0361287c614c7b565b16817f7113fcd865eb94ce44d32a368d8f471b51903552b5f39a5ac85c37d85b27cb6f604080516001815260443587820152a3604051908152f35b6128c0906145dc565b8261286b565b0135905085806107a2565b601f19821694835f5260205f20915f5b87811061291b575083600195969710612902575b505050811b0190556127dd565b01355f19600384901b60f8161c191690558480806128f5565b909260206001819286860135815501940191016128e1565b015190508b806107a2565b906004850186526020862091865b601f1985168110612998575092600a94926001926101409583601f19811610612980575b505050811b0160048501556126f9565b01515f1960f88460031b161c191690558a8080612970565b9192602060018192868501518155019401920161294c565b0151905089806107a2565b9190600285018652602086209086935b601f1984168510612a0e576001945083601f198116106129f6575b505050811b01600283015561268d565b01515f1960f88460031b161c191690558880806129e6565b818101518355602094850194600190930192909101906129cb565b9190600185018652602086209086935b601f1984168510612a7c576001945083601f19811610612a64575b505050811b016001830155612632565b01515f1960f88460031b161c19169055888080612a54565b81810151835560209485019460019093019290910190612a39565b61256c919850926125809492612ab060649897956145dc565b6125605f9a935050929450929495612500565b6020813d602011612af4575b81612adc60209383614642565b81010312610b0957612aed9061487c565b508a61249f565b3d9150612acf565b90506020813d602011612b26575b81612b1760209383614642565b81010312610b0957518c61243a565b3d9150612b0a565b6020612b38614c7b565b60405163d386df2360e01b81526001600160a01b03909116600482015291829060249082905afa8015610afe575f90612b7d575b612b779150156148ca565b896123c7565b506020813d602011612bb0575b81612b9760209383614642565b81010312610b0957612bab612b779161487c565b612b6c565b3d9150612b8a565b90506020813d602011612bea575b81612bd360209383614642565b81010312610b0957612be49061487c565b8a6123af565b3d9150612bc6565b5069d3c21bcecceda10000006044351115612347565b50604085111561232e565b503d805f833e612c238183614642565b6020828281010312610b095781516001600160401b038111610b09576101208184018385010312610b095760405191612c5b836145ef565b818401516001600160401b038111610b0957612c7e90828601908487010161491f565b8352602082850101516001600160401b038111610b0957612ca5918501908386010161491f565b6020830152828101604001516001600160a01b0381168103610b095760e093612d1c916040850152612cdb6060848301016149c1565b60608501528083016080818101519086015260a0808201519086015260c08082015190860152612d0c90860161487c565b848601526101009201820161487c565b90820152612319565b90506020813d602011612d5c575b81612d4060209383614642565b81010312610b095760ff612d556001926149c1565b91506122d3565b3d9150612d33565b506020813d602011612d97575b81612d7e60209383614642565b81010312610b0957612d926122979161487c565b61228d565b3d9150612d71565b34610b09575f366003190112610b09576020604051670de0b6b3a76400008152f35b34610b09576020366003190112610b09576004355f526008602052602060405f2054604051908152f35b34610b09576020366003190112610b09576004355f526018602052602060ff60405f2054166040519015158152f35b34610b09575f366003190112610b095760206040515f8152f35b34610b09575f366003190112610b0957602060405160048152f35b34610b09576020366003190112610b09576004355f52601360205260ff60405f2054166040516009821015611e4d576020918152f35b34610b09575f366003190112610b095760206040516203f4808152f35b34610b09576020366003190112610b09576004355f52601660205260206001600160401b0360405f205416604051908152f35b34610b09576040366003190112610b0957612eee61474b565b6004355f525f80516020614d5483398151915260205260405f209060018060a01b03165f52602052602060ff60405f2054166040519015158152f35b34610b0957602080600319360112610b095760043590815f52600b815260ff60405f2054166003811015611e4d57600203612fbf57612fa8915f52600c815260405f20600d8252612fb560405f2092600e8152612f94612f8e60405f205494614663565b94614663565b604051958695606087526060870190614726565b9185830390860152614726565b9060408301520390f35b6064906040519062461bcd60e51b82526004820152601260248201527125a99d103737ba10383934bb30ba32903b1960711b6044820152fd5b34610b09576020366003190112610b09576004355f526012602052602060ff60405f205416604051908152f35b34610b09575f366003190112610b09576003546040516001600160a01b039091168152602090f35b34610b09576020366003190112610b09576004355f52600760205260c060405f2060ff60018060a01b0382541691600181015490600281015460046003830154920154926040519586526020860152604085015260608401528181161515608084015260081c16151560a0820152f35b34610b09576020366003190112610b09576004355f52600b60205260ff60405f2054166040516003821015611e4d576020918152f35b34610b09575f366003190112610b09576040517f00000000000000000000000000000000000000000000000000000000000000006001600160a01b03168152602090f35b34610b09575f366003190112610b09576001546040516001600160a01b039091168152602090f35b34610b09575f366003190112610b09575f546040516001600160a01b039091168152602090f35b34610b09576020366003190112610b09576004355f52601d602052602060ff60405f2054166040519015158152f35b34610b09576020366003190112610b09576004355f526017602052602060ff60405f2054166040519015158152f35b34610b09576020366003190112610b09576004355f52601c602052602060ff60405f2054166040519015158152f35b34610b09575f366003190112610b0957602060405160148152f35b34610b09576020366003190112610b09576004355f526009602052602060ff60405f2054166040519015158152f35b34610b09575f366003190112610b0957601e546040516001600160a01b039091168152602090f35b34610b09576020366003190112610b09576004356001600160a01b0381811691829003610b0957602091604051917f000000000000000000000000000000000000000000000000000000000000000016148152f35b34610b09576020366003190112610b09576004355f5260208052602060405f2054604051908152f35b34610b09576020366003190112610b09576004355f52601560205260206001600160401b0360405f205416604051908152f35b34610b09575f366003190112610b09576002546040516001600160a01b039091168152602090f35b34610b09576020366003190112610b09576004355f52600f602052602060405f2054604051908152f35b34610b09575f366003190112610b0957600a546040516001600160a01b039091168152602090f35b34610b09576040366003190112610b09576133c961474b565b6001600160a01b03806133da614c7b565b16908216036133f1576133ef90600435614ba0565b005b60405163334bd91960e11b8152600490fd5b34610b09575f366003190112610b09576020600454604051908152f35b34610b09576040366003190112610b09576133ef60043561343f61474b565b90805f525f80516020614d54833981519152602052613464600160405f200154614aab565b614b0b565b34610b09575f366003190112610b0957602060405160018152f35b34610b09575f366003190112610b0957602060405160028152f35b34610b09576020366003190112610b09576004355f52601f602052602060ff60405f2054166040519015158152f35b34610b09576020366003190112610b09576004355f525f80516020614d548339815191526020526020600160405f200154604051908152f35b34610b09575f366003190112610b09576020600654604051908152f35b34610b09576020366003190112610b09576004355f52601b602052602060405f2054604051908152f35b34610b09576020366003190112610b09576004355f52601a602052602060ff60405f2054166040519015158152f35b34610b09576040366003190112610b0957600435602435815f526020906005825260405f206135ab81614a05565b6135bb60ff6007830154166147c0565b835f52600b835260ff60405f2054166003811015611e4d5760021461366e575b811590811561365f575b501561362357907f907ec6fda89cc876cfde46c1a8546ad3661037c31d626b98b723fb960b1c477f91835f528180528060405f2055604051908152a2005b60405162461bcd60e51b815260048101839052601460248201527312d4ce8818995b1bddc81cd85b195cd0dbdd5b9d60621b6044820152606490fd5b600991500154811015846135e5565b6136798215156147fd565b6135db565b34610b09575f366003190112610b09576020604051620151808152f35b34610b0957602080600319360112610b095760043590815f526005815260405f20906136c682614a05565b6136d660ff6007840154166147c0565b825f5280805260405f205491600b825260ff60405f205416906003821015611e4d57601f9360026137189314613774575b8015918215613766575b5050614841565b5f83815291905260409020805460ff191660011790556001600160a01b0361373e614c7b565b16907f5c376d64e843a13c1bc5d224e23caaa5b723b1db4f938b4adbcb43a8d7abefd95f80a3005b600901541090508580613711565b61377f8115156147fd565b613707565b34610b09576020366003190112610b09576004355f90815260056020526040902080546001600160a01b03166137bc60018301614663565b916137c960028201614663565b6003820154916137db60048201614663565b600582015493600683015461384460ff60078601541692600886015494613831600a6009890154980154986138236040519d8e9d8e6101609181528160208201520190614726565b8c810360408e015290614726565b9160608b015289820360808b0152614726565b9560a088015260c0870152151560e08601526101008501526101208401526101408301520390f35b34610b09575f366003190112610b095760206040516104008152f35b34610b09575f366003190112610b0957602060405162278d008152f35b34610b095760e0366003190112610b09576004356001600160401b038111610b09576138d5903690600401614577565b906024356001600160401b038111610b09576138f5903690600401614577565b92906064356001600160401b038111610b0957613916903690600401614577565b90916084356001600160401b038111610b0957613937903690600401614577565b94909661394760a435151561477c565b60015492613953614c7b565b60405163c3c5a54760e01b81526001600160a01b039182166004820152906020908290602490829089165afa8015610afe575f90614431575b6139969150614889565b61399e614c7b565b604051635a2d572960e11b81526001600160a01b039182166004820152906020908290602490829089165afa908115610afe575f916143f2575b5060ff6001911610611211576139ec614c7b565b60405163fb3551ff60e01b81526001600160a01b039182166004820152905f908290602490829089165afa8015610afe575f90614321575b60e0915001516110d757600383101580614316575b1561109657670de0b6b3a7640000604435101580614300575b15611049578415611010578615610fd35760c4355f52600960205260ff60405f205416610f96575f936020613a85614c7b565b60405163dbbd81b960e01b81526001600160a01b0391821660048201529283916024918391165afa908115610afe575f916142c6575b5015610f17576003546001600160a01b03168061423c575b50601460443502916044358304601414604435151715610e7957678ac7230489e800006064840410610e3d575f546001600160a01b0316613b12614c7b565b6040516370a0823160e01b81526001600160a01b039091166004820152602081602481855afa908115610afe575f9161420a575b506064850411610dcd576020613b5f5f926105da614c7b565b03925af18015610afe576141d1575b506001546001600160a01b0316613b83614c7b565b813b15610b09576040516331ba14cf60e11b81526001600160a01b039091166004820152606485046024820152905f908290604490829084905af18015610afe576141b3575b5060649291613bfb9160c4358752600960205260408720600160ff198254161790556106dc6004549b6106b18d6149b3565b60408401526044356060840152613c1336888b6149cf565b608084015260c43560a08401520460c0820152600160e08201524261010082015281610120820152816101408201528582526005602052604082209060018060a01b038151166001600160601b0360a01b83541617825560208101518051906001600160401b038211610c8657613c918261077e60018701546145a4565b602090601f831160011461414557613cbf92918691836129335750508160011b915f199060031b1c19161790565b60018301555b60408101518051906001600160401b038211610c8657613cec826107e360028701546145a4565b602090601f83116001146140d757613d1a92918691836129335750508160011b915f199060031b1c19161790565b60028301555b6060810151600383015560808101518051906001600160401b038211610c8657613d518261085160048701546145a4565b602090601f8311600114614065578261014093600a9593613d8693899261405a5750508160011b915f199060031b1c19161790565b60048501555b60a0810151600585015560c08101516006850155613dbf60e08201511515600786019060ff801983541691151516179055565b610100810151600885015561012081015160098501550151910155848152600b602052806040812091610bf55750600260ff19825416179055835f52601f60205260405f20600160ff1982541617905560208052600160405f2055600c60205260405f20916001600160401b038211610b7a57613e408261094a85546145a4565b5f90601f8311600114613ff357613e6d92915f9183613fe85750508160011b915f199060031b1c19161790565b90555b815f52600d60205260405f20906001600160401b038111610b7a57613e99816109a984546145a4565b5f601f8211600114613f86578190613ec79394955f926128c65750508160011b915f199060031b1c19161790565b90555b5f818152600e6020526040902060a43590556001546001600160a01b031690613ef1614c7b565b915f92604051613f0081614627565b600f81526e3634b9ba2fb83934bb30ba32afbb1960891b6020820152823b15610b0957613f5b925f9283604051809681958294633111036160e11b845260018060a01b03166004840152604060248401526044830190614726565b03925af18015610afe57613f73575081610a8a614c7b565b613f7e9192506145dc565b5f9082610a80565b601f19821694835f5260205f20915f5b878110613fd0575083600195969710613fb7575b505050811b019055613eca565b01355f19600384901b60f8161c19169055848080613faa565b90926020600181928686013581550194019101613f96565b0135905087806107a2565b835f9392935260205f20905f935b601f1984168510614042576001945083601f19811610614029575b505050811b019055613e70565b01355f19600384901b60f8161c1916905586808061401c565b81810135835560209485019460019093019201614001565b015190508d806107a2565b906004850186526020862091865b601f19851681106140bf575092600a94926001926101409583601f198116106140a7575b505050811b016004850155613d8c565b01515f1960f88460031b161c191690558c8080614097565b91926020600181928685015181550194019201614073565b9190600285018652602086209086935b601f198416851061412a576001945083601f19811610614112575b505050811b016002830155613d20565b01515f1960f88460031b161c191690558a8080614102565b818101518355602094850194600190930192909101906140e7565b9190600185018652602086209086935b601f1984168510614198576001945083601f19811610614180575b505050811b016001830155613cc5565b01515f1960f88460031b161c191690558a8080614170565b81810151835560209485019460019093019290910190614155565b613bfb919550916141c6606494936145dc565b5f9591509192613bc9565b6020813d602011614202575b816141ea60209383614642565b81010312610b09576141fb9061487c565b508a613b6e565b3d91506141dd565b90506020813d602011614234575b8161422560209383614642565b81010312610b0957518c613b46565b3d9150614218565b6020614246614c7b565b60405163d386df2360e01b81526001600160a01b03909116600482015291829060249082905afa8015610afe575f9061428b575b6142859150156148ca565b89613ad3565b506020813d6020116142be575b816142a560209383614642565b81010312610b09576142b96142859161487c565b61427a565b3d9150614298565b90506020813d6020116142f8575b816142e160209383614642565b81010312610b09576142f29061487c565b8a613abb565b3d91506142d4565b5069d3c21bcecceda10000006044351115613a52565b506040831115613a39565b503d805f833e6143318183614642565b6020828281010312610b095781516001600160401b038111610b09576101208184018385010312610b095760405191614369836145ef565b818401516001600160401b038111610b095761438c90828601908487010161491f565b8352602082850101516001600160401b038111610b09576143b3918501908386010161491f565b6020830152828101604001516001600160a01b0381168103610b095760e0936143e9916040850152612cdb6060848301016149c1565b90820152613a24565b90506020813d602011614429575b8161440d60209383614642565b81010312610b095760ff6144226001926149c1565b91506139d8565b3d9150614400565b506020813d602011614464575b8161444b60209383614642565b81010312610b095761445f6139969161487c565b61398c565b3d915061443e565b34610b09576020366003190112610b09576004355f526022602052602060ff60405f2054166040519015158152f35b34610b09576020366003190112610b09576004355f52600e602052602060405f2054604051908152f35b34610b09575f366003190112610b095760206040517fba279271fb7bbf76a6f3df3cc57bf80647fcafdea60ec3383d90f459de74e7c08152f35b34610b09576020366003190112610b095760043563ffffffff60e01b8116809103610b0957602090637965db0b60e01b8114908115614544575b506040519015158152f35b6301ffc9a760e01b14905082614539565b34610b09575f366003190112610b09578069d3c21bcecceda100000060209252f35b9181601f84011215610b09578235916001600160401b038311610b095760208381860195010111610b0957565b90600182811c921680156145d2575b60208310146145be57565b634e487b7160e01b5f52602260045260245ffd5b91607f16916145b3565b6001600160401b038111610b7a57604052565b61012081019081106001600160401b03821117610b7a57604052565b61016081019081106001600160401b03821117610b7a57604052565b604081019081106001600160401b03821117610b7a57604052565b90601f801991011681019081106001600160401b03821117610b7a57604052565b9060405191825f8254614675816145a4565b908184526020946001916001811690815f146146e357506001146146a5575b5050506146a392500383614642565b565b5f90815285812095935091905b8183106146cb5750506146a393508201015f8080614694565b855488840185015294850194879450918301916146b2565b925050506146a394925060ff191682840152151560051b8201015f8080614694565b5f5b8381106147165750505f910152565b8181015183820152602001614707565b9060209161473f81518092818552858086019101614705565b601f01601f1916010190565b602435906001600160a01b0382168203610b0957565b34610b09575f366003190112610b0957602060405160328152f35b1561478357565b60405162461bcd60e51b8152602060048201526015602482015274096a67440cadae0e8f240c6d2e0d0cae440d0c2e6d605b1b6044820152606490fd5b156147c757565b60405162461bcd60e51b815260206004820152600e60248201526d4b533a206e6f742061637469766560901b6044820152606490fd5b1561480457565b60405162461bcd60e51b815260206004820152601560248201527412d4ce881b585e14d85b195cc81c995c5d5a5c9959605a1b6044820152606490fd5b1561484857565b60405162461bcd60e51b815260206004820152600c60248201526b12d4ce881cdbdb19081bdd5d60a21b6044820152606490fd5b51908115158203610b0957565b1561489057565b60405162461bcd60e51b815260206004820152601260248201527112d4ce881b9bdd081c9959da5cdd195c995960721b6044820152606490fd5b156148d157565b60405162461bcd60e51b815260206004820152600b60248201526a4b533a2072657374696e6760a81b6044820152606490fd5b6001600160401b038111610b7a57601f01601f191660200190565b81601f82011215610b0957805161493581614904565b926149436040519485614642565b81845260208284010111610b09576149619160208085019101614705565b90565b601f821161497157505050565b5f5260205f20906020601f840160051c830193106149a9575b601f0160051c01905b81811061499e575050565b5f8155600101614993565b909150819061498a565b5f198114610e795760010190565b519060ff82168203610b0957565b9291926149db82614904565b916149e96040519384614642565b829481845281830111610b09578281602093845f960137010152565b614a0d614c7b565b90546001600160a01b0391821690821614908115614a6a575b5015614a2e57565b60405162461bcd60e51b815260206004820152601460248201527325a99d103737ba1039b2b63632b917b0b236b4b760611b6044820152606490fd5b9050614a74614c7b565b165f9081527fb7db2dd08fcb62d0c9e08c51941cae53c267786a0b75803fb7960902fc8ef97d602052604081205460ff1690614a26565b614ab3614c7b565b90805f525f80516020614d5483398151915260205260405f209160018060a01b031691825f5260205260ff60405f20541615614aed575050565b604492506040519163e2517d3f60e01b835260048301526024820152fd5b5f8181525f80516020614d54833981519152602081815260408084206001600160a01b039687168086529252909220549293919260ff16614b9857835f5260205260405f20825f5260205260405f20600160ff19825416179055614b6d614c7b565b16917f2f8788117e7eff1d82e926ec794901d17c78024a50270940304540a733656f0d5f80a4600190565b505050505f90565b5f8181525f80516020614d54833981519152602081815260408084206001600160a01b039687168086529252909220549293919260ff1615614b9857835f5260205260405f20825f5260205260405f2060ff198154169055614c00614c7b565b16917ff6391f5c32d9c69d2a47ea670b442974b53935d1edc7fd64eb21e047a839171b5f80a4600190565b600581029080820460051490151715610e79576103e89004670de0b6b3a7640000808210614c695750683635c9adc5dea00000808211614c69575090565b905090565b91908203918211610e7957565b601436101580614ca2575b15614c9e576013193601368111610b09573560601c90565b3390565b50337f00000000000000000000000000000000000000000000000000000000000000006001600160a01b031614614c86565b908151811015614ce5570160200190565b634e487b7160e01b5f52603260045260245ffd5b908151815111614d4d575f5b8151811015614d45576001600160f81b031980614d228386614cd4565b511690614d2f8385614cd4565b511603614d3e57600101614d05565b5050505f90565b505050600190565b50505f9056fe02dd7bc7dec4dceedda775e58dd541e08a116c6c53815c0bd028192f7b626800a264697066735822122053e19f7210a61aba807f2e9b1367d009e163a56b739c5e76a819c972af6824fa64736f6c63430008180033","linkReferences":{}},"methodIdentifiers":{"AUTO_REVIEW_PERIOD()":"0e327030","BURN_PERCENT()":"9c986764","BUYER_RESPONSE_DEADLINE()":"93407b1f","DEBT_DEDUCTION_PERCENT()":"a4ede5eb","DEFAULT_ADMIN_ROLE()":"a217fddf","DELIVERY_DEADLINE()":"16b5219e","FEE_PERCENT()":"eaf98d23","MAX_PRICE()":"01c11d96","MAX_WRAPPED_KEY_BYTES()":"0fc18454","MIN_PRICE()":"ad9f20a6","OBJECTIVE_REASON_EMPTY_WRAPPED_KEY()":"2c1271c3","OBJECTIVE_REASON_OVERSIZED_WRAPPED_KEY()":"2be67c4f","OWNER_PERCENT()":"2e1371bd","PROTOCOL_ROLE()":"02768de4","SLASH_PERCENT()":"f6e8913d","STAKE_PERCENT()":"61c2649e","buyerBondAmount(uint256)":"f5c0b48c","buyerBondForfeited(uint256)":"1f175594","buyerPurchases(bytes32)":"ac8919c9","challengedAt(uint256)":"4a044932","ciphertextHash(uint256)":"02b9bc63","ckt()":"79021310","contentHashExists(bytes32)":"5f7668ce","creditApplied(uint256)":"a8ad0daa","deliveredAt(uint256)":"d11ac988","deliveryAttemptCount(uint256)":"8c5b2293","deliveryState(uint256)":"99dc8654","explicitReviewSubmitted(uint256)":"75e1cf24","explicitSellerScoreByPurchase(uint256)":"2128a4bc","feeRecipient()":"46904840","getPrivateKnowledgeMeta(uint256)":"91722912","getRoleAdmin(bytes32)":"248a9ca3","grantRole(bytes32,address)":"2f2ff15d","hasRole(bytes32,address)":"91d14854","isTrustedForwarder(address)":"572b6c05","knowledgeItems(uint256)":"1018c5f9","knowledgeMode(uint256)":"7e92b854","listPrivateKnowledge(string,string,uint256,string,string,bytes32,bytes32)":"0ab254af","listPrivateKnowledgeWithLimit(string,string,uint256,string,string,bytes32,bytes32,uint256)":"f665986e","listPublicKnowledgeV2(string,string,uint256,string,string,bytes32)":"b7a17a9d","maxSalesByKnowledge(uint256)":"55a5f255","nextKnowledgeId()":"310f1371","nextPurchaseId()":"23b4a7a3","payoutReleased(uint256)":"7021f1a3","purchaseDeliveryConfigSnapshot(uint256)":"3b0ecb61","purchaseDeliveryConfigURI(uint256)":"cdec2cd1","purchaseKnowledgeV2(uint256)":"d468fec6","purchases(uint256)":"8392fe31","redeliveredAt(uint256)":"927f9c99","refundReleased(uint256)":"77c50e9d","registry()":"7b103999","renounceRole(bytes32,address)":"36568abe","reopenSales(uint256)":"1479b25e","reputationContract()":"87bc1425","rescueApplied(uint256)":"073080c7","revokeRole(bytes32,address)":"d547741f","salesOpen(uint256)":"262737cd","setSaleLimit(uint256,uint256)":"1a337c96","stopSales(uint256)":"c1d6c941","supportsInterface(bytes4)":"01ffc9a7","tempoReward()":"39d006cb","trustedForwarder()":"7da0a877","v2Module()":"575660c2","wrappedKeyHashByPurchase(uint256)":"fece90f5"},"id":56}