{"abi":[{"type":"constructor","inputs":[{"name":"trustedForwarder","type":"address","internalType":"address"}],"stateMutability":"nonpayable"},{"type":"function","name":"AUTO_REVIEW_PERIOD","inputs":[],"outputs":[{"name":"","type":"uint256","internalType":"uint256"}],"stateMutability":"view"},{"type":"function","name":"BURN_PERCENT","inputs":[],"outputs":[{"name":"","type":"uint256","internalType":"uint256"}],"stateMutability":"view"},{"type":"function","name":"DEBT_DEDUCTION_PERCENT","inputs":[],"outputs":[{"name":"","type":"uint256","internalType":"uint256"}],"stateMutability":"view"},{"type":"function","name":"DEFAULT_ADMIN_ROLE","inputs":[],"outputs":[{"name":"","type":"bytes32","internalType":"bytes32"}],"stateMutability":"view"},{"type":"function","name":"DELIVERY_DEADLINE","inputs":[],"outputs":[{"name":"","type":"uint256","internalType":"uint256"}],"stateMutability":"view"},{"type":"function","name":"FEE_PERCENT","inputs":[],"outputs":[{"name":"","type":"uint256","internalType":"uint256"}],"stateMutability":"view"},{"type":"function","name":"MAX_PRICE","inputs":[],"outputs":[{"name":"","type":"uint256","internalType":"uint256"}],"stateMutability":"view"},{"type":"function","name":"MIN_PRICE","inputs":[],"outputs":[{"name":"","type":"uint256","internalType":"uint256"}],"stateMutability":"view"},{"type":"function","name":"OWNER_PERCENT","inputs":[],"outputs":[{"name":"","type":"uint256","internalType":"uint256"}],"stateMutability":"view"},{"type":"function","name":"PROTOCOL_ROLE","inputs":[],"outputs":[{"name":"","type":"bytes32","internalType":"bytes32"}],"stateMutability":"view"},{"type":"function","name":"REFUND_REASON_INVALID_DELIVERY_CONFIG","inputs":[],"outputs":[{"name":"","type":"uint8","internalType":"uint8"}],"stateMutability":"view"},{"type":"function","name":"REFUND_REASON_SELLER_CANCELLED","inputs":[],"outputs":[{"name":"","type":"uint8","internalType":"uint8"}],"stateMutability":"view"},{"type":"function","name":"REFUND_REASON_STALE_OR_INCONSISTENT_BUYER_TX","inputs":[],"outputs":[{"name":"","type":"uint8","internalType":"uint8"}],"stateMutability":"view"},{"type":"function","name":"REFUND_REASON_UNSUPPORTED_BUYER_KEY","inputs":[],"outputs":[{"name":"","type":"uint8","internalType":"uint8"}],"stateMutability":"view"},{"type":"function","name":"SLASH_PERCENT","inputs":[],"outputs":[{"name":"","type":"uint256","internalType":"uint256"}],"stateMutability":"view"},{"type":"function","name":"STAKE_PERCENT","inputs":[],"outputs":[{"name":"","type":"uint256","internalType":"uint256"}],"stateMutability":"view"},{"type":"function","name":"UNDELIVERY_REP_PENALTY","inputs":[],"outputs":[{"name":"","type":"int256","internalType":"int256"}],"stateMutability":"view"},{"type":"function","name":"UPGRADE_INTERFACE_VERSION","inputs":[],"outputs":[{"name":"","type":"string","internalType":"string"}],"stateMutability":"view"},{"type":"function","name":"acceptDelivery","inputs":[{"name":"purchaseId","type":"uint256","internalType":"uint256"}],"outputs":[],"stateMutability":"nonpayable"},{"type":"function","name":"buyerBondAmount","inputs":[{"name":"","type":"uint256","internalType":"uint256"}],"outputs":[{"name":"","type":"uint256","internalType":"uint256"}],"stateMutability":"view"},{"type":"function","name":"buyerBondForfeited","inputs":[{"name":"","type":"uint256","internalType":"uint256"}],"outputs":[{"name":"","type":"bool","internalType":"bool"}],"stateMutability":"view"},{"type":"function","name":"buyerPurchases","inputs":[{"name":"","type":"bytes32","internalType":"bytes32"}],"outputs":[{"name":"","type":"uint256","internalType":"uint256"}],"stateMutability":"view"},{"type":"function","name":"buyerUndeliveredRefundReceivedCount","inputs":[{"name":"","type":"address","internalType":"address"}],"outputs":[{"name":"","type":"uint256","internalType":"uint256"}],"stateMutability":"view"},{"type":"function","name":"challengeDeliveryObjective","inputs":[{"name":"purchaseId","type":"uint256","internalType":"uint256"},{"name":"reasonCode","type":"uint8","internalType":"uint8"},{"name":"evidenceHash","type":"bytes32","internalType":"bytes32"}],"outputs":[],"stateMutability":"nonpayable"},{"type":"function","name":"challengeDeliverySubjective","inputs":[{"name":"purchaseId","type":"uint256","internalType":"uint256"},{"name":"evidenceHash","type":"bytes32","internalType":"bytes32"}],"outputs":[],"stateMutability":"nonpayable"},{"type":"function","name":"challengedAt","inputs":[{"name":"","type":"uint256","internalType":"uint256"}],"outputs":[{"name":"","type":"uint64","internalType":"uint64"}],"stateMutability":"view"},{"type":"function","name":"ciphertextHash","inputs":[{"name":"","type":"uint256","internalType":"uint256"}],"outputs":[{"name":"","type":"bytes32","internalType":"bytes32"}],"stateMutability":"view"},{"type":"function","name":"ckt","inputs":[],"outputs":[{"name":"","type":"address","internalType":"contract CKT"}],"stateMutability":"view"},{"type":"function","name":"claimUndelivered","inputs":[{"name":"purchaseId","type":"uint256","internalType":"uint256"}],"outputs":[],"stateMutability":"nonpayable"},{"type":"function","name":"contentHashExists","inputs":[{"name":"","type":"bytes32","internalType":"bytes32"}],"outputs":[{"name":"","type":"bool","internalType":"bool"}],"stateMutability":"view"},{"type":"function","name":"creditApplied","inputs":[{"name":"","type":"uint256","internalType":"uint256"}],"outputs":[{"name":"","type":"bool","internalType":"bool"}],"stateMutability":"view"},{"type":"function","name":"deactivate","inputs":[{"name":"knowledgeId","type":"uint256","internalType":"uint256"}],"outputs":[],"stateMutability":"nonpayable"},{"type":"function","name":"deliverEncryptedKey","inputs":[{"name":"purchaseId","type":"uint256","internalType":"uint256"},{"name":"wrappedKey","type":"bytes","internalType":"bytes"},{"name":"wrappedKeyHash","type":"bytes32","internalType":"bytes32"}],"outputs":[],"stateMutability":"nonpayable"},{"type":"function","name":"deliverKey","inputs":[{"name":"purchaseId","type":"uint256","internalType":"uint256"}],"outputs":[],"stateMutability":"nonpayable"},{"type":"function","name":"deliveredAt","inputs":[{"name":"","type":"uint256","internalType":"uint256"}],"outputs":[{"name":"","type":"uint64","internalType":"uint64"}],"stateMutability":"view"},{"type":"function","name":"deliveryAttemptCount","inputs":[{"name":"","type":"uint256","internalType":"uint256"}],"outputs":[{"name":"","type":"uint8","internalType":"uint8"}],"stateMutability":"view"},{"type":"function","name":"deliveryState","inputs":[{"name":"","type":"uint256","internalType":"uint256"}],"outputs":[{"name":"","type":"uint8","internalType":"enum KnowledgeStore.DeliveryState"}],"stateMutability":"view"},{"type":"function","name":"explicitReviewSubmitted","inputs":[{"name":"","type":"uint256","internalType":"uint256"}],"outputs":[{"name":"","type":"bool","internalType":"bool"}],"stateMutability":"view"},{"type":"function","name":"explicitSellerScoreByPurchase","inputs":[{"name":"","type":"uint256","internalType":"uint256"}],"outputs":[{"name":"","type":"uint256","internalType":"uint256"}],"stateMutability":"view"},{"type":"function","name":"feeRecipient","inputs":[],"outputs":[{"name":"","type":"address","internalType":"address"}],"stateMutability":"view"},{"type":"function","name":"finalizeCleanTimeout","inputs":[{"name":"purchaseId","type":"uint256","internalType":"uint256"}],"outputs":[],"stateMutability":"nonpayable"},{"type":"function","name":"finalizeUndelivered","inputs":[{"name":"purchaseId","type":"uint256","internalType":"uint256"}],"outputs":[],"stateMutability":"nonpayable"},{"type":"function","name":"forceDeactivateAndBurnStake","inputs":[{"name":"knowledgeId","type":"uint256","internalType":"uint256"}],"outputs":[],"stateMutability":"nonpayable"},{"type":"function","name":"getKnowledge","inputs":[{"name":"id","type":"uint256","internalType":"uint256"}],"outputs":[{"name":"","type":"tuple","internalType":"struct KnowledgeStore.Knowledge","components":[{"name":"seller","type":"address","internalType":"address"},{"name":"title","type":"string","internalType":"string"},{"name":"tags","type":"string","internalType":"string"},{"name":"price","type":"uint256","internalType":"uint256"},{"name":"ipfsCID","type":"string","internalType":"string"},{"name":"contentHash","type":"bytes32","internalType":"bytes32"},{"name":"stakeAmount","type":"uint256","internalType":"uint256"},{"name":"active","type":"bool","internalType":"bool"},{"name":"listedAt","type":"uint256","internalType":"uint256"},{"name":"salesCount","type":"uint256","internalType":"uint256"},{"name":"pendingDeliveries","type":"uint256","internalType":"uint256"}]}],"stateMutability":"view"},{"type":"function","name":"getPrivateKnowledgeMeta","inputs":[{"name":"knowledgeId","type":"uint256","internalType":"uint256"}],"outputs":[{"name":"previewURI","type":"string","internalType":"string"},{"name":"encryptedContentURI","type":"string","internalType":"string"},{"name":"encryptedContentHash","type":"bytes32","internalType":"bytes32"}],"stateMutability":"nonpayable"},{"type":"function","name":"getPurchase","inputs":[{"name":"id","type":"uint256","internalType":"uint256"}],"outputs":[{"name":"","type":"tuple","internalType":"struct KnowledgeStore.Purchase","components":[{"name":"buyer","type":"address","internalType":"address"},{"name":"knowledgeId","type":"uint256","internalType":"uint256"},{"name":"paidAmount","type":"uint256","internalType":"uint256"},{"name":"purchasedAt","type":"uint256","internalType":"uint256"},{"name":"delivered","type":"bool","internalType":"bool"},{"name":"reviewed","type":"bool","internalType":"bool"}]}],"stateMutability":"view"},{"type":"function","name":"getRoleAdmin","inputs":[{"name":"role","type":"bytes32","internalType":"bytes32"}],"outputs":[{"name":"","type":"bytes32","internalType":"bytes32"}],"stateMutability":"view"},{"type":"function","name":"getWrappedKey","inputs":[{"name":"purchaseId","type":"uint256","internalType":"uint256"}],"outputs":[{"name":"wrappedKey","type":"bytes","internalType":"bytes"},{"name":"wrappedKeyHash","type":"bytes32","internalType":"bytes32"}],"stateMutability":"view"},{"type":"function","name":"grantRole","inputs":[{"name":"role","type":"bytes32","internalType":"bytes32"},{"name":"account","type":"address","internalType":"address"}],"outputs":[],"stateMutability":"nonpayable"},{"type":"function","name":"hasRole","inputs":[{"name":"role","type":"bytes32","internalType":"bytes32"},{"name":"account","type":"address","internalType":"address"}],"outputs":[{"name":"","type":"bool","internalType":"bool"}],"stateMutability":"view"},{"type":"function","name":"initialize","inputs":[{"name":"_ckt","type":"address","internalType":"address"},{"name":"_registry","type":"address","internalType":"address"},{"name":"_feeRecipient","type":"address","internalType":"address"}],"outputs":[],"stateMutability":"nonpayable"},{"type":"function","name":"isTrustedForwarder","inputs":[{"name":"forwarder","type":"address","internalType":"address"}],"outputs":[{"name":"","type":"bool","internalType":"bool"}],"stateMutability":"view"},{"type":"function","name":"knowledgeItems","inputs":[{"name":"","type":"uint256","internalType":"uint256"}],"outputs":[{"name":"seller","type":"address","internalType":"address"},{"name":"title","type":"string","internalType":"string"},{"name":"tags","type":"string","internalType":"string"},{"name":"price","type":"uint256","internalType":"uint256"},{"name":"ipfsCID","type":"string","internalType":"string"},{"name":"contentHash","type":"bytes32","internalType":"bytes32"},{"name":"stakeAmount","type":"uint256","internalType":"uint256"},{"name":"active","type":"bool","internalType":"bool"},{"name":"listedAt","type":"uint256","internalType":"uint256"},{"name":"salesCount","type":"uint256","internalType":"uint256"},{"name":"pendingDeliveries","type":"uint256","internalType":"uint256"}],"stateMutability":"view"},{"type":"function","name":"knowledgeMode","inputs":[{"name":"","type":"uint256","internalType":"uint256"}],"outputs":[{"name":"","type":"uint8","internalType":"enum KnowledgeStore.KnowledgeMode"}],"stateMutability":"view"},{"type":"function","name":"knowledgeUndeliveredRefundCount","inputs":[{"name":"","type":"uint256","internalType":"uint256"}],"outputs":[{"name":"","type":"uint256","internalType":"uint256"}],"stateMutability":"view"},{"type":"function","name":"list","inputs":[{"name":"title","type":"string","internalType":"string"},{"name":"tags","type":"string","internalType":"string"},{"name":"price","type":"uint256","internalType":"uint256"},{"name":"ipfsCID","type":"string","internalType":"string"},{"name":"contentHash","type":"bytes32","internalType":"bytes32"}],"outputs":[{"name":"knowledgeId","type":"uint256","internalType":"uint256"}],"stateMutability":"nonpayable"},{"type":"function","name":"listPrivateKnowledge","inputs":[{"name":"title","type":"string","internalType":"string"},{"name":"tags","type":"string","internalType":"string"},{"name":"price","type":"uint256","internalType":"uint256"},{"name":"previewURI","type":"string","internalType":"string"},{"name":"encryptedContentURI","type":"string","internalType":"string"},{"name":"encryptedContentHash","type":"bytes32","internalType":"bytes32"},{"name":"contentHash","type":"bytes32","internalType":"bytes32"}],"outputs":[{"name":"knowledgeId","type":"uint256","internalType":"uint256"}],"stateMutability":"nonpayable"},{"type":"function","name":"listPrivateKnowledgeWithLimit","inputs":[{"name":"title","type":"string","internalType":"string"},{"name":"tags","type":"string","internalType":"string"},{"name":"price","type":"uint256","internalType":"uint256"},{"name":"previewURI","type":"string","internalType":"string"},{"name":"encryptedContentURI","type":"string","internalType":"string"},{"name":"encryptedContentHash","type":"bytes32","internalType":"bytes32"},{"name":"contentHash","type":"bytes32","internalType":"bytes32"},{"name":"maxSales","type":"uint256","internalType":"uint256"}],"outputs":[{"name":"knowledgeId","type":"uint256","internalType":"uint256"}],"stateMutability":"nonpayable"},{"type":"function","name":"listPublicKnowledgeV2","inputs":[{"name":"title","type":"string","internalType":"string"},{"name":"tags","type":"string","internalType":"string"},{"name":"price","type":"uint256","internalType":"uint256"},{"name":"previewURI","type":"string","internalType":"string"},{"name":"publicContentURI","type":"string","internalType":"string"},{"name":"contentHash","type":"bytes32","internalType":"bytes32"}],"outputs":[{"name":"knowledgeId","type":"uint256","internalType":"uint256"}],"stateMutability":"nonpayable"},{"type":"function","name":"maxSalesByKnowledge","inputs":[{"name":"","type":"uint256","internalType":"uint256"}],"outputs":[{"name":"","type":"uint256","internalType":"uint256"}],"stateMutability":"view"},{"type":"function","name":"nextKnowledgeId","inputs":[],"outputs":[{"name":"","type":"uint256","internalType":"uint256"}],"stateMutability":"view"},{"type":"function","name":"nextPurchaseId","inputs":[],"outputs":[{"name":"","type":"uint256","internalType":"uint256"}],"stateMutability":"view"},{"type":"function","name":"pause","inputs":[],"outputs":[],"stateMutability":"nonpayable"},{"type":"function","name":"paused","inputs":[],"outputs":[{"name":"","type":"bool","internalType":"bool"}],"stateMutability":"view"},{"type":"function","name":"payoutReleased","inputs":[{"name":"","type":"uint256","internalType":"uint256"}],"outputs":[{"name":"","type":"bool","internalType":"bool"}],"stateMutability":"view"},{"type":"function","name":"proxiableUUID","inputs":[],"outputs":[{"name":"","type":"bytes32","internalType":"bytes32"}],"stateMutability":"view"},{"type":"function","name":"purchase","inputs":[{"name":"knowledgeId","type":"uint256","internalType":"uint256"}],"outputs":[{"name":"purchaseId","type":"uint256","internalType":"uint256"}],"stateMutability":"nonpayable"},{"type":"function","name":"purchaseDeliveryConfigSnapshot","inputs":[{"name":"","type":"uint256","internalType":"uint256"}],"outputs":[{"name":"","type":"bytes32","internalType":"bytes32"}],"stateMutability":"view"},{"type":"function","name":"purchaseDeliveryConfigURI","inputs":[{"name":"","type":"uint256","internalType":"uint256"}],"outputs":[{"name":"","type":"string","internalType":"string"}],"stateMutability":"view"},{"type":"function","name":"purchaseKnowledgeV2","inputs":[{"name":"knowledgeId","type":"uint256","internalType":"uint256"}],"outputs":[{"name":"purchaseId","type":"uint256","internalType":"uint256"}],"stateMutability":"nonpayable"},{"type":"function","name":"purchases","inputs":[{"name":"","type":"uint256","internalType":"uint256"}],"outputs":[{"name":"buyer","type":"address","internalType":"address"},{"name":"knowledgeId","type":"uint256","internalType":"uint256"},{"name":"paidAmount","type":"uint256","internalType":"uint256"},{"name":"purchasedAt","type":"uint256","internalType":"uint256"},{"name":"delivered","type":"bool","internalType":"bool"},{"name":"reviewed","type":"bool","internalType":"bool"}],"stateMutability":"view"},{"type":"function","name":"redeliverEncryptedKey","inputs":[{"name":"purchaseId","type":"uint256","internalType":"uint256"},{"name":"wrappedKey","type":"bytes","internalType":"bytes"},{"name":"wrappedKeyHash","type":"bytes32","internalType":"bytes32"}],"outputs":[],"stateMutability":"nonpayable"},{"type":"function","name":"redeliveredAt","inputs":[{"name":"","type":"uint256","internalType":"uint256"}],"outputs":[{"name":"","type":"uint64","internalType":"uint64"}],"stateMutability":"view"},{"type":"function","name":"refundReleased","inputs":[{"name":"","type":"uint256","internalType":"uint256"}],"outputs":[{"name":"","type":"bool","internalType":"bool"}],"stateMutability":"view"},{"type":"function","name":"refundUndeliveredPurchase","inputs":[{"name":"purchaseId","type":"uint256","internalType":"uint256"},{"name":"reason","type":"uint8","internalType":"uint8"}],"outputs":[],"stateMutability":"nonpayable"},{"type":"function","name":"registry","inputs":[],"outputs":[{"name":"","type":"address","internalType":"contract AgentRegistry"}],"stateMutability":"view"},{"type":"function","name":"renounceRole","inputs":[{"name":"role","type":"bytes32","internalType":"bytes32"},{"name":"callerConfirmation","type":"address","internalType":"address"}],"outputs":[],"stateMutability":"nonpayable"},{"type":"function","name":"reopenSales","inputs":[{"name":"knowledgeId","type":"uint256","internalType":"uint256"}],"outputs":[],"stateMutability":"nonpayable"},{"type":"function","name":"reputationContract","inputs":[],"outputs":[{"name":"","type":"address","internalType":"address"}],"stateMutability":"view"},{"type":"function","name":"rescueApplied","inputs":[{"name":"","type":"uint256","internalType":"uint256"}],"outputs":[{"name":"","type":"bool","internalType":"bool"}],"stateMutability":"view"},{"type":"function","name":"rescueRefundPrivatePurchase","inputs":[{"name":"purchaseId","type":"uint256","internalType":"uint256"},{"name":"reason","type":"uint8","internalType":"uint8"}],"outputs":[],"stateMutability":"nonpayable"},{"type":"function","name":"review","inputs":[{"name":"purchaseId","type":"uint256","internalType":"uint256"},{"name":"productScore","type":"uint256","internalType":"uint256"},{"name":"sellerScore","type":"uint256","internalType":"uint256"}],"outputs":[],"stateMutability":"nonpayable"},{"type":"function","name":"revokeRole","inputs":[{"name":"role","type":"bytes32","internalType":"bytes32"},{"name":"account","type":"address","internalType":"address"}],"outputs":[],"stateMutability":"nonpayable"},{"type":"function","name":"salesOpen","inputs":[{"name":"","type":"uint256","internalType":"uint256"}],"outputs":[{"name":"","type":"bool","internalType":"bool"}],"stateMutability":"view"},{"type":"function","name":"sellerUndeliveredRefundCount","inputs":[{"name":"","type":"address","internalType":"address"}],"outputs":[{"name":"","type":"uint256","internalType":"uint256"}],"stateMutability":"view"},{"type":"function","name":"setFeeRecipient","inputs":[{"name":"r","type":"address","internalType":"address"}],"outputs":[],"stateMutability":"nonpayable"},{"type":"function","name":"setReputationContract","inputs":[{"name":"r","type":"address","internalType":"address"}],"outputs":[],"stateMutability":"nonpayable"},{"type":"function","name":"setSaleLimit","inputs":[{"name":"knowledgeId","type":"uint256","internalType":"uint256"},{"name":"maxSales","type":"uint256","internalType":"uint256"}],"outputs":[],"stateMutability":"nonpayable"},{"type":"function","name":"setTempoReward","inputs":[{"name":"_tempo","type":"address","internalType":"address"}],"outputs":[],"stateMutability":"nonpayable"},{"type":"function","name":"setV2Module","inputs":[{"name":"module","type":"address","internalType":"address"}],"outputs":[],"stateMutability":"nonpayable"},{"type":"function","name":"stopSales","inputs":[{"name":"knowledgeId","type":"uint256","internalType":"uint256"}],"outputs":[],"stateMutability":"nonpayable"},{"type":"function","name":"supportsInterface","inputs":[{"name":"interfaceId","type":"bytes4","internalType":"bytes4"}],"outputs":[{"name":"","type":"bool","internalType":"bool"}],"stateMutability":"view"},{"type":"function","name":"tempoReward","inputs":[],"outputs":[{"name":"","type":"address","internalType":"contract TempoReward"}],"stateMutability":"view"},{"type":"function","name":"triggerAutoReview","inputs":[{"name":"purchaseId","type":"uint256","internalType":"uint256"}],"outputs":[],"stateMutability":"nonpayable"},{"type":"function","name":"trustedForwarder","inputs":[],"outputs":[{"name":"","type":"address","internalType":"address"}],"stateMutability":"view"},{"type":"function","name":"undeliveredRefundReason","inputs":[{"name":"","type":"uint256","internalType":"uint256"}],"outputs":[{"name":"","type":"uint8","internalType":"uint8"}],"stateMutability":"view"},{"type":"function","name":"undeliveredSellerRefundApplied","inputs":[{"name":"","type":"uint256","internalType":"uint256"}],"outputs":[{"name":"","type":"bool","internalType":"bool"}],"stateMutability":"view"},{"type":"function","name":"unpause","inputs":[],"outputs":[],"stateMutability":"nonpayable"},{"type":"function","name":"upgradeToAndCall","inputs":[{"name":"newImplementation","type":"address","internalType":"address"},{"name":"data","type":"bytes","internalType":"bytes"}],"outputs":[],"stateMutability":"payable"},{"type":"function","name":"v2Module","inputs":[],"outputs":[{"name":"","type":"address","internalType":"address"}],"stateMutability":"view"},{"type":"function","name":"wrappedKeyHashByPurchase","inputs":[{"name":"","type":"uint256","internalType":"uint256"}],"outputs":[{"name":"","type":"bytes32","internalType":"bytes32"}],"stateMutability":"view"},{"type":"event","name":"AutoReviewApplied","inputs":[{"name":"purchaseId","type":"uint256","indexed":true,"internalType":"uint256"}],"anonymous":false},{"type":"event","name":"DebtDeducted","inputs":[{"name":"seller","type":"address","indexed":true,"internalType":"address"},{"name":"amount","type":"uint256","indexed":false,"internalType":"uint256"}],"anonymous":false},{"type":"event","name":"Initialized","inputs":[{"name":"version","type":"uint64","indexed":false,"internalType":"uint64"}],"anonymous":false},{"type":"event","name":"KnowledgeDeactivated","inputs":[{"name":"id","type":"uint256","indexed":true,"internalType":"uint256"}],"anonymous":false},{"type":"event","name":"KnowledgeDelivered","inputs":[{"name":"purchaseId","type":"uint256","indexed":true,"internalType":"uint256"},{"name":"seller","type":"address","indexed":true,"internalType":"address"}],"anonymous":false},{"type":"event","name":"KnowledgeListed","inputs":[{"name":"id","type":"uint256","indexed":true,"internalType":"uint256"},{"name":"seller","type":"address","indexed":true,"internalType":"address"},{"name":"title","type":"string","indexed":false,"internalType":"string"},{"name":"price","type":"uint256","indexed":false,"internalType":"uint256"},{"name":"tags","type":"string","indexed":false,"internalType":"string"}],"anonymous":false},{"type":"event","name":"KnowledgePurchased","inputs":[{"name":"purchaseId","type":"uint256","indexed":true,"internalType":"uint256"},{"name":"knowledgeId","type":"uint256","indexed":true,"internalType":"uint256"},{"name":"buyer","type":"address","indexed":true,"internalType":"address"},{"name":"price","type":"uint256","indexed":false,"internalType":"uint256"}],"anonymous":false},{"type":"event","name":"KnowledgeReviewed","inputs":[{"name":"purchaseId","type":"uint256","indexed":true,"internalType":"uint256"},{"name":"productScore","type":"uint256","indexed":false,"internalType":"uint256"},{"name":"sellerScore","type":"uint256","indexed":false,"internalType":"uint256"}],"anonymous":false},{"type":"event","name":"KnowledgeSaleLimitSet","inputs":[{"name":"knowledgeId","type":"uint256","indexed":true,"internalType":"uint256"},{"name":"maxSales","type":"uint256","indexed":false,"internalType":"uint256"}],"anonymous":false},{"type":"event","name":"KnowledgeSalesReopened","inputs":[{"name":"knowledgeId","type":"uint256","indexed":true,"internalType":"uint256"},{"name":"operator","type":"address","indexed":true,"internalType":"address"}],"anonymous":false},{"type":"event","name":"KnowledgeSalesStopped","inputs":[{"name":"knowledgeId","type":"uint256","indexed":true,"internalType":"uint256"},{"name":"operator","type":"address","indexed":true,"internalType":"address"}],"anonymous":false},{"type":"event","name":"Paused","inputs":[{"name":"account","type":"address","indexed":false,"internalType":"address"}],"anonymous":false},{"type":"event","name":"PrivatePurchaseRescued","inputs":[{"name":"purchaseId","type":"uint256","indexed":true,"internalType":"uint256"},{"name":"knowledgeId","type":"uint256","indexed":true,"internalType":"uint256"},{"name":"buyer","type":"address","indexed":true,"internalType":"address"},{"name":"refundAmount","type":"uint256","indexed":false,"internalType":"uint256"},{"name":"bondRefundAmount","type":"uint256","indexed":false,"internalType":"uint256"},{"name":"reason","type":"uint8","indexed":false,"internalType":"uint8"}],"anonymous":false},{"type":"event","name":"RoleAdminChanged","inputs":[{"name":"role","type":"bytes32","indexed":true,"internalType":"bytes32"},{"name":"previousAdminRole","type":"bytes32","indexed":true,"internalType":"bytes32"},{"name":"newAdminRole","type":"bytes32","indexed":true,"internalType":"bytes32"}],"anonymous":false},{"type":"event","name":"RoleGranted","inputs":[{"name":"role","type":"bytes32","indexed":true,"internalType":"bytes32"},{"name":"account","type":"address","indexed":true,"internalType":"address"},{"name":"sender","type":"address","indexed":true,"internalType":"address"}],"anonymous":false},{"type":"event","name":"RoleRevoked","inputs":[{"name":"role","type":"bytes32","indexed":true,"internalType":"bytes32"},{"name":"account","type":"address","indexed":true,"internalType":"address"},{"name":"sender","type":"address","indexed":true,"internalType":"address"}],"anonymous":false},{"type":"event","name":"StakeSlashed","inputs":[{"name":"knowledgeId","type":"uint256","indexed":true,"internalType":"uint256"},{"name":"seller","type":"address","indexed":true,"internalType":"address"},{"name":"slashedAmount","type":"uint256","indexed":false,"internalType":"uint256"}],"anonymous":false},{"type":"event","name":"UndeliveredPurchaseRefunded","inputs":[{"name":"purchaseId","type":"uint256","indexed":true,"internalType":"uint256"},{"name":"knowledgeId","type":"uint256","indexed":true,"internalType":"uint256"},{"name":"seller","type":"address","indexed":true,"internalType":"address"},{"name":"buyer","type":"address","indexed":false,"internalType":"address"},{"name":"escrowRefundAmount","type":"uint256","indexed":false,"internalType":"uint256"},{"name":"buyerBondRefundAmount","type":"uint256","indexed":false,"internalType":"uint256"},{"name":"nonRefundableProtocolCost","type":"uint256","indexed":false,"internalType":"uint256"},{"name":"reason","type":"uint8","indexed":false,"internalType":"uint8"}],"anonymous":false},{"type":"event","name":"Unpaused","inputs":[{"name":"account","type":"address","indexed":false,"internalType":"address"}],"anonymous":false},{"type":"event","name":"Upgraded","inputs":[{"name":"implementation","type":"address","indexed":true,"internalType":"address"}],"anonymous":false},{"type":"event","name":"V2ModuleUpdated","inputs":[{"name":"module","type":"address","indexed":true,"internalType":"address"}],"anonymous":false},{"type":"error","name":"AccessControlBadConfirmation","inputs":[]},{"type":"error","name":"AccessControlUnauthorizedAccount","inputs":[{"name":"account","type":"address","internalType":"address"},{"name":"neededRole","type":"bytes32","internalType":"bytes32"}]},{"type":"error","name":"AddressEmptyCode","inputs":[{"name":"target","type":"address","internalType":"address"}]},{"type":"error","name":"ERC1967InvalidImplementation","inputs":[{"name":"implementation","type":"address","internalType":"address"}]},{"type":"error","name":"ERC1967NonPayable","inputs":[]},{"type":"error","name":"EnforcedPause","inputs":[]},{"type":"error","name":"ExpectedPause","inputs":[]},{"type":"error","name":"FailedCall","inputs":[]},{"type":"error","name":"InvalidInitialization","inputs":[]},{"type":"error","name":"NotInitializing","inputs":[]},{"type":"error","name":"ReentrancyGuardReentrantCall","inputs":[]},{"type":"error","name":"UUPSUnauthorizedCallContext","inputs":[]},{"type":"error","name":"UUPSUnsupportedProxiableUUID","inputs":[{"name":"slot","type":"bytes32","internalType":"bytes32"}]}],"bytecode":{"object":"0x60c0346200014c576001600160401b0390601f62005ae638819003918201601f19168301918483118484101762000150578084926020946040528339810103126200014c57516001600160a01b03811681036200014c5760017f9b779b17422d0df92223018b32b4d1fa46e071723d6817e2486d003becc55f00553060805260a0527ff0c57e16840df040f15088dc2f81fe391c3923bec73e23a9662efc9c229c6a009081549060ff8260401c166200013a578080831603620000f4575b6040516159819081620001658239608051818181611caa0152611dcf015260a0518181816120960152818161228a015261571b0152f35b6001600160401b031990911681179091556040519081527fc7f505b2f371ae2175ee4913f4499e1f2633a7b5936321eed1cdaeb6115181d290602090a15f8080620000bd565b60405163f92ee8a960e01b8152600490fd5b5f80fd5b634e487b7160e01b5f52604160045260245ffdfe60806040526004361015610011575f80fd5b5f3560e01c806301c11d961461064157806301d7b2451461055157806301ffc9a71461063c578063024b89931461063757806302768de41461063257806302b9bc631461062d57806303eff37b146106285780630442762e14610623578063073080c71461061e5780630ab254af146106195780630e327030146106145780631018c5f91461060f5780631479b25e146104cf57806316b5219e1461060a5780631a337c96146106055780631b32008f146106005780631f175594146105fb5780632128a4bc146105f657806323b4a7a3146105f1578063248a9ca3146105ec578063262737cd146105e757806328e7b2a6146105e257806329125ebb146105515780632e1371bd146105745780632f2ff15d146105dd578063310f1371146105d857806336568abe146105d35780633742a9f7146105ce57806339d006cb146105c95780633b0ecb61146105c45780633ec432c6146105bf5780633f4ba83a146105ba57806342ad6930146105b557806346904840146105b05780634a044932146105ab5780634d20372e146105a65780634f1ef286146105a157806352d1902d1461059c57806355a5f255146105975780635689cbba14610592578063572b6c051461058d578063575660c2146105885780635c975abb146105835780635e18963b1461057e5780635f7668ce1461057957806361209b471461057457806361c2649e1461056f5780637021f1a31461056a57806375e1cf241461056557806377c50e9d14610560578063790213101461055b5780637b103999146105565780637b422c4c146105515780637da0a8771461054c5780637e92b854146105475780638392fe31146105425780638456cb591461053d57806387bc1425146105385780638c5b2293146105335780638ddad6ac1461052e578063916b9bef14610529578063917229121461052457806391d148541461051f578063927f9c991461051a5780639584660f1461051557806397a4bb23146104bb57806399dc8654146105105780639c986764146104de578063a07dcd461461050b578063a217fddf14610506578063a417ee6d14610501578063a4ede5eb14610484578063a8ad0daa146104fc578063ac8919c9146104f7578063acba20b1146104f2578063ad3cb1cc146104ed578063ad9f20a6146104e8578063b2a6dcb8146104e3578063b38deb80146104de578063b7a17a9d146104d9578063c0c53b8b146104d4578063c1d6c941146104cf578063c8e9ab4a146104ca578063cb0ff255146104c5578063cdec2cd1146104c0578063ceea2f5a146104bb578063d11ac988146104b6578063d468fec6146104b1578063d547741f146104ac578063d582d36e146104a7578063e74b981b146104a2578063eaf98d231461049d578063efef39a114610498578063f086075a14610493578063f5c0b48c1461048e578063f665986e14610489578063f6e8913d14610484578063f7f317591461047f578063fc4126df1461047a578063fe7992c2146104755763fece90f514610470575f80fd5b613feb565b613f78565b613baa565b613b8e565b612e3e565b613b5c565b613b32565b613b19565b6132f0565b6132d5565b61328a565b61325d565b613211565b6131cd565b61319a565b612cf3565b61315c565b613121565b613105565b610be2565b612fbb565b612f8a565b612d63565b612f66565b612f44565b612eed565b612eb2565b612e88565b612e59565b612e14565b612dfa565b612d7e565b612d2d565b612cac565b612c79565b612c1b565b612b9b565b61297a565b61243b565b61240e565b6123e6565b612382565b612312565b6122dc565b612275565b610678565b61224d565b612226565b6121f7565b6121c8565b612199565b61217e565b610f2e565b61214f565b61212b565b6120f2565b6120ca565b612072565b611e4f565b611e26565b611dbd565b611c57565b611a41565b611a0e565b6119e6565b61124e565b6111c7565b611198565b61116e565b611146565b611054565b610fb4565b610f97565b610f49565b610e0f565b610d27565b610cee565b610cd1565b610ca7565b610c78565b610c31565b610c18565b610bfb565b610b57565b61091d565b61087d565b610821565b610806565b61079c565b610761565b610727565b61070c565b6106b6565b610654565b5f91031261065057565b5f80fd5b34610650575f36600319011261065057602060405169d3c21bcecceda10000008152f35b34610650576020366003190112610650576106916152b1565b6106996152e0565b6106a23661530a565b5060015f8051602061590c83398151915255005b346106505760203660031901126106505760043563ffffffff60e01b811680910361065057602090637965db0b60e01b81149081156106fb575b506040519015158152f35b6301ffc9a760e01b1490505f6106f0565b34610650575f36600319011261065057602060405160038152f35b34610650575f3660031901126106505760206040517fba279271fb7bbf76a6f3df3cc57bf80647fcafdea60ec3383d90f459de74e7c08152f35b34610650576020366003190112610650576004355f52600e602052602060405f2054604051908152f35b6001600160a01b0381160361065057565b34610650576020366003190112610650576004356107b98161078b565b6107c16153af565b601e80546001600160a01b0319166001600160a01b039290921691821790557fbcd62708ed64322231bb85ab1da62c4e1d6d6256aa176b1a9e023b30c3226f4b5f80a2005b34610650575f36600319011261065057602060405160028152f35b34610650576020366003190112610650576004355f526022602052602060ff60405f2054166040519015158152f35b9181601f84011215610650578235916001600160401b038311610650576020838186019501011161065057565b346106505760e0366003190112610650576001600160401b03600435818111610650576108ae903690600401610850565b5050602435818111610650576108c8903690600401610850565b5050606435818111610650576108e2903690600401610850565b5050608435908111610650576108fc903690600401610850565b5050610919610909614015565b6040519081529081906020820190565b0390f35b34610650575f36600319011261065057602060405162278d008152f35b90600182811c92168015610968575b602083101461095457565b634e487b7160e01b5f52602260045260245ffd5b91607f1691610949565b634e487b7160e01b5f52604160045260245ffd5b61016081019081106001600160401b038211176109a257604052565b610972565b60c081019081106001600160401b038211176109a257604052565b6001600160401b0381116109a257604052565b90601f801991011681019081106001600160401b038211176109a257604052565b9060405191825f8254610a088161093a565b908184526020946001916001811690815f14610a765750600114610a38575b505050610a36925003836109d5565b565b5f90815285812095935091905b818310610a5e575050610a3693508201015f8080610a27565b85548884018501529485019487945091830191610a45565b92505050610a3694925060ff191682840152151560051b8201015f8080610a27565b5f5b838110610aa95750505f910152565b8181015183820152602001610a9a565b90602091610ad281518092818552858086019101610a98565b601f01601f1916010190565b979490610b3593610b146101409b989e9d9c9996948b610b2294602061016092839260018060a01b0316815201528c0190610ab9565b908a820360408c0152610ab9565b9160608901528782036080890152610ab9565b9860a086015260c0850152151560e08401526101008301526101208201520152565b34610650576020366003190112610650576004355f90815260056020526040902080546001600160a01b0316610919610b92600184016109f6565b92610b9f600282016109f6565b906003810154610bb1600483016109f6565b600583015460068401549060ff60078601541692600886015494600a6009880154970154976040519b8c9b8c610ade565b34610650576020366003190112610650576106996152b1565b34610650575f366003190112610650576020604051620151808152f35b34610650576040366003190112610650576106996152b1565b3461065057602036600319011261065057600435610c4e8161078b565b610c566153af565b600a80546001600160a01b0319166001600160a01b0392909216919091179055005b34610650576020366003190112610650576004355f52601a602052602060ff60405f2054166040519015158152f35b34610650576020366003190112610650576004355f52601b602052602060405f2054604051908152f35b34610650575f366003190112610650576020600654604051908152f35b34610650576020366003190112610650576004355f525f805160206158cc8339815191526020526020600160405f200154604051908152f35b34610650576020366003190112610650576004355f52601f602052602060ff60405f2054166040519015158152f35b602080825282516001600160a01b0316908201526020820151610dc5610d8a61016092836040860152610180850190610ab9565b610da6604086015191601f199283878303016060880152610ab9565b90606086015160808601526080860151908583030160a0860152610ab9565b9260a081015160c084015260c081015160e084015260e0810151610df0610100918286019015159052565b8101516101209081850152810151906101409182850152015191015290565b3461065057602036600319011261065057610919604051610e2f81610986565b5f815260606020820152606060408201525f6060820152606060808201525f60a08201525f60c08201525f60e0820152610100905f82820152600a6101205f818401525f610140809401526004355f52600560205260405f2090610e91611bcc565b82546001600160a01b0316815294610eab600184016109f6565b6020870152610ebc600284016109f6565b604087015260038301546060870152610ed7600484016109f6565b6080870152600583015460a0870152600683015460c0870152610f0a610f01600785015460ff1690565b151560e0880152565b60088301549086015260098201549085015201549082015260405191829182610d56565b34610650575f36600319011261065057602060405160018152f35b3461065057604036600319011261065057610f95602435600435610f6c8261078b565b805f525f805160206158cc833981519152602052610f90600160405f2001546154b8565b6155af565b005b34610650575f366003190112610650576020600454604051908152f35b3461065057604036600319011261065057600435602435610fd48161078b565b811561100f576001600160a01b0380610feb6156f0565b1690821603610ffd57610f9591615654565b60405163334bd91960e11b8152600490fd5b60405162461bcd60e51b815260206004820152601960248201527f4b533a2063616e6e6f742072656e6f756e63652061646d696e000000000000006044820152606490fd5b346106505760203660031901126106505761091960405f60a08251611078816109a7565b828152826020820152828482015282606082015282608082015201526004355f526007602052805f20906110f860ff60048351946110b5866109a7565b80546001600160a01b03168652600181015460208701526002810154858701526003810154606087015201548181161515608086015260081c16151560a0840152565b519182918291909160a08060c0830194600180831b03815116845260208101516020850152604081015160408501526060810151606085015260808101511515608085015201511515910152565b34610650575f36600319011261065057600a546040516001600160a01b039091168152602090f35b34610650576020366003190112610650576004355f52600f602052602060405f2054604051908152f35b34610650576020366003190112610650576004355f526023602052602060ff60405f2054166040519015158152f35b34610650575f366003190112610650576111df6153af565b5f805160206158ec833981519152805460ff81161561123c5760ff191690557f5db9ee0a495bf2e6ff9c91a7834c1ba4fdd244a5e8aa4e537bd38aeae4b073aa60206112296156f0565b6040516001600160a01b039091168152a1005b604051638dfc202b60e01b8152600490fd5b34610650576020806003193601126106505760049061126b6152b1565b6112736152e0565b61128682355f52600760205260405f2090565b61128e6156f0565b81549092906112c2906112b1906001600160a01b03165b6001600160a01b031690565b6001600160a01b039485161461406e565b600190818301936112f86112e96112e287545f52600b60205260405f2090565b5460ff1690565b6112f2816122cd565b156140aa565b61134b86850161131861131361130f835460ff1690565b1590565b6140f6565b6113306113286003880154614146565b42101561416b565b805460ff191660011781555b805461ff001916610100179055565b825461135f906001600160a01b03166112a5565b84549095906001600160a01b0316863b156106505760408051638fe80d9560e01b81526001600160a01b03909216828a0190815290975f9183919082908490829060200103925af1801561163c576119d3575b5061142e836113ca83545f52600560205260405f2090565b96600a88016113d981546141b1565b90555f546113ef906001600160a01b03166112a5565b81546002909201548a5163a9059cbb60e01b81526001600160a01b039093168c840190815260208101919091529193849283915f918391604090910190565b03925af1801561163c576119b6575b5061145561144e60038701546141de565b6064900490565b9160068601918254928385105f146119b05784935b8480611882575b925050508391501061167a575b5050815461149591506001600160a01b03166112a5565b82546001600160a01b031690803b156106505784516322eb7bdb60e11b81526001600160a01b039092168683019081525f91839182908490829060200103925af1801561163c57611667575b5080546114f6906001600160a01b03166112a5565b82546001600160a01b031690803b1561065057845163d0542f9760e01b81526001600160a01b039092168683019081525f91839182908490829060200103925af1801561163c57611654575b508054611557906001600160a01b03166112a5565b82546001600160a01b031690803b156106505784516317517f8d60e31b81526001600160a01b039092168683019081525f91839182908490829060200103925af1801561163c576115cb926115bd926112a592611641575b50546001600160a01b031690565b91546001600160a01b031690565b90803b156106505791516313fb5ea760e01b81526001600160a01b03909116928101928352915f91839182908490829060200103925af1801561163c57611623575b610f9560015f8051602061590c83398151915255565b80611630611636926109c2565b80610646565b5f61160d565b6141a6565b8061163061164e926109c2565b5f6115af565b80611630611661926109c2565b5f611542565b80611630611674926109c2565b5f6114e1565b61168391614231565b5f5490919061169a906001600160a01b03166112a5565b84546001600160a01b031686516370a0823160e01b81526001600160a01b0382168982019081529194918490829081906020010381865afa90811561163c575f91611865575b508751636eb1769f60e11b81526001600160a01b0386168a82019081523060208201529092908590849081906040010381875afa91821561163c578a935f93611836575b508082101561182e5750905b808210156118265750935b84611748575b505061147e565b87516323b872dd60e01b81526001600160a01b039091169181019182523060208301526040820185905291839183919082905f90829060600103925af1801561163c576117f8575b50505f546117a6906001600160a01b03166112a5565b803b15610650578451630852cd8d60e31b8152868101928352915f91839182908490829060200103925af1801561163c576117e5575b80808681611741565b806116306117f2926109c2565b5f6117dc565b8161181792903d1061181f575b61180f81836109d5565b8101906141ca565b505f80611790565b503d611805565b90509361173b565b905090611730565b611857919350863d881161185e575b61184f81836109d5565b810190614041565b915f611724565b503d611845565b61187c9150843d861161185e5761184f81836109d5565b5f6116e0565b61188b91614231565b905585546118a1906001600160a01b03166112a5565b87546001600160a01b031690803b156106505789516334673ec560e11b81526001600160a01b03909216828c01908152602081018690525f91839182908490829060400103925af1801561163c5761199d575b505f54611909906001600160a01b03166112a5565b803b15610650578851630852cd8d60e31b8152808b0185815290915f9183919082908490829060200103925af1801561163c5761198a575b50548654885184815292166001600160a01b0316917fba00be99b4ba100b19f2c080160ab22c2b8f4d62027d6524c532e7578d7a43b49080602081010390a35f80808084611471565b80611630611997926109c2565b5f611941565b806116306119aa926109c2565b5f6118f4565b8361146a565b6119cc90843d861161181f5761180f81836109d5565b505f61143d565b806116306119e0926109c2565b5f6113b2565b34610650575f366003190112610650576002546040516001600160a01b039091168152602090f35b34610650576020366003190112610650576004355f52601560205260206001600160401b0360405f205416604051908152f35b3461065057602036600319011261065057600435611a5d6152e0565b611a6f815f52600760205260405f2090565b611aa460048201611a8c815460ff81169081611bbd575b5061423e565b61133c611a9c600385015461415b565b421015614278565b611aba60018201545f52600560205260405f2090565b600154611ad3906115bd906001600160a01b03166112a5565b90803b1561065057604051631fca67df60e21b81526001600160a01b03929092166004830152600360248301525f908290604490829084905af1801561163c57611baa575b50600154611b32906115bd906001600160a01b03166112a5565b90803b1561065057604051638fe80d9560e01b81526001600160a01b039290921660048301525f908290602490829084905af1801561163c57611b97575b507fb32aed4e447f2ad9195c00c43067223cbb2d8f5db04ca8c2388d148771c8114b5f80a2005b80611630611ba4926109c2565b5f611b70565b80611630611bb7926109c2565b5f611b18565b60ff915060081c16155f611a86565b60405190610a3682610986565b60405190610a36826109a7565b6040519061012082018281106001600160401b038211176109a257604052565b6001600160401b0381116109a257601f01601f191660200190565b929192611c2d82611c06565b91611c3b60405193846109d5565b829481845281830111610650578281602093845f960137010152565b6040366003190112610650576004803590611c718261078b565b6024356001600160401b038111610650573660238201121561065057611ca09036906024818501359101611c21565b6001600160a01b037f00000000000000000000000000000000000000000000000000000000000000008116308114908115611da2575b50611d91579060208392611ce86153af565b6040516352d1902d60e01b8152938491829088165afa5f9281611d70575b50611d34575050604051634c9c8ce360e01b81526001600160a01b0390921690820190815281906020010390fd5b83835f805160206158ac8339815191528403611d5457610f958383615749565b604051632a87526960e21b815290810184815281906020010390fd5b611d8a91935060203d60201161185e5761184f81836109d5565b915f611d06565b60405163703e46dd60e11b81528390fd5b9050815f805160206158ac833981519152541614155f611cd6565b34610650575f366003190112610650577f00000000000000000000000000000000000000000000000000000000000000006001600160a01b03163003611e145760206040515f805160206158ac8339815191528152f35b60405163703e46dd60e11b8152600490fd5b34610650576020366003190112610650576004355f5260208052602060405f2054604051908152f35b3461065057602036600319011261065057600435611e6b615421565b611e7d815f52600560205260405f2090565b9060078201611e8d815460ff1690565b612020575b50600682019081549182611f08575b5050600154611ebd91506115bd906001600160a01b03166112a5565b90803b15610650576040516322eb7bdb60e11b81526001600160a01b0383166004820152905f908290602490829084905af1801561163c57611efb57005b80611630610f95926109c2565b5f9055600154611f20906001600160a01b03166112a5565b83546001600160a01b031690803b15610650576040516334673ec560e11b81526001600160a01b03929092166004830152602482018490525f908290604490829084905af1801561163c5761200d575b505f54611f85906001600160a01b03166112a5565b803b1561065057604051630852cd8d60e31b815260048101849052905f908290602490829084905af1801561163c57611ffa575b5082546040519283526001600160a01b0316917fba00be99b4ba100b19f2c080160ab22c2b8f4d62027d6524c532e7578d7a43b490602090a35f8080611ea1565b80611630612007926109c2565b5f611fb9565b8061163061201a926109c2565b5f611f70565b805460ff1916905561204761203d825f52601f60205260405f2090565b805460ff19169055565b807f6231f95ec21671bd178b0f09edd9360d433024b1098c5ea14b4ab7db64caa8da5f80a25f611e92565b346106505760203660031901126106505760206004356120918161078b565b6040517f00000000000000000000000000000000000000000000000000000000000000006001600160a01b039081169216919091148152f35b34610650575f36600319011261065057601e546040516001600160a01b039091168152602090f35b34610650575f36600319011261065057602060ff5f805160206158ec83398151915254166040519015158152f35b60ff81160361065057565b3461065057604036600319011261065057612147602435612120565b6106996152b1565b34610650576020366003190112610650576004355f526009602052602060ff60405f2054166040519015158152f35b34610650575f36600319011261065057602060405160148152f35b34610650576020366003190112610650576004355f52601c602052602060ff60405f2054166040519015158152f35b34610650576020366003190112610650576004355f526017602052602060ff60405f2054166040519015158152f35b34610650576020366003190112610650576004355f52601d602052602060ff60405f2054166040519015158152f35b34610650575f366003190112610650575f546040516001600160a01b039091168152602090f35b34610650575f366003190112610650576001546040516001600160a01b039091168152602090f35b34610650575f366003190112610650576040517f00000000000000000000000000000000000000000000000000000000000000006001600160a01b03168152602090f35b634e487b7160e01b5f52602160045260245ffd5b600311156122d757565b6122b9565b34610650576020366003190112610650576004355f52600b60205260ff60405f20541660405160038210156122d7576020918152f35b34610650576020366003190112610650576004355f52600760205260c060405f2060ff60018060a01b0382541691600181015490600281015460046003830154920154926040519586526020860152604085015260608401528181161515608084015260081c16151560a0820152f35b34610650575f3660031901126106505761239a6153af565b6123a26152e0565b5f805160206158ec833981519152805460ff191660011790557f62e78cea01bee320cd4e420270b5ea74000d11b0c9f74754ebdbfc544b05a25860206112296156f0565b34610650575f366003190112610650576003546040516001600160a01b039091168152602090f35b34610650576020366003190112610650576004355f526012602052602060ff60405f205416604051908152f35b3461065057606036600319011261065057600480359060443560243561245f6152e0565b6124e5612474855f52600760205260405f2090565b61247c6156f0565b81549091906124a890612497906001600160a01b03166112a5565b6001600160a01b039384161461406e565b858101906124c1825460ff81169081611bbd575061423e565b6001938492838710158061296f575b80612965575b8061295a575b61133c906142b4565b01916124fa83545f52600560205260405f2090565b8154909190612511906001600160a01b03166112a5565b9361254b61251d6156f0565b95895f60409889518095819263fb3551ff60e01b958684528301919091602081019260018060a01b03169052565b0381855afa801561163c5788612573918d955f91612938575b5001516001600160a01b031690565b865489519283526001600160a01b03169382018481525f90839081900360200181865afa801561163c576125bf6112a58b8b936125c8965f91612938575001516001600160a01b031690565b91161415614420565b803b15610650578651631fca67df60e21b81526001600160a01b03909216828b01908152602081018a90525f91839182908490829060400103925af1801561163c57612925575b508154612624906001600160a01b03166112a5565b61262c6156f0565b90803b15610650578651638fe80d9560e01b81526001600160a01b03909216828b019081525f91839182908490829060200103925af1801561163c57612912575b508154612682906001600160a01b03166112a5565b9061268b6156f0565b91803b15610650578651633111036160e11b81526001600160a01b03909316838b019081526040602082018190526006908201526572657669657760d01b60608201525f91849182908490829060800103925af190811561163c57612703926112e2926128ff575b50545f52600b60205260405f2090565b9061270d826122cd565b81149081156128eb575b50156127985750507f6e25eeb376624597a9c69a7e9e1f4ab3623441258ae80e1db654feb9861d121493506127939061276861275b875f52601760205260405f2090565b805460ff19166001179055565b8361277b875f52601b60205260405f2090565b555b5191825260208201929092529081906040820190565b0390a2005b600a546127ad906001600160a01b03166112a5565b9182166127e3575b50507f6e25eeb376624597a9c69a7e9e1f4ab3623441258ae80e1db654feb9861d121493506127939061277d565b546001600160a01b031690803b1561065057825163871aa80f60e01b81526001600160a01b03909216868301908152602081018690525f91839182908490829060400103925af1801561163c576128d8575b50600a5461284b906001600160a01b03166112a5565b936128546156f0565b853b156106505782516336a6ab4760e01b81526001600160a01b03909116918101918252945f9186919082908490829060200103925af190811561163c577f6e25eeb376624597a9c69a7e9e1f4ab3623441258ae80e1db654feb9861d121494612793926128c5575b8192506127b5565b806116306128d2926109c2565b5f6128bd565b806116306128e5926109c2565b5f612835565b600291506128f8816122cd565b145f612717565b8061163061290c926109c2565b5f6126f3565b8061163061291f926109c2565b5f61266d565b80611630612932926109c2565b5f61260f565b61295491503d805f833e61294c81836109d5565b810190614355565b5f612564565b5060058811156124dc565b50838810156124d6565b5060058711156124d0565b34610650576020366003190112610650576004356129966152b1565b61299e6152e0565b60066129b2825f52600560205260405f2090565b6129e26129bd6156f0565b82546129d1906001600160a01b03166112a5565b6001600160a01b039091161461445d565b612a0a600782016129fc6129f7825460ff1690565b61449a565b61203d600a840154156144d7565b612a1f61203d845f52601f60205260405f2090565b0180549081612a64575b827f6231f95ec21671bd178b0f09edd9360d433024b1098c5ea14b4ab7db64caa8da5f80a2610f9560015f8051602061590c83398151915255565b5f9055600154612a7c906001600160a01b03166112a5565b90612a856156f0565b91803b15610650576040516334673ec560e11b81526001600160a01b03939093166004840152602483018290525f908390604490829084905af190811561163c57612b2692602092612b5a575b505f54612ae7906001600160a01b03166112a5565b612aef6156f0565b60405163a9059cbb60e01b81526001600160a01b0390911660048201526024810192909252909283919082905f9082906044820190565b03925af1801561163c57612b3b575b80612a29565b612b539060203d60201161181f5761180f81836109d5565b505f612b35565b80611630612b67926109c2565b5f612ad2565b939291612b9690612b88604093606088526060880190610ab9565b908682036020880152610ab9565b930152565b3461065057602036600319011261065057612bb53661530a565b80518101606082602083019203126106505760208201516001600160401b039081811161065057826020612beb92860101614325565b91604084015191821161065057612c0c606091602061091994870101614325565b93015160405193849384612b6d565b3461065057604036600319011261065057602060ff612c6d602435612c3f8161078b565b6004355f525f805160206158cc833981519152845260405f209060018060a01b03165f5260205260405f2090565b54166040519015158152f35b34610650576020366003190112610650576004355f52601660205260206001600160401b0360405f205416604051908152f35b3461065057602036600319011261065057600435612cc98161078b565b612cd16153af565b600380546001600160a01b0319166001600160a01b0392909216919091179055005b34610650576060366003190112610650576024356001600160401b03811161065057612d23903690600401610850565b50506106916152b1565b34610650576020366003190112610650576004355f52601360205260ff60405f205416604051600a8210156122d7576020918152f35b34610650575f36600319011261065057602060405160048152f35b346106505760a0366003190112610650576001600160401b0360043581811161065057612daf903690600401610850565b60249291923582811161065057612dca903690600401610850565b906064359384116106505761091994612dea610909953690600401610850565b939092608435956044359361451c565b34610650575f3660031901126106505760206040515f8152f35b34610650576020366003190112610650576004355f526026602052602060405f2054604051908152f35b34610650575f36600319011261065057602060405160328152f35b34610650576020366003190112610650576004355f526018602052602060ff60405f2054166040519015158152f35b34610650576020366003190112610650576004355f526008602052602060405f2054604051908152f35b3461065057602036600319011261065057600435612ecf8161078b565b60018060a01b03165f526025602052602060405f2054604051908152f35b34610650575f3660031901126106505760405160408101908082106001600160401b038311176109a2576109199160405260058152640352e302e360dc1b6020820152604051918291602083526020830190610ab9565b34610650575f366003190112610650576020604051670de0b6b3a76400008152f35b3461065057604036600319011261065057612f82602435612120565b6106916152b1565b346106505760c0366003190112610650576001600160401b03600435818111610650576108ae903690600401610850565b3461065057606036600319011261065057600435612fd88161078b565b60243590612fe58261078b565b604435612ff18161078b565b5f8051602061592c83398151915254926001600160401b0360ff8560401c16159416801590816130fd575b60011490816130f3575b1590816130ea575b506130d8575f8051602061592c833981519152805467ffffffffffffffff1916600117905561306192846130af57614f9f565b61306757005b5f8051602061592c833981519152805460ff60401b19169055604051600181527fc7f505b2f371ae2175ee4913f4499e1f2633a7b5936321eed1cdaeb6115181d290602090a1005b5f8051602061592c833981519152805460ff60401b191668010000000000000000179055614f9f565b60405163f92ee8a960e01b8152600490fd5b9050155f61302e565b303b159150613026565b85915061301c565b3461065057606036600319011261065057612f82602435612120565b346106505760203660031901126106505760043561313e8161078b565b60018060a01b03165f526027602052602060405f2054604051908152f35b34610650576020366003190112610650576004355f52602160205261091961318660405f206109f6565b604051918291602083526020830190610ab9565b34610650576020366003190112610650576004355f52601460205260206001600160401b0360405f205416604051908152f35b34610650576020366003190112610650576131e66152b1565b6131ee6152e0565b60206131f8614050565b60015f8051602061590c83398151915255604051908152f35b3461065057604036600319011261065057610f956024356004356132348261078b565b805f525f805160206158cc833981519152602052613258600160405f2001546154b8565b615654565b34610650576020366003190112610650576004355f526024602052602060ff60405f205416604051908152f35b34610650576020366003190112610650576004356132a78161078b565b6132af6153af565b6001600160a01b03168015610650576001600160601b0360a01b60025416176002555f80f35b34610650575f36600319011261065057602060405160058152f35b3461065057602080600319360112610650576004908135916133106152b1565b6133186152e0565b61332a835f52600560205260405f2090565b61333b6129f7600783015460ff1690565b6133626133536112e2865f52600b60205260405f2090565b61335c816122cd565b15615084565b600154613377906001600160a01b03166112a5565b936133806156f0565b6040805163c3c5a54760e01b81526001600160a01b039092168286019081529094919086908290819060200103818a5afa801561163c576133c8915f91613afc575b50614adf565b613435856133d46156f0565b8554909890613401906133ef906001600160a01b03166112a5565b6001600160a01b039a8b1614156150d0565b6134096156f0565b8751631f1da14d60e11b81526001600160a01b0390911685820190815290938492918391829160200190565b03915afa801561163c57613450915f91613adf575b50615110565b60035486166001600160a01b0316928584613a63575b505f546134b49450613480906001600160a01b03166112a5565b866134896156f0565b87516370a0823160e01b81526001600160a01b03909116858201908152909687918291602090910190565b0381845afa94851561163c575f95613a44575b508560038301956134dc875480921015615167565b6135726134e76156f0565b835160609190911b6bffffffffffffffffffffffff1916818c019081526014810189905290613522816034840103601f1981018352826109d5565b5190209161354261353b845f52600860205260405f2090565b54156151aa565b6135b98b61355261144e846141f4565b80948461356d61356561144e859861420a565b978892614231565b614231565b978a5f61357d6156f0565b99516323b872dd60e01b8082526001600160a01b03909b1692810192835230602084015260408301949094529294859384929091839160600190565b03925af1801561163c57613a27575b505f546135dd906001600160a01b03166112a5565b803b15610650578a51630852cd8d60e31b8152808901928352915f91839182908490829060200103925af1801561163c57613a14575b505f548a908a9061362c906001600160a01b03166112a5565b6136346156f0565b60025492518781526001600160a01b03918216818c019081529190931660208201526040810194909452909283919082905f90829060600103925af1801561163c5784938b9288926139f7575b505f80548c919061369a906001600160a01b03166112a5565b926136d66136a66156f0565b93519182526001600160a01b03909316948101948552306020860152604085019790975286938492839160600190565b03925af191821561163c57613767926139da575b506137596136f9600654614d6f565b998a9461370586600655565b8861370e6156f0565b9261372961371a611bd9565b6001600160a01b039095168552565b8301528a8201524260608201525f60808201525f60a0820152613754855f52600760205260405f2090565b6151ee565b5f52600860205260405f2090565b55600981016137768154614d6f565b9055600a81016137868154614d6f565b905560015461379d906001600160a01b03166112a5565b6137a56156f0565b90803b15610650578651630a3be34960e01b81526001600160a01b039092168483019081525f91839182908490829060200103925af1801561163c576139c7575b506001546137fc906001600160a01b03166112a5565b6138046156f0565b90803b15610650578651632afef4b760e21b8082526001600160a01b0390931685820190815290915f9183919082908490829060200103925af1801561163c576139b4575b5060015461387190613863906001600160a01b03166112a5565b92546001600160a01b031690565b823b156106505786519182526001600160a01b031683820190815290915f9183919082908490829060200103925af1801561163c576139a1575b506001546138c1906001600160a01b03166112a5565b906138ca6156f0565b823b156106505761391c925f92838851809681958294633111036160e11b8452830160809160018060a01b03168152604060208201526008604082015267707572636861736560c01b60608201520190565b03925af1801561163c576109199686927fb1388757ab12142ef905a9b301dcdd81dd63ec6232a8fa5c48447495aee44fcc9261398e575b5061395c6156f0565b94548651908152941693602090a461398060015f8051602061590c83398151915255565b519081529081906020820190565b8061163061399b926109c2565b5f613953565b806116306139ae926109c2565b5f6138ab565b806116306139c1926109c2565b5f613849565b806116306139d4926109c2565b5f6137e6565b6139f0908a3d8c1161181f5761180f81836109d5565b505f6136ea565b613a0d90843d861161181f5761180f81836109d5565b505f613681565b80611630613a21926109c2565b5f613613565b613a3d908c8d3d1061181f5761180f81836109d5565b505f6135c8565b613a5c919550873d891161185e5761184f81836109d5565b935f6134c7565b613a9b94613a6f6156f0565b875163d386df2360e01b81526001600160a01b0390911685820190815290968792918391829160200190565b03915afa93841561163c576134b494613abc915f91613ac2575b5015614c69565b85613466565b613ad99150883d8a1161181f5761180f81836109d5565b5f613ab5565b613af69150873d891161181f5761180f81836109d5565b5f61344a565b613b139150873d891161181f5761180f81836109d5565b5f6133c2565b34610650576040366003190112610650576106916152b1565b34610650576020366003190112610650576004355f526019602052602060405f2054604051908152f35b3461065057610100366003190112610650576001600160401b03600435818111610650576108ae903690600401610850565b34610650575f3660031901126106505760206040516013198152f35b346106505760208060031936011261065057600490813591613bca6152b1565b613bd26152e0565b613be4835f52600760205260405f2090565b916001830154613c23613c146112e2613c05845f52600560205260405f2090565b935f52600b60205260405f2090565b613c1d816122cd565b15615265565b6002613c2d6156f0565b8254909590613c5990613c48906001600160a01b03166112a5565b6001600160a01b039788161461445d565b613c7085820161275b61131361130f835460ff1690565b600a8301613c7e81546141b1565b9055015490613cd05f613c9b6112a560015460018060a01b031690565b613ca36156f0565b60405163fb3551ff60e01b81526001600160a01b0390911688820190815290938492918391829160200190565b03915afa90811561163c57613cf19160e0915f91613f47575b500151151590565b80613f3e575b613e60575b81613ddc575b5050600154613d1a91506001600160a01b03166112a5565b90613d236156f0565b823b1561065057613d75925f9283604051809681958294633111036160e11b8452830160809160018060a01b031681526040602082015260076040820152663232b634bb32b960c91b60608201520190565b03925af1801561163c57613dc9575b50613d8d6156f0565b16907fa2731d2dafbcc471ba9d8d60761310fc8a6ea5c93bd6d70b077f888f2b6050745f80a3610f9560015f8051602061590c83398151915255565b80611630613dd6926109c2565b5f613d84565b5f54613e2d9284929091613dfc906115bd906001600160a01b03166112a5565b5f60405180968195829463a9059cbb60e01b84528b840160209093929193604081019460018060a01b031681520152565b03925af1801561163c57613e42575b80613d02565b81613e5892903d1061181f5761180f81836109d5565b505f80613e3c565b613e76613e6f61144e846141de565b8093614231565b91613ec98482613e8f6112a55f5460018060a01b031690565b6002546040805163a9059cbb60e01b81526001600160a01b039092168b830190815260208101949094529094859384925f92849290910190565b03925af1801561163c57613f21575b507ff5f01754584f438c12bcb34b8c17451066251095c28d277f3966dca00bf054a1613f19613f086112a56156f0565b604051938452929081906020820190565b0390a2613cfc565b613f3790853d871161181f5761180f81836109d5565b505f613ed8565b50811515613cf7565b613f5b91503d805f833e61294c81836109d5565b5f613ce9565b929190612b96602091604086526040860190610ab9565b3461065057602036600319011261065057613f923661530a565b80518101604082602083019203126106505760208201516001600160401b03811161065057820181603f820112156106505760409181836020613fd894015191016142f0565b9101519061091960405192839283613f61565b34610650576020366003190112610650576004355f526011602052602060405f2054604051908152f35b61401d6152b1565b6140256152e0565b61402d614050565b9060015f8051602061590c83398151915255565b90816020910312610650575190565b61406b61405c3661530a565b60208082518301019101614041565b90565b1561407557565b60405162461bcd60e51b815260206004820152600d60248201526c25a99d103737ba10313abcb2b960991b6044820152606490fd5b156140b157565b60405162461bcd60e51b815260206004820152601b60248201527f4b533a207573652066696e616c697a65556e64656c69766572656400000000006044820152606490fd5b156140fd57565b60405162461bcd60e51b815260206004820152600d60248201526c12d4ce8819195b1a5d995c9959609a1b6044820152606490fd5b634e487b7160e01b5f52601160045260245ffd5b9062015180820180921161415657565b614132565b9062278d00820180921161415657565b1561417257565b60405162461bcd60e51b815260206004820152600c60248201526b4b533a20646561646c696e6560a01b6044820152606490fd5b6040513d5f823e3d90fd5b8015614156575f190190565b5190811515820361065057565b908160209103126106505761406b906141bd565b9060328202918083046032149015171561415657565b908160021b918083046004149015171561415657565b908115600183800414171561415657565b9060148202918083046014149015171561415657565b9190820391821161415657565b1561424557565b60405162461bcd60e51b815260206004820152600b60248201526a12d4ce881a5b9d985b1a5960aa1b6044820152606490fd5b1561427f57565b60405162461bcd60e51b815260206004820152600d60248201526c4b533a20746f6f206561726c7960981b6044820152606490fd5b156142bb57565b60405162461bcd60e51b815260206004820152600d60248201526c4b533a2073636f726520312d3560981b6044820152606490fd5b909291926142fd81611c06565b9161430b60405193846109d5565b829482845282820111610650576020610a36930190610a98565b9080601f8301121561065057815161406b926020016142f0565b5190610a368261078b565b5190610a3682612120565b6020818303126106505780516001600160401b03918282116106505701906101208284031261065057614386611be6565b928251828111610650578161439c918501614325565b84526020830151918211610650576143b5918301614325565b60208301526143c66040820161433f565b60408301526143d76060820161434a565b60608301526080810151608083015260a081015160a083015260c081015160c083015261440660e082016141bd565b60e08301526144196101008092016141bd565b9082015290565b1561442757565b60405162461bcd60e51b815260206004820152600e60248201526d25a99d1039b0b6b29037bbb732b960911b6044820152606490fd5b1561446457565b60405162461bcd60e51b815260206004820152600e60248201526d25a99d103737ba1039b2b63632b960911b6044820152606490fd5b156144a157565b60405162461bcd60e51b815260206004820152600e60248201526d4b533a206e6f742061637469766560901b6044820152606490fd5b156144de57565b60405162461bcd60e51b81526020600482015260166024820152754b533a2070656e64696e672064656c6976657269657360501b6044820152606490fd5b919390929694959661452c6152b1565b6145346152e0565b600154614549906001600160a01b03166112a5565b946145526156f0565b6040805163c3c5a54760e01b81526001600160a01b0392909216600480840191909152909990976020928381602481855afa801561163c5761459a915f91614ac85750614adf565b6145d3838c8b6145a86156f0565b9151635a2d572960e11b81526001600160a01b03909216908201908152909283918291602090910190565b0381855afa801561163c57614632926145fe60028f9360ff905f968791614a9b575b50161015614b35565b8b6146076156f0565b925163fb3551ff60e01b81526001600160a01b03909316908301908152919384928391829160200190565b03915afa90811561163c5761130f60e061465d93614658935f91613f4757500151151590565b614b6f565b600387101580614a91575b61467190614bb2565b670de0b6b3a764000085101580614a7d575b61468c90614bef565b6146978b1515614c2d565b6003546001600160a01b0399908a16838c82614a0b575b5050506146d16146cc61130f6112e2845f52600960205260405f2090565b614ca3565b6146e661275b825f52600960205260405f2090565b6146f261144e8761421b565b91614707678ac7230489e80000841015614ce7565b5f548c90614758908690614723906001600160a01b03166112a5565b928d61472d6156f0565b91516370a0823160e01b81526001600160a01b03909216908201908152909283918291602090910190565b0381855afa90811561163c576147c6928f5f8f916147838a8c97819785916149ee575b501015614d2a565b61478b6156f0565b90516323b872dd60e01b81526001600160a01b0390911692810192835230602084015260408301949094529294859384929091839160600190565b03925af1801561163c576149d1575b506001546147eb906001600160a01b03166112a5565b6147f36156f0565b90803b15610650578d516331ba14cf60e11b81526001600160a01b03909216828d01908152602081018690525f91839182908490829060400103925af1801561163c576149be575b5089549c6148488e614d6f565b6004556148536156f0565b9461485c611bcc565b6001600160a01b039096168652614874368c8c611c21565b90860152614883368888611c21565b8d860152876060860152369061489892611c21565b608084015260a083015260c0820152600160e08201524261010082015261012081015f905261014081015f90526148d78a5f52600560205260405f2090565b906148e191614e9b565b6001546001600160a01b0316956148f66156f0565b873b1561065057614944975f92838c51809b81958294633111036160e11b8452830160809160018060a01b031681526040602082015260046040820152631b1a5cdd60e21b60608201520190565b03925af192831561163c5789977f26dc573051b6e7e62d2ca5bd31b932014d45995bfbe6718812734201da96142397614991956149ab575b506149856156f0565b16985195869586614f72565b0390a390610a3660015f8051602061590c83398151915255565b806116306149b8926109c2565b5f61497c565b806116306149cb926109c2565b5f61483b565b6149e790853d871161181f5761180f81836109d5565b505f6147d5565b614a059150893d8b1161185e5761184f81836109d5565b5f61477b565b614a43928c614a186156f0565b925163d386df2360e01b81526001600160a01b03909316908301908152919384928391829160200190565b03915afa801561163c57614a5e915f91614a66575015614c69565b5f838c6146ae565b613ad99150853d871161181f5761180f81836109d5565b5069d3c21bcecceda1000000851115614683565b5089871115614668565b614abb91508a3d8c11614ac1575b614ab381836109d5565b810190614b20565b5f6145f5565b503d614aa9565b613b139150853d871161181f5761180f81836109d5565b15614ae657565b60405162461bcd60e51b815260206004820152601260248201527112d4ce881b9bdd081c9959da5cdd195c995960721b6044820152606490fd5b90816020910312610650575161406b81612120565b15614b3c57565b60405162461bcd60e51b815260206004820152600b60248201526a4b533a207469657220322b60a81b6044820152606490fd5b15614b7657565b60405162461bcd60e51b815260206004820152601460248201527312d4ce8818db19585c881919589d08199a5c9cdd60621b6044820152606490fd5b15614bb957565b60405162461bcd60e51b815260206004820152600e60248201526d12d4ce881d1a5d1b19480ccb4d8d60921b6044820152606490fd5b15614bf657565b60405162461bcd60e51b815260206004820152600f60248201526e4b533a2070726963652072616e676560881b6044820152606490fd5b15614c3457565b60405162461bcd60e51b815260206004820152600d60248201526c12d4ce88195b5c1d1e4810d251609a1b6044820152606490fd5b15614c7057565b60405162461bcd60e51b815260206004820152600b60248201526a4b533a2072657374696e6760a81b6044820152606490fd5b15614caa57565b60405162461bcd60e51b815260206004820152601560248201527412d4ce88191d5c1b1a58d85d194818dbdb9d195b9d605a1b6044820152606490fd5b15614cee57565b60405162461bcd60e51b815260206004820152601460248201527312d4ce881b5a5b881cdd185ad9480c4c0810d2d560621b6044820152606490fd5b15614d3157565b60405162461bcd60e51b81526020600482015260166024820152754b533a20696e73756666696369656e74207374616b6560501b6044820152606490fd5b5f1981146141565760010190565b601f8211614d8a57505050565b5f5260205f20906020601f840160051c83019310614dc2575b601f0160051c01905b818110614db7575050565b5f8155600101614dac565b9091508190614da3565b91909182516001600160401b0381116109a257614df381614ded845461093a565b84614d7d565b602080601f8311600114614e3457508190614e259394955f92614e29575b50508160011b915f199060031b1c19161790565b9055565b015190505f80614e11565b90601f19831695614e48855f5260205f2090565b925f905b888210614e8357505083600195969710614e6b575b505050811b019055565b01515f1960f88460031b161c191690555f8080614e61565b80600185968294968601518155019501930190614e4c565b815181546001600160a01b0319166001600160a01b0390911617815590600a9061014090614ed0602082015160018601614dcc565b614ee1604082015160028601614dcc565b60608101516003850155614efc608082015160048601614dcc565b60a0810151600585015560c08101516006850155614f35614f2060e0830151151590565b600786019060ff801983541691151516179055565b610100810151600885015561012081015160098501550151910155565b908060209392818452848401375f828201840152601f01601f1916010190565b90614f8c9061406b96949593606084526060840191614f52565b9360208201526040818503910152614f52565b919091614faa6157eb565b614fb26157eb565b6001600160a01b039081169081151580615079575b8061506e575b156150395761502693615009926001600160601b0360a01b5f5416175f551660018060a01b03166001600160601b0360a01b6001541617600155565b60018060a01b03166001600160601b0360a01b6002541617600255565b6150366150316156f0565b6154f4565b50565b60405162461bcd60e51b815260206004820152600d60248201526c25a99d103d32b9379030b2323960991b6044820152606490fd5b508083161515614fcd565b508084161515614fc7565b1561508b57565b60405162461bcd60e51b815260206004820152601b60248201527f4b533a207573652070757263686173654b6e6f776c65646765563200000000006044820152606490fd5b156150d757565b60405162461bcd60e51b81526020600482015260116024820152704b533a2073656c662d707572636861736560781b6044820152606490fd5b1561511757565b60405162461bcd60e51b815260206004820152602260248201527f4b533a207265766965772070656e64696e6720707572636861736573206669726044820152611cdd60f21b6064820152608490fd5b1561516e57565b60405162461bcd60e51b815260206004820152601460248201527312d4ce881a5b9cdd59999a58da595b9d0810d2d560621b6044820152606490fd5b156151b157565b60405162461bcd60e51b815260206004820152601560248201527412d4ce88185b1c9958591e481c1d5c98da185cd959605a1b6044820152606490fd5b815181546001600160a01b0319166001600160a01b039190911617815560a090600490602084015160018201556040840151600282015560608401516003820155019161524d60808201511515849060ff801983541691151516179055565b0151815461ff00191690151560081b61ff0016179055565b1561526c57565b60405162461bcd60e51b815260206004820152601a60248201527f4b533a2075736520656e637279707465642064656c69766572790000000000006044820152606490fd5b5f8051602061590c83398151915260028154146152ce5760029055565b604051633ee5aeb560e01b8152600490fd5b60ff5f805160206158ec83398151915254166152f857565b60405163d93c066560e01b8152600490fd5b601e546001600160a01b0316908115615374575f918291604051818192858337810184815203915af43d1561536c573d9061534482611c06565b9161535260405193846109d5565b82523d5f602084013e5b156153645790565b602081519101fd5b60609061535c565b60405162461bcd60e51b815260206004820152601360248201527212d4ce881d8c881b5bd91d5b19481d5b9cd95d606a1b6044820152606490fd5b6153b76156f0565b6001600160a01b0381165f9081527fb7db2dd08fcb62d0c9e08c51941cae53c267786a0b75803fb7960902fc8ef97d602052604090205460ff16156153f95750565b60405163e2517d3f60e01b81526001600160a01b0390911660048201525f6024820152604490fd5b6154296156f0565b6001600160a01b0381165f9081527f1a6cd9a7b8103b1ac8ae3acbee9fd0afe79825cbeda582da2cdf52e70cae65a9602052604090207fba279271fb7bbf76a6f3df3cc57bf80647fcafdea60ec3383d90f459de74e7c09060ff905b541615615490575050565b60405163e2517d3f60e01b81526001600160a01b039092166004830152602482015260449150fd5b6154c06156f0565b90805f525f805160206158cc83398151915260205260ff6154858360405f209060018060a01b03165f5260205260405f2090565b6001600160a01b0381165f9081527fb7db2dd08fcb62d0c9e08c51941cae53c267786a0b75803fb7960902fc8ef97d60205260409020545f805160206158cc8339815191529060ff166155a9575f808052602091825260408082206001600160a01b038516835290925220805460ff191660011790556155726156f0565b6001600160a01b0390811691165f7f2f8788117e7eff1d82e926ec794901d17c78024a50270940304540a733656f0d8180a4600190565b50505f90565b5f8181525f805160206158cc833981519152602081815260408084206001600160a01b03871685529091529091205460ff1661564d575f828152602091825260408082206001600160a01b038616835290925220805460ff191660011790556156166156f0565b6001600160a01b039081169216907f2f8788117e7eff1d82e926ec794901d17c78024a50270940304540a733656f0d5f80a4600190565b5050505f90565b5f8181525f805160206158cc833981519152602081815260408084206001600160a01b03871685529091529091205460ff161561564d575f828152602091825260408082206001600160a01b038616835290925220805460ff191690556156b96156f0565b6001600160a01b039081169216907ff6391f5c32d9c69d2a47ea670b442974b53935d1edc7fd64eb21e047a839171b5f80a4600190565b601436101580615717575b15615713576013193601368111610650573560601c90565b3390565b50337f00000000000000000000000000000000000000000000000000000000000000006001600160a01b0316146156fb565b90813b156157ca575f805160206158ac83398151915280546001600160a01b0319166001600160a01b0384169081179091557fbc7cd75a20ee27fd9adebab32041f755214dbc6bffa90cc0225b39da2e5c2d3b5f80a28051156157af5761503691615819565b5050346157b857565b60405163b398979f60e01b8152600490fd5b604051634c9c8ce360e01b81526001600160a01b0383166004820152602490fd5b60ff5f8051602061592c8339815191525460401c161561580757565b604051631afcd79f60e31b8152600490fd5b905f8091602081519101845af4808061587f575b1561583c57505061406b615892565b1561586457604051639996b31560e01b81526001600160a01b03919091166004820152602490fd5b3d15155f036141a65760405163d6bda27560e01b8152600490fd5b503d15158061582d5750813b151561582d565b604051903d82523d5f602084013e60203d83010160405256fe360894a13ba1a3210667c828492db98dca3e2076cc3735a920a3ca505d382bbc02dd7bc7dec4dceedda775e58dd541e08a116c6c53815c0bd028192f7b626800cd5ed15c6e187e77e9aee88184c21f4f2182ab5827cb3b7e07fbedcd63f033009b779b17422d0df92223018b32b4d1fa46e071723d6817e2486d003becc55f00f0c57e16840df040f15088dc2f81fe391c3923bec73e23a9662efc9c229c6a00a264697066735822122048d81d536a3e53e3fca0559dd0eca4cd4d3e801828d6642b299f78057f23ab3864736f6c63430008180033","linkReferences":{}},"methodIdentifiers":{"AUTO_REVIEW_PERIOD()":"0e327030","BURN_PERCENT()":"9c986764","DEBT_DEDUCTION_PERCENT()":"a4ede5eb","DEFAULT_ADMIN_ROLE()":"a217fddf","DELIVERY_DEADLINE()":"16b5219e","FEE_PERCENT()":"eaf98d23","MAX_PRICE()":"01c11d96","MIN_PRICE()":"ad9f20a6","OWNER_PERCENT()":"2e1371bd","PROTOCOL_ROLE()":"02768de4","REFUND_REASON_INVALID_DELIVERY_CONFIG()":"61209b47","REFUND_REASON_SELLER_CANCELLED()":"b38deb80","REFUND_REASON_STALE_OR_INCONSISTENT_BUYER_TX()":"024b8993","REFUND_REASON_UNSUPPORTED_BUYER_KEY()":"0442762e","SLASH_PERCENT()":"f6e8913d","STAKE_PERCENT()":"61c2649e","UNDELIVERY_REP_PENALTY()":"f7f31759","UPGRADE_INTERFACE_VERSION()":"ad3cb1cc","acceptDelivery(uint256)":"7b422c4c","buyerBondAmount(uint256)":"f5c0b48c","buyerBondForfeited(uint256)":"1f175594","buyerPurchases(bytes32)":"ac8919c9","buyerUndeliveredRefundReceivedCount(address)":"cb0ff255","challengeDeliveryObjective(uint256,uint8,bytes32)":"c8e9ab4a","challengeDeliverySubjective(uint256,bytes32)":"f086075a","challengedAt(uint256)":"4a044932","ciphertextHash(uint256)":"02b9bc63","ckt()":"79021310","claimUndelivered(uint256)":"42ad6930","contentHashExists(bytes32)":"5f7668ce","creditApplied(uint256)":"a8ad0daa","deactivate(uint256)":"916b9bef","deliverEncryptedKey(uint256,bytes,bytes32)":"97a4bb23","deliverKey(uint256)":"fc4126df","deliveredAt(uint256)":"d11ac988","deliveryAttemptCount(uint256)":"8c5b2293","deliveryState(uint256)":"99dc8654","explicitReviewSubmitted(uint256)":"75e1cf24","explicitSellerScoreByPurchase(uint256)":"2128a4bc","feeRecipient()":"46904840","finalizeCleanTimeout(uint256)":"29125ebb","finalizeUndelivered(uint256)":"01d7b245","forceDeactivateAndBurnStake(uint256)":"5689cbba","getKnowledge(uint256)":"28e7b2a6","getPrivateKnowledgeMeta(uint256)":"91722912","getPurchase(uint256)":"3742a9f7","getRoleAdmin(bytes32)":"248a9ca3","getWrappedKey(uint256)":"fe7992c2","grantRole(bytes32,address)":"2f2ff15d","hasRole(bytes32,address)":"91d14854","initialize(address,address,address)":"c0c53b8b","isTrustedForwarder(address)":"572b6c05","knowledgeItems(uint256)":"1018c5f9","knowledgeMode(uint256)":"7e92b854","knowledgeUndeliveredRefundCount(uint256)":"a417ee6d","list(string,string,uint256,string,bytes32)":"a07dcd46","listPrivateKnowledge(string,string,uint256,string,string,bytes32,bytes32)":"0ab254af","listPrivateKnowledgeWithLimit(string,string,uint256,string,string,bytes32,bytes32,uint256)":"f665986e","listPublicKnowledgeV2(string,string,uint256,string,string,bytes32)":"b7a17a9d","maxSalesByKnowledge(uint256)":"55a5f255","nextKnowledgeId()":"310f1371","nextPurchaseId()":"23b4a7a3","pause()":"8456cb59","paused()":"5c975abb","payoutReleased(uint256)":"7021f1a3","proxiableUUID()":"52d1902d","purchase(uint256)":"efef39a1","purchaseDeliveryConfigSnapshot(uint256)":"3b0ecb61","purchaseDeliveryConfigURI(uint256)":"cdec2cd1","purchaseKnowledgeV2(uint256)":"d468fec6","purchases(uint256)":"8392fe31","redeliverEncryptedKey(uint256,bytes,bytes32)":"ceea2f5a","redeliveredAt(uint256)":"927f9c99","refundReleased(uint256)":"77c50e9d","refundUndeliveredPurchase(uint256,uint8)":"b2a6dcb8","registry()":"7b103999","renounceRole(bytes32,address)":"36568abe","reopenSales(uint256)":"1479b25e","reputationContract()":"87bc1425","rescueApplied(uint256)":"073080c7","rescueRefundPrivatePurchase(uint256,uint8)":"5e18963b","review(uint256,uint256,uint256)":"8ddad6ac","revokeRole(bytes32,address)":"d547741f","salesOpen(uint256)":"262737cd","sellerUndeliveredRefundCount(address)":"acba20b1","setFeeRecipient(address)":"e74b981b","setReputationContract(address)":"9584660f","setSaleLimit(uint256,uint256)":"1a337c96","setTempoReward(address)":"1b32008f","setV2Module(address)":"03eff37b","stopSales(uint256)":"c1d6c941","supportsInterface(bytes4)":"01ffc9a7","tempoReward()":"39d006cb","triggerAutoReview(uint256)":"4d20372e","trustedForwarder()":"7da0a877","undeliveredRefundReason(uint256)":"d582d36e","undeliveredSellerRefundApplied(uint256)":"3ec432c6","unpause()":"3f4ba83a","upgradeToAndCall(address,bytes)":"4f1ef286","v2Module()":"575660c2","wrappedKeyHashByPurchase(uint256)":"fece90f5"},"id":53}