{"abi":[{"type":"constructor","inputs":[{"name":"trustedForwarder","type":"address","internalType":"address"}],"stateMutability":"nonpayable"},{"type":"function","name":"AUTO_REVIEW_PERIOD","inputs":[],"outputs":[{"name":"","type":"uint256","internalType":"uint256"}],"stateMutability":"view"},{"type":"function","name":"BURN_PERCENT","inputs":[],"outputs":[{"name":"","type":"uint256","internalType":"uint256"}],"stateMutability":"view"},{"type":"function","name":"BUYER_RESPONSE_DEADLINE","inputs":[],"outputs":[{"name":"","type":"uint256","internalType":"uint256"}],"stateMutability":"view"},{"type":"function","name":"DEBT_DEDUCTION_PERCENT","inputs":[],"outputs":[{"name":"","type":"uint256","internalType":"uint256"}],"stateMutability":"view"},{"type":"function","name":"DEFAULT_ADMIN_ROLE","inputs":[],"outputs":[{"name":"","type":"bytes32","internalType":"bytes32"}],"stateMutability":"view"},{"type":"function","name":"DELIVERY_DEADLINE","inputs":[],"outputs":[{"name":"","type":"uint256","internalType":"uint256"}],"stateMutability":"view"},{"type":"function","name":"FEE_PERCENT","inputs":[],"outputs":[{"name":"","type":"uint256","internalType":"uint256"}],"stateMutability":"view"},{"type":"function","name":"MAX_PRICE","inputs":[],"outputs":[{"name":"","type":"uint256","internalType":"uint256"}],"stateMutability":"view"},{"type":"function","name":"MAX_WRAPPED_KEY_BYTES","inputs":[],"outputs":[{"name":"","type":"uint256","internalType":"uint256"}],"stateMutability":"view"},{"type":"function","name":"MIN_PRICE","inputs":[],"outputs":[{"name":"","type":"uint256","internalType":"uint256"}],"stateMutability":"view"},{"type":"function","name":"OBJECTIVE_REASON_EMPTY_WRAPPED_KEY","inputs":[],"outputs":[{"name":"","type":"uint8","internalType":"uint8"}],"stateMutability":"view"},{"type":"function","name":"OBJECTIVE_REASON_OVERSIZED_WRAPPED_KEY","inputs":[],"outputs":[{"name":"","type":"uint8","internalType":"uint8"}],"stateMutability":"view"},{"type":"function","name":"OWNER_PERCENT","inputs":[],"outputs":[{"name":"","type":"uint256","internalType":"uint256"}],"stateMutability":"view"},{"type":"function","name":"PROTOCOL_ROLE","inputs":[],"outputs":[{"name":"","type":"bytes32","internalType":"bytes32"}],"stateMutability":"view"},{"type":"function","name":"SLASH_PERCENT","inputs":[],"outputs":[{"name":"","type":"uint256","internalType":"uint256"}],"stateMutability":"view"},{"type":"function","name":"STAKE_PERCENT","inputs":[],"outputs":[{"name":"","type":"uint256","internalType":"uint256"}],"stateMutability":"view"},{"type":"function","name":"acceptDelivery","inputs":[{"name":"purchaseId","type":"uint256","internalType":"uint256"}],"outputs":[],"stateMutability":"nonpayable"},{"type":"function","name":"buyerBondAmount","inputs":[{"name":"","type":"uint256","internalType":"uint256"}],"outputs":[{"name":"","type":"uint256","internalType":"uint256"}],"stateMutability":"view"},{"type":"function","name":"buyerBondForfeited","inputs":[{"name":"","type":"uint256","internalType":"uint256"}],"outputs":[{"name":"","type":"bool","internalType":"bool"}],"stateMutability":"view"},{"type":"function","name":"buyerPurchases","inputs":[{"name":"","type":"bytes32","internalType":"bytes32"}],"outputs":[{"name":"","type":"uint256","internalType":"uint256"}],"stateMutability":"view"},{"type":"function","name":"challengeDeliveryObjective","inputs":[{"name":"purchaseId","type":"uint256","internalType":"uint256"},{"name":"reasonCode","type":"uint8","internalType":"uint8"},{"name":"evidenceHash","type":"bytes32","internalType":"bytes32"}],"outputs":[],"stateMutability":"nonpayable"},{"type":"function","name":"challengeDeliverySubjective","inputs":[{"name":"purchaseId","type":"uint256","internalType":"uint256"},{"name":"evidenceHash","type":"bytes32","internalType":"bytes32"}],"outputs":[],"stateMutability":"nonpayable"},{"type":"function","name":"challengedAt","inputs":[{"name":"","type":"uint256","internalType":"uint256"}],"outputs":[{"name":"","type":"uint64","internalType":"uint64"}],"stateMutability":"view"},{"type":"function","name":"ciphertextHash","inputs":[{"name":"","type":"uint256","internalType":"uint256"}],"outputs":[{"name":"","type":"bytes32","internalType":"bytes32"}],"stateMutability":"view"},{"type":"function","name":"ckt","inputs":[],"outputs":[{"name":"","type":"address","internalType":"contract CKT"}],"stateMutability":"view"},{"type":"function","name":"contentHashExists","inputs":[{"name":"","type":"bytes32","internalType":"bytes32"}],"outputs":[{"name":"","type":"bool","internalType":"bool"}],"stateMutability":"view"},{"type":"function","name":"creditApplied","inputs":[{"name":"","type":"uint256","internalType":"uint256"}],"outputs":[{"name":"","type":"bool","internalType":"bool"}],"stateMutability":"view"},{"type":"function","name":"deliverEncryptedKey","inputs":[{"name":"purchaseId","type":"uint256","internalType":"uint256"},{"name":"wrappedKey","type":"bytes","internalType":"bytes"},{"name":"wrappedKeyHash","type":"bytes32","internalType":"bytes32"}],"outputs":[],"stateMutability":"nonpayable"},{"type":"function","name":"deliveredAt","inputs":[{"name":"","type":"uint256","internalType":"uint256"}],"outputs":[{"name":"","type":"uint64","internalType":"uint64"}],"stateMutability":"view"},{"type":"function","name":"deliveryAttemptCount","inputs":[{"name":"","type":"uint256","internalType":"uint256"}],"outputs":[{"name":"","type":"uint8","internalType":"uint8"}],"stateMutability":"view"},{"type":"function","name":"deliveryState","inputs":[{"name":"","type":"uint256","internalType":"uint256"}],"outputs":[{"name":"","type":"uint8","internalType":"enum KnowledgeStoreV2DeliveryModule.DeliveryState"}],"stateMutability":"view"},{"type":"function","name":"explicitReviewSubmitted","inputs":[{"name":"","type":"uint256","internalType":"uint256"}],"outputs":[{"name":"","type":"bool","internalType":"bool"}],"stateMutability":"view"},{"type":"function","name":"explicitSellerScoreByPurchase","inputs":[{"name":"","type":"uint256","internalType":"uint256"}],"outputs":[{"name":"","type":"uint256","internalType":"uint256"}],"stateMutability":"view"},{"type":"function","name":"feeRecipient","inputs":[],"outputs":[{"name":"","type":"address","internalType":"address"}],"stateMutability":"view"},{"type":"function","name":"finalizeCleanTimeout","inputs":[{"name":"purchaseId","type":"uint256","internalType":"uint256"}],"outputs":[],"stateMutability":"nonpayable"},{"type":"function","name":"finalizeUndelivered","inputs":[{"name":"purchaseId","type":"uint256","internalType":"uint256"}],"outputs":[],"stateMutability":"nonpayable"},{"type":"function","name":"getRoleAdmin","inputs":[{"name":"role","type":"bytes32","internalType":"bytes32"}],"outputs":[{"name":"","type":"bytes32","internalType":"bytes32"}],"stateMutability":"view"},{"type":"function","name":"getWrappedKey","inputs":[{"name":"purchaseId","type":"uint256","internalType":"uint256"}],"outputs":[{"name":"wrappedKey","type":"bytes","internalType":"bytes"},{"name":"wrappedKeyHash","type":"bytes32","internalType":"bytes32"}],"stateMutability":"view"},{"type":"function","name":"grantRole","inputs":[{"name":"role","type":"bytes32","internalType":"bytes32"},{"name":"account","type":"address","internalType":"address"}],"outputs":[],"stateMutability":"nonpayable"},{"type":"function","name":"hasRole","inputs":[{"name":"role","type":"bytes32","internalType":"bytes32"},{"name":"account","type":"address","internalType":"address"}],"outputs":[{"name":"","type":"bool","internalType":"bool"}],"stateMutability":"view"},{"type":"function","name":"isTrustedForwarder","inputs":[{"name":"forwarder","type":"address","internalType":"address"}],"outputs":[{"name":"","type":"bool","internalType":"bool"}],"stateMutability":"view"},{"type":"function","name":"knowledgeItems","inputs":[{"name":"","type":"uint256","internalType":"uint256"}],"outputs":[{"name":"seller","type":"address","internalType":"address"},{"name":"title","type":"string","internalType":"string"},{"name":"tags","type":"string","internalType":"string"},{"name":"price","type":"uint256","internalType":"uint256"},{"name":"ipfsCID","type":"string","internalType":"string"},{"name":"contentHash","type":"bytes32","internalType":"bytes32"},{"name":"stakeAmount","type":"uint256","internalType":"uint256"},{"name":"active","type":"bool","internalType":"bool"},{"name":"listedAt","type":"uint256","internalType":"uint256"},{"name":"salesCount","type":"uint256","internalType":"uint256"},{"name":"pendingDeliveries","type":"uint256","internalType":"uint256"}],"stateMutability":"view"},{"type":"function","name":"knowledgeMode","inputs":[{"name":"","type":"uint256","internalType":"uint256"}],"outputs":[{"name":"","type":"uint8","internalType":"enum KnowledgeStoreV2DeliveryModule.KnowledgeMode"}],"stateMutability":"view"},{"type":"function","name":"maxSalesByKnowledge","inputs":[{"name":"","type":"uint256","internalType":"uint256"}],"outputs":[{"name":"","type":"uint256","internalType":"uint256"}],"stateMutability":"view"},{"type":"function","name":"nextKnowledgeId","inputs":[],"outputs":[{"name":"","type":"uint256","internalType":"uint256"}],"stateMutability":"view"},{"type":"function","name":"nextPurchaseId","inputs":[],"outputs":[{"name":"","type":"uint256","internalType":"uint256"}],"stateMutability":"view"},{"type":"function","name":"payoutReleased","inputs":[{"name":"","type":"uint256","internalType":"uint256"}],"outputs":[{"name":"","type":"bool","internalType":"bool"}],"stateMutability":"view"},{"type":"function","name":"purchaseDeliveryConfigSnapshot","inputs":[{"name":"","type":"uint256","internalType":"uint256"}],"outputs":[{"name":"","type":"bytes32","internalType":"bytes32"}],"stateMutability":"view"},{"type":"function","name":"purchaseDeliveryConfigURI","inputs":[{"name":"","type":"uint256","internalType":"uint256"}],"outputs":[{"name":"","type":"string","internalType":"string"}],"stateMutability":"view"},{"type":"function","name":"purchases","inputs":[{"name":"","type":"uint256","internalType":"uint256"}],"outputs":[{"name":"buyer","type":"address","internalType":"address"},{"name":"knowledgeId","type":"uint256","internalType":"uint256"},{"name":"paidAmount","type":"uint256","internalType":"uint256"},{"name":"purchasedAt","type":"uint256","internalType":"uint256"},{"name":"delivered","type":"bool","internalType":"bool"},{"name":"reviewed","type":"bool","internalType":"bool"}],"stateMutability":"view"},{"type":"function","name":"redeliverEncryptedKey","inputs":[{"name":"purchaseId","type":"uint256","internalType":"uint256"},{"name":"wrappedKey","type":"bytes","internalType":"bytes"},{"name":"wrappedKeyHash","type":"bytes32","internalType":"bytes32"}],"outputs":[],"stateMutability":"nonpayable"},{"type":"function","name":"redeliveredAt","inputs":[{"name":"","type":"uint256","internalType":"uint256"}],"outputs":[{"name":"","type":"uint64","internalType":"uint64"}],"stateMutability":"view"},{"type":"function","name":"refundReleased","inputs":[{"name":"","type":"uint256","internalType":"uint256"}],"outputs":[{"name":"","type":"bool","internalType":"bool"}],"stateMutability":"view"},{"type":"function","name":"registry","inputs":[],"outputs":[{"name":"","type":"address","internalType":"contract AgentRegistry"}],"stateMutability":"view"},{"type":"function","name":"renounceRole","inputs":[{"name":"role","type":"bytes32","internalType":"bytes32"},{"name":"callerConfirmation","type":"address","internalType":"address"}],"outputs":[],"stateMutability":"nonpayable"},{"type":"function","name":"reputationContract","inputs":[],"outputs":[{"name":"","type":"address","internalType":"address"}],"stateMutability":"view"},{"type":"function","name":"rescueApplied","inputs":[{"name":"","type":"uint256","internalType":"uint256"}],"outputs":[{"name":"","type":"bool","internalType":"bool"}],"stateMutability":"view"},{"type":"function","name":"rescueRefundPrivatePurchase","inputs":[{"name":"purchaseId","type":"uint256","internalType":"uint256"},{"name":"reason","type":"uint8","internalType":"uint8"}],"outputs":[],"stateMutability":"nonpayable"},{"type":"function","name":"revokeRole","inputs":[{"name":"role","type":"bytes32","internalType":"bytes32"},{"name":"account","type":"address","internalType":"address"}],"outputs":[],"stateMutability":"nonpayable"},{"type":"function","name":"salesOpen","inputs":[{"name":"","type":"uint256","internalType":"uint256"}],"outputs":[{"name":"","type":"bool","internalType":"bool"}],"stateMutability":"view"},{"type":"function","name":"supportsInterface","inputs":[{"name":"interfaceId","type":"bytes4","internalType":"bytes4"}],"outputs":[{"name":"","type":"bool","internalType":"bool"}],"stateMutability":"view"},{"type":"function","name":"tempoReward","inputs":[],"outputs":[{"name":"","type":"address","internalType":"contract TempoReward"}],"stateMutability":"view"},{"type":"function","name":"trustedForwarder","inputs":[],"outputs":[{"name":"","type":"address","internalType":"address"}],"stateMutability":"view"},{"type":"function","name":"v2Module","inputs":[],"outputs":[{"name":"","type":"address","internalType":"address"}],"stateMutability":"view"},{"type":"function","name":"wrappedKeyHashByPurchase","inputs":[{"name":"","type":"uint256","internalType":"uint256"}],"outputs":[{"name":"","type":"bytes32","internalType":"bytes32"}],"stateMutability":"view"},{"type":"event","name":"AutoReviewApplied","inputs":[{"name":"purchaseId","type":"uint256","indexed":true,"internalType":"uint256"}],"anonymous":false},{"type":"event","name":"BuyerBondForfeited","inputs":[{"name":"purchaseId","type":"uint256","indexed":true,"internalType":"uint256"},{"name":"amount","type":"uint256","indexed":false,"internalType":"uint256"}],"anonymous":false},{"type":"event","name":"DebtDeducted","inputs":[{"name":"seller","type":"address","indexed":true,"internalType":"address"},{"name":"amount","type":"uint256","indexed":false,"internalType":"uint256"}],"anonymous":false},{"type":"event","name":"DeliveryAccepted","inputs":[{"name":"purchaseId","type":"uint256","indexed":true,"internalType":"uint256"},{"name":"buyer","type":"address","indexed":true,"internalType":"address"}],"anonymous":false},{"type":"event","name":"DeliveryChallenged","inputs":[{"name":"purchaseId","type":"uint256","indexed":true,"internalType":"uint256"},{"name":"buyer","type":"address","indexed":true,"internalType":"address"},{"name":"objective","type":"bool","indexed":false,"internalType":"bool"},{"name":"reasonCode","type":"uint8","indexed":false,"internalType":"uint8"},{"name":"evidenceHash","type":"bytes32","indexed":false,"internalType":"bytes32"}],"anonymous":false},{"type":"event","name":"DeliveryCleanFinalized","inputs":[{"name":"purchaseId","type":"uint256","indexed":true,"internalType":"uint256"},{"name":"buyerBondForfeited","type":"bool","indexed":false,"internalType":"bool"}],"anonymous":false},{"type":"event","name":"DeliveryInvalidFinalized","inputs":[{"name":"purchaseId","type":"uint256","indexed":true,"internalType":"uint256"},{"name":"reasonCode","type":"uint8","indexed":false,"internalType":"uint8"}],"anonymous":false},{"type":"event","name":"DeliveryUndeliveredFinalized","inputs":[{"name":"purchaseId","type":"uint256","indexed":true,"internalType":"uint256"}],"anonymous":false},{"type":"event","name":"EncryptedKeyDelivered","inputs":[{"name":"purchaseId","type":"uint256","indexed":true,"internalType":"uint256"},{"name":"seller","type":"address","indexed":true,"internalType":"address"},{"name":"wrappedKeyHash","type":"bytes32","indexed":false,"internalType":"bytes32"},{"name":"attempt","type":"uint8","indexed":false,"internalType":"uint8"}],"anonymous":false},{"type":"event","name":"EncryptedKeyRedelivered","inputs":[{"name":"purchaseId","type":"uint256","indexed":true,"internalType":"uint256"},{"name":"seller","type":"address","indexed":true,"internalType":"address"},{"name":"wrappedKeyHash","type":"bytes32","indexed":false,"internalType":"bytes32"},{"name":"attempt","type":"uint8","indexed":false,"internalType":"uint8"}],"anonymous":false},{"type":"event","name":"Initialized","inputs":[{"name":"version","type":"uint64","indexed":false,"internalType":"uint64"}],"anonymous":false},{"type":"event","name":"KnowledgeDeactivated","inputs":[{"name":"id","type":"uint256","indexed":true,"internalType":"uint256"}],"anonymous":false},{"type":"event","name":"KnowledgeDelivered","inputs":[{"name":"purchaseId","type":"uint256","indexed":true,"internalType":"uint256"},{"name":"seller","type":"address","indexed":true,"internalType":"address"}],"anonymous":false},{"type":"event","name":"KnowledgeListed","inputs":[{"name":"id","type":"uint256","indexed":true,"internalType":"uint256"},{"name":"seller","type":"address","indexed":true,"internalType":"address"},{"name":"title","type":"string","indexed":false,"internalType":"string"},{"name":"price","type":"uint256","indexed":false,"internalType":"uint256"},{"name":"tags","type":"string","indexed":false,"internalType":"string"}],"anonymous":false},{"type":"event","name":"KnowledgeListedV2","inputs":[{"name":"knowledgeId","type":"uint256","indexed":true,"internalType":"uint256"},{"name":"seller","type":"address","indexed":true,"internalType":"address"},{"name":"mode","type":"uint8","indexed":false,"internalType":"uint8"},{"name":"price","type":"uint256","indexed":false,"internalType":"uint256"}],"anonymous":false},{"type":"event","name":"KnowledgePurchased","inputs":[{"name":"purchaseId","type":"uint256","indexed":true,"internalType":"uint256"},{"name":"knowledgeId","type":"uint256","indexed":true,"internalType":"uint256"},{"name":"buyer","type":"address","indexed":true,"internalType":"address"},{"name":"price","type":"uint256","indexed":false,"internalType":"uint256"}],"anonymous":false},{"type":"event","name":"KnowledgeReviewed","inputs":[{"name":"purchaseId","type":"uint256","indexed":true,"internalType":"uint256"},{"name":"productScore","type":"uint256","indexed":false,"internalType":"uint256"},{"name":"sellerScore","type":"uint256","indexed":false,"internalType":"uint256"}],"anonymous":false},{"type":"event","name":"KnowledgeSaleLimitSet","inputs":[{"name":"knowledgeId","type":"uint256","indexed":true,"internalType":"uint256"},{"name":"maxSales","type":"uint256","indexed":false,"internalType":"uint256"}],"anonymous":false},{"type":"event","name":"KnowledgeSalesReopened","inputs":[{"name":"knowledgeId","type":"uint256","indexed":true,"internalType":"uint256"},{"name":"operator","type":"address","indexed":true,"internalType":"address"}],"anonymous":false},{"type":"event","name":"KnowledgeSalesStopped","inputs":[{"name":"knowledgeId","type":"uint256","indexed":true,"internalType":"uint256"},{"name":"operator","type":"address","indexed":true,"internalType":"address"}],"anonymous":false},{"type":"event","name":"PrivateKnowledgePurchased","inputs":[{"name":"purchaseId","type":"uint256","indexed":true,"internalType":"uint256"},{"name":"knowledgeId","type":"uint256","indexed":true,"internalType":"uint256"},{"name":"buyer","type":"address","indexed":true,"internalType":"address"},{"name":"buyerBond","type":"uint256","indexed":false,"internalType":"uint256"}],"anonymous":false},{"type":"event","name":"PrivatePurchaseRescued","inputs":[{"name":"purchaseId","type":"uint256","indexed":true,"internalType":"uint256"},{"name":"knowledgeId","type":"uint256","indexed":true,"internalType":"uint256"},{"name":"buyer","type":"address","indexed":true,"internalType":"address"},{"name":"refundAmount","type":"uint256","indexed":false,"internalType":"uint256"},{"name":"bondRefundAmount","type":"uint256","indexed":false,"internalType":"uint256"},{"name":"reason","type":"uint8","indexed":false,"internalType":"uint8"}],"anonymous":false},{"type":"event","name":"QualifiedMerchantCreditApplied","inputs":[{"name":"purchaseId","type":"uint256","indexed":true,"internalType":"uint256"},{"name":"seller","type":"address","indexed":true,"internalType":"address"},{"name":"buyer","type":"address","indexed":true,"internalType":"address"},{"name":"sellerScore","type":"uint256","indexed":false,"internalType":"uint256"},{"name":"tempoCredited","type":"bool","indexed":false,"internalType":"bool"}],"anonymous":false},{"type":"event","name":"RoleAdminChanged","inputs":[{"name":"role","type":"bytes32","indexed":true,"internalType":"bytes32"},{"name":"previousAdminRole","type":"bytes32","indexed":true,"internalType":"bytes32"},{"name":"newAdminRole","type":"bytes32","indexed":true,"internalType":"bytes32"}],"anonymous":false},{"type":"event","name":"RoleGranted","inputs":[{"name":"role","type":"bytes32","indexed":true,"internalType":"bytes32"},{"name":"account","type":"address","indexed":true,"internalType":"address"},{"name":"sender","type":"address","indexed":true,"internalType":"address"}],"anonymous":false},{"type":"event","name":"RoleRevoked","inputs":[{"name":"role","type":"bytes32","indexed":true,"internalType":"bytes32"},{"name":"account","type":"address","indexed":true,"internalType":"address"},{"name":"sender","type":"address","indexed":true,"internalType":"address"}],"anonymous":false},{"type":"event","name":"StakeSlashed","inputs":[{"name":"knowledgeId","type":"uint256","indexed":true,"internalType":"uint256"},{"name":"seller","type":"address","indexed":true,"internalType":"address"},{"name":"slashedAmount","type":"uint256","indexed":false,"internalType":"uint256"}],"anonymous":false},{"type":"error","name":"AccessControlBadConfirmation","inputs":[]},{"type":"error","name":"AccessControlUnauthorizedAccount","inputs":[{"name":"account","type":"address","internalType":"address"},{"name":"neededRole","type":"bytes32","internalType":"bytes32"}]},{"type":"error","name":"InvalidInitialization","inputs":[]},{"type":"error","name":"NotInitializing","inputs":[]}],"bytecode":{"object":"0x60a0346200007e57601f6200387438819003918201601f19168301916001600160401b0383118484101762000082578084926020946040528339810103126200007e57516001600160a01b03811681036200007e576080526040516137dd9081620000978239608051818181610e6a015281816116a501526137590152f35b5f80fd5b634e487b7160e01b5f52604160045260245ffdfe60806040818152600480361015610014575f80fd5b5f925f3560e01c90816301c11d961461201a5750806301d7b24514611dee57806301ffc9a714611d9957806302768de414611d5e57806302b9bc6314611d37578063073080c714611d0b5780630e32703014611ced5780630fc1845414611cd05780631018c5f914611bec57806316b5219e14611bce5780631f17559414611ba25780632128a4bc14611b7b57806323b4a7a314611b5c578063248a9ca314611b26578063262737cd14611afa57806329125ebb1461186b5780632be67c4f1461184f5780632c1271c3146118335780632e1371bd146118335780632f2ff15d1461180a578063310f1371146117ed57806336568abe1461179c57806339d006cb146117735780633b0ecb611461174c57806346904840146117235780634a044932146116f357806355a5f255146116cd578063572b6c0514611675578063575660c21461164c5780635e18963b146112175780635f7668ce146111eb57806361c2649e146111cf5780637021f1a3146111a357806375e1cf241461117757806377c50e9d1461114b57806379021310146111235780637b103999146110fa5780637b422c4c14610e995780637da0a87714610e555780637e92b85414610e1d5780638392fe3114610db057806387bc142514610d875780638c5b229314610d5d57806391d1485414610d0e578063927f9c9914610cde57806393407b1f14610cc057806397a4bb2314610b8b57806399dc865414610b405780639c98676414610b24578063a217fddf14610b09578063a4ede5eb146103f9578063a8ad0daa14610add578063ac8919c914610ab6578063ad9f20a614610a93578063c8e9ab4a14610817578063cdec2cd1146107d7578063ceea2f5a14610606578063d11ac988146105d6578063d547741f1461058b578063eaf98d231461056b578063f086075a14610425578063f5c0b48c146103fe578063f6e8913d146103f9578063fe7992c2146103155763fece90f5146102eb575f80fd5b346103115760203660031901126103115760209282913581526011845220549051908152f35b8280fd5b503461031157602090816003193601126103f55780359081855260078352838520600181015486526005845284862061034c61372e565b91546001600160a01b03928316908316149182156103dc575b5050156103a357508352601081526103878280852094601184522054936120bc565b9261039b835194848695865285019061217f565b918301520390f35b835162461bcd60e51b8152908101839052601360248201527212d4ce881b9bdd081c185c9d1a58da5c185b9d606a1b6044820152606490fd5b809192506103e861372e565b9254169116145f80610365565b8380fd5b61221a565b50346103115760203660031901126103115760209282913581526019845220549051908152f35b5034610311578160031936011261031157803590818452602090600782528385209061046861045261372e565b92546001600160a01b039384169084161461239d565b8386526013835260ff8587205416600981101561055857600261048b91146123d9565b838652601583526001600160401b039081868820541661051c5750916060917f327d9ab8b3ef21fec285efb953712a02a97c4ce0eb330c06d179d1fec368a8c99385885260138352868820600360ff19825416179055858852601583528688209042166001600160401b031982541617905561050561372e565b16948681519281845283015260243590820152a380f35b855162461bcd60e51b8152908101849052601660248201527512d4ce88185b1c9958591e4818da185b1b195b99d95960521b6044820152606490fd5b634e487b7160e01b875260218252602487fd5b5050346105875781600319360112610587576020905160058152f35b5080fd5b5090346103115780600319360112610311576105d291356105cd60016105af6121a4565b938387525f805160206137888339815191526020528620015461247a565b61256f565b5080f35b503461031157602036600319011261031157816020936001600160401b0392358152601485522054169051908152f35b50903461031157610616366121ca565b9183879594955260209560078752848820600181015489526005885285892093600b895260ff878b20541660038110156107c457600261065691146122ed565b61067761066161372e565b95546001600160a01b03968716908716146123f9565b878a526013895260ff878b20541660098110156107c457600361069a91146123d9565b878a52601589526001600160401b039384888c2054166201518081018091116107b1576106c99042111561225d565b888b5260128a52600160ff898d205416036107755791610713877fed8f28ed0756305b19653f4c072ac6d66d52c78ce8a416e70ec8f9f34fbd58d79998979593600297958c612615565b0160ff1990600182825416179055878a5260128952858a208482825416179055601389526005868b2091825416179055868952601688528489209042166001600160401b031982541617905561076761372e565b16958351928352820152a380f35b875162461bcd60e51b81528085018b9052601660248201527512d4ce881b9bc81c9959195b1a5d995c9e481b19599d60521b6044820152606490fd5b634e487b7160e01b8c526011855260248cfd5b634e487b7160e01b8b526021845260248bfd5b5034610311576020366003190112610311578161081393610800923581526021602052206120bc565b905191829160208352602083019061217f565b0390f35b5034610311576060366003190112610311578035916108346121ba565b838552602091600783528086209361086361084d61372e565b95546001600160a01b039687169087161461239d565b8587526013845260ff82882054166009811015610a80576002148015610a60575b61088d906123d9565b6108978387612847565b15610a1f57858752601384528187209060ff19918183825416179055856108bc61372e565b16877f327d9ab8b3ef21fec285efb953712a02a97c4ce0eb330c06d179d1fec368a8c9606060ff87519860018a521697888a82015260443588820152a38688526007855282882090600182015496878a5260058752848a2093898b526013885260ff868c2054166009811015610a0c579061093e60088d969594931415612436565b8a85526013895260088786209182541617905581830161010061ff00198254161790558060015416925416823b156103f557602484928388519586948593638fe80d9560e01b85528401525af18015610a02576109ea575b50507f1d0aaaf60e4a68644db764ad1504d02924c57ea1b5b2111e112f9b2dc0efbcfd9481600a6109e293016109cc8154612370565b90556109d7886128a0565b600381015491612988565b51908152a280f35b6109f390612074565b6109fe57865f610996565b8680fd5b84513d84823e3d90fd5b634e487b7160e01b8c526021845260248cfd5b83606492519162461bcd60e51b8352820152601b60248201527f4b533a206e6f74206f626a6563746976656c7920696e76616c696400000000006044820152fd5b508587526013845260ff82882054166009811015610a8057600514610884565b634e487b7160e01b885260218252602488fd5b50503461058757816003193601126105875760209051670de0b6b3a76400008152f35b50346103115760203660031901126103115760209282913581526008845220549051908152f35b5034610311576020366003190112610311578160209360ff923581526018855220541690519015158152f35b50503461058757816003193601126105875751908152602090f35b5090346103115782600319360112610311576020925051908152f35b509190346105875760203660031901126105875782358252601360205260ff81832054169051916009821015610b7857602083838152f35b634e487b7160e01b815260218452602490fd5b5091903461058757610b9c366121ca565b9093918386526020946007865283872090600182015488526005875284882092600b885260ff868a2054166003811015610cad576002610bdc91146122ed565b610bfd610be761372e565b94546001600160a01b03958616908616146123f9565b8689526013885260ff868a2054166009811015610cad5792610c53867f84fb704e368adf6a6663d1d8de81d7c9594896ccc973e5ffa197810d76d8f3ab989796948d94610c4d60018099146123d9565b8b612615565b0160ff19908382825416179055868952601288528489208382825416179055601388526002858a2091825416179055858852601487528388206001600160401b0342166001600160401b031982541617905561076761372e565b634e487b7160e01b8a5260218b5260248afd5b505034610587578160031936011261058757602090516203f4808152f35b503461031157602036600319011261031157816020936001600160401b0392358152601685522054169051908152f35b503461031157816003193601126103115781602093610d2b6121a4565b923581525f805160206137888339815191528552209060018060a01b03165f52825260ff815f20541690519015158152f35b5034610311576020366003190112610311578160209360ff92358152601285522054169051908152f35b50503461058757816003193601126105875760035490516001600160a01b039091168152602090f35b509034610311576020366003190112610311578060ff9160c0948435815260076020522060018060a01b03815416936001820154926002830154916003840154930154938151968752602087015285015260608401528181161515608084015260081c16151560a0820152f35b509190346105875760203660031901126105875782358252600b60205260ff81832054169051916003821015610b7857602083838152f35b505034610587578160031936011261058757517f00000000000000000000000000000000000000000000000000000000000000006001600160a01b03168152602090f35b509034610311576020806003193601126103f5578235928385526007825282852092610edc610ec661372e565b94546001600160a01b039586169086161461239d565b8486526013835260ff818720541660098110156110e75760021480156110c7575b610f06906123d9565b5f91855f5260078452815f2060018101545f5260058552825f2090875f52601c8652610f3860ff855f20541615612436565b875f5260138652835f209260ff199360068582541617905580820161010061ff0019825416179055878060015416925416823b156110c35760245f928388519586948593638fe80d9560e01b85528401525af180156110b957917fd59a34c4244796808a89bc9820420faba740533808a8001cce2a4cbaba1338fc959391899795936110a5575b50600a01610fcd8154612370565b9055610fd886612fdb565b610fe18661320d565b8280611092575b8061107d575b611033575b50610ffd85613351565b51908152a261100a61372e565b16907f1c51f672bb44381c6c32c39eb4d1a4d57901386e9fa53336d09a315dd6f5b2888380a380f35b858352601a845260018284209182541617905560198352847fddb652d8f25e3d89940fdfc96a04005b8142fdc4f9c99c3f6a582e3a01497aad84838520548451908152a25f610ff3565b50858352601a845260ff828420541615610fee565b5085835260198452818320541515610fe8565b6110b0919450612074565b5f92600a610fbf565b84513d5f823e3d90fd5b5f80fd5b508486526013835260ff818720541660098110156110e757600514610efd565b634e487b7160e01b875260218352602487fd5b50503461058757816003193601126105875760015490516001600160a01b039091168152602090f35b505034610587578160031936011261058757905490516001600160a01b039091168152602090f35b5034610311576020366003190112610311578160209360ff92358152601d855220541690519015158152f35b5034610311576020366003190112610311578160209360ff923581526017855220541690519015158152f35b5034610311576020366003190112610311578160209360ff92358152601c855220541690519015158152f35b5050346105875781600319360112610587576020905160148152f35b5034610311576020366003190112610311578160209360ff923581526009855220541690519015158152f35b503461031157816003193601126103115780356112326121ba565b9161123b61372e565b5f80526020945f805160206137888339815191528652805f2060018060a01b0380931690815f52875260ff9081835f2054161561163057508488526007875281882095600187019485548a5260058952838a20600b8a5283858c205416600381101561161d5760026112ad91146122ed565b878b5260228a5283858c2054166115e557878b52601c8a5283858c2054166115ac57878b52601d8a526112e584868d2054161561232e565b81890184815460081c166115725790600a916008878e60138f8e8352602281528383209560ff1996600188825416179055601d825284842060018882541617905561010161ffff1982541617905552209182541617905501805480611560575b5050898560015416868a5416813b156103115782916024839289519485938492638fe80d9560e01b8452898401525af180156115565761153e575b50506002880154948a8a878b816114b8575b50505088905260198a528989868d20938d855495866113f1575b505050505090606095949392917fc80674e355919bd71a06b44194bcf01ecd52ba0cfcac17a09db4d2207403357497549954169984519586528501521690820152a480f35b81905580549254895163a9059cbb60e01b81529086166001600160a01b03169281019283526020830187905293928492908616918391829060400103925af180156114ae57611445575b89818d8d936113ac565b9594939291908a87813d83116114a7575b611460818361209b565b810103126114a3577fc80674e355919bd71a06b44194bcf01ecd52ba0cfcac17a09db4d2207403357497611495606098612390565b50975090919293949561143b565b8b80fd5b503d611456565b86513d8e823e3d90fd5b83549054895163a9059cbb60e01b81529086166001600160a01b0316878201908152602081019390935293849291861691839190829060400103925af180156114ae5761150a575b508a8a878b611392565b8a81813d8311611537575b61151f818361209b565b810103126114a35761153090612390565b505f611500565b503d611515565b61154790612074565b61155257895f611380565b8980fd5b86513d84823e3d90fd5b61156990612370565b90555f80611345565b855162461bcd60e51b81528084018c9052601460248201527312d4ce88185b1c9958591e481c995d9a595dd95960621b6044820152606490fd5b845162461bcd60e51b81528083018b9052601360248201527212d4ce881c185e5bdd5d081c995b19585cd959606a1b6044820152606490fd5b845162461bcd60e51b81528083018b9052601260248201527112d4ce881c995cd8dd5948185c1c1b1a595960721b6044820152606490fd5b634e487b7160e01b8c526021835260248cfd5b8460449184519163e2517d3f60e01b83528201525f6024820152fd5b505034610587578160031936011261058757601e5490516001600160a01b039091168152602090f35b5082346116ca5760203660031901126116ca57506001600160a01b039035818116908190036110c35760209251917f000000000000000000000000000000000000000000000000000000000000000016148152f35b80fd5b503461031157602036600319011261031157602092829135815283805220549051908152f35b503461031157602036600319011261031157816020936001600160401b0392358152601585522054169051908152f35b50503461058757816003193601126105875760025490516001600160a01b039091168152602090f35b5034610311576020366003190112610311576020928291358152600f845220549051908152f35b505034610587578160031936011261058757600a5490516001600160a01b039091168152602090f35b509190346105875780600319360112610587576117b76121a4565b906001600160a01b03806117c961372e565b16908316036117de57506105d291923561256f565b5163334bd91960e11b81528390fd5b503461031157826003193601126103115760209250549051908152f35b5090346103115780600319360112610311576105d2913561182e60016105af6121a4565b6124da565b5050346105875781600319360112610587576020905160018152f35b5050346105875781600319360112610587576020905160028152f35b5091903461058757602080600319360112610311578335918284526013825260ff81852054169084916009811015611ae75760028103611a7b5750838552601483526001600160401b0381862054166203f4808101809111611a68576118d3904210156122a9565b5f95845f5260078452815f2060018101545f5260058552825f2090865f52601c865261190560ff855f20541615612436565b865f5260138652835f209260ff199360068582541617905580820161010061ff001982541617905560018060a01b038060015416925416823b156110c35760245f928388519586948593638fe80d9560e01b85528401525af180156110b9578798997fd59a34c4244796808a89bc9820420faba740533808a8001cce2a4cbaba1338fc98949388938793611a54575b50600a016119a28154612370565b90556119ad85612fdb565b8615966119ba88876132a0565b80611a41575b80611a2c575b6119e1575b505050506119d890613351565b5190158152a280f35b7fddb652d8f25e3d89940fdfc96a04005b8142fdc4f9c99c3f6a582e3a01497aad93858252601a84526001838320918254161790556019835220548451908152a2845f8483826119cb565b50848152601a835260ff8282205416156119c6565b50848152601983528181205415156119c0565b611a5f919250612074565b5f90600a611994565b634e487b7160e01b865260118752602486fd5b909150600503611acd57828452601682526001600160401b0381852054166203f4808101809111611aba57611ab2904210156122a9565b6001906118d3565b634e487b7160e01b855260118652602485fd5b5162461bcd60e51b815280611ae3818701612235565b0390fd5b634e487b7160e01b865260218752602486fd5b5034610311576020366003190112610311578160209360ff92358152601f855220541690519015158152f35b503461031157602036600319011261031157816020936001923581525f8051602061378883398151915285522001549051908152f35b5050346105875781600319360112610587576020906006549051908152f35b5034610311576020366003190112610311576020928291358152601b845220549051908152f35b5034610311576020366003190112610311578160209360ff92358152601a855220541690519015158152f35b50503461058757816003193601126105875760209051620151808152f35b50346103115760203660031901126103115781611c89938235815260056020522060018060a01b0381541690611c24600182016120bc565b93611c31600283016120bc565b90611c4260038401549584016120bc565b611ca8600585015496600686015492611c9560ff60078901541695600889015497600a60098b01549a01549a82519e8f9e8f9261016090845280602085015283019061217f565b9281840391015261217f565b9160608b015289820360808b015261217f565b9560a088015260c0870152151560e08601526101008501526101208401526101408301520390f35b505034610587578160031936011261058757602090516104008152f35b5050346105875781600319360112610587576020905162278d008152f35b5034610311576020366003190112610311578160209360ff923581526022855220541690519015158152f35b5034610311576020366003190112610311576020928291358152600e845220549051908152f35b505034610587578160031936011261058757602090517fba279271fb7bbf76a6f3df3cc57bf80647fcafdea60ec3383d90f459de74e7c08152f35b503461031157602036600319011261031157359063ffffffff60e01b82168092036103115760209250637965db0b60e01b8214918215611ddd575b50519015158152f35b6301ffc9a760e01b1491505f611dd4565b50346110c3576020806003193601126110c357813592835f526013825260ff815f20541660078352815f20906009811015612007576003919060018103611fb657500154620151808101809111611fa3574210611f6a575b835f5260078252805f2090600182015493845f5260058452815f2093865f526013815260ff835f2054166009811015611f575790611e8960076013931415612436565b5f888152919052829020805460ff19166007179055828101805461ff00191661010017905560015492546001600160a01b039384169316833b156110c35760245f928385519687948593638fe80d9560e01b85528401525af1908115611f4e5750611f35575b509081600a611f0e9301611f038154612370565b90556109d7846128a0565b7f44849f20f838da9fe80376187225407241012f1e68cd69585c0a3ab96c796bb18280a280f35b611f0e92919450611f4590612074565b5f939091611eef565b513d5f823e3d90fd5b602183634e487b7160e01b5f525260245ffd5b5162461bcd60e51b81529182015260156024820152744b533a2064656c697665727920646561646c696e6560581b604482015260649150fd5b601184634e487b7160e01b5f525260245ffd5b9050145f14611ff157835f52601582526001600160401b03815f205416620151808101809111611fa357611fec9042101561225d565b611e46565b5162461bcd60e51b815280611ae3818501612235565b602185634e487b7160e01b5f525260245ffd5b346110c3575f3660031901126110c3578069d3c21bcecceda100000060209252f35b90600182811c9216801561206a575b602083101461205657565b634e487b7160e01b5f52602260045260245ffd5b91607f169161204b565b6001600160401b03811161208757604052565b634e487b7160e01b5f52604160045260245ffd5b90601f801991011681019081106001600160401b0382111761208757604052565b9060405191825f82546120ce8161203c565b908184526020946001916001811690815f1461213c57506001146120fe575b5050506120fc9250038361209b565b565b5f90815285812095935091905b8183106121245750506120fc93508201015f80806120ed565b8554888401850152948501948794509183019161210b565b925050506120fc94925060ff191682840152151560051b8201015f80806120ed565b5f5b83811061216f5750505f910152565b8181015183820152602001612160565b906020916121988151809281855285808601910161215e565b601f01601f1916010190565b602435906001600160a01b03821682036110c357565b6024359060ff821682036110c357565b60606003198201126110c357600435916024356001600160401b03928382116110c357806023830112156110c35781600401359384116110c357602484830101116110c357602401919060443590565b346110c3575f3660031901126110c357602060405160328152f35b60609060208152600d60208201526c4b533a2062616420737461746560981b60408201520190565b1561226457565b60405162461bcd60e51b815260206004820152601760248201527f4b533a20726564656c697665727920646561646c696e650000000000000000006044820152606490fd5b156122b057565b60405162461bcd60e51b81526020600482015260156024820152744b533a20726573706f6e736520646561646c696e6560581b6044820152606490fd5b156122f457565b60405162461bcd60e51b815260206004820152601260248201527125a99d103737ba10383934bb30ba32903b1960711b6044820152606490fd5b1561233557565b60405162461bcd60e51b815260206004820152601360248201527212d4ce881c99599d5b99081c995b19585cd959606a1b6044820152606490fd5b801561237c575f190190565b634e487b7160e01b5f52601160045260245ffd5b519081151582036110c357565b156123a457565b60405162461bcd60e51b815260206004820152600d60248201526c25a99d103737ba10313abcb2b960991b6044820152606490fd5b156123e057565b60405162461bcd60e51b815280611ae360048201612235565b1561240057565b60405162461bcd60e51b815260206004820152600e60248201526d25a99d103737ba1039b2b63632b960911b6044820152606490fd5b1561243d57565b60405162461bcd60e51b815260206004820152601560248201527412d4ce88185b1c9958591e48199a5b985b1a5e9959605a1b6044820152606490fd5b61248261372e565b90805f525f8051602061378883398151915260205260405f209160018060a01b031691825f5260205260ff60405f205416156124bc575050565b604492506040519163e2517d3f60e01b835260048301526024820152fd5b5f8181525f80516020613788833981519152602081815260408084206001600160a01b039687168086529252909220549293919260ff1661256757835f5260205260405f20825f5260205260405f20600160ff1982541617905561253c61372e565b16917f2f8788117e7eff1d82e926ec794901d17c78024a50270940304540a733656f0d5f80a4600190565b505050505f90565b5f8181525f80516020613788833981519152602081815260408084206001600160a01b039687168086529252909220549293919260ff161561256757835f5260205260405f20825f5260205260405f2060ff1981541690556125cf61372e565b16917ff6391f5c32d9c69d2a47ea670b442974b53935d1edc7fd64eb21e047a839171b5f80a4600190565b6001600160401b03811161208757601f01601f191660200190565b90821561280a5761040083116127c55761262e836125fa565b9261263c604051948561209b565b8084526020938481019036838501116110c357828483375f868483010152519020850361278057825f526010845260405f20916001600160401b03821161208757612687835461203c565b601f811161273d575b505f90601f83116001146126d657601195949392915f91836126cb575b50508160011b915f199060031b1c19161790555b5f525260405f2055565b013590505f806126ad565b601f19831691845f52865f20925f5b8181106127265750916001939185601199989796941061270d575b505050811b0190556126c1565b01355f19600384901b60f8161c191690555f8080612700565b9193886001819287870135815501950192016126e5565b835f52855f20601f840160051c810191878510612776575b601f0160051c01905b81811061276b5750612690565b5f815560010161275e565b9091508190612755565b60405162461bcd60e51b815260048101859052601d60248201527f4b533a2077726170706564206b65792068617368206d69736d617463680000006044820152606490fd5b60405162461bcd60e51b815260206004820152601960248201527f4b533a2077726170706564206b657920746f6f206c61726765000000000000006044820152606490fd5b60405162461bcd60e51b81526020600482015260156024820152744b533a20656d7074792077726170706564206b657960581b6044820152606490fd5b90815f52601060205260ff61285e60405f206120bc565b9116600181146128805760029192501461287757505f90565b61040090511190565b50511590811561288e575090565b90505f52601160205260405f20541590565b61292090805f526020601d81526128be60ff60405f2054161561232e565b5f828152601d82526040808220805460ff191660011790556007835280822082548154600290920154925163a9059cbb60e01b81526001600160a01b039283166004820152602481019390935291958493879390921691839182906044820190565b03925af180156129705761293a575b506120fc915061320d565b82813d8311612969575b61294e818361209b565b810103126110c3576129626120fc92612390565b505f61292f565b503d612944565b6040513d5f823e3d90fd5b9190820391821161237c57565b5f9260328102908082046032149015171561237c576006830180546064909204929082841015612ea15783925b8380612d9b575b91505083915010612b8a575b505060015481546001600160a01b0390811692918116803b15612b86578480916024604096875194859384926322eb7bdb60e11b845260048401525af18015612b3c57908591612b72575b5050806001541681835416813b15612b46578591602483928751948593849263d0542f9760e01b845260048401525af18015612b3c57908591612b5e575b5050806001541681835416813b15612b4657859160248392875194859384926317517f8d60e31b845260048401525af18015612b3c57908591612b4a575b5050806001541681835416813b15612b465785916024839287519485938492630f5d255560e41b845260048401525af18015612b3c57908591612b28575b50508060015416915416813b156103f5578291602485949285935195869384926313fb5ea760e01b845260048401525af1908115612b1f5750612b0e575050565b612b188291612074565b6116ca5750565b513d84823e3d90fd5b612b3190612074565b6103f557835f612acd565b84513d87823e3d90fd5b8580fd5b612b5390612074565b6103f557835f612a8f565b612b6790612074565b6103f557835f612a51565b612b7b90612074565b6103f557835f612a13565b8480fd5b612b939161297b565b82548254604080516370a0823160e01b81526001600160a01b0392831660048201819052919493831693602091908282602481895afa918215612d91578992612d62575b508651636eb1769f60e11b81526001600160a01b03851660048201523060248201529183836044818a5afa928315612d58578a93612d29575b5080821015612d215750905b80821015612d195750935b84612c36575b505050506129c8565b85516323b872dd60e01b81526001600160a01b03939093166004840152306024840152604483018590528190839060649082908b905af18015612d0f57612cdb575b505084541690813b15612b8657829160248694928593519586938492630852cd8d60e31b845260048401525af1908115612cd25750908391612cbe575b80808080612c2d565b612cc790612074565b61058757815f612cb5565b513d85823e3d90fd5b81813d8311612d08575b612cef818361209b565b81010312612b4657612d0090612390565b505f80612c78565b503d612ce5565b85513d89823e3d90fd5b905093612c27565b905090612c1c565b9092508381813d8311612d51575b612d41818361209b565b810103126110c35751915f612c10565b503d612d37565b88513d8c823e3d90fd5b9091508281813d8311612d8a575b612d7a818361209b565b810103126110c35751905f612bd7565b503d612d70565b87513d8b823e3d90fd5b612da49161297b565b905560015484546001600160a01b0391908216908216803b156110c3576040516334673ec560e11b81526001600160a01b03929092166004830152602482018590525f908290604490829084905af1801561297057612e8e575b5080865416803b156109fe57868091602460405180948193630852cd8d60e31b83528960048401525af18015612e8357908791612e6f575b5050845416907fba00be99b4ba100b19f2c080160ab22c2b8f4d62027d6524c532e7578d7a43b46020604051858152a35f8080836129bc565b612e7890612074565b612b4657855f612e36565b6040513d89823e3d90fd5b612e99919650612074565b5f945f612dfe565b826129b5565b81601f820112156110c3578051612ebd816125fa565b92612ecb604051948561209b565b818452602082840101116110c357612ee9916020808501910161215e565b90565b519060ff821682036110c357565b6020818303126110c35780516001600160401b03918282116110c35701906101209283838203126110c357604051938401848110838211176120875760405282518281116110c35781612f4e918501612ea7565b845260208301519182116110c357612f67918301612ea7565b602083015260408101516001600160a01b03811681036110c3576040830152612f9260608201612eec565b60608301526080810151608083015260a081015160a083015260c081015160c0830152612fc160e08201612390565b60e0830152612fd4610100809201612390565b9082015290565b805f526020601c8152604060ff815f2054166132085760078252805f209260018401545f52600583526002825f2094015460018060a01b039182600154165f84885416602487518094819363fb3551ff60e01b835260048301525afa9081156131fe579060e0915f916131dc575b5001511515806131d3575b6130fb575b5f52601c8452825f20600160ff198254161790558061307a575b5050505050565b5f80549554845163a9059cbb60e01b81529084166001600160a01b0316600482015260248101929092529094849286926044928492165af1908115611f4e57506130c7575b808080613073565b81813d83116130f4575b6130db818361209b565b810103126110c3576130ec90612390565b505f806130bf565b503d6130d1565b603282028281046032148315171561237c57606461311b9104809361297b565b5f8054600254875163a9059cbb60e01b81529087166001600160a01b031660048201526024810186905292949291889183916044918391908a165af180156131c957613195575b507ff5f01754584f438c12bcb34b8c17451066251095c28d277f3966dca00bf054a18685895416928751908152a2613059565b8681813d83116131c2575b6131aa818361209b565b810103126110c3576131bb90612390565b505f613162565b503d6131a0565b86513d5f823e3d90fd5b50811515613054565b6131f891503d805f833e6131f0818361209b565b810190612efa565b5f613049565b85513d5f823e3d90fd5b505050565b5f5260206019815260405f205490811561329c575f805460078352604080832054905163a9059cbb60e01b81526001600160a01b039182166004820152602481019590955283928592604492849291165af180156129705761326d575050565b81813d8311613295575b613281818361209b565b810103126110c35761329290612390565b50565b503d613277565b5050565b805f5260209060198252604090815f20549384156130735715613312575f80549181526007845282812054835163a9059cbb60e01b81526001600160a01b039182166004820152602481019690965284928692911690829081604481015b03925af1908115611f4e575061326d575050565b505f8054600254835163a9059cbb60e01b81526001600160a01b03918216600482015260248101969096528492869290911690829081604481016132fe565b5f90805f526020906018825260409260ff845f205416801561371c575b6137165760078352835f209360018501545f5260058452805f209460018060a01b0380809254169654169481600154169183519463ecfba34360e01b865260049589878201528381602481885afa9081156131c9575f916136e1575b501561366357845163fb3551ff60e01b8082528782018b9052905f81602481895afa9081156136bd57849188915f916136c7575b5001511690865190815289888201525f81602481895afa9081156136bd57849188915f916136a3575b500151161461366357845163152e98e760e21b81526001600160a01b03808a16888301908152908b1660208201528490829081906040010381885afa9081156131c9575f9161366e575b5061366357865f52601b8352845f205493803b156110c357855163ada91a1760e01b81526001600160a01b03808b16828a01908152908c1660208201526040810187905290915f9183919082908490829060600103925af180156131c957613652575b50809180600a54169081151590816135d1575b50613534575b5086815260188352849020805460ff1916600117905583519283521515908201527f381d78290492cac4ca2b6091d55d10b1aa34fc1a4bf5a400826638d0f4e7646d9250a4565b8092509590929394953b15610311578551634eeb702960e01b81526001600160a01b0389169181019182526020820186905291839183919082908490829060400103925af180156135c7576135b3575b507f381d78290492cac4ca2b6091d55d10b1aa34fc1a4bf5a400826638d0f4e7646d93929190600190846134ed565b6135bd8291612074565b6116ca575f613584565b85513d84823e3d90fd5b905060015416848a6024895180948193635a2d572960e11b83528d8301525afa90811561364857839161360e575b5060ff6002911610155f6134e7565b90508481813d8311613641575b613625818361209b565b810103126103115760ff61363a600292612eec565b91506135ff565b503d61361b565b87513d85823e3d90fd5b61365c9150612074565b5f806134d4565b505050505050505050565b90508381813d831161369c575b613685818361209b565b810103126110c35761369690612390565b5f613471565b503d61367b565b6136b791503d805f833e6131f0818361209b565b5f613427565b87513d5f823e3d90fd5b6136db91503d805f833e6131f0818361209b565b5f6133fe565b90508381813d831161370f575b6136f8818361209b565b810103126110c35761370990612390565b5f6133ca565b503d6136ee565b50505050565b506017835260ff845f2054161561336e565b601436101580613755575b156137515760131936013681116110c3573560601c90565b3390565b50337f00000000000000000000000000000000000000000000000000000000000000006001600160a01b03161461373956fe02dd7bc7dec4dceedda775e58dd541e08a116c6c53815c0bd028192f7b626800a26469706673582212204df7a14d2116e7b23e32bd3d5a3875ec13226380d1fe27b33783edf380083f5364736f6c63430008180033","linkReferences":{}},"methodIdentifiers":{"AUTO_REVIEW_PERIOD()":"0e327030","BURN_PERCENT()":"9c986764","BUYER_RESPONSE_DEADLINE()":"93407b1f","DEBT_DEDUCTION_PERCENT()":"a4ede5eb","DEFAULT_ADMIN_ROLE()":"a217fddf","DELIVERY_DEADLINE()":"16b5219e","FEE_PERCENT()":"eaf98d23","MAX_PRICE()":"01c11d96","MAX_WRAPPED_KEY_BYTES()":"0fc18454","MIN_PRICE()":"ad9f20a6","OBJECTIVE_REASON_EMPTY_WRAPPED_KEY()":"2c1271c3","OBJECTIVE_REASON_OVERSIZED_WRAPPED_KEY()":"2be67c4f","OWNER_PERCENT()":"2e1371bd","PROTOCOL_ROLE()":"02768de4","SLASH_PERCENT()":"f6e8913d","STAKE_PERCENT()":"61c2649e","acceptDelivery(uint256)":"7b422c4c","buyerBondAmount(uint256)":"f5c0b48c","buyerBondForfeited(uint256)":"1f175594","buyerPurchases(bytes32)":"ac8919c9","challengeDeliveryObjective(uint256,uint8,bytes32)":"c8e9ab4a","challengeDeliverySubjective(uint256,bytes32)":"f086075a","challengedAt(uint256)":"4a044932","ciphertextHash(uint256)":"02b9bc63","ckt()":"79021310","contentHashExists(bytes32)":"5f7668ce","creditApplied(uint256)":"a8ad0daa","deliverEncryptedKey(uint256,bytes,bytes32)":"97a4bb23","deliveredAt(uint256)":"d11ac988","deliveryAttemptCount(uint256)":"8c5b2293","deliveryState(uint256)":"99dc8654","explicitReviewSubmitted(uint256)":"75e1cf24","explicitSellerScoreByPurchase(uint256)":"2128a4bc","feeRecipient()":"46904840","finalizeCleanTimeout(uint256)":"29125ebb","finalizeUndelivered(uint256)":"01d7b245","getRoleAdmin(bytes32)":"248a9ca3","getWrappedKey(uint256)":"fe7992c2","grantRole(bytes32,address)":"2f2ff15d","hasRole(bytes32,address)":"91d14854","isTrustedForwarder(address)":"572b6c05","knowledgeItems(uint256)":"1018c5f9","knowledgeMode(uint256)":"7e92b854","maxSalesByKnowledge(uint256)":"55a5f255","nextKnowledgeId()":"310f1371","nextPurchaseId()":"23b4a7a3","payoutReleased(uint256)":"7021f1a3","purchaseDeliveryConfigSnapshot(uint256)":"3b0ecb61","purchaseDeliveryConfigURI(uint256)":"cdec2cd1","purchases(uint256)":"8392fe31","redeliverEncryptedKey(uint256,bytes,bytes32)":"ceea2f5a","redeliveredAt(uint256)":"927f9c99","refundReleased(uint256)":"77c50e9d","registry()":"7b103999","renounceRole(bytes32,address)":"36568abe","reputationContract()":"87bc1425","rescueApplied(uint256)":"073080c7","rescueRefundPrivatePurchase(uint256,uint8)":"5e18963b","revokeRole(bytes32,address)":"d547741f","salesOpen(uint256)":"262737cd","supportsInterface(bytes4)":"01ffc9a7","tempoReward()":"39d006cb","trustedForwarder()":"7da0a877","v2Module()":"575660c2","wrappedKeyHashByPurchase(uint256)":"fece90f5"},"id":54}