{"abi":[{"type":"constructor","inputs":[{"name":"trustedForwarder","type":"address","internalType":"address"}],"stateMutability":"nonpayable"},{"type":"function","name":"AUTO_REVIEW_PERIOD","inputs":[],"outputs":[{"name":"","type":"uint256","internalType":"uint256"}],"stateMutability":"view"},{"type":"function","name":"BURN_PERCENT","inputs":[],"outputs":[{"name":"","type":"uint256","internalType":"uint256"}],"stateMutability":"view"},{"type":"function","name":"BUYER_RESPONSE_DEADLINE","inputs":[],"outputs":[{"name":"","type":"uint256","internalType":"uint256"}],"stateMutability":"view"},{"type":"function","name":"DEBT_DEDUCTION_PERCENT","inputs":[],"outputs":[{"name":"","type":"uint256","internalType":"uint256"}],"stateMutability":"view"},{"type":"function","name":"DEFAULT_ADMIN_ROLE","inputs":[],"outputs":[{"name":"","type":"bytes32","internalType":"bytes32"}],"stateMutability":"view"},{"type":"function","name":"DELIVERY_DEADLINE","inputs":[],"outputs":[{"name":"","type":"uint256","internalType":"uint256"}],"stateMutability":"view"},{"type":"function","name":"FEE_PERCENT","inputs":[],"outputs":[{"name":"","type":"uint256","internalType":"uint256"}],"stateMutability":"view"},{"type":"function","name":"MAX_PRICE","inputs":[],"outputs":[{"name":"","type":"uint256","internalType":"uint256"}],"stateMutability":"view"},{"type":"function","name":"MAX_WRAPPED_KEY_BYTES","inputs":[],"outputs":[{"name":"","type":"uint256","internalType":"uint256"}],"stateMutability":"view"},{"type":"function","name":"MIN_PRICE","inputs":[],"outputs":[{"name":"","type":"uint256","internalType":"uint256"}],"stateMutability":"view"},{"type":"function","name":"OBJECTIVE_REASON_EMPTY_WRAPPED_KEY","inputs":[],"outputs":[{"name":"","type":"uint8","internalType":"uint8"}],"stateMutability":"view"},{"type":"function","name":"OBJECTIVE_REASON_OVERSIZED_WRAPPED_KEY","inputs":[],"outputs":[{"name":"","type":"uint8","internalType":"uint8"}],"stateMutability":"view"},{"type":"function","name":"OWNER_PERCENT","inputs":[],"outputs":[{"name":"","type":"uint256","internalType":"uint256"}],"stateMutability":"view"},{"type":"function","name":"PROTOCOL_ROLE","inputs":[],"outputs":[{"name":"","type":"bytes32","internalType":"bytes32"}],"stateMutability":"view"},{"type":"function","name":"REFUND_REASON_INVALID_DELIVERY_CONFIG","inputs":[],"outputs":[{"name":"","type":"uint8","internalType":"uint8"}],"stateMutability":"view"},{"type":"function","name":"REFUND_REASON_SELLER_CANCELLED","inputs":[],"outputs":[{"name":"","type":"uint8","internalType":"uint8"}],"stateMutability":"view"},{"type":"function","name":"REFUND_REASON_STALE_OR_INCONSISTENT_BUYER_TX","inputs":[],"outputs":[{"name":"","type":"uint8","internalType":"uint8"}],"stateMutability":"view"},{"type":"function","name":"REFUND_REASON_UNSUPPORTED_BUYER_KEY","inputs":[],"outputs":[{"name":"","type":"uint8","internalType":"uint8"}],"stateMutability":"view"},{"type":"function","name":"SLASH_PERCENT","inputs":[],"outputs":[{"name":"","type":"uint256","internalType":"uint256"}],"stateMutability":"view"},{"type":"function","name":"STAKE_PERCENT","inputs":[],"outputs":[{"name":"","type":"uint256","internalType":"uint256"}],"stateMutability":"view"},{"type":"function","name":"buyerBondAmount","inputs":[{"name":"","type":"uint256","internalType":"uint256"}],"outputs":[{"name":"","type":"uint256","internalType":"uint256"}],"stateMutability":"view"},{"type":"function","name":"buyerBondForfeited","inputs":[{"name":"","type":"uint256","internalType":"uint256"}],"outputs":[{"name":"","type":"bool","internalType":"bool"}],"stateMutability":"view"},{"type":"function","name":"buyerPurchases","inputs":[{"name":"","type":"bytes32","internalType":"bytes32"}],"outputs":[{"name":"","type":"uint256","internalType":"uint256"}],"stateMutability":"view"},{"type":"function","name":"buyerUndeliveredRefundReceivedCount","inputs":[{"name":"","type":"address","internalType":"address"}],"outputs":[{"name":"","type":"uint256","internalType":"uint256"}],"stateMutability":"view"},{"type":"function","name":"challengedAt","inputs":[{"name":"","type":"uint256","internalType":"uint256"}],"outputs":[{"name":"","type":"uint64","internalType":"uint64"}],"stateMutability":"view"},{"type":"function","name":"ciphertextHash","inputs":[{"name":"","type":"uint256","internalType":"uint256"}],"outputs":[{"name":"","type":"bytes32","internalType":"bytes32"}],"stateMutability":"view"},{"type":"function","name":"ckt","inputs":[],"outputs":[{"name":"","type":"address","internalType":"contract CKT"}],"stateMutability":"view"},{"type":"function","name":"contentHashExists","inputs":[{"name":"","type":"bytes32","internalType":"bytes32"}],"outputs":[{"name":"","type":"bool","internalType":"bool"}],"stateMutability":"view"},{"type":"function","name":"creditApplied","inputs":[{"name":"","type":"uint256","internalType":"uint256"}],"outputs":[{"name":"","type":"bool","internalType":"bool"}],"stateMutability":"view"},{"type":"function","name":"deliveredAt","inputs":[{"name":"","type":"uint256","internalType":"uint256"}],"outputs":[{"name":"","type":"uint64","internalType":"uint64"}],"stateMutability":"view"},{"type":"function","name":"deliveryAttemptCount","inputs":[{"name":"","type":"uint256","internalType":"uint256"}],"outputs":[{"name":"","type":"uint8","internalType":"uint8"}],"stateMutability":"view"},{"type":"function","name":"deliveryState","inputs":[{"name":"","type":"uint256","internalType":"uint256"}],"outputs":[{"name":"","type":"uint8","internalType":"enum KnowledgeStoreV2SalesModule.DeliveryState"}],"stateMutability":"view"},{"type":"function","name":"explicitReviewSubmitted","inputs":[{"name":"","type":"uint256","internalType":"uint256"}],"outputs":[{"name":"","type":"bool","internalType":"bool"}],"stateMutability":"view"},{"type":"function","name":"explicitSellerScoreByPurchase","inputs":[{"name":"","type":"uint256","internalType":"uint256"}],"outputs":[{"name":"","type":"uint256","internalType":"uint256"}],"stateMutability":"view"},{"type":"function","name":"feeRecipient","inputs":[],"outputs":[{"name":"","type":"address","internalType":"address"}],"stateMutability":"view"},{"type":"function","name":"getPrivateKnowledgeMeta","inputs":[{"name":"knowledgeId","type":"uint256","internalType":"uint256"}],"outputs":[{"name":"previewURI","type":"string","internalType":"string"},{"name":"encryptedContentURI","type":"string","internalType":"string"},{"name":"encryptedContentHash","type":"bytes32","internalType":"bytes32"}],"stateMutability":"view"},{"type":"function","name":"getRoleAdmin","inputs":[{"name":"role","type":"bytes32","internalType":"bytes32"}],"outputs":[{"name":"","type":"bytes32","internalType":"bytes32"}],"stateMutability":"view"},{"type":"function","name":"grantRole","inputs":[{"name":"role","type":"bytes32","internalType":"bytes32"},{"name":"account","type":"address","internalType":"address"}],"outputs":[],"stateMutability":"nonpayable"},{"type":"function","name":"hasRole","inputs":[{"name":"role","type":"bytes32","internalType":"bytes32"},{"name":"account","type":"address","internalType":"address"}],"outputs":[{"name":"","type":"bool","internalType":"bool"}],"stateMutability":"view"},{"type":"function","name":"isTrustedForwarder","inputs":[{"name":"forwarder","type":"address","internalType":"address"}],"outputs":[{"name":"","type":"bool","internalType":"bool"}],"stateMutability":"view"},{"type":"function","name":"knowledgeItems","inputs":[{"name":"","type":"uint256","internalType":"uint256"}],"outputs":[{"name":"seller","type":"address","internalType":"address"},{"name":"title","type":"string","internalType":"string"},{"name":"tags","type":"string","internalType":"string"},{"name":"price","type":"uint256","internalType":"uint256"},{"name":"ipfsCID","type":"string","internalType":"string"},{"name":"contentHash","type":"bytes32","internalType":"bytes32"},{"name":"stakeAmount","type":"uint256","internalType":"uint256"},{"name":"active","type":"bool","internalType":"bool"},{"name":"listedAt","type":"uint256","internalType":"uint256"},{"name":"salesCount","type":"uint256","internalType":"uint256"},{"name":"pendingDeliveries","type":"uint256","internalType":"uint256"}],"stateMutability":"view"},{"type":"function","name":"knowledgeMode","inputs":[{"name":"","type":"uint256","internalType":"uint256"}],"outputs":[{"name":"","type":"uint8","internalType":"enum KnowledgeStoreV2SalesModule.KnowledgeMode"}],"stateMutability":"view"},{"type":"function","name":"knowledgeUndeliveredRefundCount","inputs":[{"name":"","type":"uint256","internalType":"uint256"}],"outputs":[{"name":"","type":"uint256","internalType":"uint256"}],"stateMutability":"view"},{"type":"function","name":"listPrivateKnowledge","inputs":[{"name":"title","type":"string","internalType":"string"},{"name":"tags","type":"string","internalType":"string"},{"name":"price","type":"uint256","internalType":"uint256"},{"name":"previewURI","type":"string","internalType":"string"},{"name":"encryptedContentURI","type":"string","internalType":"string"},{"name":"encryptedContentHash","type":"bytes32","internalType":"bytes32"},{"name":"contentHash","type":"bytes32","internalType":"bytes32"}],"outputs":[{"name":"knowledgeId","type":"uint256","internalType":"uint256"}],"stateMutability":"nonpayable"},{"type":"function","name":"listPrivateKnowledgeWithLimit","inputs":[{"name":"title","type":"string","internalType":"string"},{"name":"tags","type":"string","internalType":"string"},{"name":"price","type":"uint256","internalType":"uint256"},{"name":"previewURI","type":"string","internalType":"string"},{"name":"encryptedContentURI","type":"string","internalType":"string"},{"name":"encryptedContentHash","type":"bytes32","internalType":"bytes32"},{"name":"contentHash","type":"bytes32","internalType":"bytes32"},{"name":"maxSales","type":"uint256","internalType":"uint256"}],"outputs":[{"name":"knowledgeId","type":"uint256","internalType":"uint256"}],"stateMutability":"nonpayable"},{"type":"function","name":"listPublicKnowledgeV2","inputs":[{"name":"title","type":"string","internalType":"string"},{"name":"tags","type":"string","internalType":"string"},{"name":"price","type":"uint256","internalType":"uint256"},{"name":"previewURI","type":"string","internalType":"string"},{"name":"publicContentURI","type":"string","internalType":"string"},{"name":"contentHash","type":"bytes32","internalType":"bytes32"}],"outputs":[{"name":"knowledgeId","type":"uint256","internalType":"uint256"}],"stateMutability":"nonpayable"},{"type":"function","name":"maxSalesByKnowledge","inputs":[{"name":"","type":"uint256","internalType":"uint256"}],"outputs":[{"name":"","type":"uint256","internalType":"uint256"}],"stateMutability":"view"},{"type":"function","name":"nextKnowledgeId","inputs":[],"outputs":[{"name":"","type":"uint256","internalType":"uint256"}],"stateMutability":"view"},{"type":"function","name":"nextPurchaseId","inputs":[],"outputs":[{"name":"","type":"uint256","internalType":"uint256"}],"stateMutability":"view"},{"type":"function","name":"payoutReleased","inputs":[{"name":"","type":"uint256","internalType":"uint256"}],"outputs":[{"name":"","type":"bool","internalType":"bool"}],"stateMutability":"view"},{"type":"function","name":"purchaseDeliveryConfigSnapshot","inputs":[{"name":"","type":"uint256","internalType":"uint256"}],"outputs":[{"name":"","type":"bytes32","internalType":"bytes32"}],"stateMutability":"view"},{"type":"function","name":"purchaseDeliveryConfigURI","inputs":[{"name":"","type":"uint256","internalType":"uint256"}],"outputs":[{"name":"","type":"string","internalType":"string"}],"stateMutability":"view"},{"type":"function","name":"purchaseKnowledgeV2","inputs":[{"name":"knowledgeId","type":"uint256","internalType":"uint256"}],"outputs":[{"name":"purchaseId","type":"uint256","internalType":"uint256"}],"stateMutability":"nonpayable"},{"type":"function","name":"purchases","inputs":[{"name":"","type":"uint256","internalType":"uint256"}],"outputs":[{"name":"buyer","type":"address","internalType":"address"},{"name":"knowledgeId","type":"uint256","internalType":"uint256"},{"name":"paidAmount","type":"uint256","internalType":"uint256"},{"name":"purchasedAt","type":"uint256","internalType":"uint256"},{"name":"delivered","type":"bool","internalType":"bool"},{"name":"reviewed","type":"bool","internalType":"bool"}],"stateMutability":"view"},{"type":"function","name":"redeliveredAt","inputs":[{"name":"","type":"uint256","internalType":"uint256"}],"outputs":[{"name":"","type":"uint64","internalType":"uint64"}],"stateMutability":"view"},{"type":"function","name":"refundReleased","inputs":[{"name":"","type":"uint256","internalType":"uint256"}],"outputs":[{"name":"","type":"bool","internalType":"bool"}],"stateMutability":"view"},{"type":"function","name":"registry","inputs":[],"outputs":[{"name":"","type":"address","internalType":"contract AgentRegistry"}],"stateMutability":"view"},{"type":"function","name":"renounceRole","inputs":[{"name":"role","type":"bytes32","internalType":"bytes32"},{"name":"callerConfirmation","type":"address","internalType":"address"}],"outputs":[],"stateMutability":"nonpayable"},{"type":"function","name":"reopenSales","inputs":[{"name":"knowledgeId","type":"uint256","internalType":"uint256"}],"outputs":[],"stateMutability":"nonpayable"},{"type":"function","name":"reputationContract","inputs":[],"outputs":[{"name":"","type":"address","internalType":"address"}],"stateMutability":"view"},{"type":"function","name":"rescueApplied","inputs":[{"name":"","type":"uint256","internalType":"uint256"}],"outputs":[{"name":"","type":"bool","internalType":"bool"}],"stateMutability":"view"},{"type":"function","name":"revokeRole","inputs":[{"name":"role","type":"bytes32","internalType":"bytes32"},{"name":"account","type":"address","internalType":"address"}],"outputs":[],"stateMutability":"nonpayable"},{"type":"function","name":"salesOpen","inputs":[{"name":"","type":"uint256","internalType":"uint256"}],"outputs":[{"name":"","type":"bool","internalType":"bool"}],"stateMutability":"view"},{"type":"function","name":"sellerUndeliveredRefundCount","inputs":[{"name":"","type":"address","internalType":"address"}],"outputs":[{"name":"","type":"uint256","internalType":"uint256"}],"stateMutability":"view"},{"type":"function","name":"setSaleLimit","inputs":[{"name":"knowledgeId","type":"uint256","internalType":"uint256"},{"name":"maxSales","type":"uint256","internalType":"uint256"}],"outputs":[],"stateMutability":"nonpayable"},{"type":"function","name":"stopSales","inputs":[{"name":"knowledgeId","type":"uint256","internalType":"uint256"}],"outputs":[],"stateMutability":"nonpayable"},{"type":"function","name":"supportsInterface","inputs":[{"name":"interfaceId","type":"bytes4","internalType":"bytes4"}],"outputs":[{"name":"","type":"bool","internalType":"bool"}],"stateMutability":"view"},{"type":"function","name":"tempoReward","inputs":[],"outputs":[{"name":"","type":"address","internalType":"contract TempoReward"}],"stateMutability":"view"},{"type":"function","name":"trustedForwarder","inputs":[],"outputs":[{"name":"","type":"address","internalType":"address"}],"stateMutability":"view"},{"type":"function","name":"undeliveredRefundReason","inputs":[{"name":"","type":"uint256","internalType":"uint256"}],"outputs":[{"name":"","type":"uint8","internalType":"uint8"}],"stateMutability":"view"},{"type":"function","name":"undeliveredSellerRefundApplied","inputs":[{"name":"","type":"uint256","internalType":"uint256"}],"outputs":[{"name":"","type":"bool","internalType":"bool"}],"stateMutability":"view"},{"type":"function","name":"v2Module","inputs":[],"outputs":[{"name":"","type":"address","internalType":"address"}],"stateMutability":"view"},{"type":"function","name":"wrappedKeyHashByPurchase","inputs":[{"name":"","type":"uint256","internalType":"uint256"}],"outputs":[{"name":"","type":"bytes32","internalType":"bytes32"}],"stateMutability":"view"},{"type":"event","name":"AutoReviewApplied","inputs":[{"name":"purchaseId","type":"uint256","indexed":true,"internalType":"uint256"}],"anonymous":false},{"type":"event","name":"BuyerBondForfeited","inputs":[{"name":"purchaseId","type":"uint256","indexed":true,"internalType":"uint256"},{"name":"amount","type":"uint256","indexed":false,"internalType":"uint256"}],"anonymous":false},{"type":"event","name":"DebtDeducted","inputs":[{"name":"seller","type":"address","indexed":true,"internalType":"address"},{"name":"amount","type":"uint256","indexed":false,"internalType":"uint256"}],"anonymous":false},{"type":"event","name":"DeliveryAccepted","inputs":[{"name":"purchaseId","type":"uint256","indexed":true,"internalType":"uint256"},{"name":"buyer","type":"address","indexed":true,"internalType":"address"}],"anonymous":false},{"type":"event","name":"DeliveryChallenged","inputs":[{"name":"purchaseId","type":"uint256","indexed":true,"internalType":"uint256"},{"name":"buyer","type":"address","indexed":true,"internalType":"address"},{"name":"objective","type":"bool","indexed":false,"internalType":"bool"},{"name":"reasonCode","type":"uint8","indexed":false,"internalType":"uint8"},{"name":"evidenceHash","type":"bytes32","indexed":false,"internalType":"bytes32"}],"anonymous":false},{"type":"event","name":"DeliveryCleanFinalized","inputs":[{"name":"purchaseId","type":"uint256","indexed":true,"internalType":"uint256"},{"name":"buyerBondForfeited","type":"bool","indexed":false,"internalType":"bool"}],"anonymous":false},{"type":"event","name":"DeliveryInvalidFinalized","inputs":[{"name":"purchaseId","type":"uint256","indexed":true,"internalType":"uint256"},{"name":"reasonCode","type":"uint8","indexed":false,"internalType":"uint8"}],"anonymous":false},{"type":"event","name":"DeliveryUndeliveredFinalized","inputs":[{"name":"purchaseId","type":"uint256","indexed":true,"internalType":"uint256"}],"anonymous":false},{"type":"event","name":"EncryptedKeyDelivered","inputs":[{"name":"purchaseId","type":"uint256","indexed":true,"internalType":"uint256"},{"name":"seller","type":"address","indexed":true,"internalType":"address"},{"name":"wrappedKeyHash","type":"bytes32","indexed":false,"internalType":"bytes32"},{"name":"attempt","type":"uint8","indexed":false,"internalType":"uint8"}],"anonymous":false},{"type":"event","name":"EncryptedKeyRedelivered","inputs":[{"name":"purchaseId","type":"uint256","indexed":true,"internalType":"uint256"},{"name":"seller","type":"address","indexed":true,"internalType":"address"},{"name":"wrappedKeyHash","type":"bytes32","indexed":false,"internalType":"bytes32"},{"name":"attempt","type":"uint8","indexed":false,"internalType":"uint8"}],"anonymous":false},{"type":"event","name":"Initialized","inputs":[{"name":"version","type":"uint64","indexed":false,"internalType":"uint64"}],"anonymous":false},{"type":"event","name":"KnowledgeDeactivated","inputs":[{"name":"id","type":"uint256","indexed":true,"internalType":"uint256"}],"anonymous":false},{"type":"event","name":"KnowledgeDelivered","inputs":[{"name":"purchaseId","type":"uint256","indexed":true,"internalType":"uint256"},{"name":"seller","type":"address","indexed":true,"internalType":"address"}],"anonymous":false},{"type":"event","name":"KnowledgeListed","inputs":[{"name":"id","type":"uint256","indexed":true,"internalType":"uint256"},{"name":"seller","type":"address","indexed":true,"internalType":"address"},{"name":"title","type":"string","indexed":false,"internalType":"string"},{"name":"price","type":"uint256","indexed":false,"internalType":"uint256"},{"name":"tags","type":"string","indexed":false,"internalType":"string"}],"anonymous":false},{"type":"event","name":"KnowledgeListedV2","inputs":[{"name":"knowledgeId","type":"uint256","indexed":true,"internalType":"uint256"},{"name":"seller","type":"address","indexed":true,"internalType":"address"},{"name":"mode","type":"uint8","indexed":false,"internalType":"uint8"},{"name":"price","type":"uint256","indexed":false,"internalType":"uint256"}],"anonymous":false},{"type":"event","name":"KnowledgePurchased","inputs":[{"name":"purchaseId","type":"uint256","indexed":true,"internalType":"uint256"},{"name":"knowledgeId","type":"uint256","indexed":true,"internalType":"uint256"},{"name":"buyer","type":"address","indexed":true,"internalType":"address"},{"name":"price","type":"uint256","indexed":false,"internalType":"uint256"}],"anonymous":false},{"type":"event","name":"KnowledgeReviewed","inputs":[{"name":"purchaseId","type":"uint256","indexed":true,"internalType":"uint256"},{"name":"productScore","type":"uint256","indexed":false,"internalType":"uint256"},{"name":"sellerScore","type":"uint256","indexed":false,"internalType":"uint256"}],"anonymous":false},{"type":"event","name":"KnowledgeSaleLimitSet","inputs":[{"name":"knowledgeId","type":"uint256","indexed":true,"internalType":"uint256"},{"name":"maxSales","type":"uint256","indexed":false,"internalType":"uint256"}],"anonymous":false},{"type":"event","name":"KnowledgeSalesReopened","inputs":[{"name":"knowledgeId","type":"uint256","indexed":true,"internalType":"uint256"},{"name":"operator","type":"address","indexed":true,"internalType":"address"}],"anonymous":false},{"type":"event","name":"KnowledgeSalesStopped","inputs":[{"name":"knowledgeId","type":"uint256","indexed":true,"internalType":"uint256"},{"name":"operator","type":"address","indexed":true,"internalType":"address"}],"anonymous":false},{"type":"event","name":"PrivateKnowledgePurchased","inputs":[{"name":"purchaseId","type":"uint256","indexed":true,"internalType":"uint256"},{"name":"knowledgeId","type":"uint256","indexed":true,"internalType":"uint256"},{"name":"buyer","type":"address","indexed":true,"internalType":"address"},{"name":"buyerBond","type":"uint256","indexed":false,"internalType":"uint256"}],"anonymous":false},{"type":"event","name":"PrivatePurchaseRescued","inputs":[{"name":"purchaseId","type":"uint256","indexed":true,"internalType":"uint256"},{"name":"knowledgeId","type":"uint256","indexed":true,"internalType":"uint256"},{"name":"buyer","type":"address","indexed":true,"internalType":"address"},{"name":"refundAmount","type":"uint256","indexed":false,"internalType":"uint256"},{"name":"bondRefundAmount","type":"uint256","indexed":false,"internalType":"uint256"},{"name":"reason","type":"uint8","indexed":false,"internalType":"uint8"}],"anonymous":false},{"type":"event","name":"QualifiedMerchantCreditApplied","inputs":[{"name":"purchaseId","type":"uint256","indexed":true,"internalType":"uint256"},{"name":"seller","type":"address","indexed":true,"internalType":"address"},{"name":"buyer","type":"address","indexed":true,"internalType":"address"},{"name":"sellerScore","type":"uint256","indexed":false,"internalType":"uint256"},{"name":"tempoCredited","type":"bool","indexed":false,"internalType":"bool"}],"anonymous":false},{"type":"event","name":"RoleAdminChanged","inputs":[{"name":"role","type":"bytes32","indexed":true,"internalType":"bytes32"},{"name":"previousAdminRole","type":"bytes32","indexed":true,"internalType":"bytes32"},{"name":"newAdminRole","type":"bytes32","indexed":true,"internalType":"bytes32"}],"anonymous":false},{"type":"event","name":"RoleGranted","inputs":[{"name":"role","type":"bytes32","indexed":true,"internalType":"bytes32"},{"name":"account","type":"address","indexed":true,"internalType":"address"},{"name":"sender","type":"address","indexed":true,"internalType":"address"}],"anonymous":false},{"type":"event","name":"RoleRevoked","inputs":[{"name":"role","type":"bytes32","indexed":true,"internalType":"bytes32"},{"name":"account","type":"address","indexed":true,"internalType":"address"},{"name":"sender","type":"address","indexed":true,"internalType":"address"}],"anonymous":false},{"type":"event","name":"StakeSlashed","inputs":[{"name":"knowledgeId","type":"uint256","indexed":true,"internalType":"uint256"},{"name":"seller","type":"address","indexed":true,"internalType":"address"},{"name":"slashedAmount","type":"uint256","indexed":false,"internalType":"uint256"}],"anonymous":false},{"type":"event","name":"UndeliveredPurchaseRefunded","inputs":[{"name":"purchaseId","type":"uint256","indexed":true,"internalType":"uint256"},{"name":"knowledgeId","type":"uint256","indexed":true,"internalType":"uint256"},{"name":"seller","type":"address","indexed":true,"internalType":"address"},{"name":"buyer","type":"address","indexed":false,"internalType":"address"},{"name":"escrowRefundAmount","type":"uint256","indexed":false,"internalType":"uint256"},{"name":"buyerBondRefundAmount","type":"uint256","indexed":false,"internalType":"uint256"},{"name":"nonRefundableProtocolCost","type":"uint256","indexed":false,"internalType":"uint256"},{"name":"reason","type":"uint8","indexed":false,"internalType":"uint8"}],"anonymous":false},{"type":"error","name":"AccessControlBadConfirmation","inputs":[]},{"type":"error","name":"AccessControlUnauthorizedAccount","inputs":[{"name":"account","type":"address","internalType":"address"},{"name":"neededRole","type":"bytes32","internalType":"bytes32"}]},{"type":"error","name":"InvalidInitialization","inputs":[]},{"type":"error","name":"NotInitializing","inputs":[]},{"inputs":[{"internalType":"uint256","name":"purchaseId","type":"uint256"}],"name":"finalizePublicV2Purchase","outputs":[],"stateMutability":"nonpayable","type":"function"}],"bytecode":{"object":"0x60a0346200007e57601f62004fd338819003918201601f19168301916001600160401b0383118484101762000082578084926020946040528339810103126200007e57516001600160a01b03811681036200007e57608052604051614f3c9081620000978239608051818181613232015281816133d40152614e390152f35b5f80fd5b634e487b7160e01b5f52604160045260245ffdfe6080806040526004361015610012575f80fd5b5f905f3560e01c90816301c11d96146146b75750806301ffc9a714614661578063024b89931461464657806302768de41461460c57806302b9bc63146145e25780630442762e146135e1578063073080c7146145b35780630ab254af146139ec5780630e327030146139cf5780630fc18454146139b35780631018c5f9146138cb5780631479b25e146137e257806316b5219e146137c55780631a337c96146136c45780631f175594146136955780632128a4bc1461366b57806323b4a7a31461364e578063248a9ca314613615578063262737cd146135e65780632be67c4f146135e15780632c1271c3146133585780632e1371bd146135c65780632f2ff15d1461357d578063310f13711461356057806336568abe1461350d57806339d006cb146134e55780633b0ecb61146134bb5780633ec432c61461348c57806346904840146134645780634a0449321461343157806355a5f25514613408578063572b6c05146133b4578063575660c21461338c5780635f7668ce1461335d57806361209b471461335857806361c2649e1461333d5780637021f1a31461330e57806375e1cf24146132df57806377c50e9d146132b057806379021310146132895780637b103999146132615780637da0a8771461321d5780637e92b854146131e75780638392fe311461317757806387bc14251461314f5780638c5b229314613122578063917229121461305457806391d1485414612fff578063927f9c9914612fcc57806393407b1f14612faf57806399dc865414612f795780639c98676414612e67578063a217fddf14612f5f578063a417ee6d14612f35578063a4ede5eb1461036d578063a8ad0daa14612f06578063ac8919c914612edc578063acba20b114612ea4578063ad9f20a614612e82578063b38deb8014612e67578063b7a17a9d1461227a578063c1d6c941146121f5578063cb0ff255146121bd578063cdec2cd11461217b578063d11ac98814612148578063d468fec6146113ee578063d547741f146113a0578063d582d36e14611373578063eaf98d2314611357578063f5c0b48c1461132d578063f665986e14610372578063f6e8913d1461036d5763fece90f514610341575f80fd5b3461036a57602036600319011261036a5760406020916004358152601183522054604051908152f35b80fd5b6148f4565b503461036a5761010036600319011261036a576004356001600160401b038111611329576103a49036906004016146f4565b6024356001600160401b038111611325576103c39036906004016146f4565b93906064356001600160401b038111611321576103e49036906004016146f4565b919092608435906001600160401b03821161036a57506104089036906004016146f4565b94909661041860a435151561490f565b60015492610424614e0e565b60405163c3c5a54760e01b81526001600160a01b039182166004820152906020908290602490829089165afa8015610b61575f906112e6575b6104679150614a1c565b61046f614e0e565b604051635a2d572960e11b81526001600160a01b039182166004820152906020908290602490829089165afa908115610b61575f916112a7575b5060ff6001911610611274576104bd614e0e565b60405163fb3551ff60e01b81526001600160a01b039182166004820152905f908290602490829089165afa8015610b61575f90611176575b60e09150015161113a5760038310158061112f575b156110f957670de0b6b3a76400006044351015806110e3575b156110ac5784156110735786156110365760c4355f52600960205260ff60405f205416610ff9575f9361055960e4351515614990565b6020610563614e0e565b60405163dbbd81b960e01b81526001600160a01b0391821660048201529283916024918391165afa908115610b61575f91610fbf575b5015610f7a576003546001600160a01b031680610ef0575b50601460443502916044358304601414604435151715610edc57678ac7230489e800006064840410610ea0575f546001600160a01b03166105f0614e0e565b6040516370a0823160e01b81526001600160a01b039091166004820152602081602481855afa908115610b61575f91610e6e575b506064850411610e305760206106785f9261063d614e0e565b6040516323b872dd60e01b81526001600160a01b03909116600482015230602482015260648089046044830152909485938492839190820190565b03925af18015610b6157610df7575b506001546001600160a01b031661069c614e0e565b813b15610b6c576040516331ba14cf60e11b81526001600160a01b039091166004820152606485046024820152905f908290604490829084905af18015610b6157610dd9575b506064929161074b9160c4358752600960205260408720600160ff1982541617905561073f6004549b6107148d614b46565b60045561071f614e0e565b976040519861072d8a614788565b6001600160a01b031689523691614b62565b60208701523691614b62565b6040840152604435606084015261076336888b614b62565b608084015260c43560a08401520460c0820152600160e08201524261010082015281610120820152816101408201528582526005602052604082209060018060a01b038151166001600160601b0360a01b83541617825560208101518051906001600160401b038211610ce9576107ea826107e16001870154614721565b60018701614af7565b602090601f8311600114610d6b576108199291869183610c6c575b50508160011b915f199060031b1c19161790565b60018301555b60408101518051906001600160401b038211610ce95761084f826108466002870154614721565b60028701614af7565b602090601f8311600114610cfd5761087d9291869183610c6c5750508160011b915f199060031b1c19161790565b60028301555b6060810151600383015560808101518051906001600160401b038211610ce9576108bd826108b46004870154614721565b60048701614af7565b602090601f8311600114610c77578261014093600a95936108f2938992610c6c5750508160011b915f199060031b1c19161790565b60048501555b60a0810151600585015560c0810151600685015561092b60e08201511515600786019060ff801983541691151516179055565b610100810151600885015561012081015160098501550151910155848152600b602052806040812091610c585750600260ff19825416179055835f52601f60205260405f20600160ff198254161790556020805260e43560405f2055600c60205260405f20916001600160401b038211610bdd576109b3826109ad8554614721565b85614af7565b5f90601f8311600114610bf1576109e092915f9183610b705750508160011b915f199060031b1c19161790565b90555b815f52600d60205260405f20906001600160401b038111610bdd57610a1281610a0c8454614721565b84614af7565b5f601f8211600114610b7b578190610a409394955f92610b705750508160011b915f199060031b1c19161790565b90555b5f818152600e6020526040902060a43590556001546001600160a01b031690610a6a614e0e565b915f92604051610a79816147a4565b600f81526e3634b9ba2fb83934bb30ba32afbb1960891b6020820152823b15610b6c57610ad4925f9283604051809681958294633111036160e11b845260018060a01b031660048401526040602484015260448301906148a3565b03925af18015610b6157610b4e575b5081610aed614e0e565b90610b3a5760209250817f7113fcd865eb94ce44d32a368d8f471b51903552b5f39a5ac85c37d85b27cb6f6040805193600285526044358786015260018060a01b031693a3604051908152f35b634e487b7160e01b83526021600452602483fd5b610b59919250614759565b5f905f610ae3565b6040513d5f823e3d90fd5b5f80fd5b013590505f80610805565b601f19821694835f5260205f20915f5b878110610bc5575083600195969710610bac575b505050811b019055610a43565b01355f19600384901b60f8161c191690555f8080610b9f565b90926020600181928686013581550194019101610b8b565b634e487b7160e01b5f52604160045260245ffd5b835f9392935260205f20905f935b601f1984168510610c40576001945083601f19811610610c27575b505050811b0190556109e3565b01355f19600384901b60f8161c191690555f8080610c1a565b81810135835560209485019460019093019201610bff565b634e487b7160e01b81526021600452602490fd5b015190505f80610805565b906004850186526020862091865b601f1985168110610cd1575092600a94926001926101409583601f19811610610cb9575b505050811b0160048501556108f8565b01515f1960f88460031b161c191690555f8080610ca9565b91926020600181928685015181550194019201610c85565b634e487b7160e01b85526041600452602485fd5b9190600285018652602086209086935b601f1984168510610d50576001945083601f19811610610d38575b505050811b016002830155610883565b01515f1960f88460031b161c191690555f8080610d28565b81810151835560209485019460019093019290910190610d0d565b9190600185018652602086209086935b601f1984168510610dbe576001945083601f19811610610da6575b505050811b01600183015561081f565b01515f1960f88460031b161c191690555f8080610d96565b81810151835560209485019460019093019290910190610d7b565b61074b91955091610dec60649493614759565b5f95915091926106e2565b6020813d602011610e28575b81610e10602093836147bf565b81010312610b6c57610e2190614a0f565b505f610687565b3d9150610e03565b60405162461bcd60e51b81526020600482015260166024820152754b533a20696e73756666696369656e74207374616b6560501b6044820152606490fd5b90506020813d602011610e98575b81610e89602093836147bf565b81010312610b6c57515f610624565b3d9150610e7c565b60405162461bcd60e51b815260206004820152601460248201527312d4ce881b5a5b881cdd185ad9480c4c0810d2d560621b6044820152606490fd5b634e487b7160e01b5f52601160045260245ffd5b6020610efa614e0e565b60405163d386df2360e01b81526001600160a01b03909116600482015291829060249082905afa8015610b61575f90610f3f575b610f39915015614a5d565b5f6105b1565b506020813d602011610f72575b81610f59602093836147bf565b81010312610b6c57610f6d610f3991614a0f565b610f2e565b3d9150610f4c565b60405162461bcd60e51b815260206004820152601e60248201527f4b533a2073656c6c65722062617365207374616b6520726571756972656400006044820152606490fd5b90506020813d602011610ff1575b81610fda602093836147bf565b81010312610b6c57610feb90614a0f565b5f610599565b3d9150610fcd565b60405162461bcd60e51b815260206004820152601560248201527412d4ce88191d5c1b1a58d85d194818dbdb9d195b9d605a1b6044820152606490fd5b60405162461bcd60e51b81526020600482015260156024820152744b533a20656d70747920636f6e74656e742075726960581b6044820152606490fd5b60405162461bcd60e51b81526020600482015260116024820152704b533a20656d707479207072657669657760781b6044820152606490fd5b60405162461bcd60e51b815260206004820152600f60248201526e4b533a2070726963652072616e676560881b6044820152606490fd5b5069d3c21bcecceda10000006044351115610523565b60405162461bcd60e51b815260206004820152600e60248201526d12d4ce881d1a5d1b19480ccb4d8d60921b6044820152606490fd5b50604083111561050a565b60405162461bcd60e51b815260206004820152601460248201527312d4ce8818db19585c881919589d08199a5c9cdd60621b6044820152606490fd5b503d805f833e61118681836147bf565b810190602081830312610b6c578051906001600160401b038211610b6c57019061012082820312610b6c57604051906111be8261476c565b82516001600160401b038111610b6c57816111da918501614ab2565b82526020830151906001600160401b038211610b6c576111fb918401614ab2565b60208201526040820151916001600160a01b0383168303610b6c576101006112699160e094604085015261123160608201614b54565b60608501526080810151608085015260a081015160a085015260c081015160c085015261125f858201614a0f565b8585015201614a0f565b6101008201526104f5565b60405162461bcd60e51b815260206004820152600b60248201526a4b533a207469657220312b60a81b6044820152606490fd5b90506020813d6020116112de575b816112c2602093836147bf565b81010312610b6c5760ff6112d7600192614b54565b91506104a9565b3d91506112b5565b506020813d602011611319575b81611300602093836147bf565b81010312610b6c5761131461046791614a0f565b61045d565b3d91506112f3565b8280fd5b8380fd5b5080fd5b503461036a57602036600319011261036a5760406020916004358152601983522054604051908152f35b503461036a578060031936011261036a57602060405160058152f35b503461036a57602036600319011261036a5760ff6040602092600435815260248452205416604051908152f35b503461036a57604036600319011261036a576113ea6004356113c06148c8565b908084525f80516020614ee78339815191526020526113e56001604086200154614c3e565b614d33565b5080f35b5034610b6c576020366003190112610b6c576004355f52600560205260405f20600b60205260ff60405f2054169160038310159182611edd5760018414801561213b575b156120ff5761144760ff600783015416614953565b6004355f52601f60205260ff60405f205416156120c7576004355f526020805260405f2054806120b2575b506001546001600160a01b031691611488614e0e565b60405163c3c5a54760e01b81526001600160a01b039091166004820152602081602481875afa8015610b61575f90612077575b6114c59150614a1c565b6114cd614e0e565b82546001600160a01b0391821691161461203e576114e9614e0e565b604051631f1da14d60e11b81526001600160a01b039091166004820152602081602481875afa908115610b61575f91612004575b5015611fb4576003546001600160a01b031680611f2a575b5061153e614e0e565b936040519460208601906001600160601b03199060601b16815260043560348701526034865260608601908682106001600160401b03831117610bdd57816040528651902095865f52600860205260405f2054611ef15750505f9360065491600183018311610edc57611edd5760028714611c2b575b50506003820154938460021b948015818704600414811715610edc578180046001141715610edc576115f5606482046115f06064890484614e01565b614e01565b958582018211610edc575f546001600160a01b0316611612614e0e565b6040516370a0823160e01b81526001600160a01b039091166004820152602081602481855afa908115610b61575f91611bf9575b5087840111611bbd5760206116995f9261165e614e0e565b6040516323b872dd60e01b81526001600160a01b03909116600482015230602482015260648087046044830152909485938492839190820190565b03925af18015610b6157611b84575b505f546001600160a01b031690813b15610b6c57606460245f92836040519586948593630852cd8d60e31b85520460048401525af18015610b6157611b71575b5082546001600160a01b031690602090611700614e0e565b6002546040516323b872dd60e01b81526001600160a01b03928316600482015291166024820152606491829004604482015292839190829087905af18015611af457611b38575b5081546117a19060209087906001600160a01b0316611764614e0e565b6040516323b872dd60e01b81526001600160a01b039091166004820152306024820152604481019290925290928391908290879082906064820190565b03925af18015611af457611aff575b5083611a8a575b6117c2600654614b46565b94856006556117cf614e0e565b604051908160c08101106001600160401b0360c084011117610bdd5760c0820160405260018060a01b0316815261187960046020830192813584526040810194855260608101428152608082019588875260a08301958987528c8a52600760205260408a209360018060a01b039051166001600160601b0360a01b8554161784555160018401555160028301555160038201550192511515839060ff801983541691151516179055565b51815461ff00191690151560081b61ff001617905560028614611a63575b81526008602052836040822055600982016118b28154614b46565b9055600a82016118c28154614b46565b90556001546001600160a01b03166118d8614e0e565b813b1561132157604051630a3be34960e01b81526001600160a01b0390911660048201529082908290602490829084905af18015611a4457908291611a4f575b50506001546001600160a01b031661192e614e0e565b813b156113215760408051633111036160e11b81526001600160a01b0390921660048301526024820152600b60448201526a383ab931b430b9b2afbb1960a91b60648201529082908290608490829084905af18015611a4457611a30575b50506002602094145f146119e457506001600160a01b036119ab614e0e565b1690604051908152827f7a41cc87a8fa6c568be198d7351cfa41f668dd04937d963b6fecc8a9be180d2e8560043593a45b604051908152f35b905060036119f0614e0e565b9101549060405191825260018060a01b031690827fb1388757ab12142ef905a9b301dcdd81dd63ec6232a8fa5c48447495aee44fcc8560043593a46119dc565b611a3a8291614759565b61036a578061198c565b6040513d84823e3d90fd5b611a5890614759565b61036a57805f611918565b8482526019602052836040832055601360205260408220600160ff19825416179055611897565b8154611aa69060209086906001600160a01b0316611764614e0e565b03925af18015611af457611abb575b506117b7565b6020813d602011611aec575b81611ad4602093836147bf565b8101031261132157611ae590614a0f565b505f611ab5565b3d9150611ac7565b6040513d85823e3d90fd5b6020813d602011611b30575b81611b18602093836147bf565b8101031261132157611b2990614a0f565b505f6117b0565b3d9150611b0b565b6020813d602011611b69575b81611b51602093836147bf565b8101031261132157611b6290614a0f565b505f611747565b3d9150611b44565b611b7c919350614759565b5f915f6116e8565b6020813d602011611bb5575b81611b9d602093836147bf565b81010312610b6c57611bae90614a0f565b505f6116a8565b3d9150611b90565b60405162461bcd60e51b815260206004820152601460248201527312d4ce881a5b9cdd59999a58da595b9d0810d2d560621b6044820152606490fd5b90506020813d602011611c23575b81611c14602093836147bf565b81010312610b6c57515f611646565b3d9150611c07565b909193505f611c38614e0e565b60405163d4509d7960e01b81526001600160a01b03909116600482015291829060249082905afa918215610b61575f915f93611e96575b508115611e5157825115611e0d57611ca6604051611c8c816147a4565b6007815266697066733a2f2f60c81b602082015284614e8c565b8015611ddd575b15611d98576001015f52600f60205260405f2055602160205260405f20908051906001600160401b038211610bdd57611cea826109ad8554614721565b602090601f8311600114611d3057611d1892915f9183610c6c5750508160011b915f199060031b1c19161790565b90555b611d286003820154614dbe565b915f806115b4565b9190835f5260205f20905f935b601f1984168510611d7d576001945083601f19811610611d65575b505050811b019055611d1b565b01515f1960f88460031b161c191690555f8080611d58565b81810151835560209485019460019093019290910190611d3d565b60405162461bcd60e51b815260206004820152601f60248201527f4b533a20696e76616c69642064656c697665727920636f6e66696720555249006044820152606490fd5b50611e08604051611ded816147a4565b600881526768747470733a2f2f60c01b602082015284614e8c565b611cad565b606460405162461bcd60e51b815260206004820152602060248201527f4b533a2064656c697665727920636f6e666967205552492072657175697265646044820152fd5b60405162461bcd60e51b815260206004820152601c60248201527f4b533a2064656c697665727920636f6e666967207265717569726564000000006044820152606490fd5b915091503d805f833e611ea981836147bf565b810190604081830312610b6c5780519160208201516001600160401b038111610b6c57611ed69201614ab2565b915f611c6f565b634e487b7160e01b5f52602160045260245ffd5b907412d4ce88185b1c9958591e481c1d5c98da185cd959605a1b60a460649362461bcd60e51b8452602085820152601560848201520152fd5b6020611f34614e0e565b60405163d386df2360e01b81526001600160a01b03909116600482015291829060249082905afa8015610b61575f90611f79575b611f73915015614a5d565b5f611535565b506020813d602011611fac575b81611f93602093836147bf565b81010312610b6c57611fa7611f7391614a0f565b611f68565b3d9150611f86565b60405162461bcd60e51b815260206004820152602260248201527f4b533a207265766965772070656e64696e6720707572636861736573206669726044820152611cdd60f21b6064820152608490fd5b90506020813d602011612036575b8161201f602093836147bf565b81010312610b6c5761203090614a0f565b5f61151d565b3d9150612012565b60405162461bcd60e51b81526020600482015260116024820152704b533a2073656c662d707572636861736560781b6044820152606490fd5b506020813d6020116120aa575b81612091602093836147bf565b81010312610b6c576120a56114c591614a0f565b6114bb565b3d9150612084565b6120c1906009830154106149d4565b5f611472565b60405162461bcd60e51b815260206004820152601060248201526f12d4ce881cd85b195cc818db1bdcd95960821b6044820152606490fd5b60405162461bcd60e51b81526020600482015260146024820152734b533a206e6f74207632206b6e6f776c6564676560601b6044820152606490fd5b505f925060028414611432565b34610b6c576020366003190112610b6c576004355f52601460205260206001600160401b0360405f205416604051908152f35b34610b6c576020366003190112610b6c576004355f5260216020526121b96121a560405f206147e0565b6040519182916020835260208301906148a3565b0390f35b34610b6c576020366003190112610b6c576001600160a01b036121de6148de565b165f526027602052602060405f2054604051908152f35b34610b6c576020366003190112610b6c57600435805f52600560205261222d60ff600760405f2061222581614b98565b015416614953565b5f818152601f60205260409020805460ff191690556001600160a01b03612252614e0e565b16907f6ceb2397d45abc760c63b6f5a2872f065d1aa77b56e892fc414712eb7185edd05f80a3005b34610b6c5760c0366003190112610b6c576004356001600160401b038111610b6c576122aa9036906004016146f4565b906024356001600160401b038111610b6c576122ca9036906004016146f4565b92906064356001600160401b038111610b6c576122eb9036906004016146f4565b9290946084356001600160401b038111610b6c5761230d9036906004016146f4565b6001546001600160a01b031694612322614e0e565b60405163c3c5a54760e01b81526001600160a01b0390911660048201526020816024818a5afa8015610b61575f90612e2c575b61235f9150614a1c565b612367614e0e565b604051635a2d572960e11b81526001600160a01b0390911660048201526020816024818a5afa908115610b61575f91612ded575b5060ff6001911610611274576123af614e0e565b60405163fb3551ff60e01b81526001600160a01b0390911660048201525f816024818a5afa8015610b61575f90612cdb575b60e09150015161113a57600385101580612cd0575b156110f957670de0b6b3a7640000604435101580612cba575b156110ac5786156110735781156110365760a4355f52600960205260ff60405f205416610ff9575f956020612442614e0e565b60405163dbbd81b960e01b81526001600160a01b03909116600482015291829060249082905afa908115610b61575f91612c80575b5015610f7a576003546001600160a01b031680612bf6575b50601460443502936044358504601414604435151715610edc57678ac7230489e800006064860410610ea0575f546001600160a01b03166124ce614e0e565b6040516370a0823160e01b81526001600160a01b039091166004820152602081602481855afa908115610b61575f91612bc4575b506064870411610e305760206125589161251a614e0e565b6040516323b872dd60e01b81526001600160a01b0390911660048201523060248201526064808a046044830152909384929183915f91839190820190565b03925af18015610b6157612b8b575b506001546001600160a01b03169861257d614e0e565b8a3b15610b6c576040516331ba14cf60e11b81526001600160a01b039091166004820152606487046024820152995f908b90604490829084905af1998a15610b61576125fd9a612b5f575b50606495949261264894926126286126349360a4358c52600960205260408c20600160ff198254161790556004549d8e614b46565b600455612608614e0e565b9a6040519b6126168d614788565b6001600160a01b03168c523691614b62565b60208a01523691614b62565b604087015260443560608701523691614b62565b608084015260a43560a08401520460c0820152600160e08201524261010082015281610120820152816101408201528382526005602052604082209060018060a01b038151166001600160601b0360a01b83541617825560208101518051906001600160401b038211610ce9576126c6826107e16001870154614721565b602090601f8311600114612af1576126f49291869183612a785750508160011b915f199060031b1c19161790565b60018301555b60408101518051906001600160401b038211610ce957612721826108466002870154614721565b602090601f8311600114612a835761274f9291869183612a785750508160011b915f199060031b1c19161790565b60028301555b6060810151600383015560808101518051906001600160401b038211610ce957612786826108b46004870154614721565b602090601f8311600114612a06578261014093600a95936127bb9389926129fb5750508160011b915f199060031b1c19161790565b60048501555b60a0810151600585015560c081015160068501556127f460e08201511515600786019060ff801983541691151516179055565b610100810151600885015561012081015160098501550151910155828152600b602052806040812091610c585750600160ff19825416179055815f52601f60205260405f20600160ff19825416179055602080525f6040812055600c60205260405f20906001600160401b038111610bdd5761287481610a0c8454614721565b5f601f82116001146129995781906128a29394955f9261298e5750508160011b915f199060031b1c19161790565b90555b6001546001600160a01b0316906128ba614e0e565b6040516128c6816147a4565b600e81526d3634b9ba2fb83ab13634b1afbb1960911b6020820152833b15610b6c57612920935f9283604051809781958294633111036160e11b845260018060a01b031660048401526040602484015260448301906148a3565b03925af1918215610b615760209261297f575b506001600160a01b03612944614e0e565b16817f7113fcd865eb94ce44d32a368d8f471b51903552b5f39a5ac85c37d85b27cb6f604080516001815260443587820152a3604051908152f35b61298890614759565b82612933565b013590508580610805565b601f19821694835f5260205f20915f5b8781106129e35750836001959697106129ca575b505050811b0190556128a5565b01355f19600384901b60f8161c191690558480806129bd565b909260206001819286860135815501940191016129a9565b015190508b80610805565b906004850186526020862091865b601f1985168110612a60575092600a94926001926101409583601f19811610612a48575b505050811b0160048501556127c1565b01515f1960f88460031b161c191690558a8080612a38565b91926020600181928685015181550194019201612a14565b015190508980610805565b9190600285018652602086209086935b601f1984168510612ad6576001945083601f19811610612abe575b505050811b016002830155612755565b01515f1960f88460031b161c19169055888080612aae565b81810151835560209485019460019093019290910190612a93565b9190600185018652602086209086935b601f1984168510612b44576001945083601f19811610612b2c575b505050811b0160018301556126fa565b01515f1960f88460031b161c19169055888080612b1c565b81810151835560209485019460019093019290910190612b01565b612634919850926126489492612b786064989795614759565b6126285f9a9350509294509294956125c8565b6020813d602011612bbc575b81612ba4602093836147bf565b81010312610b6c57612bb590614a0f565b508a612567565b3d9150612b97565b90506020813d602011612bee575b81612bdf602093836147bf565b81010312610b6c57518c612502565b3d9150612bd2565b6020612c00614e0e565b60405163d386df2360e01b81526001600160a01b03909116600482015291829060249082905afa8015610b61575f90612c45575b612c3f915015614a5d565b8961248f565b506020813d602011612c78575b81612c5f602093836147bf565b81010312610b6c57612c73612c3f91614a0f565b612c34565b3d9150612c52565b90506020813d602011612cb2575b81612c9b602093836147bf565b81010312610b6c57612cac90614a0f565b8a612477565b3d9150612c8e565b5069d3c21bcecceda1000000604435111561240f565b5060408511156123f6565b503d805f833e612ceb81836147bf565b6020828281010312610b6c5781516001600160401b038111610b6c576101208184018385010312610b6c5760405191612d238361476c565b818401516001600160401b038111610b6c57612d46908286019084870101614ab2565b8352602082850101516001600160401b038111610b6c57612d6d9185019083860101614ab2565b6020830152828101604001516001600160a01b0381168103610b6c5760e093612de4916040850152612da3606084830101614b54565b60608501528083016080818101519086015260a0808201519086015260c08082015190860152612dd4908601614a0f565b8486015261010092018201614a0f565b908201526123e1565b90506020813d602011612e24575b81612e08602093836147bf565b81010312610b6c5760ff612e1d600192614b54565b915061239b565b3d9150612dfb565b506020813d602011612e5f575b81612e46602093836147bf565b81010312610b6c57612e5a61235f91614a0f565b612355565b3d9150612e39565b34610b6c575f366003190112610b6c57602060405160048152f35b34610b6c575f366003190112610b6c576020604051670de0b6b3a76400008152f35b34610b6c576020366003190112610b6c576001600160a01b03612ec56148de565b165f526025602052602060405f2054604051908152f35b34610b6c576020366003190112610b6c576004355f526008602052602060405f2054604051908152f35b34610b6c576020366003190112610b6c576004355f526018602052602060ff60405f2054166040519015158152f35b34610b6c576020366003190112610b6c576004355f526026602052602060405f2054604051908152f35b34610b6c575f366003190112610b6c5760206040515f8152f35b34610b6c576020366003190112610b6c576004355f52601360205260ff60405f205416604051600a821015611edd576020918152f35b34610b6c575f366003190112610b6c5760206040516203f4808152f35b34610b6c576020366003190112610b6c576004355f52601660205260206001600160401b0360405f205416604051908152f35b34610b6c576040366003190112610b6c576130186148c8565b6004355f525f80516020614ee783398151915260205260405f209060018060a01b03165f52602052602060ff60405f2054166040519015158152f35b34610b6c57602080600319360112610b6c5760043590815f52600b815260ff60405f2054166003811015611edd576002036130e9576130d2915f52600c815260405f20600d82526130df60405f2092600e81526130be6130b860405f2054946147e0565b946147e0565b6040519586956060875260608701906148a3565b91858303908601526148a3565b9060408301520390f35b6064906040519062461bcd60e51b82526004820152601260248201527125a99d103737ba10383934bb30ba32903b1960711b6044820152fd5b34610b6c576020366003190112610b6c576004355f526012602052602060ff60405f205416604051908152f35b34610b6c575f366003190112610b6c576003546040516001600160a01b039091168152602090f35b34610b6c576020366003190112610b6c576004355f52600760205260c060405f2060ff60018060a01b0382541691600181015490600281015460046003830154920154926040519586526020860152604085015260608401528181161515608084015260081c16151560a0820152f35b34610b6c576020366003190112610b6c576004355f52600b60205260ff60405f2054166040516003821015611edd576020918152f35b34610b6c575f366003190112610b6c576040517f00000000000000000000000000000000000000000000000000000000000000006001600160a01b03168152602090f35b34610b6c575f366003190112610b6c576001546040516001600160a01b039091168152602090f35b34610b6c575f366003190112610b6c575f546040516001600160a01b039091168152602090f35b34610b6c576020366003190112610b6c576004355f52601d602052602060ff60405f2054166040519015158152f35b34610b6c576020366003190112610b6c576004355f526017602052602060ff60405f2054166040519015158152f35b34610b6c576020366003190112610b6c576004355f52601c602052602060ff60405f2054166040519015158152f35b34610b6c575f366003190112610b6c57602060405160148152f35b6135c6565b34610b6c576020366003190112610b6c576004355f526009602052602060ff60405f2054166040519015158152f35b34610b6c575f366003190112610b6c57601e546040516001600160a01b039091168152602090f35b34610b6c576020366003190112610b6c5760206133cf6148de565b6040517f00000000000000000000000000000000000000000000000000000000000000006001600160a01b039081169216919091148152f35b34610b6c576020366003190112610b6c576004355f5260208052602060405f2054604051908152f35b34610b6c576020366003190112610b6c576004355f52601560205260206001600160401b0360405f205416604051908152f35b34610b6c575f366003190112610b6c576002546040516001600160a01b039091168152602090f35b34610b6c576020366003190112610b6c576004355f526023602052602060ff60405f2054166040519015158152f35b34610b6c576020366003190112610b6c576004355f52600f602052602060405f2054604051908152f35b34610b6c575f366003190112610b6c57600a546040516001600160a01b039091168152602090f35b34610b6c576040366003190112610b6c576135266148c8565b6001600160a01b0380613537614e0e565b169082160361354e5761354c90600435614d33565b005b60405163334bd91960e11b8152600490fd5b34610b6c575f366003190112610b6c576020600454604051908152f35b34610b6c576040366003190112610b6c5761354c60043561359c6148c8565b90805f525f80516020614ee78339815191526020526135c1600160405f200154614c3e565b614c9e565b34610b6c575f366003190112610b6c57602060405160018152f35b6146d9565b34610b6c576020366003190112610b6c576004355f52601f602052602060ff60405f2054166040519015158152f35b34610b6c576020366003190112610b6c576004355f525f80516020614ee78339815191526020526020600160405f200154604051908152f35b34610b6c575f366003190112610b6c576020600654604051908152f35b34610b6c576020366003190112610b6c576004355f52601b602052602060405f2054604051908152f35b34610b6c576020366003190112610b6c576004355f52601a602052602060ff60405f2054166040519015158152f35b34610b6c576040366003190112610b6c57600435602435815f526020906005825260405f206136f281614b98565b61370260ff600783015416614953565b835f52600b835260ff60405f2054166003811015611edd576002146137b5575b81159081156137a6575b501561376a57907f907ec6fda89cc876cfde46c1a8546ad3661037c31d626b98b723fb960b1c477f91835f528180528060405f2055604051908152a2005b60405162461bcd60e51b815260048101839052601460248201527312d4ce8818995b1bddc81cd85b195cd0dbdd5b9d60621b6044820152606490fd5b6009915001548110158461372c565b6137c0821515614990565b613722565b34610b6c575f366003190112610b6c576020604051620151808152f35b34610b6c57602080600319360112610b6c5760043590815f526005815260405f209061380d82614b98565b61381d60ff600784015416614953565b825f5280805260405f205491600b825260ff60405f205416906003821015611edd57601f93600261385f93146138bb575b80159182156138ad575b50506149d4565b5f83815291905260409020805460ff191660011790556001600160a01b03613885614e0e565b16907f5c376d64e843a13c1bc5d224e23caaa5b723b1db4f938b4adbcb43a8d7abefd95f80a3005b600901541090508580613858565b6138c6811515614990565b61384e565b34610b6c576020366003190112610b6c576004355f90815260056020526040902080546001600160a01b0316613903600183016147e0565b91613910600282016147e0565b600382015491613922600482016147e0565b600582015493600683015461398b60ff60078601541692600886015494613978600a60098901549801549861396a6040519d8e9d8e61016091815281602082015201906148a3565b8c810360408e0152906148a3565b9160608b015289820360808b01526148a3565b9560a088015260c0870152151560e08601526101008501526101208401526101408301520390f35b34610b6c575f366003190112610b6c5760206040516104008152f35b34610b6c575f366003190112610b6c57602060405162278d008152f35b34610b6c5760e0366003190112610b6c576004356001600160401b038111610b6c57613a1c9036906004016146f4565b906024356001600160401b038111610b6c57613a3c9036906004016146f4565b92906064356001600160401b038111610b6c57613a5d9036906004016146f4565b90916084356001600160401b038111610b6c57613a7e9036906004016146f4565b949096613a8e60a435151561490f565b60015492613a9a614e0e565b60405163c3c5a54760e01b81526001600160a01b039182166004820152906020908290602490829089165afa8015610b61575f90614578575b613add9150614a1c565b613ae5614e0e565b604051635a2d572960e11b81526001600160a01b039182166004820152906020908290602490829089165afa908115610b61575f91614539575b5060ff600191161061127457613b33614e0e565b60405163fb3551ff60e01b81526001600160a01b039182166004820152905f908290602490829089165afa8015610b61575f90614468575b60e09150015161113a5760038310158061445d575b156110f957670de0b6b3a7640000604435101580614447575b156110ac5784156110735786156110365760c4355f52600960205260ff60405f205416610ff9575f936020613bcc614e0e565b60405163dbbd81b960e01b81526001600160a01b0391821660048201529283916024918391165afa908115610b61575f9161440d575b5015610f7a576003546001600160a01b031680614383575b50601460443502916044358304601414604435151715610edc57678ac7230489e800006064840410610ea0575f546001600160a01b0316613c59614e0e565b6040516370a0823160e01b81526001600160a01b039091166004820152602081602481855afa908115610b61575f91614351575b506064850411610e30576020613ca65f9261063d614e0e565b03925af18015610b6157614318575b506001546001600160a01b0316613cca614e0e565b813b15610b6c576040516331ba14cf60e11b81526001600160a01b039091166004820152606485046024820152905f908290604490829084905af18015610b61576142fa575b5060649291613d429160c4358752600960205260408720600160ff1982541617905561073f6004549b6107148d614b46565b60408401526044356060840152613d5a36888b614b62565b608084015260c43560a08401520460c0820152600160e08201524261010082015281610120820152816101408201528582526005602052604082209060018060a01b038151166001600160601b0360a01b83541617825560208101518051906001600160401b038211610ce957613dd8826107e16001870154614721565b602090601f831160011461428c57613e0692918691836129fb5750508160011b915f199060031b1c19161790565b60018301555b60408101518051906001600160401b038211610ce957613e33826108466002870154614721565b602090601f831160011461421e57613e6192918691836129fb5750508160011b915f199060031b1c19161790565b60028301555b6060810151600383015560808101518051906001600160401b038211610ce957613e98826108b46004870154614721565b602090601f83116001146141ac578261014093600a9593613ecd9389926141a15750508160011b915f199060031b1c19161790565b60048501555b60a0810151600585015560c08101516006850155613f0660e08201511515600786019060ff801983541691151516179055565b610100810151600885015561012081015160098501550151910155848152600b602052806040812091610c585750600260ff19825416179055835f52601f60205260405f20600160ff1982541617905560208052600160405f2055600c60205260405f20916001600160401b038211610bdd57613f87826109ad8554614721565b5f90601f831160011461413a57613fb492915f918361412f5750508160011b915f199060031b1c19161790565b90555b815f52600d60205260405f20906001600160401b038111610bdd57613fe081610a0c8454614721565b5f601f82116001146140cd57819061400e9394955f9261298e5750508160011b915f199060031b1c19161790565b90555b5f818152600e6020526040902060a43590556001546001600160a01b031690614038614e0e565b915f92604051614047816147a4565b600f81526e3634b9ba2fb83934bb30ba32afbb1960891b6020820152823b15610b6c576140a2925f9283604051809681958294633111036160e11b845260018060a01b031660048401526040602484015260448301906148a3565b03925af18015610b61576140ba575081610aed614e0e565b6140c5919250614759565b5f9082610ae3565b601f19821694835f5260205f20915f5b8781106141175750836001959697106140fe575b505050811b019055614011565b01355f19600384901b60f8161c191690558480806140f1565b909260206001819286860135815501940191016140dd565b013590508780610805565b835f9392935260205f20905f935b601f1984168510614189576001945083601f19811610614170575b505050811b019055613fb7565b01355f19600384901b60f8161c19169055868080614163565b81810135835560209485019460019093019201614148565b015190508d80610805565b906004850186526020862091865b601f1985168110614206575092600a94926001926101409583601f198116106141ee575b505050811b016004850155613ed3565b01515f1960f88460031b161c191690558c80806141de565b919260206001819286850151815501940192016141ba565b9190600285018652602086209086935b601f1984168510614271576001945083601f19811610614259575b505050811b016002830155613e67565b01515f1960f88460031b161c191690558a8080614249565b8181015183556020948501946001909301929091019061422e565b9190600185018652602086209086935b601f19841685106142df576001945083601f198116106142c7575b505050811b016001830155613e0c565b01515f1960f88460031b161c191690558a80806142b7565b8181015183556020948501946001909301929091019061429c565b613d429195509161430d60649493614759565b5f9591509192613d10565b6020813d602011614349575b81614331602093836147bf565b81010312610b6c5761434290614a0f565b508a613cb5565b3d9150614324565b90506020813d60201161437b575b8161436c602093836147bf565b81010312610b6c57518c613c8d565b3d915061435f565b602061438d614e0e565b60405163d386df2360e01b81526001600160a01b03909116600482015291829060249082905afa8015610b61575f906143d2575b6143cc915015614a5d565b89613c1a565b506020813d602011614405575b816143ec602093836147bf565b81010312610b6c576144006143cc91614a0f565b6143c1565b3d91506143df565b90506020813d60201161443f575b81614428602093836147bf565b81010312610b6c5761443990614a0f565b8a613c02565b3d915061441b565b5069d3c21bcecceda10000006044351115613b99565b506040831115613b80565b503d805f833e61447881836147bf565b6020828281010312610b6c5781516001600160401b038111610b6c576101208184018385010312610b6c57604051916144b08361476c565b818401516001600160401b038111610b6c576144d3908286019084870101614ab2565b8352602082850101516001600160401b038111610b6c576144fa9185019083860101614ab2565b6020830152828101604001516001600160a01b0381168103610b6c5760e093614530916040850152612da3606084830101614b54565b90820152613b6b565b90506020813d602011614570575b81614554602093836147bf565b81010312610b6c5760ff614569600192614b54565b9150613b1f565b3d9150614547565b506020813d6020116145ab575b81614592602093836147bf565b81010312610b6c576145a6613add91614a0f565b613ad3565b3d9150614585565b34610b6c576020366003190112610b6c576004355f526022602052602060ff60405f2054166040519015158152f35b34610b6c576020366003190112610b6c576004355f52600e602052602060405f2054604051908152f35b34610b6c575f366003190112610b6c5760206040517fba279271fb7bbf76a6f3df3cc57bf80647fcafdea60ec3383d90f459de74e7c08152f35b34610b6c575f366003190112610b6c57602060405160038152f35b34610b6c576020366003190112610b6c5760043563ffffffff60e01b8116809103610b6c57602090637965db0b60e01b81149081156146a6575b506040519015158152f35b6301ffc9a760e01b1490508261469b565b34610b6c575f366003190112610b6c578069d3c21bcecceda100000060209252f35b34610b6c575f366003190112610b6c57602060405160028152f35b9181601f84011215610b6c578235916001600160401b038311610b6c5760208381860195010111610b6c57565b90600182811c9216801561474f575b602083101461473b57565b634e487b7160e01b5f52602260045260245ffd5b91607f1691614730565b6001600160401b038111610bdd57604052565b61012081019081106001600160401b03821117610bdd57604052565b61016081019081106001600160401b03821117610bdd57604052565b604081019081106001600160401b03821117610bdd57604052565b90601f801991011681019081106001600160401b03821117610bdd57604052565b9060405191825f82546147f281614721565b908184526020946001916001811690815f146148605750600114614822575b505050614820925003836147bf565b565b5f90815285812095935091905b81831061484857505061482093508201015f8080614811565b8554888401850152948501948794509183019161482f565b9250505061482094925060ff191682840152151560051b8201015f8080614811565b5f5b8381106148935750505f910152565b8181015183820152602001614884565b906020916148bc81518092818552858086019101614882565b601f01601f1916010190565b602435906001600160a01b0382168203610b6c57565b600435906001600160a01b0382168203610b6c57565b34610b6c575f366003190112610b6c57602060405160328152f35b1561491657565b60405162461bcd60e51b8152602060048201526015602482015274096a67440cadae0e8f240c6d2e0d0cae440d0c2e6d605b1b6044820152606490fd5b1561495a57565b60405162461bcd60e51b815260206004820152600e60248201526d4b533a206e6f742061637469766560901b6044820152606490fd5b1561499757565b60405162461bcd60e51b815260206004820152601560248201527412d4ce881b585e14d85b195cc81c995c5d5a5c9959605a1b6044820152606490fd5b156149db57565b60405162461bcd60e51b815260206004820152600c60248201526b12d4ce881cdbdb19081bdd5d60a21b6044820152606490fd5b51908115158203610b6c57565b15614a2357565b60405162461bcd60e51b815260206004820152601260248201527112d4ce881b9bdd081c9959da5cdd195c995960721b6044820152606490fd5b15614a6457565b60405162461bcd60e51b815260206004820152600b60248201526a4b533a2072657374696e6760a81b6044820152606490fd5b6001600160401b038111610bdd57601f01601f191660200190565b81601f82011215610b6c578051614ac881614a97565b92614ad660405194856147bf565b81845260208284010111610b6c57614af49160208085019101614882565b90565b601f8211614b0457505050565b5f5260205f20906020601f840160051c83019310614b3c575b601f0160051c01905b818110614b31575050565b5f8155600101614b26565b9091508190614b1d565b5f198114610edc5760010190565b519060ff82168203610b6c57565b929192614b6e82614a97565b91614b7c60405193846147bf565b829481845281830111610b6c578281602093845f960137010152565b614ba0614e0e565b90546001600160a01b0391821690821614908115614bfd575b5015614bc157565b60405162461bcd60e51b815260206004820152601460248201527325a99d103737ba1039b2b63632b917b0b236b4b760611b6044820152606490fd5b9050614c07614e0e565b165f9081527fb7db2dd08fcb62d0c9e08c51941cae53c267786a0b75803fb7960902fc8ef97d602052604081205460ff1690614bb9565b614c46614e0e565b90805f525f80516020614ee783398151915260205260405f209160018060a01b031691825f5260205260ff60405f20541615614c80575050565b604492506040519163e2517d3f60e01b835260048301526024820152fd5b5f8181525f80516020614ee7833981519152602081815260408084206001600160a01b039687168086529252909220549293919260ff16614d2b57835f5260205260405f20825f5260205260405f20600160ff19825416179055614d00614e0e565b16917f2f8788117e7eff1d82e926ec794901d17c78024a50270940304540a733656f0d5f80a4600190565b505050505f90565b5f8181525f80516020614ee7833981519152602081815260408084206001600160a01b039687168086529252909220549293919260ff1615614d2b57835f5260205260405f20825f5260205260405f2060ff198154169055614d93614e0e565b16917ff6391f5c32d9c69d2a47ea670b442974b53935d1edc7fd64eb21e047a839171b5f80a4600190565b600581029080820460051490151715610edc576103e89004670de0b6b3a7640000808210614dfc5750683635c9adc5dea00000808211614dfc575090565b905090565b91908203918211610edc57565b601436101580614e35575b15614e31576013193601368111610b6c573560601c90565b3390565b50337f00000000000000000000000000000000000000000000000000000000000000006001600160a01b031614614e19565b908151811015614e78570160200190565b634e487b7160e01b5f52603260045260245ffd5b908151815111614ee0575f5b8151811015614ed8576001600160f81b031980614eb58386614e67565b511690614ec28385614e67565b511603614ed157600101614e98565b5050505f90565b505050600190565b50505f9056fe02dd7bc7dec4dceedda775e58dd541e08a116c6c53815c0bd028192f7b626800a26469706673582212205029e2988c88588eb9d00effce8ff165fe006cff9329b21948872272f5e7744e64736f6c63430008180033","linkReferences":{}},"methodIdentifiers":{"AUTO_REVIEW_PERIOD()":"0e327030","BURN_PERCENT()":"9c986764","BUYER_RESPONSE_DEADLINE()":"93407b1f","DEBT_DEDUCTION_PERCENT()":"a4ede5eb","DEFAULT_ADMIN_ROLE()":"a217fddf","DELIVERY_DEADLINE()":"16b5219e","FEE_PERCENT()":"eaf98d23","MAX_PRICE()":"01c11d96","MAX_WRAPPED_KEY_BYTES()":"0fc18454","MIN_PRICE()":"ad9f20a6","OBJECTIVE_REASON_EMPTY_WRAPPED_KEY()":"2c1271c3","OBJECTIVE_REASON_OVERSIZED_WRAPPED_KEY()":"2be67c4f","OWNER_PERCENT()":"2e1371bd","PROTOCOL_ROLE()":"02768de4","REFUND_REASON_INVALID_DELIVERY_CONFIG()":"61209b47","REFUND_REASON_SELLER_CANCELLED()":"b38deb80","REFUND_REASON_STALE_OR_INCONSISTENT_BUYER_TX()":"024b8993","REFUND_REASON_UNSUPPORTED_BUYER_KEY()":"0442762e","SLASH_PERCENT()":"f6e8913d","STAKE_PERCENT()":"61c2649e","buyerBondAmount(uint256)":"f5c0b48c","buyerBondForfeited(uint256)":"1f175594","buyerPurchases(bytes32)":"ac8919c9","buyerUndeliveredRefundReceivedCount(address)":"cb0ff255","challengedAt(uint256)":"4a044932","ciphertextHash(uint256)":"02b9bc63","ckt()":"79021310","contentHashExists(bytes32)":"5f7668ce","creditApplied(uint256)":"a8ad0daa","deliveredAt(uint256)":"d11ac988","deliveryAttemptCount(uint256)":"8c5b2293","deliveryState(uint256)":"99dc8654","explicitReviewSubmitted(uint256)":"75e1cf24","explicitSellerScoreByPurchase(uint256)":"2128a4bc","feeRecipient()":"46904840","getPrivateKnowledgeMeta(uint256)":"91722912","getRoleAdmin(bytes32)":"248a9ca3","grantRole(bytes32,address)":"2f2ff15d","hasRole(bytes32,address)":"91d14854","isTrustedForwarder(address)":"572b6c05","knowledgeItems(uint256)":"1018c5f9","knowledgeMode(uint256)":"7e92b854","knowledgeUndeliveredRefundCount(uint256)":"a417ee6d","listPrivateKnowledge(string,string,uint256,string,string,bytes32,bytes32)":"0ab254af","listPrivateKnowledgeWithLimit(string,string,uint256,string,string,bytes32,bytes32,uint256)":"f665986e","listPublicKnowledgeV2(string,string,uint256,string,string,bytes32)":"b7a17a9d","maxSalesByKnowledge(uint256)":"55a5f255","nextKnowledgeId()":"310f1371","nextPurchaseId()":"23b4a7a3","payoutReleased(uint256)":"7021f1a3","purchaseDeliveryConfigSnapshot(uint256)":"3b0ecb61","purchaseDeliveryConfigURI(uint256)":"cdec2cd1","purchaseKnowledgeV2(uint256)":"d468fec6","purchases(uint256)":"8392fe31","redeliveredAt(uint256)":"927f9c99","refundReleased(uint256)":"77c50e9d","registry()":"7b103999","renounceRole(bytes32,address)":"36568abe","reopenSales(uint256)":"1479b25e","reputationContract()":"87bc1425","rescueApplied(uint256)":"073080c7","revokeRole(bytes32,address)":"d547741f","salesOpen(uint256)":"262737cd","sellerUndeliveredRefundCount(address)":"acba20b1","setSaleLimit(uint256,uint256)":"1a337c96","stopSales(uint256)":"c1d6c941","supportsInterface(bytes4)":"01ffc9a7","tempoReward()":"39d006cb","trustedForwarder()":"7da0a877","undeliveredRefundReason(uint256)":"d582d36e","undeliveredSellerRefundApplied(uint256)":"3ec432c6","v2Module()":"575660c2","wrappedKeyHashByPurchase(uint256)":"fece90f5"},"id":56}