{"abi":[{"type":"constructor","inputs":[{"name":"trustedForwarder","type":"address","internalType":"address"}],"stateMutability":"nonpayable"},{"type":"function","name":"AUTO_REVIEW_PERIOD","inputs":[],"outputs":[{"name":"","type":"uint256","internalType":"uint256"}],"stateMutability":"view"},{"type":"function","name":"BURN_PERCENT","inputs":[],"outputs":[{"name":"","type":"uint256","internalType":"uint256"}],"stateMutability":"view"},{"type":"function","name":"DEBT_DEDUCTION_PERCENT","inputs":[],"outputs":[{"name":"","type":"uint256","internalType":"uint256"}],"stateMutability":"view"},{"type":"function","name":"DEFAULT_ADMIN_ROLE","inputs":[],"outputs":[{"name":"","type":"bytes32","internalType":"bytes32"}],"stateMutability":"view"},{"type":"function","name":"DELIVERY_DEADLINE","inputs":[],"outputs":[{"name":"","type":"uint256","internalType":"uint256"}],"stateMutability":"view"},{"type":"function","name":"FEE_PERCENT","inputs":[],"outputs":[{"name":"","type":"uint256","internalType":"uint256"}],"stateMutability":"view"},{"type":"function","name":"MAX_PRICE","inputs":[],"outputs":[{"name":"","type":"uint256","internalType":"uint256"}],"stateMutability":"view"},{"type":"function","name":"MIN_PRICE","inputs":[],"outputs":[{"name":"","type":"uint256","internalType":"uint256"}],"stateMutability":"view"},{"type":"function","name":"OWNER_PERCENT","inputs":[],"outputs":[{"name":"","type":"uint256","internalType":"uint256"}],"stateMutability":"view"},{"type":"function","name":"PROTOCOL_ROLE","inputs":[],"outputs":[{"name":"","type":"bytes32","internalType":"bytes32"}],"stateMutability":"view"},{"type":"function","name":"SLASH_PERCENT","inputs":[],"outputs":[{"name":"","type":"uint256","internalType":"uint256"}],"stateMutability":"view"},{"type":"function","name":"STAKE_PERCENT","inputs":[],"outputs":[{"name":"","type":"uint256","internalType":"uint256"}],"stateMutability":"view"},{"type":"function","name":"UNDELIVERY_REP_PENALTY","inputs":[],"outputs":[{"name":"","type":"int256","internalType":"int256"}],"stateMutability":"view"},{"type":"function","name":"UPGRADE_INTERFACE_VERSION","inputs":[],"outputs":[{"name":"","type":"string","internalType":"string"}],"stateMutability":"view"},{"type":"function","name":"acceptDelivery","inputs":[{"name":"purchaseId","type":"uint256","internalType":"uint256"}],"outputs":[],"stateMutability":"nonpayable"},{"type":"function","name":"buyerBondAmount","inputs":[{"name":"","type":"uint256","internalType":"uint256"}],"outputs":[{"name":"","type":"uint256","internalType":"uint256"}],"stateMutability":"view"},{"type":"function","name":"buyerBondForfeited","inputs":[{"name":"","type":"uint256","internalType":"uint256"}],"outputs":[{"name":"","type":"bool","internalType":"bool"}],"stateMutability":"view"},{"type":"function","name":"buyerPurchases","inputs":[{"name":"","type":"bytes32","internalType":"bytes32"}],"outputs":[{"name":"","type":"uint256","internalType":"uint256"}],"stateMutability":"view"},{"type":"function","name":"challengeDeliveryObjective","inputs":[{"name":"purchaseId","type":"uint256","internalType":"uint256"},{"name":"reasonCode","type":"uint8","internalType":"uint8"},{"name":"evidenceHash","type":"bytes32","internalType":"bytes32"}],"outputs":[],"stateMutability":"nonpayable"},{"type":"function","name":"challengeDeliverySubjective","inputs":[{"name":"purchaseId","type":"uint256","internalType":"uint256"},{"name":"evidenceHash","type":"bytes32","internalType":"bytes32"}],"outputs":[],"stateMutability":"nonpayable"},{"type":"function","name":"challengedAt","inputs":[{"name":"","type":"uint256","internalType":"uint256"}],"outputs":[{"name":"","type":"uint64","internalType":"uint64"}],"stateMutability":"view"},{"type":"function","name":"ciphertextHash","inputs":[{"name":"","type":"uint256","internalType":"uint256"}],"outputs":[{"name":"","type":"bytes32","internalType":"bytes32"}],"stateMutability":"view"},{"type":"function","name":"ckt","inputs":[],"outputs":[{"name":"","type":"address","internalType":"contract CKT"}],"stateMutability":"view"},{"type":"function","name":"claimUndelivered","inputs":[{"name":"purchaseId","type":"uint256","internalType":"uint256"}],"outputs":[],"stateMutability":"nonpayable"},{"type":"function","name":"contentHashExists","inputs":[{"name":"","type":"bytes32","internalType":"bytes32"}],"outputs":[{"name":"","type":"bool","internalType":"bool"}],"stateMutability":"view"},{"type":"function","name":"creditApplied","inputs":[{"name":"","type":"uint256","internalType":"uint256"}],"outputs":[{"name":"","type":"bool","internalType":"bool"}],"stateMutability":"view"},{"type":"function","name":"deactivate","inputs":[{"name":"knowledgeId","type":"uint256","internalType":"uint256"}],"outputs":[],"stateMutability":"nonpayable"},{"type":"function","name":"deliverEncryptedKey","inputs":[{"name":"purchaseId","type":"uint256","internalType":"uint256"},{"name":"wrappedKey","type":"bytes","internalType":"bytes"},{"name":"wrappedKeyHash","type":"bytes32","internalType":"bytes32"}],"outputs":[],"stateMutability":"nonpayable"},{"type":"function","name":"deliverKey","inputs":[{"name":"purchaseId","type":"uint256","internalType":"uint256"}],"outputs":[],"stateMutability":"nonpayable"},{"type":"function","name":"deliveredAt","inputs":[{"name":"","type":"uint256","internalType":"uint256"}],"outputs":[{"name":"","type":"uint64","internalType":"uint64"}],"stateMutability":"view"},{"type":"function","name":"deliveryAttemptCount","inputs":[{"name":"","type":"uint256","internalType":"uint256"}],"outputs":[{"name":"","type":"uint8","internalType":"uint8"}],"stateMutability":"view"},{"type":"function","name":"deliveryState","inputs":[{"name":"","type":"uint256","internalType":"uint256"}],"outputs":[{"name":"","type":"uint8","internalType":"enum KnowledgeStore.DeliveryState"}],"stateMutability":"view"},{"type":"function","name":"explicitReviewSubmitted","inputs":[{"name":"","type":"uint256","internalType":"uint256"}],"outputs":[{"name":"","type":"bool","internalType":"bool"}],"stateMutability":"view"},{"type":"function","name":"explicitSellerScoreByPurchase","inputs":[{"name":"","type":"uint256","internalType":"uint256"}],"outputs":[{"name":"","type":"uint256","internalType":"uint256"}],"stateMutability":"view"},{"type":"function","name":"feeRecipient","inputs":[],"outputs":[{"name":"","type":"address","internalType":"address"}],"stateMutability":"view"},{"type":"function","name":"finalizeCleanTimeout","inputs":[{"name":"purchaseId","type":"uint256","internalType":"uint256"}],"outputs":[],"stateMutability":"nonpayable"},{"type":"function","name":"finalizeUndelivered","inputs":[{"name":"purchaseId","type":"uint256","internalType":"uint256"}],"outputs":[],"stateMutability":"nonpayable"},{"type":"function","name":"forceDeactivateAndBurnStake","inputs":[{"name":"knowledgeId","type":"uint256","internalType":"uint256"}],"outputs":[],"stateMutability":"nonpayable"},{"type":"function","name":"getKnowledge","inputs":[{"name":"id","type":"uint256","internalType":"uint256"}],"outputs":[{"name":"","type":"tuple","internalType":"struct KnowledgeStore.Knowledge","components":[{"name":"seller","type":"address","internalType":"address"},{"name":"title","type":"string","internalType":"string"},{"name":"tags","type":"string","internalType":"string"},{"name":"price","type":"uint256","internalType":"uint256"},{"name":"ipfsCID","type":"string","internalType":"string"},{"name":"contentHash","type":"bytes32","internalType":"bytes32"},{"name":"stakeAmount","type":"uint256","internalType":"uint256"},{"name":"active","type":"bool","internalType":"bool"},{"name":"listedAt","type":"uint256","internalType":"uint256"},{"name":"salesCount","type":"uint256","internalType":"uint256"},{"name":"pendingDeliveries","type":"uint256","internalType":"uint256"}]}],"stateMutability":"view"},{"type":"function","name":"getPrivateKnowledgeMeta","inputs":[{"name":"knowledgeId","type":"uint256","internalType":"uint256"}],"outputs":[{"name":"previewURI","type":"string","internalType":"string"},{"name":"encryptedContentURI","type":"string","internalType":"string"},{"name":"encryptedContentHash","type":"bytes32","internalType":"bytes32"}],"stateMutability":"nonpayable"},{"type":"function","name":"getPurchase","inputs":[{"name":"id","type":"uint256","internalType":"uint256"}],"outputs":[{"name":"","type":"tuple","internalType":"struct KnowledgeStore.Purchase","components":[{"name":"buyer","type":"address","internalType":"address"},{"name":"knowledgeId","type":"uint256","internalType":"uint256"},{"name":"paidAmount","type":"uint256","internalType":"uint256"},{"name":"purchasedAt","type":"uint256","internalType":"uint256"},{"name":"delivered","type":"bool","internalType":"bool"},{"name":"reviewed","type":"bool","internalType":"bool"}]}],"stateMutability":"view"},{"type":"function","name":"getRoleAdmin","inputs":[{"name":"role","type":"bytes32","internalType":"bytes32"}],"outputs":[{"name":"","type":"bytes32","internalType":"bytes32"}],"stateMutability":"view"},{"type":"function","name":"getWrappedKey","inputs":[{"name":"purchaseId","type":"uint256","internalType":"uint256"}],"outputs":[{"name":"wrappedKey","type":"bytes","internalType":"bytes"},{"name":"wrappedKeyHash","type":"bytes32","internalType":"bytes32"}],"stateMutability":"nonpayable"},{"type":"function","name":"grantRole","inputs":[{"name":"role","type":"bytes32","internalType":"bytes32"},{"name":"account","type":"address","internalType":"address"}],"outputs":[],"stateMutability":"nonpayable"},{"type":"function","name":"hasRole","inputs":[{"name":"role","type":"bytes32","internalType":"bytes32"},{"name":"account","type":"address","internalType":"address"}],"outputs":[{"name":"","type":"bool","internalType":"bool"}],"stateMutability":"view"},{"type":"function","name":"initialize","inputs":[{"name":"_ckt","type":"address","internalType":"address"},{"name":"_registry","type":"address","internalType":"address"},{"name":"_feeRecipient","type":"address","internalType":"address"}],"outputs":[],"stateMutability":"nonpayable"},{"type":"function","name":"isTrustedForwarder","inputs":[{"name":"forwarder","type":"address","internalType":"address"}],"outputs":[{"name":"","type":"bool","internalType":"bool"}],"stateMutability":"view"},{"type":"function","name":"knowledgeItems","inputs":[{"name":"","type":"uint256","internalType":"uint256"}],"outputs":[{"name":"seller","type":"address","internalType":"address"},{"name":"title","type":"string","internalType":"string"},{"name":"tags","type":"string","internalType":"string"},{"name":"price","type":"uint256","internalType":"uint256"},{"name":"ipfsCID","type":"string","internalType":"string"},{"name":"contentHash","type":"bytes32","internalType":"bytes32"},{"name":"stakeAmount","type":"uint256","internalType":"uint256"},{"name":"active","type":"bool","internalType":"bool"},{"name":"listedAt","type":"uint256","internalType":"uint256"},{"name":"salesCount","type":"uint256","internalType":"uint256"},{"name":"pendingDeliveries","type":"uint256","internalType":"uint256"}],"stateMutability":"view"},{"type":"function","name":"knowledgeMode","inputs":[{"name":"","type":"uint256","internalType":"uint256"}],"outputs":[{"name":"","type":"uint8","internalType":"enum KnowledgeStore.KnowledgeMode"}],"stateMutability":"view"},{"type":"function","name":"list","inputs":[{"name":"title","type":"string","internalType":"string"},{"name":"tags","type":"string","internalType":"string"},{"name":"price","type":"uint256","internalType":"uint256"},{"name":"ipfsCID","type":"string","internalType":"string"},{"name":"contentHash","type":"bytes32","internalType":"bytes32"}],"outputs":[{"name":"knowledgeId","type":"uint256","internalType":"uint256"}],"stateMutability":"nonpayable"},{"type":"function","name":"listPrivateKnowledge","inputs":[{"name":"title","type":"string","internalType":"string"},{"name":"tags","type":"string","internalType":"string"},{"name":"price","type":"uint256","internalType":"uint256"},{"name":"previewURI","type":"string","internalType":"string"},{"name":"encryptedContentURI","type":"string","internalType":"string"},{"name":"encryptedContentHash","type":"bytes32","internalType":"bytes32"},{"name":"contentHash","type":"bytes32","internalType":"bytes32"}],"outputs":[{"name":"knowledgeId","type":"uint256","internalType":"uint256"}],"stateMutability":"nonpayable"},{"type":"function","name":"listPrivateKnowledgeWithLimit","inputs":[{"name":"title","type":"string","internalType":"string"},{"name":"tags","type":"string","internalType":"string"},{"name":"price","type":"uint256","internalType":"uint256"},{"name":"previewURI","type":"string","internalType":"string"},{"name":"encryptedContentURI","type":"string","internalType":"string"},{"name":"encryptedContentHash","type":"bytes32","internalType":"bytes32"},{"name":"contentHash","type":"bytes32","internalType":"bytes32"},{"name":"maxSales","type":"uint256","internalType":"uint256"}],"outputs":[{"name":"knowledgeId","type":"uint256","internalType":"uint256"}],"stateMutability":"nonpayable"},{"type":"function","name":"listPublicKnowledgeV2","inputs":[{"name":"title","type":"string","internalType":"string"},{"name":"tags","type":"string","internalType":"string"},{"name":"price","type":"uint256","internalType":"uint256"},{"name":"previewURI","type":"string","internalType":"string"},{"name":"publicContentURI","type":"string","internalType":"string"},{"name":"contentHash","type":"bytes32","internalType":"bytes32"}],"outputs":[{"name":"knowledgeId","type":"uint256","internalType":"uint256"}],"stateMutability":"nonpayable"},{"type":"function","name":"maxSalesByKnowledge","inputs":[{"name":"","type":"uint256","internalType":"uint256"}],"outputs":[{"name":"","type":"uint256","internalType":"uint256"}],"stateMutability":"view"},{"type":"function","name":"nextKnowledgeId","inputs":[],"outputs":[{"name":"","type":"uint256","internalType":"uint256"}],"stateMutability":"view"},{"type":"function","name":"nextPurchaseId","inputs":[],"outputs":[{"name":"","type":"uint256","internalType":"uint256"}],"stateMutability":"view"},{"type":"function","name":"pause","inputs":[],"outputs":[],"stateMutability":"nonpayable"},{"type":"function","name":"paused","inputs":[],"outputs":[{"name":"","type":"bool","internalType":"bool"}],"stateMutability":"view"},{"type":"function","name":"payoutReleased","inputs":[{"name":"","type":"uint256","internalType":"uint256"}],"outputs":[{"name":"","type":"bool","internalType":"bool"}],"stateMutability":"view"},{"type":"function","name":"proxiableUUID","inputs":[],"outputs":[{"name":"","type":"bytes32","internalType":"bytes32"}],"stateMutability":"view"},{"type":"function","name":"purchase","inputs":[{"name":"knowledgeId","type":"uint256","internalType":"uint256"}],"outputs":[{"name":"purchaseId","type":"uint256","internalType":"uint256"}],"stateMutability":"nonpayable"},{"type":"function","name":"purchaseDeliveryConfigSnapshot","inputs":[{"name":"","type":"uint256","internalType":"uint256"}],"outputs":[{"name":"","type":"bytes32","internalType":"bytes32"}],"stateMutability":"view"},{"type":"function","name":"purchaseDeliveryConfigURI","inputs":[{"name":"","type":"uint256","internalType":"uint256"}],"outputs":[{"name":"","type":"string","internalType":"string"}],"stateMutability":"view"},{"type":"function","name":"purchaseKnowledgeV2","inputs":[{"name":"knowledgeId","type":"uint256","internalType":"uint256"}],"outputs":[{"name":"purchaseId","type":"uint256","internalType":"uint256"}],"stateMutability":"nonpayable"},{"type":"function","name":"purchases","inputs":[{"name":"","type":"uint256","internalType":"uint256"}],"outputs":[{"name":"buyer","type":"address","internalType":"address"},{"name":"knowledgeId","type":"uint256","internalType":"uint256"},{"name":"paidAmount","type":"uint256","internalType":"uint256"},{"name":"purchasedAt","type":"uint256","internalType":"uint256"},{"name":"delivered","type":"bool","internalType":"bool"},{"name":"reviewed","type":"bool","internalType":"bool"}],"stateMutability":"view"},{"type":"function","name":"redeliverEncryptedKey","inputs":[{"name":"purchaseId","type":"uint256","internalType":"uint256"},{"name":"wrappedKey","type":"bytes","internalType":"bytes"},{"name":"wrappedKeyHash","type":"bytes32","internalType":"bytes32"}],"outputs":[],"stateMutability":"nonpayable"},{"type":"function","name":"redeliveredAt","inputs":[{"name":"","type":"uint256","internalType":"uint256"}],"outputs":[{"name":"","type":"uint64","internalType":"uint64"}],"stateMutability":"view"},{"type":"function","name":"refundReleased","inputs":[{"name":"","type":"uint256","internalType":"uint256"}],"outputs":[{"name":"","type":"bool","internalType":"bool"}],"stateMutability":"view"},{"type":"function","name":"registry","inputs":[],"outputs":[{"name":"","type":"address","internalType":"contract AgentRegistry"}],"stateMutability":"view"},{"type":"function","name":"renounceRole","inputs":[{"name":"role","type":"bytes32","internalType":"bytes32"},{"name":"callerConfirmation","type":"address","internalType":"address"}],"outputs":[],"stateMutability":"nonpayable"},{"type":"function","name":"reopenSales","inputs":[{"name":"knowledgeId","type":"uint256","internalType":"uint256"}],"outputs":[],"stateMutability":"nonpayable"},{"type":"function","name":"reputationContract","inputs":[],"outputs":[{"name":"","type":"address","internalType":"address"}],"stateMutability":"view"},{"type":"function","name":"rescueApplied","inputs":[{"name":"","type":"uint256","internalType":"uint256"}],"outputs":[{"name":"","type":"bool","internalType":"bool"}],"stateMutability":"view"},{"type":"function","name":"rescueRefundPrivatePurchase","inputs":[{"name":"purchaseId","type":"uint256","internalType":"uint256"},{"name":"reason","type":"uint8","internalType":"uint8"}],"outputs":[],"stateMutability":"nonpayable"},{"type":"function","name":"review","inputs":[{"name":"purchaseId","type":"uint256","internalType":"uint256"},{"name":"productScore","type":"uint256","internalType":"uint256"},{"name":"sellerScore","type":"uint256","internalType":"uint256"}],"outputs":[],"stateMutability":"nonpayable"},{"type":"function","name":"revokeRole","inputs":[{"name":"role","type":"bytes32","internalType":"bytes32"},{"name":"account","type":"address","internalType":"address"}],"outputs":[],"stateMutability":"nonpayable"},{"type":"function","name":"salesOpen","inputs":[{"name":"","type":"uint256","internalType":"uint256"}],"outputs":[{"name":"","type":"bool","internalType":"bool"}],"stateMutability":"view"},{"type":"function","name":"setFeeRecipient","inputs":[{"name":"r","type":"address","internalType":"address"}],"outputs":[],"stateMutability":"nonpayable"},{"type":"function","name":"setReputationContract","inputs":[{"name":"r","type":"address","internalType":"address"}],"outputs":[],"stateMutability":"nonpayable"},{"type":"function","name":"setSaleLimit","inputs":[{"name":"knowledgeId","type":"uint256","internalType":"uint256"},{"name":"maxSales","type":"uint256","internalType":"uint256"}],"outputs":[],"stateMutability":"nonpayable"},{"type":"function","name":"setTempoReward","inputs":[{"name":"_tempo","type":"address","internalType":"address"}],"outputs":[],"stateMutability":"nonpayable"},{"type":"function","name":"setV2Module","inputs":[{"name":"module","type":"address","internalType":"address"}],"outputs":[],"stateMutability":"nonpayable"},{"type":"function","name":"stopSales","inputs":[{"name":"knowledgeId","type":"uint256","internalType":"uint256"}],"outputs":[],"stateMutability":"nonpayable"},{"type":"function","name":"supportsInterface","inputs":[{"name":"interfaceId","type":"bytes4","internalType":"bytes4"}],"outputs":[{"name":"","type":"bool","internalType":"bool"}],"stateMutability":"view"},{"type":"function","name":"tempoReward","inputs":[],"outputs":[{"name":"","type":"address","internalType":"contract TempoReward"}],"stateMutability":"view"},{"type":"function","name":"triggerAutoReview","inputs":[{"name":"purchaseId","type":"uint256","internalType":"uint256"}],"outputs":[],"stateMutability":"nonpayable"},{"type":"function","name":"trustedForwarder","inputs":[],"outputs":[{"name":"","type":"address","internalType":"address"}],"stateMutability":"view"},{"type":"function","name":"unpause","inputs":[],"outputs":[],"stateMutability":"nonpayable"},{"type":"function","name":"upgradeToAndCall","inputs":[{"name":"newImplementation","type":"address","internalType":"address"},{"name":"data","type":"bytes","internalType":"bytes"}],"outputs":[],"stateMutability":"payable"},{"type":"function","name":"v2Module","inputs":[],"outputs":[{"name":"","type":"address","internalType":"address"}],"stateMutability":"view"},{"type":"function","name":"wrappedKeyHashByPurchase","inputs":[{"name":"","type":"uint256","internalType":"uint256"}],"outputs":[{"name":"","type":"bytes32","internalType":"bytes32"}],"stateMutability":"view"},{"type":"event","name":"AutoReviewApplied","inputs":[{"name":"purchaseId","type":"uint256","indexed":true,"internalType":"uint256"}],"anonymous":false},{"type":"event","name":"DebtDeducted","inputs":[{"name":"seller","type":"address","indexed":true,"internalType":"address"},{"name":"amount","type":"uint256","indexed":false,"internalType":"uint256"}],"anonymous":false},{"type":"event","name":"Initialized","inputs":[{"name":"version","type":"uint64","indexed":false,"internalType":"uint64"}],"anonymous":false},{"type":"event","name":"KnowledgeDeactivated","inputs":[{"name":"id","type":"uint256","indexed":true,"internalType":"uint256"}],"anonymous":false},{"type":"event","name":"KnowledgeDelivered","inputs":[{"name":"purchaseId","type":"uint256","indexed":true,"internalType":"uint256"},{"name":"seller","type":"address","indexed":true,"internalType":"address"}],"anonymous":false},{"type":"event","name":"KnowledgeListed","inputs":[{"name":"id","type":"uint256","indexed":true,"internalType":"uint256"},{"name":"seller","type":"address","indexed":true,"internalType":"address"},{"name":"title","type":"string","indexed":false,"internalType":"string"},{"name":"price","type":"uint256","indexed":false,"internalType":"uint256"},{"name":"tags","type":"string","indexed":false,"internalType":"string"}],"anonymous":false},{"type":"event","name":"KnowledgePurchased","inputs":[{"name":"purchaseId","type":"uint256","indexed":true,"internalType":"uint256"},{"name":"knowledgeId","type":"uint256","indexed":true,"internalType":"uint256"},{"name":"buyer","type":"address","indexed":true,"internalType":"address"},{"name":"price","type":"uint256","indexed":false,"internalType":"uint256"}],"anonymous":false},{"type":"event","name":"KnowledgeReviewed","inputs":[{"name":"purchaseId","type":"uint256","indexed":true,"internalType":"uint256"},{"name":"productScore","type":"uint256","indexed":false,"internalType":"uint256"},{"name":"sellerScore","type":"uint256","indexed":false,"internalType":"uint256"}],"anonymous":false},{"type":"event","name":"KnowledgeSaleLimitSet","inputs":[{"name":"knowledgeId","type":"uint256","indexed":true,"internalType":"uint256"},{"name":"maxSales","type":"uint256","indexed":false,"internalType":"uint256"}],"anonymous":false},{"type":"event","name":"KnowledgeSalesReopened","inputs":[{"name":"knowledgeId","type":"uint256","indexed":true,"internalType":"uint256"},{"name":"operator","type":"address","indexed":true,"internalType":"address"}],"anonymous":false},{"type":"event","name":"KnowledgeSalesStopped","inputs":[{"name":"knowledgeId","type":"uint256","indexed":true,"internalType":"uint256"},{"name":"operator","type":"address","indexed":true,"internalType":"address"}],"anonymous":false},{"type":"event","name":"Paused","inputs":[{"name":"account","type":"address","indexed":false,"internalType":"address"}],"anonymous":false},{"type":"event","name":"PrivatePurchaseRescued","inputs":[{"name":"purchaseId","type":"uint256","indexed":true,"internalType":"uint256"},{"name":"knowledgeId","type":"uint256","indexed":true,"internalType":"uint256"},{"name":"buyer","type":"address","indexed":true,"internalType":"address"},{"name":"refundAmount","type":"uint256","indexed":false,"internalType":"uint256"},{"name":"bondRefundAmount","type":"uint256","indexed":false,"internalType":"uint256"},{"name":"reason","type":"uint8","indexed":false,"internalType":"uint8"}],"anonymous":false},{"type":"event","name":"RoleAdminChanged","inputs":[{"name":"role","type":"bytes32","indexed":true,"internalType":"bytes32"},{"name":"previousAdminRole","type":"bytes32","indexed":true,"internalType":"bytes32"},{"name":"newAdminRole","type":"bytes32","indexed":true,"internalType":"bytes32"}],"anonymous":false},{"type":"event","name":"RoleGranted","inputs":[{"name":"role","type":"bytes32","indexed":true,"internalType":"bytes32"},{"name":"account","type":"address","indexed":true,"internalType":"address"},{"name":"sender","type":"address","indexed":true,"internalType":"address"}],"anonymous":false},{"type":"event","name":"RoleRevoked","inputs":[{"name":"role","type":"bytes32","indexed":true,"internalType":"bytes32"},{"name":"account","type":"address","indexed":true,"internalType":"address"},{"name":"sender","type":"address","indexed":true,"internalType":"address"}],"anonymous":false},{"type":"event","name":"StakeSlashed","inputs":[{"name":"knowledgeId","type":"uint256","indexed":true,"internalType":"uint256"},{"name":"seller","type":"address","indexed":true,"internalType":"address"},{"name":"slashedAmount","type":"uint256","indexed":false,"internalType":"uint256"}],"anonymous":false},{"type":"event","name":"Unpaused","inputs":[{"name":"account","type":"address","indexed":false,"internalType":"address"}],"anonymous":false},{"type":"event","name":"Upgraded","inputs":[{"name":"implementation","type":"address","indexed":true,"internalType":"address"}],"anonymous":false},{"type":"event","name":"V2ModuleUpdated","inputs":[{"name":"module","type":"address","indexed":true,"internalType":"address"}],"anonymous":false},{"type":"error","name":"AccessControlBadConfirmation","inputs":[]},{"type":"error","name":"AccessControlUnauthorizedAccount","inputs":[{"name":"account","type":"address","internalType":"address"},{"name":"neededRole","type":"bytes32","internalType":"bytes32"}]},{"type":"error","name":"AddressEmptyCode","inputs":[{"name":"target","type":"address","internalType":"address"}]},{"type":"error","name":"ERC1967InvalidImplementation","inputs":[{"name":"implementation","type":"address","internalType":"address"}]},{"type":"error","name":"ERC1967NonPayable","inputs":[]},{"type":"error","name":"EnforcedPause","inputs":[]},{"type":"error","name":"ExpectedPause","inputs":[]},{"type":"error","name":"FailedCall","inputs":[]},{"type":"error","name":"InvalidInitialization","inputs":[]},{"type":"error","name":"NotInitializing","inputs":[]},{"type":"error","name":"ReentrancyGuardReentrantCall","inputs":[]},{"type":"error","name":"UUPSUnauthorizedCallContext","inputs":[]},{"type":"error","name":"UUPSUnsupportedProxiableUUID","inputs":[{"name":"slot","type":"bytes32","internalType":"bytes32"}]}],"bytecode":{"object":"0x60c0346200014c576001600160401b0390601f6200590238819003918201601f19168301918483118484101762000150578084926020946040528339810103126200014c57516001600160a01b03811681036200014c5760017f9b779b17422d0df92223018b32b4d1fa46e071723d6817e2486d003becc55f00553060805260a0527ff0c57e16840df040f15088dc2f81fe391c3923bec73e23a9662efc9c229c6a009081549060ff8260401c166200013a578080831603620000f4575b60405161579d9081620001658239608051818181611baf0152611cd4015260a051818181611f9b0152818161218f01526155370152f35b6001600160401b031990911681179091556040519081527fc7f505b2f371ae2175ee4913f4499e1f2633a7b5936321eed1cdaeb6115181d290602090a15f8080620000bd565b60405163f92ee8a960e01b8152600490fd5b5f80fd5b634e487b7160e01b5f52604160045260245ffdfe60806040526004361015610011575f80fd5b5f3560e01c806301c11d96146105ab57806301d7b245146104ca57806301ffc9a7146105a657806302768de4146105a157806302b9bc631461059c57806303eff37b14610597578063073080c7146105925780630ab254af1461058d5780630e327030146105885780631018c5f9146105835780631479b25e1461045757806316b5219e1461057e5780631a337c96146105795780631b32008f146105745780631f1755941461056f5780632128a4bc1461056a57806323b4a7a314610565578063248a9ca314610560578063262737cd1461055b57806328e7b2a61461055657806329125ebb146104ca5780632e1371bd146105515780632f2ff15d1461054c578063310f13711461054757806336568abe146105425780633742a9f71461053d57806339d006cb146105385780633b0ecb61146105335780633f4ba83a1461052e57806342ad69301461052957806346904840146105245780634a0449321461051f5780634d20372e1461051a5780634f1ef2861461051557806352d1902d1461051057806355a5f2551461050b5780635689cbba14610506578063572b6c0514610501578063575660c2146104fc5780635c975abb146104f75780635e18963b146104f25780635f7668ce146104ed57806361c2649e146104e85780637021f1a3146104e357806375e1cf24146104de57806377c50e9d146104d957806379021310146104d45780637b103999146104cf5780637b422c4c146104ca5780637da0a877146104c55780637e92b854146104c05780638392fe31146104bb5780638456cb59146104b657806387bc1425146104b15780638c5b2293146104ac5780638ddad6ac146104a7578063916b9bef146104a2578063917229121461049d57806391d1485414610498578063927f9c99146104935780639584660f1461048e57806397a4bb231461044857806399dc8654146104895780639c98676414610484578063a07dcd461461047f578063a217fddf1461047a578063a4ede5eb14610416578063a8ad0daa14610475578063ac8919c914610470578063ad3cb1cc1461046b578063ad9f20a614610466578063b7a17a9d14610461578063c0c53b8b1461045c578063c1d6c94114610457578063c8e9ab4a14610452578063cdec2cd11461044d578063ceea2f5a14610448578063d11ac98814610443578063d468fec61461043e578063d547741f14610439578063e74b981b14610434578063eaf98d231461042f578063efef39a11461042a578063f086075a14610425578063f5c0b48c14610420578063f665986e1461041b578063f6e8913d14610416578063f7f3175914610411578063fc4126df1461040c578063fe7992c2146104075763fece90f514610402575f80fd5b613e07565b613d94565b6139c6565b6139aa565b612d19565b613978565b61394e565b613935565b61310c565b6130f1565b6130a6565b61305a565b613016565b612fe3565b612bf8565b612fa5565b612f81565b610b16565b612e37565b612e06565b612de4565b612d8d565b612d63565b612d34565b612cff565b612c83565b612c68565b612c32565b612bb1565b612b7e565b612b20565b612aa0565b61287f565b612340565b612313565b6122eb565b612287565b612217565b6121e1565b61217a565b6105e2565b612152565b61212b565b6120fc565b6120cd565b61209e565b612083565b612054565b612030565b611ff7565b611fcf565b611f77565b611d54565b611d2b565b611cc2565b611b5c565b611946565b611913565b6118eb565b611153565b6110cc565b6110a2565b61107a565b610f88565b610ee8565b610ecb565b610e7d565b610e62565b610d43565b610c5b565b610c22565b610c05565b610bdb565b610bac565b610b65565b610b4c565b610b2f565b610a8b565b610851565b6107b1565b610755565b6106eb565b6106b0565b610676565b610620565b6105be565b5f9103126105ba57565b5f80fd5b346105ba575f3660031901126105ba57602060405169d3c21bcecceda10000008152f35b346105ba5760203660031901126105ba576105fb6150cd565b6106036150fc565b61060c36615126565b5060015f8051602061572883398151915255005b346105ba5760203660031901126105ba5760043563ffffffff60e01b81168091036105ba57602090637965db0b60e01b8114908115610665575b506040519015158152f35b6301ffc9a760e01b1490505f61065a565b346105ba575f3660031901126105ba5760206040517fba279271fb7bbf76a6f3df3cc57bf80647fcafdea60ec3383d90f459de74e7c08152f35b346105ba5760203660031901126105ba576004355f52600e602052602060405f2054604051908152f35b6001600160a01b038116036105ba57565b346105ba5760203660031901126105ba57600435610708816106da565b6107106151cb565b601e80546001600160a01b0319166001600160a01b039290921691821790557fbcd62708ed64322231bb85ab1da62c4e1d6d6256aa176b1a9e023b30c3226f4b5f80a2005b346105ba5760203660031901126105ba576004355f526022602052602060ff60405f2054166040519015158152f35b9181601f840112156105ba578235916001600160401b0383116105ba57602083818601950101116105ba57565b346105ba5760e03660031901126105ba576001600160401b036004358181116105ba576107e2903690600401610784565b50506024358181116105ba576107fc903690600401610784565b50506064358181116105ba57610816903690600401610784565b50506084359081116105ba57610830903690600401610784565b505061084d61083d613e31565b6040519081529081906020820190565b0390f35b346105ba575f3660031901126105ba57602060405162278d008152f35b90600182811c9216801561089c575b602083101461088857565b634e487b7160e01b5f52602260045260245ffd5b91607f169161087d565b634e487b7160e01b5f52604160045260245ffd5b61016081019081106001600160401b038211176108d657604052565b6108a6565b60c081019081106001600160401b038211176108d657604052565b6001600160401b0381116108d657604052565b90601f801991011681019081106001600160401b038211176108d657604052565b9060405191825f825461093c8161086e565b908184526020946001916001811690815f146109aa575060011461096c575b50505061096a92500383610909565b565b5f90815285812095935091905b81831061099257505061096a93508201015f808061095b565b85548884018501529485019487945091830191610979565b9250505061096a94925060ff191682840152151560051b8201015f808061095b565b5f5b8381106109dd5750505f910152565b81810151838201526020016109ce565b90602091610a06815180928185528580860191016109cc565b601f01601f1916010190565b979490610a6993610a486101409b989e9d9c9996948b610a5694602061016092839260018060a01b0316815201528c01906109ed565b908a820360408c01526109ed565b91606089015287820360808901526109ed565b9860a086015260c0850152151560e08401526101008301526101208201520152565b346105ba5760203660031901126105ba576004355f90815260056020526040902080546001600160a01b031661084d610ac66001840161092a565b92610ad36002820161092a565b906003810154610ae56004830161092a565b600583015460068401549060ff60078601541692600886015494600a6009880154970154976040519b8c9b8c610a12565b346105ba5760203660031901126105ba576106036150cd565b346105ba575f3660031901126105ba576020604051620151808152f35b346105ba5760403660031901126105ba576106036150cd565b346105ba5760203660031901126105ba57600435610b82816106da565b610b8a6151cb565b600a80546001600160a01b0319166001600160a01b0392909216919091179055005b346105ba5760203660031901126105ba576004355f52601a602052602060ff60405f2054166040519015158152f35b346105ba5760203660031901126105ba576004355f52601b602052602060405f2054604051908152f35b346105ba575f3660031901126105ba576020600654604051908152f35b346105ba5760203660031901126105ba576004355f525f805160206156e88339815191526020526020600160405f200154604051908152f35b346105ba5760203660031901126105ba576004355f52601f602052602060ff60405f2054166040519015158152f35b602080825282516001600160a01b0316908201526020820151610cf9610cbe610160928360408601526101808501906109ed565b610cda604086015191601f1992838783030160608801526109ed565b90606086015160808601526080860151908583030160a08601526109ed565b9260a081015160c084015260c081015160e084015260e0810151610d24610100918286019015159052565b8101516101209081850152810151906101409182850152015191015290565b346105ba5760203660031901126105ba5761084d604051610d63816108ba565b5f815260606020820152606060408201525f6060820152606060808201525f60a08201525f60c08201525f60e0820152610100905f82820152600a6101205f818401525f610140809401526004355f52600560205260405f2090610dc5611ad1565b82546001600160a01b0316815294610ddf6001840161092a565b6020870152610df06002840161092a565b604087015260038301546060870152610e0b6004840161092a565b6080870152600583015460a0870152600683015460c0870152610e3e610e35600785015460ff1690565b151560e0880152565b60088301549086015260098201549085015201549082015260405191829182610c8a565b346105ba575f3660031901126105ba57602060405160018152f35b346105ba5760403660031901126105ba57610ec9602435600435610ea0826106da565b805f525f805160206156e8833981519152602052610ec4600160405f2001546152d4565b6153cb565b005b346105ba575f3660031901126105ba576020600454604051908152f35b346105ba5760403660031901126105ba57600435602435610f08816106da565b8115610f43576001600160a01b0380610f1f61550c565b1690821603610f3157610ec991615470565b60405163334bd91960e11b8152600490fd5b60405162461bcd60e51b815260206004820152601960248201527f4b533a2063616e6e6f742072656e6f756e63652061646d696e000000000000006044820152606490fd5b346105ba5760203660031901126105ba5761084d60405f60a08251610fac816108db565b828152826020820152828482015282606082015282608082015201526004355f526007602052805f209061102c60ff6004835194610fe9866108db565b80546001600160a01b03168652600181015460208701526002810154858701526003810154606087015201548181161515608086015260081c16151560a0840152565b519182918291909160a08060c0830194600180831b03815116845260208101516020850152604081015160408501526060810151606085015260808101511515608085015201511515910152565b346105ba575f3660031901126105ba57600a546040516001600160a01b039091168152602090f35b346105ba5760203660031901126105ba576004355f52600f602052602060405f2054604051908152f35b346105ba575f3660031901126105ba576110e46151cb565b5f80516020615708833981519152805460ff8116156111415760ff191690557f5db9ee0a495bf2e6ff9c91a7834c1ba4fdd244a5e8aa4e537bd38aeae4b073aa602061112e61550c565b6040516001600160a01b039091168152a1005b604051638dfc202b60e01b8152600490fd5b346105ba576020806003193601126105ba576004906111706150cd565b6111786150fc565b61118b82355f52600760205260405f2090565b61119361550c565b81549092906111c7906111b6906001600160a01b03165b6001600160a01b031690565b6001600160a01b0394851614613e8a565b600190818301936111fd6111ee6111e787545f52600b60205260405f2090565b5460ff1690565b6111f7816121d2565b15613ec6565b61125086850161121d611218611214835460ff1690565b1590565b613f12565b61123561122d6003880154613f62565b421015613f87565b805460ff191660011781555b805461ff001916610100179055565b8254611264906001600160a01b03166111aa565b84549095906001600160a01b0316863b156105ba5760408051638fe80d9560e01b81526001600160a01b03909216828a0190815290975f9183919082908490829060200103925af18015611541576118d8575b50611333836112cf83545f52600560205260405f2090565b96600a88016112de8154613fcd565b90555f546112f4906001600160a01b03166111aa565b81546002909201548a5163a9059cbb60e01b81526001600160a01b039093168c840190815260208101919091529193849283915f918391604090910190565b03925af18015611541576118bb575b5061135a6113536003870154613ffa565b6064900490565b9160068601918254928385105f146118b55784935b8480611787575b925050508391501061157f575b5050815461139a91506001600160a01b03166111aa565b82546001600160a01b031690803b156105ba5784516322eb7bdb60e11b81526001600160a01b039092168683019081525f91839182908490829060200103925af180156115415761156c575b5080546113fb906001600160a01b03166111aa565b82546001600160a01b031690803b156105ba57845163d0542f9760e01b81526001600160a01b039092168683019081525f91839182908490829060200103925af1801561154157611559575b50805461145c906001600160a01b03166111aa565b82546001600160a01b031690803b156105ba5784516317517f8d60e31b81526001600160a01b039092168683019081525f91839182908490829060200103925af18015611541576114d0926114c2926111aa92611546575b50546001600160a01b031690565b91546001600160a01b031690565b90803b156105ba5791516313fb5ea760e01b81526001600160a01b03909116928101928352915f91839182908490829060200103925af1801561154157611528575b610ec960015f8051602061572883398151915255565b8061153561153b926108f6565b806105b0565b5f611512565b613fc2565b80611535611553926108f6565b5f6114b4565b80611535611566926108f6565b5f611447565b80611535611579926108f6565b5f6113e6565b6115889161404d565b5f5490919061159f906001600160a01b03166111aa565b84546001600160a01b031686516370a0823160e01b81526001600160a01b0382168982019081529194918490829081906020010381865afa908115611541575f9161176a575b508751636eb1769f60e11b81526001600160a01b0386168a82019081523060208201529092908590849081906040010381875afa918215611541578a935f9361173b575b50808210156117335750905b8082101561172b5750935b8461164d575b5050611383565b87516323b872dd60e01b81526001600160a01b039091169181019182523060208301526040820185905291839183919082905f90829060600103925af18015611541576116fd575b50505f546116ab906001600160a01b03166111aa565b803b156105ba578451630852cd8d60e31b8152868101928352915f91839182908490829060200103925af18015611541576116ea575b80808681611646565b806115356116f7926108f6565b5f6116e1565b8161171c92903d10611724575b6117148183610909565b810190613fe6565b505f80611695565b503d61170a565b905093611640565b905090611635565b61175c919350863d8811611763575b6117548183610909565b810190613e5d565b915f611629565b503d61174a565b6117819150843d8611611763576117548183610909565b5f6115e5565b6117909161404d565b905585546117a6906001600160a01b03166111aa565b87546001600160a01b031690803b156105ba5789516334673ec560e11b81526001600160a01b03909216828c01908152602081018690525f91839182908490829060400103925af18015611541576118a2575b505f5461180e906001600160a01b03166111aa565b803b156105ba578851630852cd8d60e31b8152808b0185815290915f9183919082908490829060200103925af180156115415761188f575b50548654885184815292166001600160a01b0316917fba00be99b4ba100b19f2c080160ab22c2b8f4d62027d6524c532e7578d7a43b49080602081010390a35f80808084611376565b8061153561189c926108f6565b5f611846565b806115356118af926108f6565b5f6117f9565b8361136f565b6118d190843d8611611724576117148183610909565b505f611342565b806115356118e5926108f6565b5f6112b7565b346105ba575f3660031901126105ba576002546040516001600160a01b039091168152602090f35b346105ba5760203660031901126105ba576004355f52601560205260206001600160401b0360405f205416604051908152f35b346105ba5760203660031901126105ba576004356119626150fc565b611974815f52600760205260405f2090565b6119a960048201611991815460ff81169081611ac2575b5061405a565b6112416119a16003850154613f77565b421015614094565b6119bf60018201545f52600560205260405f2090565b6001546119d8906114c2906001600160a01b03166111aa565b90803b156105ba57604051631fca67df60e21b81526001600160a01b03929092166004830152600360248301525f908290604490829084905af1801561154157611aaf575b50600154611a37906114c2906001600160a01b03166111aa565b90803b156105ba57604051638fe80d9560e01b81526001600160a01b039290921660048301525f908290602490829084905af1801561154157611a9c575b507fb32aed4e447f2ad9195c00c43067223cbb2d8f5db04ca8c2388d148771c8114b5f80a2005b80611535611aa9926108f6565b5f611a75565b80611535611abc926108f6565b5f611a1d565b60ff915060081c16155f61198b565b6040519061096a826108ba565b6040519061096a826108db565b6040519061012082018281106001600160401b038211176108d657604052565b6001600160401b0381116108d657601f01601f191660200190565b929192611b3282611b0b565b91611b406040519384610909565b8294818452818301116105ba578281602093845f960137010152565b60403660031901126105ba576004803590611b76826106da565b6024356001600160401b0381116105ba57366023820112156105ba57611ba59036906024818501359101611b26565b6001600160a01b037f00000000000000000000000000000000000000000000000000000000000000008116308114908115611ca7575b50611c96579060208392611bed6151cb565b6040516352d1902d60e01b8152938491829088165afa5f9281611c75575b50611c39575050604051634c9c8ce360e01b81526001600160a01b0390921690820190815281906020010390fd5b83835f805160206156c88339815191528403611c5957610ec98383615565565b604051632a87526960e21b815290810184815281906020010390fd5b611c8f91935060203d602011611763576117548183610909565b915f611c0b565b60405163703e46dd60e11b81528390fd5b9050815f805160206156c8833981519152541614155f611bdb565b346105ba575f3660031901126105ba577f00000000000000000000000000000000000000000000000000000000000000006001600160a01b03163003611d195760206040515f805160206156c88339815191528152f35b60405163703e46dd60e11b8152600490fd5b346105ba5760203660031901126105ba576004355f5260208052602060405f2054604051908152f35b346105ba5760203660031901126105ba57600435611d7061523d565b611d82815f52600560205260405f2090565b9060078201611d92815460ff1690565b611f25575b50600682019081549182611e0d575b5050600154611dc291506114c2906001600160a01b03166111aa565b90803b156105ba576040516322eb7bdb60e11b81526001600160a01b0383166004820152905f908290602490829084905af1801561154157611e0057005b80611535610ec9926108f6565b5f9055600154611e25906001600160a01b03166111aa565b83546001600160a01b031690803b156105ba576040516334673ec560e11b81526001600160a01b03929092166004830152602482018490525f908290604490829084905af1801561154157611f12575b505f54611e8a906001600160a01b03166111aa565b803b156105ba57604051630852cd8d60e31b815260048101849052905f908290602490829084905af1801561154157611eff575b5082546040519283526001600160a01b0316917fba00be99b4ba100b19f2c080160ab22c2b8f4d62027d6524c532e7578d7a43b490602090a35f8080611da6565b80611535611f0c926108f6565b5f611ebe565b80611535611f1f926108f6565b5f611e75565b805460ff19169055611f4c611f42825f52601f60205260405f2090565b805460ff19169055565b807f6231f95ec21671bd178b0f09edd9360d433024b1098c5ea14b4ab7db64caa8da5f80a25f611d97565b346105ba5760203660031901126105ba576020600435611f96816106da565b6040517f00000000000000000000000000000000000000000000000000000000000000006001600160a01b039081169216919091148152f35b346105ba575f3660031901126105ba57601e546040516001600160a01b039091168152602090f35b346105ba575f3660031901126105ba57602060ff5f8051602061570883398151915254166040519015158152f35b60ff8116036105ba57565b346105ba5760403660031901126105ba5761204c602435612025565b6106036150cd565b346105ba5760203660031901126105ba576004355f526009602052602060ff60405f2054166040519015158152f35b346105ba575f3660031901126105ba57602060405160148152f35b346105ba5760203660031901126105ba576004355f52601c602052602060ff60405f2054166040519015158152f35b346105ba5760203660031901126105ba576004355f526017602052602060ff60405f2054166040519015158152f35b346105ba5760203660031901126105ba576004355f52601d602052602060ff60405f2054166040519015158152f35b346105ba575f3660031901126105ba575f546040516001600160a01b039091168152602090f35b346105ba575f3660031901126105ba576001546040516001600160a01b039091168152602090f35b346105ba575f3660031901126105ba576040517f00000000000000000000000000000000000000000000000000000000000000006001600160a01b03168152602090f35b634e487b7160e01b5f52602160045260245ffd5b600311156121dc57565b6121be565b346105ba5760203660031901126105ba576004355f52600b60205260ff60405f20541660405160038210156121dc576020918152f35b346105ba5760203660031901126105ba576004355f52600760205260c060405f2060ff60018060a01b0382541691600181015490600281015460046003830154920154926040519586526020860152604085015260608401528181161515608084015260081c16151560a0820152f35b346105ba575f3660031901126105ba5761229f6151cb565b6122a76150fc565b5f80516020615708833981519152805460ff191660011790557f62e78cea01bee320cd4e420270b5ea74000d11b0c9f74754ebdbfc544b05a258602061112e61550c565b346105ba575f3660031901126105ba576003546040516001600160a01b039091168152602090f35b346105ba5760203660031901126105ba576004355f526012602052602060ff60405f205416604051908152f35b346105ba5760603660031901126105ba5760048035906044356024356123646150fc565b6123ea612379855f52600760205260405f2090565b61238161550c565b81549091906123ad9061239c906001600160a01b03166111aa565b6001600160a01b0393841614613e8a565b858101906123c6825460ff81169081611ac2575061405a565b60019384928387101580612874575b8061286a575b8061285f575b611241906140d0565b01916123ff83545f52600560205260405f2090565b8154909190612416906001600160a01b03166111aa565b9361245061242261550c565b95895f60409889518095819263fb3551ff60e01b958684528301919091602081019260018060a01b03169052565b0381855afa80156115415788612478918d955f9161283d575b5001516001600160a01b031690565b865489519283526001600160a01b03169382018481525f90839081900360200181865afa8015611541576124c46111aa8b8b936124cd965f9161283d575001516001600160a01b031690565b9116141561423c565b803b156105ba578651631fca67df60e21b81526001600160a01b03909216828b01908152602081018a90525f91839182908490829060400103925af180156115415761282a575b508154612529906001600160a01b03166111aa565b61253161550c565b90803b156105ba578651638fe80d9560e01b81526001600160a01b03909216828b019081525f91839182908490829060200103925af1801561154157612817575b508154612587906001600160a01b03166111aa565b9061259061550c565b91803b156105ba578651633111036160e11b81526001600160a01b03909316838b019081526040602082018190526006908201526572657669657760d01b60608201525f91849182908490829060800103925af190811561154157612608926111e792612804575b50545f52600b60205260405f2090565b90612612826121d2565b81149081156127f0575b501561269d5750507f6e25eeb376624597a9c69a7e9e1f4ab3623441258ae80e1db654feb9861d121493506126989061266d612660875f52601760205260405f2090565b805460ff19166001179055565b83612680875f52601b60205260405f2090565b555b5191825260208201929092529081906040820190565b0390a2005b600a546126b2906001600160a01b03166111aa565b9182166126e8575b50507f6e25eeb376624597a9c69a7e9e1f4ab3623441258ae80e1db654feb9861d1214935061269890612682565b546001600160a01b031690803b156105ba57825163871aa80f60e01b81526001600160a01b03909216868301908152602081018690525f91839182908490829060400103925af18015611541576127dd575b50600a54612750906001600160a01b03166111aa565b9361275961550c565b853b156105ba5782516336a6ab4760e01b81526001600160a01b03909116918101918252945f9186919082908490829060200103925af1908115611541577f6e25eeb376624597a9c69a7e9e1f4ab3623441258ae80e1db654feb9861d121494612698926127ca575b8192506126ba565b806115356127d7926108f6565b5f6127c2565b806115356127ea926108f6565b5f61273a565b600291506127fd816121d2565b145f61261c565b80611535612811926108f6565b5f6125f8565b80611535612824926108f6565b5f612572565b80611535612837926108f6565b5f612514565b61285991503d805f833e6128518183610909565b810190614171565b5f612469565b5060058811156123e1565b50838810156123db565b5060058711156123d5565b346105ba5760203660031901126105ba5760043561289b6150cd565b6128a36150fc565b60066128b7825f52600560205260405f2090565b6128e76128c261550c565b82546128d6906001600160a01b03166111aa565b6001600160a01b0390911614614279565b61290f600782016129016128fc825460ff1690565b6142b6565b611f42600a840154156142f3565b612924611f42845f52601f60205260405f2090565b0180549081612969575b827f6231f95ec21671bd178b0f09edd9360d433024b1098c5ea14b4ab7db64caa8da5f80a2610ec960015f8051602061572883398151915255565b5f9055600154612981906001600160a01b03166111aa565b9061298a61550c565b91803b156105ba576040516334673ec560e11b81526001600160a01b03939093166004840152602483018290525f908390604490829084905af190811561154157612a2b92602092612a5f575b505f546129ec906001600160a01b03166111aa565b6129f461550c565b60405163a9059cbb60e01b81526001600160a01b0390911660048201526024810192909252909283919082905f9082906044820190565b03925af1801561154157612a40575b8061292e565b612a589060203d602011611724576117148183610909565b505f612a3a565b80611535612a6c926108f6565b5f6129d7565b939291612a9b90612a8d6040936060885260608801906109ed565b9086820360208801526109ed565b930152565b346105ba5760203660031901126105ba57612aba36615126565b80518101606082602083019203126105ba5760208201516001600160401b03908181116105ba57826020612af092860101614141565b9160408401519182116105ba57612b11606091602061084d94870101614141565b93015160405193849384612a72565b346105ba5760403660031901126105ba57602060ff612b72602435612b44816106da565b6004355f525f805160206156e8833981519152845260405f209060018060a01b03165f5260205260405f2090565b54166040519015158152f35b346105ba5760203660031901126105ba576004355f52601660205260206001600160401b0360405f205416604051908152f35b346105ba5760203660031901126105ba57600435612bce816106da565b612bd66151cb565b600380546001600160a01b0319166001600160a01b0392909216919091179055005b346105ba5760603660031901126105ba576024356001600160401b0381116105ba57612c28903690600401610784565b50506105fb6150cd565b346105ba5760203660031901126105ba576004355f52601360205260ff60405f20541660405160098210156121dc576020918152f35b346105ba575f3660031901126105ba57602060405160048152f35b346105ba5760a03660031901126105ba576001600160401b036004358181116105ba57612cb4903690600401610784565b6024929192358281116105ba57612ccf903690600401610784565b906064359384116105ba5761084d94612cef61083d953690600401610784565b9390926084359560443593614338565b346105ba575f3660031901126105ba5760206040515f8152f35b346105ba575f3660031901126105ba57602060405160328152f35b346105ba5760203660031901126105ba576004355f526018602052602060ff60405f2054166040519015158152f35b346105ba5760203660031901126105ba576004355f526008602052602060405f2054604051908152f35b346105ba575f3660031901126105ba5760405160408101908082106001600160401b038311176108d65761084d9160405260058152640352e302e360dc1b60208201526040519182916020835260208301906109ed565b346105ba575f3660031901126105ba576020604051670de0b6b3a76400008152f35b346105ba5760c03660031901126105ba576001600160401b036004358181116105ba576107e2903690600401610784565b346105ba5760603660031901126105ba57600435612e54816106da565b60243590612e61826106da565b604435612e6d816106da565b5f8051602061574883398151915254926001600160401b0360ff8560401c1615941680159081612f79575b6001149081612f6f575b159081612f66575b50612f54575f80516020615748833981519152805467ffffffffffffffff19166001179055612edd9284612f2b57614dbb565b612ee357005b5f80516020615748833981519152805460ff60401b19169055604051600181527fc7f505b2f371ae2175ee4913f4499e1f2633a7b5936321eed1cdaeb6115181d290602090a1005b5f80516020615748833981519152805460ff60401b191668010000000000000000179055614dbb565b60405163f92ee8a960e01b8152600490fd5b9050155f612eaa565b303b159150612ea2565b859150612e98565b346105ba5760603660031901126105ba57612f9d602435612025565b6105fb6150cd565b346105ba5760203660031901126105ba576004355f52602160205261084d612fcf60405f2061092a565b6040519182916020835260208301906109ed565b346105ba5760203660031901126105ba576004355f52601460205260206001600160401b0360405f205416604051908152f35b346105ba5760203660031901126105ba5761302f6150cd565b6130376150fc565b6020613041613e6c565b60015f8051602061572883398151915255604051908152f35b346105ba5760403660031901126105ba57610ec960243560043561307d826106da565b805f525f805160206156e88339815191526020526130a1600160405f2001546152d4565b615470565b346105ba5760203660031901126105ba576004356130c3816106da565b6130cb6151cb565b6001600160a01b031680156105ba576001600160601b0360a01b60025416176002555f80f35b346105ba575f3660031901126105ba57602060405160058152f35b346105ba576020806003193601126105ba5760049081359161312c6150cd565b6131346150fc565b613146835f52600560205260405f2090565b6131576128fc600783015460ff1690565b61317e61316f6111e7865f52600b60205260405f2090565b613178816121d2565b15614ea0565b600154613193906001600160a01b03166111aa565b9361319c61550c565b6040805163c3c5a54760e01b81526001600160a01b039092168286019081529094919086908290819060200103818a5afa8015611541576131e4915f91613918575b506148fb565b613251856131f061550c565b855490989061321d9061320b906001600160a01b03166111aa565b6001600160a01b039a8b161415614eec565b61322561550c565b8751631f1da14d60e11b81526001600160a01b0390911685820190815290938492918391829160200190565b03915afa80156115415761326c915f916138fb575b50614f2c565b60035486166001600160a01b031692858461387f575b505f546132d0945061329c906001600160a01b03166111aa565b866132a561550c565b87516370a0823160e01b81526001600160a01b03909116858201908152909687918291602090910190565b0381845afa948515611541575f95613860575b508560038301956132f8875480921015614f83565b61338e61330361550c565b835160609190911b6bffffffffffffffffffffffff1916818c01908152601481018990529061333e816034840103601f198101835282610909565b5190209161335e613357845f52600860205260405f2090565b5415614fc6565b6133d58b61336e61135384614010565b8094846133896133816113538598614026565b97889261404d565b61404d565b978a5f61339961550c565b99516323b872dd60e01b8082526001600160a01b03909b1692810192835230602084015260408301949094529294859384929091839160600190565b03925af1801561154157613843575b505f546133f9906001600160a01b03166111aa565b803b156105ba578a51630852cd8d60e31b8152808901928352915f91839182908490829060200103925af1801561154157613830575b505f548a908a90613448906001600160a01b03166111aa565b61345061550c565b60025492518781526001600160a01b03918216818c019081529190931660208201526040810194909452909283919082905f90829060600103925af180156115415784938b928892613813575b505f80548c91906134b6906001600160a01b03166111aa565b926134f26134c261550c565b93519182526001600160a01b03909316948101948552306020860152604085019790975286938492839160600190565b03925af191821561154157613583926137f6575b50613575613515600654614b8b565b998a9461352186600655565b8861352a61550c565b92613545613536611ade565b6001600160a01b039095168552565b8301528a8201524260608201525f60808201525f60a0820152613570855f52600760205260405f2090565b61500a565b5f52600860205260405f2090565b55600981016135928154614b8b565b9055600a81016135a28154614b8b565b90556001546135b9906001600160a01b03166111aa565b6135c161550c565b90803b156105ba578651630a3be34960e01b81526001600160a01b039092168483019081525f91839182908490829060200103925af18015611541576137e3575b50600154613618906001600160a01b03166111aa565b61362061550c565b90803b156105ba578651632afef4b760e21b8082526001600160a01b0390931685820190815290915f9183919082908490829060200103925af18015611541576137d0575b5060015461368d9061367f906001600160a01b03166111aa565b92546001600160a01b031690565b823b156105ba5786519182526001600160a01b031683820190815290915f9183919082908490829060200103925af18015611541576137bd575b506001546136dd906001600160a01b03166111aa565b906136e661550c565b823b156105ba57613738925f92838851809681958294633111036160e11b8452830160809160018060a01b03168152604060208201526008604082015267707572636861736560c01b60608201520190565b03925af180156115415761084d9686927fb1388757ab12142ef905a9b301dcdd81dd63ec6232a8fa5c48447495aee44fcc926137aa575b5061377861550c565b94548651908152941693602090a461379c60015f8051602061572883398151915255565b519081529081906020820190565b806115356137b7926108f6565b5f61376f565b806115356137ca926108f6565b5f6136c7565b806115356137dd926108f6565b5f613665565b806115356137f0926108f6565b5f613602565b61380c908a3d8c11611724576117148183610909565b505f613506565b61382990843d8611611724576117148183610909565b505f61349d565b8061153561383d926108f6565b5f61342f565b613859908c8d3d10611724576117148183610909565b505f6133e4565b613878919550873d8911611763576117548183610909565b935f6132e3565b6138b79461388b61550c565b875163d386df2360e01b81526001600160a01b0390911685820190815290968792918391829160200190565b03915afa938415611541576132d0946138d8915f916138de575b5015614a85565b85613282565b6138f59150883d8a11611724576117148183610909565b5f6138d1565b6139129150873d8911611724576117148183610909565b5f613266565b61392f9150873d8911611724576117148183610909565b5f6131de565b346105ba5760403660031901126105ba576105fb6150cd565b346105ba5760203660031901126105ba576004355f526019602052602060405f2054604051908152f35b346105ba576101003660031901126105ba576001600160401b036004358181116105ba576107e2903690600401610784565b346105ba575f3660031901126105ba5760206040516013198152f35b346105ba576020806003193601126105ba576004908135916139e66150cd565b6139ee6150fc565b613a00835f52600760205260405f2090565b916001830154613a3f613a306111e7613a21845f52600560205260405f2090565b935f52600b60205260405f2090565b613a39816121d2565b15615081565b6002613a4961550c565b8254909590613a7590613a64906001600160a01b03166111aa565b6001600160a01b0397881614614279565b613a8c858201612660611218611214835460ff1690565b600a8301613a9a8154613fcd565b9055015490613aec5f613ab76111aa60015460018060a01b031690565b613abf61550c565b60405163fb3551ff60e01b81526001600160a01b0390911688820190815290938492918391829160200190565b03915afa90811561154157613b0d9160e0915f91613d63575b500151151590565b80613d5a575b613c7c575b81613bf8575b5050600154613b3691506001600160a01b03166111aa565b90613b3f61550c565b823b156105ba57613b91925f9283604051809681958294633111036160e11b8452830160809160018060a01b031681526040602082015260076040820152663232b634bb32b960c91b60608201520190565b03925af1801561154157613be5575b50613ba961550c565b16907fa2731d2dafbcc471ba9d8d60761310fc8a6ea5c93bd6d70b077f888f2b6050745f80a3610ec960015f8051602061572883398151915255565b80611535613bf2926108f6565b5f613ba0565b5f54613c499284929091613c18906114c2906001600160a01b03166111aa565b5f60405180968195829463a9059cbb60e01b84528b840160209093929193604081019460018060a01b031681520152565b03925af1801561154157613c5e575b80613b1e565b81613c7492903d10611724576117148183610909565b505f80613c58565b613c92613c8b61135384613ffa565b809361404d565b91613ce58482613cab6111aa5f5460018060a01b031690565b6002546040805163a9059cbb60e01b81526001600160a01b039092168b830190815260208101949094529094859384925f92849290910190565b03925af1801561154157613d3d575b507ff5f01754584f438c12bcb34b8c17451066251095c28d277f3966dca00bf054a1613d35613d246111aa61550c565b604051938452929081906020820190565b0390a2613b18565b613d5390853d8711611724576117148183610909565b505f613cf4565b50811515613b13565b613d7791503d805f833e6128518183610909565b5f613b05565b929190612a9b6020916040865260408601906109ed565b346105ba5760203660031901126105ba57613dae36615126565b80518101604082602083019203126105ba5760208201516001600160401b0381116105ba57820181603f820112156105ba5760409181836020613df4940151910161410c565b9101519061084d60405192839283613d7d565b346105ba5760203660031901126105ba576004355f526011602052602060405f2054604051908152f35b613e396150cd565b613e416150fc565b613e49613e6c565b9060015f8051602061572883398151915255565b908160209103126105ba575190565b613e87613e7836615126565b60208082518301019101613e5d565b90565b15613e9157565b60405162461bcd60e51b815260206004820152600d60248201526c25a99d103737ba10313abcb2b960991b6044820152606490fd5b15613ecd57565b60405162461bcd60e51b815260206004820152601b60248201527f4b533a207573652066696e616c697a65556e64656c69766572656400000000006044820152606490fd5b15613f1957565b60405162461bcd60e51b815260206004820152600d60248201526c12d4ce8819195b1a5d995c9959609a1b6044820152606490fd5b634e487b7160e01b5f52601160045260245ffd5b90620151808201809211613f7257565b613f4e565b9062278d008201809211613f7257565b15613f8e57565b60405162461bcd60e51b815260206004820152600c60248201526b4b533a20646561646c696e6560a01b6044820152606490fd5b6040513d5f823e3d90fd5b8015613f72575f190190565b519081151582036105ba57565b908160209103126105ba57613e8790613fd9565b90603282029180830460321490151715613f7257565b908160021b9180830460041490151715613f7257565b9081156001838004141715613f7257565b90601482029180830460141490151715613f7257565b91908203918211613f7257565b1561406157565b60405162461bcd60e51b815260206004820152600b60248201526a12d4ce881a5b9d985b1a5960aa1b6044820152606490fd5b1561409b57565b60405162461bcd60e51b815260206004820152600d60248201526c4b533a20746f6f206561726c7960981b6044820152606490fd5b156140d757565b60405162461bcd60e51b815260206004820152600d60248201526c4b533a2073636f726520312d3560981b6044820152606490fd5b9092919261411981611b0b565b916141276040519384610909565b8294828452828201116105ba57602061096a9301906109cc565b9080601f830112156105ba578151613e879260200161410c565b519061096a826106da565b519061096a82612025565b6020818303126105ba5780516001600160401b03918282116105ba570190610120828403126105ba576141a2611aeb565b9282518281116105ba57816141b8918501614141565b845260208301519182116105ba576141d1918301614141565b60208301526141e26040820161415b565b60408301526141f360608201614166565b60608301526080810151608083015260a081015160a083015260c081015160c083015261422260e08201613fd9565b60e0830152614235610100809201613fd9565b9082015290565b1561424357565b60405162461bcd60e51b815260206004820152600e60248201526d25a99d1039b0b6b29037bbb732b960911b6044820152606490fd5b1561428057565b60405162461bcd60e51b815260206004820152600e60248201526d25a99d103737ba1039b2b63632b960911b6044820152606490fd5b156142bd57565b60405162461bcd60e51b815260206004820152600e60248201526d4b533a206e6f742061637469766560901b6044820152606490fd5b156142fa57565b60405162461bcd60e51b81526020600482015260166024820152754b533a2070656e64696e672064656c6976657269657360501b6044820152606490fd5b91939092969495966143486150cd565b6143506150fc565b600154614365906001600160a01b03166111aa565b9461436e61550c565b6040805163c3c5a54760e01b81526001600160a01b0392909216600480840191909152909990976020928381602481855afa8015611541576143b6915f916148e457506148fb565b6143ef838c8b6143c461550c565b9151635a2d572960e11b81526001600160a01b03909216908201908152909283918291602090910190565b0381855afa80156115415761444e9261441a60028f9360ff905f9687916148b7575b50161015614951565b8b61442361550c565b925163fb3551ff60e01b81526001600160a01b03909316908301908152919384928391829160200190565b03915afa9081156115415761121460e061447993614474935f91613d6357500151151590565b61498b565b6003871015806148ad575b61448d906149ce565b670de0b6b3a764000085101580614899575b6144a890614a0b565b6144b38b1515614a49565b6003546001600160a01b0399908a16838c82614827575b5050506144ed6144e86112146111e7845f52600960205260405f2090565b614abf565b614502612660825f52600960205260405f2090565b61450e61135387614037565b91614523678ac7230489e80000841015614b03565b5f548c9061457490869061453f906001600160a01b03166111aa565b928d61454961550c565b91516370a0823160e01b81526001600160a01b03909216908201908152909283918291602090910190565b0381855afa908115611541576145e2928f5f8f9161459f8a8c978197859161480a575b501015614b46565b6145a761550c565b90516323b872dd60e01b81526001600160a01b0390911692810192835230602084015260408301949094529294859384929091839160600190565b03925af18015611541576147ed575b50600154614607906001600160a01b03166111aa565b61460f61550c565b90803b156105ba578d516331ba14cf60e11b81526001600160a01b03909216828d01908152602081018690525f91839182908490829060400103925af18015611541576147da575b5089549c6146648e614b8b565b60045561466f61550c565b94614678611ad1565b6001600160a01b039096168652614690368c8c611b26565b9086015261469f368888611b26565b8d86015287606086015236906146b492611b26565b608084015260a083015260c0820152600160e08201524261010082015261012081015f905261014081015f90526146f38a5f52600560205260405f2090565b906146fd91614cb7565b6001546001600160a01b03169561471261550c565b873b156105ba57614760975f92838c51809b81958294633111036160e11b8452830160809160018060a01b031681526040602082015260046040820152631b1a5cdd60e21b60608201520190565b03925af19283156115415789977f26dc573051b6e7e62d2ca5bd31b932014d45995bfbe6718812734201da961423976147ad956147c7575b506147a161550c565b16985195869586614d8e565b0390a39061096a60015f8051602061572883398151915255565b806115356147d4926108f6565b5f614798565b806115356147e7926108f6565b5f614657565b61480390853d8711611724576117148183610909565b505f6145f1565b6148219150893d8b11611763576117548183610909565b5f614597565b61485f928c61483461550c565b925163d386df2360e01b81526001600160a01b03909316908301908152919384928391829160200190565b03915afa80156115415761487a915f91614882575015614a85565b5f838c6144ca565b6138f59150853d8711611724576117148183610909565b5069d3c21bcecceda100000085111561449f565b5089871115614484565b6148d791508a3d8c116148dd575b6148cf8183610909565b81019061493c565b5f614411565b503d6148c5565b61392f9150853d8711611724576117148183610909565b1561490257565b60405162461bcd60e51b815260206004820152601260248201527112d4ce881b9bdd081c9959da5cdd195c995960721b6044820152606490fd5b908160209103126105ba5751613e8781612025565b1561495857565b60405162461bcd60e51b815260206004820152600b60248201526a4b533a207469657220322b60a81b6044820152606490fd5b1561499257565b60405162461bcd60e51b815260206004820152601460248201527312d4ce8818db19585c881919589d08199a5c9cdd60621b6044820152606490fd5b156149d557565b60405162461bcd60e51b815260206004820152600e60248201526d12d4ce881d1a5d1b19480ccb4d8d60921b6044820152606490fd5b15614a1257565b60405162461bcd60e51b815260206004820152600f60248201526e4b533a2070726963652072616e676560881b6044820152606490fd5b15614a5057565b60405162461bcd60e51b815260206004820152600d60248201526c12d4ce88195b5c1d1e4810d251609a1b6044820152606490fd5b15614a8c57565b60405162461bcd60e51b815260206004820152600b60248201526a4b533a2072657374696e6760a81b6044820152606490fd5b15614ac657565b60405162461bcd60e51b815260206004820152601560248201527412d4ce88191d5c1b1a58d85d194818dbdb9d195b9d605a1b6044820152606490fd5b15614b0a57565b60405162461bcd60e51b815260206004820152601460248201527312d4ce881b5a5b881cdd185ad9480c4c0810d2d560621b6044820152606490fd5b15614b4d57565b60405162461bcd60e51b81526020600482015260166024820152754b533a20696e73756666696369656e74207374616b6560501b6044820152606490fd5b5f198114613f725760010190565b601f8211614ba657505050565b5f5260205f20906020601f840160051c83019310614bde575b601f0160051c01905b818110614bd3575050565b5f8155600101614bc8565b9091508190614bbf565b91909182516001600160401b0381116108d657614c0f81614c09845461086e565b84614b99565b602080601f8311600114614c5057508190614c419394955f92614c45575b50508160011b915f199060031b1c19161790565b9055565b015190505f80614c2d565b90601f19831695614c64855f5260205f2090565b925f905b888210614c9f57505083600195969710614c87575b505050811b019055565b01515f1960f88460031b161c191690555f8080614c7d565b80600185968294968601518155019501930190614c68565b815181546001600160a01b0319166001600160a01b0390911617815590600a9061014090614cec602082015160018601614be8565b614cfd604082015160028601614be8565b60608101516003850155614d18608082015160048601614be8565b60a0810151600585015560c08101516006850155614d51614d3c60e0830151151590565b600786019060ff801983541691151516179055565b610100810151600885015561012081015160098501550151910155565b908060209392818452848401375f828201840152601f01601f1916010190565b90614da890613e8796949593606084526060840191614d6e565b9360208201526040818503910152614d6e565b919091614dc6615607565b614dce615607565b6001600160a01b039081169081151580614e95575b80614e8a575b15614e5557614e4293614e25926001600160601b0360a01b5f5416175f551660018060a01b03166001600160601b0360a01b6001541617600155565b60018060a01b03166001600160601b0360a01b6002541617600255565b614e52614e4d61550c565b615310565b50565b60405162461bcd60e51b815260206004820152600d60248201526c25a99d103d32b9379030b2323960991b6044820152606490fd5b508083161515614de9565b508084161515614de3565b15614ea757565b60405162461bcd60e51b815260206004820152601b60248201527f4b533a207573652070757263686173654b6e6f776c65646765563200000000006044820152606490fd5b15614ef357565b60405162461bcd60e51b81526020600482015260116024820152704b533a2073656c662d707572636861736560781b6044820152606490fd5b15614f3357565b60405162461bcd60e51b815260206004820152602260248201527f4b533a207265766965772070656e64696e6720707572636861736573206669726044820152611cdd60f21b6064820152608490fd5b15614f8a57565b60405162461bcd60e51b815260206004820152601460248201527312d4ce881a5b9cdd59999a58da595b9d0810d2d560621b6044820152606490fd5b15614fcd57565b60405162461bcd60e51b815260206004820152601560248201527412d4ce88185b1c9958591e481c1d5c98da185cd959605a1b6044820152606490fd5b815181546001600160a01b0319166001600160a01b039190911617815560a090600490602084015160018201556040840151600282015560608401516003820155019161506960808201511515849060ff801983541691151516179055565b0151815461ff00191690151560081b61ff0016179055565b1561508857565b60405162461bcd60e51b815260206004820152601a60248201527f4b533a2075736520656e637279707465642064656c69766572790000000000006044820152606490fd5b5f8051602061572883398151915260028154146150ea5760029055565b604051633ee5aeb560e01b8152600490fd5b60ff5f80516020615708833981519152541661511457565b60405163d93c066560e01b8152600490fd5b601e546001600160a01b0316908115615190575f918291604051818192858337810184815203915af43d15615188573d9061516082611b0b565b9161516e6040519384610909565b82523d5f602084013e5b156151805790565b602081519101fd5b606090615178565b60405162461bcd60e51b815260206004820152601360248201527212d4ce881d8c881b5bd91d5b19481d5b9cd95d606a1b6044820152606490fd5b6151d361550c565b6001600160a01b0381165f9081527fb7db2dd08fcb62d0c9e08c51941cae53c267786a0b75803fb7960902fc8ef97d602052604090205460ff16156152155750565b60405163e2517d3f60e01b81526001600160a01b0390911660048201525f6024820152604490fd5b61524561550c565b6001600160a01b0381165f9081527f1a6cd9a7b8103b1ac8ae3acbee9fd0afe79825cbeda582da2cdf52e70cae65a9602052604090207fba279271fb7bbf76a6f3df3cc57bf80647fcafdea60ec3383d90f459de74e7c09060ff905b5416156152ac575050565b60405163e2517d3f60e01b81526001600160a01b039092166004830152602482015260449150fd5b6152dc61550c565b90805f525f805160206156e883398151915260205260ff6152a18360405f209060018060a01b03165f5260205260405f2090565b6001600160a01b0381165f9081527fb7db2dd08fcb62d0c9e08c51941cae53c267786a0b75803fb7960902fc8ef97d60205260409020545f805160206156e88339815191529060ff166153c5575f808052602091825260408082206001600160a01b038516835290925220805460ff1916600117905561538e61550c565b6001600160a01b0390811691165f7f2f8788117e7eff1d82e926ec794901d17c78024a50270940304540a733656f0d8180a4600190565b50505f90565b5f8181525f805160206156e8833981519152602081815260408084206001600160a01b03871685529091529091205460ff16615469575f828152602091825260408082206001600160a01b038616835290925220805460ff1916600117905561543261550c565b6001600160a01b039081169216907f2f8788117e7eff1d82e926ec794901d17c78024a50270940304540a733656f0d5f80a4600190565b5050505f90565b5f8181525f805160206156e8833981519152602081815260408084206001600160a01b03871685529091529091205460ff1615615469575f828152602091825260408082206001600160a01b038616835290925220805460ff191690556154d561550c565b6001600160a01b039081169216907ff6391f5c32d9c69d2a47ea670b442974b53935d1edc7fd64eb21e047a839171b5f80a4600190565b601436101580615533575b1561552f5760131936013681116105ba573560601c90565b3390565b50337f00000000000000000000000000000000000000000000000000000000000000006001600160a01b031614615517565b90813b156155e6575f805160206156c883398151915280546001600160a01b0319166001600160a01b0384169081179091557fbc7cd75a20ee27fd9adebab32041f755214dbc6bffa90cc0225b39da2e5c2d3b5f80a28051156155cb57614e5291615635565b5050346155d457565b60405163b398979f60e01b8152600490fd5b604051634c9c8ce360e01b81526001600160a01b0383166004820152602490fd5b60ff5f805160206157488339815191525460401c161561562357565b604051631afcd79f60e31b8152600490fd5b905f8091602081519101845af4808061569b575b15615658575050613e876156ae565b1561568057604051639996b31560e01b81526001600160a01b03919091166004820152602490fd5b3d15155f03613fc25760405163d6bda27560e01b8152600490fd5b503d1515806156495750813b1515615649565b604051903d82523d5f602084013e60203d83010160405256fe360894a13ba1a3210667c828492db98dca3e2076cc3735a920a3ca505d382bbc02dd7bc7dec4dceedda775e58dd541e08a116c6c53815c0bd028192f7b626800cd5ed15c6e187e77e9aee88184c21f4f2182ab5827cb3b7e07fbedcd63f033009b779b17422d0df92223018b32b4d1fa46e071723d6817e2486d003becc55f00f0c57e16840df040f15088dc2f81fe391c3923bec73e23a9662efc9c229c6a00a2646970667358221220d5e127a5bcce168fdae919dc70b43a9626136351fa3e18d5e1d2e12c0e8d18b764736f6c63430008180033","linkReferences":{}},"methodIdentifiers":{"AUTO_REVIEW_PERIOD()":"0e327030","BURN_PERCENT()":"9c986764","DEBT_DEDUCTION_PERCENT()":"a4ede5eb","DEFAULT_ADMIN_ROLE()":"a217fddf","DELIVERY_DEADLINE()":"16b5219e","FEE_PERCENT()":"eaf98d23","MAX_PRICE()":"01c11d96","MIN_PRICE()":"ad9f20a6","OWNER_PERCENT()":"2e1371bd","PROTOCOL_ROLE()":"02768de4","SLASH_PERCENT()":"f6e8913d","STAKE_PERCENT()":"61c2649e","UNDELIVERY_REP_PENALTY()":"f7f31759","UPGRADE_INTERFACE_VERSION()":"ad3cb1cc","acceptDelivery(uint256)":"7b422c4c","buyerBondAmount(uint256)":"f5c0b48c","buyerBondForfeited(uint256)":"1f175594","buyerPurchases(bytes32)":"ac8919c9","challengeDeliveryObjective(uint256,uint8,bytes32)":"c8e9ab4a","challengeDeliverySubjective(uint256,bytes32)":"f086075a","challengedAt(uint256)":"4a044932","ciphertextHash(uint256)":"02b9bc63","ckt()":"79021310","claimUndelivered(uint256)":"42ad6930","contentHashExists(bytes32)":"5f7668ce","creditApplied(uint256)":"a8ad0daa","deactivate(uint256)":"916b9bef","deliverEncryptedKey(uint256,bytes,bytes32)":"97a4bb23","deliverKey(uint256)":"fc4126df","deliveredAt(uint256)":"d11ac988","deliveryAttemptCount(uint256)":"8c5b2293","deliveryState(uint256)":"99dc8654","explicitReviewSubmitted(uint256)":"75e1cf24","explicitSellerScoreByPurchase(uint256)":"2128a4bc","feeRecipient()":"46904840","finalizeCleanTimeout(uint256)":"29125ebb","finalizeUndelivered(uint256)":"01d7b245","forceDeactivateAndBurnStake(uint256)":"5689cbba","getKnowledge(uint256)":"28e7b2a6","getPrivateKnowledgeMeta(uint256)":"91722912","getPurchase(uint256)":"3742a9f7","getRoleAdmin(bytes32)":"248a9ca3","getWrappedKey(uint256)":"fe7992c2","grantRole(bytes32,address)":"2f2ff15d","hasRole(bytes32,address)":"91d14854","initialize(address,address,address)":"c0c53b8b","isTrustedForwarder(address)":"572b6c05","knowledgeItems(uint256)":"1018c5f9","knowledgeMode(uint256)":"7e92b854","list(string,string,uint256,string,bytes32)":"a07dcd46","listPrivateKnowledge(string,string,uint256,string,string,bytes32,bytes32)":"0ab254af","listPrivateKnowledgeWithLimit(string,string,uint256,string,string,bytes32,bytes32,uint256)":"f665986e","listPublicKnowledgeV2(string,string,uint256,string,string,bytes32)":"b7a17a9d","maxSalesByKnowledge(uint256)":"55a5f255","nextKnowledgeId()":"310f1371","nextPurchaseId()":"23b4a7a3","pause()":"8456cb59","paused()":"5c975abb","payoutReleased(uint256)":"7021f1a3","proxiableUUID()":"52d1902d","purchase(uint256)":"efef39a1","purchaseDeliveryConfigSnapshot(uint256)":"3b0ecb61","purchaseDeliveryConfigURI(uint256)":"cdec2cd1","purchaseKnowledgeV2(uint256)":"d468fec6","purchases(uint256)":"8392fe31","redeliverEncryptedKey(uint256,bytes,bytes32)":"ceea2f5a","redeliveredAt(uint256)":"927f9c99","refundReleased(uint256)":"77c50e9d","registry()":"7b103999","renounceRole(bytes32,address)":"36568abe","reopenSales(uint256)":"1479b25e","reputationContract()":"87bc1425","rescueApplied(uint256)":"073080c7","rescueRefundPrivatePurchase(uint256,uint8)":"5e18963b","review(uint256,uint256,uint256)":"8ddad6ac","revokeRole(bytes32,address)":"d547741f","salesOpen(uint256)":"262737cd","setFeeRecipient(address)":"e74b981b","setReputationContract(address)":"9584660f","setSaleLimit(uint256,uint256)":"1a337c96","setTempoReward(address)":"1b32008f","setV2Module(address)":"03eff37b","stopSales(uint256)":"c1d6c941","supportsInterface(bytes4)":"01ffc9a7","tempoReward()":"39d006cb","triggerAutoReview(uint256)":"4d20372e","trustedForwarder()":"7da0a877","unpause()":"3f4ba83a","upgradeToAndCall(address,bytes)":"4f1ef286","v2Module()":"575660c2","wrappedKeyHashByPurchase(uint256)":"fece90f5"},"id":53}