{"abi":[{"type":"constructor","inputs":[{"name":"trustedForwarder","type":"address","internalType":"address"}],"stateMutability":"nonpayable"},{"type":"function","name":"DEFAULT_ADMIN_ROLE","inputs":[],"outputs":[{"name":"","type":"bytes32","internalType":"bytes32"}],"stateMutability":"view"},{"type":"function","name":"MAX_HOF_SCORE_CAP","inputs":[],"outputs":[{"name":"","type":"uint256","internalType":"uint256"}],"stateMutability":"view"},{"type":"function","name":"MAX_POOL_SHARE_PERCENT","inputs":[],"outputs":[{"name":"","type":"uint256","internalType":"uint256"}],"stateMutability":"view"},{"type":"function","name":"MIN_AVG_RATING","inputs":[],"outputs":[{"name":"","type":"uint256","internalType":"uint256"}],"stateMutability":"view"},{"type":"function","name":"PROTOCOL_ROLE","inputs":[],"outputs":[{"name":"","type":"bytes32","internalType":"bytes32"}],"stateMutability":"view"},{"type":"function","name":"SCORE_REGISTRATION_WINDOW","inputs":[],"outputs":[{"name":"","type":"uint256","internalType":"uint256"}],"stateMutability":"view"},{"type":"function","name":"TEMPO_DURATION","inputs":[],"outputs":[{"name":"","type":"uint256","internalType":"uint256"}],"stateMutability":"view"},{"type":"function","name":"TRIGGER_REWARD","inputs":[],"outputs":[{"name":"","type":"uint256","internalType":"uint256"}],"stateMutability":"view"},{"type":"function","name":"UPGRADE_INTERFACE_VERSION","inputs":[],"outputs":[{"name":"","type":"string","internalType":"string"}],"stateMutability":"view"},{"type":"function","name":"W_ANSWER","inputs":[],"outputs":[{"name":"","type":"uint256","internalType":"uint256"}],"stateMutability":"view"},{"type":"function","name":"W_BEST_ANSWER","inputs":[],"outputs":[{"name":"","type":"uint256","internalType":"uint256"}],"stateMutability":"view"},{"type":"function","name":"W_HOF","inputs":[],"outputs":[{"name":"","type":"uint256","internalType":"uint256"}],"stateMutability":"view"},{"type":"function","name":"W_REPORT","inputs":[],"outputs":[{"name":"","type":"uint256","internalType":"uint256"}],"stateMutability":"view"},{"type":"function","name":"W_REVIEW","inputs":[],"outputs":[{"name":"","type":"uint256","internalType":"uint256"}],"stateMutability":"view"},{"type":"function","name":"W_SALE","inputs":[],"outputs":[{"name":"","type":"uint256","internalType":"uint256"}],"stateMutability":"view"},{"type":"function","name":"canReceiveSaleTempoCredit","inputs":[{"name":"agent","type":"address","internalType":"address"}],"outputs":[{"name":"","type":"bool","internalType":"bool"}],"stateMutability":"view"},{"type":"function","name":"ckt","inputs":[],"outputs":[{"name":"","type":"address","internalType":"contract CKT"}],"stateMutability":"view"},{"type":"function","name":"claimReward","inputs":[{"name":"tempoId","type":"uint256","internalType":"uint256"}],"outputs":[],"stateMutability":"nonpayable"},{"type":"function","name":"claimed","inputs":[{"name":"","type":"uint256","internalType":"uint256"},{"name":"","type":"address","internalType":"address"}],"outputs":[{"name":"","type":"bool","internalType":"bool"}],"stateMutability":"view"},{"type":"function","name":"contributions","inputs":[{"name":"","type":"uint256","internalType":"uint256"},{"name":"","type":"address","internalType":"address"}],"outputs":[{"name":"answerCount","type":"uint256","internalType":"uint256"},{"name":"answerRatingSum","type":"uint256","internalType":"uint256"},{"name":"bestAnswerCount","type":"uint256","internalType":"uint256"},{"name":"saleCount","type":"uint256","internalType":"uint256"},{"name":"saleRatingSum","type":"uint256","internalType":"uint256"},{"name":"reportCount","type":"uint256","internalType":"uint256"},{"name":"hofCount","type":"uint256","internalType":"uint256"},{"name":"reviewCount","type":"uint256","internalType":"uint256"},{"name":"premiumAnswerCount","type":"uint256","internalType":"uint256"},{"name":"premiumBestAnswerCount","type":"uint256","internalType":"uint256"}],"stateMutability":"view"},{"type":"function","name":"currentTempoId","inputs":[],"outputs":[{"name":"","type":"uint256","internalType":"uint256"}],"stateMutability":"view"},{"type":"function","name":"finalScores","inputs":[{"name":"","type":"uint256","internalType":"uint256"},{"name":"","type":"address","internalType":"address"}],"outputs":[{"name":"","type":"uint256","internalType":"uint256"}],"stateMutability":"view"},{"type":"function","name":"getContribution","inputs":[{"name":"tid","type":"uint256","internalType":"uint256"},{"name":"agent","type":"address","internalType":"address"}],"outputs":[{"name":"","type":"tuple","internalType":"struct TempoReward.TempoContribution","components":[{"name":"answerCount","type":"uint256","internalType":"uint256"},{"name":"answerRatingSum","type":"uint256","internalType":"uint256"},{"name":"bestAnswerCount","type":"uint256","internalType":"uint256"},{"name":"saleCount","type":"uint256","internalType":"uint256"},{"name":"saleRatingSum","type":"uint256","internalType":"uint256"},{"name":"reportCount","type":"uint256","internalType":"uint256"},{"name":"hofCount","type":"uint256","internalType":"uint256"},{"name":"reviewCount","type":"uint256","internalType":"uint256"},{"name":"premiumAnswerCount","type":"uint256","internalType":"uint256"},{"name":"premiumBestAnswerCount","type":"uint256","internalType":"uint256"}]}],"stateMutability":"view"},{"type":"function","name":"getRoleAdmin","inputs":[{"name":"role","type":"bytes32","internalType":"bytes32"}],"outputs":[{"name":"","type":"bytes32","internalType":"bytes32"}],"stateMutability":"view"},{"type":"function","name":"getStreakMultiplier","inputs":[{"name":"agent","type":"address","internalType":"address"}],"outputs":[{"name":"","type":"uint256","internalType":"uint256"}],"stateMutability":"view"},{"type":"function","name":"getTempoEndTimestamp","inputs":[{"name":"tid","type":"uint256","internalType":"uint256"}],"outputs":[{"name":"","type":"uint256","internalType":"uint256"}],"stateMutability":"view"},{"type":"function","name":"getTempoPhase","inputs":[{"name":"tid","type":"uint256","internalType":"uint256"}],"outputs":[{"name":"","type":"uint8","internalType":"enum TempoReward.TempoPhase"}],"stateMutability":"view"},{"type":"function","name":"grantRole","inputs":[{"name":"role","type":"bytes32","internalType":"bytes32"},{"name":"account","type":"address","internalType":"address"}],"outputs":[],"stateMutability":"nonpayable"},{"type":"function","name":"hasRole","inputs":[{"name":"role","type":"bytes32","internalType":"bytes32"},{"name":"account","type":"address","internalType":"address"}],"outputs":[{"name":"","type":"bool","internalType":"bool"}],"stateMutability":"view"},{"type":"function","name":"initialize","inputs":[{"name":"_ckt","type":"address","internalType":"address"},{"name":"_registry","type":"address","internalType":"address"}],"outputs":[],"stateMutability":"nonpayable"},{"type":"function","name":"isTrustedForwarder","inputs":[{"name":"forwarder","type":"address","internalType":"address"}],"outputs":[{"name":"","type":"bool","internalType":"bool"}],"stateMutability":"view"},{"type":"function","name":"lastActiveTempo","inputs":[{"name":"","type":"address","internalType":"address"}],"outputs":[{"name":"","type":"uint256","internalType":"uint256"}],"stateMutability":"view"},{"type":"function","name":"proxiableUUID","inputs":[],"outputs":[{"name":"","type":"bytes32","internalType":"bytes32"}],"stateMutability":"view"},{"type":"function","name":"recordAnswer","inputs":[{"name":"agent","type":"address","internalType":"address"},{"name":"rating","type":"uint256","internalType":"uint256"},{"name":"isPremium","type":"bool","internalType":"bool"}],"outputs":[],"stateMutability":"nonpayable"},{"type":"function","name":"recordBestAnswer","inputs":[{"name":"agent","type":"address","internalType":"address"},{"name":"isPremium","type":"bool","internalType":"bool"}],"outputs":[],"stateMutability":"nonpayable"},{"type":"function","name":"recordHoF","inputs":[{"name":"agent","type":"address","internalType":"address"}],"outputs":[],"stateMutability":"nonpayable"},{"type":"function","name":"recordQualifiedSale","inputs":[{"name":"agent","type":"address","internalType":"address"},{"name":"rating","type":"uint256","internalType":"uint256"}],"outputs":[],"stateMutability":"nonpayable"},{"type":"function","name":"recordReport","inputs":[{"name":"agent","type":"address","internalType":"address"}],"outputs":[],"stateMutability":"nonpayable"},{"type":"function","name":"recordReview","inputs":[{"name":"agent","type":"address","internalType":"address"}],"outputs":[],"stateMutability":"nonpayable"},{"type":"function","name":"recordSale","inputs":[{"name":"agent","type":"address","internalType":"address"},{"name":"rating","type":"uint256","internalType":"uint256"}],"outputs":[],"stateMutability":"nonpayable"},{"type":"function","name":"registerScore","inputs":[{"name":"tempoId","type":"uint256","internalType":"uint256"}],"outputs":[],"stateMutability":"nonpayable"},{"type":"function","name":"registry","inputs":[],"outputs":[{"name":"","type":"address","internalType":"contract AgentRegistry"}],"stateMutability":"view"},{"type":"function","name":"renounceRole","inputs":[{"name":"role","type":"bytes32","internalType":"bytes32"},{"name":"callerConfirmation","type":"address","internalType":"address"}],"outputs":[],"stateMutability":"nonpayable"},{"type":"function","name":"revokeRole","inputs":[{"name":"role","type":"bytes32","internalType":"bytes32"},{"name":"account","type":"address","internalType":"address"}],"outputs":[],"stateMutability":"nonpayable"},{"type":"function","name":"scoreRegistered","inputs":[{"name":"","type":"uint256","internalType":"uint256"},{"name":"","type":"address","internalType":"address"}],"outputs":[{"name":"","type":"bool","internalType":"bool"}],"stateMutability":"view"},{"type":"function","name":"startTimestamp","inputs":[],"outputs":[{"name":"","type":"uint256","internalType":"uint256"}],"stateMutability":"view"},{"type":"function","name":"streakCount","inputs":[{"name":"","type":"address","internalType":"address"}],"outputs":[{"name":"","type":"uint256","internalType":"uint256"}],"stateMutability":"view"},{"type":"function","name":"supportsInterface","inputs":[{"name":"interfaceId","type":"bytes4","internalType":"bytes4"}],"outputs":[{"name":"","type":"bool","internalType":"bool"}],"stateMutability":"view"},{"type":"function","name":"tempos","inputs":[{"name":"","type":"uint256","internalType":"uint256"}],"outputs":[{"name":"pool","type":"uint256","internalType":"uint256"},{"name":"totalFinalScore","type":"uint256","internalType":"uint256"},{"name":"endTimestamp","type":"uint256","internalType":"uint256"},{"name":"poolSet","type":"bool","internalType":"bool"}],"stateMutability":"view"},{"type":"function","name":"triggerTempoDistribution","inputs":[{"name":"tempoId","type":"uint256","internalType":"uint256"}],"outputs":[],"stateMutability":"nonpayable"},{"type":"function","name":"trustedForwarder","inputs":[],"outputs":[{"name":"","type":"address","internalType":"address"}],"stateMutability":"view"},{"type":"function","name":"upgradeToAndCall","inputs":[{"name":"newImplementation","type":"address","internalType":"address"},{"name":"data","type":"bytes","internalType":"bytes"}],"outputs":[],"stateMutability":"payable"},{"type":"event","name":"ContributionRecorded","inputs":[{"name":"tempoId","type":"uint256","indexed":true,"internalType":"uint256"},{"name":"agent","type":"address","indexed":true,"internalType":"address"},{"name":"contributionType","type":"string","indexed":false,"internalType":"string"}],"anonymous":false},{"type":"event","name":"Initialized","inputs":[{"name":"version","type":"uint64","indexed":false,"internalType":"uint64"}],"anonymous":false},{"type":"event","name":"RewardClaimed","inputs":[{"name":"tempoId","type":"uint256","indexed":true,"internalType":"uint256"},{"name":"agent","type":"address","indexed":true,"internalType":"address"},{"name":"amount","type":"uint256","indexed":false,"internalType":"uint256"}],"anonymous":false},{"type":"event","name":"RoleAdminChanged","inputs":[{"name":"role","type":"bytes32","indexed":true,"internalType":"bytes32"},{"name":"previousAdminRole","type":"bytes32","indexed":true,"internalType":"bytes32"},{"name":"newAdminRole","type":"bytes32","indexed":true,"internalType":"bytes32"}],"anonymous":false},{"type":"event","name":"RoleGranted","inputs":[{"name":"role","type":"bytes32","indexed":true,"internalType":"bytes32"},{"name":"account","type":"address","indexed":true,"internalType":"address"},{"name":"sender","type":"address","indexed":true,"internalType":"address"}],"anonymous":false},{"type":"event","name":"RoleRevoked","inputs":[{"name":"role","type":"bytes32","indexed":true,"internalType":"bytes32"},{"name":"account","type":"address","indexed":true,"internalType":"address"},{"name":"sender","type":"address","indexed":true,"internalType":"address"}],"anonymous":false},{"type":"event","name":"ScoreRegistered","inputs":[{"name":"tempoId","type":"uint256","indexed":true,"internalType":"uint256"},{"name":"agent","type":"address","indexed":true,"internalType":"address"},{"name":"finalScore","type":"uint256","indexed":false,"internalType":"uint256"}],"anonymous":false},{"type":"event","name":"TempoPoolSet","inputs":[{"name":"tempoId","type":"uint256","indexed":true,"internalType":"uint256"},{"name":"pool","type":"uint256","indexed":false,"internalType":"uint256"}],"anonymous":false},{"type":"event","name":"TempoTriggered","inputs":[{"name":"tempoId","type":"uint256","indexed":true,"internalType":"uint256"},{"name":"triggerer","type":"address","indexed":true,"internalType":"address"},{"name":"pool","type":"uint256","indexed":false,"internalType":"uint256"}],"anonymous":false},{"type":"event","name":"Upgraded","inputs":[{"name":"implementation","type":"address","indexed":true,"internalType":"address"}],"anonymous":false},{"type":"error","name":"AccessControlBadConfirmation","inputs":[]},{"type":"error","name":"AccessControlUnauthorizedAccount","inputs":[{"name":"account","type":"address","internalType":"address"},{"name":"neededRole","type":"bytes32","internalType":"bytes32"}]},{"type":"error","name":"AddressEmptyCode","inputs":[{"name":"target","type":"address","internalType":"address"}]},{"type":"error","name":"ERC1967InvalidImplementation","inputs":[{"name":"implementation","type":"address","internalType":"address"}]},{"type":"error","name":"ERC1967NonPayable","inputs":[]},{"type":"error","name":"FailedCall","inputs":[]},{"type":"error","name":"InvalidInitialization","inputs":[]},{"type":"error","name":"NotInitializing","inputs":[]},{"type":"error","name":"ReentrancyGuardReentrantCall","inputs":[]},{"type":"error","name":"UUPSUnauthorizedCallContext","inputs":[]},{"type":"error","name":"UUPSUnsupportedProxiableUUID","inputs":[{"name":"slot","type":"bytes32","internalType":"bytes32"}]}],"bytecode":{"object":"0x60c0346200014c576001600160401b0390601f62002a3b38819003918201601f19168301918483118484101762000150578084926020946040528339810103126200014c57516001600160a01b03811681036200014c5760017f9b779b17422d0df92223018b32b4d1fa46e071723d6817e2486d003becc55f00553060805260a0527ff0c57e16840df040f15088dc2f81fe391c3923bec73e23a9662efc9c229c6a009081549060ff8260401c166200013a578080831603620000f4575b6040516128d6908162000165823960805181818161147c0152611561015260a0518181816111460152818161140a01526127a10152f35b6001600160401b031990911681179091556040519081527fc7f505b2f371ae2175ee4913f4499e1f2633a7b5936321eed1cdaeb6115181d290602090a15f8080620000bd565b60405163f92ee8a960e01b8152600490fd5b5f80fd5b634e487b7160e01b5f52604160045260245ffdfe6080604081815260049081361015610015575f80fd5b5f9160e0905f35821c94856301ffc9a714611f3e5750846302768de414611f045784630c9cbf7d14611ed65784630fec4aaf14611e92578463120aa87714611e4e5784631b40affa14611d7a5784631f36dbac14611a53578463248a9ca314611d44578463262e9b8414611d295784632830982a14611ce6578463287946b314611caf5784632f2ff15d14611c6957846336568abe14611bd257846336a6ab4714611b385784633a4c13f914611af95784633d891f5914611a58578463438e825214611a53578463485cc955146118835784634b7d94ad146118665784634eeb70291461175c5784634f1ef286146114e057846352d1902d1461146957846357281aba14611431578463572b6c05146113e057846357fc6ac11461139357846360a51cbf1461136e5784636303b67c1461127d578463633119341461125b5784637677e39f146111c4578463790213101461119d5784637b103999146111755784637da0a87714611132578463871aa80f1461107c57846391d148541461102c5784639f480cf81461100f5784639f82231714610ff4578463a217fddf14610fda578463a823b4da14610fae578463ad3cb1cc14610f10578463ae169a5014610c21578463b03381bc14610be9578463b661e16314610942578463b83165ae14610263578463d1921a9514610926578463d547741f146108d6578463dc8d7a4a1461083a578463e081dbf9146106fc578463e6fd48bc146106dd578463ea39de71146106c1578463ef12262e146106a1578463f29f7f8714610268575050505063fb1334aa14610263575f80fd5b61203e565b3461069d576020806003193601126106995781359261028684612118565b90600382101561068657600180920361064a5781546001600160a01b0391908216848360246102b3612776565b8b51948593849263c3c5a54760e01b8452168b8301525afa908115610558578991610610575b50156105d55785885260068452868820826102f2612776565b165f52845260ff875f20541661059e5761038c908689526003855287892083610319612776565b165f5285526009885f2089519261032f84611fff565b81548452868201548885015260028201548b85015260038201546060850152888201546080850152600582015460a0850152600682015460c08501526007820154908401526008810154610100840152015461012082015261258f565b8015610562576103ba606491836103a1612776565b168a52600886526103b4898b2054612483565b9061214a565b049185885284845260ff6003888a200154161561045e575b7f1148c23fab896ddc28ba2b404e9a129c3c3dc5bf32b324261ae48f17176541d3948689526006855287892083610407612776565b165f528552875f208260ff19825416179055868952600585528789208361042c612776565b165f52855283885f205586895284528688200161044a83825461210b565b9055610454612776565b169451908152a380f35b8484838a54168951978880926330375f9960e11b82525afa8015610558578990610507575b7f1148c23fab896ddc28ba2b404e9a129c3c3dc5bf32b324261ae48f17176541d39650878a52818652888a2055867fd3556f36cc39e5c83d9f909c0d737c3ccc6ea47369da3dffc7aa9b5a71d6823a866104dc8361215d565b838d528482528b8d20906002820155600381018660ff19825416179055548b51908152a294506103d2565b508486813d8311610551575b61051d818361201c565b8101031261054d577f1148c23fab896ddc28ba2b404e9a129c3c3dc5bf32b324261ae48f17176541d39551610483565b5f80fd5b503d610513565b88513d8b823e3d90fd5b865162461bcd60e51b815280860185905260166024820152752a32b6b8379d1037379031b7b73a3934b13aba34b7b760511b6044820152606490fd5b865162461bcd60e51b8152808601859052601160248201527015195b5c1bce881c9959da5cdd195c9959607a1b6044820152606490fd5b865162461bcd60e51b8152808601859052601560248201527415195b5c1bce881b9bdd081c9959da5cdd195c9959605a1b6044820152606490fd5b90508481813d8311610643575b610627818361201c565b8101031261063f5751801515810361063f57896102d9565b8880fd5b503d61061d565b855162461bcd60e51b8152808501849052601660248201527554656d706f3a206e6f74207265676973746572696e6760501b6044820152606490fd5b634e487b7160e01b875260218452602487fd5b8480fd5b8380fd5b5050346106bd57816003193601126106bd576020905160328152f35b5080fd5b5050346106bd57816003193601126106bd576020905160148152f35b5050346106bd57816003193601126106bd576020906002549051908152f35b903461069d578260031936011261069d5761014093610719611fa6565b9284519361072685611fff565b82855282602086015282868601528260608601528260808601528260a08601528260c08601528284860152856101009380858801528061012080980152833581526003602052209060018060a01b03165f52602052845f2092855193849261078d84611fff565b81549081855260018301549860208601998a5260028401549181870192835260038501549060608801918252850154916080880192835260058601549360a0890194855260068701549560c08a019687528c600960078a0154998b8d019a8b528d60088201549d019c8d5201549c019b8c52602083519e8f9283525191015251908c01525160608b01525160808a01525160a08901525160c0880152519086015251908401525190820152f35b5050346106bd5760203660031901126106bd57610855611f90565b9061085e6121b8565b5f80516020612881833981519152606062093a8061087e6002544261218d565b049261088a8486612284565b83865260036020528086209460018060a01b031694855f526020526005815f20016108b581546120e9565b9055651c995c1bdc9d60d21b8151916020835260066020840152820152a380f35b9190503461092257806003193601126109225761091e913561091960016108fb611fa6565b938387525f8051602061286183398151915260205286200154612242565b612504565b5080f35b8280fd5b5050346106bd57816003193601126106bd5760209051600f8152f35b919050346109225760208060031936011261069d578235926109626124c2565b61096b84612118565b6003811015610bd65715610b9f5783855280825260ff6003848720015416610b5e5760018060a01b03928183858854168351948580926330375f9960e11b82525afa928315610b54578793610b25575b508215610ae4578690868252808552838383205560036109da8861215d565b88845282875284842090600282015501600160ff1982541617905585825416610a01612776565b813b1561069d5760448891858094885196879586946340c10f1960e01b86521690840152670de0b6b3a764000060248401525af18015610ada57610ac2575b50507fd3556f36cc39e5c83d9f909c0d737c3ccc6ea47369da3dffc7aa9b5a71d6823a93610a6c612776565b16857f06d6f2462678d03b44374808121750f6e0e9bda1ad9242986fdb3df41e38b9d4858451868152a351908152a260017f9b779b17422d0df92223018b32b4d1fa46e071723d6817e2486d003becc55f005580f35b610acb90611fd7565b610ad6578587610a40565b8580fd5b83513d84823e3d90fd5b83606492519162461bcd60e51b8352820152601860248201527f54656d706f3a2068616c76696e672065786861757374656400000000000000006044820152fd5b9092508381813d8311610b4d575b610b3d818361201c565b8101031261054d575191876109bb565b503d610b33565b82513d89823e3d90fd5b915162461bcd60e51b815291820152601860248201527f54656d706f3a20616c72656164792074726967676572656400000000000000006044820152606490fd5b915162461bcd60e51b815291820152601360248201527254656d706f3a207374696c6c2061637469766560681b6044820152606490fd5b634e487b7160e01b865260218252602486fd5b5050346106bd5760203660031901126106bd5760209181906001600160a01b03610c11611f90565b1681526008845220549051908152f35b90503461054d5760208060031936011261054d57813591610c406124c2565b610c4983612118565b6003811015610efd57600203610ec5575f838152600683528490206001600160a01b039081610c76612776565b165f52835260ff855f20541680610e9f575b15610e6c57835f5260078352845f2081610ca0612776565b165f528352845f20600160ff19825416179055835f5260058352845f2081610cc6612776565b165f528352845f205491845f52808452855f20600181015490549381151580610e63575b15610e315790610cfd610d02928661214a565b61219a565b92600a810290808204600a1490151715610e1e5760649004808411610e16575b5082610d51575b8660017f9b779b17422d0df92223018b32b4d1fa46e071723d6817e2486d003becc55f005580f35b815f5416610d5d612776565b813b1561054d57604484915f80948b5196879586946340c10f1960e01b865216908401528860248401525af18015610e0c57610dd3575b50907f24b5efa61dd1cfc659205a97fb8ed868f3cb8c81922bab2b96423e5de1de2cb79291610dc1612776565b169451908152a3818080808080610d29565b7f24b5efa61dd1cfc659205a97fb8ed868f3cb8c81922bab2b96423e5de1de2cb79392919650610e0290611fd7565b5f95909192610d94565b86513d5f823e3d90fd5b925087610d22565b601182634e487b7160e01b5f525260245ffd5b875162461bcd60e51b8152808401879052600c60248201526b54656d706f3a20656d70747960a01b6044820152606490fd5b50841515610cea565b5060649184519162461bcd60e51b8352820152600e60248201526d15195b5c1bce881a5b9d985b1a5960921b6044820152fd5b50835f5260078352845f2081610eb3612776565b165f52835260ff855f20541615610c88565b60649184519162461bcd60e51b8352820152601460248201527354656d706f3a206e6f7420636c61696d61626c6560601b6044820152fd5b602182634e487b7160e01b5f525260245ffd5b823461054d575f36600319011261054d578051918183019083821067ffffffffffffffff831117610f9b57508152600582526020640352e302e360dc1b60208401528151928391602083528151918260208501525f5b838110610f855750505f83830185015250601f01601f19168101030190f35b8181018301518782018701528694508201610f66565b604190634e487b7160e01b5f525260245ffd5b823461054d575f36600319011261054d5760209062093a80610fd26002544261218d565b049051908152f35b823461054d575f36600319011261054d57602090515f8152f35b823461054d575f36600319011261054d5760209051601e8152f35b823461054d575f36600319011261054d576020905162093a808152f35b823461054d578060031936011261054d57602091611048611fa6565b90355f525f805160206128618339815191528352815f209060018060a01b03165f52825260ff815f20541690519015158152f35b823461054d578060031936011261054d575f8051602061288183398151915260606110a5611f90565b936110ae6121b8565b6373616c6560e01b62093a806110c66002544261218d565b04946110d28688612284565b855f5260209260038452815f209760018060a01b031697885f5284526003825f20016110fe81546120e9565b9055865f5260038452815f20885f52845280825f2001611121602435825461210b565b9055815193808552840152820152a3005b823461054d575f36600319011261054d57517f00000000000000000000000000000000000000000000000000000000000000006001600160a01b03168152602090f35b823461054d575f36600319011261054d5760015490516001600160a01b039091168152602090f35b823461054d575f36600319011261054d575f5490516001600160a01b039091168152602090f35b823461054d57602036600319011261054d576111de611f90565b906111e76121b8565b5f80516020612881833981519152606062093a806112076002544261218d565b04926112138486612284565b835f526003602052805f209460018060a01b031694855f526020526006815f200161123e81546120e9565b9055623437b360e91b8151916020835260036020840152820152a3005b823461054d575f36600319011261054d5760209051670de0b6b3a76400008152f35b823461054d57606036600319011261054d57611297611f90565b90604435801515810361054d5760605f80516020612881833981519152916112bd6121b8565b6530b739bbb2b960d11b62093a806112d76002544261218d565b04946112e38688612284565b855f5260209260038452815f209760018060a01b031697885f528452815f2061130c81546120e9565b9055865f5260038452815f20885f5284526001825f2001611330602435825461210b565b9055611348575b6006815193808552840152820152a3005b855f5260038352805f20875f5283526008815f200161136781546120e9565b9055611337565b823461054d57602036600319011261054d5761138c6020923561215d565b9051908152f35b823461054d57602036600319011261054d5781608092355f52602052805f209081549160018101549160ff6003600284015493015416928151948552602085015283015215156060820152f35b823461054d57602036600319011261054d576020906113fd611f90565b60018060a01b03915191807f0000000000000000000000000000000000000000000000000000000000000000169116148152f35b823461054d57602036600319011261054d576020906001600160a01b03611456611f90565b165f526008825261138c815f2054612483565b823461054d575f36600319011261054d577f00000000000000000000000000000000000000000000000000000000000000006001600160a01b031630036114d357602090517f360894a13ba1a3210667c828492db98dca3e2076cc3735a920a3ca505d382bbc8152f35b5163703e46dd60e11b8152fd5b90508160031936011261054d576114f5611f90565b602492833567ffffffffffffffff9283821161054d573660238301121561054d578185013593841161174a5760209383519261153a86601f19601f850116018561201c565b8184523688838301011161054d57815f928988930183870137840101526001600160a01b037f0000000000000000000000000000000000000000000000000000000000000000811630811490811561171c575b5061170c5761159a612776565b5f80525f80516020612861833981519152865281855f20911690815f52865260ff855f205416156116f1575083516352d1902d60e01b81529082169480828881895afa9182915f936116c1575b5050611601575050505191634c9c8ce360e01b8352820152fd5b85938591887f360894a13ba1a3210667c828492db98dca3e2076cc3735a920a3ca505d382bbc918281036116ac5750843b15611698575080546001600160a01b0319168317905551907fbc7cd75a20ee27fd9adebab32041f755214dbc6bffa90cc0225b39da2e5c2d3b5f80a2825115611682575061168092506127cf565b005b9150503461168c57005b63b398979f60e01b8152fd5b8251634c9c8ce360e01b8152808801859052fd5b8351632a87526960e21b815280890191909152fd5b9080929350813d83116116ea575b6116d9818361201c565b8101031261054d57519088806115e7565b503d6116cf565b865f8960449388519363e2517d3f60e01b8552840152820152fd5b835163703e46dd60e11b81528690fd5b9050817f360894a13ba1a3210667c828492db98dca3e2076cc3735a920a3ca505d382bbc541614158861158d565b85604186634e487b7160e01b5f52525ffd5b823461054d578060031936011261054d57611775611f90565b9161177e6121b8565b61178783612059565b1561182c5760605f80516020612881833981519152916d7175616c69666965645f73616c6560901b62093a806117bf6002544261218d565b04946117cb8688612284565b855f5260209260038452815f209760018060a01b031697885f5284526003825f20016117f781546120e9565b9055865f5260038452815f20885f528452815f2001611819602435825461210b565b9055600e815193808552840152820152a3005b6020606492519162461bcd60e51b835282015260156024820152742a32b6b8379d103a34b2b91019159039b2b63632b960591b6044820152fd5b823461054d575f36600319011261054d57602090516202a3008152f35b90503461054d578160031936011261054d5761189d611f90565b906118a6611fa6565b907ff0c57e16840df040f15088dc2f81fe391c3923bec73e23a9662efc9c229c6a009283549260ff84871c16159367ffffffffffffffff811680159081611a4b575b6001149081611a41575b159081611a38575b50611a285767ffffffffffffffff198116600117865584611a09575b5060ff8554871c16156119f9576001600160a01b0391821692831515806119ee575b156119b857506bffffffffffffffffffffffff60a01b92835f5416175f551690600154161760015561197061196b612776565b612343565b504260025561197b57005b805468ff00000000000000001916905551600181527fc7f505b2f371ae2175ee4913f4499e1f2633a7b5936321eed1cdaeb6115181d290602090a1005b606490602088519162461bcd60e51b8352820152601060248201526f2a32b6b8379d103d32b9379030b2323960811b6044820152fd5b508282161515611938565b8551631afcd79f60e31b81528390fd5b68ffffffffffffffffff19166801000000000000000117855586611916565b865163f92ee8a960e01b81528490fd5b905015886118fa565b303b1591506118f2565b8691506118e8565b611fbc565b3461054d578260031936011261054d5761014092611a74611fa6565b82355f526003602052815f209060018060a01b03165f52602052805f2090815493600183015493600284015490600385015490850154600586015491600687015493600788015496600960088a01549901549981519b8c5260208c01528a01526060890152608088015260a087015260c0860152840152610100830152610120820152f35b823461054d578060031936011261054d57602091611b15611fa6565b90355f5260058352815f209060018060a01b03165f528252805f20549051908152f35b823461054d57602036600319011261054d57611b52611f90565b90611b5b6121b8565b5f80516020612881833981519152606062093a80611b7b6002544261218d565b0492611b878486612284565b835f526003602052805f209460018060a01b031694855f526020526007815f2001611bb281546120e9565b90556572657669657760d01b8151916020835260066020840152820152a3005b823461054d578060031936011261054d578135611bed611fa6565b918115611c27576001600160a01b0380611c05612776565b1690841603611c18576116808383612504565b5163334bd91960e11b81528390fd5b5162461bcd60e51b8152602081850152601c60248201527f54656d706f3a2063616e6e6f742072656e6f756e63652061646d696e000000006044820152606490fd5b823461054d578060031936011261054d576116809135611caa6001611c8c611fa6565b93835f525f805160206128618339815191526020525f200154612242565b6123ee565b823461054d57602036600319011261054d576020906001600160a01b03611cd4611f90565b165f5260098252805f20549051908152f35b823461054d57602036600319011261054d57611d028235612118565b9051906003811015611d1657602092508152f35b602183634e487b7160e01b5f525260245ffd5b823461054d575f36600319011261054d576020905160fa8152f35b823461054d57602036600319011261054d57602091355f525f8051602061286183398151915282526001815f2001549051908152f35b823461054d578060031936011261054d57611d93611f90565b90602435801515810361054d5760605f8051602061288183398151915291611db96121b8565b6a3132b9ba2fb0b739bbb2b960a91b62093a80611dd86002544261218d565b0494611de48688612284565b855f5260209260038452815f209760018060a01b031697885f5284526002825f2001611e1081546120e9565b9055611e28575b600b815193808552840152820152a3005b855f5260038352805f20875f5283526009815f2001611e4781546120e9565b9055611e17565b823461054d578060031936011261054d57602091611e6a611fa6565b90355f5260078352815f209060018060a01b03165f52825260ff815f20541690519015158152f35b823461054d578060031936011261054d57602091611eae611fa6565b90355f5260068352815f209060018060a01b03165f52825260ff815f20541690519015158152f35b823461054d57602036600319011261054d57602090611efb611ef6611f90565b612059565b90519015158152f35b823461054d575f36600319011261054d57602090517fba279271fb7bbf76a6f3df3cc57bf80647fcafdea60ec3383d90f459de74e7c08152f35b903461054d57602036600319011261054d57359063ffffffff60e01b821680920361054d57602091637965db0b60e01b8114908115611f7f575b5015158152f35b6301ffc9a760e01b14905083611f78565b600435906001600160a01b038216820361054d57565b602435906001600160a01b038216820361054d57565b3461054d575f36600319011261054d57602060405160058152f35b67ffffffffffffffff8111611feb57604052565b634e487b7160e01b5f52604160045260245ffd5b610140810190811067ffffffffffffffff821117611feb57604052565b90601f8019910116810190811067ffffffffffffffff821117611feb57604052565b3461054d575f36600319011261054d576020604051600a8152f35b600154604051635a2d572960e11b81526001600160a01b0392831660048201529160209183916024918391165afa9081156120de575f916120a1575b5060ff60029116101590565b90506020813d6020116120d6575b816120bc6020938361201c565b8101031261054d575160ff8116810361054d5760ff612095565b3d91506120af565b6040513d5f823e3d90fd5b5f1981146120f75760010190565b634e487b7160e01b5f52601160045260245ffd5b919082018092116120f757565b6121219061215d565b804210612145576202a30081018091116120f757421061214057600290565b600190565b505f90565b818102929181159184041417156120f757565b60025490600181018091116120f75762093a80908181029181830414901517156120f75761218a9161210b565b90565b919082039182116120f757565b81156121a4570490565b634e487b7160e01b5f52601260045260245ffd5b6121c0612776565b6001600160a01b03165f8181527f1a6cd9a7b8103b1ac8ae3acbee9fd0afe79825cbeda582da2cdf52e70cae65a960205260409020547fba279271fb7bbf76a6f3df3cc57bf80647fcafdea60ec3383d90f459de74e7c09060ff1615612224575050565b604492506040519163e2517d3f60e01b835260048301526024820152fd5b61224a612776565b90805f525f8051602061286183398151915260205260405f209160018060a01b031691825f5260205260ff60405f20541615612224575050565b60018060a01b0316805f5260209060088252604091825f2054151580612333575b61232d5760088152825f2054155f146122d157816009925f52600882526001845f20555b5f52525f2055565b83151580612310575b60099290156122fe57805f5260088252835f206122f781546120e9565b90556122c9565b805f52600882526001845f20556122c9565b5060098152825f2054915f1985018581116120f7579092146122da565b50505050565b506009815283835f2054146122a5565b6001600160a01b039081165f8181527fb7db2dd08fcb62d0c9e08c51941cae53c267786a0b75803fb7960902fc8ef97d60205260409020549091905f805160206128618339815191529060ff166123e7575f805260205260405f20825f5260205260405f20600160ff198254161790556123bb612776565b16905f7f2f8788117e7eff1d82e926ec794901d17c78024a50270940304540a733656f0d8180a4600190565b5050505f90565b5f8181525f80516020612861833981519152602081815260408084206001600160a01b039687168086529252909220549293919260ff1661247b57835f5260205260405f20825f5260205260405f20600160ff19825416179055612450612776565b16917f2f8788117e7eff1d82e926ec794901d17c78024a50270940304540a733656f0d5f80a4600190565b505050505f90565b60358110156124bc57601b8110156124b657600d8110156124b057600511156124ab57606490565b608290565b5060a090565b5060c890565b5060fa90565b7f9b779b17422d0df92223018b32b4d1fa46e071723d6817e2486d003becc55f0060028154146124f25760029055565b604051633ee5aeb560e01b8152600490fd5b5f8181525f80516020612861833981519152602081815260408084206001600160a01b039687168086529252909220549293919260ff161561247b57835f5260205260405f20825f5260205260405f2060ff198154169055612564612776565b16917ff6391f5c32d9c69d2a47ea670b442974b53935d1edc7fd64eb21e047a839171b5f80a4600190565b8051612745575b5f8151806126ca575b5060408201516125b661012084019182519061218d565b90600a820291808304600a14901517156120f75751600f810290808204600f14901517156120f7576125e79161210b565b90601e820291808304601e14901517156120f757600a61260892049061210b565b606082018051908161268f575b505060a0820151600f810290808204600f14901517156120f7576126389161210b565b60c0820151600581111561268957506005905b6032820291808304603214901517156120f75760e09161266a9161210b565b9101516005810290808204600514901517156120f75761218a9161210b565b9061264b565b6126a06126a792608086015161219a565b905161214a565b6014810290808204601414901517156120f7576126c39161210b565b5f80612615565b6126d99150602083015161219a565b8151906126ed61010084019283519061218d565b91600a830292808404600a14901517156120f7575191600f830292808404600f14901517156120f757612728926127239161210b565b61214a565b600a810290808204600a14901517156120f757600a90045f61259f565b60208101516064810290808204606414901517156120f75761276b60fa9183519061219a565b101561259657505f90565b60143610158061279d575b1561279957601319360136811161054d573560601c90565b3390565b50337f00000000000000000000000000000000000000000000000000000000000000006001600160a01b031614612781565b905f8091602081519101845af4808061284d575b156128035750506040513d81523d5f602083013e60203d82010160405290565b1561282a57604051639996b31560e01b81526001600160a01b039091166004820152602490fd5b3d1561283b576040513d5f823e3d90fd5b60405163d6bda27560e01b8152600490fd5b503d1515806127e35750813b15156127e356fe02dd7bc7dec4dceedda775e58dd541e08a116c6c53815c0bd028192f7b626800f1331e4242003711466b09410b194b26b0e8c76dd360d8cd6e9e2bb26f614c1da26469706673582212203c887099e87ab05b65ef841674fe83fedc6d86dd04b29d3af4b8cc3b165edcfe64736f6c63430008180033","linkReferences":{}},"methodIdentifiers":{"DEFAULT_ADMIN_ROLE()":"a217fddf","MAX_HOF_SCORE_CAP()":"438e8252","MAX_POOL_SHARE_PERCENT()":"fb1334aa","MIN_AVG_RATING()":"262e9b84","PROTOCOL_ROLE()":"02768de4","SCORE_REGISTRATION_WINDOW()":"4b7d94ad","TEMPO_DURATION()":"9f480cf8","TRIGGER_REWARD()":"63311934","UPGRADE_INTERFACE_VERSION()":"ad3cb1cc","W_ANSWER()":"b83165ae","W_BEST_ANSWER()":"9f822317","W_HOF()":"ef12262e","W_REPORT()":"d1921a95","W_REVIEW()":"1f36dbac","W_SALE()":"ea39de71","canReceiveSaleTempoCredit(address)":"0c9cbf7d","ckt()":"79021310","claimReward(uint256)":"ae169a50","claimed(uint256,address)":"120aa877","contributions(uint256,address)":"3d891f59","currentTempoId()":"a823b4da","finalScores(uint256,address)":"3a4c13f9","getContribution(uint256,address)":"e081dbf9","getRoleAdmin(bytes32)":"248a9ca3","getStreakMultiplier(address)":"57281aba","getTempoEndTimestamp(uint256)":"60a51cbf","getTempoPhase(uint256)":"2830982a","grantRole(bytes32,address)":"2f2ff15d","hasRole(bytes32,address)":"91d14854","initialize(address,address)":"485cc955","isTrustedForwarder(address)":"572b6c05","lastActiveTempo(address)":"287946b3","proxiableUUID()":"52d1902d","recordAnswer(address,uint256,bool)":"6303b67c","recordBestAnswer(address,bool)":"1b40affa","recordHoF(address)":"7677e39f","recordQualifiedSale(address,uint256)":"4eeb7029","recordReport(address)":"dc8d7a4a","recordReview(address)":"36a6ab47","recordSale(address,uint256)":"871aa80f","registerScore(uint256)":"f29f7f87","registry()":"7b103999","renounceRole(bytes32,address)":"36568abe","revokeRole(bytes32,address)":"d547741f","scoreRegistered(uint256,address)":"0fec4aaf","startTimestamp()":"e6fd48bc","streakCount(address)":"b03381bc","supportsInterface(bytes4)":"01ffc9a7","tempos(uint256)":"57fc6ac1","triggerTempoDistribution(uint256)":"b661e163","trustedForwarder()":"7da0a877","upgradeToAndCall(address,bytes)":"4f1ef286"},"id":60}