{"abi":[{"type":"constructor","inputs":[{"name":"trustedForwarder","type":"address","internalType":"address"}],"stateMutability":"nonpayable"},{"type":"function","name":"DEFAULT_ADMIN_ROLE","inputs":[],"outputs":[{"name":"","type":"bytes32","internalType":"bytes32"}],"stateMutability":"view"},{"type":"function","name":"MAX_HOF_SCORE_CAP","inputs":[],"outputs":[{"name":"","type":"uint256","internalType":"uint256"}],"stateMutability":"view"},{"type":"function","name":"MAX_POOL_SHARE_PERCENT","inputs":[],"outputs":[{"name":"","type":"uint256","internalType":"uint256"}],"stateMutability":"view"},{"type":"function","name":"MAX_QUALIFIED_SALE_CREDITS_PER_TEMPO","inputs":[],"outputs":[{"name":"","type":"uint256","internalType":"uint256"}],"stateMutability":"view"},{"type":"function","name":"MIN_AVG_RATING","inputs":[],"outputs":[{"name":"","type":"uint256","internalType":"uint256"}],"stateMutability":"view"},{"type":"function","name":"PROTOCOL_ROLE","inputs":[],"outputs":[{"name":"","type":"bytes32","internalType":"bytes32"}],"stateMutability":"view"},{"type":"function","name":"SCORE_REGISTRATION_WINDOW","inputs":[],"outputs":[{"name":"","type":"uint256","internalType":"uint256"}],"stateMutability":"view"},{"type":"function","name":"TEMPO_DURATION","inputs":[],"outputs":[{"name":"","type":"uint256","internalType":"uint256"}],"stateMutability":"view"},{"type":"function","name":"TRIGGER_REWARD","inputs":[],"outputs":[{"name":"","type":"uint256","internalType":"uint256"}],"stateMutability":"view"},{"type":"function","name":"UPGRADE_INTERFACE_VERSION","inputs":[],"outputs":[{"name":"","type":"string","internalType":"string"}],"stateMutability":"view"},{"type":"function","name":"W_ANSWER","inputs":[],"outputs":[{"name":"","type":"uint256","internalType":"uint256"}],"stateMutability":"view"},{"type":"function","name":"W_BEST_ANSWER","inputs":[],"outputs":[{"name":"","type":"uint256","internalType":"uint256"}],"stateMutability":"view"},{"type":"function","name":"W_HOF","inputs":[],"outputs":[{"name":"","type":"uint256","internalType":"uint256"}],"stateMutability":"view"},{"type":"function","name":"W_REPORT","inputs":[],"outputs":[{"name":"","type":"uint256","internalType":"uint256"}],"stateMutability":"view"},{"type":"function","name":"W_REVIEW","inputs":[],"outputs":[{"name":"","type":"uint256","internalType":"uint256"}],"stateMutability":"view"},{"type":"function","name":"W_SALE","inputs":[],"outputs":[{"name":"","type":"uint256","internalType":"uint256"}],"stateMutability":"view"},{"type":"function","name":"canReceiveSaleTempoCredit","inputs":[{"name":"seller","type":"address","internalType":"address"}],"outputs":[{"name":"","type":"bool","internalType":"bool"}],"stateMutability":"view"},{"type":"function","name":"ckt","inputs":[],"outputs":[{"name":"","type":"address","internalType":"contract CKT"}],"stateMutability":"view"},{"type":"function","name":"claimReward","inputs":[{"name":"tempoId","type":"uint256","internalType":"uint256"}],"outputs":[],"stateMutability":"nonpayable"},{"type":"function","name":"claimed","inputs":[{"name":"","type":"uint256","internalType":"uint256"},{"name":"","type":"address","internalType":"address"}],"outputs":[{"name":"","type":"bool","internalType":"bool"}],"stateMutability":"view"},{"type":"function","name":"contributions","inputs":[{"name":"","type":"uint256","internalType":"uint256"},{"name":"","type":"address","internalType":"address"}],"outputs":[{"name":"answerCount","type":"uint256","internalType":"uint256"},{"name":"answerRatingSum","type":"uint256","internalType":"uint256"},{"name":"bestAnswerCount","type":"uint256","internalType":"uint256"},{"name":"saleCount","type":"uint256","internalType":"uint256"},{"name":"saleRatingSum","type":"uint256","internalType":"uint256"},{"name":"reportCount","type":"uint256","internalType":"uint256"},{"name":"hofCount","type":"uint256","internalType":"uint256"},{"name":"reviewCount","type":"uint256","internalType":"uint256"},{"name":"premiumAnswerCount","type":"uint256","internalType":"uint256"},{"name":"premiumBestAnswerCount","type":"uint256","internalType":"uint256"}],"stateMutability":"view"},{"type":"function","name":"currentTempoId","inputs":[],"outputs":[{"name":"","type":"uint256","internalType":"uint256"}],"stateMutability":"view"},{"type":"function","name":"finalScores","inputs":[{"name":"","type":"uint256","internalType":"uint256"},{"name":"","type":"address","internalType":"address"}],"outputs":[{"name":"","type":"uint256","internalType":"uint256"}],"stateMutability":"view"},{"type":"function","name":"getContribution","inputs":[{"name":"tid","type":"uint256","internalType":"uint256"},{"name":"agent","type":"address","internalType":"address"}],"outputs":[{"name":"","type":"tuple","internalType":"struct TempoReward.TempoContribution","components":[{"name":"answerCount","type":"uint256","internalType":"uint256"},{"name":"answerRatingSum","type":"uint256","internalType":"uint256"},{"name":"bestAnswerCount","type":"uint256","internalType":"uint256"},{"name":"saleCount","type":"uint256","internalType":"uint256"},{"name":"saleRatingSum","type":"uint256","internalType":"uint256"},{"name":"reportCount","type":"uint256","internalType":"uint256"},{"name":"hofCount","type":"uint256","internalType":"uint256"},{"name":"reviewCount","type":"uint256","internalType":"uint256"},{"name":"premiumAnswerCount","type":"uint256","internalType":"uint256"},{"name":"premiumBestAnswerCount","type":"uint256","internalType":"uint256"}]}],"stateMutability":"view"},{"type":"function","name":"getRoleAdmin","inputs":[{"name":"role","type":"bytes32","internalType":"bytes32"}],"outputs":[{"name":"","type":"bytes32","internalType":"bytes32"}],"stateMutability":"view"},{"type":"function","name":"getStreakMultiplier","inputs":[{"name":"agent","type":"address","internalType":"address"}],"outputs":[{"name":"","type":"uint256","internalType":"uint256"}],"stateMutability":"view"},{"type":"function","name":"getTempoEndTimestamp","inputs":[{"name":"tid","type":"uint256","internalType":"uint256"}],"outputs":[{"name":"","type":"uint256","internalType":"uint256"}],"stateMutability":"view"},{"type":"function","name":"getTempoPhase","inputs":[{"name":"tid","type":"uint256","internalType":"uint256"}],"outputs":[{"name":"","type":"uint8","internalType":"enum TempoReward.TempoPhase"}],"stateMutability":"view"},{"type":"function","name":"grantRole","inputs":[{"name":"role","type":"bytes32","internalType":"bytes32"},{"name":"account","type":"address","internalType":"address"}],"outputs":[],"stateMutability":"nonpayable"},{"type":"function","name":"hasRole","inputs":[{"name":"role","type":"bytes32","internalType":"bytes32"},{"name":"account","type":"address","internalType":"address"}],"outputs":[{"name":"","type":"bool","internalType":"bool"}],"stateMutability":"view"},{"type":"function","name":"initialize","inputs":[{"name":"_ckt","type":"address","internalType":"address"},{"name":"_registry","type":"address","internalType":"address"}],"outputs":[],"stateMutability":"nonpayable"},{"type":"function","name":"isTrustedForwarder","inputs":[{"name":"forwarder","type":"address","internalType":"address"}],"outputs":[{"name":"","type":"bool","internalType":"bool"}],"stateMutability":"view"},{"type":"function","name":"lastActiveTempo","inputs":[{"name":"","type":"address","internalType":"address"}],"outputs":[{"name":"","type":"uint256","internalType":"uint256"}],"stateMutability":"view"},{"type":"function","name":"proxiableUUID","inputs":[],"outputs":[{"name":"","type":"bytes32","internalType":"bytes32"}],"stateMutability":"view"},{"type":"function","name":"qualifiedSaleCreditsPerTempo","inputs":[{"name":"","type":"uint256","internalType":"uint256"},{"name":"","type":"address","internalType":"address"}],"outputs":[{"name":"","type":"uint256","internalType":"uint256"}],"stateMutability":"view"},{"type":"function","name":"recordAnswer","inputs":[{"name":"agent","type":"address","internalType":"address"},{"name":"rating","type":"uint256","internalType":"uint256"},{"name":"isPremium","type":"bool","internalType":"bool"}],"outputs":[],"stateMutability":"nonpayable"},{"type":"function","name":"recordBestAnswer","inputs":[{"name":"agent","type":"address","internalType":"address"},{"name":"isPremium","type":"bool","internalType":"bool"}],"outputs":[],"stateMutability":"nonpayable"},{"type":"function","name":"recordHoF","inputs":[{"name":"agent","type":"address","internalType":"address"}],"outputs":[],"stateMutability":"nonpayable"},{"type":"function","name":"recordQualifiedSale","inputs":[{"name":"seller","type":"address","internalType":"address"},{"name":"sellerScore","type":"uint256","internalType":"uint256"}],"outputs":[],"stateMutability":"nonpayable"},{"type":"function","name":"recordReport","inputs":[{"name":"agent","type":"address","internalType":"address"}],"outputs":[],"stateMutability":"nonpayable"},{"type":"function","name":"recordReview","inputs":[{"name":"agent","type":"address","internalType":"address"}],"outputs":[],"stateMutability":"nonpayable"},{"type":"function","name":"recordSale","inputs":[{"name":"agent","type":"address","internalType":"address"},{"name":"rating","type":"uint256","internalType":"uint256"}],"outputs":[],"stateMutability":"nonpayable"},{"type":"function","name":"registerScore","inputs":[{"name":"tempoId","type":"uint256","internalType":"uint256"}],"outputs":[],"stateMutability":"nonpayable"},{"type":"function","name":"registry","inputs":[],"outputs":[{"name":"","type":"address","internalType":"contract AgentRegistry"}],"stateMutability":"view"},{"type":"function","name":"renounceRole","inputs":[{"name":"role","type":"bytes32","internalType":"bytes32"},{"name":"callerConfirmation","type":"address","internalType":"address"}],"outputs":[],"stateMutability":"nonpayable"},{"type":"function","name":"revokeRole","inputs":[{"name":"role","type":"bytes32","internalType":"bytes32"},{"name":"account","type":"address","internalType":"address"}],"outputs":[],"stateMutability":"nonpayable"},{"type":"function","name":"scoreRegistered","inputs":[{"name":"","type":"uint256","internalType":"uint256"},{"name":"","type":"address","internalType":"address"}],"outputs":[{"name":"","type":"bool","internalType":"bool"}],"stateMutability":"view"},{"type":"function","name":"startTimestamp","inputs":[],"outputs":[{"name":"","type":"uint256","internalType":"uint256"}],"stateMutability":"view"},{"type":"function","name":"streakCount","inputs":[{"name":"","type":"address","internalType":"address"}],"outputs":[{"name":"","type":"uint256","internalType":"uint256"}],"stateMutability":"view"},{"type":"function","name":"supportsInterface","inputs":[{"name":"interfaceId","type":"bytes4","internalType":"bytes4"}],"outputs":[{"name":"","type":"bool","internalType":"bool"}],"stateMutability":"view"},{"type":"function","name":"tempos","inputs":[{"name":"","type":"uint256","internalType":"uint256"}],"outputs":[{"name":"pool","type":"uint256","internalType":"uint256"},{"name":"totalFinalScore","type":"uint256","internalType":"uint256"},{"name":"endTimestamp","type":"uint256","internalType":"uint256"},{"name":"poolSet","type":"bool","internalType":"bool"}],"stateMutability":"view"},{"type":"function","name":"triggerTempoDistribution","inputs":[{"name":"tempoId","type":"uint256","internalType":"uint256"}],"outputs":[],"stateMutability":"nonpayable"},{"type":"function","name":"trustedForwarder","inputs":[],"outputs":[{"name":"","type":"address","internalType":"address"}],"stateMutability":"view"},{"type":"function","name":"upgradeToAndCall","inputs":[{"name":"newImplementation","type":"address","internalType":"address"},{"name":"data","type":"bytes","internalType":"bytes"}],"outputs":[],"stateMutability":"payable"},{"type":"event","name":"ContributionRecorded","inputs":[{"name":"tempoId","type":"uint256","indexed":true,"internalType":"uint256"},{"name":"agent","type":"address","indexed":true,"internalType":"address"},{"name":"contributionType","type":"string","indexed":false,"internalType":"string"}],"anonymous":false},{"type":"event","name":"Initialized","inputs":[{"name":"version","type":"uint64","indexed":false,"internalType":"uint64"}],"anonymous":false},{"type":"event","name":"RewardClaimed","inputs":[{"name":"tempoId","type":"uint256","indexed":true,"internalType":"uint256"},{"name":"agent","type":"address","indexed":true,"internalType":"address"},{"name":"amount","type":"uint256","indexed":false,"internalType":"uint256"}],"anonymous":false},{"type":"event","name":"RoleAdminChanged","inputs":[{"name":"role","type":"bytes32","indexed":true,"internalType":"bytes32"},{"name":"previousAdminRole","type":"bytes32","indexed":true,"internalType":"bytes32"},{"name":"newAdminRole","type":"bytes32","indexed":true,"internalType":"bytes32"}],"anonymous":false},{"type":"event","name":"RoleGranted","inputs":[{"name":"role","type":"bytes32","indexed":true,"internalType":"bytes32"},{"name":"account","type":"address","indexed":true,"internalType":"address"},{"name":"sender","type":"address","indexed":true,"internalType":"address"}],"anonymous":false},{"type":"event","name":"RoleRevoked","inputs":[{"name":"role","type":"bytes32","indexed":true,"internalType":"bytes32"},{"name":"account","type":"address","indexed":true,"internalType":"address"},{"name":"sender","type":"address","indexed":true,"internalType":"address"}],"anonymous":false},{"type":"event","name":"ScoreRegistered","inputs":[{"name":"tempoId","type":"uint256","indexed":true,"internalType":"uint256"},{"name":"agent","type":"address","indexed":true,"internalType":"address"},{"name":"finalScore","type":"uint256","indexed":false,"internalType":"uint256"}],"anonymous":false},{"type":"event","name":"TempoPoolSet","inputs":[{"name":"tempoId","type":"uint256","indexed":true,"internalType":"uint256"},{"name":"pool","type":"uint256","indexed":false,"internalType":"uint256"}],"anonymous":false},{"type":"event","name":"TempoTriggered","inputs":[{"name":"tempoId","type":"uint256","indexed":true,"internalType":"uint256"},{"name":"triggerer","type":"address","indexed":true,"internalType":"address"},{"name":"pool","type":"uint256","indexed":false,"internalType":"uint256"}],"anonymous":false},{"type":"event","name":"Upgraded","inputs":[{"name":"implementation","type":"address","indexed":true,"internalType":"address"}],"anonymous":false},{"type":"error","name":"AccessControlBadConfirmation","inputs":[]},{"type":"error","name":"AccessControlUnauthorizedAccount","inputs":[{"name":"account","type":"address","internalType":"address"},{"name":"neededRole","type":"bytes32","internalType":"bytes32"}]},{"type":"error","name":"AddressEmptyCode","inputs":[{"name":"target","type":"address","internalType":"address"}]},{"type":"error","name":"ERC1967InvalidImplementation","inputs":[{"name":"implementation","type":"address","internalType":"address"}]},{"type":"error","name":"ERC1967NonPayable","inputs":[]},{"type":"error","name":"FailedCall","inputs":[]},{"type":"error","name":"InvalidInitialization","inputs":[]},{"type":"error","name":"NotInitializing","inputs":[]},{"type":"error","name":"ReentrancyGuardReentrantCall","inputs":[]},{"type":"error","name":"UUPSUnauthorizedCallContext","inputs":[]},{"type":"error","name":"UUPSUnsupportedProxiableUUID","inputs":[{"name":"slot","type":"bytes32","internalType":"bytes32"}]}],"bytecode":{"object":"0x60c0346200014c576001600160401b0390601f62002ab838819003918201601f19168301918483118484101762000150578084926020946040528339810103126200014c57516001600160a01b03811681036200014c5760017f9b779b17422d0df92223018b32b4d1fa46e071723d6817e2486d003becc55f00553060805260a0527ff0c57e16840df040f15088dc2f81fe391c3923bec73e23a9662efc9c229c6a009081549060ff8260401c166200013a578080831603620000f4575b60405161295390816200016582396080518181816114ba015261159f015260a05181818161118401528181611448015261281e0152f35b6001600160401b031990911681179091556040519081527fc7f505b2f371ae2175ee4913f4499e1f2633a7b5936321eed1cdaeb6115181d290602090a15f8080620000bd565b60405163f92ee8a960e01b8152600490fd5b5f80fd5b634e487b7160e01b5f52604160045260245ffdfe6080604081815260049081361015610015575f80fd5b5f9160e0905f35821c94856301ffc9a714611e9e5750846302768de414611e645784630c9cbf7d14611e365784630fec4aaf14611df2578463120aa87714611dae5784631b40affa14611cda5784631f36dbac146119b3578463248a9ca314611ca4578463262e9b8414611c895784632830982a14611c46578463287946b314611c0f5784632f2ff15d14611bc957846336568abe14611b3257846336a6ab4714611a985784633a4c13f914611a595784633d891f59146119b8578463438e8252146119b3578463485cc955146117e35784634b7d94ad146117c65784634eeb70291461179a5784634f1ef2861461151e57846352d1902d146114a757846357281aba1461146f578463572b6c051461141e57846357fc6ac1146113d157846360a51cbf146113ac5784636303b67c146112bb57846363311934146112995784637677e39f1461120257846379021310146111db5784637b103999146111b35784637da0a87714611170578463871aa80f146110ba57846391d148541461106a5784639f480cf81461104d5784639f82231714611032578463a217fddf14611018578463a823b4da14610fec578463aa4c285c14610fad578463ad3cb1cc14610f0f578463ae169a5014610c20578463b03381bc14610be8578463b54c6350146106d7578463b661e16314610941578463b83165ae14610279578463d1921a9514610925578463d547741f146108d5578463dc8d7a4a14610839578463e081dbf9146106fb578463e6fd48bc146106dc578463ea39de71146106d7578463ef12262e146106b7578463f29f7f871461027e575050505063fb1334aa14610279575f80fd5b611fb9565b346106b3576020806003193601126106af5781359261029c846120c2565b90600382101561069c5760018092036106605781546001600160a01b0391908216848360246102c96127f3565b8b51948593849263c3c5a54760e01b8452168b8301525afa90811561056e578991610626575b50156105eb5785885260068452868820826103086127f3565b165f52845260ff875f2054166105b4576103a290868952600385528789208361032f6127f3565b165f5285526009885f2089519261034584611f5f565b81548452868201548885015260028201548b85015260038201546060850152888201546080850152600582015460a0850152600682015460c08501526007820154908401526008810154610100840152015461012082015261260c565b8015610578576103d0606491836103b76127f3565b168a52600886526103ca898b2054612500565b906121c7565b049185885284845260ff6003888a2001541615610474575b7f1148c23fab896ddc28ba2b404e9a129c3c3dc5bf32b324261ae48f17176541d394868952600685528789208361041d6127f3565b165f528552875f208260ff1982541617905586895260058552878920836104426127f3565b165f52855283885f20558689528452868820016104608382546120b5565b905561046a6127f3565b169451908152a380f35b8484838a54168951978880926330375f9960e11b82525afa801561056e57899061051d575b7f1148c23fab896ddc28ba2b404e9a129c3c3dc5bf32b324261ae48f17176541d39650878a52818652888a2055867fd3556f36cc39e5c83d9f909c0d737c3ccc6ea47369da3dffc7aa9b5a71d6823a866104f2836121da565b838d528482528b8d20906002820155600381018660ff19825416179055548b51908152a294506103e8565b508486813d8311610567575b6105338183611f7c565b81010312610563577f1148c23fab896ddc28ba2b404e9a129c3c3dc5bf32b324261ae48f17176541d39551610499565b5f80fd5b503d610529565b88513d8b823e3d90fd5b865162461bcd60e51b815280860185905260166024820152752a32b6b8379d1037379031b7b73a3934b13aba34b7b760511b6044820152606490fd5b865162461bcd60e51b8152808601859052601160248201527015195b5c1bce881c9959da5cdd195c9959607a1b6044820152606490fd5b865162461bcd60e51b8152808601859052601560248201527415195b5c1bce881b9bdd081c9959da5cdd195c9959605a1b6044820152606490fd5b90508481813d8311610659575b61063d8183611f7c565b810103126106555751801515810361065557896102ef565b8880fd5b503d610633565b855162461bcd60e51b8152808501849052601660248201527554656d706f3a206e6f74207265676973746572696e6760501b6044820152606490fd5b634e487b7160e01b875260218452602487fd5b8480fd5b8380fd5b5050346106d357816003193601126106d3576020905160328152f35b5080fd5b611f9e565b5050346106d357816003193601126106d3576020906002549051908152f35b90346106b357826003193601126106b35761014093610718611f06565b9284519361072585611f5f565b82855282602086015282868601528260608601528260808601528260a08601528260c08601528284860152856101009380858801528061012080980152833581526003602052209060018060a01b03165f52602052845f2092855193849261078c84611f5f565b81549081855260018301549860208601998a5260028401549181870192835260038501549060608801918252850154916080880192835260058601549360a0890194855260068701549560c08a019687528c600960078a0154998b8d019a8b528d60088201549d019c8d5201549c019b8c52602083519e8f9283525191015251908c01525160608b01525160808a01525160a08901525160c0880152519086015251908401525190820152f35b5050346106d35760203660031901126106d357610854611ef0565b9061085d612235565b5f805160206128fe833981519152606062093a8061087d6002544261220a565b04926108898486612301565b83865260036020528086209460018060a01b031694855f526020526005815f20016108b48154612093565b9055651c995c1bdc9d60d21b8151916020835260066020840152820152a380f35b9190503461092157806003193601126109215761091d913561091860016108fa611f06565b938387525f805160206128de833981519152602052862001546122bf565b612581565b5080f35b8280fd5b5050346106d357816003193601126106d35760209051600f8152f35b91905034610921576020806003193601126106b35782359261096161253f565b61096a846120c2565b6003811015610bd55715610b9e5783855280825260ff6003848720015416610b5d5760018060a01b03928183858854168351948580926330375f9960e11b82525afa928315610b53578793610b24575b508215610ae3578690868252808552838383205560036109d9886121da565b88845282875284842090600282015501600160ff1982541617905585825416610a006127f3565b813b156106b35760448891858094885196879586946340c10f1960e01b86521690840152670de0b6b3a764000060248401525af18015610ad957610ac1575b50507fd3556f36cc39e5c83d9f909c0d737c3ccc6ea47369da3dffc7aa9b5a71d6823a93610a6b6127f3565b16857f06d6f2462678d03b44374808121750f6e0e9bda1ad9242986fdb3df41e38b9d4858451868152a351908152a260017f9b779b17422d0df92223018b32b4d1fa46e071723d6817e2486d003becc55f005580f35b610aca90611f37565b610ad5578587610a3f565b8580fd5b83513d84823e3d90fd5b83606492519162461bcd60e51b8352820152601860248201527f54656d706f3a2068616c76696e672065786861757374656400000000000000006044820152fd5b9092508381813d8311610b4c575b610b3c8183611f7c565b81010312610563575191876109ba565b503d610b32565b82513d89823e3d90fd5b915162461bcd60e51b815291820152601860248201527f54656d706f3a20616c72656164792074726967676572656400000000000000006044820152606490fd5b915162461bcd60e51b815291820152601360248201527254656d706f3a207374696c6c2061637469766560681b6044820152606490fd5b634e487b7160e01b865260218252602486fd5b5050346106d35760203660031901126106d35760209181906001600160a01b03610c10611ef0565b1681526008845220549051908152f35b9050346105635760208060031936011261056357813591610c3f61253f565b610c48836120c2565b6003811015610efc57600203610ec4575f838152600683528490206001600160a01b039081610c756127f3565b165f52835260ff855f20541680610e9e575b15610e6b57835f5260078352845f2081610c9f6127f3565b165f528352845f20600160ff19825416179055835f5260058352845f2081610cc56127f3565b165f528352845f205491845f52808452855f20600181015490549381151580610e62575b15610e305790610cfc610d0192866121c7565b612217565b92600a810290808204600a1490151715610e1d5760649004808411610e15575b5082610d50575b8660017f9b779b17422d0df92223018b32b4d1fa46e071723d6817e2486d003becc55f005580f35b815f5416610d5c6127f3565b813b1561056357604484915f80948b5196879586946340c10f1960e01b865216908401528860248401525af18015610e0b57610dd2575b50907f24b5efa61dd1cfc659205a97fb8ed868f3cb8c81922bab2b96423e5de1de2cb79291610dc06127f3565b169451908152a3818080808080610d28565b7f24b5efa61dd1cfc659205a97fb8ed868f3cb8c81922bab2b96423e5de1de2cb79392919650610e0190611f37565b5f95909192610d93565b86513d5f823e3d90fd5b925087610d21565b601182634e487b7160e01b5f525260245ffd5b875162461bcd60e51b8152808401879052600c60248201526b54656d706f3a20656d70747960a01b6044820152606490fd5b50841515610ce9565b5060649184519162461bcd60e51b8352820152600e60248201526d15195b5c1bce881a5b9d985b1a5960921b6044820152fd5b50835f5260078352845f2081610eb26127f3565b165f52835260ff855f20541615610c87565b60649184519162461bcd60e51b8352820152601460248201527354656d706f3a206e6f7420636c61696d61626c6560601b6044820152fd5b602182634e487b7160e01b5f525260245ffd5b8234610563575f366003190112610563578051918183019083821067ffffffffffffffff831117610f9a57508152600582526020640352e302e360dc1b60208401528151928391602083528151918260208501525f5b838110610f845750505f83830185015250601f01601f19168101030190f35b8181018301518782018701528694508201610f65565b604190634e487b7160e01b5f525260245ffd5b8234610563578060031936011261056357602091610fc9611f06565b90355f52600a8352815f209060018060a01b03165f528252805f20549051908152f35b8234610563575f3660031901126105635760209062093a806110106002544261220a565b049051908152f35b8234610563575f36600319011261056357602090515f8152f35b8234610563575f3660031901126105635760209051601e8152f35b8234610563575f366003190112610563576020905162093a808152f35b8234610563578060031936011261056357602091611086611f06565b90355f525f805160206128de8339815191528352815f209060018060a01b03165f52825260ff815f20541690519015158152f35b82346105635780600319360112610563575f805160206128fe83398151915260606110e3611ef0565b936110ec612235565b6373616c6560e01b62093a806111046002544261220a565b04946111108688612301565b855f5260209260038452815f209760018060a01b031697885f5284526003825f200161113c8154612093565b9055865f5260038452815f20885f52845280825f200161115f60243582546120b5565b9055815193808552840152820152a3005b8234610563575f36600319011261056357517f00000000000000000000000000000000000000000000000000000000000000006001600160a01b03168152602090f35b8234610563575f3660031901126105635760015490516001600160a01b039091168152602090f35b8234610563575f366003190112610563575f5490516001600160a01b039091168152602090f35b82346105635760203660031901126105635761121c611ef0565b90611225612235565b5f805160206128fe833981519152606062093a806112456002544261220a565b04926112518486612301565b835f526003602052805f209460018060a01b031694855f526020526006815f200161127c8154612093565b9055623437b360e91b8151916020835260036020840152820152a3005b8234610563575f3660031901126105635760209051670de0b6b3a76400008152f35b8234610563576060366003190112610563576112d5611ef0565b9060443580151581036105635760605f805160206128fe833981519152916112fb612235565b6530b739bbb2b960d11b62093a806113156002544261220a565b04946113218688612301565b855f5260209260038452815f209760018060a01b031697885f528452815f2061134a8154612093565b9055865f5260038452815f20885f5284526001825f200161136e60243582546120b5565b9055611386575b6006815193808552840152820152a3005b855f5260038352805f20875f5283526008815f20016113a58154612093565b9055611375565b8234610563576020366003190112610563576113ca602092356121da565b9051908152f35b82346105635760203660031901126105635781608092355f52602052805f209081549160018101549160ff6003600284015493015416928151948552602085015283015215156060820152f35b82346105635760203660031901126105635760209061143b611ef0565b60018060a01b03915191807f0000000000000000000000000000000000000000000000000000000000000000169116148152f35b8234610563576020366003190112610563576020906001600160a01b03611494611ef0565b165f52600882526113ca815f2054612500565b8234610563575f366003190112610563577f00000000000000000000000000000000000000000000000000000000000000006001600160a01b0316300361151157602090517f360894a13ba1a3210667c828492db98dca3e2076cc3735a920a3ca505d382bbc8152f35b5163703e46dd60e11b8152fd5b90508160031936011261056357611533611ef0565b602492833567ffffffffffffffff92838211610563573660238301121561056357818501359384116117885760209383519261157886601f19601f8501160185611f7c565b8184523688838301011161056357815f928988930183870137840101526001600160a01b037f0000000000000000000000000000000000000000000000000000000000000000811630811490811561175a575b5061174a576115d86127f3565b5f80525f805160206128de833981519152865281855f20911690815f52865260ff855f2054161561172f575083516352d1902d60e01b81529082169480828881895afa9182915f936116ff575b505061163f575050505191634c9c8ce360e01b8352820152fd5b85938591887f360894a13ba1a3210667c828492db98dca3e2076cc3735a920a3ca505d382bbc918281036116ea5750843b156116d6575080546001600160a01b0319168317905551907fbc7cd75a20ee27fd9adebab32041f755214dbc6bffa90cc0225b39da2e5c2d3b5f80a28251156116c057506116be925061284c565b005b915050346116ca57005b63b398979f60e01b8152fd5b8251634c9c8ce360e01b8152808801859052fd5b8351632a87526960e21b815280890191909152fd5b9080929350813d8311611728575b6117178183611f7c565b810103126105635751908880611625565b503d61170d565b865f8960449388519363e2517d3f60e01b8552840152820152fd5b835163703e46dd60e11b81528690fd5b9050817f360894a13ba1a3210667c828492db98dca3e2076cc3735a920a3ca505d382bbc54161415886115cb565b85604186634e487b7160e01b5f52525ffd5b823461056357366003190112610563576116be6117b5611ef0565b6117bd612235565b602435906120f4565b8234610563575f36600319011261056357602090516202a3008152f35b9050346105635781600319360112610563576117fd611ef0565b90611806611f06565b907ff0c57e16840df040f15088dc2f81fe391c3923bec73e23a9662efc9c229c6a009283549260ff84871c16159367ffffffffffffffff8116801590816119ab575b60011490816119a1575b159081611998575b506119885767ffffffffffffffff198116600117865584611969575b5060ff8554871c1615611959576001600160a01b03918216928315158061194e575b1561191857506bffffffffffffffffffffffff60a01b92835f5416175f55169060015416176001556118d06118cb6127f3565b6123c0565b50426002556118db57005b805468ff00000000000000001916905551600181527fc7f505b2f371ae2175ee4913f4499e1f2633a7b5936321eed1cdaeb6115181d290602090a1005b606490602088519162461bcd60e51b8352820152601060248201526f2a32b6b8379d103d32b9379030b2323960811b6044820152fd5b508282161515611898565b8551631afcd79f60e31b81528390fd5b68ffffffffffffffffff19166801000000000000000117855586611876565b865163f92ee8a960e01b81528490fd5b9050158861185a565b303b159150611852565b869150611848565b611f1c565b34610563578260031936011261056357610140926119d4611f06565b82355f526003602052815f209060018060a01b03165f52602052805f2090815493600183015493600284015490600385015490850154600586015491600687015493600788015496600960088a01549901549981519b8c5260208c01528a01526060890152608088015260a087015260c0860152840152610100830152610120820152f35b8234610563578060031936011261056357602091611a75611f06565b90355f5260058352815f209060018060a01b03165f528252805f20549051908152f35b823461056357602036600319011261056357611ab2611ef0565b90611abb612235565b5f805160206128fe833981519152606062093a80611adb6002544261220a565b0492611ae78486612301565b835f526003602052805f209460018060a01b031694855f526020526007815f2001611b128154612093565b90556572657669657760d01b8151916020835260066020840152820152a3005b82346105635780600319360112610563578135611b4d611f06565b918115611b87576001600160a01b0380611b656127f3565b1690841603611b78576116be8383612581565b5163334bd91960e11b81528390fd5b5162461bcd60e51b8152602081850152601c60248201527f54656d706f3a2063616e6e6f742072656e6f756e63652061646d696e000000006044820152606490fd5b82346105635780600319360112610563576116be9135611c0a6001611bec611f06565b93835f525f805160206128de8339815191526020525f2001546122bf565b61246b565b8234610563576020366003190112610563576020906001600160a01b03611c34611ef0565b165f5260098252805f20549051908152f35b823461056357602036600319011261056357611c6282356120c2565b9051906003811015611c7657602092508152f35b602183634e487b7160e01b5f525260245ffd5b8234610563575f366003190112610563576020905160fa8152f35b823461056357602036600319011261056357602091355f525f805160206128de83398151915282526001815f2001549051908152f35b8234610563578060031936011261056357611cf3611ef0565b9060243580151581036105635760605f805160206128fe83398151915291611d19612235565b6a3132b9ba2fb0b739bbb2b960a91b62093a80611d386002544261220a565b0494611d448688612301565b855f5260209260038452815f209760018060a01b031697885f5284526002825f2001611d708154612093565b9055611d88575b600b815193808552840152820152a3005b855f5260038352805f20875f5283526009815f2001611da78154612093565b9055611d77565b8234610563578060031936011261056357602091611dca611f06565b90355f5260078352815f209060018060a01b03165f52825260ff815f20541690519015158152f35b8234610563578060031936011261056357602091611e0e611f06565b90355f5260068352815f209060018060a01b03165f52825260ff815f20541690519015158152f35b823461056357602036600319011261056357602090611e5b611e56611ef0565b611fd4565b90519015158152f35b8234610563575f36600319011261056357602090517fba279271fb7bbf76a6f3df3cc57bf80647fcafdea60ec3383d90f459de74e7c08152f35b903461056357602036600319011261056357359063ffffffff60e01b821680920361056357602091637965db0b60e01b8114908115611edf575b5015158152f35b6301ffc9a760e01b14905083611ed8565b600435906001600160a01b038216820361056357565b602435906001600160a01b038216820361056357565b34610563575f36600319011261056357602060405160058152f35b67ffffffffffffffff8111611f4b57604052565b634e487b7160e01b5f52604160045260245ffd5b610140810190811067ffffffffffffffff821117611f4b57604052565b90601f8019910116810190811067ffffffffffffffff821117611f4b57604052565b34610563575f36600319011261056357602060405160148152f35b34610563575f366003190112610563576020604051600a8152f35b600154604051635a2d572960e11b81526001600160a01b039283166004820181905292602092839183916024918391165afa908115612088575f91612050575b5060ff600291161061204a5762093a806120306002544261220a565b045f52600a815260405f20915f5252601460405f20541090565b50505f90565b90508181813d8311612081575b6120678183611f7c565b81010312610563575160ff811681036105635760ff612014565b503d61205d565b6040513d5f823e3d90fd5b5f1981146120a15760010190565b634e487b7160e01b5f52601160045260245ffd5b919082018092116120a157565b6120cb906121da565b8042106120ef576202a30081018091116120a15742106120ea57600290565b600190565b505f90565b906120fe82611fd4565b156121c3575f805160206128fe833981519152606062093a806121236002544261220a565b049261212f8486612301565b835f526d7175616c69666965645f73616c6560901b602091600a8352604090815f209760018060a01b031697885f528452815f2061216d8154612093565b9055865f5260038452815f20885f5284526003825f200161218e8154612093565b9055865f5260038452815f20885f5284526121b06004835f20019182546120b5565b9055600e815193808552840152820152a3565b5050565b818102929181159184041417156120a157565b60025490600181018091116120a15762093a80908181029181830414901517156120a157612207916120b5565b90565b919082039182116120a157565b8115612221570490565b634e487b7160e01b5f52601260045260245ffd5b61223d6127f3565b6001600160a01b03165f8181527f1a6cd9a7b8103b1ac8ae3acbee9fd0afe79825cbeda582da2cdf52e70cae65a960205260409020547fba279271fb7bbf76a6f3df3cc57bf80647fcafdea60ec3383d90f459de74e7c09060ff16156122a1575050565b604492506040519163e2517d3f60e01b835260048301526024820152fd5b6122c76127f3565b90805f525f805160206128de83398151915260205260405f209160018060a01b031691825f5260205260ff60405f205416156122a1575050565b60018060a01b0316805f5260209060088252604091825f20541515806123b0575b6123aa5760088152825f2054155f1461234e57816009925f52600882526001845f20555b5f52525f2055565b8315158061238d575b600992901561237b57805f5260088252835f206123748154612093565b9055612346565b805f52600882526001845f2055612346565b5060098152825f2054915f1985018581116120a157909214612357565b50505050565b506009815283835f205414612322565b6001600160a01b039081165f8181527fb7db2dd08fcb62d0c9e08c51941cae53c267786a0b75803fb7960902fc8ef97d60205260409020549091905f805160206128de8339815191529060ff16612464575f805260205260405f20825f5260205260405f20600160ff198254161790556124386127f3565b16905f7f2f8788117e7eff1d82e926ec794901d17c78024a50270940304540a733656f0d8180a4600190565b5050505f90565b5f8181525f805160206128de833981519152602081815260408084206001600160a01b039687168086529252909220549293919260ff166124f857835f5260205260405f20825f5260205260405f20600160ff198254161790556124cd6127f3565b16917f2f8788117e7eff1d82e926ec794901d17c78024a50270940304540a733656f0d5f80a4600190565b505050505f90565b603581101561253957601b81101561253357600d81101561252d576005111561252857606490565b608290565b5060a090565b5060c890565b5060fa90565b7f9b779b17422d0df92223018b32b4d1fa46e071723d6817e2486d003becc55f00600281541461256f5760029055565b604051633ee5aeb560e01b8152600490fd5b5f8181525f805160206128de833981519152602081815260408084206001600160a01b039687168086529252909220549293919260ff16156124f857835f5260205260405f20825f5260205260405f2060ff1981541690556125e16127f3565b16917ff6391f5c32d9c69d2a47ea670b442974b53935d1edc7fd64eb21e047a839171b5f80a4600190565b80516127c2575b5f815180612747575b50604082015161263361012084019182519061220a565b90600a820291808304600a14901517156120a15751600f810290808204600f14901517156120a157612664916120b5565b90601e820291808304601e14901517156120a157600a6126859204906120b5565b606082018051908161270c575b505060a0820151600f810290808204600f14901517156120a1576126b5916120b5565b60c0820151600581111561270657506005905b6032820291808304603214901517156120a15760e0916126e7916120b5565b9101516005810290808204600514901517156120a157612207916120b5565b906126c8565b61271d612724926080860151612217565b90516121c7565b6014810290808204601414901517156120a157612740916120b5565b5f80612692565b61275691506020830151612217565b81519061276a61010084019283519061220a565b91600a830292808404600a14901517156120a1575191600f830292808404600f14901517156120a1576127a5926127a0916120b5565b6121c7565b600a810290808204600a14901517156120a157600a90045f61261c565b60208101516064810290808204606414901517156120a1576127e860fa91835190612217565b101561261357505f90565b60143610158061281a575b15612816576013193601368111610563573560601c90565b3390565b50337f00000000000000000000000000000000000000000000000000000000000000006001600160a01b0316146127fe565b905f8091602081519101845af480806128ca575b156128805750506040513d81523d5f602083013e60203d82010160405290565b156128a757604051639996b31560e01b81526001600160a01b039091166004820152602490fd5b3d156128b8576040513d5f823e3d90fd5b60405163d6bda27560e01b8152600490fd5b503d1515806128605750813b151561286056fe02dd7bc7dec4dceedda775e58dd541e08a116c6c53815c0bd028192f7b626800f1331e4242003711466b09410b194b26b0e8c76dd360d8cd6e9e2bb26f614c1da26469706673582212204663c8ac757e5920d6bebb5acc6ce1ff48b67e5cc15c86f1ac6547cb7f3020a664736f6c63430008180033","linkReferences":{}},"methodIdentifiers":{"DEFAULT_ADMIN_ROLE()":"a217fddf","MAX_HOF_SCORE_CAP()":"438e8252","MAX_POOL_SHARE_PERCENT()":"fb1334aa","MAX_QUALIFIED_SALE_CREDITS_PER_TEMPO()":"b54c6350","MIN_AVG_RATING()":"262e9b84","PROTOCOL_ROLE()":"02768de4","SCORE_REGISTRATION_WINDOW()":"4b7d94ad","TEMPO_DURATION()":"9f480cf8","TRIGGER_REWARD()":"63311934","UPGRADE_INTERFACE_VERSION()":"ad3cb1cc","W_ANSWER()":"b83165ae","W_BEST_ANSWER()":"9f822317","W_HOF()":"ef12262e","W_REPORT()":"d1921a95","W_REVIEW()":"1f36dbac","W_SALE()":"ea39de71","canReceiveSaleTempoCredit(address)":"0c9cbf7d","ckt()":"79021310","claimReward(uint256)":"ae169a50","claimed(uint256,address)":"120aa877","contributions(uint256,address)":"3d891f59","currentTempoId()":"a823b4da","finalScores(uint256,address)":"3a4c13f9","getContribution(uint256,address)":"e081dbf9","getRoleAdmin(bytes32)":"248a9ca3","getStreakMultiplier(address)":"57281aba","getTempoEndTimestamp(uint256)":"60a51cbf","getTempoPhase(uint256)":"2830982a","grantRole(bytes32,address)":"2f2ff15d","hasRole(bytes32,address)":"91d14854","initialize(address,address)":"485cc955","isTrustedForwarder(address)":"572b6c05","lastActiveTempo(address)":"287946b3","proxiableUUID()":"52d1902d","qualifiedSaleCreditsPerTempo(uint256,address)":"aa4c285c","recordAnswer(address,uint256,bool)":"6303b67c","recordBestAnswer(address,bool)":"1b40affa","recordHoF(address)":"7677e39f","recordQualifiedSale(address,uint256)":"4eeb7029","recordReport(address)":"dc8d7a4a","recordReview(address)":"36a6ab47","recordSale(address,uint256)":"871aa80f","registerScore(uint256)":"f29f7f87","registry()":"7b103999","renounceRole(bytes32,address)":"36568abe","revokeRole(bytes32,address)":"d547741f","scoreRegistered(uint256,address)":"0fec4aaf","startTimestamp()":"e6fd48bc","streakCount(address)":"b03381bc","supportsInterface(bytes4)":"01ffc9a7","tempos(uint256)":"57fc6ac1","triggerTempoDistribution(uint256)":"b661e163","trustedForwarder()":"7da0a877","upgradeToAndCall(address,bytes)":"4f1ef286"},"id":57}